{
  "_format": "hh-sol-artifact-1",
  "contractName": "ZkMLVerifier",
  "sourceName": "src/templates/ZkMLVerifier.sol",
  "abi": [
    {
      "inputs": [],
      "stateMutability": "nonpayable",
      "type": "constructor"
    },
    {
      "inputs": [
        {
          "internalType": "address",
          "name": "owner",
          "type": "address"
        }
      ],
      "name": "OwnableInvalidOwner",
      "type": "error"
    },
    {
      "inputs": [
        {
          "internalType": "address",
          "name": "account",
          "type": "address"
        }
      ],
      "name": "OwnableUnauthorizedAccount",
      "type": "error"
    },
    {
      "anonymous": false,
      "inputs": [
        {
          "indexed": false,
          "internalType": "bool",
          "name": "enabled",
          "type": "bool"
        }
      ],
      "name": "DevModeToggled",
      "type": "event"
    },
    {
      "anonymous": false,
      "inputs": [
        {
          "indexed": true,
          "internalType": "bytes32",
          "name": "imageId",
          "type": "bytes32"
        }
      ],
      "name": "ImageRevoked",
      "type": "event"
    },
    {
      "anonymous": false,
      "inputs": [
        {
          "indexed": true,
          "internalType": "bytes32",
          "name": "imageId",
          "type": "bytes32"
        }
      ],
      "name": "ImageTrusted",
      "type": "event"
    },
    {
      "anonymous": false,
      "inputs": [
        {
          "indexed": true,
          "internalType": "address",
          "name": "previousOwner",
          "type": "address"
        },
        {
          "indexed": true,
          "internalType": "address",
          "name": "newOwner",
          "type": "address"
        }
      ],
      "name": "OwnershipTransferred",
      "type": "event"
    },
    {
      "anonymous": false,
      "inputs": [
        {
          "indexed": true,
          "internalType": "bytes32",
          "name": "proofHash",
          "type": "bytes32"
        },
        {
          "indexed": true,
          "internalType": "bytes32",
          "name": "imageId",
          "type": "bytes32"
        },
        {
          "indexed": false,
          "internalType": "address",
          "name": "verifier",
          "type": "address"
        },
        {
          "indexed": false,
          "internalType": "bool",
          "name": "isValid",
          "type": "bool"
        }
      ],
      "name": "ProofVerified",
      "type": "event"
    },
    {
      "inputs": [],
      "name": "PROOF_TYPE_DEV",
      "outputs": [
        {
          "internalType": "uint8",
          "name": "",
          "type": "uint8"
        }
      ],
      "stateMutability": "view",
      "type": "function"
    },
    {
      "inputs": [],
      "name": "PROOF_TYPE_GROTH16",
      "outputs": [
        {
          "internalType": "uint8",
          "name": "",
          "type": "uint8"
        }
      ],
      "stateMutability": "view",
      "type": "function"
    },
    {
      "inputs": [],
      "name": "PROOF_TYPE_STARK",
      "outputs": [
        {
          "internalType": "uint8",
          "name": "",
          "type": "uint8"
        }
      ],
      "stateMutability": "view",
      "type": "function"
    },
    {
      "inputs": [],
      "name": "RISC0_VERIFIER",
      "outputs": [
        {
          "internalType": "address",
          "name": "",
          "type": "address"
        }
      ],
      "stateMutability": "view",
      "type": "function"
    },
    {
      "inputs": [
        {
          "internalType": "address",
          "name": "",
          "type": "address"
        }
      ],
      "name": "authorizedVerifiers",
      "outputs": [
        {
          "internalType": "bool",
          "name": "",
          "type": "bool"
        }
      ],
      "stateMutability": "view",
      "type": "function"
    },
    {
      "inputs": [
        {
          "internalType": "bytes32",
          "name": "imageId",
          "type": "bytes32"
        },
        {
          "internalType": "bytes",
          "name": "journal",
          "type": "bytes"
        },
        {
          "internalType": "bytes",
          "name": "seal",
          "type": "bytes"
        }
      ],
      "name": "computeProofHash",
      "outputs": [
        {
          "internalType": "bytes32",
          "name": "",
          "type": "bytes32"
        }
      ],
      "stateMutability": "pure",
      "type": "function"
    },
    {
      "inputs": [],
      "name": "devModeEnabled",
      "outputs": [
        {
          "internalType": "bool",
          "name": "",
          "type": "bool"
        }
      ],
      "stateMutability": "view",
      "type": "function"
    },
    {
      "inputs": [
        {
          "internalType": "bytes32",
          "name": "proofHash",
          "type": "bytes32"
        }
      ],
      "name": "getVerification",
      "outputs": [
        {
          "components": [
            {
              "internalType": "bytes32",
              "name": "imageId",
              "type": "bytes32"
            },
            {
              "internalType": "bytes32",
              "name": "journalHash",
              "type": "bytes32"
            },
            {
              "internalType": "address",
              "name": "verifier",
              "type": "address"
            },
            {
              "internalType": "uint256",
              "name": "verifiedAt",
              "type": "uint256"
            },
            {
              "internalType": "bool",
              "name": "isValid",
              "type": "bool"
            }
          ],
          "internalType": "struct ZkMLVerifier.VerifiedProof",
          "name": "",
          "type": "tuple"
        }
      ],
      "stateMutability": "view",
      "type": "function"
    },
    {
      "inputs": [
        {
          "internalType": "bytes32",
          "name": "imageId",
          "type": "bytes32"
        }
      ],
      "name": "isImageTrusted",
      "outputs": [
        {
          "internalType": "bool",
          "name": "",
          "type": "bool"
        }
      ],
      "stateMutability": "view",
      "type": "function"
    },
    {
      "inputs": [],
      "name": "maxProofAge",
      "outputs": [
        {
          "internalType": "uint256",
          "name": "",
          "type": "uint256"
        }
      ],
      "stateMutability": "view",
      "type": "function"
    },
    {
      "inputs": [],
      "name": "openVerification",
      "outputs": [
        {
          "internalType": "bool",
          "name": "",
          "type": "bool"
        }
      ],
      "stateMutability": "view",
      "type": "function"
    },
    {
      "inputs": [],
      "name": "owner",
      "outputs": [
        {
          "internalType": "address",
          "name": "",
          "type": "address"
        }
      ],
      "stateMutability": "view",
      "type": "function"
    },
    {
      "inputs": [],
      "name": "renounceOwnership",
      "outputs": [],
      "stateMutability": "nonpayable",
      "type": "function"
    },
    {
      "inputs": [
        {
          "internalType": "bytes32",
          "name": "imageId",
          "type": "bytes32"
        }
      ],
      "name": "revokeImage",
      "outputs": [],
      "stateMutability": "nonpayable",
      "type": "function"
    },
    {
      "inputs": [
        {
          "internalType": "address",
          "name": "verifier",
          "type": "address"
        },
        {
          "internalType": "bool",
          "name": "authorized",
          "type": "bool"
        }
      ],
      "name": "setAuthorizedVerifier",
      "outputs": [],
      "stateMutability": "nonpayable",
      "type": "function"
    },
    {
      "inputs": [
        {
          "internalType": "bool",
          "name": "enabled",
          "type": "bool"
        }
      ],
      "name": "setDevMode",
      "outputs": [],
      "stateMutability": "nonpayable",
      "type": "function"
    },
    {
      "inputs": [
        {
          "internalType": "uint256",
          "name": "age",
          "type": "uint256"
        }
      ],
      "name": "setMaxProofAge",
      "outputs": [],
      "stateMutability": "nonpayable",
      "type": "function"
    },
    {
      "inputs": [
        {
          "internalType": "bool",
          "name": "open",
          "type": "bool"
        }
      ],
      "name": "setOpenVerification",
      "outputs": [],
      "stateMutability": "nonpayable",
      "type": "function"
    },
    {
      "inputs": [
        {
          "internalType": "uint256[4]",
          "name": "gamma",
          "type": "uint256[4]"
        }
      ],
      "name": "setVerificationKeyGamma",
      "outputs": [],
      "stateMutability": "nonpayable",
      "type": "function"
    },
    {
      "inputs": [
        {
          "internalType": "address",
          "name": "newOwner",
          "type": "address"
        }
      ],
      "name": "transferOwnership",
      "outputs": [],
      "stateMutability": "nonpayable",
      "type": "function"
    },
    {
      "inputs": [
        {
          "internalType": "bytes32",
          "name": "imageId",
          "type": "bytes32"
        }
      ],
      "name": "trustImage",
      "outputs": [],
      "stateMutability": "nonpayable",
      "type": "function"
    },
    {
      "inputs": [
        {
          "internalType": "bytes32[]",
          "name": "imageIds",
          "type": "bytes32[]"
        }
      ],
      "name": "trustImages",
      "outputs": [],
      "stateMutability": "nonpayable",
      "type": "function"
    },
    {
      "inputs": [
        {
          "internalType": "bytes32",
          "name": "",
          "type": "bytes32"
        }
      ],
      "name": "trustedImages",
      "outputs": [
        {
          "internalType": "bool",
          "name": "",
          "type": "bool"
        }
      ],
      "stateMutability": "view",
      "type": "function"
    },
    {
      "inputs": [
        {
          "internalType": "bytes32",
          "name": "",
          "type": "bytes32"
        }
      ],
      "name": "verifiedProofs",
      "outputs": [
        {
          "internalType": "bytes32",
          "name": "imageId",
          "type": "bytes32"
        },
        {
          "internalType": "bytes32",
          "name": "journalHash",
          "type": "bytes32"
        },
        {
          "internalType": "address",
          "name": "verifier",
          "type": "address"
        },
        {
          "internalType": "uint256",
          "name": "verifiedAt",
          "type": "uint256"
        },
        {
          "internalType": "bool",
          "name": "isValid",
          "type": "bool"
        }
      ],
      "stateMutability": "view",
      "type": "function"
    },
    {
      "inputs": [
        {
          "internalType": "bytes",
          "name": "proofData",
          "type": "bytes"
        }
      ],
      "name": "verify",
      "outputs": [
        {
          "internalType": "bool",
          "name": "isValid",
          "type": "bool"
        },
        {
          "internalType": "bytes32",
          "name": "journalHash",
          "type": "bytes32"
        }
      ],
      "stateMutability": "nonpayable",
      "type": "function"
    },
    {
      "inputs": [
        {
          "internalType": "bytes32",
          "name": "imageId",
          "type": "bytes32"
        },
        {
          "internalType": "bytes",
          "name": "journal",
          "type": "bytes"
        },
        {
          "internalType": "bytes",
          "name": "seal",
          "type": "bytes"
        },
        {
          "internalType": "uint8",
          "name": "proofType",
          "type": "uint8"
        }
      ],
      "name": "verifyProof",
      "outputs": [
        {
          "internalType": "bool",
          "name": "isValid",
          "type": "bool"
        },
        {
          "internalType": "bytes32",
          "name": "journalHash",
          "type": "bytes32"
        }
      ],
      "stateMutability": "nonpayable",
      "type": "function"
    },
    {
      "inputs": [
        {
          "internalType": "uint256",
          "name": "",
          "type": "uint256"
        }
      ],
      "name": "vkGamma",
      "outputs": [
        {
          "internalType": "uint256",
          "name": "",
          "type": "uint256"
        }
      ],
      "stateMutability": "view",
      "type": "function"
    },
    {
      "inputs": [],
      "name": "vkGammaSet",
      "outputs": [
        {
          "internalType": "bool",
          "name": "",
          "type": "bool"
        }
      ],
      "stateMutability": "view",
      "type": "function"
    }
  ],
  "bytecode": "0x608080604052346092573315607c5760008054336001600160a01b0319821681178355916001600160a01b03909116907f8be0079c531659141344cd1fd0a4f28419497f9722a3daafe3b4186f6b6457e09080a360ff1960085416600855610e10600955600160ff19600b541617600b5561162490816100988239f35b631e4fbdf760e01b600052600060045260246000fd5b600080fdfe6080604052600436101561001257600080fd5b60003560e01c806306e647cb146101d2578063176d80c4146101cd5780631bddcb19146101c85780632c5d696c146101c3578063391e6c99146101be57806343f9405f146101b95780634ee9f2d1146101b95780635423ac8e146101b45780635bb4aefd146101af5780636f5b6b20146101aa578063715018a6146101a55780637c897da2146101a05780637d4ba4fe1461019b5780638728f94f146101965780638bbd8fe5146101915780638da5cb5b1461018c5780638e760afe1461018757806394ef244014610182578063965a572b1461017d5780639a89171614610178578063a9c6dc0314610173578063b0e00c211461016e578063cd620de214610169578063d0e3f1b614610164578063e2dd67451461015f578063f08b224c1461015a578063f2fde38b146101555763fa592e3f1461015057600080fd5b610b9c565b610b13565b610af6565b610a06565b6109c5565b61098b565b610930565b6108d7565b610898565b61083c565b610767565b61063d565b610614565b61055d565b61050d565b6104ea565b610488565b61042f565b610411565b6103f5565b61039c565b61034b565b610325565b610309565b61029e565b610228565b346102235760803660031901126102235736608411610223576101f3610da1565b600460005b6004811061020f576005805460ff19166001179055005b6001906020833593019281830155016101f8565b600080fd5b3461022357602036600319011261022357600435600052600760205260a06040600020805490600181015490600180851b0360028201541660ff60046003840154930154169260405194855260208501526040840152606083015215156080820152f35b60209060031901126102235760043590565b34610223576102ac3661028c565b6102b4610da1565b603c811015806102fc575b156102c957600955005b60405162461bcd60e51b815260206004820152600b60248201526a496e76616c69642061676560a81b6044820152606490fd5b50620151808111156102bf565b3461022357600036600319011261022357602060405160028152f35b34610223576103333661028c565b60048110156102235760209060010154604051908152f35b34610223576020366003190112610223576004356000526006602052602060ff604060002054166040519015158152f35b600435906001600160a01b038216820361022357565b8015150361022357565b34610223576040366003190112610223576103f36103b861037c565b602435906103c582610392565b6103cd610da1565b60018060a01b0316600052600a60205260406000209060ff801983541691151516179055565b005b3461022357600036600319011261022357602060405160018152f35b34610223576000366003190112610223576020600954604051908152f35b3461022357600036600319011261022357610448610da1565b600080546001600160a01b0319811682556001600160a01b03167f8be0079c531659141344cd1fd0a4f28419497f9722a3daafe3b4186f6b6457e08280a3005b34610223576020366003190112610223577fc337d6f45251ec06523ece720baa068bf4eb00bfaa211df09f4e981072170d9160206004356104c881610392565b6104d0610da1565b151560ff196008541660ff821617600855604051908152a1005b3461022357600036600319011261022357602060ff600854166040519015158152f35b3461022357600036600319011261022357602060ff600554166040519015158152f35b9181601f84011215610223578235916001600160401b038311610223576020838186019501011161022357565b34610223576060366003190112610223576004356024356001600160401b03811161022357610590903690600401610530565b60443592916001600160401b0384116102235760606105fd916105c76105bd610610973690600401610530565b9290953691610c65565b6020815191012090806040519586936020850198895260408501528484013781016000838201520301601f198101835282610c09565b5190206040519081529081906020820190565b0390f35b34610223576000366003190112610223576000546040516001600160a01b039091168152602090f35b34610223576020366003190112610223576004356001600160401b0381116102235761066d903690600401610530565b60ff600b5416801561074f575b801561073b575b61068a90610c9c565b810190602081830312610223578035906001600160401b03821161022357019060808282031261022357604051906106c182610bce565b8235825260208301356001600160401b03811161022357816106e4918501610ce8565b60208301526040830135906001600160401b038211610223578361071260609261071d946107279701610ce8565b6040850152016109f8565b6060820152610f16565b604080519215158352602083019190915290f35b506000546001600160a01b03163314610681565b5033600052600a60205260ff6040600020541661067a565b34610223576020366003190112610223576004356000608060405161078b81610bee565b82815282602082015282604082015282606082015201526000526007602052610610604060002060ff6004604051926107c384610bee565b805484526001810154602085015260018060a01b03600282015416604085015260038101546060850152015416151560808201526040519182918291909160808060a0830194805184526020810151602085015260018060a01b0360408201511660408501526060810151606085015201511515910152565b3461022357602036600319011261022357600435610858610da1565b8060005260066020526040600020600160ff198254161790557fcea99d9506d3ccdf6d16ab2b79aa5ed14f544362f4a09cc5a8e3da196c75fea2600080a2005b34610223576020366003190112610223576001600160a01b036108b961037c565b16600052600a602052602060ff604060002054166040519015158152f35b34610223576020366003190112610223576004356108f3610da1565b806000526006602052604060002060ff1981541690557fae0cbfb48e0a7a904df88eec3a0bbe8eb58ba3558a9d53f7d94208b2c1c7279e600080a2005b34610223576020366003190112610223576004356001600160401b03811161022357366023820112156102235780600401356001600160401b038111610223573660248260051b840101116102235760246103f39201610d06565b34610223576020366003190112610223576004356109a881610392565b6109b0610da1565b60ff8019600b54169115151617600b55600080f35b3461022357600036600319011261022357602060ff600b54166040519015158152f35b6064359060ff8216820361022357565b359060ff8216820361022357565b34610223576080366003190112610223576004356024356001600160401b03811161022357610a39903690600401610530565b9190604435926001600160401b03841161022357610aaf610abe92610aa3610a68610727973690600401610530565b919092610a736109e8565b9560ff600b54168015610ad7575b8015610ac3575b610a9190610c9c565b610a99610c2a565b9889523691610c65565b60208701523691610c65565b604084015260ff166060830152565b610f16565b506000546001600160a01b03163314610a88565b5033600052600a602052610af1604060002060ff90541690565b610a81565b3461022357600036600319011261022357602060405161cafe8152f35b3461022357602036600319011261022357610b2c61037c565b610b34610da1565b6001600160a01b03168015610b8657600080546001600160a01b03198116831782556001600160a01b0316907f8be0079c531659141344cd1fd0a4f28419497f9722a3daafe3b4186f6b6457e09080a3005b631e4fbdf760e01b600052600060045260246000fd5b3461022357600036600319011261022357602060405160008152f35b634e487b7160e01b600052604160045260246000fd5b608081019081106001600160401b03821117610be957604052565b610bb8565b60a081019081106001600160401b03821117610be957604052565b90601f801991011681019081106001600160401b03821117610be957604052565b60405190610c39608083610c09565b565b60405190610c3960a083610c09565b6001600160401b038111610be957601f01601f191660200190565b929192610c7182610c4a565b91610c7f6040519384610c09565b829481845281830111610223578281602093846000960137010152565b15610ca357565b60405162461bcd60e51b815260206004820152601860248201527f4e6f7420617574686f72697a656420746f2076657269667900000000000000006044820152606490fd5b9080601f8301121561022357816020610d0393359101610c65565b90565b90610d0f610da1565b60005b818110610d1e57505050565b80610d2c6001928486610d7b565b35600052600660205260406000208260ff19825416179055610d4f818486610d7b565b357fcea99d9506d3ccdf6d16ab2b79aa5ed14f544362f4a09cc5a8e3da196c75fea2600080a201610d12565b9190811015610d8b5760051b0190565b634e487b7160e01b600052603260045260246000fd5b6000546001600160a01b03163303610db557565b63118cdaa760e01b6000523360045260246000fd5b15610dd157565b60405162461bcd60e51b8152602060048201526011602482015270125b5859d9481b9bdd081d1c9d5cdd1959607a1b6044820152606490fd5b60005b838110610e1d5750506000910152565b8181015183820152602001610e0d565b90916040939282526020820152610e4d8251809360208685019101610e0a565b010190565b91908203918211610e5f57565b634e487b7160e01b600052601160045260246000fd5b15610e7c57565b60405162461bcd60e51b815260206004820152601460248201527310d858da1959081c1c9bdbd988195e1c1a5c995960621b6044820152606490fd5b60046080610c399380518455602081015160018501556002840160018060a01b036040830151166bffffffffffffffffffffffff60a01b825416179055606081015160038501550151151591019060ff801983541691151516179055565b90610f3e610f39610f3284516000526006602052604060002090565b5460ff1690565b610dca565b602082015160208151910120918051610f6a610f78604084015160405192839188602084019687610e2d565b03601f198101835282610c09565b5190206003610f91826000526007602052604060002090565b015461109a5760ff610fa7606084015160ff1690565b166002810361103b5750610fba8261143c565b915b6110008151610fc9610c3b565b908152602081018790523360408201524260608201528415156080820152610ffb846000526007602052604060002090565b610eb8565b516040805133815284151560208201529192917fa63c74b8ff7c46b7e5e577ea9c355079dbf254f2beb1d31043043a51e507e3f29190a39190565b80611050575061104a8261133e565b91610fbc565b6001036110605761104a826111e6565b60405162461bcd60e51b8152602060048201526012602482015271556e6b6e6f776e2070726f6f66207479706560701b6044820152606490fd5b6110eb91506110e3816110d36110c960036110c16004966000526007602052604060002090565b015442610e52565b6009541015610e75565b6000526007602052604060002090565b015460ff1690565b9190565b6040908151916110ff8184610c09565b368337565b6040519060206110ff8184610c09565b60409081516111238382610c09565b809260005b81811061113457505050565b60209082516111438482610c09565b833682378185015201611128565b906000905b6002821061116357505050565b6020806001928551815201930191019091611156565b906000905b6002821061118b57505050565b602060408261119d6001948751611151565b0193019101909161117e565b926111d7906111cd6111e2946111c3876101809996611151565b6040870190611179565b60c0850190611151565b610100830190611179565b0190565b610100604082015151106112a35760206111fe6110ef565b9161127f61126361120d611114565b94610100606061121b6110ef565b9501518681015183526040810151878401526080810151885260608101518789015260c0810151604089015260a0810151606089015260e081015186520151858501526114cd565b93610f6a61126f611577565b60405194859387850198896111a9565b611287611104565b928391519060085afa908161129a575090565b60019150511490565b50600090565b906020916112c281518092818552858086019101610e0a565b601f01601f1916010190565b916112eb90610d03949284526060602085015260608401906112a9565b9160408184039101526112a9565b3d15611324573d9061130a82610c4a565b916113186040519384610c09565b82523d6000602084013e565b606090565b908160209103126102235751610d0381610392565b6040810151602081511061141d5761cafe3b6113bf5760405162461bcd60e51b815260206004820152603c60248201527f535441524b206e6f7420737570706f727465643a207573652047726f7468313660448201527f206f7220446576206d6f6465206f6e20506f6c6b61646f7420487562000000006064820152608490fd5b81600092916113e36020859451930151610f6a6040519384926020840196876112ce565b519061cafe5afa6113f26112f9565b90158015611412575b6112a35780602080610d0393518301019101611329565b5060208151106113fb565b5050600090565b602092918152610e4d82518093858085019101610e0a565b60ff60085416156114945760408151610f6a61146660208501518451928391602083019586611424565b519020910151602081519101209060405161148d81610f6a60208201948560209181520190565b5190201490565b60405162461bcd60e51b815260206004820152601160248201527011195d881b5bd91948191a5cd8589b1959607a1b6044820152606490fd5b6040908180516114dd8282610c09565b369037815191808301918383106001600160401b03841117610be9577f30644e72e131a029b85045b68181585d97816a916871ca8d3c208c16d87cfd479260209252805184520151067f30644e72e131a029b85045b68181585d97816a916871ca8d3c208c16d87cfd47037f30644e72e131a029b85045b68181585d97816a916871ca8d3c208c16d87cfd478111610e5f57602082015290565b61157f611114565b9060ff60055416156115b6576001548251526002548251602090810191909152600354818401805191909152600454905190910152565b60405162461bcd60e51b815260206004820152601060248201526f1592c819d85b5b58481b9bdd081cd95d60821b6044820152606490fdfea2646970667358221220979f1a18be4e83d17170bce1b812f9052658fd796eb3d38af87bbe872df104b064736f6c634300081c0033",
  "linkReferences": {},
  "deployedLinkReferences": {}
}