{
  "_format": "hh-sol-artifact-1",
  "contractName": "ZkMLVerifier",
  "sourceName": "src/templates/ZkMLVerifier.sol",
  "abi": [
    {
      "inputs": [],
      "stateMutability": "nonpayable",
      "type": "constructor"
    },
    {
      "inputs": [
        {
          "internalType": "address",
          "name": "owner",
          "type": "address"
        }
      ],
      "name": "OwnableInvalidOwner",
      "type": "error"
    },
    {
      "inputs": [
        {
          "internalType": "address",
          "name": "account",
          "type": "address"
        }
      ],
      "name": "OwnableUnauthorizedAccount",
      "type": "error"
    },
    {
      "anonymous": false,
      "inputs": [
        {
          "indexed": false,
          "internalType": "bool",
          "name": "enabled",
          "type": "bool"
        }
      ],
      "name": "DevModeToggled",
      "type": "event"
    },
    {
      "anonymous": false,
      "inputs": [
        {
          "indexed": true,
          "internalType": "bytes32",
          "name": "imageId",
          "type": "bytes32"
        }
      ],
      "name": "ImageRevoked",
      "type": "event"
    },
    {
      "anonymous": false,
      "inputs": [
        {
          "indexed": true,
          "internalType": "bytes32",
          "name": "imageId",
          "type": "bytes32"
        }
      ],
      "name": "ImageTrusted",
      "type": "event"
    },
    {
      "anonymous": false,
      "inputs": [
        {
          "indexed": true,
          "internalType": "address",
          "name": "previousOwner",
          "type": "address"
        },
        {
          "indexed": true,
          "internalType": "address",
          "name": "newOwner",
          "type": "address"
        }
      ],
      "name": "OwnershipTransferred",
      "type": "event"
    },
    {
      "anonymous": false,
      "inputs": [
        {
          "indexed": true,
          "internalType": "bytes32",
          "name": "proofHash",
          "type": "bytes32"
        },
        {
          "indexed": true,
          "internalType": "bytes32",
          "name": "imageId",
          "type": "bytes32"
        },
        {
          "indexed": false,
          "internalType": "address",
          "name": "verifier",
          "type": "address"
        },
        {
          "indexed": false,
          "internalType": "bool",
          "name": "isValid",
          "type": "bool"
        }
      ],
      "name": "ProofVerified",
      "type": "event"
    },
    {
      "inputs": [],
      "name": "PROOF_TYPE_DEV",
      "outputs": [
        {
          "internalType": "uint8",
          "name": "",
          "type": "uint8"
        }
      ],
      "stateMutability": "view",
      "type": "function"
    },
    {
      "inputs": [],
      "name": "PROOF_TYPE_GROTH16",
      "outputs": [
        {
          "internalType": "uint8",
          "name": "",
          "type": "uint8"
        }
      ],
      "stateMutability": "view",
      "type": "function"
    },
    {
      "inputs": [],
      "name": "PROOF_TYPE_STARK",
      "outputs": [
        {
          "internalType": "uint8",
          "name": "",
          "type": "uint8"
        }
      ],
      "stateMutability": "view",
      "type": "function"
    },
    {
      "inputs": [],
      "name": "RISC0_VERIFIER",
      "outputs": [
        {
          "internalType": "address",
          "name": "",
          "type": "address"
        }
      ],
      "stateMutability": "view",
      "type": "function"
    },
    {
      "inputs": [
        {
          "internalType": "bytes32",
          "name": "imageId",
          "type": "bytes32"
        },
        {
          "internalType": "bytes",
          "name": "journal",
          "type": "bytes"
        },
        {
          "internalType": "bytes",
          "name": "seal",
          "type": "bytes"
        }
      ],
      "name": "computeProofHash",
      "outputs": [
        {
          "internalType": "bytes32",
          "name": "",
          "type": "bytes32"
        }
      ],
      "stateMutability": "pure",
      "type": "function"
    },
    {
      "inputs": [],
      "name": "devModeEnabled",
      "outputs": [
        {
          "internalType": "bool",
          "name": "",
          "type": "bool"
        }
      ],
      "stateMutability": "view",
      "type": "function"
    },
    {
      "inputs": [
        {
          "internalType": "bytes32",
          "name": "proofHash",
          "type": "bytes32"
        }
      ],
      "name": "getVerification",
      "outputs": [
        {
          "components": [
            {
              "internalType": "bytes32",
              "name": "imageId",
              "type": "bytes32"
            },
            {
              "internalType": "bytes32",
              "name": "journalHash",
              "type": "bytes32"
            },
            {
              "internalType": "address",
              "name": "verifier",
              "type": "address"
            },
            {
              "internalType": "uint256",
              "name": "verifiedAt",
              "type": "uint256"
            },
            {
              "internalType": "bool",
              "name": "isValid",
              "type": "bool"
            }
          ],
          "internalType": "struct ZkMLVerifier.VerifiedProof",
          "name": "",
          "type": "tuple"
        }
      ],
      "stateMutability": "view",
      "type": "function"
    },
    {
      "inputs": [
        {
          "internalType": "bytes32",
          "name": "imageId",
          "type": "bytes32"
        }
      ],
      "name": "isImageTrusted",
      "outputs": [
        {
          "internalType": "bool",
          "name": "",
          "type": "bool"
        }
      ],
      "stateMutability": "view",
      "type": "function"
    },
    {
      "inputs": [],
      "name": "maxProofAge",
      "outputs": [
        {
          "internalType": "uint256",
          "name": "",
          "type": "uint256"
        }
      ],
      "stateMutability": "view",
      "type": "function"
    },
    {
      "inputs": [],
      "name": "owner",
      "outputs": [
        {
          "internalType": "address",
          "name": "",
          "type": "address"
        }
      ],
      "stateMutability": "view",
      "type": "function"
    },
    {
      "inputs": [],
      "name": "renounceOwnership",
      "outputs": [],
      "stateMutability": "nonpayable",
      "type": "function"
    },
    {
      "inputs": [
        {
          "internalType": "bytes32",
          "name": "imageId",
          "type": "bytes32"
        }
      ],
      "name": "revokeImage",
      "outputs": [],
      "stateMutability": "nonpayable",
      "type": "function"
    },
    {
      "inputs": [
        {
          "internalType": "bool",
          "name": "enabled",
          "type": "bool"
        }
      ],
      "name": "setDevMode",
      "outputs": [],
      "stateMutability": "nonpayable",
      "type": "function"
    },
    {
      "inputs": [
        {
          "internalType": "uint256",
          "name": "age",
          "type": "uint256"
        }
      ],
      "name": "setMaxProofAge",
      "outputs": [],
      "stateMutability": "nonpayable",
      "type": "function"
    },
    {
      "inputs": [
        {
          "internalType": "uint256[4]",
          "name": "gamma",
          "type": "uint256[4]"
        }
      ],
      "name": "setVerificationKeyGamma",
      "outputs": [],
      "stateMutability": "nonpayable",
      "type": "function"
    },
    {
      "inputs": [
        {
          "internalType": "address",
          "name": "newOwner",
          "type": "address"
        }
      ],
      "name": "transferOwnership",
      "outputs": [],
      "stateMutability": "nonpayable",
      "type": "function"
    },
    {
      "inputs": [
        {
          "internalType": "bytes32",
          "name": "imageId",
          "type": "bytes32"
        }
      ],
      "name": "trustImage",
      "outputs": [],
      "stateMutability": "nonpayable",
      "type": "function"
    },
    {
      "inputs": [
        {
          "internalType": "bytes32[]",
          "name": "imageIds",
          "type": "bytes32[]"
        }
      ],
      "name": "trustImages",
      "outputs": [],
      "stateMutability": "nonpayable",
      "type": "function"
    },
    {
      "inputs": [
        {
          "internalType": "bytes32",
          "name": "",
          "type": "bytes32"
        }
      ],
      "name": "trustedImages",
      "outputs": [
        {
          "internalType": "bool",
          "name": "",
          "type": "bool"
        }
      ],
      "stateMutability": "view",
      "type": "function"
    },
    {
      "inputs": [
        {
          "internalType": "bytes32",
          "name": "",
          "type": "bytes32"
        }
      ],
      "name": "verifiedProofs",
      "outputs": [
        {
          "internalType": "bytes32",
          "name": "imageId",
          "type": "bytes32"
        },
        {
          "internalType": "bytes32",
          "name": "journalHash",
          "type": "bytes32"
        },
        {
          "internalType": "address",
          "name": "verifier",
          "type": "address"
        },
        {
          "internalType": "uint256",
          "name": "verifiedAt",
          "type": "uint256"
        },
        {
          "internalType": "bool",
          "name": "isValid",
          "type": "bool"
        }
      ],
      "stateMutability": "view",
      "type": "function"
    },
    {
      "inputs": [
        {
          "internalType": "bytes",
          "name": "proofData",
          "type": "bytes"
        }
      ],
      "name": "verify",
      "outputs": [
        {
          "internalType": "bool",
          "name": "isValid",
          "type": "bool"
        },
        {
          "internalType": "bytes32",
          "name": "journalHash",
          "type": "bytes32"
        }
      ],
      "stateMutability": "nonpayable",
      "type": "function"
    },
    {
      "inputs": [
        {
          "internalType": "bytes32",
          "name": "imageId",
          "type": "bytes32"
        },
        {
          "internalType": "bytes",
          "name": "journal",
          "type": "bytes"
        },
        {
          "internalType": "bytes",
          "name": "seal",
          "type": "bytes"
        },
        {
          "internalType": "uint8",
          "name": "proofType",
          "type": "uint8"
        }
      ],
      "name": "verifyProof",
      "outputs": [
        {
          "internalType": "bool",
          "name": "isValid",
          "type": "bool"
        },
        {
          "internalType": "bytes32",
          "name": "journalHash",
          "type": "bytes32"
        }
      ],
      "stateMutability": "nonpayable",
      "type": "function"
    },
    {
      "inputs": [
        {
          "internalType": "uint256",
          "name": "",
          "type": "uint256"
        }
      ],
      "name": "vkGamma",
      "outputs": [
        {
          "internalType": "uint256",
          "name": "",
          "type": "uint256"
        }
      ],
      "stateMutability": "view",
      "type": "function"
    },
    {
      "inputs": [],
      "name": "vkGammaSet",
      "outputs": [
        {
          "internalType": "bool",
          "name": "",
          "type": "bool"
        }
      ],
      "stateMutability": "view",
      "type": "function"
    }
  ],
  "bytecode": "0x60808060405234608857331560725760008054336001600160a01b0319821681178355916001600160a01b03909116907f8be0079c531659141344cd1fd0a4f28419497f9722a3daafe3b4186f6b6457e09080a3600160ff196008541617600855610e10600955611301908161008e8239f35b631e4fbdf760e01b600052600060045260246000fd5b600080fdfe6080604052600436101561001257600080fd5b60003560e01c806306e647cb14610192578063176d80c41461018d5780631bddcb19146101885780632c5d696c14610183578063391e6c991461017e57806343f9405f146101795780634ee9f2d1146101795780635bb4aefd146101745780636f5b6b201461016f578063715018a61461016a5780637c897da2146101655780637d4ba4fe146101605780638728f94f1461015b5780638bbd8fe5146101565780638da5cb5b146101515780638e760afe1461014c57806394ef244014610147578063965a572b14610142578063a9c6dc031461013d578063b0e00c2114610138578063e2dd674514610133578063f08b224c1461012e578063f2fde38b146101295763fa592e3f1461012457600080fd5b6109bd565b610930565b610913565b610874565b6107f9565b6107a0565b610744565b61066f565b61058e565b610565565b6104ae565b61045e565b61043b565b6103d9565b610376565b610358565b61033c565b61030b565b6102e5565b6102c9565b61025e565b6101e8565b346101e35760803660031901126101e357366084116101e3576101b3610b67565b600460005b600481106101cf576005805460ff19166001179055005b6001906020833593019281830155016101b8565b600080fd5b346101e35760203660031901126101e357600435600052600760205260a06040600020805490600181015490600180851b0360028201541660ff60046003840154930154169260405194855260208501526040840152606083015215156080820152f35b60209060031901126101e35760043590565b346101e35761026c3661024c565b610274610b67565b603c811015806102bc575b1561028957600955005b60405162461bcd60e51b815260206004820152600b60248201526a496e76616c69642061676560a81b6044820152606490fd5b506201518081111561027f565b346101e35760003660031901126101e357602060405160028152f35b346101e3576102f33661024c565b60048110156101e35760209060010154604051908152f35b346101e35760203660031901126101e3576004356000526006602052602060ff604060002054166040519015158152f35b346101e35760003660031901126101e357602060405160018152f35b346101e35760003660031901126101e3576020600954604051908152f35b346101e35760003660031901126101e35761038f610b67565b600080546001600160a01b0319811682556001600160a01b03167f8be0079c531659141344cd1fd0a4f28419497f9722a3daafe3b4186f6b6457e08280a3005b801515036101e357565b346101e35760203660031901126101e3577fc337d6f45251ec06523ece720baa068bf4eb00bfaa211df09f4e981072170d916020600435610419816103cf565b610421610b67565b151560ff196008541660ff821617600855604051908152a1005b346101e35760003660031901126101e357602060ff600854166040519015158152f35b346101e35760003660031901126101e357602060ff600554166040519015158152f35b9181601f840112156101e3578235916001600160401b0383116101e357602083818601950101116101e357565b346101e35760603660031901126101e3576004356024356001600160401b0381116101e3576104e1903690600401610481565b60443592916001600160401b0384116101e357606061054e9161051861050e610561973690600401610481565b9290953691610a77565b6020815191012090806040519586936020850198895260408501528484013781016000838201520301601f198101835282610a2a565b5190206040519081529081906020820190565b0390f35b346101e35760003660031901126101e3576000546040516001600160a01b039091168152602090f35b346101e35760203660031901126101e3576004356001600160401b0381116101e3576105be903690600401610481565b8101906020818303126101e3578035906001600160401b0382116101e35701906080828203126101e357604051906105f5826109ef565b8235825260208301356001600160401b0381116101e35781610618918501610aae565b60208301526040830135906001600160401b0382116101e357836106466060926106519461065b9701610aae565b604085015201610866565b6060820152610c18565b604080519215158352602083019190915290f35b346101e35760203660031901126101e3576004356000608060405161069381610a0f565b82815282602082015282604082015282606082015201526000526007602052610561604060002060ff6004604051926106cb84610a0f565b805484526001810154602085015260018060a01b03600282015416604085015260038101546060850152015416151560808201526040519182918291909160808060a0830194805184526020810151602085015260018060a01b0360408201511660408501526060810151606085015201511515910152565b346101e35760203660031901126101e357600435610760610b67565b8060005260066020526040600020600160ff198254161790557fcea99d9506d3ccdf6d16ab2b79aa5ed14f544362f4a09cc5a8e3da196c75fea2600080a2005b346101e35760203660031901126101e3576004356107bc610b67565b806000526006602052604060002060ff1981541690557fae0cbfb48e0a7a904df88eec3a0bbe8eb58ba3558a9d53f7d94208b2c1c7279e600080a2005b346101e35760203660031901126101e3576004356001600160401b0381116101e357366023820112156101e35780600401356001600160401b0381116101e3573660248260051b840101116101e35760246108549201610acc565b005b6064359060ff821682036101e357565b359060ff821682036101e357565b346101e35760803660031901126101e3576004356024356001600160401b0381116101e3576108a7903690600401610481565b9190604435926001600160401b0384116101e35761090360ff926108f76108d561065b973690600401610481565b9190926108e0610856565b95604051986108ee8a6109ef565b89523691610a77565b60208701523691610a77565b6040840152166060820152610c18565b346101e35760003660031901126101e357602060405161cafe8152f35b346101e35760203660031901126101e3576004356001600160a01b038116908190036101e35761095e610b67565b80156109a757600080546001600160a01b03198116831782556001600160a01b0316907f8be0079c531659141344cd1fd0a4f28419497f9722a3daafe3b4186f6b6457e09080a3005b631e4fbdf760e01b600052600060045260246000fd5b346101e35760003660031901126101e357602060405160008152f35b634e487b7160e01b600052604160045260246000fd5b608081019081106001600160401b03821117610a0a57604052565b6109d9565b60a081019081106001600160401b03821117610a0a57604052565b90601f801991011681019081106001600160401b03821117610a0a57604052565b60405190610a5a60a083610a2a565b565b6001600160401b038111610a0a57601f01601f191660200190565b929192610a8382610a5c565b91610a916040519384610a2a565b8294818452818301116101e3578281602093846000960137010152565b9080601f830112156101e357816020610ac993359101610a77565b90565b90610ad5610b67565b60005b818110610ae457505050565b80610af26001928486610b41565b35600052600660205260406000208260ff19825416179055610b15818486610b41565b357fcea99d9506d3ccdf6d16ab2b79aa5ed14f544362f4a09cc5a8e3da196c75fea2600080a201610ad8565b9190811015610b515760051b0190565b634e487b7160e01b600052603260045260246000fd5b6000546001600160a01b03163303610b7b57565b63118cdaa760e01b6000523360045260246000fd5b15610b9757565b60405162461bcd60e51b8152602060048201526011602482015270125b5859d9481b9bdd081d1c9d5cdd1959607a1b6044820152606490fd5b60005b838110610be35750506000910152565b8181015183820152602001610bd3565b90916040939282526020820152610c138251809360208685019101610bd0565b010190565b90610c40610c3b610c3484516000526006602052604060002090565b5460ff1690565b610b90565b602082015160208151910120918051610c6c610c7a604084015160405192839188602084019687610bf3565b03601f198101835282610a2a565b5190206003610c93826000526007602052604060002090565b0154610df35760ff610ca9606084015160ff1690565b1660028103610d945750610cbc82611103565b915b610d598151610ccb610a4b565b908152602081018790523360408201524260608201528415156080820152610cfd846000526007602052604060002090565b90608060049180518455602081015160018501556002840160018060a01b036040830151166bffffffffffffffffffffffff60a01b825416179055606081015160038501550151151591019060ff801983541691151516179055565b516040805133815284151560208201529192917fa63c74b8ff7c46b7e5e577ea9c355079dbf254f2beb1d31043043a51e507e3f29190a39190565b80610da95750610da382611069565b91610cbe565b600103610db957610da382610f11565b60405162461bcd60e51b8152602060048201526012602482015271556e6b6e6f776e2070726f6f66207479706560701b6044820152606490fd5b610e169150610e0e6004916000526007602052604060002090565b015460ff1690565b9190565b604090815191610e2a8184610a2a565b368337565b604051906020610e2a8184610a2a565b6040908151610e4e8382610a2a565b809260005b818110610e5f57505050565b6020908251610e6e8482610a2a565b833682378185015201610e53565b906000905b60028210610e8e57505050565b6020806001928551815201930191019091610e81565b906000905b60028210610eb657505050565b6020604082610ec86001948751610e7c565b01930191019091610ea9565b92610f0290610ef8610f0d94610eee876101809996610e7c565b6040870190610ea4565b60c0850190610e7c565b610100830190610ea4565b0190565b61010060408201515110610fce576020610f29610e1a565b91610faa610f8e610f38610e3f565b946101006060610f46610e1a565b9501518681015183526040810151878401526080810151885260608101518789015260c0810151604089015260a0810151606089015260e08101518652015185850152611194565b93610c6c610f9a611254565b6040519485938785019889610ed4565b610fb2610e2f565b928391519060085afa9081610fc5575090565b60019150511490565b50600090565b90602091610fed81518092818552858086019101610bd0565b601f01601f1916010190565b9161101690610ac994928452606060208501526060840190610fd4565b916040818403910152610fd4565b3d1561104f573d9061103582610a5c565b916110436040519384610a2a565b82523d6000602084013e565b606090565b908160209103126101e35751610ac9816103cf565b604081015160208151106110e45761cafe3b611086575050600090565b81600092916110aa6020859451930151610c6c604051938492602084019687610ff9565b519061cafe5afa6110b9611024565b901580156110d9575b610fce5780602080610ac993518301019101611054565b5060208151106110c2565b5050600090565b602092918152610c1382518093858085019101610bd0565b60ff600854161561115b5760408151610c6c61112d602085015184519283916020830195866110eb565b519020910151602081519101209060405161115481610c6c60208201948560209181520190565b5190201490565b60405162461bcd60e51b815260206004820152601160248201527011195d881b5bd91948191a5cd8589b1959607a1b6044820152606490fd5b6040908180516111a48282610a2a565b369037815191808301918383106001600160401b03841117610a0a577f30644e72e131a029b85045b68181585d97816a916871ca8d3c208c16d87cfd479260209252805184520151067f30644e72e131a029b85045b68181585d97816a916871ca8d3c208c16d87cfd47037f30644e72e131a029b85045b68181585d97816a916871ca8d3c208c16d87cfd47811161123e57602082015290565b634e487b7160e01b600052601160045260246000fd5b61125c610e3f565b9060ff6005541615611293576001548251526002548251602090810191909152600354818401805191909152600454905190910152565b60405162461bcd60e51b815260206004820152601060248201526f1592c819d85b5b58481b9bdd081cd95d60821b6044820152606490fdfea2646970667358221220dacca0f1532b5612f102a14490cbc8c55a28ce2b128f4594c881475090ffaf9c64736f6c634300081c0033",
  "linkReferences": {},
  "deployedLinkReferences": {}
}