{
  "_format": "hh-sol-artifact-1",
  "contractName": "LuxNFT",
  "sourceName": "src/templates/LuxNFT.sol",
  "abi": [
    {
      "inputs": [
        {
          "internalType": "string",
          "name": "name",
          "type": "string"
        },
        {
          "internalType": "string",
          "name": "symbol",
          "type": "string"
        },
        {
          "internalType": "uint256",
          "name": "_maxSupply",
          "type": "uint256"
        },
        {
          "internalType": "uint256",
          "name": "_mintPrice",
          "type": "uint256"
        }
      ],
      "stateMutability": "nonpayable",
      "type": "constructor"
    },
    {
      "inputs": [
        {
          "internalType": "address",
          "name": "sender",
          "type": "address"
        },
        {
          "internalType": "uint256",
          "name": "tokenId",
          "type": "uint256"
        },
        {
          "internalType": "address",
          "name": "owner",
          "type": "address"
        }
      ],
      "name": "ERC721IncorrectOwner",
      "type": "error"
    },
    {
      "inputs": [
        {
          "internalType": "address",
          "name": "operator",
          "type": "address"
        },
        {
          "internalType": "uint256",
          "name": "tokenId",
          "type": "uint256"
        }
      ],
      "name": "ERC721InsufficientApproval",
      "type": "error"
    },
    {
      "inputs": [
        {
          "internalType": "address",
          "name": "approver",
          "type": "address"
        }
      ],
      "name": "ERC721InvalidApprover",
      "type": "error"
    },
    {
      "inputs": [
        {
          "internalType": "address",
          "name": "operator",
          "type": "address"
        }
      ],
      "name": "ERC721InvalidOperator",
      "type": "error"
    },
    {
      "inputs": [
        {
          "internalType": "address",
          "name": "owner",
          "type": "address"
        }
      ],
      "name": "ERC721InvalidOwner",
      "type": "error"
    },
    {
      "inputs": [
        {
          "internalType": "address",
          "name": "receiver",
          "type": "address"
        }
      ],
      "name": "ERC721InvalidReceiver",
      "type": "error"
    },
    {
      "inputs": [
        {
          "internalType": "address",
          "name": "sender",
          "type": "address"
        }
      ],
      "name": "ERC721InvalidSender",
      "type": "error"
    },
    {
      "inputs": [
        {
          "internalType": "uint256",
          "name": "tokenId",
          "type": "uint256"
        }
      ],
      "name": "ERC721NonexistentToken",
      "type": "error"
    },
    {
      "inputs": [
        {
          "internalType": "address",
          "name": "owner",
          "type": "address"
        }
      ],
      "name": "OwnableInvalidOwner",
      "type": "error"
    },
    {
      "inputs": [
        {
          "internalType": "address",
          "name": "account",
          "type": "address"
        }
      ],
      "name": "OwnableUnauthorizedAccount",
      "type": "error"
    },
    {
      "anonymous": false,
      "inputs": [
        {
          "indexed": true,
          "internalType": "uint256",
          "name": "tokenId",
          "type": "uint256"
        },
        {
          "indexed": true,
          "internalType": "address",
          "name": "owner",
          "type": "address"
        },
        {
          "indexed": false,
          "internalType": "string",
          "name": "prompt",
          "type": "string"
        },
        {
          "indexed": false,
          "internalType": "bytes32",
          "name": "modelHash",
          "type": "bytes32"
        }
      ],
      "name": "AIGenerated",
      "type": "event"
    },
    {
      "anonymous": false,
      "inputs": [
        {
          "indexed": true,
          "internalType": "address",
          "name": "owner",
          "type": "address"
        },
        {
          "indexed": true,
          "internalType": "address",
          "name": "approved",
          "type": "address"
        },
        {
          "indexed": true,
          "internalType": "uint256",
          "name": "tokenId",
          "type": "uint256"
        }
      ],
      "name": "Approval",
      "type": "event"
    },
    {
      "anonymous": false,
      "inputs": [
        {
          "indexed": true,
          "internalType": "address",
          "name": "owner",
          "type": "address"
        },
        {
          "indexed": true,
          "internalType": "address",
          "name": "operator",
          "type": "address"
        },
        {
          "indexed": false,
          "internalType": "bool",
          "name": "approved",
          "type": "bool"
        }
      ],
      "name": "ApprovalForAll",
      "type": "event"
    },
    {
      "anonymous": false,
      "inputs": [
        {
          "indexed": false,
          "internalType": "uint256",
          "name": "_fromTokenId",
          "type": "uint256"
        },
        {
          "indexed": false,
          "internalType": "uint256",
          "name": "_toTokenId",
          "type": "uint256"
        }
      ],
      "name": "BatchMetadataUpdate",
      "type": "event"
    },
    {
      "anonymous": false,
      "inputs": [
        {
          "indexed": false,
          "internalType": "uint256",
          "name": "_tokenId",
          "type": "uint256"
        }
      ],
      "name": "MetadataUpdate",
      "type": "event"
    },
    {
      "anonymous": false,
      "inputs": [
        {
          "indexed": true,
          "internalType": "address",
          "name": "previousOwner",
          "type": "address"
        },
        {
          "indexed": true,
          "internalType": "address",
          "name": "newOwner",
          "type": "address"
        }
      ],
      "name": "OwnershipTransferred",
      "type": "event"
    },
    {
      "anonymous": false,
      "inputs": [
        {
          "indexed": true,
          "internalType": "address",
          "name": "from",
          "type": "address"
        },
        {
          "indexed": true,
          "internalType": "address",
          "name": "to",
          "type": "address"
        },
        {
          "indexed": true,
          "internalType": "uint256",
          "name": "tokenId",
          "type": "uint256"
        }
      ],
      "name": "Transfer",
      "type": "event"
    },
    {
      "inputs": [
        {
          "internalType": "address",
          "name": "to",
          "type": "address"
        },
        {
          "internalType": "uint256",
          "name": "tokenId",
          "type": "uint256"
        }
      ],
      "name": "approve",
      "outputs": [],
      "stateMutability": "nonpayable",
      "type": "function"
    },
    {
      "inputs": [
        {
          "internalType": "address",
          "name": "owner",
          "type": "address"
        }
      ],
      "name": "balanceOf",
      "outputs": [
        {
          "internalType": "uint256",
          "name": "",
          "type": "uint256"
        }
      ],
      "stateMutability": "view",
      "type": "function"
    },
    {
      "inputs": [
        {
          "internalType": "uint256",
          "name": "tokenId",
          "type": "uint256"
        }
      ],
      "name": "burn",
      "outputs": [],
      "stateMutability": "nonpayable",
      "type": "function"
    },
    {
      "inputs": [
        {
          "internalType": "uint256",
          "name": "tokenId",
          "type": "uint256"
        }
      ],
      "name": "getApproved",
      "outputs": [
        {
          "internalType": "address",
          "name": "",
          "type": "address"
        }
      ],
      "stateMutability": "view",
      "type": "function"
    },
    {
      "inputs": [
        {
          "internalType": "address",
          "name": "owner",
          "type": "address"
        },
        {
          "internalType": "address",
          "name": "operator",
          "type": "address"
        }
      ],
      "name": "isApprovedForAll",
      "outputs": [
        {
          "internalType": "bool",
          "name": "",
          "type": "bool"
        }
      ],
      "stateMutability": "view",
      "type": "function"
    },
    {
      "inputs": [],
      "name": "maxSupply",
      "outputs": [
        {
          "internalType": "uint256",
          "name": "",
          "type": "uint256"
        }
      ],
      "stateMutability": "view",
      "type": "function"
    },
    {
      "inputs": [
        {
          "internalType": "address",
          "name": "to",
          "type": "address"
        },
        {
          "internalType": "string",
          "name": "uri",
          "type": "string"
        }
      ],
      "name": "mint",
      "outputs": [
        {
          "internalType": "uint256",
          "name": "",
          "type": "uint256"
        }
      ],
      "stateMutability": "payable",
      "type": "function"
    },
    {
      "inputs": [],
      "name": "mintPrice",
      "outputs": [
        {
          "internalType": "uint256",
          "name": "",
          "type": "uint256"
        }
      ],
      "stateMutability": "view",
      "type": "function"
    },
    {
      "inputs": [
        {
          "internalType": "address",
          "name": "to",
          "type": "address"
        },
        {
          "internalType": "string",
          "name": "uri",
          "type": "string"
        },
        {
          "internalType": "string",
          "name": "prompt",
          "type": "string"
        },
        {
          "internalType": "bytes32",
          "name": "modelHash",
          "type": "bytes32"
        }
      ],
      "name": "mintWithAI",
      "outputs": [
        {
          "internalType": "uint256",
          "name": "",
          "type": "uint256"
        }
      ],
      "stateMutability": "payable",
      "type": "function"
    },
    {
      "inputs": [],
      "name": "name",
      "outputs": [
        {
          "internalType": "string",
          "name": "",
          "type": "string"
        }
      ],
      "stateMutability": "view",
      "type": "function"
    },
    {
      "inputs": [],
      "name": "owner",
      "outputs": [
        {
          "internalType": "address",
          "name": "",
          "type": "address"
        }
      ],
      "stateMutability": "view",
      "type": "function"
    },
    {
      "inputs": [
        {
          "internalType": "address",
          "name": "to",
          "type": "address"
        },
        {
          "internalType": "string",
          "name": "uri",
          "type": "string"
        }
      ],
      "name": "ownerMint",
      "outputs": [
        {
          "internalType": "uint256",
          "name": "",
          "type": "uint256"
        }
      ],
      "stateMutability": "nonpayable",
      "type": "function"
    },
    {
      "inputs": [
        {
          "internalType": "uint256",
          "name": "tokenId",
          "type": "uint256"
        }
      ],
      "name": "ownerOf",
      "outputs": [
        {
          "internalType": "address",
          "name": "",
          "type": "address"
        }
      ],
      "stateMutability": "view",
      "type": "function"
    },
    {
      "inputs": [],
      "name": "renounceOwnership",
      "outputs": [],
      "stateMutability": "nonpayable",
      "type": "function"
    },
    {
      "inputs": [
        {
          "internalType": "address",
          "name": "from",
          "type": "address"
        },
        {
          "internalType": "address",
          "name": "to",
          "type": "address"
        },
        {
          "internalType": "uint256",
          "name": "tokenId",
          "type": "uint256"
        }
      ],
      "name": "safeTransferFrom",
      "outputs": [],
      "stateMutability": "nonpayable",
      "type": "function"
    },
    {
      "inputs": [
        {
          "internalType": "address",
          "name": "from",
          "type": "address"
        },
        {
          "internalType": "address",
          "name": "to",
          "type": "address"
        },
        {
          "internalType": "uint256",
          "name": "tokenId",
          "type": "uint256"
        },
        {
          "internalType": "bytes",
          "name": "data",
          "type": "bytes"
        }
      ],
      "name": "safeTransferFrom",
      "outputs": [],
      "stateMutability": "nonpayable",
      "type": "function"
    },
    {
      "inputs": [
        {
          "internalType": "address",
          "name": "operator",
          "type": "address"
        },
        {
          "internalType": "bool",
          "name": "approved",
          "type": "bool"
        }
      ],
      "name": "setApprovalForAll",
      "outputs": [],
      "stateMutability": "nonpayable",
      "type": "function"
    },
    {
      "inputs": [
        {
          "internalType": "string",
          "name": "baseURI",
          "type": "string"
        }
      ],
      "name": "setBaseURI",
      "outputs": [],
      "stateMutability": "nonpayable",
      "type": "function"
    },
    {
      "inputs": [
        {
          "internalType": "uint256",
          "name": "_mintPrice",
          "type": "uint256"
        }
      ],
      "name": "setMintPrice",
      "outputs": [],
      "stateMutability": "nonpayable",
      "type": "function"
    },
    {
      "inputs": [
        {
          "internalType": "bytes4",
          "name": "interfaceId",
          "type": "bytes4"
        }
      ],
      "name": "supportsInterface",
      "outputs": [
        {
          "internalType": "bool",
          "name": "",
          "type": "bool"
        }
      ],
      "stateMutability": "view",
      "type": "function"
    },
    {
      "inputs": [],
      "name": "symbol",
      "outputs": [
        {
          "internalType": "string",
          "name": "",
          "type": "string"
        }
      ],
      "stateMutability": "view",
      "type": "function"
    },
    {
      "inputs": [
        {
          "internalType": "uint256",
          "name": "",
          "type": "uint256"
        }
      ],
      "name": "tokenModelHash",
      "outputs": [
        {
          "internalType": "bytes32",
          "name": "",
          "type": "bytes32"
        }
      ],
      "stateMutability": "view",
      "type": "function"
    },
    {
      "inputs": [
        {
          "internalType": "uint256",
          "name": "",
          "type": "uint256"
        }
      ],
      "name": "tokenPrompts",
      "outputs": [
        {
          "internalType": "string",
          "name": "",
          "type": "string"
        }
      ],
      "stateMutability": "view",
      "type": "function"
    },
    {
      "inputs": [
        {
          "internalType": "uint256",
          "name": "tokenId",
          "type": "uint256"
        }
      ],
      "name": "tokenURI",
      "outputs": [
        {
          "internalType": "string",
          "name": "",
          "type": "string"
        }
      ],
      "stateMutability": "view",
      "type": "function"
    },
    {
      "inputs": [],
      "name": "totalMinted",
      "outputs": [
        {
          "internalType": "uint256",
          "name": "",
          "type": "uint256"
        }
      ],
      "stateMutability": "view",
      "type": "function"
    },
    {
      "inputs": [
        {
          "internalType": "address",
          "name": "from",
          "type": "address"
        },
        {
          "internalType": "address",
          "name": "to",
          "type": "address"
        },
        {
          "internalType": "uint256",
          "name": "tokenId",
          "type": "uint256"
        }
      ],
      "name": "transferFrom",
      "outputs": [],
      "stateMutability": "nonpayable",
      "type": "function"
    },
    {
      "inputs": [
        {
          "internalType": "address",
          "name": "newOwner",
          "type": "address"
        }
      ],
      "name": "transferOwnership",
      "outputs": [],
      "stateMutability": "nonpayable",
      "type": "function"
    },
    {
      "inputs": [],
      "name": "withdraw",
      "outputs": [],
      "stateMutability": "nonpayable",
      "type": "function"
    }
  ],
  "bytecode": "0x60806040523461039f5761203f80380380610019816103a4565b92833981019060808183031261039f5780516001600160401b03811161039f57826100459183016103c9565b602082015190926001600160401b03821161039f576100659183016103c9565b604082015160609092015183519192916001600160401b0381116102aa57600054600181811c91168015610395575b602082101461028a57601f8111610331575b50602094601f82116001146102cb579481929394956000926102c0575b50508160011b916000199060031b1c1916176000555b82516001600160401b0381116102aa57600154600181811c911680156102a0575b602082101461028a57601f8111610225575b506020601f82116001146101be57819293946000926101b3575b50508160011b916000199060031b1c1916176001555b331561019d5760078054336001600160a01b0319821681179092556040519391906001600160a01b03167f8be0079c531659141344cd1fd0a4f28419497f9722a3daafe3b4186f6b6457e0600080a3600955600a55611c0a90816104358239f35b631e4fbdf760e01b600052600060045260246000fd5b015190503880610126565b601f198216906001600052806000209160005b81811061020d575095836001959697106101f4575b505050811b0160015561013c565b015160001960f88460031b161c191690553880806101e6565b9192602060018192868b0151815501940192016101d1565b60016000527fb10e2d527612073b26eecdfd717e6a320cf44b4afac2b0732d9fcbe2b7fa0cf6601f830160051c81019160208410610280575b601f0160051c01905b818110610274575061010c565b60008155600101610267565b909150819061025e565b634e487b7160e01b600052602260045260246000fd5b90607f16906100fa565b634e487b7160e01b600052604160045260246000fd5b0151905038806100c3565b601f1982169560008052806000209160005b88811061031957508360019596979810610300575b505050811b016000556100d9565b015160001960f88460031b161c191690553880806102f2565b919260206001819286850151815501940192016102dd565b600080527f290decd9548b62a8d60345a988386fc84ba6bc95484008f6362f93160ef3e563601f830160051c8101916020841061038b575b601f0160051c01905b81811061037f57506100a6565b60008155600101610372565b9091508190610369565b90607f1690610094565b600080fd5b6040519190601f01601f191682016001600160401b038111838210176102aa57604052565b81601f8201121561039f578051906001600160401b0382116102aa576103f8601f8301601f19166020016103a4565b928284526020838301011161039f5760005b82811061041f57505060206000918301015290565b8060208092840101518282870101520161040a56fe608080604052600436101561001357600080fd5b60003560e01c90816301ffc9a714610d255750806306fdde0314610c80578063081812fc14610c42578063095ea7b314610b5357806323b872dd14610b3c5780633ccfd60b14610a8c57806341d5b80314610a3257806342842e0e14610a0257806342966c68146109e557806355f804b31461087057806357349a96146108445780636352211e146108145780636817c76c146107f657806370a08231146107a0578063715018a6146107435780638da5cb5b1461071a57806395d89b411461064d578063a22cb465146105ac578063a2309ff81461058e578063b88d4fde14610520578063c70a7ee2146104f4578063c87b56dd146104bd578063d0def521146104a1578063d5abeb0114610483578063e1e152a91461025e578063e985e9c514610203578063f2fde38b146101795763f4a0a5281461015357600080fd5b346101745760203660031901126101745761016c6114e9565b600435600a55005b600080fd5b3461017457602036600319011261017457610192610df2565b61019a6114e9565b6001600160a01b031680156101ed57600780546001600160a01b0319811683179091556001600160a01b03167f8be0079c531659141344cd1fd0a4f28419497f9722a3daafe3b4186f6b6457e0600080a3005b631e4fbdf760e01b600052600060045260246000fd5b346101745760403660031901126101745761021c610df2565b610224610e08565b9060018060a01b0316600052600560205260406000209060018060a01b0316600052602052602060ff604060002054166040519015158152f35b608036600319011261017457610272610df2565b60243567ffffffffffffffff811161017457610292903690600401610ecd565b9060443567ffffffffffffffff8111610174576102b3903690600401610ecd565b916102c160643591836112f0565b9182600052600c6020526040600020845167ffffffffffffffff811161046d576102eb8254610f2b565b601f8111610425575b509160209591859387601f821160011461039857918161037194927f6d12c77a47c09c3ac7079de39279f81b148851afeafe00ff719b90bfbc7b2fae969460009161038d575b508160011b916000199060031b1c19161790555b84600052600d885285604060002055604051928392604084526040840190610dcd565b828901969096526001600160a01b0316940390a3604051908152f35b90508401518b61033a565b601f1982169083600052806000209160005b81811061040b5750927f6d12c77a47c09c3ac7079de39279f81b148851afeafe00ff719b90bfbc7b2fae969492600192826103719896106103f2575b5050811b01905561034e565b86015160001960f88460031b161c191690558b806103e6565b8288015184558a9850600190930192918b01918b016103aa565b826000526020600020601f830160051c81019160208410610463575b601f0160051c01905b81811061045757506102f4565b6000815560010161044a565b9091508190610441565b634e487b7160e01b600052604160045260246000fd5b34610174576000366003190112610174576020600954604051908152f35b60206104b56104af36610eeb565b906112f0565b604051908152f35b34610174576020366003190112610174576104f06104dc6004356119bc565b604051918291602083526020830190610dcd565b0390f35b3461017457602036600319011261017457600435600052600d6020526020604060002054604051908152f35b3461017457608036600319011261017457610539610df2565b610541610e08565b906044356064359267ffffffffffffffff841161017457366023850112156101745761057a61058c943690602481600401359101610e96565b926105868383836110ae565b33611876565b005b34610174576000366003190112610174576020600854604051908152f35b34610174576040366003190112610174576105c5610df2565b60243590811515809203610174576001600160a01b031690811561063857336000526005602052604060002082600052602052604060002060ff1981541660ff83161790556040519081527f17307eab39ab6107e8899845ad3d59bd9653f200f220920489ca2b5937696c3160203392a3005b50630b61174360e31b60005260045260246000fd5b3461017457600036600319011261017457604051600060015461066f81610f2b565b80845290600181169081156106f65750600114610697575b6104f0836104dc81850382610e58565b600160009081527fb10e2d527612073b26eecdfd717e6a320cf44b4afac2b0732d9fcbe2b7fa0cf6939250905b8082106106dc575090915081016020016104dc610687565b9192600181602092548385880101520191019092916106c4565b60ff191660208086019190915291151560051b840190910191506104dc9050610687565b34610174576000366003190112610174576007546040516001600160a01b039091168152602090f35b346101745760003660031901126101745761075c6114e9565b600780546001600160a01b031981169091556000906001600160a01b03167f8be0079c531659141344cd1fd0a4f28419497f9722a3daafe3b4186f6b6457e08280a3005b34610174576020366003190112610174576001600160a01b036107c1610df2565b1680156107e05760005260036020526020604060002054604051908152f35b6322718ad960e21b600052600060045260246000fd5b34610174576000366003190112610174576020600a54604051908152f35b34610174576020366003190112610174576020610832600435611374565b6040516001600160a01b039091168152f35b3461017457602036600319011261017457600435600052600c6020526104f06104dc604060002061100c565b346101745760203660031901126101745760043567ffffffffffffffff8111610174576108a1903690600401610ecd565b6108a96114e9565b805167ffffffffffffffff811161046d576108c5600b54610f2b565b601f8111610978575b50602091601f821160011461090c57918192600092610901575b5050600019600383901b1c191660019190911b17600b55005b0151905082806108e8565b601f19821692600b600052600080516020611bb58339815191529160005b85811061096057508360019510610947575b505050811b01600b55005b015160001960f88460031b161c1916905582808061093c565b9192602060018192868501518155019401920161092a565b600b600052601f820160051c600080516020611bb58339815191520190602083106109cf575b601f0160051c600080516020611bb583398151915201905b8181106109c357506108ce565b600081556001016109b6565b600080516020611bb5833981519152915061099e565b346101745760203660031901126101745761058c336004356113ab565b346101745761058c610a1336610e1e565b9060405192610a23602085610e58565b600084526105868383836110ae565b346101745760206104b5610a4536610eeb565b610a509291926114e9565b60095480610a79575b50610a736008548094610a6b826112cb565b600855611512565b82611704565b610a86906008541061128a565b84610a59565b3461017457600036600319011261017457610aa56114e9565b478015610b0a576007546000918291829182916001600160a01b03165af1610acb61125a565b5015610ad357005b60405162461bcd60e51b815260206004820152600f60248201526e151c985b9cd9995c8819985a5b1959608a1b6044820152606490fd5b60405162461bcd60e51b815260206004820152600a6024820152694e6f2062616c616e636560b01b6044820152606490fd5b346101745761058c610b4d36610e1e565b916110ae565b3461017457604036600319011261017457610b6c610df2565b602435610b7881611374565b33151580610c2f575b80610c01575b610bec5781906001600160a01b0384811691167f8c5be1e5ebec7d5bd14f71427d1e84f3dd0314c0f7b2291e5b200ac8c7c3b925600080a4600090815260046020526040902080546001600160a01b0319166001600160a01b03909216919091179055005b63a9fbf51f60e01b6000523360045260246000fd5b506001600160a01b038116600090815260056020908152604080832033845290915290205460ff1615610b87565b506001600160a01b038116331415610b81565b3461017457602036600319011261017457600435610c5f81611374565b506000526004602052602060018060a01b0360406000205416604051908152f35b346101745760003660031901126101745760405160008054610ca181610f2b565b80845290600181169081156106f65750600114610cc8576104f0836104dc81850382610e58565b60008080527f290decd9548b62a8d60345a988386fc84ba6bc95484008f6362f93160ef3e563939250905b808210610d0b575090915081016020016104dc610687565b919260018160209254838588010152019101909291610cf3565b34610174576020366003190112610174576004359063ffffffff60e01b821680920361017457602091632483248360e11b8114908115610d67575b5015158152f35b6380ac58cd60e01b811491508115610d99575b8115610d88575b5083610d60565b6301ffc9a760e01b14905083610d81565b635b5e139f60e01b81149150610d7a565b60005b838110610dbd5750506000910152565b8181015183820152602001610dad565b90602091610de681518092818552858086019101610daa565b601f01601f1916010190565b600435906001600160a01b038216820361017457565b602435906001600160a01b038216820361017457565b6060906003190112610174576004356001600160a01b038116810361017457906024356001600160a01b0381168103610174579060443590565b90601f8019910116810190811067ffffffffffffffff82111761046d57604052565b67ffffffffffffffff811161046d57601f01601f191660200190565b929192610ea282610e7a565b91610eb06040519384610e58565b829481845281830111610174578281602093846000960137010152565b9080601f8301121561017457816020610ee893359101610e96565b90565b906040600319830112610174576004356001600160a01b038116810361017457916024359067ffffffffffffffff821161017457610ee891600401610ecd565b90600182811c92168015610f5b575b6020831014610f4557565b634e487b7160e01b600052602260045260246000fd5b91607f1691610f3a565b60405190600082600b5491610f7983610f2b565b8083529260018116908115610fed5750600114610f9f575b610f9d92500383610e58565b565b50600b60009081529091600080516020611bb58339815191525b818310610fd1575050906020610f9d92820101610f91565b6020919350806001915483858901015201910190918492610fb9565b60209250610f9d94915060ff191682840152151560051b820101610f91565b906040519182600082549261102084610f2b565b808452936001811690811561108c5750600114611045575b50610f9d92500383610e58565b90506000929192526020600020906000915b818310611070575050906020610f9d9282010138611038565b6020919350806001915483858901015201910190918492611057565b905060209250610f9d94915060ff191682840152151560051b82010138611038565b6001600160a01b0390911691908215611244576000828152600260205260408120546001600160a01b03169383918590331515806111ac575b507fddf252ad1be2c89b69c2b068fc378daa952ba7f163c4a11628f55a4df523b3ef9082611177575b83815260036020526040812060018154019055848152600260205260408120846bffffffffffffffffffffffff60a01b82541617905580a46001600160a01b031680830361115d57505050565b6364283d7b60e01b60005260045260245260445260646000fd5b600085815260046020526040902080546001600160a01b03191690558281526003602052604081208054600019019055611110565b9150919250806111f5575b156111c65790848492386110e7565b8390856111df57602491637e27328960e01b8252600452fd5b60449163177e802f60e01b825233600452602452fd5b503385148015611223575b806111b75750838152600460205260408120546001600160a01b031633146111b7565b5084815260056020908152604080832033845290915281205460ff16611200565b633250574960e11b600052600060045260246000fd5b3d15611285573d9061126b82610e7a565b916112796040519384610e58565b82523d6000602084013e565b606090565b1561129157565b60405162461bcd60e51b815260206004820152601260248201527113585e081cdd5c1c1b1e481c995858da195960721b6044820152606490fd5b60001981146112da5760010190565b634e487b7160e01b600052601160045260246000fd5b90600a548061132c575b50610ee890600954806113195750610a736008548094610a6b826112cb565b611326906008541061128a565b38610a59565b341061133857386112fa565b60405162461bcd60e51b8152602060048201526014602482015273125b9cdd59999a58da595b9d081c185e5b595b9d60621b6044820152606490fd5b6000818152600260205260409020546001600160a01b0316908115611397575090565b637e27328960e01b60005260045260246000fd5b6000818152600260205260409020546001600160a01b03908116921680151580611453575b50508161141c575b600081815260026020526040812080546001600160a01b0319169055827fddf252ad1be2c89b69c2b068fc378daa952ba7f163c4a11628f55a4df523b3ef8280a490565b600081815260046020526040902080546001600160a01b0319169055816000526003602052604060002060001981540190556113d8565b80611495575b1561146457806113d0565b8261147e5750637e27328960e01b60005260045260246000fd5b63177e802f60e01b60005260045260245260446000fd5b5080831480156114c5575b8061145957506000828152600460205260409020546001600160a01b03168114611459565b5082600052600560205260406000208160005260205260ff604060002054166114a0565b6007546001600160a01b031633036114fd57565b63118cdaa760e01b6000523360045260246000fd5b90602090604051906115248383610e58565b600082526001600160a01b0384169384156112445760008281526002855260018060a01b036040822054168387827fddf252ad1be2c89b69c2b068fc378daa952ba7f163c4a11628f55a4df523b3ef81151595866116d0575b83815260038b5260408082208054600101905585825260028c52812080546001600160a01b0319168517905580a4506116ba573b6115bc575b50505050565b916115fa91819495936040519384928392630a85bd0160e11b8452336004850152600060248501526044840152608060648401526084830190610dcd565b03816000885af18091600091611675575b509061163c57505061161b61125a565b80519190826116395783633250574960e11b60005260045260246000fd5b01fd5b909291506001600160e01b03191663757a42ff60e11b016116615750388080806115b6565b633250574960e11b60005260045260246000fd5b8481813d83116116b3575b61168a8183610e58565b810103126116af5751906001600160e01b0319821682036116ac57503861160b565b80fd5b5080fd5b503d611680565b6339e3563760e11b600052600060045260246000fd5b600085815260046020526040902080546001600160a01b031916905582815260038b5260408120805460001901905561157d565b9190918060005260066020526040600020835167ffffffffffffffff811161046d576117308254610f2b565b601f811161182e575b506020601f82116001146117a257908060209493927ff8e1a15aba9398e019f0b49df1a4fde98ee17ae345cb5f6b5e2c27f5033e8ce79697600092611797575b50508160011b916000199060031b1c19161790555b604051908152a1565b015190503880611779565b601f1982169583600052816000209660005b818110611816575096600192849260209796957ff8e1a15aba9398e019f0b49df1a4fde98ee17ae345cb5f6b5e2c27f5033e8ce7999a106117fd575b505050811b01905561178e565b015160001960f88460031b161c191690553880806117f0565b838301518955600190980197602093840193016117b4565b826000526020600020601f830160051c8101916020841061186c575b601f0160051c01905b8181106118605750611739565b60008155600101611853565b909150819061184a565b823b611884575b5050505050565b604051630a85bd0160e11b81526001600160a01b0391821660048201529181166024830152604482019390935260806064820152911691602090829081906118d0906084830190610dcd565b03816000865af18091600091611934575b509061191257506118f061125a565b8051908161190d5782633250574960e11b60005260045260246000fd5b602001fd5b6001600160e01b03191663757a42ff60e11b016116615750388080808061187d565b6020813d60201161196f575b8161194d60209383610e58565b810103126116af5751906001600160e01b0319821682036116ac5750386118e1565b3d9150611940565b610f9d90929192602060405194826119988794518092858088019101610daa565b83016119ac82518093858085019101610daa565b010103601f198101845283610e58565b6119c581611374565b508060005260066020526119dc604060002061100c565b6119e4610f65565b805115611bae578151611ba45750506119fc81611374565b50611a05610f65565b805190919060009015611b8d5750808160009272184f03e93ff9f4daa797ed6e38ed64bf6a1f0160401b811015611b67575b50806d04ee2d6d415b85acef8100000000600a921015611b4c575b662386f26fc10000811015611b38575b6305f5e100811015611b27575b612710811015611b18575b6064811015611b0a575b1015611aff575b600a60216001840193611a9d85610e7a565b94611aab6040519687610e58565b808652611aba601f1991610e7a565b013660208701378401015b60001901916f181899199a1a9b1b9c1cb0b131b232b360811b8282061a835304908115611af457600a90611ac5565b5050610ee891611977565b600190910190611a8b565b606460029104930192611a84565b61271060049104930192611a7a565b6305f5e10060089104930192611a6f565b662386f26fc1000060109104930192611a62565b6d04ee2d6d415b85acef810000000060209104930192611a52565b6040935072184f03e93ff9f4daa797ed6e38ed64bf6a1f0160401b90049050600a611a37565b91505060405190611b9f602083610e58565b815290565b610ee89250611977565b5090509056fe0175b7a638427703f0dbe7bb9bbf987a2551717b34e79f33b5b1008d1fa01db9a26469706673582212205366a1c8c5484e7dd0d3b477f85a3e3b58118883c9324db2a72dd790fe218c2e64736f6c634300081c0033",
  "linkReferences": {},
  "deployedLinkReferences": {}
}