{"src/templates/LuxNFT.sol":{"LuxNFT":{"abi":[{"inputs":[{"internalType":"string","name":"name","type":"string"},{"internalType":"string","name":"symbol","type":"string"},{"internalType":"uint256","name":"_maxSupply","type":"uint256"},{"internalType":"uint256","name":"_mintPrice","type":"uint256"}],"stateMutability":"nonpayable","type":"constructor"},{"inputs":[{"internalType":"address","name":"sender","type":"address"},{"internalType":"uint256","name":"tokenId","type":"uint256"},{"internalType":"address","name":"owner","type":"address"}],"name":"ERC721IncorrectOwner","type":"error"},{"inputs":[{"internalType":"address","name":"operator","type":"address"},{"internalType":"uint256","name":"tokenId","type":"uint256"}],"name":"ERC721InsufficientApproval","type":"error"},{"inputs":[{"internalType":"address","name":"approver","type":"address"}],"name":"ERC721InvalidApprover","type":"error"},{"inputs":[{"internalType":"address","name":"operator","type":"address"}],"name":"ERC721InvalidOperator","type":"error"},{"inputs":[{"internalType":"address","name":"owner","type":"address"}],"name":"ERC721InvalidOwner","type":"error"},{"inputs":[{"internalType":"address","name":"receiver","type":"address"}],"name":"ERC721InvalidReceiver","type":"error"},{"inputs":[{"internalType":"address","name":"sender","type":"address"}],"name":"ERC721InvalidSender","type":"error"},{"inputs":[{"internalType":"uint256","name":"tokenId","type":"uint256"}],"name":"ERC721NonexistentToken","type":"error"},{"inputs":[{"internalType":"address","name":"owner","type":"address"}],"name":"OwnableInvalidOwner","type":"error"},{"inputs":[{"internalType":"address","name":"account","type":"address"}],"name":"OwnableUnauthorizedAccount","type":"error"},{"anonymous":false,"inputs":[{"indexed":true,"internalType":"uint256","name":"tokenId","type":"uint256"},{"indexed":true,"internalType":"address","name":"owner","type":"address"},{"indexed":false,"internalType":"string","name":"prompt","type":"string"},{"indexed":false,"internalType":"bytes32","name":"modelHash","type":"bytes32"}],"name":"AIGenerated","type":"event"},{"anonymous":false,"inputs":[{"indexed":true,"internalType":"address","name":"owner","type":"address"},{"indexed":true,"internalType":"address","name":"approved","type":"address"},{"indexed":true,"internalType":"uint256","name":"tokenId","type":"uint256"}],"name":"Approval","type":"event"},{"anonymous":false,"inputs":[{"indexed":true,"internalType":"address","name":"owner","type":"address"},{"indexed":true,"internalType":"address","name":"operator","type":"address"},{"indexed":false,"internalType":"bool","name":"approved","type":"bool"}],"name":"ApprovalForAll","type":"event"},{"anonymous":false,"inputs":[{"indexed":false,"internalType":"uint256","name":"_fromTokenId","type":"uint256"},{"indexed":false,"internalType":"uint256","name":"_toTokenId","type":"uint256"}],"name":"BatchMetadataUpdate","type":"event"},{"anonymous":false,"inputs":[{"indexed":false,"internalType":"uint256","name":"_tokenId","type":"uint256"}],"name":"MetadataUpdate","type":"event"},{"anonymous":false,"inputs":[{"indexed":true,"internalType":"address","name":"previousOwner","type":"address"},{"indexed":true,"internalType":"address","name":"newOwner","type":"address"}],"name":"OwnershipTransferred","type":"event"},{"anonymous":false,"inputs":[{"indexed":true,"internalType":"address","name":"from","type":"address"},{"indexed":true,"internalType":"address","name":"to","type":"address"},{"indexed":true,"internalType":"uint256","name":"tokenId","type":"uint256"}],"name":"Transfer","type":"event"},{"inputs":[{"internalType":"address","name":"to","type":"address"},{"internalType":"uint256","name":"tokenId","type":"uint256"}],"name":"approve","outputs":[],"stateMutability":"nonpayable","type":"function"},{"inputs":[{"internalType":"address","name":"owner","type":"address"}],"name":"balanceOf","outputs":[{"internalType":"uint256","name":"","type":"uint256"}],"stateMutability":"view","type":"function"},{"inputs":[{"internalType":"uint256","name":"tokenId","type":"uint256"}],"name":"burn","outputs":[],"stateMutability":"nonpayable","type":"function"},{"inputs":[{"internalType":"uint256","name":"tokenId","type":"uint256"}],"name":"getApproved","outputs":[{"internalType":"address","name":"","type":"address"}],"stateMutability":"view","type":"function"},{"inputs":[{"internalType":"address","name":"owner","type":"address"},{"internalType":"address","name":"operator","type":"address"}],"name":"isApprovedForAll","outputs":[{"internalType":"bool","name":"","type":"bool"}],"stateMutability":"view","type":"function"},{"inputs":[],"name":"maxSupply","outputs":[{"internalType":"uint256","name":"","type":"uint256"}],"stateMutability":"view","type":"function"},{"inputs":[{"internalType":"address","name":"to","type":"address"},{"internalType":"string","name":"uri","type":"string"}],"name":"mint","outputs":[{"internalType":"uint256","name":"","type":"uint256"}],"stateMutability":"payable","type":"function"},{"inputs":[],"name":"mintPrice","outputs":[{"internalType":"uint256","name":"","type":"uint256"}],"stateMutability":"view","type":"function"},{"inputs":[{"internalType":"address","name":"to","type":"address"},{"internalType":"string","name":"uri","type":"string"},{"internalType":"string","name":"prompt","type":"string"},{"internalType":"bytes32","name":"modelHash","type":"bytes32"}],"name":"mintWithAI","outputs":[{"internalType":"uint256","name":"","type":"uint256"}],"stateMutability":"payable","type":"function"},{"inputs":[],"name":"name","outputs":[{"internalType":"string","name":"","type":"string"}],"stateMutability":"view","type":"function"},{"inputs":[],"name":"owner","outputs":[{"internalType":"address","name":"","type":"address"}],"stateMutability":"view","type":"function"},{"inputs":[{"internalType":"address","name":"to","type":"address"},{"internalType":"string","name":"uri","type":"string"}],"name":"ownerMint","outputs":[{"internalType":"uint256","name":"","type":"uint256"}],"stateMutability":"nonpayable","type":"function"},{"inputs":[{"internalType":"uint256","name":"tokenId","type":"uint256"}],"name":"ownerOf","outputs":[{"internalType":"address","name":"","type":"address"}],"stateMutability":"view","type":"function"},{"inputs":[],"name":"renounceOwnership","outputs":[],"stateMutability":"nonpayable","type":"function"},{"inputs":[{"internalType":"address","name":"from","type":"address"},{"internalType":"address","name":"to","type":"address"},{"internalType":"uint256","name":"tokenId","type":"uint256"}],"name":"safeTransferFrom","outputs":[],"stateMutability":"nonpayable","type":"function"},{"inputs":[{"internalType":"address","name":"from","type":"address"},{"internalType":"address","name":"to","type":"address"},{"internalType":"uint256","name":"tokenId","type":"uint256"},{"internalType":"bytes","name":"data","type":"bytes"}],"name":"safeTransferFrom","outputs":[],"stateMutability":"nonpayable","type":"function"},{"inputs":[{"internalType":"address","name":"operator","type":"address"},{"internalType":"bool","name":"approved","type":"bool"}],"name":"setApprovalForAll","outputs":[],"stateMutability":"nonpayable","type":"function"},{"inputs":[{"internalType":"string","name":"baseURI","type":"string"}],"name":"setBaseURI","outputs":[],"stateMutability":"nonpayable","type":"function"},{"inputs":[{"internalType":"uint256","name":"_mintPrice","type":"uint256"}],"name":"setMintPrice","outputs":[],"stateMutability":"nonpayable","type":"function"},{"inputs":[{"internalType":"bytes4","name":"interfaceId","type":"bytes4"}],"name":"supportsInterface","outputs":[{"internalType":"bool","name":"","type":"bool"}],"stateMutability":"view","type":"function"},{"inputs":[],"name":"symbol","outputs":[{"internalType":"string","name":"","type":"string"}],"stateMutability":"view","type":"function"},{"inputs":[{"internalType":"uint256","name":"","type":"uint256"}],"name":"tokenModelHash","outputs":[{"internalType":"bytes32","name":"","type":"bytes32"}],"stateMutability":"view","type":"function"},{"inputs":[{"internalType":"uint256","name":"","type":"uint256"}],"name":"tokenPrompts","outputs":[{"internalType":"string","name":"","type":"string"}],"stateMutability":"view","type":"function"},{"inputs":[{"internalType":"uint256","name":"tokenId","type":"uint256"}],"name":"tokenURI","outputs":[{"internalType":"string","name":"","type":"string"}],"stateMutability":"view","type":"function"},{"inputs":[],"name":"totalMinted","outputs":[{"internalType":"uint256","name":"","type":"uint256"}],"stateMutability":"view","type":"function"},{"inputs":[{"internalType":"address","name":"from","type":"address"},{"internalType":"address","name":"to","type":"address"},{"internalType":"uint256","name":"tokenId","type":"uint256"}],"name":"transferFrom","outputs":[],"stateMutability":"nonpayable","type":"function"},{"inputs":[{"internalType":"address","name":"newOwner","type":"address"}],"name":"transferOwnership","outputs":[],"stateMutability":"nonpayable","type":"function"},{"inputs":[],"name":"withdraw","outputs":[],"stateMutability":"nonpayable","type":"function"}],"evm":{"bytecode":{"linkReferences":{},"object":"60806040523461039f5761203f80380380610019816103a4565b92833981019060808183031261039f5780516001600160401b03811161039f57826100459183016103c9565b602082015190926001600160401b03821161039f576100659183016103c9565b604082015160609092015183519192916001600160401b0381116102aa57600054600181811c91168015610395575b602082101461028a57601f8111610331575b50602094601f82116001146102cb579481929394956000926102c0575b50508160011b916000199060031b1c1916176000555b82516001600160401b0381116102aa57600154600181811c911680156102a0575b602082101461028a57601f8111610225575b506020601f82116001146101be57819293946000926101b3575b50508160011b916000199060031b1c1916176001555b331561019d5760078054336001600160a01b0319821681179092556040519391906001600160a01b03167f8be0079c531659141344cd1fd0a4f28419497f9722a3daafe3b4186f6b6457e0600080a3600955600a55611c0a90816104358239f35b631e4fbdf760e01b600052600060045260246000fd5b015190503880610126565b601f198216906001600052806000209160005b81811061020d575095836001959697106101f4575b505050811b0160015561013c565b015160001960f88460031b161c191690553880806101e6565b9192602060018192868b0151815501940192016101d1565b60016000527fb10e2d527612073b26eecdfd717e6a320cf44b4afac2b0732d9fcbe2b7fa0cf6601f830160051c81019160208410610280575b601f0160051c01905b818110610274575061010c565b60008155600101610267565b909150819061025e565b634e487b7160e01b600052602260045260246000fd5b90607f16906100fa565b634e487b7160e01b600052604160045260246000fd5b0151905038806100c3565b601f1982169560008052806000209160005b88811061031957508360019596979810610300575b505050811b016000556100d9565b015160001960f88460031b161c191690553880806102f2565b919260206001819286850151815501940192016102dd565b600080527f290decd9548b62a8d60345a988386fc84ba6bc95484008f6362f93160ef3e563601f830160051c8101916020841061038b575b601f0160051c01905b81811061037f57506100a6565b60008155600101610372565b9091508190610369565b90607f1690610094565b600080fd5b6040519190601f01601f191682016001600160401b038111838210176102aa57604052565b81601f8201121561039f578051906001600160401b0382116102aa576103f8601f8301601f19166020016103a4565b928284526020838301011161039f5760005b82811061041f57505060206000918301015290565b8060208092840101518282870101520161040a56fe608080604052600436101561001357600080fd5b60003560e01c90816301ffc9a714610d255750806306fdde0314610c80578063081812fc14610c42578063095ea7b314610b5357806323b872dd14610b3c5780633ccfd60b14610a8c57806341d5b80314610a3257806342842e0e14610a0257806342966c68146109e557806355f804b31461087057806357349a96146108445780636352211e146108145780636817c76c146107f657806370a08231146107a0578063715018a6146107435780638da5cb5b1461071a57806395d89b411461064d578063a22cb465146105ac578063a2309ff81461058e578063b88d4fde14610520578063c70a7ee2146104f4578063c87b56dd146104bd578063d0def521146104a1578063d5abeb0114610483578063e1e152a91461025e578063e985e9c514610203578063f2fde38b146101795763f4a0a5281461015357600080fd5b346101745760203660031901126101745761016c6114e9565b600435600a55005b600080fd5b3461017457602036600319011261017457610192610df2565b61019a6114e9565b6001600160a01b031680156101ed57600780546001600160a01b0319811683179091556001600160a01b03167f8be0079c531659141344cd1fd0a4f28419497f9722a3daafe3b4186f6b6457e0600080a3005b631e4fbdf760e01b600052600060045260246000fd5b346101745760403660031901126101745761021c610df2565b610224610e08565b9060018060a01b0316600052600560205260406000209060018060a01b0316600052602052602060ff604060002054166040519015158152f35b608036600319011261017457610272610df2565b60243567ffffffffffffffff811161017457610292903690600401610ecd565b9060443567ffffffffffffffff8111610174576102b3903690600401610ecd565b916102c160643591836112f0565b9182600052600c6020526040600020845167ffffffffffffffff811161046d576102eb8254610f2b565b601f8111610425575b509160209591859387601f821160011461039857918161037194927f6d12c77a47c09c3ac7079de39279f81b148851afeafe00ff719b90bfbc7b2fae969460009161038d575b508160011b916000199060031b1c19161790555b84600052600d885285604060002055604051928392604084526040840190610dcd565b828901969096526001600160a01b0316940390a3604051908152f35b90508401518b61033a565b601f1982169083600052806000209160005b81811061040b5750927f6d12c77a47c09c3ac7079de39279f81b148851afeafe00ff719b90bfbc7b2fae969492600192826103719896106103f2575b5050811b01905561034e565b86015160001960f88460031b161c191690558b806103e6565b8288015184558a9850600190930192918b01918b016103aa565b826000526020600020601f830160051c81019160208410610463575b601f0160051c01905b81811061045757506102f4565b6000815560010161044a565b9091508190610441565b634e487b7160e01b600052604160045260246000fd5b34610174576000366003190112610174576020600954604051908152f35b60206104b56104af36610eeb565b906112f0565b604051908152f35b34610174576020366003190112610174576104f06104dc6004356119bc565b604051918291602083526020830190610dcd565b0390f35b3461017457602036600319011261017457600435600052600d6020526020604060002054604051908152f35b3461017457608036600319011261017457610539610df2565b610541610e08565b906044356064359267ffffffffffffffff841161017457366023850112156101745761057a61058c943690602481600401359101610e96565b926105868383836110ae565b33611876565b005b34610174576000366003190112610174576020600854604051908152f35b34610174576040366003190112610174576105c5610df2565b60243590811515809203610174576001600160a01b031690811561063857336000526005602052604060002082600052602052604060002060ff1981541660ff83161790556040519081527f17307eab39ab6107e8899845ad3d59bd9653f200f220920489ca2b5937696c3160203392a3005b50630b61174360e31b60005260045260246000fd5b3461017457600036600319011261017457604051600060015461066f81610f2b565b80845290600181169081156106f65750600114610697575b6104f0836104dc81850382610e58565b600160009081527fb10e2d527612073b26eecdfd717e6a320cf44b4afac2b0732d9fcbe2b7fa0cf6939250905b8082106106dc575090915081016020016104dc610687565b9192600181602092548385880101520191019092916106c4565b60ff191660208086019190915291151560051b840190910191506104dc9050610687565b34610174576000366003190112610174576007546040516001600160a01b039091168152602090f35b346101745760003660031901126101745761075c6114e9565b600780546001600160a01b031981169091556000906001600160a01b03167f8be0079c531659141344cd1fd0a4f28419497f9722a3daafe3b4186f6b6457e08280a3005b34610174576020366003190112610174576001600160a01b036107c1610df2565b1680156107e05760005260036020526020604060002054604051908152f35b6322718ad960e21b600052600060045260246000fd5b34610174576000366003190112610174576020600a54604051908152f35b34610174576020366003190112610174576020610832600435611374565b6040516001600160a01b039091168152f35b3461017457602036600319011261017457600435600052600c6020526104f06104dc604060002061100c565b346101745760203660031901126101745760043567ffffffffffffffff8111610174576108a1903690600401610ecd565b6108a96114e9565b805167ffffffffffffffff811161046d576108c5600b54610f2b565b601f8111610978575b50602091601f821160011461090c57918192600092610901575b5050600019600383901b1c191660019190911b17600b55005b0151905082806108e8565b601f19821692600b600052600080516020611bb58339815191529160005b85811061096057508360019510610947575b505050811b01600b55005b015160001960f88460031b161c1916905582808061093c565b9192602060018192868501518155019401920161092a565b600b600052601f820160051c600080516020611bb58339815191520190602083106109cf575b601f0160051c600080516020611bb583398151915201905b8181106109c357506108ce565b600081556001016109b6565b600080516020611bb5833981519152915061099e565b346101745760203660031901126101745761058c336004356113ab565b346101745761058c610a1336610e1e565b9060405192610a23602085610e58565b600084526105868383836110ae565b346101745760206104b5610a4536610eeb565b610a509291926114e9565b60095480610a79575b50610a736008548094610a6b826112cb565b600855611512565b82611704565b610a86906008541061128a565b84610a59565b3461017457600036600319011261017457610aa56114e9565b478015610b0a576007546000918291829182916001600160a01b03165af1610acb61125a565b5015610ad357005b60405162461bcd60e51b815260206004820152600f60248201526e151c985b9cd9995c8819985a5b1959608a1b6044820152606490fd5b60405162461bcd60e51b815260206004820152600a6024820152694e6f2062616c616e636560b01b6044820152606490fd5b346101745761058c610b4d36610e1e565b916110ae565b3461017457604036600319011261017457610b6c610df2565b602435610b7881611374565b33151580610c2f575b80610c01575b610bec5781906001600160a01b0384811691167f8c5be1e5ebec7d5bd14f71427d1e84f3dd0314c0f7b2291e5b200ac8c7c3b925600080a4600090815260046020526040902080546001600160a01b0319166001600160a01b03909216919091179055005b63a9fbf51f60e01b6000523360045260246000fd5b506001600160a01b038116600090815260056020908152604080832033845290915290205460ff1615610b87565b506001600160a01b038116331415610b81565b3461017457602036600319011261017457600435610c5f81611374565b506000526004602052602060018060a01b0360406000205416604051908152f35b346101745760003660031901126101745760405160008054610ca181610f2b565b80845290600181169081156106f65750600114610cc8576104f0836104dc81850382610e58565b60008080527f290decd9548b62a8d60345a988386fc84ba6bc95484008f6362f93160ef3e563939250905b808210610d0b575090915081016020016104dc610687565b919260018160209254838588010152019101909291610cf3565b34610174576020366003190112610174576004359063ffffffff60e01b821680920361017457602091632483248360e11b8114908115610d67575b5015158152f35b6380ac58cd60e01b811491508115610d99575b8115610d88575b5083610d60565b6301ffc9a760e01b14905083610d81565b635b5e139f60e01b81149150610d7a565b60005b838110610dbd5750506000910152565b8181015183820152602001610dad565b90602091610de681518092818552858086019101610daa565b601f01601f1916010190565b600435906001600160a01b038216820361017457565b602435906001600160a01b038216820361017457565b6060906003190112610174576004356001600160a01b038116810361017457906024356001600160a01b0381168103610174579060443590565b90601f8019910116810190811067ffffffffffffffff82111761046d57604052565b67ffffffffffffffff811161046d57601f01601f191660200190565b929192610ea282610e7a565b91610eb06040519384610e58565b829481845281830111610174578281602093846000960137010152565b9080601f8301121561017457816020610ee893359101610e96565b90565b906040600319830112610174576004356001600160a01b038116810361017457916024359067ffffffffffffffff821161017457610ee891600401610ecd565b90600182811c92168015610f5b575b6020831014610f4557565b634e487b7160e01b600052602260045260246000fd5b91607f1691610f3a565b60405190600082600b5491610f7983610f2b565b8083529260018116908115610fed5750600114610f9f575b610f9d92500383610e58565b565b50600b60009081529091600080516020611bb58339815191525b818310610fd1575050906020610f9d92820101610f91565b6020919350806001915483858901015201910190918492610fb9565b60209250610f9d94915060ff191682840152151560051b820101610f91565b906040519182600082549261102084610f2b565b808452936001811690811561108c5750600114611045575b50610f9d92500383610e58565b90506000929192526020600020906000915b818310611070575050906020610f9d9282010138611038565b6020919350806001915483858901015201910190918492611057565b905060209250610f9d94915060ff191682840152151560051b82010138611038565b6001600160a01b0390911691908215611244576000828152600260205260408120546001600160a01b03169383918590331515806111ac575b507fddf252ad1be2c89b69c2b068fc378daa952ba7f163c4a11628f55a4df523b3ef9082611177575b83815260036020526040812060018154019055848152600260205260408120846bffffffffffffffffffffffff60a01b82541617905580a46001600160a01b031680830361115d57505050565b6364283d7b60e01b60005260045260245260445260646000fd5b600085815260046020526040902080546001600160a01b03191690558281526003602052604081208054600019019055611110565b9150919250806111f5575b156111c65790848492386110e7565b8390856111df57602491637e27328960e01b8252600452fd5b60449163177e802f60e01b825233600452602452fd5b503385148015611223575b806111b75750838152600460205260408120546001600160a01b031633146111b7565b5084815260056020908152604080832033845290915281205460ff16611200565b633250574960e11b600052600060045260246000fd5b3d15611285573d9061126b82610e7a565b916112796040519384610e58565b82523d6000602084013e565b606090565b1561129157565b60405162461bcd60e51b815260206004820152601260248201527113585e081cdd5c1c1b1e481c995858da195960721b6044820152606490fd5b60001981146112da5760010190565b634e487b7160e01b600052601160045260246000fd5b90600a548061132c575b50610ee890600954806113195750610a736008548094610a6b826112cb565b611326906008541061128a565b38610a59565b341061133857386112fa565b60405162461bcd60e51b8152602060048201526014602482015273125b9cdd59999a58da595b9d081c185e5b595b9d60621b6044820152606490fd5b6000818152600260205260409020546001600160a01b0316908115611397575090565b637e27328960e01b60005260045260246000fd5b6000818152600260205260409020546001600160a01b03908116921680151580611453575b50508161141c575b600081815260026020526040812080546001600160a01b0319169055827fddf252ad1be2c89b69c2b068fc378daa952ba7f163c4a11628f55a4df523b3ef8280a490565b600081815260046020526040902080546001600160a01b0319169055816000526003602052604060002060001981540190556113d8565b80611495575b1561146457806113d0565b8261147e5750637e27328960e01b60005260045260246000fd5b63177e802f60e01b60005260045260245260446000fd5b5080831480156114c5575b8061145957506000828152600460205260409020546001600160a01b03168114611459565b5082600052600560205260406000208160005260205260ff604060002054166114a0565b6007546001600160a01b031633036114fd57565b63118cdaa760e01b6000523360045260246000fd5b90602090604051906115248383610e58565b600082526001600160a01b0384169384156112445760008281526002855260018060a01b036040822054168387827fddf252ad1be2c89b69c2b068fc378daa952ba7f163c4a11628f55a4df523b3ef81151595866116d0575b83815260038b5260408082208054600101905585825260028c52812080546001600160a01b0319168517905580a4506116ba573b6115bc575b50505050565b916115fa91819495936040519384928392630a85bd0160e11b8452336004850152600060248501526044840152608060648401526084830190610dcd565b03816000885af18091600091611675575b509061163c57505061161b61125a565b80519190826116395783633250574960e11b60005260045260246000fd5b01fd5b909291506001600160e01b03191663757a42ff60e11b016116615750388080806115b6565b633250574960e11b60005260045260246000fd5b8481813d83116116b3575b61168a8183610e58565b810103126116af5751906001600160e01b0319821682036116ac57503861160b565b80fd5b5080fd5b503d611680565b6339e3563760e11b600052600060045260246000fd5b600085815260046020526040902080546001600160a01b031916905582815260038b5260408120805460001901905561157d565b9190918060005260066020526040600020835167ffffffffffffffff811161046d576117308254610f2b565b601f811161182e575b506020601f82116001146117a257908060209493927ff8e1a15aba9398e019f0b49df1a4fde98ee17ae345cb5f6b5e2c27f5033e8ce79697600092611797575b50508160011b916000199060031b1c19161790555b604051908152a1565b015190503880611779565b601f1982169583600052816000209660005b818110611816575096600192849260209796957ff8e1a15aba9398e019f0b49df1a4fde98ee17ae345cb5f6b5e2c27f5033e8ce7999a106117fd575b505050811b01905561178e565b015160001960f88460031b161c191690553880806117f0565b838301518955600190980197602093840193016117b4565b826000526020600020601f830160051c8101916020841061186c575b601f0160051c01905b8181106118605750611739565b60008155600101611853565b909150819061184a565b823b611884575b5050505050565b604051630a85bd0160e11b81526001600160a01b0391821660048201529181166024830152604482019390935260806064820152911691602090829081906118d0906084830190610dcd565b03816000865af18091600091611934575b509061191257506118f061125a565b8051908161190d5782633250574960e11b60005260045260246000fd5b602001fd5b6001600160e01b03191663757a42ff60e11b016116615750388080808061187d565b6020813d60201161196f575b8161194d60209383610e58565b810103126116af5751906001600160e01b0319821682036116ac5750386118e1565b3d9150611940565b610f9d90929192602060405194826119988794518092858088019101610daa565b83016119ac82518093858085019101610daa565b010103601f198101845283610e58565b6119c581611374565b508060005260066020526119dc604060002061100c565b6119e4610f65565b805115611bae578151611ba45750506119fc81611374565b50611a05610f65565b805190919060009015611b8d5750808160009272184f03e93ff9f4daa797ed6e38ed64bf6a1f0160401b811015611b67575b50806d04ee2d6d415b85acef8100000000600a921015611b4c575b662386f26fc10000811015611b38575b6305f5e100811015611b27575b612710811015611b18575b6064811015611b0a575b1015611aff575b600a60216001840193611a9d85610e7a565b94611aab6040519687610e58565b808652611aba601f1991610e7a565b013660208701378401015b60001901916f181899199a1a9b1b9c1cb0b131b232b360811b8282061a835304908115611af457600a90611ac5565b5050610ee891611977565b600190910190611a8b565b606460029104930192611a84565b61271060049104930192611a7a565b6305f5e10060089104930192611a6f565b662386f26fc1000060109104930192611a62565b6d04ee2d6d415b85acef810000000060209104930192611a52565b6040935072184f03e93ff9f4daa797ed6e38ed64bf6a1f0160401b90049050600a611a37565b91505060405190611b9f602083610e58565b815290565b610ee89250611977565b5090509056fe0175b7a638427703f0dbe7bb9bbf987a2551717b34e79f33b5b1008d1fa01db9a26469706673582212205366a1c8c5484e7dd0d3b477f85a3e3b58118883c9324db2a72dd790fe218c2e64736f6c634300081c0033","opcodes":"PUSH1 0x80 PUSH1 0x40 MSTORE CALLVALUE PUSH2 0x39F JUMPI PUSH2 0x203F DUP1 CODESIZE SUB DUP1 PUSH2 0x19 DUP2 PUSH2 0x3A4 JUMP JUMPDEST SWAP3 DUP4 CODECOPY DUP2 ADD SWAP1 PUSH1 0x80 DUP2 DUP4 SUB SLT PUSH2 0x39F JUMPI DUP1 MLOAD PUSH1 0x1 PUSH1 0x1 PUSH1 0x40 SHL SUB DUP2 GT PUSH2 0x39F JUMPI DUP3 PUSH2 0x45 SWAP2 DUP4 ADD PUSH2 0x3C9 JUMP JUMPDEST PUSH1 0x20 DUP3 ADD MLOAD SWAP1 SWAP3 PUSH1 0x1 PUSH1 0x1 PUSH1 0x40 SHL SUB DUP3 GT PUSH2 0x39F JUMPI PUSH2 0x65 SWAP2 DUP4 ADD PUSH2 0x3C9 JUMP JUMPDEST PUSH1 0x40 DUP3 ADD MLOAD PUSH1 0x60 SWAP1 SWAP3 ADD MLOAD DUP4 MLOAD SWAP2 SWAP3 SWAP2 PUSH1 0x1 PUSH1 0x1 PUSH1 0x40 SHL SUB DUP2 GT PUSH2 0x2AA JUMPI PUSH1 0x0 SLOAD PUSH1 0x1 DUP2 DUP2 SHR SWAP2 AND DUP1 ISZERO PUSH2 0x395 JUMPI JUMPDEST PUSH1 0x20 DUP3 LT EQ PUSH2 0x28A JUMPI PUSH1 0x1F DUP2 GT PUSH2 0x331 JUMPI JUMPDEST POP PUSH1 0x20 SWAP5 PUSH1 0x1F DUP3 GT PUSH1 0x1 EQ PUSH2 0x2CB JUMPI SWAP5 DUP2 SWAP3 SWAP4 SWAP5 SWAP6 PUSH1 0x0 SWAP3 PUSH2 0x2C0 JUMPI JUMPDEST POP POP DUP2 PUSH1 0x1 SHL SWAP2 PUSH1 0x0 NOT SWAP1 PUSH1 0x3 SHL SHR NOT AND OR PUSH1 0x0 SSTORE JUMPDEST DUP3 MLOAD PUSH1 0x1 PUSH1 0x1 PUSH1 0x40 SHL SUB DUP2 GT PUSH2 0x2AA JUMPI PUSH1 0x1 SLOAD PUSH1 0x1 DUP2 DUP2 SHR SWAP2 AND DUP1 ISZERO PUSH2 0x2A0 JUMPI JUMPDEST PUSH1 0x20 DUP3 LT EQ PUSH2 0x28A JUMPI PUSH1 0x1F DUP2 GT PUSH2 0x225 JUMPI JUMPDEST POP PUSH1 0x20 PUSH1 0x1F DUP3 GT PUSH1 0x1 EQ PUSH2 0x1BE JUMPI DUP2 SWAP3 SWAP4 SWAP5 PUSH1 0x0 SWAP3 PUSH2 0x1B3 JUMPI JUMPDEST POP POP DUP2 PUSH1 0x1 SHL SWAP2 PUSH1 0x0 NOT SWAP1 PUSH1 0x3 SHL SHR NOT AND OR PUSH1 0x1 SSTORE JUMPDEST CALLER ISZERO PUSH2 0x19D JUMPI PUSH1 0x7 DUP1 SLOAD CALLER PUSH1 0x1 PUSH1 0x1 PUSH1 0xA0 SHL SUB NOT DUP3 AND DUP2 OR SWAP1 SWAP3 SSTORE PUSH1 0x40 MLOAD SWAP4 SWAP2 SWAP1 PUSH1 0x1 PUSH1 0x1 PUSH1 0xA0 SHL SUB AND PUSH32 0x8BE0079C531659141344CD1FD0A4F28419497F9722A3DAAFE3B4186F6B6457E0 PUSH1 0x0 DUP1 LOG3 PUSH1 0x9 SSTORE PUSH1 0xA SSTORE PUSH2 0x1C0A SWAP1 DUP2 PUSH2 0x435 DUP3 CODECOPY RETURN JUMPDEST PUSH4 0x1E4FBDF7 PUSH1 0xE0 SHL PUSH1 0x0 MSTORE PUSH1 0x0 PUSH1 0x4 MSTORE PUSH1 0x24 PUSH1 0x0 REVERT JUMPDEST ADD MLOAD SWAP1 POP CODESIZE DUP1 PUSH2 0x126 JUMP JUMPDEST PUSH1 0x1F NOT DUP3 AND SWAP1 PUSH1 0x1 PUSH1 0x0 MSTORE DUP1 PUSH1 0x0 KECCAK256 SWAP2 PUSH1 0x0 JUMPDEST DUP2 DUP2 LT PUSH2 0x20D JUMPI POP SWAP6 DUP4 PUSH1 0x1 SWAP6 SWAP7 SWAP8 LT PUSH2 0x1F4 JUMPI JUMPDEST POP POP POP DUP2 SHL ADD PUSH1 0x1 SSTORE PUSH2 0x13C JUMP JUMPDEST ADD MLOAD PUSH1 0x0 NOT PUSH1 0xF8 DUP5 PUSH1 0x3 SHL AND SHR NOT AND SWAP1 SSTORE CODESIZE DUP1 DUP1 PUSH2 0x1E6 JUMP JUMPDEST SWAP2 SWAP3 PUSH1 0x20 PUSH1 0x1 DUP2 SWAP3 DUP7 DUP12 ADD MLOAD DUP2 SSTORE ADD SWAP5 ADD SWAP3 ADD PUSH2 0x1D1 JUMP JUMPDEST PUSH1 0x1 PUSH1 0x0 MSTORE PUSH32 0xB10E2D527612073B26EECDFD717E6A320CF44B4AFAC2B0732D9FCBE2B7FA0CF6 PUSH1 0x1F DUP4 ADD PUSH1 0x5 SHR DUP2 ADD SWAP2 PUSH1 0x20 DUP5 LT PUSH2 0x280 JUMPI JUMPDEST PUSH1 0x1F ADD PUSH1 0x5 SHR ADD SWAP1 JUMPDEST DUP2 DUP2 LT PUSH2 0x274 JUMPI POP PUSH2 0x10C JUMP JUMPDEST PUSH1 0x0 DUP2 SSTORE PUSH1 0x1 ADD PUSH2 0x267 JUMP JUMPDEST SWAP1 SWAP2 POP DUP2 SWAP1 PUSH2 0x25E JUMP JUMPDEST PUSH4 0x4E487B71 PUSH1 0xE0 SHL PUSH1 0x0 MSTORE PUSH1 0x22 PUSH1 0x4 MSTORE PUSH1 0x24 PUSH1 0x0 REVERT JUMPDEST SWAP1 PUSH1 0x7F AND SWAP1 PUSH2 0xFA JUMP JUMPDEST PUSH4 0x4E487B71 PUSH1 0xE0 SHL PUSH1 0x0 MSTORE PUSH1 0x41 PUSH1 0x4 MSTORE PUSH1 0x24 PUSH1 0x0 REVERT JUMPDEST ADD MLOAD SWAP1 POP CODESIZE DUP1 PUSH2 0xC3 JUMP JUMPDEST PUSH1 0x1F NOT DUP3 AND SWAP6 PUSH1 0x0 DUP1 MSTORE DUP1 PUSH1 0x0 KECCAK256 SWAP2 PUSH1 0x0 JUMPDEST DUP9 DUP2 LT PUSH2 0x319 JUMPI POP DUP4 PUSH1 0x1 SWAP6 SWAP7 SWAP8 SWAP9 LT PUSH2 0x300 JUMPI JUMPDEST POP POP POP DUP2 SHL ADD PUSH1 0x0 SSTORE PUSH2 0xD9 JUMP JUMPDEST ADD MLOAD PUSH1 0x0 NOT PUSH1 0xF8 DUP5 PUSH1 0x3 SHL AND SHR NOT AND SWAP1 SSTORE CODESIZE DUP1 DUP1 PUSH2 0x2F2 JUMP JUMPDEST SWAP2 SWAP3 PUSH1 0x20 PUSH1 0x1 DUP2 SWAP3 DUP7 DUP6 ADD MLOAD DUP2 SSTORE ADD SWAP5 ADD SWAP3 ADD PUSH2 0x2DD JUMP JUMPDEST PUSH1 0x0 DUP1 MSTORE PUSH32 0x290DECD9548B62A8D60345A988386FC84BA6BC95484008F6362F93160EF3E563 PUSH1 0x1F DUP4 ADD PUSH1 0x5 SHR DUP2 ADD SWAP2 PUSH1 0x20 DUP5 LT PUSH2 0x38B JUMPI JUMPDEST PUSH1 0x1F ADD PUSH1 0x5 SHR ADD SWAP1 JUMPDEST DUP2 DUP2 LT PUSH2 0x37F JUMPI POP PUSH2 0xA6 JUMP JUMPDEST PUSH1 0x0 DUP2 SSTORE PUSH1 0x1 ADD PUSH2 0x372 JUMP JUMPDEST SWAP1 SWAP2 POP DUP2 SWAP1 PUSH2 0x369 JUMP JUMPDEST SWAP1 PUSH1 0x7F AND SWAP1 PUSH2 0x94 JUMP JUMPDEST PUSH1 0x0 DUP1 REVERT JUMPDEST PUSH1 0x40 MLOAD SWAP2 SWAP1 PUSH1 0x1F ADD PUSH1 0x1F NOT AND DUP3 ADD PUSH1 0x1 PUSH1 0x1 PUSH1 0x40 SHL SUB DUP2 GT DUP4 DUP3 LT OR PUSH2 0x2AA JUMPI PUSH1 0x40 MSTORE JUMP JUMPDEST DUP2 PUSH1 0x1F DUP3 ADD SLT ISZERO PUSH2 0x39F JUMPI DUP1 MLOAD SWAP1 PUSH1 0x1 PUSH1 0x1 PUSH1 0x40 SHL SUB DUP3 GT PUSH2 0x2AA JUMPI PUSH2 0x3F8 PUSH1 0x1F DUP4 ADD PUSH1 0x1F NOT AND PUSH1 0x20 ADD PUSH2 0x3A4 JUMP JUMPDEST SWAP3 DUP3 DUP5 MSTORE PUSH1 0x20 DUP4 DUP4 ADD ADD GT PUSH2 0x39F JUMPI PUSH1 0x0 JUMPDEST DUP3 DUP2 LT PUSH2 0x41F JUMPI POP POP PUSH1 0x20 PUSH1 0x0 SWAP2 DUP4 ADD ADD MSTORE SWAP1 JUMP JUMPDEST DUP1 PUSH1 0x20 DUP1 SWAP3 DUP5 ADD ADD MLOAD DUP3 DUP3 DUP8 ADD ADD MSTORE ADD PUSH2 0x40A JUMP INVALID PUSH1 0x80 DUP1 PUSH1 0x40 MSTORE PUSH1 0x4 CALLDATASIZE LT ISZERO PUSH2 0x13 JUMPI PUSH1 0x0 DUP1 REVERT JUMPDEST PUSH1 0x0 CALLDATALOAD PUSH1 0xE0 SHR SWAP1 DUP2 PUSH4 0x1FFC9A7 EQ PUSH2 0xD25 JUMPI POP DUP1 PUSH4 0x6FDDE03 EQ PUSH2 0xC80 JUMPI DUP1 PUSH4 0x81812FC EQ PUSH2 0xC42 JUMPI DUP1 PUSH4 0x95EA7B3 EQ PUSH2 0xB53 JUMPI DUP1 PUSH4 0x23B872DD EQ PUSH2 0xB3C JUMPI DUP1 PUSH4 0x3CCFD60B EQ PUSH2 0xA8C JUMPI DUP1 PUSH4 0x41D5B803 EQ PUSH2 0xA32 JUMPI DUP1 PUSH4 0x42842E0E EQ PUSH2 0xA02 JUMPI DUP1 PUSH4 0x42966C68 EQ PUSH2 0x9E5 JUMPI DUP1 PUSH4 0x55F804B3 EQ PUSH2 0x870 JUMPI DUP1 PUSH4 0x57349A96 EQ PUSH2 0x844 JUMPI DUP1 PUSH4 0x6352211E EQ PUSH2 0x814 JUMPI DUP1 PUSH4 0x6817C76C EQ PUSH2 0x7F6 JUMPI DUP1 PUSH4 0x70A08231 EQ PUSH2 0x7A0 JUMPI DUP1 PUSH4 0x715018A6 EQ PUSH2 0x743 JUMPI DUP1 PUSH4 0x8DA5CB5B EQ PUSH2 0x71A JUMPI DUP1 PUSH4 0x95D89B41 EQ PUSH2 0x64D JUMPI DUP1 PUSH4 0xA22CB465 EQ PUSH2 0x5AC JUMPI DUP1 PUSH4 0xA2309FF8 EQ PUSH2 0x58E JUMPI DUP1 PUSH4 0xB88D4FDE EQ PUSH2 0x520 JUMPI DUP1 PUSH4 0xC70A7EE2 EQ PUSH2 0x4F4 JUMPI DUP1 PUSH4 0xC87B56DD EQ PUSH2 0x4BD JUMPI DUP1 PUSH4 0xD0DEF521 EQ PUSH2 0x4A1 JUMPI DUP1 PUSH4 0xD5ABEB01 EQ PUSH2 0x483 JUMPI DUP1 PUSH4 0xE1E152A9 EQ PUSH2 0x25E JUMPI DUP1 PUSH4 0xE985E9C5 EQ PUSH2 0x203 JUMPI DUP1 PUSH4 0xF2FDE38B EQ PUSH2 0x179 JUMPI PUSH4 0xF4A0A528 EQ PUSH2 0x153 JUMPI PUSH1 0x0 DUP1 REVERT JUMPDEST CALLVALUE PUSH2 0x174 JUMPI PUSH1 0x20 CALLDATASIZE PUSH1 0x3 NOT ADD SLT PUSH2 0x174 JUMPI PUSH2 0x16C PUSH2 0x14E9 JUMP JUMPDEST PUSH1 0x4 CALLDATALOAD PUSH1 0xA SSTORE STOP JUMPDEST PUSH1 0x0 DUP1 REVERT JUMPDEST CALLVALUE PUSH2 0x174 JUMPI PUSH1 0x20 CALLDATASIZE PUSH1 0x3 NOT ADD SLT PUSH2 0x174 JUMPI PUSH2 0x192 PUSH2 0xDF2 JUMP JUMPDEST PUSH2 0x19A PUSH2 0x14E9 JUMP JUMPDEST PUSH1 0x1 PUSH1 0x1 PUSH1 0xA0 SHL SUB AND DUP1 ISZERO PUSH2 0x1ED JUMPI PUSH1 0x7 DUP1 SLOAD PUSH1 0x1 PUSH1 0x1 PUSH1 0xA0 SHL SUB NOT DUP2 AND DUP4 OR SWAP1 SWAP2 SSTORE PUSH1 0x1 PUSH1 0x1 PUSH1 0xA0 SHL SUB AND PUSH32 0x8BE0079C531659141344CD1FD0A4F28419497F9722A3DAAFE3B4186F6B6457E0 PUSH1 0x0 DUP1 LOG3 STOP JUMPDEST PUSH4 0x1E4FBDF7 PUSH1 0xE0 SHL PUSH1 0x0 MSTORE PUSH1 0x0 PUSH1 0x4 MSTORE PUSH1 0x24 PUSH1 0x0 REVERT JUMPDEST CALLVALUE PUSH2 0x174 JUMPI PUSH1 0x40 CALLDATASIZE PUSH1 0x3 NOT ADD SLT PUSH2 0x174 JUMPI PUSH2 0x21C PUSH2 0xDF2 JUMP JUMPDEST PUSH2 0x224 PUSH2 0xE08 JUMP JUMPDEST SWAP1 PUSH1 0x1 DUP1 PUSH1 0xA0 SHL SUB AND PUSH1 0x0 MSTORE PUSH1 0x5 PUSH1 0x20 MSTORE PUSH1 0x40 PUSH1 0x0 KECCAK256 SWAP1 PUSH1 0x1 DUP1 PUSH1 0xA0 SHL SUB AND PUSH1 0x0 MSTORE PUSH1 0x20 MSTORE PUSH1 0x20 PUSH1 0xFF PUSH1 0x40 PUSH1 0x0 KECCAK256 SLOAD AND PUSH1 0x40 MLOAD SWAP1 ISZERO ISZERO DUP2 MSTORE RETURN JUMPDEST PUSH1 0x80 CALLDATASIZE PUSH1 0x3 NOT ADD SLT PUSH2 0x174 JUMPI PUSH2 0x272 PUSH2 0xDF2 JUMP JUMPDEST PUSH1 0x24 CALLDATALOAD PUSH8 0xFFFFFFFFFFFFFFFF DUP2 GT PUSH2 0x174 JUMPI PUSH2 0x292 SWAP1 CALLDATASIZE SWAP1 PUSH1 0x4 ADD PUSH2 0xECD JUMP JUMPDEST SWAP1 PUSH1 0x44 CALLDATALOAD PUSH8 0xFFFFFFFFFFFFFFFF DUP2 GT PUSH2 0x174 JUMPI PUSH2 0x2B3 SWAP1 CALLDATASIZE SWAP1 PUSH1 0x4 ADD PUSH2 0xECD JUMP JUMPDEST SWAP2 PUSH2 0x2C1 PUSH1 0x64 CALLDATALOAD SWAP2 DUP4 PUSH2 0x12F0 JUMP JUMPDEST SWAP2 DUP3 PUSH1 0x0 MSTORE PUSH1 0xC PUSH1 0x20 MSTORE PUSH1 0x40 PUSH1 0x0 KECCAK256 DUP5 MLOAD PUSH8 0xFFFFFFFFFFFFFFFF DUP2 GT PUSH2 0x46D JUMPI PUSH2 0x2EB DUP3 SLOAD PUSH2 0xF2B JUMP JUMPDEST PUSH1 0x1F DUP2 GT PUSH2 0x425 JUMPI JUMPDEST POP SWAP2 PUSH1 0x20 SWAP6 SWAP2 DUP6 SWAP4 DUP8 PUSH1 0x1F DUP3 GT PUSH1 0x1 EQ PUSH2 0x398 JUMPI SWAP2 DUP2 PUSH2 0x371 SWAP5 SWAP3 PUSH32 0x6D12C77A47C09C3AC7079DE39279F81B148851AFEAFE00FF719B90BFBC7B2FAE SWAP7 SWAP5 PUSH1 0x0 SWAP2 PUSH2 0x38D JUMPI JUMPDEST POP DUP2 PUSH1 0x1 SHL SWAP2 PUSH1 0x0 NOT SWAP1 PUSH1 0x3 SHL SHR NOT AND OR SWAP1 SSTORE JUMPDEST DUP5 PUSH1 0x0 MSTORE PUSH1 0xD DUP9 MSTORE DUP6 PUSH1 0x40 PUSH1 0x0 KECCAK256 SSTORE PUSH1 0x40 MLOAD SWAP3 DUP4 SWAP3 PUSH1 0x40 DUP5 MSTORE PUSH1 0x40 DUP5 ADD SWAP1 PUSH2 0xDCD JUMP JUMPDEST DUP3 DUP10 ADD SWAP7 SWAP1 SWAP7 MSTORE PUSH1 0x1 PUSH1 0x1 PUSH1 0xA0 SHL SUB AND SWAP5 SUB SWAP1 LOG3 PUSH1 0x40 MLOAD SWAP1 DUP2 MSTORE RETURN JUMPDEST SWAP1 POP DUP5 ADD MLOAD DUP12 PUSH2 0x33A JUMP JUMPDEST PUSH1 0x1F NOT DUP3 AND SWAP1 DUP4 PUSH1 0x0 MSTORE DUP1 PUSH1 0x0 KECCAK256 SWAP2 PUSH1 0x0 JUMPDEST DUP2 DUP2 LT PUSH2 0x40B JUMPI POP SWAP3 PUSH32 0x6D12C77A47C09C3AC7079DE39279F81B148851AFEAFE00FF719B90BFBC7B2FAE SWAP7 SWAP5 SWAP3 PUSH1 0x1 SWAP3 DUP3 PUSH2 0x371 SWAP9 SWAP7 LT PUSH2 0x3F2 JUMPI JUMPDEST POP POP DUP2 SHL ADD SWAP1 SSTORE PUSH2 0x34E JUMP JUMPDEST DUP7 ADD MLOAD PUSH1 0x0 NOT PUSH1 0xF8 DUP5 PUSH1 0x3 SHL AND SHR NOT AND SWAP1 SSTORE DUP12 DUP1 PUSH2 0x3E6 JUMP JUMPDEST DUP3 DUP9 ADD MLOAD DUP5 SSTORE DUP11 SWAP9 POP PUSH1 0x1 SWAP1 SWAP4 ADD SWAP3 SWAP2 DUP12 ADD SWAP2 DUP12 ADD PUSH2 0x3AA JUMP JUMPDEST DUP3 PUSH1 0x0 MSTORE PUSH1 0x20 PUSH1 0x0 KECCAK256 PUSH1 0x1F DUP4 ADD PUSH1 0x5 SHR DUP2 ADD SWAP2 PUSH1 0x20 DUP5 LT PUSH2 0x463 JUMPI JUMPDEST PUSH1 0x1F ADD PUSH1 0x5 SHR ADD SWAP1 JUMPDEST DUP2 DUP2 LT PUSH2 0x457 JUMPI POP PUSH2 0x2F4 JUMP JUMPDEST PUSH1 0x0 DUP2 SSTORE PUSH1 0x1 ADD PUSH2 0x44A JUMP JUMPDEST SWAP1 SWAP2 POP DUP2 SWAP1 PUSH2 0x441 JUMP JUMPDEST PUSH4 0x4E487B71 PUSH1 0xE0 SHL PUSH1 0x0 MSTORE PUSH1 0x41 PUSH1 0x4 MSTORE PUSH1 0x24 PUSH1 0x0 REVERT JUMPDEST CALLVALUE PUSH2 0x174 JUMPI PUSH1 0x0 CALLDATASIZE PUSH1 0x3 NOT ADD SLT PUSH2 0x174 JUMPI PUSH1 0x20 PUSH1 0x9 SLOAD PUSH1 0x40 MLOAD SWAP1 DUP2 MSTORE RETURN JUMPDEST PUSH1 0x20 PUSH2 0x4B5 PUSH2 0x4AF CALLDATASIZE PUSH2 0xEEB JUMP JUMPDEST SWAP1 PUSH2 0x12F0 JUMP JUMPDEST PUSH1 0x40 MLOAD SWAP1 DUP2 MSTORE RETURN JUMPDEST CALLVALUE PUSH2 0x174 JUMPI PUSH1 0x20 CALLDATASIZE PUSH1 0x3 NOT ADD SLT PUSH2 0x174 JUMPI PUSH2 0x4F0 PUSH2 0x4DC PUSH1 0x4 CALLDATALOAD PUSH2 0x19BC JUMP JUMPDEST PUSH1 0x40 MLOAD SWAP2 DUP3 SWAP2 PUSH1 0x20 DUP4 MSTORE PUSH1 0x20 DUP4 ADD SWAP1 PUSH2 0xDCD JUMP JUMPDEST SUB SWAP1 RETURN JUMPDEST CALLVALUE PUSH2 0x174 JUMPI PUSH1 0x20 CALLDATASIZE PUSH1 0x3 NOT ADD SLT PUSH2 0x174 JUMPI PUSH1 0x4 CALLDATALOAD PUSH1 0x0 MSTORE PUSH1 0xD PUSH1 0x20 MSTORE PUSH1 0x20 PUSH1 0x40 PUSH1 0x0 KECCAK256 SLOAD PUSH1 0x40 MLOAD SWAP1 DUP2 MSTORE RETURN JUMPDEST CALLVALUE PUSH2 0x174 JUMPI PUSH1 0x80 CALLDATASIZE PUSH1 0x3 NOT ADD SLT PUSH2 0x174 JUMPI PUSH2 0x539 PUSH2 0xDF2 JUMP JUMPDEST PUSH2 0x541 PUSH2 0xE08 JUMP JUMPDEST SWAP1 PUSH1 0x44 CALLDATALOAD PUSH1 0x64 CALLDATALOAD SWAP3 PUSH8 0xFFFFFFFFFFFFFFFF DUP5 GT PUSH2 0x174 JUMPI CALLDATASIZE PUSH1 0x23 DUP6 ADD SLT ISZERO PUSH2 0x174 JUMPI PUSH2 0x57A PUSH2 0x58C SWAP5 CALLDATASIZE SWAP1 PUSH1 0x24 DUP2 PUSH1 0x4 ADD CALLDATALOAD SWAP2 ADD PUSH2 0xE96 JUMP JUMPDEST SWAP3 PUSH2 0x586 DUP4 DUP4 DUP4 PUSH2 0x10AE JUMP JUMPDEST CALLER PUSH2 0x1876 JUMP JUMPDEST STOP JUMPDEST CALLVALUE PUSH2 0x174 JUMPI PUSH1 0x0 CALLDATASIZE PUSH1 0x3 NOT ADD SLT PUSH2 0x174 JUMPI PUSH1 0x20 PUSH1 0x8 SLOAD PUSH1 0x40 MLOAD SWAP1 DUP2 MSTORE RETURN JUMPDEST CALLVALUE PUSH2 0x174 JUMPI PUSH1 0x40 CALLDATASIZE PUSH1 0x3 NOT ADD SLT PUSH2 0x174 JUMPI PUSH2 0x5C5 PUSH2 0xDF2 JUMP JUMPDEST PUSH1 0x24 CALLDATALOAD SWAP1 DUP2 ISZERO ISZERO DUP1 SWAP3 SUB PUSH2 0x174 JUMPI PUSH1 0x1 PUSH1 0x1 PUSH1 0xA0 SHL SUB AND SWAP1 DUP2 ISZERO PUSH2 0x638 JUMPI CALLER PUSH1 0x0 MSTORE PUSH1 0x5 PUSH1 0x20 MSTORE PUSH1 0x40 PUSH1 0x0 KECCAK256 DUP3 PUSH1 0x0 MSTORE PUSH1 0x20 MSTORE PUSH1 0x40 PUSH1 0x0 KECCAK256 PUSH1 0xFF NOT DUP2 SLOAD AND PUSH1 0xFF DUP4 AND OR SWAP1 SSTORE PUSH1 0x40 MLOAD SWAP1 DUP2 MSTORE PUSH32 0x17307EAB39AB6107E8899845AD3D59BD9653F200F220920489CA2B5937696C31 PUSH1 0x20 CALLER SWAP3 LOG3 STOP JUMPDEST POP PUSH4 0xB611743 PUSH1 0xE3 SHL PUSH1 0x0 MSTORE PUSH1 0x4 MSTORE PUSH1 0x24 PUSH1 0x0 REVERT JUMPDEST CALLVALUE PUSH2 0x174 JUMPI PUSH1 0x0 CALLDATASIZE PUSH1 0x3 NOT ADD SLT PUSH2 0x174 JUMPI PUSH1 0x40 MLOAD PUSH1 0x0 PUSH1 0x1 SLOAD PUSH2 0x66F DUP2 PUSH2 0xF2B JUMP JUMPDEST DUP1 DUP5 MSTORE SWAP1 PUSH1 0x1 DUP2 AND SWAP1 DUP2 ISZERO PUSH2 0x6F6 JUMPI POP PUSH1 0x1 EQ PUSH2 0x697 JUMPI JUMPDEST PUSH2 0x4F0 DUP4 PUSH2 0x4DC DUP2 DUP6 SUB DUP3 PUSH2 0xE58 JUMP JUMPDEST PUSH1 0x1 PUSH1 0x0 SWAP1 DUP2 MSTORE PUSH32 0xB10E2D527612073B26EECDFD717E6A320CF44B4AFAC2B0732D9FCBE2B7FA0CF6 SWAP4 SWAP3 POP SWAP1 JUMPDEST DUP1 DUP3 LT PUSH2 0x6DC JUMPI POP SWAP1 SWAP2 POP DUP2 ADD PUSH1 0x20 ADD PUSH2 0x4DC PUSH2 0x687 JUMP JUMPDEST SWAP2 SWAP3 PUSH1 0x1 DUP2 PUSH1 0x20 SWAP3 SLOAD DUP4 DUP6 DUP9 ADD ADD MSTORE ADD SWAP2 ADD SWAP1 SWAP3 SWAP2 PUSH2 0x6C4 JUMP JUMPDEST PUSH1 0xFF NOT AND PUSH1 0x20 DUP1 DUP7 ADD SWAP2 SWAP1 SWAP2 MSTORE SWAP2 ISZERO ISZERO PUSH1 0x5 SHL DUP5 ADD SWAP1 SWAP2 ADD SWAP2 POP PUSH2 0x4DC SWAP1 POP PUSH2 0x687 JUMP JUMPDEST CALLVALUE PUSH2 0x174 JUMPI PUSH1 0x0 CALLDATASIZE PUSH1 0x3 NOT ADD SLT PUSH2 0x174 JUMPI PUSH1 0x7 SLOAD PUSH1 0x40 MLOAD PUSH1 0x1 PUSH1 0x1 PUSH1 0xA0 SHL SUB SWAP1 SWAP2 AND DUP2 MSTORE PUSH1 0x20 SWAP1 RETURN JUMPDEST CALLVALUE PUSH2 0x174 JUMPI PUSH1 0x0 CALLDATASIZE PUSH1 0x3 NOT ADD SLT PUSH2 0x174 JUMPI PUSH2 0x75C PUSH2 0x14E9 JUMP JUMPDEST PUSH1 0x7 DUP1 SLOAD PUSH1 0x1 PUSH1 0x1 PUSH1 0xA0 SHL SUB NOT DUP2 AND SWAP1 SWAP2 SSTORE PUSH1 0x0 SWAP1 PUSH1 0x1 PUSH1 0x1 PUSH1 0xA0 SHL SUB AND PUSH32 0x8BE0079C531659141344CD1FD0A4F28419497F9722A3DAAFE3B4186F6B6457E0 DUP3 DUP1 LOG3 STOP JUMPDEST CALLVALUE PUSH2 0x174 JUMPI PUSH1 0x20 CALLDATASIZE PUSH1 0x3 NOT ADD SLT PUSH2 0x174 JUMPI PUSH1 0x1 PUSH1 0x1 PUSH1 0xA0 SHL SUB PUSH2 0x7C1 PUSH2 0xDF2 JUMP JUMPDEST AND DUP1 ISZERO PUSH2 0x7E0 JUMPI PUSH1 0x0 MSTORE PUSH1 0x3 PUSH1 0x20 MSTORE PUSH1 0x20 PUSH1 0x40 PUSH1 0x0 KECCAK256 SLOAD PUSH1 0x40 MLOAD SWAP1 DUP2 MSTORE RETURN JUMPDEST PUSH4 0x22718AD9 PUSH1 0xE2 SHL PUSH1 0x0 MSTORE PUSH1 0x0 PUSH1 0x4 MSTORE PUSH1 0x24 PUSH1 0x0 REVERT JUMPDEST CALLVALUE PUSH2 0x174 JUMPI PUSH1 0x0 CALLDATASIZE PUSH1 0x3 NOT ADD SLT PUSH2 0x174 JUMPI PUSH1 0x20 PUSH1 0xA SLOAD PUSH1 0x40 MLOAD SWAP1 DUP2 MSTORE RETURN JUMPDEST CALLVALUE PUSH2 0x174 JUMPI PUSH1 0x20 CALLDATASIZE PUSH1 0x3 NOT ADD SLT PUSH2 0x174 JUMPI PUSH1 0x20 PUSH2 0x832 PUSH1 0x4 CALLDATALOAD PUSH2 0x1374 JUMP JUMPDEST PUSH1 0x40 MLOAD PUSH1 0x1 PUSH1 0x1 PUSH1 0xA0 SHL SUB SWAP1 SWAP2 AND DUP2 MSTORE RETURN JUMPDEST CALLVALUE PUSH2 0x174 JUMPI PUSH1 0x20 CALLDATASIZE PUSH1 0x3 NOT ADD SLT PUSH2 0x174 JUMPI PUSH1 0x4 CALLDATALOAD PUSH1 0x0 MSTORE PUSH1 0xC PUSH1 0x20 MSTORE PUSH2 0x4F0 PUSH2 0x4DC PUSH1 0x40 PUSH1 0x0 KECCAK256 PUSH2 0x100C JUMP JUMPDEST CALLVALUE PUSH2 0x174 JUMPI PUSH1 0x20 CALLDATASIZE PUSH1 0x3 NOT ADD SLT PUSH2 0x174 JUMPI PUSH1 0x4 CALLDATALOAD PUSH8 0xFFFFFFFFFFFFFFFF DUP2 GT PUSH2 0x174 JUMPI PUSH2 0x8A1 SWAP1 CALLDATASIZE SWAP1 PUSH1 0x4 ADD PUSH2 0xECD JUMP JUMPDEST PUSH2 0x8A9 PUSH2 0x14E9 JUMP JUMPDEST DUP1 MLOAD PUSH8 0xFFFFFFFFFFFFFFFF DUP2 GT PUSH2 0x46D JUMPI PUSH2 0x8C5 PUSH1 0xB SLOAD PUSH2 0xF2B JUMP JUMPDEST PUSH1 0x1F DUP2 GT PUSH2 0x978 JUMPI JUMPDEST POP PUSH1 0x20 SWAP2 PUSH1 0x1F DUP3 GT PUSH1 0x1 EQ PUSH2 0x90C JUMPI SWAP2 DUP2 SWAP3 PUSH1 0x0 SWAP3 PUSH2 0x901 JUMPI JUMPDEST POP POP PUSH1 0x0 NOT PUSH1 0x3 DUP4 SWAP1 SHL SHR NOT AND PUSH1 0x1 SWAP2 SWAP1 SWAP2 SHL OR PUSH1 0xB SSTORE STOP JUMPDEST ADD MLOAD SWAP1 POP DUP3 DUP1 PUSH2 0x8E8 JUMP JUMPDEST PUSH1 0x1F NOT DUP3 AND SWAP3 PUSH1 0xB PUSH1 0x0 MSTORE PUSH1 0x0 DUP1 MLOAD PUSH1 0x20 PUSH2 0x1BB5 DUP4 CODECOPY DUP2 MLOAD SWAP2 MSTORE SWAP2 PUSH1 0x0 JUMPDEST DUP6 DUP2 LT PUSH2 0x960 JUMPI POP DUP4 PUSH1 0x1 SWAP6 LT PUSH2 0x947 JUMPI JUMPDEST POP POP POP DUP2 SHL ADD PUSH1 0xB SSTORE STOP JUMPDEST ADD MLOAD PUSH1 0x0 NOT PUSH1 0xF8 DUP5 PUSH1 0x3 SHL AND SHR NOT AND SWAP1 SSTORE DUP3 DUP1 DUP1 PUSH2 0x93C JUMP JUMPDEST SWAP2 SWAP3 PUSH1 0x20 PUSH1 0x1 DUP2 SWAP3 DUP7 DUP6 ADD MLOAD DUP2 SSTORE ADD SWAP5 ADD SWAP3 ADD PUSH2 0x92A JUMP JUMPDEST PUSH1 0xB PUSH1 0x0 MSTORE PUSH1 0x1F DUP3 ADD PUSH1 0x5 SHR PUSH1 0x0 DUP1 MLOAD PUSH1 0x20 PUSH2 0x1BB5 DUP4 CODECOPY DUP2 MLOAD SWAP2 MSTORE ADD SWAP1 PUSH1 0x20 DUP4 LT PUSH2 0x9CF JUMPI JUMPDEST PUSH1 0x1F ADD PUSH1 0x5 SHR PUSH1 0x0 DUP1 MLOAD PUSH1 0x20 PUSH2 0x1BB5 DUP4 CODECOPY DUP2 MLOAD SWAP2 MSTORE ADD SWAP1 JUMPDEST DUP2 DUP2 LT PUSH2 0x9C3 JUMPI POP PUSH2 0x8CE JUMP JUMPDEST PUSH1 0x0 DUP2 SSTORE PUSH1 0x1 ADD PUSH2 0x9B6 JUMP JUMPDEST PUSH1 0x0 DUP1 MLOAD PUSH1 0x20 PUSH2 0x1BB5 DUP4 CODECOPY DUP2 MLOAD SWAP2 MSTORE SWAP2 POP PUSH2 0x99E JUMP JUMPDEST CALLVALUE PUSH2 0x174 JUMPI PUSH1 0x20 CALLDATASIZE PUSH1 0x3 NOT ADD SLT PUSH2 0x174 JUMPI PUSH2 0x58C CALLER PUSH1 0x4 CALLDATALOAD PUSH2 0x13AB JUMP JUMPDEST CALLVALUE PUSH2 0x174 JUMPI PUSH2 0x58C PUSH2 0xA13 CALLDATASIZE PUSH2 0xE1E JUMP JUMPDEST SWAP1 PUSH1 0x40 MLOAD SWAP3 PUSH2 0xA23 PUSH1 0x20 DUP6 PUSH2 0xE58 JUMP JUMPDEST PUSH1 0x0 DUP5 MSTORE PUSH2 0x586 DUP4 DUP4 DUP4 PUSH2 0x10AE JUMP JUMPDEST CALLVALUE PUSH2 0x174 JUMPI PUSH1 0x20 PUSH2 0x4B5 PUSH2 0xA45 CALLDATASIZE PUSH2 0xEEB JUMP JUMPDEST PUSH2 0xA50 SWAP3 SWAP2 SWAP3 PUSH2 0x14E9 JUMP JUMPDEST PUSH1 0x9 SLOAD DUP1 PUSH2 0xA79 JUMPI JUMPDEST POP PUSH2 0xA73 PUSH1 0x8 SLOAD DUP1 SWAP5 PUSH2 0xA6B DUP3 PUSH2 0x12CB JUMP JUMPDEST PUSH1 0x8 SSTORE PUSH2 0x1512 JUMP JUMPDEST DUP3 PUSH2 0x1704 JUMP JUMPDEST PUSH2 0xA86 SWAP1 PUSH1 0x8 SLOAD LT PUSH2 0x128A JUMP JUMPDEST DUP5 PUSH2 0xA59 JUMP JUMPDEST CALLVALUE PUSH2 0x174 JUMPI PUSH1 0x0 CALLDATASIZE PUSH1 0x3 NOT ADD SLT PUSH2 0x174 JUMPI PUSH2 0xAA5 PUSH2 0x14E9 JUMP JUMPDEST SELFBALANCE DUP1 ISZERO PUSH2 0xB0A JUMPI PUSH1 0x7 SLOAD PUSH1 0x0 SWAP2 DUP3 SWAP2 DUP3 SWAP2 DUP3 SWAP2 PUSH1 0x1 PUSH1 0x1 PUSH1 0xA0 SHL SUB AND GAS CALL PUSH2 0xACB PUSH2 0x125A JUMP JUMPDEST POP ISZERO PUSH2 0xAD3 JUMPI STOP JUMPDEST PUSH1 0x40 MLOAD PUSH3 0x461BCD PUSH1 0xE5 SHL DUP2 MSTORE PUSH1 0x20 PUSH1 0x4 DUP3 ADD MSTORE PUSH1 0xF PUSH1 0x24 DUP3 ADD MSTORE PUSH15 0x151C985B9CD9995C8819985A5B1959 PUSH1 0x8A SHL PUSH1 0x44 DUP3 ADD MSTORE PUSH1 0x64 SWAP1 REVERT JUMPDEST PUSH1 0x40 MLOAD PUSH3 0x461BCD PUSH1 0xE5 SHL DUP2 MSTORE PUSH1 0x20 PUSH1 0x4 DUP3 ADD MSTORE PUSH1 0xA PUSH1 0x24 DUP3 ADD MSTORE PUSH10 0x4E6F2062616C616E6365 PUSH1 0xB0 SHL PUSH1 0x44 DUP3 ADD MSTORE PUSH1 0x64 SWAP1 REVERT JUMPDEST CALLVALUE PUSH2 0x174 JUMPI PUSH2 0x58C PUSH2 0xB4D CALLDATASIZE PUSH2 0xE1E JUMP JUMPDEST SWAP2 PUSH2 0x10AE JUMP JUMPDEST CALLVALUE PUSH2 0x174 JUMPI PUSH1 0x40 CALLDATASIZE PUSH1 0x3 NOT ADD SLT PUSH2 0x174 JUMPI PUSH2 0xB6C PUSH2 0xDF2 JUMP JUMPDEST PUSH1 0x24 CALLDATALOAD PUSH2 0xB78 DUP2 PUSH2 0x1374 JUMP JUMPDEST CALLER ISZERO ISZERO DUP1 PUSH2 0xC2F JUMPI JUMPDEST DUP1 PUSH2 0xC01 JUMPI JUMPDEST PUSH2 0xBEC JUMPI DUP2 SWAP1 PUSH1 0x1 PUSH1 0x1 PUSH1 0xA0 SHL SUB DUP5 DUP2 AND SWAP2 AND PUSH32 0x8C5BE1E5EBEC7D5BD14F71427D1E84F3DD0314C0F7B2291E5B200AC8C7C3B925 PUSH1 0x0 DUP1 LOG4 PUSH1 0x0 SWAP1 DUP2 MSTORE PUSH1 0x4 PUSH1 0x20 MSTORE PUSH1 0x40 SWAP1 KECCAK256 DUP1 SLOAD PUSH1 0x1 PUSH1 0x1 PUSH1 0xA0 SHL SUB NOT AND PUSH1 0x1 PUSH1 0x1 PUSH1 0xA0 SHL SUB SWAP1 SWAP3 AND SWAP2 SWAP1 SWAP2 OR SWAP1 SSTORE STOP JUMPDEST PUSH4 0xA9FBF51F PUSH1 0xE0 SHL PUSH1 0x0 MSTORE CALLER PUSH1 0x4 MSTORE PUSH1 0x24 PUSH1 0x0 REVERT JUMPDEST POP PUSH1 0x1 PUSH1 0x1 PUSH1 0xA0 SHL SUB DUP2 AND PUSH1 0x0 SWAP1 DUP2 MSTORE PUSH1 0x5 PUSH1 0x20 SWAP1 DUP2 MSTORE PUSH1 0x40 DUP1 DUP4 KECCAK256 CALLER DUP5 MSTORE SWAP1 SWAP2 MSTORE SWAP1 KECCAK256 SLOAD PUSH1 0xFF AND ISZERO PUSH2 0xB87 JUMP JUMPDEST POP PUSH1 0x1 PUSH1 0x1 PUSH1 0xA0 SHL SUB DUP2 AND CALLER EQ ISZERO PUSH2 0xB81 JUMP JUMPDEST CALLVALUE PUSH2 0x174 JUMPI PUSH1 0x20 CALLDATASIZE PUSH1 0x3 NOT ADD SLT PUSH2 0x174 JUMPI PUSH1 0x4 CALLDATALOAD PUSH2 0xC5F DUP2 PUSH2 0x1374 JUMP JUMPDEST POP PUSH1 0x0 MSTORE PUSH1 0x4 PUSH1 0x20 MSTORE PUSH1 0x20 PUSH1 0x1 DUP1 PUSH1 0xA0 SHL SUB PUSH1 0x40 PUSH1 0x0 KECCAK256 SLOAD AND PUSH1 0x40 MLOAD SWAP1 DUP2 MSTORE RETURN JUMPDEST CALLVALUE PUSH2 0x174 JUMPI PUSH1 0x0 CALLDATASIZE PUSH1 0x3 NOT ADD SLT PUSH2 0x174 JUMPI PUSH1 0x40 MLOAD PUSH1 0x0 DUP1 SLOAD PUSH2 0xCA1 DUP2 PUSH2 0xF2B JUMP JUMPDEST DUP1 DUP5 MSTORE SWAP1 PUSH1 0x1 DUP2 AND SWAP1 DUP2 ISZERO PUSH2 0x6F6 JUMPI POP PUSH1 0x1 EQ PUSH2 0xCC8 JUMPI PUSH2 0x4F0 DUP4 PUSH2 0x4DC DUP2 DUP6 SUB DUP3 PUSH2 0xE58 JUMP JUMPDEST PUSH1 0x0 DUP1 DUP1 MSTORE PUSH32 0x290DECD9548B62A8D60345A988386FC84BA6BC95484008F6362F93160EF3E563 SWAP4 SWAP3 POP SWAP1 JUMPDEST DUP1 DUP3 LT PUSH2 0xD0B JUMPI POP SWAP1 SWAP2 POP DUP2 ADD PUSH1 0x20 ADD PUSH2 0x4DC PUSH2 0x687 JUMP JUMPDEST SWAP2 SWAP3 PUSH1 0x1 DUP2 PUSH1 0x20 SWAP3 SLOAD DUP4 DUP6 DUP9 ADD ADD MSTORE ADD SWAP2 ADD SWAP1 SWAP3 SWAP2 PUSH2 0xCF3 JUMP JUMPDEST CALLVALUE PUSH2 0x174 JUMPI PUSH1 0x20 CALLDATASIZE PUSH1 0x3 NOT ADD SLT PUSH2 0x174 JUMPI PUSH1 0x4 CALLDATALOAD SWAP1 PUSH4 0xFFFFFFFF PUSH1 0xE0 SHL DUP3 AND DUP1 SWAP3 SUB PUSH2 0x174 JUMPI PUSH1 0x20 SWAP2 PUSH4 0x24832483 PUSH1 0xE1 SHL DUP2 EQ SWAP1 DUP2 ISZERO PUSH2 0xD67 JUMPI JUMPDEST POP ISZERO ISZERO DUP2 MSTORE RETURN JUMPDEST PUSH4 0x80AC58CD PUSH1 0xE0 SHL DUP2 EQ SWAP2 POP DUP2 ISZERO PUSH2 0xD99 JUMPI JUMPDEST DUP2 ISZERO PUSH2 0xD88 JUMPI JUMPDEST POP DUP4 PUSH2 0xD60 JUMP JUMPDEST PUSH4 0x1FFC9A7 PUSH1 0xE0 SHL EQ SWAP1 POP DUP4 PUSH2 0xD81 JUMP JUMPDEST PUSH4 0x5B5E139F PUSH1 0xE0 SHL DUP2 EQ SWAP2 POP PUSH2 0xD7A JUMP JUMPDEST PUSH1 0x0 JUMPDEST DUP4 DUP2 LT PUSH2 0xDBD JUMPI POP POP PUSH1 0x0 SWAP2 ADD MSTORE JUMP JUMPDEST DUP2 DUP2 ADD MLOAD DUP4 DUP3 ADD MSTORE PUSH1 0x20 ADD PUSH2 0xDAD JUMP JUMPDEST SWAP1 PUSH1 0x20 SWAP2 PUSH2 0xDE6 DUP2 MLOAD DUP1 SWAP3 DUP2 DUP6 MSTORE DUP6 DUP1 DUP7 ADD SWAP2 ADD PUSH2 0xDAA JUMP JUMPDEST PUSH1 0x1F ADD PUSH1 0x1F NOT AND ADD ADD SWAP1 JUMP JUMPDEST PUSH1 0x4 CALLDATALOAD SWAP1 PUSH1 0x1 PUSH1 0x1 PUSH1 0xA0 SHL SUB DUP3 AND DUP3 SUB PUSH2 0x174 JUMPI JUMP JUMPDEST PUSH1 0x24 CALLDATALOAD SWAP1 PUSH1 0x1 PUSH1 0x1 PUSH1 0xA0 SHL SUB DUP3 AND DUP3 SUB PUSH2 0x174 JUMPI JUMP JUMPDEST PUSH1 0x60 SWAP1 PUSH1 0x3 NOT ADD SLT PUSH2 0x174 JUMPI PUSH1 0x4 CALLDATALOAD PUSH1 0x1 PUSH1 0x1 PUSH1 0xA0 SHL SUB DUP2 AND DUP2 SUB PUSH2 0x174 JUMPI SWAP1 PUSH1 0x24 CALLDATALOAD PUSH1 0x1 PUSH1 0x1 PUSH1 0xA0 SHL SUB DUP2 AND DUP2 SUB PUSH2 0x174 JUMPI SWAP1 PUSH1 0x44 CALLDATALOAD SWAP1 JUMP JUMPDEST SWAP1 PUSH1 0x1F DUP1 NOT SWAP2 ADD AND DUP2 ADD SWAP1 DUP2 LT PUSH8 0xFFFFFFFFFFFFFFFF DUP3 GT OR PUSH2 0x46D JUMPI PUSH1 0x40 MSTORE JUMP JUMPDEST PUSH8 0xFFFFFFFFFFFFFFFF DUP2 GT PUSH2 0x46D JUMPI PUSH1 0x1F ADD PUSH1 0x1F NOT AND PUSH1 0x20 ADD SWAP1 JUMP JUMPDEST SWAP3 SWAP2 SWAP3 PUSH2 0xEA2 DUP3 PUSH2 0xE7A JUMP JUMPDEST SWAP2 PUSH2 0xEB0 PUSH1 0x40 MLOAD SWAP4 DUP5 PUSH2 0xE58 JUMP JUMPDEST DUP3 SWAP5 DUP2 DUP5 MSTORE DUP2 DUP4 ADD GT PUSH2 0x174 JUMPI DUP3 DUP2 PUSH1 0x20 SWAP4 DUP5 PUSH1 0x0 SWAP7 ADD CALLDATACOPY ADD ADD MSTORE JUMP JUMPDEST SWAP1 DUP1 PUSH1 0x1F DUP4 ADD SLT ISZERO PUSH2 0x174 JUMPI DUP2 PUSH1 0x20 PUSH2 0xEE8 SWAP4 CALLDATALOAD SWAP2 ADD PUSH2 0xE96 JUMP JUMPDEST SWAP1 JUMP JUMPDEST SWAP1 PUSH1 0x40 PUSH1 0x3 NOT DUP4 ADD SLT PUSH2 0x174 JUMPI PUSH1 0x4 CALLDATALOAD PUSH1 0x1 PUSH1 0x1 PUSH1 0xA0 SHL SUB DUP2 AND DUP2 SUB PUSH2 0x174 JUMPI SWAP2 PUSH1 0x24 CALLDATALOAD SWAP1 PUSH8 0xFFFFFFFFFFFFFFFF DUP3 GT PUSH2 0x174 JUMPI PUSH2 0xEE8 SWAP2 PUSH1 0x4 ADD PUSH2 0xECD JUMP JUMPDEST SWAP1 PUSH1 0x1 DUP3 DUP2 SHR SWAP3 AND DUP1 ISZERO PUSH2 0xF5B JUMPI JUMPDEST PUSH1 0x20 DUP4 LT EQ PUSH2 0xF45 JUMPI JUMP JUMPDEST PUSH4 0x4E487B71 PUSH1 0xE0 SHL PUSH1 0x0 MSTORE PUSH1 0x22 PUSH1 0x4 MSTORE PUSH1 0x24 PUSH1 0x0 REVERT JUMPDEST SWAP2 PUSH1 0x7F AND SWAP2 PUSH2 0xF3A JUMP JUMPDEST PUSH1 0x40 MLOAD SWAP1 PUSH1 0x0 DUP3 PUSH1 0xB SLOAD SWAP2 PUSH2 0xF79 DUP4 PUSH2 0xF2B JUMP JUMPDEST DUP1 DUP4 MSTORE SWAP3 PUSH1 0x1 DUP2 AND SWAP1 DUP2 ISZERO PUSH2 0xFED JUMPI POP PUSH1 0x1 EQ PUSH2 0xF9F JUMPI JUMPDEST PUSH2 0xF9D SWAP3 POP SUB DUP4 PUSH2 0xE58 JUMP JUMPDEST JUMP JUMPDEST POP PUSH1 0xB PUSH1 0x0 SWAP1 DUP2 MSTORE SWAP1 SWAP2 PUSH1 0x0 DUP1 MLOAD PUSH1 0x20 PUSH2 0x1BB5 DUP4 CODECOPY DUP2 MLOAD SWAP2 MSTORE JUMPDEST DUP2 DUP4 LT PUSH2 0xFD1 JUMPI POP POP SWAP1 PUSH1 0x20 PUSH2 0xF9D SWAP3 DUP3 ADD ADD PUSH2 0xF91 JUMP JUMPDEST PUSH1 0x20 SWAP2 SWAP4 POP DUP1 PUSH1 0x1 SWAP2 SLOAD DUP4 DUP6 DUP10 ADD ADD MSTORE ADD SWAP2 ADD SWAP1 SWAP2 DUP5 SWAP3 PUSH2 0xFB9 JUMP JUMPDEST PUSH1 0x20 SWAP3 POP PUSH2 0xF9D SWAP5 SWAP2 POP PUSH1 0xFF NOT AND DUP3 DUP5 ADD MSTORE ISZERO ISZERO PUSH1 0x5 SHL DUP3 ADD ADD PUSH2 0xF91 JUMP JUMPDEST SWAP1 PUSH1 0x40 MLOAD SWAP2 DUP3 PUSH1 0x0 DUP3 SLOAD SWAP3 PUSH2 0x1020 DUP5 PUSH2 0xF2B JUMP JUMPDEST DUP1 DUP5 MSTORE SWAP4 PUSH1 0x1 DUP2 AND SWAP1 DUP2 ISZERO PUSH2 0x108C JUMPI POP PUSH1 0x1 EQ PUSH2 0x1045 JUMPI JUMPDEST POP PUSH2 0xF9D SWAP3 POP SUB DUP4 PUSH2 0xE58 JUMP JUMPDEST SWAP1 POP PUSH1 0x0 SWAP3 SWAP2 SWAP3 MSTORE PUSH1 0x20 PUSH1 0x0 KECCAK256 SWAP1 PUSH1 0x0 SWAP2 JUMPDEST DUP2 DUP4 LT PUSH2 0x1070 JUMPI POP POP SWAP1 PUSH1 0x20 PUSH2 0xF9D SWAP3 DUP3 ADD ADD CODESIZE PUSH2 0x1038 JUMP JUMPDEST PUSH1 0x20 SWAP2 SWAP4 POP DUP1 PUSH1 0x1 SWAP2 SLOAD DUP4 DUP6 DUP10 ADD ADD MSTORE ADD SWAP2 ADD SWAP1 SWAP2 DUP5 SWAP3 PUSH2 0x1057 JUMP JUMPDEST SWAP1 POP PUSH1 0x20 SWAP3 POP PUSH2 0xF9D SWAP5 SWAP2 POP PUSH1 0xFF NOT AND DUP3 DUP5 ADD MSTORE ISZERO ISZERO PUSH1 0x5 SHL DUP3 ADD ADD CODESIZE PUSH2 0x1038 JUMP JUMPDEST PUSH1 0x1 PUSH1 0x1 PUSH1 0xA0 SHL SUB SWAP1 SWAP2 AND SWAP2 SWAP1 DUP3 ISZERO PUSH2 0x1244 JUMPI PUSH1 0x0 DUP3 DUP2 MSTORE PUSH1 0x2 PUSH1 0x20 MSTORE PUSH1 0x40 DUP2 KECCAK256 SLOAD PUSH1 0x1 PUSH1 0x1 PUSH1 0xA0 SHL SUB AND SWAP4 DUP4 SWAP2 DUP6 SWAP1 CALLER ISZERO ISZERO DUP1 PUSH2 0x11AC JUMPI JUMPDEST POP PUSH32 0xDDF252AD1BE2C89B69C2B068FC378DAA952BA7F163C4A11628F55A4DF523B3EF SWAP1 DUP3 PUSH2 0x1177 JUMPI JUMPDEST DUP4 DUP2 MSTORE PUSH1 0x3 PUSH1 0x20 MSTORE PUSH1 0x40 DUP2 KECCAK256 PUSH1 0x1 DUP2 SLOAD ADD SWAP1 SSTORE DUP5 DUP2 MSTORE PUSH1 0x2 PUSH1 0x20 MSTORE PUSH1 0x40 DUP2 KECCAK256 DUP5 PUSH12 0xFFFFFFFFFFFFFFFFFFFFFFFF PUSH1 0xA0 SHL DUP3 SLOAD AND OR SWAP1 SSTORE DUP1 LOG4 PUSH1 0x1 PUSH1 0x1 PUSH1 0xA0 SHL SUB AND DUP1 DUP4 SUB PUSH2 0x115D JUMPI POP POP POP JUMP JUMPDEST PUSH4 0x64283D7B PUSH1 0xE0 SHL PUSH1 0x0 MSTORE PUSH1 0x4 MSTORE PUSH1 0x24 MSTORE PUSH1 0x44 MSTORE PUSH1 0x64 PUSH1 0x0 REVERT JUMPDEST PUSH1 0x0 DUP6 DUP2 MSTORE PUSH1 0x4 PUSH1 0x20 MSTORE PUSH1 0x40 SWAP1 KECCAK256 DUP1 SLOAD PUSH1 0x1 PUSH1 0x1 PUSH1 0xA0 SHL SUB NOT AND SWAP1 SSTORE DUP3 DUP2 MSTORE PUSH1 0x3 PUSH1 0x20 MSTORE PUSH1 0x40 DUP2 KECCAK256 DUP1 SLOAD PUSH1 0x0 NOT ADD SWAP1 SSTORE PUSH2 0x1110 JUMP JUMPDEST SWAP2 POP SWAP2 SWAP3 POP DUP1 PUSH2 0x11F5 JUMPI JUMPDEST ISZERO PUSH2 0x11C6 JUMPI SWAP1 DUP5 DUP5 SWAP3 CODESIZE PUSH2 0x10E7 JUMP JUMPDEST DUP4 SWAP1 DUP6 PUSH2 0x11DF JUMPI PUSH1 0x24 SWAP2 PUSH4 0x7E273289 PUSH1 0xE0 SHL DUP3 MSTORE PUSH1 0x4 MSTORE REVERT JUMPDEST PUSH1 0x44 SWAP2 PUSH4 0x177E802F PUSH1 0xE0 SHL DUP3 MSTORE CALLER PUSH1 0x4 MSTORE PUSH1 0x24 MSTORE REVERT JUMPDEST POP CALLER DUP6 EQ DUP1 ISZERO PUSH2 0x1223 JUMPI JUMPDEST DUP1 PUSH2 0x11B7 JUMPI POP DUP4 DUP2 MSTORE PUSH1 0x4 PUSH1 0x20 MSTORE PUSH1 0x40 DUP2 KECCAK256 SLOAD PUSH1 0x1 PUSH1 0x1 PUSH1 0xA0 SHL SUB AND CALLER EQ PUSH2 0x11B7 JUMP JUMPDEST POP DUP5 DUP2 MSTORE PUSH1 0x5 PUSH1 0x20 SWAP1 DUP2 MSTORE PUSH1 0x40 DUP1 DUP4 KECCAK256 CALLER DUP5 MSTORE SWAP1 SWAP2 MSTORE DUP2 KECCAK256 SLOAD PUSH1 0xFF AND PUSH2 0x1200 JUMP JUMPDEST PUSH4 0x32505749 PUSH1 0xE1 SHL PUSH1 0x0 MSTORE PUSH1 0x0 PUSH1 0x4 MSTORE PUSH1 0x24 PUSH1 0x0 REVERT JUMPDEST RETURNDATASIZE ISZERO PUSH2 0x1285 JUMPI RETURNDATASIZE SWAP1 PUSH2 0x126B DUP3 PUSH2 0xE7A JUMP JUMPDEST SWAP2 PUSH2 0x1279 PUSH1 0x40 MLOAD SWAP4 DUP5 PUSH2 0xE58 JUMP JUMPDEST DUP3 MSTORE RETURNDATASIZE PUSH1 0x0 PUSH1 0x20 DUP5 ADD RETURNDATACOPY JUMP JUMPDEST PUSH1 0x60 SWAP1 JUMP JUMPDEST ISZERO PUSH2 0x1291 JUMPI JUMP JUMPDEST PUSH1 0x40 MLOAD PUSH3 0x461BCD PUSH1 0xE5 SHL DUP2 MSTORE PUSH1 0x20 PUSH1 0x4 DUP3 ADD MSTORE PUSH1 0x12 PUSH1 0x24 DUP3 ADD MSTORE PUSH18 0x13585E081CDD5C1C1B1E481C995858DA1959 PUSH1 0x72 SHL PUSH1 0x44 DUP3 ADD MSTORE PUSH1 0x64 SWAP1 REVERT JUMPDEST PUSH1 0x0 NOT DUP2 EQ PUSH2 0x12DA JUMPI PUSH1 0x1 ADD SWAP1 JUMP JUMPDEST PUSH4 0x4E487B71 PUSH1 0xE0 SHL PUSH1 0x0 MSTORE PUSH1 0x11 PUSH1 0x4 MSTORE PUSH1 0x24 PUSH1 0x0 REVERT JUMPDEST SWAP1 PUSH1 0xA SLOAD DUP1 PUSH2 0x132C JUMPI JUMPDEST POP PUSH2 0xEE8 SWAP1 PUSH1 0x9 SLOAD DUP1 PUSH2 0x1319 JUMPI POP PUSH2 0xA73 PUSH1 0x8 SLOAD DUP1 SWAP5 PUSH2 0xA6B DUP3 PUSH2 0x12CB JUMP JUMPDEST PUSH2 0x1326 SWAP1 PUSH1 0x8 SLOAD LT PUSH2 0x128A JUMP JUMPDEST CODESIZE PUSH2 0xA59 JUMP JUMPDEST CALLVALUE LT PUSH2 0x1338 JUMPI CODESIZE PUSH2 0x12FA JUMP JUMPDEST PUSH1 0x40 MLOAD PUSH3 0x461BCD PUSH1 0xE5 SHL DUP2 MSTORE PUSH1 0x20 PUSH1 0x4 DUP3 ADD MSTORE PUSH1 0x14 PUSH1 0x24 DUP3 ADD MSTORE PUSH20 0x125B9CDD59999A58DA595B9D081C185E5B595B9D PUSH1 0x62 SHL PUSH1 0x44 DUP3 ADD MSTORE PUSH1 0x64 SWAP1 REVERT JUMPDEST PUSH1 0x0 DUP2 DUP2 MSTORE PUSH1 0x2 PUSH1 0x20 MSTORE PUSH1 0x40 SWAP1 KECCAK256 SLOAD PUSH1 0x1 PUSH1 0x1 PUSH1 0xA0 SHL SUB AND SWAP1 DUP2 ISZERO PUSH2 0x1397 JUMPI POP SWAP1 JUMP JUMPDEST PUSH4 0x7E273289 PUSH1 0xE0 SHL PUSH1 0x0 MSTORE PUSH1 0x4 MSTORE PUSH1 0x24 PUSH1 0x0 REVERT JUMPDEST PUSH1 0x0 DUP2 DUP2 MSTORE PUSH1 0x2 PUSH1 0x20 MSTORE PUSH1 0x40 SWAP1 KECCAK256 SLOAD PUSH1 0x1 PUSH1 0x1 PUSH1 0xA0 SHL SUB SWAP1 DUP2 AND SWAP3 AND DUP1 ISZERO ISZERO DUP1 PUSH2 0x1453 JUMPI JUMPDEST POP POP DUP2 PUSH2 0x141C JUMPI JUMPDEST PUSH1 0x0 DUP2 DUP2 MSTORE PUSH1 0x2 PUSH1 0x20 MSTORE PUSH1 0x40 DUP2 KECCAK256 DUP1 SLOAD PUSH1 0x1 PUSH1 0x1 PUSH1 0xA0 SHL SUB NOT AND SWAP1 SSTORE DUP3 PUSH32 0xDDF252AD1BE2C89B69C2B068FC378DAA952BA7F163C4A11628F55A4DF523B3EF DUP3 DUP1 LOG4 SWAP1 JUMP JUMPDEST PUSH1 0x0 DUP2 DUP2 MSTORE PUSH1 0x4 PUSH1 0x20 MSTORE PUSH1 0x40 SWAP1 KECCAK256 DUP1 SLOAD PUSH1 0x1 PUSH1 0x1 PUSH1 0xA0 SHL SUB NOT AND SWAP1 SSTORE DUP2 PUSH1 0x0 MSTORE PUSH1 0x3 PUSH1 0x20 MSTORE PUSH1 0x40 PUSH1 0x0 KECCAK256 PUSH1 0x0 NOT DUP2 SLOAD ADD SWAP1 SSTORE PUSH2 0x13D8 JUMP JUMPDEST DUP1 PUSH2 0x1495 JUMPI JUMPDEST ISZERO PUSH2 0x1464 JUMPI DUP1 PUSH2 0x13D0 JUMP JUMPDEST DUP3 PUSH2 0x147E JUMPI POP PUSH4 0x7E273289 PUSH1 0xE0 SHL PUSH1 0x0 MSTORE PUSH1 0x4 MSTORE PUSH1 0x24 PUSH1 0x0 REVERT JUMPDEST PUSH4 0x177E802F PUSH1 0xE0 SHL PUSH1 0x0 MSTORE PUSH1 0x4 MSTORE PUSH1 0x24 MSTORE PUSH1 0x44 PUSH1 0x0 REVERT JUMPDEST POP DUP1 DUP4 EQ DUP1 ISZERO PUSH2 0x14C5 JUMPI JUMPDEST DUP1 PUSH2 0x1459 JUMPI POP PUSH1 0x0 DUP3 DUP2 MSTORE PUSH1 0x4 PUSH1 0x20 MSTORE PUSH1 0x40 SWAP1 KECCAK256 SLOAD PUSH1 0x1 PUSH1 0x1 PUSH1 0xA0 SHL SUB AND DUP2 EQ PUSH2 0x1459 JUMP JUMPDEST POP DUP3 PUSH1 0x0 MSTORE PUSH1 0x5 PUSH1 0x20 MSTORE PUSH1 0x40 PUSH1 0x0 KECCAK256 DUP2 PUSH1 0x0 MSTORE PUSH1 0x20 MSTORE PUSH1 0xFF PUSH1 0x40 PUSH1 0x0 KECCAK256 SLOAD AND PUSH2 0x14A0 JUMP JUMPDEST PUSH1 0x7 SLOAD PUSH1 0x1 PUSH1 0x1 PUSH1 0xA0 SHL SUB AND CALLER SUB PUSH2 0x14FD JUMPI JUMP JUMPDEST PUSH4 0x118CDAA7 PUSH1 0xE0 SHL PUSH1 0x0 MSTORE CALLER PUSH1 0x4 MSTORE PUSH1 0x24 PUSH1 0x0 REVERT JUMPDEST SWAP1 PUSH1 0x20 SWAP1 PUSH1 0x40 MLOAD SWAP1 PUSH2 0x1524 DUP4 DUP4 PUSH2 0xE58 JUMP JUMPDEST PUSH1 0x0 DUP3 MSTORE PUSH1 0x1 PUSH1 0x1 PUSH1 0xA0 SHL SUB DUP5 AND SWAP4 DUP5 ISZERO PUSH2 0x1244 JUMPI PUSH1 0x0 DUP3 DUP2 MSTORE PUSH1 0x2 DUP6 MSTORE PUSH1 0x1 DUP1 PUSH1 0xA0 SHL SUB PUSH1 0x40 DUP3 KECCAK256 SLOAD AND DUP4 DUP8 DUP3 PUSH32 0xDDF252AD1BE2C89B69C2B068FC378DAA952BA7F163C4A11628F55A4DF523B3EF DUP2 ISZERO ISZERO SWAP6 DUP7 PUSH2 0x16D0 JUMPI JUMPDEST DUP4 DUP2 MSTORE PUSH1 0x3 DUP12 MSTORE PUSH1 0x40 DUP1 DUP3 KECCAK256 DUP1 SLOAD PUSH1 0x1 ADD SWAP1 SSTORE DUP6 DUP3 MSTORE PUSH1 0x2 DUP13 MSTORE DUP2 KECCAK256 DUP1 SLOAD PUSH1 0x1 PUSH1 0x1 PUSH1 0xA0 SHL SUB NOT AND DUP6 OR SWAP1 SSTORE DUP1 LOG4 POP PUSH2 0x16BA JUMPI EXTCODESIZE PUSH2 0x15BC JUMPI JUMPDEST POP POP POP POP JUMP JUMPDEST SWAP2 PUSH2 0x15FA SWAP2 DUP2 SWAP5 SWAP6 SWAP4 PUSH1 0x40 MLOAD SWAP4 DUP5 SWAP3 DUP4 SWAP3 PUSH4 0xA85BD01 PUSH1 0xE1 SHL DUP5 MSTORE CALLER PUSH1 0x4 DUP6 ADD MSTORE PUSH1 0x0 PUSH1 0x24 DUP6 ADD MSTORE PUSH1 0x44 DUP5 ADD MSTORE PUSH1 0x80 PUSH1 0x64 DUP5 ADD MSTORE PUSH1 0x84 DUP4 ADD SWAP1 PUSH2 0xDCD JUMP JUMPDEST SUB DUP2 PUSH1 0x0 DUP9 GAS CALL DUP1 SWAP2 PUSH1 0x0 SWAP2 PUSH2 0x1675 JUMPI JUMPDEST POP SWAP1 PUSH2 0x163C JUMPI POP POP PUSH2 0x161B PUSH2 0x125A JUMP JUMPDEST DUP1 MLOAD SWAP2 SWAP1 DUP3 PUSH2 0x1639 JUMPI DUP4 PUSH4 0x32505749 PUSH1 0xE1 SHL PUSH1 0x0 MSTORE PUSH1 0x4 MSTORE PUSH1 0x24 PUSH1 0x0 REVERT JUMPDEST ADD REVERT JUMPDEST SWAP1 SWAP3 SWAP2 POP PUSH1 0x1 PUSH1 0x1 PUSH1 0xE0 SHL SUB NOT AND PUSH4 0x757A42FF PUSH1 0xE1 SHL ADD PUSH2 0x1661 JUMPI POP CODESIZE DUP1 DUP1 DUP1 PUSH2 0x15B6 JUMP JUMPDEST PUSH4 0x32505749 PUSH1 0xE1 SHL PUSH1 0x0 MSTORE PUSH1 0x4 MSTORE PUSH1 0x24 PUSH1 0x0 REVERT JUMPDEST DUP5 DUP2 DUP2 RETURNDATASIZE DUP4 GT PUSH2 0x16B3 JUMPI JUMPDEST PUSH2 0x168A DUP2 DUP4 PUSH2 0xE58 JUMP JUMPDEST DUP2 ADD SUB SLT PUSH2 0x16AF JUMPI MLOAD SWAP1 PUSH1 0x1 PUSH1 0x1 PUSH1 0xE0 SHL SUB NOT DUP3 AND DUP3 SUB PUSH2 0x16AC JUMPI POP CODESIZE PUSH2 0x160B JUMP JUMPDEST DUP1 REVERT JUMPDEST POP DUP1 REVERT JUMPDEST POP RETURNDATASIZE PUSH2 0x1680 JUMP JUMPDEST PUSH4 0x39E35637 PUSH1 0xE1 SHL PUSH1 0x0 MSTORE PUSH1 0x0 PUSH1 0x4 MSTORE PUSH1 0x24 PUSH1 0x0 REVERT JUMPDEST PUSH1 0x0 DUP6 DUP2 MSTORE PUSH1 0x4 PUSH1 0x20 MSTORE PUSH1 0x40 SWAP1 KECCAK256 DUP1 SLOAD PUSH1 0x1 PUSH1 0x1 PUSH1 0xA0 SHL SUB NOT AND SWAP1 SSTORE DUP3 DUP2 MSTORE PUSH1 0x3 DUP12 MSTORE PUSH1 0x40 DUP2 KECCAK256 DUP1 SLOAD PUSH1 0x0 NOT ADD SWAP1 SSTORE PUSH2 0x157D JUMP JUMPDEST SWAP2 SWAP1 SWAP2 DUP1 PUSH1 0x0 MSTORE PUSH1 0x6 PUSH1 0x20 MSTORE PUSH1 0x40 PUSH1 0x0 KECCAK256 DUP4 MLOAD PUSH8 0xFFFFFFFFFFFFFFFF DUP2 GT PUSH2 0x46D JUMPI PUSH2 0x1730 DUP3 SLOAD PUSH2 0xF2B JUMP JUMPDEST PUSH1 0x1F DUP2 GT PUSH2 0x182E JUMPI JUMPDEST POP PUSH1 0x20 PUSH1 0x1F DUP3 GT PUSH1 0x1 EQ PUSH2 0x17A2 JUMPI SWAP1 DUP1 PUSH1 0x20 SWAP5 SWAP4 SWAP3 PUSH32 0xF8E1A15ABA9398E019F0B49DF1A4FDE98EE17AE345CB5F6B5E2C27F5033E8CE7 SWAP7 SWAP8 PUSH1 0x0 SWAP3 PUSH2 0x1797 JUMPI JUMPDEST POP POP DUP2 PUSH1 0x1 SHL SWAP2 PUSH1 0x0 NOT SWAP1 PUSH1 0x3 SHL SHR NOT AND OR SWAP1 SSTORE JUMPDEST PUSH1 0x40 MLOAD SWAP1 DUP2 MSTORE LOG1 JUMP JUMPDEST ADD MLOAD SWAP1 POP CODESIZE DUP1 PUSH2 0x1779 JUMP JUMPDEST PUSH1 0x1F NOT DUP3 AND SWAP6 DUP4 PUSH1 0x0 MSTORE DUP2 PUSH1 0x0 KECCAK256 SWAP7 PUSH1 0x0 JUMPDEST DUP2 DUP2 LT PUSH2 0x1816 JUMPI POP SWAP7 PUSH1 0x1 SWAP3 DUP5 SWAP3 PUSH1 0x20 SWAP8 SWAP7 SWAP6 PUSH32 0xF8E1A15ABA9398E019F0B49DF1A4FDE98EE17AE345CB5F6B5E2C27F5033E8CE7 SWAP10 SWAP11 LT PUSH2 0x17FD JUMPI JUMPDEST POP POP POP DUP2 SHL ADD SWAP1 SSTORE PUSH2 0x178E JUMP JUMPDEST ADD MLOAD PUSH1 0x0 NOT PUSH1 0xF8 DUP5 PUSH1 0x3 SHL AND SHR NOT AND SWAP1 SSTORE CODESIZE DUP1 DUP1 PUSH2 0x17F0 JUMP JUMPDEST DUP4 DUP4 ADD MLOAD DUP10 SSTORE PUSH1 0x1 SWAP1 SWAP9 ADD SWAP8 PUSH1 0x20 SWAP4 DUP5 ADD SWAP4 ADD PUSH2 0x17B4 JUMP JUMPDEST DUP3 PUSH1 0x0 MSTORE PUSH1 0x20 PUSH1 0x0 KECCAK256 PUSH1 0x1F DUP4 ADD PUSH1 0x5 SHR DUP2 ADD SWAP2 PUSH1 0x20 DUP5 LT PUSH2 0x186C JUMPI JUMPDEST PUSH1 0x1F ADD PUSH1 0x5 SHR ADD SWAP1 JUMPDEST DUP2 DUP2 LT PUSH2 0x1860 JUMPI POP PUSH2 0x1739 JUMP JUMPDEST PUSH1 0x0 DUP2 SSTORE PUSH1 0x1 ADD PUSH2 0x1853 JUMP JUMPDEST SWAP1 SWAP2 POP DUP2 SWAP1 PUSH2 0x184A JUMP JUMPDEST DUP3 EXTCODESIZE PUSH2 0x1884 JUMPI JUMPDEST POP POP POP POP POP JUMP JUMPDEST PUSH1 0x40 MLOAD PUSH4 0xA85BD01 PUSH1 0xE1 SHL DUP2 MSTORE PUSH1 0x1 PUSH1 0x1 PUSH1 0xA0 SHL SUB SWAP2 DUP3 AND PUSH1 0x4 DUP3 ADD MSTORE SWAP2 DUP2 AND PUSH1 0x24 DUP4 ADD MSTORE PUSH1 0x44 DUP3 ADD SWAP4 SWAP1 SWAP4 MSTORE PUSH1 0x80 PUSH1 0x64 DUP3 ADD MSTORE SWAP2 AND SWAP2 PUSH1 0x20 SWAP1 DUP3 SWAP1 DUP2 SWAP1 PUSH2 0x18D0 SWAP1 PUSH1 0x84 DUP4 ADD SWAP1 PUSH2 0xDCD JUMP JUMPDEST SUB DUP2 PUSH1 0x0 DUP7 GAS CALL DUP1 SWAP2 PUSH1 0x0 SWAP2 PUSH2 0x1934 JUMPI JUMPDEST POP SWAP1 PUSH2 0x1912 JUMPI POP PUSH2 0x18F0 PUSH2 0x125A JUMP JUMPDEST DUP1 MLOAD SWAP1 DUP2 PUSH2 0x190D JUMPI DUP3 PUSH4 0x32505749 PUSH1 0xE1 SHL PUSH1 0x0 MSTORE PUSH1 0x4 MSTORE PUSH1 0x24 PUSH1 0x0 REVERT JUMPDEST PUSH1 0x20 ADD REVERT JUMPDEST PUSH1 0x1 PUSH1 0x1 PUSH1 0xE0 SHL SUB NOT AND PUSH4 0x757A42FF PUSH1 0xE1 SHL ADD PUSH2 0x1661 JUMPI POP CODESIZE DUP1 DUP1 DUP1 DUP1 PUSH2 0x187D JUMP JUMPDEST PUSH1 0x20 DUP2 RETURNDATASIZE PUSH1 0x20 GT PUSH2 0x196F JUMPI JUMPDEST DUP2 PUSH2 0x194D PUSH1 0x20 SWAP4 DUP4 PUSH2 0xE58 JUMP JUMPDEST DUP2 ADD SUB SLT PUSH2 0x16AF JUMPI MLOAD SWAP1 PUSH1 0x1 PUSH1 0x1 PUSH1 0xE0 SHL SUB NOT DUP3 AND DUP3 SUB PUSH2 0x16AC JUMPI POP CODESIZE PUSH2 0x18E1 JUMP JUMPDEST RETURNDATASIZE SWAP2 POP PUSH2 0x1940 JUMP JUMPDEST PUSH2 0xF9D SWAP1 SWAP3 SWAP2 SWAP3 PUSH1 0x20 PUSH1 0x40 MLOAD SWAP5 DUP3 PUSH2 0x1998 DUP8 SWAP5 MLOAD DUP1 SWAP3 DUP6 DUP1 DUP9 ADD SWAP2 ADD PUSH2 0xDAA JUMP JUMPDEST DUP4 ADD PUSH2 0x19AC DUP3 MLOAD DUP1 SWAP4 DUP6 DUP1 DUP6 ADD SWAP2 ADD PUSH2 0xDAA JUMP JUMPDEST ADD ADD SUB PUSH1 0x1F NOT DUP2 ADD DUP5 MSTORE DUP4 PUSH2 0xE58 JUMP JUMPDEST PUSH2 0x19C5 DUP2 PUSH2 0x1374 JUMP JUMPDEST POP DUP1 PUSH1 0x0 MSTORE PUSH1 0x6 PUSH1 0x20 MSTORE PUSH2 0x19DC PUSH1 0x40 PUSH1 0x0 KECCAK256 PUSH2 0x100C JUMP JUMPDEST PUSH2 0x19E4 PUSH2 0xF65 JUMP JUMPDEST DUP1 MLOAD ISZERO PUSH2 0x1BAE JUMPI DUP2 MLOAD PUSH2 0x1BA4 JUMPI POP POP PUSH2 0x19FC DUP2 PUSH2 0x1374 JUMP JUMPDEST POP PUSH2 0x1A05 PUSH2 0xF65 JUMP JUMPDEST DUP1 MLOAD SWAP1 SWAP2 SWAP1 PUSH1 0x0 SWAP1 ISZERO PUSH2 0x1B8D JUMPI POP DUP1 DUP2 PUSH1 0x0 SWAP3 PUSH19 0x184F03E93FF9F4DAA797ED6E38ED64BF6A1F01 PUSH1 0x40 SHL DUP2 LT ISZERO PUSH2 0x1B67 JUMPI JUMPDEST POP DUP1 PUSH14 0x4EE2D6D415B85ACEF8100000000 PUSH1 0xA SWAP3 LT ISZERO PUSH2 0x1B4C JUMPI JUMPDEST PUSH7 0x2386F26FC10000 DUP2 LT ISZERO PUSH2 0x1B38 JUMPI JUMPDEST PUSH4 0x5F5E100 DUP2 LT ISZERO PUSH2 0x1B27 JUMPI JUMPDEST PUSH2 0x2710 DUP2 LT ISZERO PUSH2 0x1B18 JUMPI JUMPDEST PUSH1 0x64 DUP2 LT ISZERO PUSH2 0x1B0A JUMPI JUMPDEST LT ISZERO PUSH2 0x1AFF JUMPI JUMPDEST PUSH1 0xA PUSH1 0x21 PUSH1 0x1 DUP5 ADD SWAP4 PUSH2 0x1A9D DUP6 PUSH2 0xE7A JUMP JUMPDEST SWAP5 PUSH2 0x1AAB PUSH1 0x40 MLOAD SWAP7 DUP8 PUSH2 0xE58 JUMP JUMPDEST DUP1 DUP7 MSTORE PUSH2 0x1ABA PUSH1 0x1F NOT SWAP2 PUSH2 0xE7A JUMP JUMPDEST ADD CALLDATASIZE PUSH1 0x20 DUP8 ADD CALLDATACOPY DUP5 ADD ADD JUMPDEST PUSH1 0x0 NOT ADD SWAP2 PUSH16 0x181899199A1A9B1B9C1CB0B131B232B3 PUSH1 0x81 SHL DUP3 DUP3 MOD BYTE DUP4 MSTORE8 DIV SWAP1 DUP2 ISZERO PUSH2 0x1AF4 JUMPI PUSH1 0xA SWAP1 PUSH2 0x1AC5 JUMP JUMPDEST POP POP PUSH2 0xEE8 SWAP2 PUSH2 0x1977 JUMP JUMPDEST PUSH1 0x1 SWAP1 SWAP2 ADD SWAP1 PUSH2 0x1A8B JUMP JUMPDEST PUSH1 0x64 PUSH1 0x2 SWAP2 DIV SWAP4 ADD SWAP3 PUSH2 0x1A84 JUMP JUMPDEST PUSH2 0x2710 PUSH1 0x4 SWAP2 DIV SWAP4 ADD SWAP3 PUSH2 0x1A7A JUMP JUMPDEST PUSH4 0x5F5E100 PUSH1 0x8 SWAP2 DIV SWAP4 ADD SWAP3 PUSH2 0x1A6F JUMP JUMPDEST PUSH7 0x2386F26FC10000 PUSH1 0x10 SWAP2 DIV SWAP4 ADD SWAP3 PUSH2 0x1A62 JUMP JUMPDEST PUSH14 0x4EE2D6D415B85ACEF8100000000 PUSH1 0x20 SWAP2 DIV SWAP4 ADD SWAP3 PUSH2 0x1A52 JUMP JUMPDEST PUSH1 0x40 SWAP4 POP PUSH19 0x184F03E93FF9F4DAA797ED6E38ED64BF6A1F01 PUSH1 0x40 SHL SWAP1 DIV SWAP1 POP PUSH1 0xA PUSH2 0x1A37 JUMP JUMPDEST SWAP2 POP POP PUSH1 0x40 MLOAD SWAP1 PUSH2 0x1B9F PUSH1 0x20 DUP4 PUSH2 0xE58 JUMP JUMPDEST DUP2 MSTORE SWAP1 JUMP JUMPDEST PUSH2 0xEE8 SWAP3 POP PUSH2 0x1977 JUMP JUMPDEST POP SWAP1 POP SWAP1 JUMP INVALID ADD PUSH22 0xB7A638427703F0DBE7BB9BBF987A2551717B34E79F33 0xB5 0xB1 STOP DUP14 0x1F LOG0 SAR 0xB9 LOG2 PUSH5 0x6970667358 0x22 SLT KECCAK256 MSTORE8 PUSH7 0xA1C8C5484E7DD0 0xD3 0xB4 PUSH24 0xF85A3E3B58118883C9324DB2A72DD790FE218C2E64736F6C PUSH4 0x4300081C STOP CALLER "},"methodIdentifiers":{"approve(address,uint256)":"095ea7b3","balanceOf(address)":"70a08231","burn(uint256)":"42966c68","getApproved(uint256)":"081812fc","isApprovedForAll(address,address)":"e985e9c5","maxSupply()":"d5abeb01","mint(address,string)":"d0def521","mintPrice()":"6817c76c","mintWithAI(address,string,string,bytes32)":"e1e152a9","name()":"06fdde03","owner()":"8da5cb5b","ownerMint(address,string)":"41d5b803","ownerOf(uint256)":"6352211e","renounceOwnership()":"715018a6","safeTransferFrom(address,address,uint256)":"42842e0e","safeTransferFrom(address,address,uint256,bytes)":"b88d4fde","setApprovalForAll(address,bool)":"a22cb465","setBaseURI(string)":"55f804b3","setMintPrice(uint256)":"f4a0a528","supportsInterface(bytes4)":"01ffc9a7","symbol()":"95d89b41","tokenModelHash(uint256)":"c70a7ee2","tokenPrompts(uint256)":"57349a96","tokenURI(uint256)":"c87b56dd","totalMinted()":"a2309ff8","transferFrom(address,address,uint256)":"23b872dd","transferOwnership(address)":"f2fde38b","withdraw()":"3ccfd60b"}}}}}