{"src/templates/ZkMLVerifier.sol":{"ZkMLVerifier":{"abi":[{"inputs":[],"stateMutability":"nonpayable","type":"constructor"},{"inputs":[{"internalType":"address","name":"owner","type":"address"}],"name":"OwnableInvalidOwner","type":"error"},{"inputs":[{"internalType":"address","name":"account","type":"address"}],"name":"OwnableUnauthorizedAccount","type":"error"},{"anonymous":false,"inputs":[{"indexed":false,"internalType":"bool","name":"enabled","type":"bool"}],"name":"DevModeToggled","type":"event"},{"anonymous":false,"inputs":[{"indexed":true,"internalType":"bytes32","name":"imageId","type":"bytes32"}],"name":"ImageRevoked","type":"event"},{"anonymous":false,"inputs":[{"indexed":true,"internalType":"bytes32","name":"imageId","type":"bytes32"}],"name":"ImageTrusted","type":"event"},{"anonymous":false,"inputs":[{"indexed":true,"internalType":"address","name":"previousOwner","type":"address"},{"indexed":true,"internalType":"address","name":"newOwner","type":"address"}],"name":"OwnershipTransferred","type":"event"},{"anonymous":false,"inputs":[{"indexed":true,"internalType":"bytes32","name":"proofHash","type":"bytes32"},{"indexed":true,"internalType":"bytes32","name":"imageId","type":"bytes32"},{"indexed":false,"internalType":"address","name":"verifier","type":"address"},{"indexed":false,"internalType":"bool","name":"isValid","type":"bool"}],"name":"ProofVerified","type":"event"},{"inputs":[],"name":"PROOF_TYPE_DEV","outputs":[{"internalType":"uint8","name":"","type":"uint8"}],"stateMutability":"view","type":"function"},{"inputs":[],"name":"PROOF_TYPE_GROTH16","outputs":[{"internalType":"uint8","name":"","type":"uint8"}],"stateMutability":"view","type":"function"},{"inputs":[],"name":"PROOF_TYPE_STARK","outputs":[{"internalType":"uint8","name":"","type":"uint8"}],"stateMutability":"view","type":"function"},{"inputs":[],"name":"RISC0_VERIFIER","outputs":[{"internalType":"address","name":"","type":"address"}],"stateMutability":"view","type":"function"},{"inputs":[{"internalType":"bytes32","name":"imageId","type":"bytes32"},{"internalType":"bytes","name":"journal","type":"bytes"},{"internalType":"bytes","name":"seal","type":"bytes"}],"name":"computeProofHash","outputs":[{"internalType":"bytes32","name":"","type":"bytes32"}],"stateMutability":"pure","type":"function"},{"inputs":[],"name":"devModeEnabled","outputs":[{"internalType":"bool","name":"","type":"bool"}],"stateMutability":"view","type":"function"},{"inputs":[{"internalType":"bytes32","name":"proofHash","type":"bytes32"}],"name":"getVerification","outputs":[{"components":[{"internalType":"bytes32","name":"imageId","type":"bytes32"},{"internalType":"bytes32","name":"journalHash","type":"bytes32"},{"internalType":"address","name":"verifier","type":"address"},{"internalType":"uint256","name":"verifiedAt","type":"uint256"},{"internalType":"bool","name":"isValid","type":"bool"}],"internalType":"struct ZkMLVerifier.VerifiedProof","name":"","type":"tuple"}],"stateMutability":"view","type":"function"},{"inputs":[{"internalType":"bytes32","name":"imageId","type":"bytes32"}],"name":"isImageTrusted","outputs":[{"internalType":"bool","name":"","type":"bool"}],"stateMutability":"view","type":"function"},{"inputs":[],"name":"maxProofAge","outputs":[{"internalType":"uint256","name":"","type":"uint256"}],"stateMutability":"view","type":"function"},{"inputs":[],"name":"owner","outputs":[{"internalType":"address","name":"","type":"address"}],"stateMutability":"view","type":"function"},{"inputs":[],"name":"renounceOwnership","outputs":[],"stateMutability":"nonpayable","type":"function"},{"inputs":[{"internalType":"bytes32","name":"imageId","type":"bytes32"}],"name":"revokeImage","outputs":[],"stateMutability":"nonpayable","type":"function"},{"inputs":[{"internalType":"bool","name":"enabled","type":"bool"}],"name":"setDevMode","outputs":[],"stateMutability":"nonpayable","type":"function"},{"inputs":[{"internalType":"uint256","name":"age","type":"uint256"}],"name":"setMaxProofAge","outputs":[],"stateMutability":"nonpayable","type":"function"},{"inputs":[{"internalType":"uint256[4]","name":"gamma","type":"uint256[4]"}],"name":"setVerificationKeyGamma","outputs":[],"stateMutability":"nonpayable","type":"function"},{"inputs":[{"internalType":"address","name":"newOwner","type":"address"}],"name":"transferOwnership","outputs":[],"stateMutability":"nonpayable","type":"function"},{"inputs":[{"internalType":"bytes32","name":"imageId","type":"bytes32"}],"name":"trustImage","outputs":[],"stateMutability":"nonpayable","type":"function"},{"inputs":[{"internalType":"bytes32[]","name":"imageIds","type":"bytes32[]"}],"name":"trustImages","outputs":[],"stateMutability":"nonpayable","type":"function"},{"inputs":[{"internalType":"bytes32","name":"","type":"bytes32"}],"name":"trustedImages","outputs":[{"internalType":"bool","name":"","type":"bool"}],"stateMutability":"view","type":"function"},{"inputs":[{"internalType":"bytes32","name":"","type":"bytes32"}],"name":"verifiedProofs","outputs":[{"internalType":"bytes32","name":"imageId","type":"bytes32"},{"internalType":"bytes32","name":"journalHash","type":"bytes32"},{"internalType":"address","name":"verifier","type":"address"},{"internalType":"uint256","name":"verifiedAt","type":"uint256"},{"internalType":"bool","name":"isValid","type":"bool"}],"stateMutability":"view","type":"function"},{"inputs":[{"internalType":"bytes","name":"proofData","type":"bytes"}],"name":"verify","outputs":[{"internalType":"bool","name":"isValid","type":"bool"},{"internalType":"bytes32","name":"journalHash","type":"bytes32"}],"stateMutability":"nonpayable","type":"function"},{"inputs":[{"internalType":"bytes32","name":"imageId","type":"bytes32"},{"internalType":"bytes","name":"journal","type":"bytes"},{"internalType":"bytes","name":"seal","type":"bytes"},{"internalType":"uint8","name":"proofType","type":"uint8"}],"name":"verifyProof","outputs":[{"internalType":"bool","name":"isValid","type":"bool"},{"internalType":"bytes32","name":"journalHash","type":"bytes32"}],"stateMutability":"nonpayable","type":"function"},{"inputs":[{"internalType":"uint256","name":"","type":"uint256"}],"name":"vkGamma","outputs":[{"internalType":"uint256","name":"","type":"uint256"}],"stateMutability":"view","type":"function"},{"inputs":[],"name":"vkGammaSet","outputs":[{"internalType":"bool","name":"","type":"bool"}],"stateMutability":"view","type":"function"}],"evm":{"bytecode":{"linkReferences":{},"object":"60808060405234608857331560725760008054336001600160a01b0319821681178355916001600160a01b03909116907f8be0079c531659141344cd1fd0a4f28419497f9722a3daafe3b4186f6b6457e09080a3600160ff196008541617600855610e10600955611365908161008e8239f35b631e4fbdf760e01b600052600060045260246000fd5b600080fdfe6080604052600436101561001257600080fd5b60003560e01c806306e647cb14610192578063176d80c41461018d5780631bddcb19146101885780632c5d696c14610183578063391e6c991461017e57806343f9405f146101795780634ee9f2d1146101795780635bb4aefd146101745780636f5b6b201461016f578063715018a61461016a5780637c897da2146101655780637d4ba4fe146101605780638728f94f1461015b5780638bbd8fe5146101565780638da5cb5b146101515780638e760afe1461014c57806394ef244014610147578063965a572b14610142578063a9c6dc031461013d578063b0e00c2114610138578063e2dd674514610133578063f08b224c1461012e578063f2fde38b146101295763fa592e3f1461012457600080fd5b6109bd565b610930565b610913565b610874565b6107f9565b6107a0565b610744565b61066f565b61058e565b610565565b6104ae565b61045e565b61043b565b6103d9565b610376565b610358565b61033c565b61030b565b6102e5565b6102c9565b61025e565b6101e8565b346101e35760803660031901126101e357366084116101e3576101b3610b67565b600460005b600481106101cf576005805460ff19166001179055005b6001906020833593019281830155016101b8565b600080fd5b346101e35760203660031901126101e357600435600052600760205260a06040600020805490600181015490600180851b0360028201541660ff60046003840154930154169260405194855260208501526040840152606083015215156080820152f35b60209060031901126101e35760043590565b346101e35761026c3661024c565b610274610b67565b603c811015806102bc575b1561028957600955005b60405162461bcd60e51b815260206004820152600b60248201526a496e76616c69642061676560a81b6044820152606490fd5b506201518081111561027f565b346101e35760003660031901126101e357602060405160028152f35b346101e3576102f33661024c565b60048110156101e35760209060010154604051908152f35b346101e35760203660031901126101e3576004356000526006602052602060ff604060002054166040519015158152f35b346101e35760003660031901126101e357602060405160018152f35b346101e35760003660031901126101e3576020600954604051908152f35b346101e35760003660031901126101e35761038f610b67565b600080546001600160a01b0319811682556001600160a01b03167f8be0079c531659141344cd1fd0a4f28419497f9722a3daafe3b4186f6b6457e08280a3005b801515036101e357565b346101e35760203660031901126101e3577fc337d6f45251ec06523ece720baa068bf4eb00bfaa211df09f4e981072170d916020600435610419816103cf565b610421610b67565b151560ff196008541660ff821617600855604051908152a1005b346101e35760003660031901126101e357602060ff600854166040519015158152f35b346101e35760003660031901126101e357602060ff600554166040519015158152f35b9181601f840112156101e3578235916001600160401b0383116101e357602083818601950101116101e357565b346101e35760603660031901126101e3576004356024356001600160401b0381116101e3576104e1903690600401610481565b60443592916001600160401b0384116101e357606061054e9161051861050e610561973690600401610481565b9290953691610a77565b6020815191012090806040519586936020850198895260408501528484013781016000838201520301601f198101835282610a2a565b5190206040519081529081906020820190565b0390f35b346101e35760003660031901126101e3576000546040516001600160a01b039091168152602090f35b346101e35760203660031901126101e3576004356001600160401b0381116101e3576105be903690600401610481565b8101906020818303126101e3578035906001600160401b0382116101e35701906080828203126101e357604051906105f5826109ef565b8235825260208301356001600160401b0381116101e35781610618918501610aae565b60208301526040830135906001600160401b0382116101e357836106466060926106519461065b9701610aae565b604085015201610866565b6060820152610c18565b604080519215158352602083019190915290f35b346101e35760203660031901126101e3576004356000608060405161069381610a0f565b82815282602082015282604082015282606082015201526000526007602052610561604060002060ff6004604051926106cb84610a0f565b805484526001810154602085015260018060a01b03600282015416604085015260038101546060850152015416151560808201526040519182918291909160808060a0830194805184526020810151602085015260018060a01b0360408201511660408501526060810151606085015201511515910152565b346101e35760203660031901126101e357600435610760610b67565b8060005260066020526040600020600160ff198254161790557fcea99d9506d3ccdf6d16ab2b79aa5ed14f544362f4a09cc5a8e3da196c75fea2600080a2005b346101e35760203660031901126101e3576004356107bc610b67565b806000526006602052604060002060ff1981541690557fae0cbfb48e0a7a904df88eec3a0bbe8eb58ba3558a9d53f7d94208b2c1c7279e600080a2005b346101e35760203660031901126101e3576004356001600160401b0381116101e357366023820112156101e35780600401356001600160401b0381116101e3573660248260051b840101116101e35760246108549201610acc565b005b6064359060ff821682036101e357565b359060ff821682036101e357565b346101e35760803660031901126101e3576004356024356001600160401b0381116101e3576108a7903690600401610481565b9190604435926001600160401b0384116101e35761090360ff926108f76108d561065b973690600401610481565b9190926108e0610856565b95604051986108ee8a6109ef565b89523691610a77565b60208701523691610a77565b6040840152166060820152610c18565b346101e35760003660031901126101e357602060405161cafe8152f35b346101e35760203660031901126101e3576004356001600160a01b038116908190036101e35761095e610b67565b80156109a757600080546001600160a01b03198116831782556001600160a01b0316907f8be0079c531659141344cd1fd0a4f28419497f9722a3daafe3b4186f6b6457e09080a3005b631e4fbdf760e01b600052600060045260246000fd5b346101e35760003660031901126101e357602060405160008152f35b634e487b7160e01b600052604160045260246000fd5b608081019081106001600160401b03821117610a0a57604052565b6109d9565b60a081019081106001600160401b03821117610a0a57604052565b90601f801991011681019081106001600160401b03821117610a0a57604052565b60405190610a5a60a083610a2a565b565b6001600160401b038111610a0a57601f01601f191660200190565b929192610a8382610a5c565b91610a916040519384610a2a565b8294818452818301116101e3578281602093846000960137010152565b9080601f830112156101e357816020610ac993359101610a77565b90565b90610ad5610b67565b60005b818110610ae457505050565b80610af26001928486610b41565b35600052600660205260406000208260ff19825416179055610b15818486610b41565b357fcea99d9506d3ccdf6d16ab2b79aa5ed14f544362f4a09cc5a8e3da196c75fea2600080a201610ad8565b9190811015610b515760051b0190565b634e487b7160e01b600052603260045260246000fd5b6000546001600160a01b03163303610b7b57565b63118cdaa760e01b6000523360045260246000fd5b15610b9757565b60405162461bcd60e51b8152602060048201526011602482015270125b5859d9481b9bdd081d1c9d5cdd1959607a1b6044820152606490fd5b60005b838110610be35750506000910152565b8181015183820152602001610bd3565b90916040939282526020820152610c138251809360208685019101610bd0565b010190565b90610c40610c3b610c3484516000526006602052604060002090565b5460ff1690565b610b90565b602082015160208151910120918051610c6c610c7a604084015160405192839188602084019687610bf3565b03601f198101835282610a2a565b5190206003610c93826000526007602052604060002090565b0154610df35760ff610ca9606084015160ff1690565b1660028103610d945750610cbc82611167565b915b610d598151610ccb610a4b565b908152602081018790523360408201524260608201528415156080820152610cfd846000526007602052604060002090565b90608060049180518455602081015160018501556002840160018060a01b036040830151166bffffffffffffffffffffffff60a01b825416179055606081015160038501550151151591019060ff801983541691151516179055565b516040805133815284151560208201529192917fa63c74b8ff7c46b7e5e577ea9c355079dbf254f2beb1d31043043a51e507e3f29190a39190565b80610da95750610da382611069565b91610cbe565b600103610db957610da382610f11565b60405162461bcd60e51b8152602060048201526012602482015271556e6b6e6f776e2070726f6f66207479706560701b6044820152606490fd5b610e169150610e0e6004916000526007602052604060002090565b015460ff1690565b9190565b604090815191610e2a8184610a2a565b368337565b604051906020610e2a8184610a2a565b6040908151610e4e8382610a2a565b809260005b818110610e5f57505050565b6020908251610e6e8482610a2a565b833682378185015201610e53565b906000905b60028210610e8e57505050565b6020806001928551815201930191019091610e81565b906000905b60028210610eb657505050565b6020604082610ec86001948751610e7c565b01930191019091610ea9565b92610f0290610ef8610f0d94610eee876101809996610e7c565b6040870190610ea4565b60c0850190610e7c565b610100830190610ea4565b0190565b61010060408201515110610fce576020610f29610e1a565b91610faa610f8e610f38610e3f565b946101006060610f46610e1a565b9501518681015183526040810151878401526080810151885260608101518789015260c0810151604089015260a0810151606089015260e081015186520151858501526111f8565b93610c6c610f9a6112b8565b6040519485938785019889610ed4565b610fb2610e2f565b928391519060085afa9081610fc5575090565b60019150511490565b50600090565b90602091610fed81518092818552858086019101610bd0565b601f01601f1916010190565b9161101690610ac994928452606060208501526060840190610fd4565b916040818403910152610fd4565b3d1561104f573d9061103582610a5c565b916110436040519384610a2a565b82523d6000602084013e565b606090565b908160209103126101e35751610ac9816103cf565b604081015160208151106111485761cafe3b6110ea5760405162461bcd60e51b815260206004820152603c60248201527f535441524b206e6f7420737570706f727465643a207573652047726f7468313660448201527f206f7220446576206d6f6465206f6e20506f6c6b61646f7420487562000000006064820152608490fd5b816000929161110e6020859451930151610c6c604051938492602084019687610ff9565b519061cafe5afa61111d611024565b9015801561113d575b610fce5780602080610ac993518301019101611054565b506020815110611126565b5050600090565b602092918152610c1382518093858085019101610bd0565b60ff60085416156111bf5760408151610c6c6111916020850151845192839160208301958661114f565b51902091015160208151910120906040516111b881610c6c60208201948560209181520190565b5190201490565b60405162461bcd60e51b815260206004820152601160248201527011195d881b5bd91948191a5cd8589b1959607a1b6044820152606490fd5b6040908180516112088282610a2a565b369037815191808301918383106001600160401b03841117610a0a577f30644e72e131a029b85045b68181585d97816a916871ca8d3c208c16d87cfd479260209252805184520151067f30644e72e131a029b85045b68181585d97816a916871ca8d3c208c16d87cfd47037f30644e72e131a029b85045b68181585d97816a916871ca8d3c208c16d87cfd4781116112a257602082015290565b634e487b7160e01b600052601160045260246000fd5b6112c0610e3f565b9060ff60055416156112f7576001548251526002548251602090810191909152600354818401805191909152600454905190910152565b60405162461bcd60e51b815260206004820152601060248201526f1592c819d85b5b58481b9bdd081cd95d60821b6044820152606490fdfea2646970667358221220b46cc7d0b6016526a0a956cff11c3e373b7dae85b010d81b4881fb5b9d40f09964736f6c634300081c0033","opcodes":"PUSH1 0x80 DUP1 PUSH1 0x40 MSTORE CALLVALUE PUSH1 0x88 JUMPI CALLER ISZERO PUSH1 0x72 JUMPI PUSH1 0x0 DUP1 SLOAD CALLER PUSH1 0x1 PUSH1 0x1 PUSH1 0xA0 SHL SUB NOT DUP3 AND DUP2 OR DUP4 SSTORE SWAP2 PUSH1 0x1 PUSH1 0x1 PUSH1 0xA0 SHL SUB SWAP1 SWAP2 AND SWAP1 PUSH32 0x8BE0079C531659141344CD1FD0A4F28419497F9722A3DAAFE3B4186F6B6457E0 SWAP1 DUP1 LOG3 PUSH1 0x1 PUSH1 0xFF NOT PUSH1 0x8 SLOAD AND OR PUSH1 0x8 SSTORE PUSH2 0xE10 PUSH1 0x9 SSTORE PUSH2 0x1365 SWAP1 DUP2 PUSH2 0x8E DUP3 CODECOPY RETURN JUMPDEST PUSH4 0x1E4FBDF7 PUSH1 0xE0 SHL PUSH1 0x0 MSTORE PUSH1 0x0 PUSH1 0x4 MSTORE PUSH1 0x24 PUSH1 0x0 REVERT JUMPDEST PUSH1 0x0 DUP1 REVERT INVALID PUSH1 0x80 PUSH1 0x40 MSTORE PUSH1 0x4 CALLDATASIZE LT ISZERO PUSH2 0x12 JUMPI PUSH1 0x0 DUP1 REVERT JUMPDEST PUSH1 0x0 CALLDATALOAD PUSH1 0xE0 SHR DUP1 PUSH4 0x6E647CB EQ PUSH2 0x192 JUMPI DUP1 PUSH4 0x176D80C4 EQ PUSH2 0x18D JUMPI DUP1 PUSH4 0x1BDDCB19 EQ PUSH2 0x188 JUMPI DUP1 PUSH4 0x2C5D696C EQ PUSH2 0x183 JUMPI DUP1 PUSH4 0x391E6C99 EQ PUSH2 0x17E JUMPI DUP1 PUSH4 0x43F9405F EQ PUSH2 0x179 JUMPI DUP1 PUSH4 0x4EE9F2D1 EQ PUSH2 0x179 JUMPI DUP1 PUSH4 0x5BB4AEFD EQ PUSH2 0x174 JUMPI DUP1 PUSH4 0x6F5B6B20 EQ PUSH2 0x16F JUMPI DUP1 PUSH4 0x715018A6 EQ PUSH2 0x16A JUMPI DUP1 PUSH4 0x7C897DA2 EQ PUSH2 0x165 JUMPI DUP1 PUSH4 0x7D4BA4FE EQ PUSH2 0x160 JUMPI DUP1 PUSH4 0x8728F94F EQ PUSH2 0x15B JUMPI DUP1 PUSH4 0x8BBD8FE5 EQ PUSH2 0x156 JUMPI DUP1 PUSH4 0x8DA5CB5B EQ PUSH2 0x151 JUMPI DUP1 PUSH4 0x8E760AFE EQ PUSH2 0x14C JUMPI DUP1 PUSH4 0x94EF2440 EQ PUSH2 0x147 JUMPI DUP1 PUSH4 0x965A572B EQ PUSH2 0x142 JUMPI DUP1 PUSH4 0xA9C6DC03 EQ PUSH2 0x13D JUMPI DUP1 PUSH4 0xB0E00C21 EQ PUSH2 0x138 JUMPI DUP1 PUSH4 0xE2DD6745 EQ PUSH2 0x133 JUMPI DUP1 PUSH4 0xF08B224C EQ PUSH2 0x12E JUMPI DUP1 PUSH4 0xF2FDE38B EQ PUSH2 0x129 JUMPI PUSH4 0xFA592E3F EQ PUSH2 0x124 JUMPI PUSH1 0x0 DUP1 REVERT JUMPDEST PUSH2 0x9BD JUMP JUMPDEST PUSH2 0x930 JUMP JUMPDEST PUSH2 0x913 JUMP JUMPDEST PUSH2 0x874 JUMP JUMPDEST PUSH2 0x7F9 JUMP JUMPDEST PUSH2 0x7A0 JUMP JUMPDEST PUSH2 0x744 JUMP JUMPDEST PUSH2 0x66F JUMP JUMPDEST PUSH2 0x58E JUMP JUMPDEST PUSH2 0x565 JUMP JUMPDEST PUSH2 0x4AE JUMP JUMPDEST PUSH2 0x45E JUMP JUMPDEST PUSH2 0x43B JUMP JUMPDEST PUSH2 0x3D9 JUMP JUMPDEST PUSH2 0x376 JUMP JUMPDEST PUSH2 0x358 JUMP JUMPDEST PUSH2 0x33C JUMP JUMPDEST PUSH2 0x30B JUMP JUMPDEST PUSH2 0x2E5 JUMP JUMPDEST PUSH2 0x2C9 JUMP JUMPDEST PUSH2 0x25E JUMP JUMPDEST PUSH2 0x1E8 JUMP JUMPDEST CALLVALUE PUSH2 0x1E3 JUMPI PUSH1 0x80 CALLDATASIZE PUSH1 0x3 NOT ADD SLT PUSH2 0x1E3 JUMPI CALLDATASIZE PUSH1 0x84 GT PUSH2 0x1E3 JUMPI PUSH2 0x1B3 PUSH2 0xB67 JUMP JUMPDEST PUSH1 0x4 PUSH1 0x0 JUMPDEST PUSH1 0x4 DUP2 LT PUSH2 0x1CF JUMPI PUSH1 0x5 DUP1 SLOAD PUSH1 0xFF NOT AND PUSH1 0x1 OR SWAP1 SSTORE STOP JUMPDEST PUSH1 0x1 SWAP1 PUSH1 0x20 DUP4 CALLDATALOAD SWAP4 ADD SWAP3 DUP2 DUP4 ADD SSTORE ADD PUSH2 0x1B8 JUMP JUMPDEST PUSH1 0x0 DUP1 REVERT JUMPDEST CALLVALUE PUSH2 0x1E3 JUMPI PUSH1 0x20 CALLDATASIZE PUSH1 0x3 NOT ADD SLT PUSH2 0x1E3 JUMPI PUSH1 0x4 CALLDATALOAD PUSH1 0x0 MSTORE PUSH1 0x7 PUSH1 0x20 MSTORE PUSH1 0xA0 PUSH1 0x40 PUSH1 0x0 KECCAK256 DUP1 SLOAD SWAP1 PUSH1 0x1 DUP2 ADD SLOAD SWAP1 PUSH1 0x1 DUP1 DUP6 SHL SUB PUSH1 0x2 DUP3 ADD SLOAD AND PUSH1 0xFF PUSH1 0x4 PUSH1 0x3 DUP5 ADD SLOAD SWAP4 ADD SLOAD AND SWAP3 PUSH1 0x40 MLOAD SWAP5 DUP6 MSTORE PUSH1 0x20 DUP6 ADD MSTORE PUSH1 0x40 DUP5 ADD MSTORE PUSH1 0x60 DUP4 ADD MSTORE ISZERO ISZERO PUSH1 0x80 DUP3 ADD MSTORE RETURN JUMPDEST PUSH1 0x20 SWAP1 PUSH1 0x3 NOT ADD SLT PUSH2 0x1E3 JUMPI PUSH1 0x4 CALLDATALOAD SWAP1 JUMP JUMPDEST CALLVALUE PUSH2 0x1E3 JUMPI PUSH2 0x26C CALLDATASIZE PUSH2 0x24C JUMP JUMPDEST PUSH2 0x274 PUSH2 0xB67 JUMP JUMPDEST PUSH1 0x3C DUP2 LT ISZERO DUP1 PUSH2 0x2BC JUMPI JUMPDEST ISZERO PUSH2 0x289 JUMPI PUSH1 0x9 SSTORE STOP JUMPDEST PUSH1 0x40 MLOAD PUSH3 0x461BCD PUSH1 0xE5 SHL DUP2 MSTORE PUSH1 0x20 PUSH1 0x4 DUP3 ADD MSTORE PUSH1 0xB PUSH1 0x24 DUP3 ADD MSTORE PUSH11 0x496E76616C696420616765 PUSH1 0xA8 SHL PUSH1 0x44 DUP3 ADD MSTORE PUSH1 0x64 SWAP1 REVERT JUMPDEST POP PUSH3 0x15180 DUP2 GT ISZERO PUSH2 0x27F JUMP JUMPDEST CALLVALUE PUSH2 0x1E3 JUMPI PUSH1 0x0 CALLDATASIZE PUSH1 0x3 NOT ADD SLT PUSH2 0x1E3 JUMPI PUSH1 0x20 PUSH1 0x40 MLOAD PUSH1 0x2 DUP2 MSTORE RETURN JUMPDEST CALLVALUE PUSH2 0x1E3 JUMPI PUSH2 0x2F3 CALLDATASIZE PUSH2 0x24C JUMP JUMPDEST PUSH1 0x4 DUP2 LT ISZERO PUSH2 0x1E3 JUMPI PUSH1 0x20 SWAP1 PUSH1 0x1 ADD SLOAD PUSH1 0x40 MLOAD SWAP1 DUP2 MSTORE RETURN JUMPDEST CALLVALUE PUSH2 0x1E3 JUMPI PUSH1 0x20 CALLDATASIZE PUSH1 0x3 NOT ADD SLT PUSH2 0x1E3 JUMPI PUSH1 0x4 CALLDATALOAD PUSH1 0x0 MSTORE PUSH1 0x6 PUSH1 0x20 MSTORE PUSH1 0x20 PUSH1 0xFF PUSH1 0x40 PUSH1 0x0 KECCAK256 SLOAD AND PUSH1 0x40 MLOAD SWAP1 ISZERO ISZERO DUP2 MSTORE RETURN JUMPDEST CALLVALUE PUSH2 0x1E3 JUMPI PUSH1 0x0 CALLDATASIZE PUSH1 0x3 NOT ADD SLT PUSH2 0x1E3 JUMPI PUSH1 0x20 PUSH1 0x40 MLOAD PUSH1 0x1 DUP2 MSTORE RETURN JUMPDEST CALLVALUE PUSH2 0x1E3 JUMPI PUSH1 0x0 CALLDATASIZE PUSH1 0x3 NOT ADD SLT PUSH2 0x1E3 JUMPI PUSH1 0x20 PUSH1 0x9 SLOAD PUSH1 0x40 MLOAD SWAP1 DUP2 MSTORE RETURN JUMPDEST CALLVALUE PUSH2 0x1E3 JUMPI PUSH1 0x0 CALLDATASIZE PUSH1 0x3 NOT ADD SLT PUSH2 0x1E3 JUMPI PUSH2 0x38F PUSH2 0xB67 JUMP JUMPDEST PUSH1 0x0 DUP1 SLOAD PUSH1 0x1 PUSH1 0x1 PUSH1 0xA0 SHL SUB NOT DUP2 AND DUP3 SSTORE PUSH1 0x1 PUSH1 0x1 PUSH1 0xA0 SHL SUB AND PUSH32 0x8BE0079C531659141344CD1FD0A4F28419497F9722A3DAAFE3B4186F6B6457E0 DUP3 DUP1 LOG3 STOP JUMPDEST DUP1 ISZERO ISZERO SUB PUSH2 0x1E3 JUMPI JUMP JUMPDEST CALLVALUE PUSH2 0x1E3 JUMPI PUSH1 0x20 CALLDATASIZE PUSH1 0x3 NOT ADD SLT PUSH2 0x1E3 JUMPI PUSH32 0xC337D6F45251EC06523ECE720BAA068BF4EB00BFAA211DF09F4E981072170D91 PUSH1 0x20 PUSH1 0x4 CALLDATALOAD PUSH2 0x419 DUP2 PUSH2 0x3CF JUMP JUMPDEST PUSH2 0x421 PUSH2 0xB67 JUMP JUMPDEST ISZERO ISZERO PUSH1 0xFF NOT PUSH1 0x8 SLOAD AND PUSH1 0xFF DUP3 AND OR PUSH1 0x8 SSTORE PUSH1 0x40 MLOAD SWAP1 DUP2 MSTORE LOG1 STOP JUMPDEST CALLVALUE PUSH2 0x1E3 JUMPI PUSH1 0x0 CALLDATASIZE PUSH1 0x3 NOT ADD SLT PUSH2 0x1E3 JUMPI PUSH1 0x20 PUSH1 0xFF PUSH1 0x8 SLOAD AND PUSH1 0x40 MLOAD SWAP1 ISZERO ISZERO DUP2 MSTORE RETURN JUMPDEST CALLVALUE PUSH2 0x1E3 JUMPI PUSH1 0x0 CALLDATASIZE PUSH1 0x3 NOT ADD SLT PUSH2 0x1E3 JUMPI PUSH1 0x20 PUSH1 0xFF PUSH1 0x5 SLOAD AND PUSH1 0x40 MLOAD SWAP1 ISZERO ISZERO DUP2 MSTORE RETURN JUMPDEST SWAP2 DUP2 PUSH1 0x1F DUP5 ADD SLT ISZERO PUSH2 0x1E3 JUMPI DUP3 CALLDATALOAD SWAP2 PUSH1 0x1 PUSH1 0x1 PUSH1 0x40 SHL SUB DUP4 GT PUSH2 0x1E3 JUMPI PUSH1 0x20 DUP4 DUP2 DUP7 ADD SWAP6 ADD ADD GT PUSH2 0x1E3 JUMPI JUMP JUMPDEST CALLVALUE PUSH2 0x1E3 JUMPI PUSH1 0x60 CALLDATASIZE PUSH1 0x3 NOT ADD SLT PUSH2 0x1E3 JUMPI PUSH1 0x4 CALLDATALOAD PUSH1 0x24 CALLDATALOAD PUSH1 0x1 PUSH1 0x1 PUSH1 0x40 SHL SUB DUP2 GT PUSH2 0x1E3 JUMPI PUSH2 0x4E1 SWAP1 CALLDATASIZE SWAP1 PUSH1 0x4 ADD PUSH2 0x481 JUMP JUMPDEST PUSH1 0x44 CALLDATALOAD SWAP3 SWAP2 PUSH1 0x1 PUSH1 0x1 PUSH1 0x40 SHL SUB DUP5 GT PUSH2 0x1E3 JUMPI PUSH1 0x60 PUSH2 0x54E SWAP2 PUSH2 0x518 PUSH2 0x50E PUSH2 0x561 SWAP8 CALLDATASIZE SWAP1 PUSH1 0x4 ADD PUSH2 0x481 JUMP JUMPDEST SWAP3 SWAP1 SWAP6 CALLDATASIZE SWAP2 PUSH2 0xA77 JUMP JUMPDEST PUSH1 0x20 DUP2 MLOAD SWAP2 ADD KECCAK256 SWAP1 DUP1 PUSH1 0x40 MLOAD SWAP6 DUP7 SWAP4 PUSH1 0x20 DUP6 ADD SWAP9 DUP10 MSTORE PUSH1 0x40 DUP6 ADD MSTORE DUP5 DUP5 ADD CALLDATACOPY DUP2 ADD PUSH1 0x0 DUP4 DUP3 ADD MSTORE SUB ADD PUSH1 0x1F NOT DUP2 ADD DUP4 MSTORE DUP3 PUSH2 0xA2A JUMP JUMPDEST MLOAD SWAP1 KECCAK256 PUSH1 0x40 MLOAD SWAP1 DUP2 MSTORE SWAP1 DUP2 SWAP1 PUSH1 0x20 DUP3 ADD SWAP1 JUMP JUMPDEST SUB SWAP1 RETURN JUMPDEST CALLVALUE PUSH2 0x1E3 JUMPI PUSH1 0x0 CALLDATASIZE PUSH1 0x3 NOT ADD SLT PUSH2 0x1E3 JUMPI PUSH1 0x0 SLOAD PUSH1 0x40 MLOAD PUSH1 0x1 PUSH1 0x1 PUSH1 0xA0 SHL SUB SWAP1 SWAP2 AND DUP2 MSTORE PUSH1 0x20 SWAP1 RETURN JUMPDEST CALLVALUE PUSH2 0x1E3 JUMPI PUSH1 0x20 CALLDATASIZE PUSH1 0x3 NOT ADD SLT PUSH2 0x1E3 JUMPI PUSH1 0x4 CALLDATALOAD PUSH1 0x1 PUSH1 0x1 PUSH1 0x40 SHL SUB DUP2 GT PUSH2 0x1E3 JUMPI PUSH2 0x5BE SWAP1 CALLDATASIZE SWAP1 PUSH1 0x4 ADD PUSH2 0x481 JUMP JUMPDEST DUP2 ADD SWAP1 PUSH1 0x20 DUP2 DUP4 SUB SLT PUSH2 0x1E3 JUMPI DUP1 CALLDATALOAD SWAP1 PUSH1 0x1 PUSH1 0x1 PUSH1 0x40 SHL SUB DUP3 GT PUSH2 0x1E3 JUMPI ADD SWAP1 PUSH1 0x80 DUP3 DUP3 SUB SLT PUSH2 0x1E3 JUMPI PUSH1 0x40 MLOAD SWAP1 PUSH2 0x5F5 DUP3 PUSH2 0x9EF JUMP JUMPDEST DUP3 CALLDATALOAD DUP3 MSTORE PUSH1 0x20 DUP4 ADD CALLDATALOAD PUSH1 0x1 PUSH1 0x1 PUSH1 0x40 SHL SUB DUP2 GT PUSH2 0x1E3 JUMPI DUP2 PUSH2 0x618 SWAP2 DUP6 ADD PUSH2 0xAAE JUMP JUMPDEST PUSH1 0x20 DUP4 ADD MSTORE PUSH1 0x40 DUP4 ADD CALLDATALOAD SWAP1 PUSH1 0x1 PUSH1 0x1 PUSH1 0x40 SHL SUB DUP3 GT PUSH2 0x1E3 JUMPI DUP4 PUSH2 0x646 PUSH1 0x60 SWAP3 PUSH2 0x651 SWAP5 PUSH2 0x65B SWAP8 ADD PUSH2 0xAAE JUMP JUMPDEST PUSH1 0x40 DUP6 ADD MSTORE ADD PUSH2 0x866 JUMP JUMPDEST PUSH1 0x60 DUP3 ADD MSTORE PUSH2 0xC18 JUMP JUMPDEST PUSH1 0x40 DUP1 MLOAD SWAP3 ISZERO ISZERO DUP4 MSTORE PUSH1 0x20 DUP4 ADD SWAP2 SWAP1 SWAP2 MSTORE SWAP1 RETURN JUMPDEST CALLVALUE PUSH2 0x1E3 JUMPI PUSH1 0x20 CALLDATASIZE PUSH1 0x3 NOT ADD SLT PUSH2 0x1E3 JUMPI PUSH1 0x4 CALLDATALOAD PUSH1 0x0 PUSH1 0x80 PUSH1 0x40 MLOAD PUSH2 0x693 DUP2 PUSH2 0xA0F JUMP JUMPDEST DUP3 DUP2 MSTORE DUP3 PUSH1 0x20 DUP3 ADD MSTORE DUP3 PUSH1 0x40 DUP3 ADD MSTORE DUP3 PUSH1 0x60 DUP3 ADD MSTORE ADD MSTORE PUSH1 0x0 MSTORE PUSH1 0x7 PUSH1 0x20 MSTORE PUSH2 0x561 PUSH1 0x40 PUSH1 0x0 KECCAK256 PUSH1 0xFF PUSH1 0x4 PUSH1 0x40 MLOAD SWAP3 PUSH2 0x6CB DUP5 PUSH2 0xA0F JUMP JUMPDEST DUP1 SLOAD DUP5 MSTORE PUSH1 0x1 DUP2 ADD SLOAD PUSH1 0x20 DUP6 ADD MSTORE PUSH1 0x1 DUP1 PUSH1 0xA0 SHL SUB PUSH1 0x2 DUP3 ADD SLOAD AND PUSH1 0x40 DUP6 ADD MSTORE PUSH1 0x3 DUP2 ADD SLOAD PUSH1 0x60 DUP6 ADD MSTORE ADD SLOAD AND ISZERO ISZERO PUSH1 0x80 DUP3 ADD MSTORE PUSH1 0x40 MLOAD SWAP2 DUP3 SWAP2 DUP3 SWAP2 SWAP1 SWAP2 PUSH1 0x80 DUP1 PUSH1 0xA0 DUP4 ADD SWAP5 DUP1 MLOAD DUP5 MSTORE PUSH1 0x20 DUP2 ADD MLOAD PUSH1 0x20 DUP6 ADD MSTORE PUSH1 0x1 DUP1 PUSH1 0xA0 SHL SUB PUSH1 0x40 DUP3 ADD MLOAD AND PUSH1 0x40 DUP6 ADD MSTORE PUSH1 0x60 DUP2 ADD MLOAD PUSH1 0x60 DUP6 ADD MSTORE ADD MLOAD ISZERO ISZERO SWAP2 ADD MSTORE JUMP JUMPDEST CALLVALUE PUSH2 0x1E3 JUMPI PUSH1 0x20 CALLDATASIZE PUSH1 0x3 NOT ADD SLT PUSH2 0x1E3 JUMPI PUSH1 0x4 CALLDATALOAD PUSH2 0x760 PUSH2 0xB67 JUMP JUMPDEST DUP1 PUSH1 0x0 MSTORE PUSH1 0x6 PUSH1 0x20 MSTORE PUSH1 0x40 PUSH1 0x0 KECCAK256 PUSH1 0x1 PUSH1 0xFF NOT DUP3 SLOAD AND OR SWAP1 SSTORE PUSH32 0xCEA99D9506D3CCDF6D16AB2B79AA5ED14F544362F4A09CC5A8E3DA196C75FEA2 PUSH1 0x0 DUP1 LOG2 STOP JUMPDEST CALLVALUE PUSH2 0x1E3 JUMPI PUSH1 0x20 CALLDATASIZE PUSH1 0x3 NOT ADD SLT PUSH2 0x1E3 JUMPI PUSH1 0x4 CALLDATALOAD PUSH2 0x7BC PUSH2 0xB67 JUMP JUMPDEST DUP1 PUSH1 0x0 MSTORE PUSH1 0x6 PUSH1 0x20 MSTORE PUSH1 0x40 PUSH1 0x0 KECCAK256 PUSH1 0xFF NOT DUP2 SLOAD AND SWAP1 SSTORE PUSH32 0xAE0CBFB48E0A7A904DF88EEC3A0BBE8EB58BA3558A9D53F7D94208B2C1C7279E PUSH1 0x0 DUP1 LOG2 STOP JUMPDEST CALLVALUE PUSH2 0x1E3 JUMPI PUSH1 0x20 CALLDATASIZE PUSH1 0x3 NOT ADD SLT PUSH2 0x1E3 JUMPI PUSH1 0x4 CALLDATALOAD PUSH1 0x1 PUSH1 0x1 PUSH1 0x40 SHL SUB DUP2 GT PUSH2 0x1E3 JUMPI CALLDATASIZE PUSH1 0x23 DUP3 ADD SLT ISZERO PUSH2 0x1E3 JUMPI DUP1 PUSH1 0x4 ADD CALLDATALOAD PUSH1 0x1 PUSH1 0x1 PUSH1 0x40 SHL SUB DUP2 GT PUSH2 0x1E3 JUMPI CALLDATASIZE PUSH1 0x24 DUP3 PUSH1 0x5 SHL DUP5 ADD ADD GT PUSH2 0x1E3 JUMPI PUSH1 0x24 PUSH2 0x854 SWAP3 ADD PUSH2 0xACC JUMP JUMPDEST STOP JUMPDEST PUSH1 0x64 CALLDATALOAD SWAP1 PUSH1 0xFF DUP3 AND DUP3 SUB PUSH2 0x1E3 JUMPI JUMP JUMPDEST CALLDATALOAD SWAP1 PUSH1 0xFF DUP3 AND DUP3 SUB PUSH2 0x1E3 JUMPI JUMP JUMPDEST CALLVALUE PUSH2 0x1E3 JUMPI PUSH1 0x80 CALLDATASIZE PUSH1 0x3 NOT ADD SLT PUSH2 0x1E3 JUMPI PUSH1 0x4 CALLDATALOAD PUSH1 0x24 CALLDATALOAD PUSH1 0x1 PUSH1 0x1 PUSH1 0x40 SHL SUB DUP2 GT PUSH2 0x1E3 JUMPI PUSH2 0x8A7 SWAP1 CALLDATASIZE SWAP1 PUSH1 0x4 ADD PUSH2 0x481 JUMP JUMPDEST SWAP2 SWAP1 PUSH1 0x44 CALLDATALOAD SWAP3 PUSH1 0x1 PUSH1 0x1 PUSH1 0x40 SHL SUB DUP5 GT PUSH2 0x1E3 JUMPI PUSH2 0x903 PUSH1 0xFF SWAP3 PUSH2 0x8F7 PUSH2 0x8D5 PUSH2 0x65B SWAP8 CALLDATASIZE SWAP1 PUSH1 0x4 ADD PUSH2 0x481 JUMP JUMPDEST SWAP2 SWAP1 SWAP3 PUSH2 0x8E0 PUSH2 0x856 JUMP JUMPDEST SWAP6 PUSH1 0x40 MLOAD SWAP9 PUSH2 0x8EE DUP11 PUSH2 0x9EF JUMP JUMPDEST DUP10 MSTORE CALLDATASIZE SWAP2 PUSH2 0xA77 JUMP JUMPDEST PUSH1 0x20 DUP8 ADD MSTORE CALLDATASIZE SWAP2 PUSH2 0xA77 JUMP JUMPDEST PUSH1 0x40 DUP5 ADD MSTORE AND PUSH1 0x60 DUP3 ADD MSTORE PUSH2 0xC18 JUMP JUMPDEST CALLVALUE PUSH2 0x1E3 JUMPI PUSH1 0x0 CALLDATASIZE PUSH1 0x3 NOT ADD SLT PUSH2 0x1E3 JUMPI PUSH1 0x20 PUSH1 0x40 MLOAD PUSH2 0xCAFE DUP2 MSTORE RETURN JUMPDEST CALLVALUE PUSH2 0x1E3 JUMPI PUSH1 0x20 CALLDATASIZE PUSH1 0x3 NOT ADD SLT PUSH2 0x1E3 JUMPI PUSH1 0x4 CALLDATALOAD PUSH1 0x1 PUSH1 0x1 PUSH1 0xA0 SHL SUB DUP2 AND SWAP1 DUP2 SWAP1 SUB PUSH2 0x1E3 JUMPI PUSH2 0x95E PUSH2 0xB67 JUMP JUMPDEST DUP1 ISZERO PUSH2 0x9A7 JUMPI PUSH1 0x0 DUP1 SLOAD PUSH1 0x1 PUSH1 0x1 PUSH1 0xA0 SHL SUB NOT DUP2 AND DUP4 OR DUP3 SSTORE PUSH1 0x1 PUSH1 0x1 PUSH1 0xA0 SHL SUB AND SWAP1 PUSH32 0x8BE0079C531659141344CD1FD0A4F28419497F9722A3DAAFE3B4186F6B6457E0 SWAP1 DUP1 LOG3 STOP JUMPDEST PUSH4 0x1E4FBDF7 PUSH1 0xE0 SHL PUSH1 0x0 MSTORE PUSH1 0x0 PUSH1 0x4 MSTORE PUSH1 0x24 PUSH1 0x0 REVERT JUMPDEST CALLVALUE PUSH2 0x1E3 JUMPI PUSH1 0x0 CALLDATASIZE PUSH1 0x3 NOT ADD SLT PUSH2 0x1E3 JUMPI PUSH1 0x20 PUSH1 0x40 MLOAD PUSH1 0x0 DUP2 MSTORE RETURN JUMPDEST PUSH4 0x4E487B71 PUSH1 0xE0 SHL PUSH1 0x0 MSTORE PUSH1 0x41 PUSH1 0x4 MSTORE PUSH1 0x24 PUSH1 0x0 REVERT JUMPDEST PUSH1 0x80 DUP2 ADD SWAP1 DUP2 LT PUSH1 0x1 PUSH1 0x1 PUSH1 0x40 SHL SUB DUP3 GT OR PUSH2 0xA0A JUMPI PUSH1 0x40 MSTORE JUMP JUMPDEST PUSH2 0x9D9 JUMP JUMPDEST PUSH1 0xA0 DUP2 ADD SWAP1 DUP2 LT PUSH1 0x1 PUSH1 0x1 PUSH1 0x40 SHL SUB DUP3 GT OR PUSH2 0xA0A JUMPI PUSH1 0x40 MSTORE JUMP JUMPDEST SWAP1 PUSH1 0x1F DUP1 NOT SWAP2 ADD AND DUP2 ADD SWAP1 DUP2 LT PUSH1 0x1 PUSH1 0x1 PUSH1 0x40 SHL SUB DUP3 GT OR PUSH2 0xA0A JUMPI PUSH1 0x40 MSTORE JUMP JUMPDEST PUSH1 0x40 MLOAD SWAP1 PUSH2 0xA5A PUSH1 0xA0 DUP4 PUSH2 0xA2A JUMP JUMPDEST JUMP JUMPDEST PUSH1 0x1 PUSH1 0x1 PUSH1 0x40 SHL SUB DUP2 GT PUSH2 0xA0A JUMPI PUSH1 0x1F ADD PUSH1 0x1F NOT AND PUSH1 0x20 ADD SWAP1 JUMP JUMPDEST SWAP3 SWAP2 SWAP3 PUSH2 0xA83 DUP3 PUSH2 0xA5C JUMP JUMPDEST SWAP2 PUSH2 0xA91 PUSH1 0x40 MLOAD SWAP4 DUP5 PUSH2 0xA2A JUMP JUMPDEST DUP3 SWAP5 DUP2 DUP5 MSTORE DUP2 DUP4 ADD GT PUSH2 0x1E3 JUMPI DUP3 DUP2 PUSH1 0x20 SWAP4 DUP5 PUSH1 0x0 SWAP7 ADD CALLDATACOPY ADD ADD MSTORE JUMP JUMPDEST SWAP1 DUP1 PUSH1 0x1F DUP4 ADD SLT ISZERO PUSH2 0x1E3 JUMPI DUP2 PUSH1 0x20 PUSH2 0xAC9 SWAP4 CALLDATALOAD SWAP2 ADD PUSH2 0xA77 JUMP JUMPDEST SWAP1 JUMP JUMPDEST SWAP1 PUSH2 0xAD5 PUSH2 0xB67 JUMP JUMPDEST PUSH1 0x0 JUMPDEST DUP2 DUP2 LT PUSH2 0xAE4 JUMPI POP POP POP JUMP JUMPDEST DUP1 PUSH2 0xAF2 PUSH1 0x1 SWAP3 DUP5 DUP7 PUSH2 0xB41 JUMP JUMPDEST CALLDATALOAD PUSH1 0x0 MSTORE PUSH1 0x6 PUSH1 0x20 MSTORE PUSH1 0x40 PUSH1 0x0 KECCAK256 DUP3 PUSH1 0xFF NOT DUP3 SLOAD AND OR SWAP1 SSTORE PUSH2 0xB15 DUP2 DUP5 DUP7 PUSH2 0xB41 JUMP JUMPDEST CALLDATALOAD PUSH32 0xCEA99D9506D3CCDF6D16AB2B79AA5ED14F544362F4A09CC5A8E3DA196C75FEA2 PUSH1 0x0 DUP1 LOG2 ADD PUSH2 0xAD8 JUMP JUMPDEST SWAP2 SWAP1 DUP2 LT ISZERO PUSH2 0xB51 JUMPI PUSH1 0x5 SHL ADD SWAP1 JUMP JUMPDEST PUSH4 0x4E487B71 PUSH1 0xE0 SHL PUSH1 0x0 MSTORE PUSH1 0x32 PUSH1 0x4 MSTORE PUSH1 0x24 PUSH1 0x0 REVERT JUMPDEST PUSH1 0x0 SLOAD PUSH1 0x1 PUSH1 0x1 PUSH1 0xA0 SHL SUB AND CALLER SUB PUSH2 0xB7B JUMPI JUMP JUMPDEST PUSH4 0x118CDAA7 PUSH1 0xE0 SHL PUSH1 0x0 MSTORE CALLER PUSH1 0x4 MSTORE PUSH1 0x24 PUSH1 0x0 REVERT JUMPDEST ISZERO PUSH2 0xB97 JUMPI JUMP JUMPDEST PUSH1 0x40 MLOAD PUSH3 0x461BCD PUSH1 0xE5 SHL DUP2 MSTORE PUSH1 0x20 PUSH1 0x4 DUP3 ADD MSTORE PUSH1 0x11 PUSH1 0x24 DUP3 ADD MSTORE PUSH17 0x125B5859D9481B9BDD081D1C9D5CDD1959 PUSH1 0x7A SHL PUSH1 0x44 DUP3 ADD MSTORE PUSH1 0x64 SWAP1 REVERT JUMPDEST PUSH1 0x0 JUMPDEST DUP4 DUP2 LT PUSH2 0xBE3 JUMPI POP POP PUSH1 0x0 SWAP2 ADD MSTORE JUMP JUMPDEST DUP2 DUP2 ADD MLOAD DUP4 DUP3 ADD MSTORE PUSH1 0x20 ADD PUSH2 0xBD3 JUMP JUMPDEST SWAP1 SWAP2 PUSH1 0x40 SWAP4 SWAP3 DUP3 MSTORE PUSH1 0x20 DUP3 ADD MSTORE PUSH2 0xC13 DUP3 MLOAD DUP1 SWAP4 PUSH1 0x20 DUP7 DUP6 ADD SWAP2 ADD PUSH2 0xBD0 JUMP JUMPDEST ADD ADD SWAP1 JUMP JUMPDEST SWAP1 PUSH2 0xC40 PUSH2 0xC3B PUSH2 0xC34 DUP5 MLOAD PUSH1 0x0 MSTORE PUSH1 0x6 PUSH1 0x20 MSTORE PUSH1 0x40 PUSH1 0x0 KECCAK256 SWAP1 JUMP JUMPDEST SLOAD PUSH1 0xFF AND SWAP1 JUMP JUMPDEST PUSH2 0xB90 JUMP JUMPDEST PUSH1 0x20 DUP3 ADD MLOAD PUSH1 0x20 DUP2 MLOAD SWAP2 ADD KECCAK256 SWAP2 DUP1 MLOAD PUSH2 0xC6C PUSH2 0xC7A PUSH1 0x40 DUP5 ADD MLOAD PUSH1 0x40 MLOAD SWAP3 DUP4 SWAP2 DUP9 PUSH1 0x20 DUP5 ADD SWAP7 DUP8 PUSH2 0xBF3 JUMP JUMPDEST SUB PUSH1 0x1F NOT DUP2 ADD DUP4 MSTORE DUP3 PUSH2 0xA2A JUMP JUMPDEST MLOAD SWAP1 KECCAK256 PUSH1 0x3 PUSH2 0xC93 DUP3 PUSH1 0x0 MSTORE PUSH1 0x7 PUSH1 0x20 MSTORE PUSH1 0x40 PUSH1 0x0 KECCAK256 SWAP1 JUMP JUMPDEST ADD SLOAD PUSH2 0xDF3 JUMPI PUSH1 0xFF PUSH2 0xCA9 PUSH1 0x60 DUP5 ADD MLOAD PUSH1 0xFF AND SWAP1 JUMP JUMPDEST AND PUSH1 0x2 DUP2 SUB PUSH2 0xD94 JUMPI POP PUSH2 0xCBC DUP3 PUSH2 0x1167 JUMP JUMPDEST SWAP2 JUMPDEST PUSH2 0xD59 DUP2 MLOAD PUSH2 0xCCB PUSH2 0xA4B JUMP JUMPDEST SWAP1 DUP2 MSTORE PUSH1 0x20 DUP2 ADD DUP8 SWAP1 MSTORE CALLER PUSH1 0x40 DUP3 ADD MSTORE TIMESTAMP PUSH1 0x60 DUP3 ADD MSTORE DUP5 ISZERO ISZERO PUSH1 0x80 DUP3 ADD MSTORE PUSH2 0xCFD DUP5 PUSH1 0x0 MSTORE PUSH1 0x7 PUSH1 0x20 MSTORE PUSH1 0x40 PUSH1 0x0 KECCAK256 SWAP1 JUMP JUMPDEST SWAP1 PUSH1 0x80 PUSH1 0x4 SWAP2 DUP1 MLOAD DUP5 SSTORE PUSH1 0x20 DUP2 ADD MLOAD PUSH1 0x1 DUP6 ADD SSTORE PUSH1 0x2 DUP5 ADD PUSH1 0x1 DUP1 PUSH1 0xA0 SHL SUB PUSH1 0x40 DUP4 ADD MLOAD AND PUSH12 0xFFFFFFFFFFFFFFFFFFFFFFFF PUSH1 0xA0 SHL DUP3 SLOAD AND OR SWAP1 SSTORE PUSH1 0x60 DUP2 ADD MLOAD PUSH1 0x3 DUP6 ADD SSTORE ADD MLOAD ISZERO ISZERO SWAP2 ADD SWAP1 PUSH1 0xFF DUP1 NOT DUP4 SLOAD AND SWAP2 ISZERO ISZERO AND OR SWAP1 SSTORE JUMP JUMPDEST MLOAD PUSH1 0x40 DUP1 MLOAD CALLER DUP2 MSTORE DUP5 ISZERO ISZERO PUSH1 0x20 DUP3 ADD MSTORE SWAP2 SWAP3 SWAP2 PUSH32 0xA63C74B8FF7C46B7E5E577EA9C355079DBF254F2BEB1D31043043A51E507E3F2 SWAP2 SWAP1 LOG3 SWAP2 SWAP1 JUMP JUMPDEST DUP1 PUSH2 0xDA9 JUMPI POP PUSH2 0xDA3 DUP3 PUSH2 0x1069 JUMP JUMPDEST SWAP2 PUSH2 0xCBE JUMP JUMPDEST PUSH1 0x1 SUB PUSH2 0xDB9 JUMPI PUSH2 0xDA3 DUP3 PUSH2 0xF11 JUMP JUMPDEST PUSH1 0x40 MLOAD PUSH3 0x461BCD PUSH1 0xE5 SHL DUP2 MSTORE PUSH1 0x20 PUSH1 0x4 DUP3 ADD MSTORE PUSH1 0x12 PUSH1 0x24 DUP3 ADD MSTORE PUSH18 0x556E6B6E6F776E2070726F6F662074797065 PUSH1 0x70 SHL PUSH1 0x44 DUP3 ADD MSTORE PUSH1 0x64 SWAP1 REVERT JUMPDEST PUSH2 0xE16 SWAP2 POP PUSH2 0xE0E PUSH1 0x4 SWAP2 PUSH1 0x0 MSTORE PUSH1 0x7 PUSH1 0x20 MSTORE PUSH1 0x40 PUSH1 0x0 KECCAK256 SWAP1 JUMP JUMPDEST ADD SLOAD PUSH1 0xFF AND SWAP1 JUMP JUMPDEST SWAP2 SWAP1 JUMP JUMPDEST PUSH1 0x40 SWAP1 DUP2 MLOAD SWAP2 PUSH2 0xE2A DUP2 DUP5 PUSH2 0xA2A JUMP JUMPDEST CALLDATASIZE DUP4 CALLDATACOPY JUMP JUMPDEST PUSH1 0x40 MLOAD SWAP1 PUSH1 0x20 PUSH2 0xE2A DUP2 DUP5 PUSH2 0xA2A JUMP JUMPDEST PUSH1 0x40 SWAP1 DUP2 MLOAD PUSH2 0xE4E DUP4 DUP3 PUSH2 0xA2A JUMP JUMPDEST DUP1 SWAP3 PUSH1 0x0 JUMPDEST DUP2 DUP2 LT PUSH2 0xE5F JUMPI POP POP POP JUMP JUMPDEST PUSH1 0x20 SWAP1 DUP3 MLOAD PUSH2 0xE6E DUP5 DUP3 PUSH2 0xA2A JUMP JUMPDEST DUP4 CALLDATASIZE DUP3 CALLDATACOPY DUP2 DUP6 ADD MSTORE ADD PUSH2 0xE53 JUMP JUMPDEST SWAP1 PUSH1 0x0 SWAP1 JUMPDEST PUSH1 0x2 DUP3 LT PUSH2 0xE8E JUMPI POP POP POP JUMP JUMPDEST PUSH1 0x20 DUP1 PUSH1 0x1 SWAP3 DUP6 MLOAD DUP2 MSTORE ADD SWAP4 ADD SWAP2 ADD SWAP1 SWAP2 PUSH2 0xE81 JUMP JUMPDEST SWAP1 PUSH1 0x0 SWAP1 JUMPDEST PUSH1 0x2 DUP3 LT PUSH2 0xEB6 JUMPI POP POP POP JUMP JUMPDEST PUSH1 0x20 PUSH1 0x40 DUP3 PUSH2 0xEC8 PUSH1 0x1 SWAP5 DUP8 MLOAD PUSH2 0xE7C JUMP JUMPDEST ADD SWAP4 ADD SWAP2 ADD SWAP1 SWAP2 PUSH2 0xEA9 JUMP JUMPDEST SWAP3 PUSH2 0xF02 SWAP1 PUSH2 0xEF8 PUSH2 0xF0D SWAP5 PUSH2 0xEEE DUP8 PUSH2 0x180 SWAP10 SWAP7 PUSH2 0xE7C JUMP JUMPDEST PUSH1 0x40 DUP8 ADD SWAP1 PUSH2 0xEA4 JUMP JUMPDEST PUSH1 0xC0 DUP6 ADD SWAP1 PUSH2 0xE7C JUMP JUMPDEST PUSH2 0x100 DUP4 ADD SWAP1 PUSH2 0xEA4 JUMP JUMPDEST ADD SWAP1 JUMP JUMPDEST PUSH2 0x100 PUSH1 0x40 DUP3 ADD MLOAD MLOAD LT PUSH2 0xFCE JUMPI PUSH1 0x20 PUSH2 0xF29 PUSH2 0xE1A JUMP JUMPDEST SWAP2 PUSH2 0xFAA PUSH2 0xF8E PUSH2 0xF38 PUSH2 0xE3F JUMP JUMPDEST SWAP5 PUSH2 0x100 PUSH1 0x60 PUSH2 0xF46 PUSH2 0xE1A JUMP JUMPDEST SWAP6 ADD MLOAD DUP7 DUP2 ADD MLOAD DUP4 MSTORE PUSH1 0x40 DUP2 ADD MLOAD DUP8 DUP5 ADD MSTORE PUSH1 0x80 DUP2 ADD MLOAD DUP9 MSTORE PUSH1 0x60 DUP2 ADD MLOAD DUP8 DUP10 ADD MSTORE PUSH1 0xC0 DUP2 ADD MLOAD PUSH1 0x40 DUP10 ADD MSTORE PUSH1 0xA0 DUP2 ADD MLOAD PUSH1 0x60 DUP10 ADD MSTORE PUSH1 0xE0 DUP2 ADD MLOAD DUP7 MSTORE ADD MLOAD DUP6 DUP6 ADD MSTORE PUSH2 0x11F8 JUMP JUMPDEST SWAP4 PUSH2 0xC6C PUSH2 0xF9A PUSH2 0x12B8 JUMP JUMPDEST PUSH1 0x40 MLOAD SWAP5 DUP6 SWAP4 DUP8 DUP6 ADD SWAP9 DUP10 PUSH2 0xED4 JUMP JUMPDEST PUSH2 0xFB2 PUSH2 0xE2F JUMP JUMPDEST SWAP3 DUP4 SWAP2 MLOAD SWAP1 PUSH1 0x8 GAS STATICCALL SWAP1 DUP2 PUSH2 0xFC5 JUMPI POP SWAP1 JUMP JUMPDEST PUSH1 0x1 SWAP2 POP MLOAD EQ SWAP1 JUMP JUMPDEST POP PUSH1 0x0 SWAP1 JUMP JUMPDEST SWAP1 PUSH1 0x20 SWAP2 PUSH2 0xFED DUP2 MLOAD DUP1 SWAP3 DUP2 DUP6 MSTORE DUP6 DUP1 DUP7 ADD SWAP2 ADD PUSH2 0xBD0 JUMP JUMPDEST PUSH1 0x1F ADD PUSH1 0x1F NOT AND ADD ADD SWAP1 JUMP JUMPDEST SWAP2 PUSH2 0x1016 SWAP1 PUSH2 0xAC9 SWAP5 SWAP3 DUP5 MSTORE PUSH1 0x60 PUSH1 0x20 DUP6 ADD MSTORE PUSH1 0x60 DUP5 ADD SWAP1 PUSH2 0xFD4 JUMP JUMPDEST SWAP2 PUSH1 0x40 DUP2 DUP5 SUB SWAP2 ADD MSTORE PUSH2 0xFD4 JUMP JUMPDEST RETURNDATASIZE ISZERO PUSH2 0x104F JUMPI RETURNDATASIZE SWAP1 PUSH2 0x1035 DUP3 PUSH2 0xA5C JUMP JUMPDEST SWAP2 PUSH2 0x1043 PUSH1 0x40 MLOAD SWAP4 DUP5 PUSH2 0xA2A JUMP JUMPDEST DUP3 MSTORE RETURNDATASIZE PUSH1 0x0 PUSH1 0x20 DUP5 ADD RETURNDATACOPY JUMP JUMPDEST PUSH1 0x60 SWAP1 JUMP JUMPDEST SWAP1 DUP2 PUSH1 0x20 SWAP2 SUB SLT PUSH2 0x1E3 JUMPI MLOAD PUSH2 0xAC9 DUP2 PUSH2 0x3CF JUMP JUMPDEST PUSH1 0x40 DUP2 ADD MLOAD PUSH1 0x20 DUP2 MLOAD LT PUSH2 0x1148 JUMPI PUSH2 0xCAFE EXTCODESIZE PUSH2 0x10EA JUMPI PUSH1 0x40 MLOAD PUSH3 0x461BCD PUSH1 0xE5 SHL DUP2 MSTORE PUSH1 0x20 PUSH1 0x4 DUP3 ADD MSTORE PUSH1 0x3C PUSH1 0x24 DUP3 ADD MSTORE PUSH32 0x535441524B206E6F7420737570706F727465643A207573652047726F74683136 PUSH1 0x44 DUP3 ADD MSTORE PUSH32 0x206F7220446576206D6F6465206F6E20506F6C6B61646F742048756200000000 PUSH1 0x64 DUP3 ADD MSTORE PUSH1 0x84 SWAP1 REVERT JUMPDEST DUP2 PUSH1 0x0 SWAP3 SWAP2 PUSH2 0x110E PUSH1 0x20 DUP6 SWAP5 MLOAD SWAP4 ADD MLOAD PUSH2 0xC6C PUSH1 0x40 MLOAD SWAP4 DUP5 SWAP3 PUSH1 0x20 DUP5 ADD SWAP7 DUP8 PUSH2 0xFF9 JUMP JUMPDEST MLOAD SWAP1 PUSH2 0xCAFE GAS STATICCALL PUSH2 0x111D PUSH2 0x1024 JUMP JUMPDEST SWAP1 ISZERO DUP1 ISZERO PUSH2 0x113D JUMPI JUMPDEST PUSH2 0xFCE JUMPI DUP1 PUSH1 0x20 DUP1 PUSH2 0xAC9 SWAP4 MLOAD DUP4 ADD ADD SWAP2 ADD PUSH2 0x1054 JUMP JUMPDEST POP PUSH1 0x20 DUP2 MLOAD LT PUSH2 0x1126 JUMP JUMPDEST POP POP PUSH1 0x0 SWAP1 JUMP JUMPDEST PUSH1 0x20 SWAP3 SWAP2 DUP2 MSTORE PUSH2 0xC13 DUP3 MLOAD DUP1 SWAP4 DUP6 DUP1 DUP6 ADD SWAP2 ADD PUSH2 0xBD0 JUMP JUMPDEST PUSH1 0xFF PUSH1 0x8 SLOAD AND ISZERO PUSH2 0x11BF JUMPI PUSH1 0x40 DUP2 MLOAD PUSH2 0xC6C PUSH2 0x1191 PUSH1 0x20 DUP6 ADD MLOAD DUP5 MLOAD SWAP3 DUP4 SWAP2 PUSH1 0x20 DUP4 ADD SWAP6 DUP7 PUSH2 0x114F JUMP JUMPDEST MLOAD SWAP1 KECCAK256 SWAP2 ADD MLOAD PUSH1 0x20 DUP2 MLOAD SWAP2 ADD KECCAK256 SWAP1 PUSH1 0x40 MLOAD PUSH2 0x11B8 DUP2 PUSH2 0xC6C PUSH1 0x20 DUP3 ADD SWAP5 DUP6 PUSH1 0x20 SWAP2 DUP2 MSTORE ADD SWAP1 JUMP JUMPDEST MLOAD SWAP1 KECCAK256 EQ SWAP1 JUMP JUMPDEST PUSH1 0x40 MLOAD PUSH3 0x461BCD PUSH1 0xE5 SHL DUP2 MSTORE PUSH1 0x20 PUSH1 0x4 DUP3 ADD MSTORE PUSH1 0x11 PUSH1 0x24 DUP3 ADD MSTORE PUSH17 0x11195D881B5BD91948191A5CD8589B1959 PUSH1 0x7A SHL PUSH1 0x44 DUP3 ADD MSTORE PUSH1 0x64 SWAP1 REVERT JUMPDEST PUSH1 0x40 SWAP1 DUP2 DUP1 MLOAD PUSH2 0x1208 DUP3 DUP3 PUSH2 0xA2A JUMP JUMPDEST CALLDATASIZE SWAP1 CALLDATACOPY DUP2 MLOAD SWAP2 DUP1 DUP4 ADD SWAP2 DUP4 DUP4 LT PUSH1 0x1 PUSH1 0x1 PUSH1 0x40 SHL SUB DUP5 GT OR PUSH2 0xA0A JUMPI PUSH32 0x30644E72E131A029B85045B68181585D97816A916871CA8D3C208C16D87CFD47 SWAP3 PUSH1 0x20 SWAP3 MSTORE DUP1 MLOAD DUP5 MSTORE ADD MLOAD MOD PUSH32 0x30644E72E131A029B85045B68181585D97816A916871CA8D3C208C16D87CFD47 SUB PUSH32 0x30644E72E131A029B85045B68181585D97816A916871CA8D3C208C16D87CFD47 DUP2 GT PUSH2 0x12A2 JUMPI PUSH1 0x20 DUP3 ADD MSTORE SWAP1 JUMP JUMPDEST PUSH4 0x4E487B71 PUSH1 0xE0 SHL PUSH1 0x0 MSTORE PUSH1 0x11 PUSH1 0x4 MSTORE PUSH1 0x24 PUSH1 0x0 REVERT JUMPDEST PUSH2 0x12C0 PUSH2 0xE3F JUMP JUMPDEST SWAP1 PUSH1 0xFF PUSH1 0x5 SLOAD AND ISZERO PUSH2 0x12F7 JUMPI PUSH1 0x1 SLOAD DUP3 MLOAD MSTORE PUSH1 0x2 SLOAD DUP3 MLOAD PUSH1 0x20 SWAP1 DUP2 ADD SWAP2 SWAP1 SWAP2 MSTORE PUSH1 0x3 SLOAD DUP2 DUP5 ADD DUP1 MLOAD SWAP2 SWAP1 SWAP2 MSTORE PUSH1 0x4 SLOAD SWAP1 MLOAD SWAP1 SWAP2 ADD MSTORE JUMP JUMPDEST PUSH1 0x40 MLOAD PUSH3 0x461BCD PUSH1 0xE5 SHL DUP2 MSTORE PUSH1 0x20 PUSH1 0x4 DUP3 ADD MSTORE PUSH1 0x10 PUSH1 0x24 DUP3 ADD MSTORE PUSH16 0x1592C819D85B5B58481B9BDD081CD95D PUSH1 0x82 SHL PUSH1 0x44 DUP3 ADD MSTORE PUSH1 0x64 SWAP1 REVERT INVALID LOG2 PUSH5 0x6970667358 0x22 SLT KECCAK256 0xB4 PUSH13 0xC7D0B6016526A0A956CFF11C3E CALLDATACOPY EXTCODESIZE PUSH30 0xAE85B010D81B4881FB5B9D40F09964736F6C634300081C00330000000000 "},"methodIdentifiers":{"PROOF_TYPE_DEV()":"2c5d696c","PROOF_TYPE_GROTH16()":"5bb4aefd","PROOF_TYPE_STARK()":"fa592e3f","RISC0_VERIFIER()":"f08b224c","computeProofHash(bytes32,bytes,bytes)":"8bbd8fe5","devModeEnabled()":"7d4ba4fe","getVerification(bytes32)":"94ef2440","isImageTrusted(bytes32)":"43f9405f","maxProofAge()":"6f5b6b20","owner()":"8da5cb5b","renounceOwnership()":"715018a6","revokeImage(bytes32)":"a9c6dc03","setDevMode(bool)":"7c897da2","setMaxProofAge(uint256)":"1bddcb19","setVerificationKeyGamma(uint256[4])":"06e647cb","transferOwnership(address)":"f2fde38b","trustImage(bytes32)":"965a572b","trustImages(bytes32[])":"b0e00c21","trustedImages(bytes32)":"4ee9f2d1","verifiedProofs(bytes32)":"176d80c4","verify(bytes)":"8e760afe","verifyProof(bytes32,bytes,bytes,uint8)":"e2dd6745","vkGamma(uint256)":"391e6c99","vkGammaSet()":"8728f94f"}}}}}