{"src/templates/AIOracle.sol":{"AIOracle":{"abi":[{"inputs":[],"stateMutability":"nonpayable","type":"constructor"},{"inputs":[{"internalType":"address","name":"owner","type":"address"}],"name":"OwnableInvalidOwner","type":"error"},{"inputs":[{"internalType":"address","name":"account","type":"address"}],"name":"OwnableUnauthorizedAccount","type":"error"},{"inputs":[],"name":"ReentrancyGuardReentrantCall","type":"error"},{"anonymous":false,"inputs":[{"indexed":true,"internalType":"bytes32","name":"requestId","type":"bytes32"}],"name":"AIRequestCancelled","type":"event"},{"anonymous":false,"inputs":[{"indexed":true,"internalType":"bytes32","name":"requestId","type":"bytes32"},{"indexed":true,"internalType":"address","name":"requester","type":"address"},{"indexed":false,"internalType":"bytes32","name":"modelHash","type":"bytes32"},{"indexed":false,"internalType":"uint256","name":"reward","type":"uint256"}],"name":"AIRequestCreated","type":"event"},{"anonymous":false,"inputs":[{"indexed":true,"internalType":"bytes32","name":"requestId","type":"bytes32"}],"name":"AIRequestExpired","type":"event"},{"anonymous":false,"inputs":[{"indexed":true,"internalType":"bytes32","name":"requestId","type":"bytes32"},{"indexed":true,"internalType":"address","name":"fulfiller","type":"address"},{"indexed":false,"internalType":"bytes32","name":"proofHash","type":"bytes32"}],"name":"AIRequestFulfilled","type":"event"},{"anonymous":false,"inputs":[{"indexed":true,"internalType":"bytes32","name":"modelHash","type":"bytes32"}],"name":"ModelApproved","type":"event"},{"anonymous":false,"inputs":[{"indexed":true,"internalType":"bytes32","name":"modelHash","type":"bytes32"}],"name":"ModelRevoked","type":"event"},{"anonymous":false,"inputs":[{"indexed":true,"internalType":"address","name":"previousOwner","type":"address"},{"indexed":true,"internalType":"address","name":"newOwner","type":"address"}],"name":"OwnershipTransferred","type":"event"},{"inputs":[],"name":"accumulatedFees","outputs":[{"internalType":"uint256","name":"","type":"uint256"}],"stateMutability":"view","type":"function"},{"inputs":[{"internalType":"bytes32","name":"modelHash","type":"bytes32"}],"name":"approveModel","outputs":[],"stateMutability":"nonpayable","type":"function"},{"inputs":[{"internalType":"bytes32","name":"","type":"bytes32"}],"name":"approvedModels","outputs":[{"internalType":"bool","name":"","type":"bool"}],"stateMutability":"view","type":"function"},{"inputs":[{"internalType":"bytes32","name":"requestId","type":"bytes32"}],"name":"cancelRequest","outputs":[],"stateMutability":"nonpayable","type":"function"},{"inputs":[],"name":"defaultTimeout","outputs":[{"internalType":"uint256","name":"","type":"uint256"}],"stateMutability":"view","type":"function"},{"inputs":[{"internalType":"bytes32","name":"requestId","type":"bytes32"},{"internalType":"bytes","name":"result","type":"bytes"},{"internalType":"bytes32","name":"proofHash","type":"bytes32"}],"name":"fulfillRequest","outputs":[],"stateMutability":"nonpayable","type":"function"},{"inputs":[{"internalType":"bytes32","name":"requestId","type":"bytes32"}],"name":"getRequest","outputs":[{"components":[{"internalType":"address","name":"requester","type":"address"},{"internalType":"bytes32","name":"modelHash","type":"bytes32"},{"internalType":"bytes","name":"inputData","type":"bytes"},{"internalType":"uint256","name":"reward","type":"uint256"},{"internalType":"uint256","name":"createdAt","type":"uint256"},{"internalType":"uint256","name":"deadline","type":"uint256"},{"internalType":"enum AIOracle.RequestStatus","name":"status","type":"uint8"},{"internalType":"bytes","name":"result","type":"bytes"},{"internalType":"address","name":"fulfiller","type":"address"},{"internalType":"bytes32","name":"proofHash","type":"bytes32"}],"internalType":"struct AIOracle.AIRequest","name":"","type":"tuple"}],"stateMutability":"view","type":"function"},{"inputs":[{"internalType":"bytes32","name":"requestId","type":"bytes32"}],"name":"getResult","outputs":[{"internalType":"bytes","name":"result","type":"bytes"},{"internalType":"bool","name":"completed","type":"bool"}],"stateMutability":"view","type":"function"},{"inputs":[{"internalType":"address","name":"user","type":"address"}],"name":"getUserRequests","outputs":[{"internalType":"bytes32[]","name":"","type":"bytes32[]"}],"stateMutability":"view","type":"function"},{"inputs":[{"internalType":"bytes32","name":"modelHash","type":"bytes32"}],"name":"isModelApproved","outputs":[{"internalType":"bool","name":"","type":"bool"}],"stateMutability":"view","type":"function"},{"inputs":[{"internalType":"bytes32","name":"requestId","type":"bytes32"}],"name":"markExpired","outputs":[],"stateMutability":"nonpayable","type":"function"},{"inputs":[],"name":"minFulfillerStake","outputs":[{"internalType":"uint256","name":"","type":"uint256"}],"stateMutability":"view","type":"function"},{"inputs":[],"name":"owner","outputs":[{"internalType":"address","name":"","type":"address"}],"stateMutability":"view","type":"function"},{"inputs":[],"name":"protocolFeeBps","outputs":[{"internalType":"uint256","name":"","type":"uint256"}],"stateMutability":"view","type":"function"},{"inputs":[{"internalType":"address","name":"fulfiller","type":"address"}],"name":"registerFulfiller","outputs":[],"stateMutability":"nonpayable","type":"function"},{"inputs":[{"internalType":"address","name":"","type":"address"}],"name":"registeredFulfillers","outputs":[{"internalType":"bool","name":"","type":"bool"}],"stateMutability":"view","type":"function"},{"inputs":[],"name":"renounceOwnership","outputs":[],"stateMutability":"nonpayable","type":"function"},{"inputs":[{"internalType":"bytes32","name":"modelHash","type":"bytes32"},{"internalType":"bytes","name":"inputData","type":"bytes"},{"internalType":"uint256","name":"timeout","type":"uint256"}],"name":"requestAI","outputs":[{"internalType":"bytes32","name":"","type":"bytes32"}],"stateMutability":"payable","type":"function"},{"inputs":[],"name":"requestCount","outputs":[{"internalType":"uint256","name":"","type":"uint256"}],"stateMutability":"view","type":"function"},{"inputs":[{"internalType":"bytes32","name":"","type":"bytes32"}],"name":"requests","outputs":[{"internalType":"address","name":"requester","type":"address"},{"internalType":"bytes32","name":"modelHash","type":"bytes32"},{"internalType":"bytes","name":"inputData","type":"bytes"},{"internalType":"uint256","name":"reward","type":"uint256"},{"internalType":"uint256","name":"createdAt","type":"uint256"},{"internalType":"uint256","name":"deadline","type":"uint256"},{"internalType":"enum AIOracle.RequestStatus","name":"status","type":"uint8"},{"internalType":"bytes","name":"result","type":"bytes"},{"internalType":"address","name":"fulfiller","type":"address"},{"internalType":"bytes32","name":"proofHash","type":"bytes32"}],"stateMutability":"view","type":"function"},{"inputs":[{"internalType":"address","name":"fulfiller","type":"address"}],"name":"revokeFulfiller","outputs":[],"stateMutability":"nonpayable","type":"function"},{"inputs":[{"internalType":"bytes32","name":"modelHash","type":"bytes32"}],"name":"revokeModel","outputs":[],"stateMutability":"nonpayable","type":"function"},{"inputs":[{"internalType":"uint256","name":"_timeout","type":"uint256"}],"name":"setDefaultTimeout","outputs":[],"stateMutability":"nonpayable","type":"function"},{"inputs":[{"internalType":"uint256","name":"_feeBps","type":"uint256"}],"name":"setProtocolFee","outputs":[],"stateMutability":"nonpayable","type":"function"},{"inputs":[{"internalType":"address","name":"_verifier","type":"address"}],"name":"setZkMLVerifier","outputs":[],"stateMutability":"nonpayable","type":"function"},{"inputs":[{"internalType":"address","name":"newOwner","type":"address"}],"name":"transferOwnership","outputs":[],"stateMutability":"nonpayable","type":"function"},{"inputs":[{"internalType":"address","name":"","type":"address"},{"internalType":"uint256","name":"","type":"uint256"}],"name":"userRequests","outputs":[{"internalType":"bytes32","name":"","type":"bytes32"}],"stateMutability":"view","type":"function"},{"inputs":[],"name":"withdrawFees","outputs":[],"stateMutability":"nonpayable","type":"function"},{"inputs":[],"name":"zkmlVerifier","outputs":[{"internalType":"address","name":"","type":"address"}],"stateMutability":"view","type":"function"}],"evm":{"bytecode":{"linkReferences":{},"object":"608080604052346083573315606d5760008054336001600160a01b0319821681178355916001600160a01b03909116907f8be0079c531659141344cd1fd0a4f28419497f9722a3daafe3b4186f6b6457e09080a3600180556064600755606460085561189790816100898239f35b631e4fbdf760e01b600052600060045260246000fd5b600080fdfe6080604052600436101561001257600080fd5b60003560e01c8063066655ef1461155d57806309f3f5661461153f57806321c39b3614611521578063263cb6b6146114c85780632b9b4ada146114895780632c6c5866146114155780633115129c14610ebe57806335659fb814610ea05780633c81339414610e77578063476343ee14610e2f5780634b7716e314610dd35780634b9f24d8146103a65780635012554614610ceb578063587f5ed714610ccd5780635badbe4c14610caf5780635fc76a0b14610c6d578063715018a614610c14578063717909b914610bbb578063787dce3d14610b5d57806382ae0f971461072957806387e0aeb2146106385780638da5cb5b1461060f5780639d86698514610539578063add4c784146104d6578063b337cf741461041c578063d8be38b6146103d7578063da185c92146103a6578063f2fde38b1461031d5763fb1e61ca1461015b57600080fd5b3461031857602036600319011261031857600061012060405161017d8161164c565b828152826020820152606060408201528260608201528260808201528260a08201528260c0820152606060e0820152826101008201520152600435600052600260205260406000206040516101d18161164c565b81546001600160a01b031681526001820154602082019081526101f66002840161168b565b9060408301918252600384015491606084019283526004850154926080850193845260058601549560a0860196875260ff6006820154169260c0870160048510156103025760209888976102b56102d3946102e6988552600961025b6007890161168b565b9760e08d0198895261010060018060a01b036008830154169d019c8d520154996101208d019a8b526040518e819f9e829f835260018060a01b039051169101525160408d01525161014060608d01526101608c019061172f565b955160808b01525160a08a01525160c08901525160e0880190611770565b51858203601f190161010087015261172f565b91516001600160a01b0316610120840152516101408301520390f35b634e487b7160e01b600052602160045260246000fd5b600080fd5b34610318576020366003190112610318576103366115a0565b61033e611816565b6001600160a01b0316801561039057600080546001600160a01b03198116831782556001600160a01b0316907f8be0079c531659141344cd1fd0a4f28419497f9722a3daafe3b4186f6b6457e09080a3005b631e4fbdf760e01b600052600060045260246000fd5b34610318576020366003190112610318576004356000526004602052602060ff604060002054166040519015158152f35b34610318576020366003190112610318576103f06115a0565b6103f8611816565b6001600160a01b03166000908152600660205260409020805460ff19166001179055005b34610318576020366003190112610318576001600160a01b0361043d6115a0565b16600052600360205260406000206040518060208354918281520190819360005260206000209060005b8181106104c0575050508161047d910382611669565b6040519182916020830190602084525180915260408301919060005b8181106104a7575050500390f35b8251845285945060209384019390920191600101610499565b8254845260209093019260019283019201610467565b34610318576020366003190112610318576004356000526002602052604060002060ff600682015416600481101561030257610517600761052e930161168b565b90600160405193849360408552604085019061172f565b911460208301520390f35b34610318576020366003190112610318576004356000526002602052604060002060018060a01b038154166001820154916105766002820161168b565b6105fe600383015460048401546105f1600586015460ff600688015416906105a06007890161168b565b936105d7600960018060a01b0360088c0154169a0154986040519c8d9c8d5260208d015261014060408d01526101408c019061172f565b9560608b015260808a015260a089015260c0880190611770565b85820360e087015261172f565b916101008401526101208301520390f35b34610318576000366003190112610318576000546040516001600160a01b039091168152602090f35b346103185760203660031901126103185760043580600052600260205260406000206006810160ff81541660048110156103025761067690156117dc565b60058201544311156106f257805460ff191660021790558054600390910154600091829182918291906001600160a01b03168282156106e9575bf1156106dd577f6fe0249982ec39ff41cbe0301e6c114eca4ebb1720320066b62d957f1163cbaa600080a2005b6040513d6000823e3d90fd5b506108fc6106b0565b60405162461bcd60e51b815260206004820152600f60248201526e139bdd08195e1c1a5c9959081e595d608a1b6044820152606490fd5b346103185760603660031901126103185760043560243567ffffffffffffffff81116103185761075d9036906004016115e4565b604435929161076a61183f565b8260005260026020526040600020916006830160ff81541660048110156103025761079590156117dc565b60058401544311610b26578115610af25733600052600660205260ff6040600020541615610aad57600b546001600160a01b031680151580610aa4575b610989575b50805460ff19166001179055600783019167ffffffffffffffff82116109735761080b826108058554611612565b8561178a565b600090601f831160011461090d579180610841926003969594600092610902575b50508160011b916000199060031b1c19161790565b90555b600881810180546001600160a01b0319163317905560098201859055910154905480820290821583830490911417156108ec57612710900490818103908082116108ec5760008093928193928361089e849560095461177d565b6009558391146108e3575b3390f1156106dd576040519182527fb68acaadc409e87420a9dda716aca513f181d79ba21500902a72b44122acc5a460203393a360018055005b506108fc6108a9565b634e487b7160e01b600052601160045260246000fd5b01359050888061082c565b8382526020822091601f198416815b81811061095b575091600193918560039897969410610943575b505050811b019055610844565b013560001983881b60f8161c19169055878080610936565b9193602060018192878701358155019501920161091c565b634e487b7160e01b600052604160045260246000fd5b6040610a02916001870154908251918a6020840152602083526109ac8484611669565b6000845180968195829463e2dd674560e01b84526004840152608060248401528a60848401528a8c60a48501378360a48c8501015260a4601f19601f8d011684016003198286830301016044860152019061172f565b6002606483015203925af19081156106dd57600091610a62575b5015610a2857866107d7565b60405162461bcd60e51b815260206004820152601260248201527124b73b30b634b2103d35a6a610383937b7b360711b6044820152606490fd5b6040813d604011610a9c575b81610a7b60409383611669565b81010312610a985751908115158203610a95575087610a1c565b80fd5b5080fd5b3d9150610a6e565b508615156107d2565b60405162461bcd60e51b815260206004820152601860248201527f4e6f7420726567697374657265642066756c66696c6c657200000000000000006044820152606490fd5b60405162461bcd60e51b815260206004820152600c60248201526b115b5c1d1e481c995cdd5b1d60a21b6044820152606490fd5b60405162461bcd60e51b815260206004820152600f60248201526e14995c5d595cdd08195e1c1a5c9959608a1b6044820152606490fd5b3461031857602036600319011261031857600435610b79611816565b6103e88111610b8757600855005b60405162461bcd60e51b815260206004820152600c60248201526b08ccaca40e8dede40d0d2ced60a31b6044820152606490fd5b3461031857602036600319011261031857600435610bd7611816565b806000526004602052604060002060ff1981541690557f0ce0cd684ed1c15a1013dab20bed811fa182d3e28342b5be924d2cef7a103bb1600080a2005b3461031857600036600319011261031857610c2d611816565b600080546001600160a01b0319811682556001600160a01b03167f8be0079c531659141344cd1fd0a4f28419497f9722a3daafe3b4186f6b6457e08280a3005b3461031857602036600319011261031857610c866115a0565b610c8e611816565b6001600160a01b03166000908152600660205260409020805460ff19169055005b34610318576000366003190112610318576020600a54604051908152f35b34610318576000366003190112610318576020600954604051908152f35b3461031857602036600319011261031857600435610d0761183f565b600081815260026020526040902080546001600160a01b03163303610d9e57600681019060ff82541690600482101561030257600080806003819487610d4e8a98156117dc565b805460ff1916831790550154818115610d95575b3390f1156106dd577f1f29b89ae1587d701cb5136665b2e833ac2fc99ddb4481e1083ade509bcfeac1600080a260018055005b506108fc610d62565b60405162461bcd60e51b815260206004820152600d60248201526c2737ba103932b8bab2b9ba32b960991b6044820152606490fd5b3461031857602036600319011261031857600435610def611816565b8060005260046020526040600020600160ff198254161790557f6d29aa35cc15482f5e65960776a66652041832392a7d89e3f1488b4e40d15284600080a2005b3461031857600036600319011261031857610e48611816565b60008080806009548160095560018060a01b03825416828215610e6e575bf1156106dd57005b506108fc610e66565b3461031857600036600319011261031857600b546040516001600160a01b039091168152602090f35b34610318576000366003190112610318576020600854604051908152f35b60603660031901126103185760043560243567ffffffffffffffff811161031857610eed9036906004016115e4565b9160443591610efa61183f565b34156113dd5781600052600460205260ff6040600020541680156113c9575b1561138f57831561135c57612710841161132557600a5460001981146108ec5760018101600a5560405160208101913360601b8352846034830152426054830152607482015260748152610f6e609482611669565b51902092801561131957610f83905b4361177d565b9060209460405191610f958784611669565b60008352601f198701368885013760405192610fb08461164c565b3384528784019286845267ffffffffffffffff81116109735760405192610fe0601f8301601f19168b0185611669565b818452368282011161031857816000928b9283870137840101526040840191825260608401943486526080850142815260a0860191825260c08601966000885260e0870193845261010087019460008652610120880196600088528b60005260028d5260406000209860018060a01b039060018060a01b03905116166bffffffffffffffffffffffff60a01b8a5416178955516001890155600288019051805167ffffffffffffffff81116109735761109d816108058554611612565b8d80601f83116001146112b0575081906110cd936000926112a55750508160011b916000199060031b1c19161790565b90555b5160038701555160048601555160058501556006840194519460048610156103025760009560ff8019835416911617905560078401905180519067ffffffffffffffff821161129157611127826108058554611612565b8990601f831160011461122957918061115b926009979695948a9261121e5750508160011b916000199060031b1c19161790565b90555b516008840180546001600160a01b0319166001600160a01b03929092169190911790555191015533815260038452604081208054906801000000000000000082101561120a57906111b4916001820181556115b6565b81929154915060031b9084821b91600019901b19161790556040519081523483820152817f73379e0eb0a8c43416b93a5ad73c8f23ed1b510614ad484efdad08b000e357a960403393a360018055604051908152f35b634e487b7160e01b83526041600452602483fd5b015190508c8061082c565b8388528a88209190601f198416895b8d82821061127b5750509160019391856009999897969410611262575b505050811b01905561115e565b015160001960f88460031b161c191690558b8080611255565b6001859682939686015181550195019301611238565b634e487b7160e01b87526041600452602487fd5b015190508f8061082c565b9192601f1984168560005283600020936000905b8282106113015750509084600195949392106112e8575b505050811b0190556110d0565b015160001960f88460031b161c191690558e80806112db565b806001869782949787015181550196019401906112c4565b50610f83600754610f7d565b60405162461bcd60e51b815260206004820152600f60248201526e496e70757420746f6f206c6172676560881b6044820152606490fd5b60405162461bcd60e51b815260206004820152600b60248201526a115b5c1d1e481a5b9c1d5d60aa1b6044820152606490fd5b60405162461bcd60e51b8152602060048201526012602482015271135bd9195b081b9bdd08185c1c1c9bdd995960721b6044820152606490fd5b506000546001600160a01b03163314610f19565b60405162461bcd60e51b815260206004820152601060248201526f14185e5b595b9d081c995c5d5a5c995960821b6044820152606490fd5b3461031857602036600319011261031857600435611431611816565b600a8110158061147d575b1561144657600755005b60405162461bcd60e51b815260206004820152600f60248201526e125b9d985b1a59081d1a5b595bdd5d608a1b6044820152606490fd5b5061271081111561143c565b34610318576020366003190112610318576001600160a01b036114aa6115a0565b166000526006602052602060ff604060002054166040519015158152f35b34610318576040366003190112610318576114e16115a0565b6001600160a01b031660009081526003602052604090208054602435919082101561031857602091611512916115b6565b90549060031b1c604051908152f35b34610318576000366003190112610318576020600554604051908152f35b34610318576000366003190112610318576020600754604051908152f35b34610318576020366003190112610318576115766115a0565b61157e611816565b600b80546001600160a01b0319166001600160a01b0392909216919091179055005b600435906001600160a01b038216820361031857565b80548210156115ce5760005260206000200190600090565b634e487b7160e01b600052603260045260246000fd5b9181601f840112156103185782359167ffffffffffffffff8311610318576020838186019501011161031857565b90600182811c92168015611642575b602083101461162c57565b634e487b7160e01b600052602260045260246000fd5b91607f1691611621565b610140810190811067ffffffffffffffff82111761097357604052565b90601f8019910116810190811067ffffffffffffffff82111761097357604052565b906040519182600082549261169f84611612565b808452936001811690811561170d57506001146116c6575b506116c492500383611669565b565b90506000929192526020600020906000915b8183106116f15750509060206116c492820101386116b7565b60209193508060019154838589010152019101909184926116d8565b9050602092506116c494915060ff191682840152151560051b820101386116b7565b919082519283825260005b84811061175b575050826000602080949584010152601f8019910116010190565b8060208092840101518282860101520161173a565b9060048210156103025752565b919082018092116108ec57565b601f821161179757505050565b6000526020600020906020601f840160051c830193106117d2575b601f0160051c01905b8181106117c6575050565b600081556001016117bb565b90915081906117b2565b156117e357565b60405162461bcd60e51b815260206004820152600b60248201526a4e6f742070656e64696e6760a81b6044820152606490fd5b6000546001600160a01b0316330361182a57565b63118cdaa760e01b6000523360045260246000fd5b600260015414611850576002600155565b633ee5aeb560e01b60005260046000fdfea2646970667358221220f86ac829e52b96c4ea9c38401313383a98dc8f038b187fb786a096c35c0e7e5564736f6c634300081c0033","opcodes":"PUSH1 0x80 DUP1 PUSH1 0x40 MSTORE CALLVALUE PUSH1 0x83 JUMPI CALLER ISZERO PUSH1 0x6D JUMPI PUSH1 0x0 DUP1 SLOAD CALLER PUSH1 0x1 PUSH1 0x1 PUSH1 0xA0 SHL SUB NOT DUP3 AND DUP2 OR DUP4 SSTORE SWAP2 PUSH1 0x1 PUSH1 0x1 PUSH1 0xA0 SHL SUB SWAP1 SWAP2 AND SWAP1 PUSH32 0x8BE0079C531659141344CD1FD0A4F28419497F9722A3DAAFE3B4186F6B6457E0 SWAP1 DUP1 LOG3 PUSH1 0x1 DUP1 SSTORE PUSH1 0x64 PUSH1 0x7 SSTORE PUSH1 0x64 PUSH1 0x8 SSTORE PUSH2 0x1897 SWAP1 DUP2 PUSH2 0x89 DUP3 CODECOPY RETURN JUMPDEST PUSH4 0x1E4FBDF7 PUSH1 0xE0 SHL PUSH1 0x0 MSTORE PUSH1 0x0 PUSH1 0x4 MSTORE PUSH1 0x24 PUSH1 0x0 REVERT JUMPDEST PUSH1 0x0 DUP1 REVERT INVALID PUSH1 0x80 PUSH1 0x40 MSTORE PUSH1 0x4 CALLDATASIZE LT ISZERO PUSH2 0x12 JUMPI PUSH1 0x0 DUP1 REVERT JUMPDEST PUSH1 0x0 CALLDATALOAD PUSH1 0xE0 SHR DUP1 PUSH4 0x66655EF EQ PUSH2 0x155D JUMPI DUP1 PUSH4 0x9F3F566 EQ PUSH2 0x153F JUMPI DUP1 PUSH4 0x21C39B36 EQ PUSH2 0x1521 JUMPI DUP1 PUSH4 0x263CB6B6 EQ PUSH2 0x14C8 JUMPI DUP1 PUSH4 0x2B9B4ADA EQ PUSH2 0x1489 JUMPI DUP1 PUSH4 0x2C6C5866 EQ PUSH2 0x1415 JUMPI DUP1 PUSH4 0x3115129C EQ PUSH2 0xEBE JUMPI DUP1 PUSH4 0x35659FB8 EQ PUSH2 0xEA0 JUMPI DUP1 PUSH4 0x3C813394 EQ PUSH2 0xE77 JUMPI DUP1 PUSH4 0x476343EE EQ PUSH2 0xE2F JUMPI DUP1 PUSH4 0x4B7716E3 EQ PUSH2 0xDD3 JUMPI DUP1 PUSH4 0x4B9F24D8 EQ PUSH2 0x3A6 JUMPI DUP1 PUSH4 0x50125546 EQ PUSH2 0xCEB JUMPI DUP1 PUSH4 0x587F5ED7 EQ PUSH2 0xCCD JUMPI DUP1 PUSH4 0x5BADBE4C EQ PUSH2 0xCAF JUMPI DUP1 PUSH4 0x5FC76A0B EQ PUSH2 0xC6D JUMPI DUP1 PUSH4 0x715018A6 EQ PUSH2 0xC14 JUMPI DUP1 PUSH4 0x717909B9 EQ PUSH2 0xBBB JUMPI DUP1 PUSH4 0x787DCE3D EQ PUSH2 0xB5D JUMPI DUP1 PUSH4 0x82AE0F97 EQ PUSH2 0x729 JUMPI DUP1 PUSH4 0x87E0AEB2 EQ PUSH2 0x638 JUMPI DUP1 PUSH4 0x8DA5CB5B EQ PUSH2 0x60F JUMPI DUP1 PUSH4 0x9D866985 EQ PUSH2 0x539 JUMPI DUP1 PUSH4 0xADD4C784 EQ PUSH2 0x4D6 JUMPI DUP1 PUSH4 0xB337CF74 EQ PUSH2 0x41C JUMPI DUP1 PUSH4 0xD8BE38B6 EQ PUSH2 0x3D7 JUMPI DUP1 PUSH4 0xDA185C92 EQ PUSH2 0x3A6 JUMPI DUP1 PUSH4 0xF2FDE38B EQ PUSH2 0x31D JUMPI PUSH4 0xFB1E61CA EQ PUSH2 0x15B JUMPI PUSH1 0x0 DUP1 REVERT JUMPDEST CALLVALUE PUSH2 0x318 JUMPI PUSH1 0x20 CALLDATASIZE PUSH1 0x3 NOT ADD SLT PUSH2 0x318 JUMPI PUSH1 0x0 PUSH2 0x120 PUSH1 0x40 MLOAD PUSH2 0x17D DUP2 PUSH2 0x164C JUMP JUMPDEST DUP3 DUP2 MSTORE DUP3 PUSH1 0x20 DUP3 ADD MSTORE PUSH1 0x60 PUSH1 0x40 DUP3 ADD MSTORE DUP3 PUSH1 0x60 DUP3 ADD MSTORE DUP3 PUSH1 0x80 DUP3 ADD MSTORE DUP3 PUSH1 0xA0 DUP3 ADD MSTORE DUP3 PUSH1 0xC0 DUP3 ADD MSTORE PUSH1 0x60 PUSH1 0xE0 DUP3 ADD MSTORE DUP3 PUSH2 0x100 DUP3 ADD MSTORE ADD MSTORE PUSH1 0x4 CALLDATALOAD PUSH1 0x0 MSTORE PUSH1 0x2 PUSH1 0x20 MSTORE PUSH1 0x40 PUSH1 0x0 KECCAK256 PUSH1 0x40 MLOAD PUSH2 0x1D1 DUP2 PUSH2 0x164C JUMP JUMPDEST DUP2 SLOAD PUSH1 0x1 PUSH1 0x1 PUSH1 0xA0 SHL SUB AND DUP2 MSTORE PUSH1 0x1 DUP3 ADD SLOAD PUSH1 0x20 DUP3 ADD SWAP1 DUP2 MSTORE PUSH2 0x1F6 PUSH1 0x2 DUP5 ADD PUSH2 0x168B JUMP JUMPDEST SWAP1 PUSH1 0x40 DUP4 ADD SWAP2 DUP3 MSTORE PUSH1 0x3 DUP5 ADD SLOAD SWAP2 PUSH1 0x60 DUP5 ADD SWAP3 DUP4 MSTORE PUSH1 0x4 DUP6 ADD SLOAD SWAP3 PUSH1 0x80 DUP6 ADD SWAP4 DUP5 MSTORE PUSH1 0x5 DUP7 ADD SLOAD SWAP6 PUSH1 0xA0 DUP7 ADD SWAP7 DUP8 MSTORE PUSH1 0xFF PUSH1 0x6 DUP3 ADD SLOAD AND SWAP3 PUSH1 0xC0 DUP8 ADD PUSH1 0x4 DUP6 LT ISZERO PUSH2 0x302 JUMPI PUSH1 0x20 SWAP9 DUP9 SWAP8 PUSH2 0x2B5 PUSH2 0x2D3 SWAP5 PUSH2 0x2E6 SWAP9 DUP6 MSTORE PUSH1 0x9 PUSH2 0x25B PUSH1 0x7 DUP10 ADD PUSH2 0x168B JUMP JUMPDEST SWAP8 PUSH1 0xE0 DUP14 ADD SWAP9 DUP10 MSTORE PUSH2 0x100 PUSH1 0x1 DUP1 PUSH1 0xA0 SHL SUB PUSH1 0x8 DUP4 ADD SLOAD AND SWAP14 ADD SWAP13 DUP14 MSTORE ADD SLOAD SWAP10 PUSH2 0x120 DUP14 ADD SWAP11 DUP12 MSTORE PUSH1 0x40 MLOAD DUP15 DUP2 SWAP16 SWAP15 DUP3 SWAP16 DUP4 MSTORE PUSH1 0x1 DUP1 PUSH1 0xA0 SHL SUB SWAP1 MLOAD AND SWAP2 ADD MSTORE MLOAD PUSH1 0x40 DUP14 ADD MSTORE MLOAD PUSH2 0x140 PUSH1 0x60 DUP14 ADD MSTORE PUSH2 0x160 DUP13 ADD SWAP1 PUSH2 0x172F JUMP JUMPDEST SWAP6 MLOAD PUSH1 0x80 DUP12 ADD MSTORE MLOAD PUSH1 0xA0 DUP11 ADD MSTORE MLOAD PUSH1 0xC0 DUP10 ADD MSTORE MLOAD PUSH1 0xE0 DUP9 ADD SWAP1 PUSH2 0x1770 JUMP JUMPDEST MLOAD DUP6 DUP3 SUB PUSH1 0x1F NOT ADD PUSH2 0x100 DUP8 ADD MSTORE PUSH2 0x172F JUMP JUMPDEST SWAP2 MLOAD PUSH1 0x1 PUSH1 0x1 PUSH1 0xA0 SHL SUB AND PUSH2 0x120 DUP5 ADD MSTORE MLOAD PUSH2 0x140 DUP4 ADD MSTORE SUB SWAP1 RETURN JUMPDEST PUSH4 0x4E487B71 PUSH1 0xE0 SHL PUSH1 0x0 MSTORE PUSH1 0x21 PUSH1 0x4 MSTORE PUSH1 0x24 PUSH1 0x0 REVERT JUMPDEST PUSH1 0x0 DUP1 REVERT JUMPDEST CALLVALUE PUSH2 0x318 JUMPI PUSH1 0x20 CALLDATASIZE PUSH1 0x3 NOT ADD SLT PUSH2 0x318 JUMPI PUSH2 0x336 PUSH2 0x15A0 JUMP JUMPDEST PUSH2 0x33E PUSH2 0x1816 JUMP JUMPDEST PUSH1 0x1 PUSH1 0x1 PUSH1 0xA0 SHL SUB AND DUP1 ISZERO PUSH2 0x390 JUMPI PUSH1 0x0 DUP1 SLOAD PUSH1 0x1 PUSH1 0x1 PUSH1 0xA0 SHL SUB NOT DUP2 AND DUP4 OR DUP3 SSTORE PUSH1 0x1 PUSH1 0x1 PUSH1 0xA0 SHL SUB AND SWAP1 PUSH32 0x8BE0079C531659141344CD1FD0A4F28419497F9722A3DAAFE3B4186F6B6457E0 SWAP1 DUP1 LOG3 STOP JUMPDEST PUSH4 0x1E4FBDF7 PUSH1 0xE0 SHL PUSH1 0x0 MSTORE PUSH1 0x0 PUSH1 0x4 MSTORE PUSH1 0x24 PUSH1 0x0 REVERT JUMPDEST CALLVALUE PUSH2 0x318 JUMPI PUSH1 0x20 CALLDATASIZE PUSH1 0x3 NOT ADD SLT PUSH2 0x318 JUMPI PUSH1 0x4 CALLDATALOAD PUSH1 0x0 MSTORE PUSH1 0x4 PUSH1 0x20 MSTORE PUSH1 0x20 PUSH1 0xFF PUSH1 0x40 PUSH1 0x0 KECCAK256 SLOAD AND PUSH1 0x40 MLOAD SWAP1 ISZERO ISZERO DUP2 MSTORE RETURN JUMPDEST CALLVALUE PUSH2 0x318 JUMPI PUSH1 0x20 CALLDATASIZE PUSH1 0x3 NOT ADD SLT PUSH2 0x318 JUMPI PUSH2 0x3F0 PUSH2 0x15A0 JUMP JUMPDEST PUSH2 0x3F8 PUSH2 0x1816 JUMP JUMPDEST PUSH1 0x1 PUSH1 0x1 PUSH1 0xA0 SHL SUB AND PUSH1 0x0 SWAP1 DUP2 MSTORE PUSH1 0x6 PUSH1 0x20 MSTORE PUSH1 0x40 SWAP1 KECCAK256 DUP1 SLOAD PUSH1 0xFF NOT AND PUSH1 0x1 OR SWAP1 SSTORE STOP JUMPDEST CALLVALUE PUSH2 0x318 JUMPI PUSH1 0x20 CALLDATASIZE PUSH1 0x3 NOT ADD SLT PUSH2 0x318 JUMPI PUSH1 0x1 PUSH1 0x1 PUSH1 0xA0 SHL SUB PUSH2 0x43D PUSH2 0x15A0 JUMP JUMPDEST AND PUSH1 0x0 MSTORE PUSH1 0x3 PUSH1 0x20 MSTORE PUSH1 0x40 PUSH1 0x0 KECCAK256 PUSH1 0x40 MLOAD DUP1 PUSH1 0x20 DUP4 SLOAD SWAP2 DUP3 DUP2 MSTORE ADD SWAP1 DUP2 SWAP4 PUSH1 0x0 MSTORE PUSH1 0x20 PUSH1 0x0 KECCAK256 SWAP1 PUSH1 0x0 JUMPDEST DUP2 DUP2 LT PUSH2 0x4C0 JUMPI POP POP POP DUP2 PUSH2 0x47D SWAP2 SUB DUP3 PUSH2 0x1669 JUMP JUMPDEST PUSH1 0x40 MLOAD SWAP2 DUP3 SWAP2 PUSH1 0x20 DUP4 ADD SWAP1 PUSH1 0x20 DUP5 MSTORE MLOAD DUP1 SWAP2 MSTORE PUSH1 0x40 DUP4 ADD SWAP2 SWAP1 PUSH1 0x0 JUMPDEST DUP2 DUP2 LT PUSH2 0x4A7 JUMPI POP POP POP SUB SWAP1 RETURN JUMPDEST DUP3 MLOAD DUP5 MSTORE DUP6 SWAP5 POP PUSH1 0x20 SWAP4 DUP5 ADD SWAP4 SWAP1 SWAP3 ADD SWAP2 PUSH1 0x1 ADD PUSH2 0x499 JUMP JUMPDEST DUP3 SLOAD DUP5 MSTORE PUSH1 0x20 SWAP1 SWAP4 ADD SWAP3 PUSH1 0x1 SWAP3 DUP4 ADD SWAP3 ADD PUSH2 0x467 JUMP JUMPDEST CALLVALUE PUSH2 0x318 JUMPI PUSH1 0x20 CALLDATASIZE PUSH1 0x3 NOT ADD SLT PUSH2 0x318 JUMPI PUSH1 0x4 CALLDATALOAD PUSH1 0x0 MSTORE PUSH1 0x2 PUSH1 0x20 MSTORE PUSH1 0x40 PUSH1 0x0 KECCAK256 PUSH1 0xFF PUSH1 0x6 DUP3 ADD SLOAD AND PUSH1 0x4 DUP2 LT ISZERO PUSH2 0x302 JUMPI PUSH2 0x517 PUSH1 0x7 PUSH2 0x52E SWAP4 ADD PUSH2 0x168B JUMP JUMPDEST SWAP1 PUSH1 0x1 PUSH1 0x40 MLOAD SWAP4 DUP5 SWAP4 PUSH1 0x40 DUP6 MSTORE PUSH1 0x40 DUP6 ADD SWAP1 PUSH2 0x172F JUMP JUMPDEST SWAP2 EQ PUSH1 0x20 DUP4 ADD MSTORE SUB SWAP1 RETURN JUMPDEST CALLVALUE PUSH2 0x318 JUMPI PUSH1 0x20 CALLDATASIZE PUSH1 0x3 NOT ADD SLT PUSH2 0x318 JUMPI PUSH1 0x4 CALLDATALOAD PUSH1 0x0 MSTORE PUSH1 0x2 PUSH1 0x20 MSTORE PUSH1 0x40 PUSH1 0x0 KECCAK256 PUSH1 0x1 DUP1 PUSH1 0xA0 SHL SUB DUP2 SLOAD AND PUSH1 0x1 DUP3 ADD SLOAD SWAP2 PUSH2 0x576 PUSH1 0x2 DUP3 ADD PUSH2 0x168B JUMP JUMPDEST PUSH2 0x5FE PUSH1 0x3 DUP4 ADD SLOAD PUSH1 0x4 DUP5 ADD SLOAD PUSH2 0x5F1 PUSH1 0x5 DUP7 ADD SLOAD PUSH1 0xFF PUSH1 0x6 DUP9 ADD SLOAD AND SWAP1 PUSH2 0x5A0 PUSH1 0x7 DUP10 ADD PUSH2 0x168B JUMP JUMPDEST SWAP4 PUSH2 0x5D7 PUSH1 0x9 PUSH1 0x1 DUP1 PUSH1 0xA0 SHL SUB PUSH1 0x8 DUP13 ADD SLOAD AND SWAP11 ADD SLOAD SWAP9 PUSH1 0x40 MLOAD SWAP13 DUP14 SWAP13 DUP14 MSTORE PUSH1 0x20 DUP14 ADD MSTORE PUSH2 0x140 PUSH1 0x40 DUP14 ADD MSTORE PUSH2 0x140 DUP13 ADD SWAP1 PUSH2 0x172F JUMP JUMPDEST SWAP6 PUSH1 0x60 DUP12 ADD MSTORE PUSH1 0x80 DUP11 ADD MSTORE PUSH1 0xA0 DUP10 ADD MSTORE PUSH1 0xC0 DUP9 ADD SWAP1 PUSH2 0x1770 JUMP JUMPDEST DUP6 DUP3 SUB PUSH1 0xE0 DUP8 ADD MSTORE PUSH2 0x172F JUMP JUMPDEST SWAP2 PUSH2 0x100 DUP5 ADD MSTORE PUSH2 0x120 DUP4 ADD MSTORE SUB SWAP1 RETURN JUMPDEST CALLVALUE PUSH2 0x318 JUMPI PUSH1 0x0 CALLDATASIZE PUSH1 0x3 NOT ADD SLT PUSH2 0x318 JUMPI PUSH1 0x0 SLOAD PUSH1 0x40 MLOAD PUSH1 0x1 PUSH1 0x1 PUSH1 0xA0 SHL SUB SWAP1 SWAP2 AND DUP2 MSTORE PUSH1 0x20 SWAP1 RETURN JUMPDEST CALLVALUE PUSH2 0x318 JUMPI PUSH1 0x20 CALLDATASIZE PUSH1 0x3 NOT ADD SLT PUSH2 0x318 JUMPI PUSH1 0x4 CALLDATALOAD DUP1 PUSH1 0x0 MSTORE PUSH1 0x2 PUSH1 0x20 MSTORE PUSH1 0x40 PUSH1 0x0 KECCAK256 PUSH1 0x6 DUP2 ADD PUSH1 0xFF DUP2 SLOAD AND PUSH1 0x4 DUP2 LT ISZERO PUSH2 0x302 JUMPI PUSH2 0x676 SWAP1 ISZERO PUSH2 0x17DC JUMP JUMPDEST PUSH1 0x5 DUP3 ADD SLOAD NUMBER GT ISZERO PUSH2 0x6F2 JUMPI DUP1 SLOAD PUSH1 0xFF NOT AND PUSH1 0x2 OR SWAP1 SSTORE DUP1 SLOAD PUSH1 0x3 SWAP1 SWAP2 ADD SLOAD PUSH1 0x0 SWAP2 DUP3 SWAP2 DUP3 SWAP2 DUP3 SWAP2 SWAP1 PUSH1 0x1 PUSH1 0x1 PUSH1 0xA0 SHL SUB AND DUP3 DUP3 ISZERO PUSH2 0x6E9 JUMPI JUMPDEST CALL ISZERO PUSH2 0x6DD JUMPI PUSH32 0x6FE0249982EC39FF41CBE0301E6C114ECA4EBB1720320066B62D957F1163CBAA PUSH1 0x0 DUP1 LOG2 STOP JUMPDEST PUSH1 0x40 MLOAD RETURNDATASIZE PUSH1 0x0 DUP3 RETURNDATACOPY RETURNDATASIZE SWAP1 REVERT JUMPDEST POP PUSH2 0x8FC PUSH2 0x6B0 JUMP JUMPDEST PUSH1 0x40 MLOAD PUSH3 0x461BCD PUSH1 0xE5 SHL DUP2 MSTORE PUSH1 0x20 PUSH1 0x4 DUP3 ADD MSTORE PUSH1 0xF PUSH1 0x24 DUP3 ADD MSTORE PUSH15 0x139BDD08195E1C1A5C9959081E595D PUSH1 0x8A SHL PUSH1 0x44 DUP3 ADD MSTORE PUSH1 0x64 SWAP1 REVERT JUMPDEST CALLVALUE PUSH2 0x318 JUMPI PUSH1 0x60 CALLDATASIZE PUSH1 0x3 NOT ADD SLT PUSH2 0x318 JUMPI PUSH1 0x4 CALLDATALOAD PUSH1 0x24 CALLDATALOAD PUSH8 0xFFFFFFFFFFFFFFFF DUP2 GT PUSH2 0x318 JUMPI PUSH2 0x75D SWAP1 CALLDATASIZE SWAP1 PUSH1 0x4 ADD PUSH2 0x15E4 JUMP JUMPDEST PUSH1 0x44 CALLDATALOAD SWAP3 SWAP2 PUSH2 0x76A PUSH2 0x183F JUMP JUMPDEST DUP3 PUSH1 0x0 MSTORE PUSH1 0x2 PUSH1 0x20 MSTORE PUSH1 0x40 PUSH1 0x0 KECCAK256 SWAP2 PUSH1 0x6 DUP4 ADD PUSH1 0xFF DUP2 SLOAD AND PUSH1 0x4 DUP2 LT ISZERO PUSH2 0x302 JUMPI PUSH2 0x795 SWAP1 ISZERO PUSH2 0x17DC JUMP JUMPDEST PUSH1 0x5 DUP5 ADD SLOAD NUMBER GT PUSH2 0xB26 JUMPI DUP2 ISZERO PUSH2 0xAF2 JUMPI CALLER PUSH1 0x0 MSTORE PUSH1 0x6 PUSH1 0x20 MSTORE PUSH1 0xFF PUSH1 0x40 PUSH1 0x0 KECCAK256 SLOAD AND ISZERO PUSH2 0xAAD JUMPI PUSH1 0xB SLOAD PUSH1 0x1 PUSH1 0x1 PUSH1 0xA0 SHL SUB AND DUP1 ISZERO ISZERO DUP1 PUSH2 0xAA4 JUMPI JUMPDEST PUSH2 0x989 JUMPI JUMPDEST POP DUP1 SLOAD PUSH1 0xFF NOT AND PUSH1 0x1 OR SWAP1 SSTORE PUSH1 0x7 DUP4 ADD SWAP2 PUSH8 0xFFFFFFFFFFFFFFFF DUP3 GT PUSH2 0x973 JUMPI PUSH2 0x80B DUP3 PUSH2 0x805 DUP6 SLOAD PUSH2 0x1612 JUMP JUMPDEST DUP6 PUSH2 0x178A JUMP JUMPDEST PUSH1 0x0 SWAP1 PUSH1 0x1F DUP4 GT PUSH1 0x1 EQ PUSH2 0x90D JUMPI SWAP2 DUP1 PUSH2 0x841 SWAP3 PUSH1 0x3 SWAP7 SWAP6 SWAP5 PUSH1 0x0 SWAP3 PUSH2 0x902 JUMPI JUMPDEST POP POP DUP2 PUSH1 0x1 SHL SWAP2 PUSH1 0x0 NOT SWAP1 PUSH1 0x3 SHL SHR NOT AND OR SWAP1 JUMP JUMPDEST SWAP1 SSTORE JUMPDEST PUSH1 0x8 DUP2 DUP2 ADD DUP1 SLOAD PUSH1 0x1 PUSH1 0x1 PUSH1 0xA0 SHL SUB NOT AND CALLER OR SWAP1 SSTORE PUSH1 0x9 DUP3 ADD DUP6 SWAP1 SSTORE SWAP2 ADD SLOAD SWAP1 SLOAD DUP1 DUP3 MUL SWAP1 DUP3 ISZERO DUP4 DUP4 DIV SWAP1 SWAP2 EQ OR ISZERO PUSH2 0x8EC JUMPI PUSH2 0x2710 SWAP1 DIV SWAP1 DUP2 DUP2 SUB SWAP1 DUP1 DUP3 GT PUSH2 0x8EC JUMPI PUSH1 0x0 DUP1 SWAP4 SWAP3 DUP2 SWAP4 SWAP3 DUP4 PUSH2 0x89E DUP5 SWAP6 PUSH1 0x9 SLOAD PUSH2 0x177D JUMP JUMPDEST PUSH1 0x9 SSTORE DUP4 SWAP2 EQ PUSH2 0x8E3 JUMPI JUMPDEST CALLER SWAP1 CALL ISZERO PUSH2 0x6DD JUMPI PUSH1 0x40 MLOAD SWAP2 DUP3 MSTORE PUSH32 0xB68ACAADC409E87420A9DDA716ACA513F181D79BA21500902A72B44122ACC5A4 PUSH1 0x20 CALLER SWAP4 LOG3 PUSH1 0x1 DUP1 SSTORE STOP JUMPDEST POP PUSH2 0x8FC PUSH2 0x8A9 JUMP JUMPDEST PUSH4 0x4E487B71 PUSH1 0xE0 SHL PUSH1 0x0 MSTORE PUSH1 0x11 PUSH1 0x4 MSTORE PUSH1 0x24 PUSH1 0x0 REVERT JUMPDEST ADD CALLDATALOAD SWAP1 POP DUP9 DUP1 PUSH2 0x82C JUMP JUMPDEST DUP4 DUP3 MSTORE PUSH1 0x20 DUP3 KECCAK256 SWAP2 PUSH1 0x1F NOT DUP5 AND DUP2 JUMPDEST DUP2 DUP2 LT PUSH2 0x95B JUMPI POP SWAP2 PUSH1 0x1 SWAP4 SWAP2 DUP6 PUSH1 0x3 SWAP9 SWAP8 SWAP7 SWAP5 LT PUSH2 0x943 JUMPI JUMPDEST POP POP POP DUP2 SHL ADD SWAP1 SSTORE PUSH2 0x844 JUMP JUMPDEST ADD CALLDATALOAD PUSH1 0x0 NOT DUP4 DUP9 SHL PUSH1 0xF8 AND SHR NOT AND SWAP1 SSTORE DUP8 DUP1 DUP1 PUSH2 0x936 JUMP JUMPDEST SWAP2 SWAP4 PUSH1 0x20 PUSH1 0x1 DUP2 SWAP3 DUP8 DUP8 ADD CALLDATALOAD DUP2 SSTORE ADD SWAP6 ADD SWAP3 ADD PUSH2 0x91C JUMP JUMPDEST PUSH4 0x4E487B71 PUSH1 0xE0 SHL PUSH1 0x0 MSTORE PUSH1 0x41 PUSH1 0x4 MSTORE PUSH1 0x24 PUSH1 0x0 REVERT JUMPDEST PUSH1 0x40 PUSH2 0xA02 SWAP2 PUSH1 0x1 DUP8 ADD SLOAD SWAP1 DUP3 MLOAD SWAP2 DUP11 PUSH1 0x20 DUP5 ADD MSTORE PUSH1 0x20 DUP4 MSTORE PUSH2 0x9AC DUP5 DUP5 PUSH2 0x1669 JUMP JUMPDEST PUSH1 0x0 DUP5 MLOAD DUP1 SWAP7 DUP2 SWAP6 DUP3 SWAP5 PUSH4 0xE2DD6745 PUSH1 0xE0 SHL DUP5 MSTORE PUSH1 0x4 DUP5 ADD MSTORE PUSH1 0x80 PUSH1 0x24 DUP5 ADD MSTORE DUP11 PUSH1 0x84 DUP5 ADD MSTORE DUP11 DUP13 PUSH1 0xA4 DUP6 ADD CALLDATACOPY DUP4 PUSH1 0xA4 DUP13 DUP6 ADD ADD MSTORE PUSH1 0xA4 PUSH1 0x1F NOT PUSH1 0x1F DUP14 ADD AND DUP5 ADD PUSH1 0x3 NOT DUP3 DUP7 DUP4 SUB ADD ADD PUSH1 0x44 DUP7 ADD MSTORE ADD SWAP1 PUSH2 0x172F JUMP JUMPDEST PUSH1 0x2 PUSH1 0x64 DUP4 ADD MSTORE SUB SWAP3 GAS CALL SWAP1 DUP2 ISZERO PUSH2 0x6DD JUMPI PUSH1 0x0 SWAP2 PUSH2 0xA62 JUMPI JUMPDEST POP ISZERO PUSH2 0xA28 JUMPI DUP7 PUSH2 0x7D7 JUMP JUMPDEST PUSH1 0x40 MLOAD PUSH3 0x461BCD PUSH1 0xE5 SHL DUP2 MSTORE PUSH1 0x20 PUSH1 0x4 DUP3 ADD MSTORE PUSH1 0x12 PUSH1 0x24 DUP3 ADD MSTORE PUSH18 0x24B73B30B634B2103D35A6A610383937B7B3 PUSH1 0x71 SHL PUSH1 0x44 DUP3 ADD MSTORE PUSH1 0x64 SWAP1 REVERT JUMPDEST PUSH1 0x40 DUP2 RETURNDATASIZE PUSH1 0x40 GT PUSH2 0xA9C JUMPI JUMPDEST DUP2 PUSH2 0xA7B PUSH1 0x40 SWAP4 DUP4 PUSH2 0x1669 JUMP JUMPDEST DUP2 ADD SUB SLT PUSH2 0xA98 JUMPI MLOAD SWAP1 DUP2 ISZERO ISZERO DUP3 SUB PUSH2 0xA95 JUMPI POP DUP8 PUSH2 0xA1C JUMP JUMPDEST DUP1 REVERT JUMPDEST POP DUP1 REVERT JUMPDEST RETURNDATASIZE SWAP2 POP PUSH2 0xA6E JUMP JUMPDEST POP DUP7 ISZERO ISZERO PUSH2 0x7D2 JUMP JUMPDEST PUSH1 0x40 MLOAD PUSH3 0x461BCD PUSH1 0xE5 SHL DUP2 MSTORE PUSH1 0x20 PUSH1 0x4 DUP3 ADD MSTORE PUSH1 0x18 PUSH1 0x24 DUP3 ADD MSTORE PUSH32 0x4E6F7420726567697374657265642066756C66696C6C65720000000000000000 PUSH1 0x44 DUP3 ADD MSTORE PUSH1 0x64 SWAP1 REVERT JUMPDEST PUSH1 0x40 MLOAD PUSH3 0x461BCD PUSH1 0xE5 SHL DUP2 MSTORE PUSH1 0x20 PUSH1 0x4 DUP3 ADD MSTORE PUSH1 0xC PUSH1 0x24 DUP3 ADD MSTORE PUSH12 0x115B5C1D1E481C995CDD5B1D PUSH1 0xA2 SHL PUSH1 0x44 DUP3 ADD MSTORE PUSH1 0x64 SWAP1 REVERT JUMPDEST PUSH1 0x40 MLOAD PUSH3 0x461BCD PUSH1 0xE5 SHL DUP2 MSTORE PUSH1 0x20 PUSH1 0x4 DUP3 ADD MSTORE PUSH1 0xF PUSH1 0x24 DUP3 ADD MSTORE PUSH15 0x14995C5D595CDD08195E1C1A5C9959 PUSH1 0x8A SHL PUSH1 0x44 DUP3 ADD MSTORE PUSH1 0x64 SWAP1 REVERT JUMPDEST CALLVALUE PUSH2 0x318 JUMPI PUSH1 0x20 CALLDATASIZE PUSH1 0x3 NOT ADD SLT PUSH2 0x318 JUMPI PUSH1 0x4 CALLDATALOAD PUSH2 0xB79 PUSH2 0x1816 JUMP JUMPDEST PUSH2 0x3E8 DUP2 GT PUSH2 0xB87 JUMPI PUSH1 0x8 SSTORE STOP JUMPDEST PUSH1 0x40 MLOAD PUSH3 0x461BCD PUSH1 0xE5 SHL DUP2 MSTORE PUSH1 0x20 PUSH1 0x4 DUP3 ADD MSTORE PUSH1 0xC PUSH1 0x24 DUP3 ADD MSTORE PUSH12 0x8CCACA40E8DEDE40D0D2CED PUSH1 0xA3 SHL PUSH1 0x44 DUP3 ADD MSTORE PUSH1 0x64 SWAP1 REVERT JUMPDEST CALLVALUE PUSH2 0x318 JUMPI PUSH1 0x20 CALLDATASIZE PUSH1 0x3 NOT ADD SLT PUSH2 0x318 JUMPI PUSH1 0x4 CALLDATALOAD PUSH2 0xBD7 PUSH2 0x1816 JUMP JUMPDEST DUP1 PUSH1 0x0 MSTORE PUSH1 0x4 PUSH1 0x20 MSTORE PUSH1 0x40 PUSH1 0x0 KECCAK256 PUSH1 0xFF NOT DUP2 SLOAD AND SWAP1 SSTORE PUSH32 0xCE0CD684ED1C15A1013DAB20BED811FA182D3E28342B5BE924D2CEF7A103BB1 PUSH1 0x0 DUP1 LOG2 STOP JUMPDEST CALLVALUE PUSH2 0x318 JUMPI PUSH1 0x0 CALLDATASIZE PUSH1 0x3 NOT ADD SLT PUSH2 0x318 JUMPI PUSH2 0xC2D PUSH2 0x1816 JUMP JUMPDEST PUSH1 0x0 DUP1 SLOAD PUSH1 0x1 PUSH1 0x1 PUSH1 0xA0 SHL SUB NOT DUP2 AND DUP3 SSTORE PUSH1 0x1 PUSH1 0x1 PUSH1 0xA0 SHL SUB AND PUSH32 0x8BE0079C531659141344CD1FD0A4F28419497F9722A3DAAFE3B4186F6B6457E0 DUP3 DUP1 LOG3 STOP JUMPDEST CALLVALUE PUSH2 0x318 JUMPI PUSH1 0x20 CALLDATASIZE PUSH1 0x3 NOT ADD SLT PUSH2 0x318 JUMPI PUSH2 0xC86 PUSH2 0x15A0 JUMP JUMPDEST PUSH2 0xC8E PUSH2 0x1816 JUMP JUMPDEST PUSH1 0x1 PUSH1 0x1 PUSH1 0xA0 SHL SUB AND PUSH1 0x0 SWAP1 DUP2 MSTORE PUSH1 0x6 PUSH1 0x20 MSTORE PUSH1 0x40 SWAP1 KECCAK256 DUP1 SLOAD PUSH1 0xFF NOT AND SWAP1 SSTORE STOP JUMPDEST CALLVALUE PUSH2 0x318 JUMPI PUSH1 0x0 CALLDATASIZE PUSH1 0x3 NOT ADD SLT PUSH2 0x318 JUMPI PUSH1 0x20 PUSH1 0xA SLOAD PUSH1 0x40 MLOAD SWAP1 DUP2 MSTORE RETURN JUMPDEST CALLVALUE PUSH2 0x318 JUMPI PUSH1 0x0 CALLDATASIZE PUSH1 0x3 NOT ADD SLT PUSH2 0x318 JUMPI PUSH1 0x20 PUSH1 0x9 SLOAD PUSH1 0x40 MLOAD SWAP1 DUP2 MSTORE RETURN JUMPDEST CALLVALUE PUSH2 0x318 JUMPI PUSH1 0x20 CALLDATASIZE PUSH1 0x3 NOT ADD SLT PUSH2 0x318 JUMPI PUSH1 0x4 CALLDATALOAD PUSH2 0xD07 PUSH2 0x183F JUMP JUMPDEST PUSH1 0x0 DUP2 DUP2 MSTORE PUSH1 0x2 PUSH1 0x20 MSTORE PUSH1 0x40 SWAP1 KECCAK256 DUP1 SLOAD PUSH1 0x1 PUSH1 0x1 PUSH1 0xA0 SHL SUB AND CALLER SUB PUSH2 0xD9E JUMPI PUSH1 0x6 DUP2 ADD SWAP1 PUSH1 0xFF DUP3 SLOAD AND SWAP1 PUSH1 0x4 DUP3 LT ISZERO PUSH2 0x302 JUMPI PUSH1 0x0 DUP1 DUP1 PUSH1 0x3 DUP2 SWAP5 DUP8 PUSH2 0xD4E DUP11 SWAP9 ISZERO PUSH2 0x17DC JUMP JUMPDEST DUP1 SLOAD PUSH1 0xFF NOT AND DUP4 OR SWAP1 SSTORE ADD SLOAD DUP2 DUP2 ISZERO PUSH2 0xD95 JUMPI JUMPDEST CALLER SWAP1 CALL ISZERO PUSH2 0x6DD JUMPI PUSH32 0x1F29B89AE1587D701CB5136665B2E833AC2FC99DDB4481E1083ADE509BCFEAC1 PUSH1 0x0 DUP1 LOG2 PUSH1 0x1 DUP1 SSTORE STOP JUMPDEST POP PUSH2 0x8FC PUSH2 0xD62 JUMP JUMPDEST PUSH1 0x40 MLOAD PUSH3 0x461BCD PUSH1 0xE5 SHL DUP2 MSTORE PUSH1 0x20 PUSH1 0x4 DUP3 ADD MSTORE PUSH1 0xD PUSH1 0x24 DUP3 ADD MSTORE PUSH13 0x2737BA103932B8BAB2B9BA32B9 PUSH1 0x99 SHL PUSH1 0x44 DUP3 ADD MSTORE PUSH1 0x64 SWAP1 REVERT JUMPDEST CALLVALUE PUSH2 0x318 JUMPI PUSH1 0x20 CALLDATASIZE PUSH1 0x3 NOT ADD SLT PUSH2 0x318 JUMPI PUSH1 0x4 CALLDATALOAD PUSH2 0xDEF PUSH2 0x1816 JUMP JUMPDEST DUP1 PUSH1 0x0 MSTORE PUSH1 0x4 PUSH1 0x20 MSTORE PUSH1 0x40 PUSH1 0x0 KECCAK256 PUSH1 0x1 PUSH1 0xFF NOT DUP3 SLOAD AND OR SWAP1 SSTORE PUSH32 0x6D29AA35CC15482F5E65960776A66652041832392A7D89E3F1488B4E40D15284 PUSH1 0x0 DUP1 LOG2 STOP JUMPDEST CALLVALUE PUSH2 0x318 JUMPI PUSH1 0x0 CALLDATASIZE PUSH1 0x3 NOT ADD SLT PUSH2 0x318 JUMPI PUSH2 0xE48 PUSH2 0x1816 JUMP JUMPDEST PUSH1 0x0 DUP1 DUP1 DUP1 PUSH1 0x9 SLOAD DUP2 PUSH1 0x9 SSTORE PUSH1 0x1 DUP1 PUSH1 0xA0 SHL SUB DUP3 SLOAD AND DUP3 DUP3 ISZERO PUSH2 0xE6E JUMPI JUMPDEST CALL ISZERO PUSH2 0x6DD JUMPI STOP JUMPDEST POP PUSH2 0x8FC PUSH2 0xE66 JUMP JUMPDEST CALLVALUE PUSH2 0x318 JUMPI PUSH1 0x0 CALLDATASIZE PUSH1 0x3 NOT ADD SLT PUSH2 0x318 JUMPI PUSH1 0xB SLOAD PUSH1 0x40 MLOAD PUSH1 0x1 PUSH1 0x1 PUSH1 0xA0 SHL SUB SWAP1 SWAP2 AND DUP2 MSTORE PUSH1 0x20 SWAP1 RETURN JUMPDEST CALLVALUE PUSH2 0x318 JUMPI PUSH1 0x0 CALLDATASIZE PUSH1 0x3 NOT ADD SLT PUSH2 0x318 JUMPI PUSH1 0x20 PUSH1 0x8 SLOAD PUSH1 0x40 MLOAD SWAP1 DUP2 MSTORE RETURN JUMPDEST PUSH1 0x60 CALLDATASIZE PUSH1 0x3 NOT ADD SLT PUSH2 0x318 JUMPI PUSH1 0x4 CALLDATALOAD PUSH1 0x24 CALLDATALOAD PUSH8 0xFFFFFFFFFFFFFFFF DUP2 GT PUSH2 0x318 JUMPI PUSH2 0xEED SWAP1 CALLDATASIZE SWAP1 PUSH1 0x4 ADD PUSH2 0x15E4 JUMP JUMPDEST SWAP2 PUSH1 0x44 CALLDATALOAD SWAP2 PUSH2 0xEFA PUSH2 0x183F JUMP JUMPDEST CALLVALUE ISZERO PUSH2 0x13DD JUMPI DUP2 PUSH1 0x0 MSTORE PUSH1 0x4 PUSH1 0x20 MSTORE PUSH1 0xFF PUSH1 0x40 PUSH1 0x0 KECCAK256 SLOAD AND DUP1 ISZERO PUSH2 0x13C9 JUMPI JUMPDEST ISZERO PUSH2 0x138F JUMPI DUP4 ISZERO PUSH2 0x135C JUMPI PUSH2 0x2710 DUP5 GT PUSH2 0x1325 JUMPI PUSH1 0xA SLOAD PUSH1 0x0 NOT DUP2 EQ PUSH2 0x8EC JUMPI PUSH1 0x1 DUP2 ADD PUSH1 0xA SSTORE PUSH1 0x40 MLOAD PUSH1 0x20 DUP2 ADD SWAP2 CALLER PUSH1 0x60 SHL DUP4 MSTORE DUP5 PUSH1 0x34 DUP4 ADD MSTORE TIMESTAMP PUSH1 0x54 DUP4 ADD MSTORE PUSH1 0x74 DUP3 ADD MSTORE PUSH1 0x74 DUP2 MSTORE PUSH2 0xF6E PUSH1 0x94 DUP3 PUSH2 0x1669 JUMP JUMPDEST MLOAD SWAP1 KECCAK256 SWAP3 DUP1 ISZERO PUSH2 0x1319 JUMPI PUSH2 0xF83 SWAP1 JUMPDEST NUMBER PUSH2 0x177D JUMP JUMPDEST SWAP1 PUSH1 0x20 SWAP5 PUSH1 0x40 MLOAD SWAP2 PUSH2 0xF95 DUP8 DUP5 PUSH2 0x1669 JUMP JUMPDEST PUSH1 0x0 DUP4 MSTORE PUSH1 0x1F NOT DUP8 ADD CALLDATASIZE DUP9 DUP6 ADD CALLDATACOPY PUSH1 0x40 MLOAD SWAP3 PUSH2 0xFB0 DUP5 PUSH2 0x164C JUMP JUMPDEST CALLER DUP5 MSTORE DUP8 DUP5 ADD SWAP3 DUP7 DUP5 MSTORE PUSH8 0xFFFFFFFFFFFFFFFF DUP2 GT PUSH2 0x973 JUMPI PUSH1 0x40 MLOAD SWAP3 PUSH2 0xFE0 PUSH1 0x1F DUP4 ADD PUSH1 0x1F NOT AND DUP12 ADD DUP6 PUSH2 0x1669 JUMP JUMPDEST DUP2 DUP5 MSTORE CALLDATASIZE DUP3 DUP3 ADD GT PUSH2 0x318 JUMPI DUP2 PUSH1 0x0 SWAP3 DUP12 SWAP3 DUP4 DUP8 ADD CALLDATACOPY DUP5 ADD ADD MSTORE PUSH1 0x40 DUP5 ADD SWAP2 DUP3 MSTORE PUSH1 0x60 DUP5 ADD SWAP5 CALLVALUE DUP7 MSTORE PUSH1 0x80 DUP6 ADD TIMESTAMP DUP2 MSTORE PUSH1 0xA0 DUP7 ADD SWAP2 DUP3 MSTORE PUSH1 0xC0 DUP7 ADD SWAP7 PUSH1 0x0 DUP9 MSTORE PUSH1 0xE0 DUP8 ADD SWAP4 DUP5 MSTORE PUSH2 0x100 DUP8 ADD SWAP5 PUSH1 0x0 DUP7 MSTORE PUSH2 0x120 DUP9 ADD SWAP7 PUSH1 0x0 DUP9 MSTORE DUP12 PUSH1 0x0 MSTORE PUSH1 0x2 DUP14 MSTORE PUSH1 0x40 PUSH1 0x0 KECCAK256 SWAP9 PUSH1 0x1 DUP1 PUSH1 0xA0 SHL SUB SWAP1 PUSH1 0x1 DUP1 PUSH1 0xA0 SHL SUB SWAP1 MLOAD AND AND PUSH12 0xFFFFFFFFFFFFFFFFFFFFFFFF PUSH1 0xA0 SHL DUP11 SLOAD AND OR DUP10 SSTORE MLOAD PUSH1 0x1 DUP10 ADD SSTORE PUSH1 0x2 DUP9 ADD SWAP1 MLOAD DUP1 MLOAD PUSH8 0xFFFFFFFFFFFFFFFF DUP2 GT PUSH2 0x973 JUMPI PUSH2 0x109D DUP2 PUSH2 0x805 DUP6 SLOAD PUSH2 0x1612 JUMP JUMPDEST DUP14 DUP1 PUSH1 0x1F DUP4 GT PUSH1 0x1 EQ PUSH2 0x12B0 JUMPI POP DUP2 SWAP1 PUSH2 0x10CD SWAP4 PUSH1 0x0 SWAP3 PUSH2 0x12A5 JUMPI POP POP DUP2 PUSH1 0x1 SHL SWAP2 PUSH1 0x0 NOT SWAP1 PUSH1 0x3 SHL SHR NOT AND OR SWAP1 JUMP JUMPDEST SWAP1 SSTORE JUMPDEST MLOAD PUSH1 0x3 DUP8 ADD SSTORE MLOAD PUSH1 0x4 DUP7 ADD SSTORE MLOAD PUSH1 0x5 DUP6 ADD SSTORE PUSH1 0x6 DUP5 ADD SWAP5 MLOAD SWAP5 PUSH1 0x4 DUP7 LT ISZERO PUSH2 0x302 JUMPI PUSH1 0x0 SWAP6 PUSH1 0xFF DUP1 NOT DUP4 SLOAD AND SWAP2 AND OR SWAP1 SSTORE PUSH1 0x7 DUP5 ADD SWAP1 MLOAD DUP1 MLOAD SWAP1 PUSH8 0xFFFFFFFFFFFFFFFF DUP3 GT PUSH2 0x1291 JUMPI PUSH2 0x1127 DUP3 PUSH2 0x805 DUP6 SLOAD PUSH2 0x1612 JUMP JUMPDEST DUP10 SWAP1 PUSH1 0x1F DUP4 GT PUSH1 0x1 EQ PUSH2 0x1229 JUMPI SWAP2 DUP1 PUSH2 0x115B SWAP3 PUSH1 0x9 SWAP8 SWAP7 SWAP6 SWAP5 DUP11 SWAP3 PUSH2 0x121E JUMPI POP POP DUP2 PUSH1 0x1 SHL SWAP2 PUSH1 0x0 NOT SWAP1 PUSH1 0x3 SHL SHR NOT AND OR SWAP1 JUMP JUMPDEST SWAP1 SSTORE JUMPDEST MLOAD PUSH1 0x8 DUP5 ADD DUP1 SLOAD PUSH1 0x1 PUSH1 0x1 PUSH1 0xA0 SHL SUB NOT AND PUSH1 0x1 PUSH1 0x1 PUSH1 0xA0 SHL SUB SWAP3 SWAP1 SWAP3 AND SWAP2 SWAP1 SWAP2 OR SWAP1 SSTORE MLOAD SWAP2 ADD SSTORE CALLER DUP2 MSTORE PUSH1 0x3 DUP5 MSTORE PUSH1 0x40 DUP2 KECCAK256 DUP1 SLOAD SWAP1 PUSH9 0x10000000000000000 DUP3 LT ISZERO PUSH2 0x120A JUMPI SWAP1 PUSH2 0x11B4 SWAP2 PUSH1 0x1 DUP3 ADD DUP2 SSTORE PUSH2 0x15B6 JUMP JUMPDEST DUP2 SWAP3 SWAP2 SLOAD SWAP2 POP PUSH1 0x3 SHL SWAP1 DUP5 DUP3 SHL SWAP2 PUSH1 0x0 NOT SWAP1 SHL NOT AND OR SWAP1 SSTORE PUSH1 0x40 MLOAD SWAP1 DUP2 MSTORE CALLVALUE DUP4 DUP3 ADD MSTORE DUP2 PUSH32 0x73379E0EB0A8C43416B93A5AD73C8F23ED1B510614AD484EFDAD08B000E357A9 PUSH1 0x40 CALLER SWAP4 LOG3 PUSH1 0x1 DUP1 SSTORE PUSH1 0x40 MLOAD SWAP1 DUP2 MSTORE RETURN JUMPDEST PUSH4 0x4E487B71 PUSH1 0xE0 SHL DUP4 MSTORE PUSH1 0x41 PUSH1 0x4 MSTORE PUSH1 0x24 DUP4 REVERT JUMPDEST ADD MLOAD SWAP1 POP DUP13 DUP1 PUSH2 0x82C JUMP JUMPDEST DUP4 DUP9 MSTORE DUP11 DUP9 KECCAK256 SWAP2 SWAP1 PUSH1 0x1F NOT DUP5 AND DUP10 JUMPDEST DUP14 DUP3 DUP3 LT PUSH2 0x127B JUMPI POP POP SWAP2 PUSH1 0x1 SWAP4 SWAP2 DUP6 PUSH1 0x9 SWAP10 SWAP9 SWAP8 SWAP7 SWAP5 LT PUSH2 0x1262 JUMPI JUMPDEST POP POP POP DUP2 SHL ADD SWAP1 SSTORE PUSH2 0x115E JUMP JUMPDEST ADD MLOAD PUSH1 0x0 NOT PUSH1 0xF8 DUP5 PUSH1 0x3 SHL AND SHR NOT AND SWAP1 SSTORE DUP12 DUP1 DUP1 PUSH2 0x1255 JUMP JUMPDEST PUSH1 0x1 DUP6 SWAP7 DUP3 SWAP4 SWAP7 DUP7 ADD MLOAD DUP2 SSTORE ADD SWAP6 ADD SWAP4 ADD PUSH2 0x1238 JUMP JUMPDEST PUSH4 0x4E487B71 PUSH1 0xE0 SHL DUP8 MSTORE PUSH1 0x41 PUSH1 0x4 MSTORE PUSH1 0x24 DUP8 REVERT JUMPDEST ADD MLOAD SWAP1 POP DUP16 DUP1 PUSH2 0x82C JUMP JUMPDEST SWAP2 SWAP3 PUSH1 0x1F NOT DUP5 AND DUP6 PUSH1 0x0 MSTORE DUP4 PUSH1 0x0 KECCAK256 SWAP4 PUSH1 0x0 SWAP1 JUMPDEST DUP3 DUP3 LT PUSH2 0x1301 JUMPI POP POP SWAP1 DUP5 PUSH1 0x1 SWAP6 SWAP5 SWAP4 SWAP3 LT PUSH2 0x12E8 JUMPI JUMPDEST POP POP POP DUP2 SHL ADD SWAP1 SSTORE PUSH2 0x10D0 JUMP JUMPDEST ADD MLOAD PUSH1 0x0 NOT PUSH1 0xF8 DUP5 PUSH1 0x3 SHL AND SHR NOT AND SWAP1 SSTORE DUP15 DUP1 DUP1 PUSH2 0x12DB JUMP JUMPDEST DUP1 PUSH1 0x1 DUP7 SWAP8 DUP3 SWAP5 SWAP8 DUP8 ADD MLOAD DUP2 SSTORE ADD SWAP7 ADD SWAP5 ADD SWAP1 PUSH2 0x12C4 JUMP JUMPDEST POP PUSH2 0xF83 PUSH1 0x7 SLOAD PUSH2 0xF7D JUMP JUMPDEST PUSH1 0x40 MLOAD PUSH3 0x461BCD PUSH1 0xE5 SHL DUP2 MSTORE PUSH1 0x20 PUSH1 0x4 DUP3 ADD MSTORE PUSH1 0xF PUSH1 0x24 DUP3 ADD MSTORE PUSH15 0x496E70757420746F6F206C61726765 PUSH1 0x88 SHL PUSH1 0x44 DUP3 ADD MSTORE PUSH1 0x64 SWAP1 REVERT JUMPDEST PUSH1 0x40 MLOAD PUSH3 0x461BCD PUSH1 0xE5 SHL DUP2 MSTORE PUSH1 0x20 PUSH1 0x4 DUP3 ADD MSTORE PUSH1 0xB PUSH1 0x24 DUP3 ADD MSTORE PUSH11 0x115B5C1D1E481A5B9C1D5D PUSH1 0xAA SHL PUSH1 0x44 DUP3 ADD MSTORE PUSH1 0x64 SWAP1 REVERT JUMPDEST PUSH1 0x40 MLOAD PUSH3 0x461BCD PUSH1 0xE5 SHL DUP2 MSTORE PUSH1 0x20 PUSH1 0x4 DUP3 ADD MSTORE PUSH1 0x12 PUSH1 0x24 DUP3 ADD MSTORE PUSH18 0x135BD9195B081B9BDD08185C1C1C9BDD9959 PUSH1 0x72 SHL PUSH1 0x44 DUP3 ADD MSTORE PUSH1 0x64 SWAP1 REVERT JUMPDEST POP PUSH1 0x0 SLOAD PUSH1 0x1 PUSH1 0x1 PUSH1 0xA0 SHL SUB AND CALLER EQ PUSH2 0xF19 JUMP JUMPDEST PUSH1 0x40 MLOAD PUSH3 0x461BCD PUSH1 0xE5 SHL DUP2 MSTORE PUSH1 0x20 PUSH1 0x4 DUP3 ADD MSTORE PUSH1 0x10 PUSH1 0x24 DUP3 ADD MSTORE PUSH16 0x14185E5B595B9D081C995C5D5A5C9959 PUSH1 0x82 SHL PUSH1 0x44 DUP3 ADD MSTORE PUSH1 0x64 SWAP1 REVERT JUMPDEST CALLVALUE PUSH2 0x318 JUMPI PUSH1 0x20 CALLDATASIZE PUSH1 0x3 NOT ADD SLT PUSH2 0x318 JUMPI PUSH1 0x4 CALLDATALOAD PUSH2 0x1431 PUSH2 0x1816 JUMP JUMPDEST PUSH1 0xA DUP2 LT ISZERO DUP1 PUSH2 0x147D JUMPI JUMPDEST ISZERO PUSH2 0x1446 JUMPI PUSH1 0x7 SSTORE STOP JUMPDEST PUSH1 0x40 MLOAD PUSH3 0x461BCD PUSH1 0xE5 SHL DUP2 MSTORE PUSH1 0x20 PUSH1 0x4 DUP3 ADD MSTORE PUSH1 0xF PUSH1 0x24 DUP3 ADD MSTORE PUSH15 0x125B9D985B1A59081D1A5B595BDD5D PUSH1 0x8A SHL PUSH1 0x44 DUP3 ADD MSTORE PUSH1 0x64 SWAP1 REVERT JUMPDEST POP PUSH2 0x2710 DUP2 GT ISZERO PUSH2 0x143C JUMP JUMPDEST CALLVALUE PUSH2 0x318 JUMPI PUSH1 0x20 CALLDATASIZE PUSH1 0x3 NOT ADD SLT PUSH2 0x318 JUMPI PUSH1 0x1 PUSH1 0x1 PUSH1 0xA0 SHL SUB PUSH2 0x14AA PUSH2 0x15A0 JUMP JUMPDEST AND PUSH1 0x0 MSTORE PUSH1 0x6 PUSH1 0x20 MSTORE PUSH1 0x20 PUSH1 0xFF PUSH1 0x40 PUSH1 0x0 KECCAK256 SLOAD AND PUSH1 0x40 MLOAD SWAP1 ISZERO ISZERO DUP2 MSTORE RETURN JUMPDEST CALLVALUE PUSH2 0x318 JUMPI PUSH1 0x40 CALLDATASIZE PUSH1 0x3 NOT ADD SLT PUSH2 0x318 JUMPI PUSH2 0x14E1 PUSH2 0x15A0 JUMP JUMPDEST PUSH1 0x1 PUSH1 0x1 PUSH1 0xA0 SHL SUB AND PUSH1 0x0 SWAP1 DUP2 MSTORE PUSH1 0x3 PUSH1 0x20 MSTORE PUSH1 0x40 SWAP1 KECCAK256 DUP1 SLOAD PUSH1 0x24 CALLDATALOAD SWAP2 SWAP1 DUP3 LT ISZERO PUSH2 0x318 JUMPI PUSH1 0x20 SWAP2 PUSH2 0x1512 SWAP2 PUSH2 0x15B6 JUMP JUMPDEST SWAP1 SLOAD SWAP1 PUSH1 0x3 SHL SHR PUSH1 0x40 MLOAD SWAP1 DUP2 MSTORE RETURN JUMPDEST CALLVALUE PUSH2 0x318 JUMPI PUSH1 0x0 CALLDATASIZE PUSH1 0x3 NOT ADD SLT PUSH2 0x318 JUMPI PUSH1 0x20 PUSH1 0x5 SLOAD PUSH1 0x40 MLOAD SWAP1 DUP2 MSTORE RETURN JUMPDEST CALLVALUE PUSH2 0x318 JUMPI PUSH1 0x0 CALLDATASIZE PUSH1 0x3 NOT ADD SLT PUSH2 0x318 JUMPI PUSH1 0x20 PUSH1 0x7 SLOAD PUSH1 0x40 MLOAD SWAP1 DUP2 MSTORE RETURN JUMPDEST CALLVALUE PUSH2 0x318 JUMPI PUSH1 0x20 CALLDATASIZE PUSH1 0x3 NOT ADD SLT PUSH2 0x318 JUMPI PUSH2 0x1576 PUSH2 0x15A0 JUMP JUMPDEST PUSH2 0x157E PUSH2 0x1816 JUMP JUMPDEST PUSH1 0xB DUP1 SLOAD PUSH1 0x1 PUSH1 0x1 PUSH1 0xA0 SHL SUB NOT AND PUSH1 0x1 PUSH1 0x1 PUSH1 0xA0 SHL SUB SWAP3 SWAP1 SWAP3 AND SWAP2 SWAP1 SWAP2 OR SWAP1 SSTORE STOP JUMPDEST PUSH1 0x4 CALLDATALOAD SWAP1 PUSH1 0x1 PUSH1 0x1 PUSH1 0xA0 SHL SUB DUP3 AND DUP3 SUB PUSH2 0x318 JUMPI JUMP JUMPDEST DUP1 SLOAD DUP3 LT ISZERO PUSH2 0x15CE JUMPI PUSH1 0x0 MSTORE PUSH1 0x20 PUSH1 0x0 KECCAK256 ADD SWAP1 PUSH1 0x0 SWAP1 JUMP JUMPDEST PUSH4 0x4E487B71 PUSH1 0xE0 SHL PUSH1 0x0 MSTORE PUSH1 0x32 PUSH1 0x4 MSTORE PUSH1 0x24 PUSH1 0x0 REVERT JUMPDEST SWAP2 DUP2 PUSH1 0x1F DUP5 ADD SLT ISZERO PUSH2 0x318 JUMPI DUP3 CALLDATALOAD SWAP2 PUSH8 0xFFFFFFFFFFFFFFFF DUP4 GT PUSH2 0x318 JUMPI PUSH1 0x20 DUP4 DUP2 DUP7 ADD SWAP6 ADD ADD GT PUSH2 0x318 JUMPI JUMP JUMPDEST SWAP1 PUSH1 0x1 DUP3 DUP2 SHR SWAP3 AND DUP1 ISZERO PUSH2 0x1642 JUMPI JUMPDEST PUSH1 0x20 DUP4 LT EQ PUSH2 0x162C JUMPI JUMP JUMPDEST PUSH4 0x4E487B71 PUSH1 0xE0 SHL PUSH1 0x0 MSTORE PUSH1 0x22 PUSH1 0x4 MSTORE PUSH1 0x24 PUSH1 0x0 REVERT JUMPDEST SWAP2 PUSH1 0x7F AND SWAP2 PUSH2 0x1621 JUMP JUMPDEST PUSH2 0x140 DUP2 ADD SWAP1 DUP2 LT PUSH8 0xFFFFFFFFFFFFFFFF DUP3 GT OR PUSH2 0x973 JUMPI PUSH1 0x40 MSTORE JUMP JUMPDEST SWAP1 PUSH1 0x1F DUP1 NOT SWAP2 ADD AND DUP2 ADD SWAP1 DUP2 LT PUSH8 0xFFFFFFFFFFFFFFFF DUP3 GT OR PUSH2 0x973 JUMPI PUSH1 0x40 MSTORE JUMP JUMPDEST SWAP1 PUSH1 0x40 MLOAD SWAP2 DUP3 PUSH1 0x0 DUP3 SLOAD SWAP3 PUSH2 0x169F DUP5 PUSH2 0x1612 JUMP JUMPDEST DUP1 DUP5 MSTORE SWAP4 PUSH1 0x1 DUP2 AND SWAP1 DUP2 ISZERO PUSH2 0x170D JUMPI POP PUSH1 0x1 EQ PUSH2 0x16C6 JUMPI JUMPDEST POP PUSH2 0x16C4 SWAP3 POP SUB DUP4 PUSH2 0x1669 JUMP JUMPDEST JUMP JUMPDEST SWAP1 POP PUSH1 0x0 SWAP3 SWAP2 SWAP3 MSTORE PUSH1 0x20 PUSH1 0x0 KECCAK256 SWAP1 PUSH1 0x0 SWAP2 JUMPDEST DUP2 DUP4 LT PUSH2 0x16F1 JUMPI POP POP SWAP1 PUSH1 0x20 PUSH2 0x16C4 SWAP3 DUP3 ADD ADD CODESIZE PUSH2 0x16B7 JUMP JUMPDEST PUSH1 0x20 SWAP2 SWAP4 POP DUP1 PUSH1 0x1 SWAP2 SLOAD DUP4 DUP6 DUP10 ADD ADD MSTORE ADD SWAP2 ADD SWAP1 SWAP2 DUP5 SWAP3 PUSH2 0x16D8 JUMP JUMPDEST SWAP1 POP PUSH1 0x20 SWAP3 POP PUSH2 0x16C4 SWAP5 SWAP2 POP PUSH1 0xFF NOT AND DUP3 DUP5 ADD MSTORE ISZERO ISZERO PUSH1 0x5 SHL DUP3 ADD ADD CODESIZE PUSH2 0x16B7 JUMP JUMPDEST SWAP2 SWAP1 DUP3 MLOAD SWAP3 DUP4 DUP3 MSTORE PUSH1 0x0 JUMPDEST DUP5 DUP2 LT PUSH2 0x175B JUMPI POP POP DUP3 PUSH1 0x0 PUSH1 0x20 DUP1 SWAP5 SWAP6 DUP5 ADD ADD MSTORE PUSH1 0x1F DUP1 NOT SWAP2 ADD AND ADD ADD SWAP1 JUMP JUMPDEST DUP1 PUSH1 0x20 DUP1 SWAP3 DUP5 ADD ADD MLOAD DUP3 DUP3 DUP7 ADD ADD MSTORE ADD PUSH2 0x173A JUMP JUMPDEST SWAP1 PUSH1 0x4 DUP3 LT ISZERO PUSH2 0x302 JUMPI MSTORE JUMP JUMPDEST SWAP2 SWAP1 DUP3 ADD DUP1 SWAP3 GT PUSH2 0x8EC JUMPI JUMP JUMPDEST PUSH1 0x1F DUP3 GT PUSH2 0x1797 JUMPI POP POP POP JUMP JUMPDEST PUSH1 0x0 MSTORE PUSH1 0x20 PUSH1 0x0 KECCAK256 SWAP1 PUSH1 0x20 PUSH1 0x1F DUP5 ADD PUSH1 0x5 SHR DUP4 ADD SWAP4 LT PUSH2 0x17D2 JUMPI JUMPDEST PUSH1 0x1F ADD PUSH1 0x5 SHR ADD SWAP1 JUMPDEST DUP2 DUP2 LT PUSH2 0x17C6 JUMPI POP POP JUMP JUMPDEST PUSH1 0x0 DUP2 SSTORE PUSH1 0x1 ADD PUSH2 0x17BB JUMP JUMPDEST SWAP1 SWAP2 POP DUP2 SWAP1 PUSH2 0x17B2 JUMP JUMPDEST ISZERO PUSH2 0x17E3 JUMPI JUMP JUMPDEST PUSH1 0x40 MLOAD PUSH3 0x461BCD PUSH1 0xE5 SHL DUP2 MSTORE PUSH1 0x20 PUSH1 0x4 DUP3 ADD MSTORE PUSH1 0xB PUSH1 0x24 DUP3 ADD MSTORE PUSH11 0x4E6F742070656E64696E67 PUSH1 0xA8 SHL PUSH1 0x44 DUP3 ADD MSTORE PUSH1 0x64 SWAP1 REVERT JUMPDEST PUSH1 0x0 SLOAD PUSH1 0x1 PUSH1 0x1 PUSH1 0xA0 SHL SUB AND CALLER SUB PUSH2 0x182A JUMPI JUMP JUMPDEST PUSH4 0x118CDAA7 PUSH1 0xE0 SHL PUSH1 0x0 MSTORE CALLER PUSH1 0x4 MSTORE PUSH1 0x24 PUSH1 0x0 REVERT JUMPDEST PUSH1 0x2 PUSH1 0x1 SLOAD EQ PUSH2 0x1850 JUMPI PUSH1 0x2 PUSH1 0x1 SSTORE JUMP JUMPDEST PUSH4 0x3EE5AEB5 PUSH1 0xE0 SHL PUSH1 0x0 MSTORE PUSH1 0x4 PUSH1 0x0 REVERT INVALID LOG2 PUSH5 0x6970667358 0x22 SLT KECCAK256 0xF8 PUSH11 0xC829E52B96C4EA9C384013 SGT CODESIZE GASPRICE SWAP9 0xDC DUP16 SUB DUP12 XOR PUSH32 0xB786A096C35C0E7E5564736F6C634300081C0033000000000000000000000000 "},"methodIdentifiers":{"accumulatedFees()":"587f5ed7","approveModel(bytes32)":"4b7716e3","approvedModels(bytes32)":"da185c92","cancelRequest(bytes32)":"50125546","defaultTimeout()":"09f3f566","fulfillRequest(bytes32,bytes,bytes32)":"82ae0f97","getRequest(bytes32)":"fb1e61ca","getResult(bytes32)":"add4c784","getUserRequests(address)":"b337cf74","isModelApproved(bytes32)":"4b9f24d8","markExpired(bytes32)":"87e0aeb2","minFulfillerStake()":"21c39b36","owner()":"8da5cb5b","protocolFeeBps()":"35659fb8","registerFulfiller(address)":"d8be38b6","registeredFulfillers(address)":"2b9b4ada","renounceOwnership()":"715018a6","requestAI(bytes32,bytes,uint256)":"3115129c","requestCount()":"5badbe4c","requests(bytes32)":"9d866985","revokeFulfiller(address)":"5fc76a0b","revokeModel(bytes32)":"717909b9","setDefaultTimeout(uint256)":"2c6c5866","setProtocolFee(uint256)":"787dce3d","setZkMLVerifier(address)":"066655ef","transferOwnership(address)":"f2fde38b","userRequests(address,uint256)":"263cb6b6","withdrawFees()":"476343ee","zkmlVerifier()":"3c813394"}}}}}