{"src/templates/ExampleGame.sol":{"ExampleGame":{"abi":[{"inputs":[{"internalType":"address","name":"_aiOracle","type":"address"},{"internalType":"bytes32","name":"_modelHash","type":"bytes32"}],"stateMutability":"nonpayable","type":"constructor"},{"anonymous":false,"inputs":[{"indexed":true,"internalType":"address","name":"player","type":"address"},{"indexed":false,"internalType":"uint256","name":"score","type":"uint256"},{"indexed":true,"internalType":"bytes32","name":"requestId","type":"bytes32"}],"name":"GameCompleted","type":"event"},{"anonymous":false,"inputs":[{"indexed":true,"internalType":"address","name":"player","type":"address"},{"indexed":true,"internalType":"bytes32","name":"requestId","type":"bytes32"}],"name":"GameFailed","type":"event"},{"anonymous":false,"inputs":[{"indexed":true,"internalType":"address","name":"player","type":"address"},{"indexed":true,"internalType":"bytes32","name":"requestId","type":"bytes32"}],"name":"GameRequested","type":"event"},{"inputs":[],"name":"aiOracle","outputs":[{"internalType":"contract AIOracle","name":"","type":"address"}],"stateMutability":"view","type":"function"},{"inputs":[{"internalType":"bytes32","name":"requestId","type":"bytes32"}],"name":"claimResult","outputs":[],"stateMutability":"nonpayable","type":"function"},{"inputs":[],"name":"gameModelHash","outputs":[{"internalType":"bytes32","name":"","type":"bytes32"}],"stateMutability":"view","type":"function"},{"inputs":[{"internalType":"bytes32","name":"requestId","type":"bytes32"}],"name":"getGameStatus","outputs":[{"internalType":"address","name":"player","type":"address"},{"internalType":"bool","name":"completed","type":"bool"}],"stateMutability":"view","type":"function"},{"inputs":[{"internalType":"address","name":"player","type":"address"}],"name":"getScore","outputs":[{"internalType":"uint256","name":"","type":"uint256"}],"stateMutability":"view","type":"function"},{"inputs":[{"internalType":"bytes32","name":"","type":"bytes32"}],"name":"pendingGames","outputs":[{"internalType":"address","name":"","type":"address"}],"stateMutability":"view","type":"function"},{"inputs":[{"internalType":"bytes","name":"playerMove","type":"bytes"}],"name":"play","outputs":[{"internalType":"bytes32","name":"","type":"bytes32"}],"stateMutability":"payable","type":"function"},{"inputs":[{"internalType":"address","name":"","type":"address"}],"name":"scores","outputs":[{"internalType":"uint256","name":"","type":"uint256"}],"stateMutability":"view","type":"function"},{"inputs":[],"name":"totalGames","outputs":[{"internalType":"uint256","name":"","type":"uint256"}],"stateMutability":"view","type":"function"},{"inputs":[{"internalType":"bytes32","name":"newModelHash","type":"bytes32"}],"name":"updateModel","outputs":[],"stateMutability":"nonpayable","type":"function"}],"evm":{"bytecode":{"linkReferences":{},"object":"608034607857601f6107a838819003918201601f19168301916001600160401b03831184841017607d57808492604094855283398101031260785780516001600160a01b038116919082900360785760200151600080546001600160a01b03191690921790915560015560405161071490816100948239f35b600080fd5b634e487b7160e01b600052604160045260246000fdfe608080604052600436101561001357600080fd5b60003560e01c908163146c638d1461054f57508063226e522714610360578063242cd2ca146103475780632c4e591b1461032957806331b221cd1461030057806376dd110f1461008d578063a11ae76b146102cc578063c386cfe2146102ae578063cf0d56f4146100d05763d47875d01461008d57600080fd5b346100cb5760203660031901126100cb576004356001600160a01b038116908190036100cb5760005260026020526020604060002054604051908152f35b600080fd5b346100cb5760203660031901126100cb576004356000818152600360205260409020546001600160a01b03168015610277573381036102425760008054604051632b7531e160e21b8152600481018590529190829060249082906001600160a01b03165afa801561023657600091600091610211575b50156101d757610155906106ba565b81600052600260205260406000208054918083018093116101c1577fa8746280378f2628365c975fe01ab2d4d260003d0c3a5ab9433f4e787ce280679260209255846000526003825260406000206bffffffffffffffffffffffff60a01b8154169055604051908152a3005b634e487b7160e01b600052601160045260246000fd5b60405162461bcd60e51b815260206004820152601260248201527111d85b59481b9bdd0818dbdb5c1b195d195960721b6044820152606490fd5b905061023091503d806000833e61022881836105db565b810190610636565b84610146565b6040513d6000823e3d90fd5b60405162461bcd60e51b815260206004820152600d60248201526c4e6f7420796f75722067616d6560981b6044820152606490fd5b60405162461bcd60e51b815260206004820152600f60248201526e155b9adb9bdddb881c995c5d595cdd608a1b6044820152606490fd5b346100cb5760003660031901126100cb576020600154604051908152f35b346100cb5760203660031901126100cb576004356000526003602052602060018060a01b0360406000205416604051908152f35b346100cb5760003660031901126100cb576000546040516001600160a01b039091168152602090f35b346100cb5760003660031901126100cb576020600454604051908152f35b346100cb5760203660031901126100cb57600435600155005b60203660031901126100cb5760043567ffffffffffffffff81116100cb57366023820112156100cb57806004013567ffffffffffffffff81116100cb5736602482840101116100cb5766038d7ea4c6800034106105115761045260209161040f60c0604051838194602488840199338b52608060408601528260a086015201848401376000838284010152436060830152426080830152601f801991011681010301601f1981018352826105db565b60018060a01b036000541690608460015460405196879586948593630c4544a760e21b855260048501526060602485015251809281606486015285850190610613565b60006044830152601f01601f1916810103019134905af1908115610236576000916104dc575b50600081815260036020526040902080546001600160a01b031916331790556004549060001982146101c1576001602092016004556040519080337f341c593e0cefc3a29826c9a8e347a3a42699e66aa7e010bc99d34e97b479f481600080a38152f35b906020823d602011610509575b816104f6602093836105db565b8101031261050657505181610478565b80fd5b3d91506104e9565b60405162461bcd60e51b8152602060048201526016602482015275135a5b9a5b5d5b481cdd185ad9481c995c5d5a5c995960521b6044820152606490fd5b346100cb5760203660031901126100cb57600480356000818152600360205260408120548154632b7531e160e21b8652938501929092526001600160a01b0391821692909184916024918391165afa8015610236576040926000916105be575b50825191825215156020820152f35b6105d391503d806000833e61022881836105db565b9050836105af565b90601f8019910116810190811067ffffffffffffffff8211176105fd57604052565b634e487b7160e01b600052604160045260246000fd5b60005b8381106106265750506000910152565b8181015183820152602001610616565b91906040838203126100cb57825167ffffffffffffffff81116100cb5783019080601f830112156100cb5781519167ffffffffffffffff83116105fd576040519161068b601f8501601f1916602001846105db565b838352602084830101116100cb576020926106ab91848085019101610613565b92015180151581036100cb5790565b8051602081106106d75781602091810103126100cb576020015190565b5050600a9056fea2646970667358221220187d308e6034a875df3bb2c4b88e876ecb68eb31e9e852675fd614f6e23002ed64736f6c634300081c0033","opcodes":"PUSH1 0x80 CALLVALUE PUSH1 0x78 JUMPI PUSH1 0x1F PUSH2 0x7A8 CODESIZE DUP2 SWAP1 SUB SWAP2 DUP3 ADD PUSH1 0x1F NOT AND DUP4 ADD SWAP2 PUSH1 0x1 PUSH1 0x1 PUSH1 0x40 SHL SUB DUP4 GT DUP5 DUP5 LT OR PUSH1 0x7D JUMPI DUP1 DUP5 SWAP3 PUSH1 0x40 SWAP5 DUP6 MSTORE DUP4 CODECOPY DUP2 ADD SUB SLT PUSH1 0x78 JUMPI DUP1 MLOAD PUSH1 0x1 PUSH1 0x1 PUSH1 0xA0 SHL SUB DUP2 AND SWAP2 SWAP1 DUP3 SWAP1 SUB PUSH1 0x78 JUMPI PUSH1 0x20 ADD MLOAD PUSH1 0x0 DUP1 SLOAD PUSH1 0x1 PUSH1 0x1 PUSH1 0xA0 SHL SUB NOT AND SWAP1 SWAP3 OR SWAP1 SWAP2 SSTORE PUSH1 0x1 SSTORE PUSH1 0x40 MLOAD PUSH2 0x714 SWAP1 DUP2 PUSH2 0x94 DUP3 CODECOPY RETURN JUMPDEST PUSH1 0x0 DUP1 REVERT JUMPDEST PUSH4 0x4E487B71 PUSH1 0xE0 SHL PUSH1 0x0 MSTORE PUSH1 0x41 PUSH1 0x4 MSTORE PUSH1 0x24 PUSH1 0x0 REVERT INVALID PUSH1 0x80 DUP1 PUSH1 0x40 MSTORE PUSH1 0x4 CALLDATASIZE LT ISZERO PUSH2 0x13 JUMPI PUSH1 0x0 DUP1 REVERT JUMPDEST PUSH1 0x0 CALLDATALOAD PUSH1 0xE0 SHR SWAP1 DUP2 PUSH4 0x146C638D EQ PUSH2 0x54F JUMPI POP DUP1 PUSH4 0x226E5227 EQ PUSH2 0x360 JUMPI DUP1 PUSH4 0x242CD2CA EQ PUSH2 0x347 JUMPI DUP1 PUSH4 0x2C4E591B EQ PUSH2 0x329 JUMPI DUP1 PUSH4 0x31B221CD EQ PUSH2 0x300 JUMPI DUP1 PUSH4 0x76DD110F EQ PUSH2 0x8D JUMPI DUP1 PUSH4 0xA11AE76B EQ PUSH2 0x2CC JUMPI DUP1 PUSH4 0xC386CFE2 EQ PUSH2 0x2AE JUMPI DUP1 PUSH4 0xCF0D56F4 EQ PUSH2 0xD0 JUMPI PUSH4 0xD47875D0 EQ PUSH2 0x8D JUMPI PUSH1 0x0 DUP1 REVERT JUMPDEST CALLVALUE PUSH2 0xCB JUMPI PUSH1 0x20 CALLDATASIZE PUSH1 0x3 NOT ADD SLT PUSH2 0xCB JUMPI PUSH1 0x4 CALLDATALOAD PUSH1 0x1 PUSH1 0x1 PUSH1 0xA0 SHL SUB DUP2 AND SWAP1 DUP2 SWAP1 SUB PUSH2 0xCB JUMPI PUSH1 0x0 MSTORE PUSH1 0x2 PUSH1 0x20 MSTORE PUSH1 0x20 PUSH1 0x40 PUSH1 0x0 KECCAK256 SLOAD PUSH1 0x40 MLOAD SWAP1 DUP2 MSTORE RETURN JUMPDEST PUSH1 0x0 DUP1 REVERT JUMPDEST CALLVALUE PUSH2 0xCB JUMPI PUSH1 0x20 CALLDATASIZE PUSH1 0x3 NOT ADD SLT PUSH2 0xCB JUMPI PUSH1 0x4 CALLDATALOAD PUSH1 0x0 DUP2 DUP2 MSTORE PUSH1 0x3 PUSH1 0x20 MSTORE PUSH1 0x40 SWAP1 KECCAK256 SLOAD PUSH1 0x1 PUSH1 0x1 PUSH1 0xA0 SHL SUB AND DUP1 ISZERO PUSH2 0x277 JUMPI CALLER DUP2 SUB PUSH2 0x242 JUMPI PUSH1 0x0 DUP1 SLOAD PUSH1 0x40 MLOAD PUSH4 0x2B7531E1 PUSH1 0xE2 SHL DUP2 MSTORE PUSH1 0x4 DUP2 ADD DUP6 SWAP1 MSTORE SWAP2 SWAP1 DUP3 SWAP1 PUSH1 0x24 SWAP1 DUP3 SWAP1 PUSH1 0x1 PUSH1 0x1 PUSH1 0xA0 SHL SUB AND GAS STATICCALL DUP1 ISZERO PUSH2 0x236 JUMPI PUSH1 0x0 SWAP2 PUSH1 0x0 SWAP2 PUSH2 0x211 JUMPI JUMPDEST POP ISZERO PUSH2 0x1D7 JUMPI PUSH2 0x155 SWAP1 PUSH2 0x6BA JUMP JUMPDEST DUP2 PUSH1 0x0 MSTORE PUSH1 0x2 PUSH1 0x20 MSTORE PUSH1 0x40 PUSH1 0x0 KECCAK256 DUP1 SLOAD SWAP2 DUP1 DUP4 ADD DUP1 SWAP4 GT PUSH2 0x1C1 JUMPI PUSH32 0xA8746280378F2628365C975FE01AB2D4D260003D0C3A5AB9433F4E787CE28067 SWAP3 PUSH1 0x20 SWAP3 SSTORE DUP5 PUSH1 0x0 MSTORE PUSH1 0x3 DUP3 MSTORE PUSH1 0x40 PUSH1 0x0 KECCAK256 PUSH12 0xFFFFFFFFFFFFFFFFFFFFFFFF PUSH1 0xA0 SHL DUP2 SLOAD AND SWAP1 SSTORE PUSH1 0x40 MLOAD SWAP1 DUP2 MSTORE LOG3 STOP JUMPDEST PUSH4 0x4E487B71 PUSH1 0xE0 SHL PUSH1 0x0 MSTORE PUSH1 0x11 PUSH1 0x4 MSTORE PUSH1 0x24 PUSH1 0x0 REVERT JUMPDEST PUSH1 0x40 MLOAD PUSH3 0x461BCD PUSH1 0xE5 SHL DUP2 MSTORE PUSH1 0x20 PUSH1 0x4 DUP3 ADD MSTORE PUSH1 0x12 PUSH1 0x24 DUP3 ADD MSTORE PUSH18 0x11D85B59481B9BDD0818DBDB5C1B195D1959 PUSH1 0x72 SHL PUSH1 0x44 DUP3 ADD MSTORE PUSH1 0x64 SWAP1 REVERT JUMPDEST SWAP1 POP PUSH2 0x230 SWAP2 POP RETURNDATASIZE DUP1 PUSH1 0x0 DUP4 RETURNDATACOPY PUSH2 0x228 DUP2 DUP4 PUSH2 0x5DB JUMP JUMPDEST DUP2 ADD SWAP1 PUSH2 0x636 JUMP JUMPDEST DUP5 PUSH2 0x146 JUMP JUMPDEST PUSH1 0x40 MLOAD RETURNDATASIZE PUSH1 0x0 DUP3 RETURNDATACOPY RETURNDATASIZE SWAP1 REVERT JUMPDEST PUSH1 0x40 MLOAD PUSH3 0x461BCD PUSH1 0xE5 SHL DUP2 MSTORE PUSH1 0x20 PUSH1 0x4 DUP3 ADD MSTORE PUSH1 0xD PUSH1 0x24 DUP3 ADD MSTORE PUSH13 0x4E6F7420796F75722067616D65 PUSH1 0x98 SHL PUSH1 0x44 DUP3 ADD MSTORE PUSH1 0x64 SWAP1 REVERT JUMPDEST PUSH1 0x40 MLOAD PUSH3 0x461BCD PUSH1 0xE5 SHL DUP2 MSTORE PUSH1 0x20 PUSH1 0x4 DUP3 ADD MSTORE PUSH1 0xF PUSH1 0x24 DUP3 ADD MSTORE PUSH15 0x155B9ADB9BDDDB881C995C5D595CDD PUSH1 0x8A SHL PUSH1 0x44 DUP3 ADD MSTORE PUSH1 0x64 SWAP1 REVERT JUMPDEST CALLVALUE PUSH2 0xCB JUMPI PUSH1 0x0 CALLDATASIZE PUSH1 0x3 NOT ADD SLT PUSH2 0xCB JUMPI PUSH1 0x20 PUSH1 0x1 SLOAD PUSH1 0x40 MLOAD SWAP1 DUP2 MSTORE RETURN JUMPDEST CALLVALUE PUSH2 0xCB JUMPI PUSH1 0x20 CALLDATASIZE PUSH1 0x3 NOT ADD SLT PUSH2 0xCB JUMPI PUSH1 0x4 CALLDATALOAD PUSH1 0x0 MSTORE PUSH1 0x3 PUSH1 0x20 MSTORE PUSH1 0x20 PUSH1 0x1 DUP1 PUSH1 0xA0 SHL SUB PUSH1 0x40 PUSH1 0x0 KECCAK256 SLOAD AND PUSH1 0x40 MLOAD SWAP1 DUP2 MSTORE RETURN JUMPDEST CALLVALUE PUSH2 0xCB JUMPI PUSH1 0x0 CALLDATASIZE PUSH1 0x3 NOT ADD SLT PUSH2 0xCB JUMPI PUSH1 0x0 SLOAD PUSH1 0x40 MLOAD PUSH1 0x1 PUSH1 0x1 PUSH1 0xA0 SHL SUB SWAP1 SWAP2 AND DUP2 MSTORE PUSH1 0x20 SWAP1 RETURN JUMPDEST CALLVALUE PUSH2 0xCB JUMPI PUSH1 0x0 CALLDATASIZE PUSH1 0x3 NOT ADD SLT PUSH2 0xCB JUMPI PUSH1 0x20 PUSH1 0x4 SLOAD PUSH1 0x40 MLOAD SWAP1 DUP2 MSTORE RETURN JUMPDEST CALLVALUE PUSH2 0xCB JUMPI PUSH1 0x20 CALLDATASIZE PUSH1 0x3 NOT ADD SLT PUSH2 0xCB JUMPI PUSH1 0x4 CALLDATALOAD PUSH1 0x1 SSTORE STOP JUMPDEST PUSH1 0x20 CALLDATASIZE PUSH1 0x3 NOT ADD SLT PUSH2 0xCB JUMPI PUSH1 0x4 CALLDATALOAD PUSH8 0xFFFFFFFFFFFFFFFF DUP2 GT PUSH2 0xCB JUMPI CALLDATASIZE PUSH1 0x23 DUP3 ADD SLT ISZERO PUSH2 0xCB JUMPI DUP1 PUSH1 0x4 ADD CALLDATALOAD PUSH8 0xFFFFFFFFFFFFFFFF DUP2 GT PUSH2 0xCB JUMPI CALLDATASIZE PUSH1 0x24 DUP3 DUP5 ADD ADD GT PUSH2 0xCB JUMPI PUSH7 0x38D7EA4C68000 CALLVALUE LT PUSH2 0x511 JUMPI PUSH2 0x452 PUSH1 0x20 SWAP2 PUSH2 0x40F PUSH1 0xC0 PUSH1 0x40 MLOAD DUP4 DUP2 SWAP5 PUSH1 0x24 DUP9 DUP5 ADD SWAP10 CALLER DUP12 MSTORE PUSH1 0x80 PUSH1 0x40 DUP7 ADD MSTORE DUP3 PUSH1 0xA0 DUP7 ADD MSTORE ADD DUP5 DUP5 ADD CALLDATACOPY PUSH1 0x0 DUP4 DUP3 DUP5 ADD ADD MSTORE NUMBER PUSH1 0x60 DUP4 ADD MSTORE TIMESTAMP PUSH1 0x80 DUP4 ADD MSTORE PUSH1 0x1F DUP1 NOT SWAP2 ADD AND DUP2 ADD SUB ADD PUSH1 0x1F NOT DUP2 ADD DUP4 MSTORE DUP3 PUSH2 0x5DB JUMP JUMPDEST PUSH1 0x1 DUP1 PUSH1 0xA0 SHL SUB PUSH1 0x0 SLOAD AND SWAP1 PUSH1 0x84 PUSH1 0x1 SLOAD PUSH1 0x40 MLOAD SWAP7 DUP8 SWAP6 DUP7 SWAP5 DUP6 SWAP4 PUSH4 0xC4544A7 PUSH1 0xE2 SHL DUP6 MSTORE PUSH1 0x4 DUP6 ADD MSTORE PUSH1 0x60 PUSH1 0x24 DUP6 ADD MSTORE MLOAD DUP1 SWAP3 DUP2 PUSH1 0x64 DUP7 ADD MSTORE DUP6 DUP6 ADD SWAP1 PUSH2 0x613 JUMP JUMPDEST PUSH1 0x0 PUSH1 0x44 DUP4 ADD MSTORE PUSH1 0x1F ADD PUSH1 0x1F NOT AND DUP2 ADD SUB ADD SWAP2 CALLVALUE SWAP1 GAS CALL SWAP1 DUP2 ISZERO PUSH2 0x236 JUMPI PUSH1 0x0 SWAP2 PUSH2 0x4DC JUMPI JUMPDEST POP PUSH1 0x0 DUP2 DUP2 MSTORE PUSH1 0x3 PUSH1 0x20 MSTORE PUSH1 0x40 SWAP1 KECCAK256 DUP1 SLOAD PUSH1 0x1 PUSH1 0x1 PUSH1 0xA0 SHL SUB NOT AND CALLER OR SWAP1 SSTORE PUSH1 0x4 SLOAD SWAP1 PUSH1 0x0 NOT DUP3 EQ PUSH2 0x1C1 JUMPI PUSH1 0x1 PUSH1 0x20 SWAP3 ADD PUSH1 0x4 SSTORE PUSH1 0x40 MLOAD SWAP1 DUP1 CALLER PUSH32 0x341C593E0CEFC3A29826C9A8E347A3A42699E66AA7E010BC99D34E97B479F481 PUSH1 0x0 DUP1 LOG3 DUP2 MSTORE RETURN JUMPDEST SWAP1 PUSH1 0x20 DUP3 RETURNDATASIZE PUSH1 0x20 GT PUSH2 0x509 JUMPI JUMPDEST DUP2 PUSH2 0x4F6 PUSH1 0x20 SWAP4 DUP4 PUSH2 0x5DB JUMP JUMPDEST DUP2 ADD SUB SLT PUSH2 0x506 JUMPI POP MLOAD DUP2 PUSH2 0x478 JUMP JUMPDEST DUP1 REVERT JUMPDEST RETURNDATASIZE SWAP2 POP PUSH2 0x4E9 JUMP JUMPDEST PUSH1 0x40 MLOAD PUSH3 0x461BCD PUSH1 0xE5 SHL DUP2 MSTORE PUSH1 0x20 PUSH1 0x4 DUP3 ADD MSTORE PUSH1 0x16 PUSH1 0x24 DUP3 ADD MSTORE PUSH22 0x135A5B9A5B5D5B481CDD185AD9481C995C5D5A5C9959 PUSH1 0x52 SHL PUSH1 0x44 DUP3 ADD MSTORE PUSH1 0x64 SWAP1 REVERT JUMPDEST CALLVALUE PUSH2 0xCB JUMPI PUSH1 0x20 CALLDATASIZE PUSH1 0x3 NOT ADD SLT PUSH2 0xCB JUMPI PUSH1 0x4 DUP1 CALLDATALOAD PUSH1 0x0 DUP2 DUP2 MSTORE PUSH1 0x3 PUSH1 0x20 MSTORE PUSH1 0x40 DUP2 KECCAK256 SLOAD DUP2 SLOAD PUSH4 0x2B7531E1 PUSH1 0xE2 SHL DUP7 MSTORE SWAP4 DUP6 ADD SWAP3 SWAP1 SWAP3 MSTORE PUSH1 0x1 PUSH1 0x1 PUSH1 0xA0 SHL SUB SWAP2 DUP3 AND SWAP3 SWAP1 SWAP2 DUP5 SWAP2 PUSH1 0x24 SWAP2 DUP4 SWAP2 AND GAS STATICCALL DUP1 ISZERO PUSH2 0x236 JUMPI PUSH1 0x40 SWAP3 PUSH1 0x0 SWAP2 PUSH2 0x5BE JUMPI JUMPDEST POP DUP3 MLOAD SWAP2 DUP3 MSTORE ISZERO ISZERO PUSH1 0x20 DUP3 ADD MSTORE RETURN JUMPDEST PUSH2 0x5D3 SWAP2 POP RETURNDATASIZE DUP1 PUSH1 0x0 DUP4 RETURNDATACOPY PUSH2 0x228 DUP2 DUP4 PUSH2 0x5DB JUMP JUMPDEST SWAP1 POP DUP4 PUSH2 0x5AF JUMP JUMPDEST SWAP1 PUSH1 0x1F DUP1 NOT SWAP2 ADD AND DUP2 ADD SWAP1 DUP2 LT PUSH8 0xFFFFFFFFFFFFFFFF DUP3 GT OR PUSH2 0x5FD JUMPI PUSH1 0x40 MSTORE JUMP JUMPDEST PUSH4 0x4E487B71 PUSH1 0xE0 SHL PUSH1 0x0 MSTORE PUSH1 0x41 PUSH1 0x4 MSTORE PUSH1 0x24 PUSH1 0x0 REVERT JUMPDEST PUSH1 0x0 JUMPDEST DUP4 DUP2 LT PUSH2 0x626 JUMPI POP POP PUSH1 0x0 SWAP2 ADD MSTORE JUMP JUMPDEST DUP2 DUP2 ADD MLOAD DUP4 DUP3 ADD MSTORE PUSH1 0x20 ADD PUSH2 0x616 JUMP JUMPDEST SWAP2 SWAP1 PUSH1 0x40 DUP4 DUP3 SUB SLT PUSH2 0xCB JUMPI DUP3 MLOAD PUSH8 0xFFFFFFFFFFFFFFFF DUP2 GT PUSH2 0xCB JUMPI DUP4 ADD SWAP1 DUP1 PUSH1 0x1F DUP4 ADD SLT ISZERO PUSH2 0xCB JUMPI DUP2 MLOAD SWAP2 PUSH8 0xFFFFFFFFFFFFFFFF DUP4 GT PUSH2 0x5FD JUMPI PUSH1 0x40 MLOAD SWAP2 PUSH2 0x68B PUSH1 0x1F DUP6 ADD PUSH1 0x1F NOT AND PUSH1 0x20 ADD DUP5 PUSH2 0x5DB JUMP JUMPDEST DUP4 DUP4 MSTORE PUSH1 0x20 DUP5 DUP4 ADD ADD GT PUSH2 0xCB JUMPI PUSH1 0x20 SWAP3 PUSH2 0x6AB SWAP2 DUP5 DUP1 DUP6 ADD SWAP2 ADD PUSH2 0x613 JUMP JUMPDEST SWAP3 ADD MLOAD DUP1 ISZERO ISZERO DUP2 SUB PUSH2 0xCB JUMPI SWAP1 JUMP JUMPDEST DUP1 MLOAD PUSH1 0x20 DUP2 LT PUSH2 0x6D7 JUMPI DUP2 PUSH1 0x20 SWAP2 DUP2 ADD SUB SLT PUSH2 0xCB JUMPI PUSH1 0x20 ADD MLOAD SWAP1 JUMP JUMPDEST POP POP PUSH1 0xA SWAP1 JUMP INVALID LOG2 PUSH5 0x6970667358 0x22 SLT KECCAK256 XOR PUSH30 0x308E6034A875DF3BB2C4B88E876ECB68EB31E9E852675FD614F6E23002ED PUSH5 0x736F6C6343 STOP ADDMOD SHR STOP CALLER "},"methodIdentifiers":{"aiOracle()":"31b221cd","claimResult(bytes32)":"cf0d56f4","gameModelHash()":"c386cfe2","getGameStatus(bytes32)":"146c638d","getScore(address)":"d47875d0","pendingGames(bytes32)":"a11ae76b","play(bytes)":"226e5227","scores(address)":"76dd110f","totalGames()":"2c4e591b","updateModel(bytes32)":"242cd2ca"}}}}}