{"src/TrainingEscrow.sol":{"TrainingEscrow":{"abi":[{"inputs":[{"internalType":"address","name":"_token","type":"address"},{"internalType":"uint256","name":"_slashRate","type":"uint256"}],"stateMutability":"nonpayable","type":"constructor"},{"inputs":[{"internalType":"address","name":"owner","type":"address"}],"name":"OwnableInvalidOwner","type":"error"},{"inputs":[{"internalType":"address","name":"account","type":"address"}],"name":"OwnableUnauthorizedAccount","type":"error"},{"inputs":[],"name":"ReentrancyGuardReentrantCall","type":"error"},{"inputs":[{"internalType":"address","name":"token","type":"address"}],"name":"SafeERC20FailedOperation","type":"error"},{"anonymous":false,"inputs":[{"indexed":true,"internalType":"address","name":"previousOwner","type":"address"},{"indexed":true,"internalType":"address","name":"newOwner","type":"address"}],"name":"OwnershipTransferred","type":"event"},{"anonymous":false,"inputs":[{"indexed":true,"internalType":"uint256","name":"taskId","type":"uint256"},{"indexed":true,"internalType":"address","name":"trainer","type":"address"},{"indexed":false,"internalType":"bytes32","name":"resultHash","type":"bytes32"}],"name":"ResultSubmitted","type":"event"},{"anonymous":false,"inputs":[{"indexed":true,"internalType":"uint256","name":"taskId","type":"uint256"},{"indexed":true,"internalType":"address","name":"trainer","type":"address"},{"indexed":false,"internalType":"uint256","name":"rewardAmount","type":"uint256"},{"indexed":false,"internalType":"uint256","name":"stakeReturned","type":"uint256"}],"name":"RewardDistributed","type":"event"},{"anonymous":false,"inputs":[{"indexed":true,"internalType":"uint256","name":"taskId","type":"uint256"},{"indexed":false,"internalType":"uint256","name":"refundAmount","type":"uint256"}],"name":"TaskCancelled","type":"event"},{"anonymous":false,"inputs":[{"indexed":true,"internalType":"uint256","name":"taskId","type":"uint256"}],"name":"TaskCompleted","type":"event"},{"anonymous":false,"inputs":[{"indexed":true,"internalType":"uint256","name":"taskId","type":"uint256"},{"indexed":true,"internalType":"address","name":"creator","type":"address"},{"indexed":false,"internalType":"bytes32","name":"modelHash","type":"bytes32"},{"indexed":false,"internalType":"uint256","name":"rewardAmount","type":"uint256"},{"indexed":false,"internalType":"uint256","name":"minStake","type":"uint256"},{"indexed":false,"internalType":"uint256","name":"deadline","type":"uint256"}],"name":"TaskCreated","type":"event"},{"anonymous":false,"inputs":[{"indexed":true,"internalType":"uint256","name":"taskId","type":"uint256"},{"indexed":true,"internalType":"address","name":"trainer","type":"address"},{"indexed":false,"internalType":"uint256","name":"stakeAmount","type":"uint256"}],"name":"TrainerJoined","type":"event"},{"anonymous":false,"inputs":[{"indexed":true,"internalType":"uint256","name":"taskId","type":"uint256"},{"indexed":true,"internalType":"address","name":"trainer","type":"address"},{"indexed":false,"internalType":"uint256","name":"slashAmount","type":"uint256"}],"name":"TrainerSlashed","type":"event"},{"anonymous":false,"inputs":[{"indexed":true,"internalType":"uint256","name":"taskId","type":"uint256"},{"indexed":true,"internalType":"address","name":"trainer","type":"address"},{"indexed":false,"internalType":"bool","name":"isValid","type":"bool"}],"name":"TrainerValidated","type":"event"},{"inputs":[{"internalType":"uint256","name":"taskId","type":"uint256"}],"name":"cancelTask","outputs":[],"stateMutability":"nonpayable","type":"function"},{"inputs":[{"internalType":"uint256","name":"taskId","type":"uint256"}],"name":"claimReward","outputs":[],"stateMutability":"nonpayable","type":"function"},{"inputs":[{"internalType":"uint256","name":"taskId","type":"uint256"}],"name":"completeTask","outputs":[],"stateMutability":"nonpayable","type":"function"},{"inputs":[{"internalType":"bytes32","name":"modelHash","type":"bytes32"},{"internalType":"uint256","name":"rewardAmount","type":"uint256"},{"internalType":"uint256","name":"minStake","type":"uint256"},{"internalType":"uint256","name":"maxTrainers","type":"uint256"},{"internalType":"uint256","name":"durationSeconds","type":"uint256"}],"name":"createTask","outputs":[{"internalType":"uint256","name":"taskId","type":"uint256"}],"stateMutability":"nonpayable","type":"function"},{"inputs":[{"internalType":"uint256","name":"taskId","type":"uint256"}],"name":"getTaskDetails","outputs":[{"internalType":"address","name":"creator","type":"address"},{"internalType":"bytes32","name":"modelHash","type":"bytes32"},{"internalType":"uint256","name":"rewardAmount","type":"uint256"},{"internalType":"uint256","name":"minStake","type":"uint256"},{"internalType":"uint256","name":"maxTrainers","type":"uint256"},{"internalType":"uint256","name":"deadline","type":"uint256"},{"internalType":"enum TrainingEscrow.TaskStatus","name":"status","type":"uint8"},{"internalType":"uint256","name":"trainerCount","type":"uint256"}],"stateMutability":"view","type":"function"},{"inputs":[{"internalType":"uint256","name":"taskId","type":"uint256"}],"name":"getTaskTrainers","outputs":[{"internalType":"address[]","name":"","type":"address[]"}],"stateMutability":"view","type":"function"},{"inputs":[{"internalType":"uint256","name":"taskId","type":"uint256"},{"internalType":"uint256","name":"stakeAmount","type":"uint256"}],"name":"joinTask","outputs":[],"stateMutability":"nonpayable","type":"function"},{"inputs":[],"name":"nextTaskId","outputs":[{"internalType":"uint256","name":"","type":"uint256"}],"stateMutability":"view","type":"function"},{"inputs":[],"name":"owner","outputs":[{"internalType":"address","name":"","type":"address"}],"stateMutability":"view","type":"function"},{"inputs":[],"name":"renounceOwnership","outputs":[],"stateMutability":"nonpayable","type":"function"},{"inputs":[{"internalType":"uint256","name":"newRate","type":"uint256"}],"name":"setSlashRate","outputs":[],"stateMutability":"nonpayable","type":"function"},{"inputs":[],"name":"slashRate","outputs":[{"internalType":"uint256","name":"","type":"uint256"}],"stateMutability":"view","type":"function"},{"inputs":[{"internalType":"uint256","name":"taskId","type":"uint256"},{"internalType":"bytes32","name":"resultHash","type":"bytes32"}],"name":"submitResult","outputs":[],"stateMutability":"nonpayable","type":"function"},{"inputs":[{"internalType":"uint256","name":"","type":"uint256"},{"internalType":"uint256","name":"","type":"uint256"}],"name":"taskTrainers","outputs":[{"internalType":"address","name":"","type":"address"}],"stateMutability":"view","type":"function"},{"inputs":[{"internalType":"uint256","name":"","type":"uint256"}],"name":"tasks","outputs":[{"internalType":"address","name":"creator","type":"address"},{"internalType":"bytes32","name":"modelHash","type":"bytes32"},{"internalType":"uint256","name":"rewardAmount","type":"uint256"},{"internalType":"uint256","name":"minStake","type":"uint256"},{"internalType":"uint256","name":"maxTrainers","type":"uint256"},{"internalType":"uint256","name":"deadline","type":"uint256"},{"internalType":"enum TrainingEscrow.TaskStatus","name":"status","type":"uint8"},{"internalType":"uint256","name":"createdAt","type":"uint256"}],"stateMutability":"view","type":"function"},{"inputs":[],"name":"token","outputs":[{"internalType":"contract IERC20","name":"","type":"address"}],"stateMutability":"view","type":"function"},{"inputs":[],"name":"totalSlashed","outputs":[{"internalType":"uint256","name":"","type":"uint256"}],"stateMutability":"view","type":"function"},{"inputs":[{"internalType":"uint256","name":"","type":"uint256"},{"internalType":"address","name":"","type":"address"}],"name":"trainers","outputs":[{"internalType":"uint256","name":"stakeAmount","type":"uint256"},{"internalType":"bool","name":"submitted","type":"bool"},{"internalType":"bool","name":"validated","type":"bool"},{"internalType":"bool","name":"slashed","type":"bool"},{"internalType":"bool","name":"rewardClaimed","type":"bool"},{"internalType":"bytes32","name":"resultHash","type":"bytes32"},{"internalType":"uint256","name":"submittedAt","type":"uint256"}],"stateMutability":"view","type":"function"},{"inputs":[{"internalType":"address","name":"newOwner","type":"address"}],"name":"transferOwnership","outputs":[],"stateMutability":"nonpayable","type":"function"},{"inputs":[{"internalType":"uint256","name":"taskId","type":"uint256"},{"internalType":"address","name":"trainer","type":"address"},{"internalType":"bool","name":"isValid","type":"bool"}],"name":"validateTrainer","outputs":[],"stateMutability":"nonpayable","type":"function"},{"inputs":[{"internalType":"address","name":"to","type":"address"}],"name":"withdrawSlashed","outputs":[],"stateMutability":"nonpayable","type":"function"}],"evm":{"bytecode":{"linkReferences":{},"object":"60a0346101a557601f611aa938819003918201601f19168301916001600160401b038311848410176101aa5780849260409485528339810103126101a55780516001600160a01b03811691908290036101a5576020015190331561018f5760008054336001600160a01b03198216811783556040519290916001600160a01b0316907f8be0079c531659141344cd1fd0a4f28419497f9722a3daafe3b4186f6b6457e09080a360018055811561014d57506127108211610108576080526003556040516118e890816101c1823960805181818161013c0152818161033b0152818161078601528181610b3f01528181610fb1015281816110560152818161111a01526114e90152f35b60405162461bcd60e51b815260206004820152601760248201527f536c6173682072617465206578636565647320313030250000000000000000006044820152606490fd5b62461bcd60e51b815260206004820152601560248201527f496e76616c696420746f6b656e206164647265737300000000000000000000006044820152606490fd5b631e4fbdf760e01b600052600060045260246000fd5b600080fd5b634e487b7160e01b600052604160045260246000fdfe6080604052600436101561001257600080fd5b60003560e01c80630ee3145e1461149d5780633888b9d51461142d5780634151766b146113ca578063715018a6146113715780637ba0636b146110d75780637eec20a814610e97578063862509ad14610e4d5780638d97767214610de55780638da5cb5b14610dbc5780638e359d2a14610cfe578063a201bbdd14610ce0578063ae169a5014610a7a578063cc91a95f146109e6578063d2ee66cf146108a1578063d999850e146105cb578063de35d846146102a1578063e1e2955814610212578063e341181d146101f4578063f2fde38b1461016b578063fc0c546a146101265763fdc3d8d71461010357600080fd5b34610121576000366003190112610121576020600254604051908152f35b600080fd5b34610121576000366003190112610121576040517f00000000000000000000000000000000000000000000000000000000000000006001600160a01b03168152602090f35b3461012157602036600319011261012157610184611582565b61018c61177a565b6001600160a01b031680156101de57600080546001600160a01b03198116831782556001600160a01b0316907f8be0079c531659141344cd1fd0a4f28419497f9722a3daafe3b4186f6b6457e09080a3005b631e4fbdf760e01b600052600060045260246000fd5b34610121576000366003190112610121576020600354604051908152f35b346101215760203660031901126101215760043561022e61177a565b806000526005602052600660406000200160ff815416600481101561028b57600161025991146116bc565b805460ff191660021790557fc1fa7142cfb933d0855114a3bffde296944c30b727f297c14d0db4d553d3a5c7600080a2005b634e487b7160e01b600052602160045260246000fd5b34610121576102af366115f5565b908060005260056020526040600020600681019060ff825416600481101561028b5780159081156105c0575b501561057b576102f0600582015442106116ff565b6003810154841061054057600083815260066020908152604080832033845290915290205461050a57826000526007602052600460406000205491015411156104d65761035f8330337f0000000000000000000000000000000000000000000000000000000000000000611807565b60405160e0810181811067ffffffffffffffff8211176104c057604090815284825260006020808401828152848401838152606086018481526080870185815260a0880186815260c089018781528b885260068752888820338952875288882099518a55945160018a01805495519451935163ff00000090151560181b1662ff000094151560101b9490941661ff0095151560081b9590951691151560ff1663ffffffff199096169590951717929092171790915551600286015551600390940193909355848152600790925290208054680100000000000000008110156104c0576104509160018201815561160b565b81546001600160a01b0360039290921b91821b19163390911b179055805460ff16600481101561028b57156104af575b506040519182527ff37f33c82176e37b489c8c385a0a0f0aea38fca7de1f1190fa51865dea7901da60203393a3005b805460ff1916600117905582610480565b634e487b7160e01b600052604160045260246000fd5b60405162461bcd60e51b815260206004820152600c60248201526b15185cdac81a5cc8199d5b1b60a21b6044820152606490fd5b60405162461bcd60e51b815260206004820152600e60248201526d105b1c9958591e481a9bda5b995960921b6044820152606490fd5b60405162461bcd60e51b81526020600482015260136024820152725374616b652062656c6f77206d696e696d756d60681b6044820152606490fd5b60405162461bcd60e51b815260206004820152601b60248201527f5461736b206e6f7420616363657074696e6720747261696e65727300000000006044820152606490fd5b6001915014856102db565b34610121576060366003190112610121576004356105e7611598565b906044358015158103610121576105fc61177a565b816000526005602052604060002060ff600682015416600481101561028b578060016106319214908115610898575b50611677565b546001600160a01b0384811694911684146108535782600052600660205260408060002060009086825260205220908154801561066e811561173a565b600184019485549060ff82161561080e5760ff8260081c161580610800575b156107c757156106d657505050505061010061ff00198254161790557f5232077f3a606d72feb378ccdcd0d8ab9a38404a236966f871f7661b16f4d703602060405160018152a3005b62ff00001916620100001790945560035492939192808202929183041417156107b15761271090049161070b83600454611648565b60045554828103908082116107b1578385937fb12614c10eb8c9aa875c81ae2e40081eaad172a5252c7860a2601aa34ab4c49d93889660209403610780575b5050604051908152a37f5232077f3a606d72feb378ccdcd0d8ab9a38404a236966f871f7661b16f4d703602060405160008152a3005b6107aa917f00000000000000000000000000000000000000000000000000000000000000006117c5565b878061074a565b634e487b7160e01b600052601160045260246000fd5b60405162461bcd60e51b8152602060048201526011602482015270105b1c9958591e481c1c9bd8d95cdcd959607a1b6044820152606490fd5b5060ff8260101c161561068d565b60405162461bcd60e51b815260206004820152601960248201527f4e6f207375626d697373696f6e20746f2076616c6964617465000000000000006044820152606490fd5b60405162461bcd60e51b815260206004820152601c60248201527f43726561746f722063616e6e6f742073656c662d76616c6964617465000000006044820152606490fd5b9050158661062b565b346101215760403660031901126101215760043560243590806000526005602052604060002060ff600682015416600481101561028b576108f4916108ea6001600593146116bc565b01544211156116ff565b60008181526006602090815260408083203384529091529020805461091a90151561173a565b60018101805460ff81166109ad5784156109725760019060ff19161790558260028201556003429101556040519182527f9bb2295443670abcb0f3088e52668e961eca6816b19f155f2fca528c4b2fe34560203393a3005b60405162461bcd60e51b8152602060048201526013602482015272092dcecc2d8d2c840e4cae6ead8e840d0c2e6d606b1b6044820152606490fd5b60405162461bcd60e51b8152602060048201526011602482015270105b1c9958591e481cdd589b5a5d1d1959607a1b6044820152606490fd5b346101215760403660031901126101215760e06040610a03611598565b60043560005260066020528160002060009160018060a01b031682526020522080549060018101549060ff600360028301549201549260405194855281811615156020860152818160081c1615156040860152818160101c161515606086015260181c161515608084015260a083015260c0820152f35b3461012157602036600319011261012157600435610a966117a3565b80600052600560205260406000209060ff600683015416600481101561028b57600203610ca6576000818152600660209081526040808320338452909152902060018101805493600885901c60ff1615610c715760ff8560181c16610c3a576000848152600760205260408120805490825b828110610bd7575050508015610b9a5760026301000000920154049463ff000000191617905554610b63610b3c8483611648565b337f00000000000000000000000000000000000000000000000000000000000000006117c5565b60405192835260208301527f602ab809fa82d3a742a4f9a33cdd154988d8b0f578ee4dc91de3dc412bf026b960403393a360018055005b60405162461bcd60e51b81526020600482015260156024820152744e6f2076616c69646174656420747261696e65727360581b6044820152606490fd5b87600052600660205260ff6001604080600020610bf4858761160b565b848060a01b0391549060031b1c1690600091848060a01b0316825260205220015460081c16610c26575b600101610b08565b92610c32600191611639565b939050610c1e565b60405162461bcd60e51b815260206004820152600f60248201526e105b1c9958591e4818db185a5b5959608a1b6044820152606490fd5b60405162461bcd60e51b815260206004820152600d60248201526c139bdd081d985b1a59185d1959609a1b6044820152606490fd5b60405162461bcd60e51b815260206004820152601260248201527115185cdac81b9bdd0818dbdb5c1b195d195960721b6044820152606490fd5b34610121576000366003190112610121576020600454604051908152f35b3461012157602036600319011261012157600435600052600760205260406000206040518060208354918281520190819360005260206000209060005b818110610d9d5750505081610d51910382611655565b6040519182916020830190602084525180915260408301919060005b818110610d7b575050500390f35b82516001600160a01b0316845285945060209384019390920191600101610d6d565b82546001600160a01b0316845260209093019260019283019201610d3b565b34610121576000366003190112610121576000546040516001600160a01b039091168152602090f35b34610121576020366003190112610121576004356000526005602052604060002060018060a01b03815416610e4960018301549260028101549060038101546004820154600583015491600760ff60068601541694015494604051988998896115ae565b0390f35b3461012157610e5b366115f5565b9060005260076020526040600020805482101561012157602091610e7e9161160b565b905460405160039290921b1c6001600160a01b03168152f35b3461012157602036600319011261012157600435610eb36117a3565b80600052600560205260406000206006810160ff815416600481101561028b5780610ee691159081156110cc5750611677565b8154600054336001600160a01b039283168114929190911614806110bf575b81156110b7575b501561108157600360ff19825416179055816000526007602052604060002060005b8154811015610ffe57600190846000526006602052604080600020610f53838661160b565b858060a01b0391549060031b1c1690600091858060a01b0316825260205220805480151580610fed575b80610fdc575b610f90575b505001610f2e565b6000610fd59255610fa1838661160b565b858060a01b0391549060031b1c167f00000000000000000000000000000000000000000000000000000000000000006117c5565b8580610f88565b5060ff8483015460181c1615610f83565b5060ff8483015460101c1615610f7d565b837f58716386e17644e69ff7358e3317a395f4523fcd0fb9cc227ee68d117ebbfbfc60208560028101906000825492558180611044575b5050604051908152a260018055005b905461107a91906001600160a01b03167f00000000000000000000000000000000000000000000000000000000000000006117c5565b8481611035565b60405162461bcd60e51b815260206004820152600e60248201526d139bdd08185d5d1a1bdc9a5e995960921b6044820152606490fd5b905084610f0c565b5060058301544211610f05565b60019150148561062b565b346101215760a03660031901126101215760843560643560043560243560443581156113375780156112fa5783156112b55761012c85106112705761113e8230337f0000000000000000000000000000000000000000000000000000000000000000611807565b6002549361114b85611639565b6002556111588642611648565b95604051610100810181811067ffffffffffffffff8211176104c05760405233815260208101978689526040820193868552606083018681526080840191825260a0840192835260c08401956000875260e085019b428d528b600052600560205260406000209560018060a01b039051166bffffffffffffffffffffffff60a01b875416178655516001860155516002850155516003840155516004830155516005820155600681019251600481101561028b5760209861122c9460079260ff801983541691161790555191015542611648565b916040519384528584015260408301526060820152817fe4c84abac159b1ba1d709419b44b97a9f8d4884518b3d20f634515a7b30bc1bb60803393a3604051908152f35b60405162461bcd60e51b815260206004820152601d60248201527f4475726174696f6e206d757374206265203e3d2035206d696e757465730000006044820152606490fd5b60405162461bcd60e51b815260206004820152601860248201527f4d617820747261696e657273206d757374206265203e203000000000000000006044820152606490fd5b60405162461bcd60e51b815260206004820152601560248201527404d696e207374616b65206d757374206265203e203605c1b6044820152606490fd5b60405162461bcd60e51b81526020600482015260126024820152710526577617264206d757374206265203e20360741b6044820152606490fd5b346101215760003660031901126101215761138a61177a565b600080546001600160a01b0319811682556001600160a01b03167f8be0079c531659141344cd1fd0a4f28419497f9722a3daafe3b4186f6b6457e08280a3005b34610121576020366003190112610121576004356113e661177a565b61271081116113f457600355005b60405162461bcd60e51b8152602060048201526011602482015270526174652065786365656473203130302560781b6044820152606490fd5b34610121576020366003190112610121576004358060005260056020526040600020610e4960018060a01b0382541691600181015493600282015491600381015460048201549060ff600660058501549401541693600052600760205260406000205494604051988998896115ae565b34610121576020366003190112610121576114b6611582565b6114be61177a565b6114c66117a3565b6001600160a01b0381161561154b5760045480156115135761150d9160006004557f00000000000000000000000000000000000000000000000000000000000000006117c5565b60018055005b60405162461bcd60e51b815260206004820152601060248201526f4e6f20736c61736865642066756e647360801b6044820152606490fd5b60405162461bcd60e51b815260206004820152600f60248201526e496e76616c6964206164647265737360881b6044820152606490fd5b600435906001600160a01b038216820361012157565b602435906001600160a01b038216820361012157565b94929098979695939161010086019960018060a01b03168652602086015260408501526060840152608083015260a0820152600482101561028b5760e09160c08201520152565b6040906003190112610121576004359060243590565b80548210156116235760005260206000200190600090565b634e487b7160e01b600052603260045260246000fd5b60001981146107b15760010190565b919082018092116107b157565b90601f8019910116810190811067ffffffffffffffff8211176104c057604052565b1561167e57565b60405162461bcd60e51b815260206004820152601660248201527515185cdac8185b1c9958591e48199a5b985b1a5e995960521b6044820152606490fd5b156116c357565b60405162461bcd60e51b81526020600482015260146024820152735461736b206e6f7420696e2070726f677265737360601b6044820152606490fd5b1561170657565b60405162461bcd60e51b815260206004820152600c60248201526b15185cdac8195e1c1a5c995960a21b6044820152606490fd5b1561174157565b60405162461bcd60e51b8152602060048201526011602482015270139bdd0818481c185c9d1a58da5c185b9d607a1b6044820152606490fd5b6000546001600160a01b0316330361178e57565b63118cdaa760e01b6000523360045260246000fd5b6002600154146117b4576002600155565b633ee5aeb560e01b60005260046000fd5b60405163a9059cbb60e01b60208201526001600160a01b03909216602483015260448083019390935291815261180591611800606483611655565b61184b565b565b6040516323b872dd60e01b60208201526001600160a01b03928316602482015292909116604483015260648083019390935291815261180591611800608483611655565b906000602091828151910182855af1156118a6576000513d61189d57506001600160a01b0381163b155b61187c5750565b635274afe760e01b60009081526001600160a01b0391909116600452602490fd5b60011415611875565b6040513d6000823e3d90fdfea264697066735822122070da99f6bc7e3e098f4413275c7c53c09b2c104dc1553190437449163b952aa464736f6c634300081c0033","opcodes":"PUSH1 0xA0 CALLVALUE PUSH2 0x1A5 JUMPI PUSH1 0x1F PUSH2 0x1AA9 CODESIZE DUP2 SWAP1 SUB SWAP2 DUP3 ADD PUSH1 0x1F NOT AND DUP4 ADD SWAP2 PUSH1 0x1 PUSH1 0x1 PUSH1 0x40 SHL SUB DUP4 GT DUP5 DUP5 LT OR PUSH2 0x1AA JUMPI DUP1 DUP5 SWAP3 PUSH1 0x40 SWAP5 DUP6 MSTORE DUP4 CODECOPY DUP2 ADD SUB SLT PUSH2 0x1A5 JUMPI DUP1 MLOAD PUSH1 0x1 PUSH1 0x1 PUSH1 0xA0 SHL SUB DUP2 AND SWAP2 SWAP1 DUP3 SWAP1 SUB PUSH2 0x1A5 JUMPI PUSH1 0x20 ADD MLOAD SWAP1 CALLER ISZERO PUSH2 0x18F JUMPI PUSH1 0x0 DUP1 SLOAD CALLER PUSH1 0x1 PUSH1 0x1 PUSH1 0xA0 SHL SUB NOT DUP3 AND DUP2 OR DUP4 SSTORE PUSH1 0x40 MLOAD SWAP3 SWAP1 SWAP2 PUSH1 0x1 PUSH1 0x1 PUSH1 0xA0 SHL SUB AND SWAP1 PUSH32 0x8BE0079C531659141344CD1FD0A4F28419497F9722A3DAAFE3B4186F6B6457E0 SWAP1 DUP1 LOG3 PUSH1 0x1 DUP1 SSTORE DUP2 ISZERO PUSH2 0x14D JUMPI POP PUSH2 0x2710 DUP3 GT PUSH2 0x108 JUMPI PUSH1 0x80 MSTORE PUSH1 0x3 SSTORE PUSH1 0x40 MLOAD PUSH2 0x18E8 SWAP1 DUP2 PUSH2 0x1C1 DUP3 CODECOPY PUSH1 0x80 MLOAD DUP2 DUP2 DUP2 PUSH2 0x13C ADD MSTORE DUP2 DUP2 PUSH2 0x33B ADD MSTORE DUP2 DUP2 PUSH2 0x786 ADD MSTORE DUP2 DUP2 PUSH2 0xB3F ADD MSTORE DUP2 DUP2 PUSH2 0xFB1 ADD MSTORE DUP2 DUP2 PUSH2 0x1056 ADD MSTORE DUP2 DUP2 PUSH2 0x111A ADD MSTORE PUSH2 0x14E9 ADD MSTORE RETURN JUMPDEST PUSH1 0x40 MLOAD PUSH3 0x461BCD PUSH1 0xE5 SHL DUP2 MSTORE PUSH1 0x20 PUSH1 0x4 DUP3 ADD MSTORE PUSH1 0x17 PUSH1 0x24 DUP3 ADD MSTORE PUSH32 0x536C617368207261746520657863656564732031303025000000000000000000 PUSH1 0x44 DUP3 ADD MSTORE PUSH1 0x64 SWAP1 REVERT JUMPDEST PUSH3 0x461BCD PUSH1 0xE5 SHL DUP2 MSTORE PUSH1 0x20 PUSH1 0x4 DUP3 ADD MSTORE PUSH1 0x15 PUSH1 0x24 DUP3 ADD MSTORE PUSH32 0x496E76616C696420746F6B656E20616464726573730000000000000000000000 PUSH1 0x44 DUP3 ADD MSTORE PUSH1 0x64 SWAP1 REVERT JUMPDEST PUSH4 0x1E4FBDF7 PUSH1 0xE0 SHL PUSH1 0x0 MSTORE PUSH1 0x0 PUSH1 0x4 MSTORE PUSH1 0x24 PUSH1 0x0 REVERT JUMPDEST PUSH1 0x0 DUP1 REVERT JUMPDEST PUSH4 0x4E487B71 PUSH1 0xE0 SHL PUSH1 0x0 MSTORE PUSH1 0x41 PUSH1 0x4 MSTORE PUSH1 0x24 PUSH1 0x0 REVERT INVALID PUSH1 0x80 PUSH1 0x40 MSTORE PUSH1 0x4 CALLDATASIZE LT ISZERO PUSH2 0x12 JUMPI PUSH1 0x0 DUP1 REVERT JUMPDEST PUSH1 0x0 CALLDATALOAD PUSH1 0xE0 SHR DUP1 PUSH4 0xEE3145E EQ PUSH2 0x149D JUMPI DUP1 PUSH4 0x3888B9D5 EQ PUSH2 0x142D JUMPI DUP1 PUSH4 0x4151766B EQ PUSH2 0x13CA JUMPI DUP1 PUSH4 0x715018A6 EQ PUSH2 0x1371 JUMPI DUP1 PUSH4 0x7BA0636B EQ PUSH2 0x10D7 JUMPI DUP1 PUSH4 0x7EEC20A8 EQ PUSH2 0xE97 JUMPI DUP1 PUSH4 0x862509AD EQ PUSH2 0xE4D JUMPI DUP1 PUSH4 0x8D977672 EQ PUSH2 0xDE5 JUMPI DUP1 PUSH4 0x8DA5CB5B EQ PUSH2 0xDBC JUMPI DUP1 PUSH4 0x8E359D2A EQ PUSH2 0xCFE JUMPI DUP1 PUSH4 0xA201BBDD EQ PUSH2 0xCE0 JUMPI DUP1 PUSH4 0xAE169A50 EQ PUSH2 0xA7A JUMPI DUP1 PUSH4 0xCC91A95F EQ PUSH2 0x9E6 JUMPI DUP1 PUSH4 0xD2EE66CF EQ PUSH2 0x8A1 JUMPI DUP1 PUSH4 0xD999850E EQ PUSH2 0x5CB JUMPI DUP1 PUSH4 0xDE35D846 EQ PUSH2 0x2A1 JUMPI DUP1 PUSH4 0xE1E29558 EQ PUSH2 0x212 JUMPI DUP1 PUSH4 0xE341181D EQ PUSH2 0x1F4 JUMPI DUP1 PUSH4 0xF2FDE38B EQ PUSH2 0x16B JUMPI DUP1 PUSH4 0xFC0C546A EQ PUSH2 0x126 JUMPI PUSH4 0xFDC3D8D7 EQ PUSH2 0x103 JUMPI PUSH1 0x0 DUP1 REVERT JUMPDEST CALLVALUE PUSH2 0x121 JUMPI PUSH1 0x0 CALLDATASIZE PUSH1 0x3 NOT ADD SLT PUSH2 0x121 JUMPI PUSH1 0x20 PUSH1 0x2 SLOAD PUSH1 0x40 MLOAD SWAP1 DUP2 MSTORE RETURN JUMPDEST PUSH1 0x0 DUP1 REVERT JUMPDEST CALLVALUE PUSH2 0x121 JUMPI PUSH1 0x0 CALLDATASIZE PUSH1 0x3 NOT ADD SLT PUSH2 0x121 JUMPI PUSH1 0x40 MLOAD PUSH32 0x0 PUSH1 0x1 PUSH1 0x1 PUSH1 0xA0 SHL SUB AND DUP2 MSTORE PUSH1 0x20 SWAP1 RETURN JUMPDEST CALLVALUE PUSH2 0x121 JUMPI PUSH1 0x20 CALLDATASIZE PUSH1 0x3 NOT ADD SLT PUSH2 0x121 JUMPI PUSH2 0x184 PUSH2 0x1582 JUMP JUMPDEST PUSH2 0x18C PUSH2 0x177A JUMP JUMPDEST PUSH1 0x1 PUSH1 0x1 PUSH1 0xA0 SHL SUB AND DUP1 ISZERO PUSH2 0x1DE JUMPI PUSH1 0x0 DUP1 SLOAD PUSH1 0x1 PUSH1 0x1 PUSH1 0xA0 SHL SUB NOT DUP2 AND DUP4 OR DUP3 SSTORE PUSH1 0x1 PUSH1 0x1 PUSH1 0xA0 SHL SUB AND SWAP1 PUSH32 0x8BE0079C531659141344CD1FD0A4F28419497F9722A3DAAFE3B4186F6B6457E0 SWAP1 DUP1 LOG3 STOP JUMPDEST PUSH4 0x1E4FBDF7 PUSH1 0xE0 SHL PUSH1 0x0 MSTORE PUSH1 0x0 PUSH1 0x4 MSTORE PUSH1 0x24 PUSH1 0x0 REVERT JUMPDEST CALLVALUE PUSH2 0x121 JUMPI PUSH1 0x0 CALLDATASIZE PUSH1 0x3 NOT ADD SLT PUSH2 0x121 JUMPI PUSH1 0x20 PUSH1 0x3 SLOAD PUSH1 0x40 MLOAD SWAP1 DUP2 MSTORE RETURN JUMPDEST CALLVALUE PUSH2 0x121 JUMPI PUSH1 0x20 CALLDATASIZE PUSH1 0x3 NOT ADD SLT PUSH2 0x121 JUMPI PUSH1 0x4 CALLDATALOAD PUSH2 0x22E PUSH2 0x177A JUMP JUMPDEST DUP1 PUSH1 0x0 MSTORE PUSH1 0x5 PUSH1 0x20 MSTORE PUSH1 0x6 PUSH1 0x40 PUSH1 0x0 KECCAK256 ADD PUSH1 0xFF DUP2 SLOAD AND PUSH1 0x4 DUP2 LT ISZERO PUSH2 0x28B JUMPI PUSH1 0x1 PUSH2 0x259 SWAP2 EQ PUSH2 0x16BC JUMP JUMPDEST DUP1 SLOAD PUSH1 0xFF NOT AND PUSH1 0x2 OR SWAP1 SSTORE PUSH32 0xC1FA7142CFB933D0855114A3BFFDE296944C30B727F297C14D0DB4D553D3A5C7 PUSH1 0x0 DUP1 LOG2 STOP JUMPDEST PUSH4 0x4E487B71 PUSH1 0xE0 SHL PUSH1 0x0 MSTORE PUSH1 0x21 PUSH1 0x4 MSTORE PUSH1 0x24 PUSH1 0x0 REVERT JUMPDEST CALLVALUE PUSH2 0x121 JUMPI PUSH2 0x2AF CALLDATASIZE PUSH2 0x15F5 JUMP JUMPDEST SWAP1 DUP1 PUSH1 0x0 MSTORE PUSH1 0x5 PUSH1 0x20 MSTORE PUSH1 0x40 PUSH1 0x0 KECCAK256 PUSH1 0x6 DUP2 ADD SWAP1 PUSH1 0xFF DUP3 SLOAD AND PUSH1 0x4 DUP2 LT ISZERO PUSH2 0x28B JUMPI DUP1 ISZERO SWAP1 DUP2 ISZERO PUSH2 0x5C0 JUMPI JUMPDEST POP ISZERO PUSH2 0x57B JUMPI PUSH2 0x2F0 PUSH1 0x5 DUP3 ADD SLOAD TIMESTAMP LT PUSH2 0x16FF JUMP JUMPDEST PUSH1 0x3 DUP2 ADD SLOAD DUP5 LT PUSH2 0x540 JUMPI PUSH1 0x0 DUP4 DUP2 MSTORE PUSH1 0x6 PUSH1 0x20 SWAP1 DUP2 MSTORE PUSH1 0x40 DUP1 DUP4 KECCAK256 CALLER DUP5 MSTORE SWAP1 SWAP2 MSTORE SWAP1 KECCAK256 SLOAD PUSH2 0x50A JUMPI DUP3 PUSH1 0x0 MSTORE PUSH1 0x7 PUSH1 0x20 MSTORE PUSH1 0x4 PUSH1 0x40 PUSH1 0x0 KECCAK256 SLOAD SWAP2 ADD SLOAD GT ISZERO PUSH2 0x4D6 JUMPI PUSH2 0x35F DUP4 ADDRESS CALLER PUSH32 0x0 PUSH2 0x1807 JUMP JUMPDEST PUSH1 0x40 MLOAD PUSH1 0xE0 DUP2 ADD DUP2 DUP2 LT PUSH8 0xFFFFFFFFFFFFFFFF DUP3 GT OR PUSH2 0x4C0 JUMPI PUSH1 0x40 SWAP1 DUP2 MSTORE DUP5 DUP3 MSTORE PUSH1 0x0 PUSH1 0x20 DUP1 DUP5 ADD DUP3 DUP2 MSTORE DUP5 DUP5 ADD DUP4 DUP2 MSTORE PUSH1 0x60 DUP7 ADD DUP5 DUP2 MSTORE PUSH1 0x80 DUP8 ADD DUP6 DUP2 MSTORE PUSH1 0xA0 DUP9 ADD DUP7 DUP2 MSTORE PUSH1 0xC0 DUP10 ADD DUP8 DUP2 MSTORE DUP12 DUP9 MSTORE PUSH1 0x6 DUP8 MSTORE DUP9 DUP9 KECCAK256 CALLER DUP10 MSTORE DUP8 MSTORE DUP9 DUP9 KECCAK256 SWAP10 MLOAD DUP11 SSTORE SWAP5 MLOAD PUSH1 0x1 DUP11 ADD DUP1 SLOAD SWAP6 MLOAD SWAP5 MLOAD SWAP4 MLOAD PUSH4 0xFF000000 SWAP1 ISZERO ISZERO PUSH1 0x18 SHL AND PUSH3 0xFF0000 SWAP5 ISZERO ISZERO PUSH1 0x10 SHL SWAP5 SWAP1 SWAP5 AND PUSH2 0xFF00 SWAP6 ISZERO ISZERO PUSH1 0x8 SHL SWAP6 SWAP1 SWAP6 AND SWAP2 ISZERO ISZERO PUSH1 0xFF AND PUSH4 0xFFFFFFFF NOT SWAP1 SWAP7 AND SWAP6 SWAP1 SWAP6 OR OR SWAP3 SWAP1 SWAP3 OR OR SWAP1 SWAP2 SSTORE MLOAD PUSH1 0x2 DUP7 ADD SSTORE MLOAD PUSH1 0x3 SWAP1 SWAP5 ADD SWAP4 SWAP1 SWAP4 SSTORE DUP5 DUP2 MSTORE PUSH1 0x7 SWAP1 SWAP3 MSTORE SWAP1 KECCAK256 DUP1 SLOAD PUSH9 0x10000000000000000 DUP2 LT ISZERO PUSH2 0x4C0 JUMPI PUSH2 0x450 SWAP2 PUSH1 0x1 DUP3 ADD DUP2 SSTORE PUSH2 0x160B JUMP JUMPDEST DUP2 SLOAD PUSH1 0x1 PUSH1 0x1 PUSH1 0xA0 SHL SUB PUSH1 0x3 SWAP3 SWAP1 SWAP3 SHL SWAP2 DUP3 SHL NOT AND CALLER SWAP1 SWAP2 SHL OR SWAP1 SSTORE DUP1 SLOAD PUSH1 0xFF AND PUSH1 0x4 DUP2 LT ISZERO PUSH2 0x28B JUMPI ISZERO PUSH2 0x4AF JUMPI JUMPDEST POP PUSH1 0x40 MLOAD SWAP2 DUP3 MSTORE PUSH32 0xF37F33C82176E37B489C8C385A0A0F0AEA38FCA7DE1F1190FA51865DEA7901DA PUSH1 0x20 CALLER SWAP4 LOG3 STOP JUMPDEST DUP1 SLOAD PUSH1 0xFF NOT AND PUSH1 0x1 OR SWAP1 SSTORE DUP3 PUSH2 0x480 JUMP JUMPDEST PUSH4 0x4E487B71 PUSH1 0xE0 SHL PUSH1 0x0 MSTORE PUSH1 0x41 PUSH1 0x4 MSTORE PUSH1 0x24 PUSH1 0x0 REVERT JUMPDEST PUSH1 0x40 MLOAD PUSH3 0x461BCD PUSH1 0xE5 SHL DUP2 MSTORE PUSH1 0x20 PUSH1 0x4 DUP3 ADD MSTORE PUSH1 0xC PUSH1 0x24 DUP3 ADD MSTORE PUSH12 0x15185CDAC81A5CC8199D5B1B PUSH1 0xA2 SHL PUSH1 0x44 DUP3 ADD MSTORE PUSH1 0x64 SWAP1 REVERT JUMPDEST PUSH1 0x40 MLOAD PUSH3 0x461BCD PUSH1 0xE5 SHL DUP2 MSTORE PUSH1 0x20 PUSH1 0x4 DUP3 ADD MSTORE PUSH1 0xE PUSH1 0x24 DUP3 ADD MSTORE PUSH14 0x105B1C9958591E481A9BDA5B9959 PUSH1 0x92 SHL PUSH1 0x44 DUP3 ADD MSTORE PUSH1 0x64 SWAP1 REVERT JUMPDEST PUSH1 0x40 MLOAD PUSH3 0x461BCD PUSH1 0xE5 SHL DUP2 MSTORE PUSH1 0x20 PUSH1 0x4 DUP3 ADD MSTORE PUSH1 0x13 PUSH1 0x24 DUP3 ADD MSTORE PUSH19 0x5374616B652062656C6F77206D696E696D756D PUSH1 0x68 SHL PUSH1 0x44 DUP3 ADD MSTORE PUSH1 0x64 SWAP1 REVERT JUMPDEST PUSH1 0x40 MLOAD PUSH3 0x461BCD PUSH1 0xE5 SHL DUP2 MSTORE PUSH1 0x20 PUSH1 0x4 DUP3 ADD MSTORE PUSH1 0x1B PUSH1 0x24 DUP3 ADD MSTORE PUSH32 0x5461736B206E6F7420616363657074696E6720747261696E6572730000000000 PUSH1 0x44 DUP3 ADD MSTORE PUSH1 0x64 SWAP1 REVERT JUMPDEST PUSH1 0x1 SWAP2 POP EQ DUP6 PUSH2 0x2DB JUMP JUMPDEST CALLVALUE PUSH2 0x121 JUMPI PUSH1 0x60 CALLDATASIZE PUSH1 0x3 NOT ADD SLT PUSH2 0x121 JUMPI PUSH1 0x4 CALLDATALOAD PUSH2 0x5E7 PUSH2 0x1598 JUMP JUMPDEST SWAP1 PUSH1 0x44 CALLDATALOAD DUP1 ISZERO ISZERO DUP2 SUB PUSH2 0x121 JUMPI PUSH2 0x5FC PUSH2 0x177A JUMP JUMPDEST DUP2 PUSH1 0x0 MSTORE PUSH1 0x5 PUSH1 0x20 MSTORE PUSH1 0x40 PUSH1 0x0 KECCAK256 PUSH1 0xFF PUSH1 0x6 DUP3 ADD SLOAD AND PUSH1 0x4 DUP2 LT ISZERO PUSH2 0x28B JUMPI DUP1 PUSH1 0x1 PUSH2 0x631 SWAP3 EQ SWAP1 DUP2 ISZERO PUSH2 0x898 JUMPI JUMPDEST POP PUSH2 0x1677 JUMP JUMPDEST SLOAD PUSH1 0x1 PUSH1 0x1 PUSH1 0xA0 SHL SUB DUP5 DUP2 AND SWAP5 SWAP2 AND DUP5 EQ PUSH2 0x853 JUMPI DUP3 PUSH1 0x0 MSTORE PUSH1 0x6 PUSH1 0x20 MSTORE PUSH1 0x40 DUP1 PUSH1 0x0 KECCAK256 PUSH1 0x0 SWAP1 DUP7 DUP3 MSTORE PUSH1 0x20 MSTORE KECCAK256 SWAP1 DUP2 SLOAD DUP1 ISZERO PUSH2 0x66E DUP2 ISZERO PUSH2 0x173A JUMP JUMPDEST PUSH1 0x1 DUP5 ADD SWAP5 DUP6 SLOAD SWAP1 PUSH1 0xFF DUP3 AND ISZERO PUSH2 0x80E JUMPI PUSH1 0xFF DUP3 PUSH1 0x8 SHR AND ISZERO DUP1 PUSH2 0x800 JUMPI JUMPDEST ISZERO PUSH2 0x7C7 JUMPI ISZERO PUSH2 0x6D6 JUMPI POP POP POP POP POP PUSH2 0x100 PUSH2 0xFF00 NOT DUP3 SLOAD AND OR SWAP1 SSTORE PUSH32 0x5232077F3A606D72FEB378CCDCD0D8AB9A38404A236966F871F7661B16F4D703 PUSH1 0x20 PUSH1 0x40 MLOAD PUSH1 0x1 DUP2 MSTORE LOG3 STOP JUMPDEST PUSH3 0xFF0000 NOT AND PUSH3 0x10000 OR SWAP1 SWAP5 SSTORE PUSH1 0x3 SLOAD SWAP3 SWAP4 SWAP2 SWAP3 DUP1 DUP3 MUL SWAP3 SWAP2 DUP4 DIV EQ OR ISZERO PUSH2 0x7B1 JUMPI PUSH2 0x2710 SWAP1 DIV SWAP2 PUSH2 0x70B DUP4 PUSH1 0x4 SLOAD PUSH2 0x1648 JUMP JUMPDEST PUSH1 0x4 SSTORE SLOAD DUP3 DUP2 SUB SWAP1 DUP1 DUP3 GT PUSH2 0x7B1 JUMPI DUP4 DUP6 SWAP4 PUSH32 0xB12614C10EB8C9AA875C81AE2E40081EAAD172A5252C7860A2601AA34AB4C49D SWAP4 DUP9 SWAP7 PUSH1 0x20 SWAP5 SUB PUSH2 0x780 JUMPI JUMPDEST POP POP PUSH1 0x40 MLOAD SWAP1 DUP2 MSTORE LOG3 PUSH32 0x5232077F3A606D72FEB378CCDCD0D8AB9A38404A236966F871F7661B16F4D703 PUSH1 0x20 PUSH1 0x40 MLOAD PUSH1 0x0 DUP2 MSTORE LOG3 STOP JUMPDEST PUSH2 0x7AA SWAP2 PUSH32 0x0 PUSH2 0x17C5 JUMP JUMPDEST DUP8 DUP1 PUSH2 0x74A JUMP JUMPDEST PUSH4 0x4E487B71 PUSH1 0xE0 SHL PUSH1 0x0 MSTORE PUSH1 0x11 PUSH1 0x4 MSTORE PUSH1 0x24 PUSH1 0x0 REVERT JUMPDEST PUSH1 0x40 MLOAD PUSH3 0x461BCD PUSH1 0xE5 SHL DUP2 MSTORE PUSH1 0x20 PUSH1 0x4 DUP3 ADD MSTORE PUSH1 0x11 PUSH1 0x24 DUP3 ADD MSTORE PUSH17 0x105B1C9958591E481C1C9BD8D95CDCD959 PUSH1 0x7A SHL PUSH1 0x44 DUP3 ADD MSTORE PUSH1 0x64 SWAP1 REVERT JUMPDEST POP PUSH1 0xFF DUP3 PUSH1 0x10 SHR AND ISZERO PUSH2 0x68D JUMP JUMPDEST PUSH1 0x40 MLOAD PUSH3 0x461BCD PUSH1 0xE5 SHL DUP2 MSTORE PUSH1 0x20 PUSH1 0x4 DUP3 ADD MSTORE PUSH1 0x19 PUSH1 0x24 DUP3 ADD MSTORE PUSH32 0x4E6F207375626D697373696F6E20746F2076616C696461746500000000000000 PUSH1 0x44 DUP3 ADD MSTORE PUSH1 0x64 SWAP1 REVERT JUMPDEST PUSH1 0x40 MLOAD PUSH3 0x461BCD PUSH1 0xE5 SHL DUP2 MSTORE PUSH1 0x20 PUSH1 0x4 DUP3 ADD MSTORE PUSH1 0x1C PUSH1 0x24 DUP3 ADD MSTORE PUSH32 0x43726561746F722063616E6E6F742073656C662D76616C696461746500000000 PUSH1 0x44 DUP3 ADD MSTORE PUSH1 0x64 SWAP1 REVERT JUMPDEST SWAP1 POP ISZERO DUP7 PUSH2 0x62B JUMP JUMPDEST CALLVALUE PUSH2 0x121 JUMPI PUSH1 0x40 CALLDATASIZE PUSH1 0x3 NOT ADD SLT PUSH2 0x121 JUMPI PUSH1 0x4 CALLDATALOAD PUSH1 0x24 CALLDATALOAD SWAP1 DUP1 PUSH1 0x0 MSTORE PUSH1 0x5 PUSH1 0x20 MSTORE PUSH1 0x40 PUSH1 0x0 KECCAK256 PUSH1 0xFF PUSH1 0x6 DUP3 ADD SLOAD AND PUSH1 0x4 DUP2 LT ISZERO PUSH2 0x28B JUMPI PUSH2 0x8F4 SWAP2 PUSH2 0x8EA PUSH1 0x1 PUSH1 0x5 SWAP4 EQ PUSH2 0x16BC JUMP JUMPDEST ADD SLOAD TIMESTAMP GT ISZERO PUSH2 0x16FF JUMP JUMPDEST PUSH1 0x0 DUP2 DUP2 MSTORE PUSH1 0x6 PUSH1 0x20 SWAP1 DUP2 MSTORE PUSH1 0x40 DUP1 DUP4 KECCAK256 CALLER DUP5 MSTORE SWAP1 SWAP2 MSTORE SWAP1 KECCAK256 DUP1 SLOAD PUSH2 0x91A SWAP1 ISZERO ISZERO PUSH2 0x173A JUMP JUMPDEST PUSH1 0x1 DUP2 ADD DUP1 SLOAD PUSH1 0xFF DUP2 AND PUSH2 0x9AD JUMPI DUP5 ISZERO PUSH2 0x972 JUMPI PUSH1 0x1 SWAP1 PUSH1 0xFF NOT AND OR SWAP1 SSTORE DUP3 PUSH1 0x2 DUP3 ADD SSTORE PUSH1 0x3 TIMESTAMP SWAP2 ADD SSTORE PUSH1 0x40 MLOAD SWAP2 DUP3 MSTORE PUSH32 0x9BB2295443670ABCB0F3088E52668E961ECA6816B19F155F2FCA528C4B2FE345 PUSH1 0x20 CALLER SWAP4 LOG3 STOP JUMPDEST PUSH1 0x40 MLOAD PUSH3 0x461BCD PUSH1 0xE5 SHL DUP2 MSTORE PUSH1 0x20 PUSH1 0x4 DUP3 ADD MSTORE PUSH1 0x13 PUSH1 0x24 DUP3 ADD MSTORE PUSH19 0x92DCECC2D8D2C840E4CAE6EAD8E840D0C2E6D PUSH1 0x6B SHL PUSH1 0x44 DUP3 ADD MSTORE PUSH1 0x64 SWAP1 REVERT JUMPDEST PUSH1 0x40 MLOAD PUSH3 0x461BCD PUSH1 0xE5 SHL DUP2 MSTORE PUSH1 0x20 PUSH1 0x4 DUP3 ADD MSTORE PUSH1 0x11 PUSH1 0x24 DUP3 ADD MSTORE PUSH17 0x105B1C9958591E481CDD589B5A5D1D1959 PUSH1 0x7A SHL PUSH1 0x44 DUP3 ADD MSTORE PUSH1 0x64 SWAP1 REVERT JUMPDEST CALLVALUE PUSH2 0x121 JUMPI PUSH1 0x40 CALLDATASIZE PUSH1 0x3 NOT ADD SLT PUSH2 0x121 JUMPI PUSH1 0xE0 PUSH1 0x40 PUSH2 0xA03 PUSH2 0x1598 JUMP JUMPDEST PUSH1 0x4 CALLDATALOAD PUSH1 0x0 MSTORE PUSH1 0x6 PUSH1 0x20 MSTORE DUP2 PUSH1 0x0 KECCAK256 PUSH1 0x0 SWAP2 PUSH1 0x1 DUP1 PUSH1 0xA0 SHL SUB AND DUP3 MSTORE PUSH1 0x20 MSTORE KECCAK256 DUP1 SLOAD SWAP1 PUSH1 0x1 DUP2 ADD SLOAD SWAP1 PUSH1 0xFF PUSH1 0x3 PUSH1 0x2 DUP4 ADD SLOAD SWAP3 ADD SLOAD SWAP3 PUSH1 0x40 MLOAD SWAP5 DUP6 MSTORE DUP2 DUP2 AND ISZERO ISZERO PUSH1 0x20 DUP7 ADD MSTORE DUP2 DUP2 PUSH1 0x8 SHR AND ISZERO ISZERO PUSH1 0x40 DUP7 ADD MSTORE DUP2 DUP2 PUSH1 0x10 SHR AND ISZERO ISZERO PUSH1 0x60 DUP7 ADD MSTORE PUSH1 0x18 SHR AND ISZERO ISZERO PUSH1 0x80 DUP5 ADD MSTORE PUSH1 0xA0 DUP4 ADD MSTORE PUSH1 0xC0 DUP3 ADD MSTORE RETURN JUMPDEST CALLVALUE PUSH2 0x121 JUMPI PUSH1 0x20 CALLDATASIZE PUSH1 0x3 NOT ADD SLT PUSH2 0x121 JUMPI PUSH1 0x4 CALLDATALOAD PUSH2 0xA96 PUSH2 0x17A3 JUMP JUMPDEST DUP1 PUSH1 0x0 MSTORE PUSH1 0x5 PUSH1 0x20 MSTORE PUSH1 0x40 PUSH1 0x0 KECCAK256 SWAP1 PUSH1 0xFF PUSH1 0x6 DUP4 ADD SLOAD AND PUSH1 0x4 DUP2 LT ISZERO PUSH2 0x28B JUMPI PUSH1 0x2 SUB PUSH2 0xCA6 JUMPI PUSH1 0x0 DUP2 DUP2 MSTORE PUSH1 0x6 PUSH1 0x20 SWAP1 DUP2 MSTORE PUSH1 0x40 DUP1 DUP4 KECCAK256 CALLER DUP5 MSTORE SWAP1 SWAP2 MSTORE SWAP1 KECCAK256 PUSH1 0x1 DUP2 ADD DUP1 SLOAD SWAP4 PUSH1 0x8 DUP6 SWAP1 SHR PUSH1 0xFF AND ISZERO PUSH2 0xC71 JUMPI PUSH1 0xFF DUP6 PUSH1 0x18 SHR AND PUSH2 0xC3A JUMPI PUSH1 0x0 DUP5 DUP2 MSTORE PUSH1 0x7 PUSH1 0x20 MSTORE PUSH1 0x40 DUP2 KECCAK256 DUP1 SLOAD SWAP1 DUP3 JUMPDEST DUP3 DUP2 LT PUSH2 0xBD7 JUMPI POP POP POP DUP1 ISZERO PUSH2 0xB9A JUMPI PUSH1 0x2 PUSH4 0x1000000 SWAP3 ADD SLOAD DIV SWAP5 PUSH4 0xFF000000 NOT AND OR SWAP1 SSTORE SLOAD PUSH2 0xB63 PUSH2 0xB3C DUP5 DUP4 PUSH2 0x1648 JUMP JUMPDEST CALLER PUSH32 0x0 PUSH2 0x17C5 JUMP JUMPDEST PUSH1 0x40 MLOAD SWAP3 DUP4 MSTORE PUSH1 0x20 DUP4 ADD MSTORE PUSH32 0x602AB809FA82D3A742A4F9A33CDD154988D8B0F578EE4DC91DE3DC412BF026B9 PUSH1 0x40 CALLER SWAP4 LOG3 PUSH1 0x1 DUP1 SSTORE STOP JUMPDEST PUSH1 0x40 MLOAD PUSH3 0x461BCD PUSH1 0xE5 SHL DUP2 MSTORE PUSH1 0x20 PUSH1 0x4 DUP3 ADD MSTORE PUSH1 0x15 PUSH1 0x24 DUP3 ADD MSTORE PUSH21 0x4E6F2076616C69646174656420747261696E657273 PUSH1 0x58 SHL PUSH1 0x44 DUP3 ADD MSTORE PUSH1 0x64 SWAP1 REVERT JUMPDEST DUP8 PUSH1 0x0 MSTORE PUSH1 0x6 PUSH1 0x20 MSTORE PUSH1 0xFF PUSH1 0x1 PUSH1 0x40 DUP1 PUSH1 0x0 KECCAK256 PUSH2 0xBF4 DUP6 DUP8 PUSH2 0x160B JUMP JUMPDEST DUP5 DUP1 PUSH1 0xA0 SHL SUB SWAP2 SLOAD SWAP1 PUSH1 0x3 SHL SHR AND SWAP1 PUSH1 0x0 SWAP2 DUP5 DUP1 PUSH1 0xA0 SHL SUB AND DUP3 MSTORE PUSH1 0x20 MSTORE KECCAK256 ADD SLOAD PUSH1 0x8 SHR AND PUSH2 0xC26 JUMPI JUMPDEST PUSH1 0x1 ADD PUSH2 0xB08 JUMP JUMPDEST SWAP3 PUSH2 0xC32 PUSH1 0x1 SWAP2 PUSH2 0x1639 JUMP JUMPDEST SWAP4 SWAP1 POP PUSH2 0xC1E JUMP JUMPDEST PUSH1 0x40 MLOAD PUSH3 0x461BCD PUSH1 0xE5 SHL DUP2 MSTORE PUSH1 0x20 PUSH1 0x4 DUP3 ADD MSTORE PUSH1 0xF PUSH1 0x24 DUP3 ADD MSTORE PUSH15 0x105B1C9958591E4818DB185A5B5959 PUSH1 0x8A SHL PUSH1 0x44 DUP3 ADD MSTORE PUSH1 0x64 SWAP1 REVERT JUMPDEST PUSH1 0x40 MLOAD PUSH3 0x461BCD PUSH1 0xE5 SHL DUP2 MSTORE PUSH1 0x20 PUSH1 0x4 DUP3 ADD MSTORE PUSH1 0xD PUSH1 0x24 DUP3 ADD MSTORE PUSH13 0x139BDD081D985B1A59185D1959 PUSH1 0x9A SHL PUSH1 0x44 DUP3 ADD MSTORE PUSH1 0x64 SWAP1 REVERT JUMPDEST PUSH1 0x40 MLOAD PUSH3 0x461BCD PUSH1 0xE5 SHL DUP2 MSTORE PUSH1 0x20 PUSH1 0x4 DUP3 ADD MSTORE PUSH1 0x12 PUSH1 0x24 DUP3 ADD MSTORE PUSH18 0x15185CDAC81B9BDD0818DBDB5C1B195D1959 PUSH1 0x72 SHL PUSH1 0x44 DUP3 ADD MSTORE PUSH1 0x64 SWAP1 REVERT JUMPDEST CALLVALUE PUSH2 0x121 JUMPI PUSH1 0x0 CALLDATASIZE PUSH1 0x3 NOT ADD SLT PUSH2 0x121 JUMPI PUSH1 0x20 PUSH1 0x4 SLOAD PUSH1 0x40 MLOAD SWAP1 DUP2 MSTORE RETURN JUMPDEST CALLVALUE PUSH2 0x121 JUMPI PUSH1 0x20 CALLDATASIZE PUSH1 0x3 NOT ADD SLT PUSH2 0x121 JUMPI PUSH1 0x4 CALLDATALOAD PUSH1 0x0 MSTORE PUSH1 0x7 PUSH1 0x20 MSTORE PUSH1 0x40 PUSH1 0x0 KECCAK256 PUSH1 0x40 MLOAD DUP1 PUSH1 0x20 DUP4 SLOAD SWAP2 DUP3 DUP2 MSTORE ADD SWAP1 DUP2 SWAP4 PUSH1 0x0 MSTORE PUSH1 0x20 PUSH1 0x0 KECCAK256 SWAP1 PUSH1 0x0 JUMPDEST DUP2 DUP2 LT PUSH2 0xD9D JUMPI POP POP POP DUP2 PUSH2 0xD51 SWAP2 SUB DUP3 PUSH2 0x1655 JUMP JUMPDEST PUSH1 0x40 MLOAD SWAP2 DUP3 SWAP2 PUSH1 0x20 DUP4 ADD SWAP1 PUSH1 0x20 DUP5 MSTORE MLOAD DUP1 SWAP2 MSTORE PUSH1 0x40 DUP4 ADD SWAP2 SWAP1 PUSH1 0x0 JUMPDEST DUP2 DUP2 LT PUSH2 0xD7B JUMPI POP POP POP SUB SWAP1 RETURN JUMPDEST DUP3 MLOAD PUSH1 0x1 PUSH1 0x1 PUSH1 0xA0 SHL SUB AND DUP5 MSTORE DUP6 SWAP5 POP PUSH1 0x20 SWAP4 DUP5 ADD SWAP4 SWAP1 SWAP3 ADD SWAP2 PUSH1 0x1 ADD PUSH2 0xD6D JUMP JUMPDEST DUP3 SLOAD PUSH1 0x1 PUSH1 0x1 PUSH1 0xA0 SHL SUB AND DUP5 MSTORE PUSH1 0x20 SWAP1 SWAP4 ADD SWAP3 PUSH1 0x1 SWAP3 DUP4 ADD SWAP3 ADD PUSH2 0xD3B JUMP JUMPDEST CALLVALUE PUSH2 0x121 JUMPI PUSH1 0x0 CALLDATASIZE PUSH1 0x3 NOT ADD SLT PUSH2 0x121 JUMPI PUSH1 0x0 SLOAD PUSH1 0x40 MLOAD PUSH1 0x1 PUSH1 0x1 PUSH1 0xA0 SHL SUB SWAP1 SWAP2 AND DUP2 MSTORE PUSH1 0x20 SWAP1 RETURN JUMPDEST CALLVALUE PUSH2 0x121 JUMPI PUSH1 0x20 CALLDATASIZE PUSH1 0x3 NOT ADD SLT PUSH2 0x121 JUMPI PUSH1 0x4 CALLDATALOAD PUSH1 0x0 MSTORE PUSH1 0x5 PUSH1 0x20 MSTORE PUSH1 0x40 PUSH1 0x0 KECCAK256 PUSH1 0x1 DUP1 PUSH1 0xA0 SHL SUB DUP2 SLOAD AND PUSH2 0xE49 PUSH1 0x1 DUP4 ADD SLOAD SWAP3 PUSH1 0x2 DUP2 ADD SLOAD SWAP1 PUSH1 0x3 DUP2 ADD SLOAD PUSH1 0x4 DUP3 ADD SLOAD PUSH1 0x5 DUP4 ADD SLOAD SWAP2 PUSH1 0x7 PUSH1 0xFF PUSH1 0x6 DUP7 ADD SLOAD AND SWAP5 ADD SLOAD SWAP5 PUSH1 0x40 MLOAD SWAP9 DUP10 SWAP9 DUP10 PUSH2 0x15AE JUMP JUMPDEST SUB SWAP1 RETURN JUMPDEST CALLVALUE PUSH2 0x121 JUMPI PUSH2 0xE5B CALLDATASIZE PUSH2 0x15F5 JUMP JUMPDEST SWAP1 PUSH1 0x0 MSTORE PUSH1 0x7 PUSH1 0x20 MSTORE PUSH1 0x40 PUSH1 0x0 KECCAK256 DUP1 SLOAD DUP3 LT ISZERO PUSH2 0x121 JUMPI PUSH1 0x20 SWAP2 PUSH2 0xE7E SWAP2 PUSH2 0x160B JUMP JUMPDEST SWAP1 SLOAD PUSH1 0x40 MLOAD PUSH1 0x3 SWAP3 SWAP1 SWAP3 SHL SHR PUSH1 0x1 PUSH1 0x1 PUSH1 0xA0 SHL SUB AND DUP2 MSTORE RETURN JUMPDEST CALLVALUE PUSH2 0x121 JUMPI PUSH1 0x20 CALLDATASIZE PUSH1 0x3 NOT ADD SLT PUSH2 0x121 JUMPI PUSH1 0x4 CALLDATALOAD PUSH2 0xEB3 PUSH2 0x17A3 JUMP JUMPDEST DUP1 PUSH1 0x0 MSTORE PUSH1 0x5 PUSH1 0x20 MSTORE PUSH1 0x40 PUSH1 0x0 KECCAK256 PUSH1 0x6 DUP2 ADD PUSH1 0xFF DUP2 SLOAD AND PUSH1 0x4 DUP2 LT ISZERO PUSH2 0x28B JUMPI DUP1 PUSH2 0xEE6 SWAP2 ISZERO SWAP1 DUP2 ISZERO PUSH2 0x10CC JUMPI POP PUSH2 0x1677 JUMP JUMPDEST DUP2 SLOAD PUSH1 0x0 SLOAD CALLER PUSH1 0x1 PUSH1 0x1 PUSH1 0xA0 SHL SUB SWAP3 DUP4 AND DUP2 EQ SWAP3 SWAP2 SWAP1 SWAP2 AND EQ DUP1 PUSH2 0x10BF JUMPI JUMPDEST DUP2 ISZERO PUSH2 0x10B7 JUMPI JUMPDEST POP ISZERO PUSH2 0x1081 JUMPI PUSH1 0x3 PUSH1 0xFF NOT DUP3 SLOAD AND OR SWAP1 SSTORE DUP2 PUSH1 0x0 MSTORE PUSH1 0x7 PUSH1 0x20 MSTORE PUSH1 0x40 PUSH1 0x0 KECCAK256 PUSH1 0x0 JUMPDEST DUP2 SLOAD DUP2 LT ISZERO PUSH2 0xFFE JUMPI PUSH1 0x1 SWAP1 DUP5 PUSH1 0x0 MSTORE PUSH1 0x6 PUSH1 0x20 MSTORE PUSH1 0x40 DUP1 PUSH1 0x0 KECCAK256 PUSH2 0xF53 DUP4 DUP7 PUSH2 0x160B JUMP JUMPDEST DUP6 DUP1 PUSH1 0xA0 SHL SUB SWAP2 SLOAD SWAP1 PUSH1 0x3 SHL SHR AND SWAP1 PUSH1 0x0 SWAP2 DUP6 DUP1 PUSH1 0xA0 SHL SUB AND DUP3 MSTORE PUSH1 0x20 MSTORE KECCAK256 DUP1 SLOAD DUP1 ISZERO ISZERO DUP1 PUSH2 0xFED JUMPI JUMPDEST DUP1 PUSH2 0xFDC JUMPI JUMPDEST PUSH2 0xF90 JUMPI JUMPDEST POP POP ADD PUSH2 0xF2E JUMP JUMPDEST PUSH1 0x0 PUSH2 0xFD5 SWAP3 SSTORE PUSH2 0xFA1 DUP4 DUP7 PUSH2 0x160B JUMP JUMPDEST DUP6 DUP1 PUSH1 0xA0 SHL SUB SWAP2 SLOAD SWAP1 PUSH1 0x3 SHL SHR AND PUSH32 0x0 PUSH2 0x17C5 JUMP JUMPDEST DUP6 DUP1 PUSH2 0xF88 JUMP JUMPDEST POP PUSH1 0xFF DUP5 DUP4 ADD SLOAD PUSH1 0x18 SHR AND ISZERO PUSH2 0xF83 JUMP JUMPDEST POP PUSH1 0xFF DUP5 DUP4 ADD SLOAD PUSH1 0x10 SHR AND ISZERO PUSH2 0xF7D JUMP JUMPDEST DUP4 PUSH32 0x58716386E17644E69FF7358E3317A395F4523FCD0FB9CC227EE68D117EBBFBFC PUSH1 0x20 DUP6 PUSH1 0x2 DUP2 ADD SWAP1 PUSH1 0x0 DUP3 SLOAD SWAP3 SSTORE DUP2 DUP1 PUSH2 0x1044 JUMPI JUMPDEST POP POP PUSH1 0x40 MLOAD SWAP1 DUP2 MSTORE LOG2 PUSH1 0x1 DUP1 SSTORE STOP JUMPDEST SWAP1 SLOAD PUSH2 0x107A SWAP2 SWAP1 PUSH1 0x1 PUSH1 0x1 PUSH1 0xA0 SHL SUB AND PUSH32 0x0 PUSH2 0x17C5 JUMP JUMPDEST DUP5 DUP2 PUSH2 0x1035 JUMP JUMPDEST PUSH1 0x40 MLOAD PUSH3 0x461BCD PUSH1 0xE5 SHL DUP2 MSTORE PUSH1 0x20 PUSH1 0x4 DUP3 ADD MSTORE PUSH1 0xE PUSH1 0x24 DUP3 ADD MSTORE PUSH14 0x139BDD08185D5D1A1BDC9A5E9959 PUSH1 0x92 SHL PUSH1 0x44 DUP3 ADD MSTORE PUSH1 0x64 SWAP1 REVERT JUMPDEST SWAP1 POP DUP5 PUSH2 0xF0C JUMP JUMPDEST POP PUSH1 0x5 DUP4 ADD SLOAD TIMESTAMP GT PUSH2 0xF05 JUMP JUMPDEST PUSH1 0x1 SWAP2 POP EQ DUP6 PUSH2 0x62B JUMP JUMPDEST CALLVALUE PUSH2 0x121 JUMPI PUSH1 0xA0 CALLDATASIZE PUSH1 0x3 NOT ADD SLT PUSH2 0x121 JUMPI PUSH1 0x84 CALLDATALOAD PUSH1 0x64 CALLDATALOAD PUSH1 0x4 CALLDATALOAD PUSH1 0x24 CALLDATALOAD PUSH1 0x44 CALLDATALOAD DUP2 ISZERO PUSH2 0x1337 JUMPI DUP1 ISZERO PUSH2 0x12FA JUMPI DUP4 ISZERO PUSH2 0x12B5 JUMPI PUSH2 0x12C DUP6 LT PUSH2 0x1270 JUMPI PUSH2 0x113E DUP3 ADDRESS CALLER PUSH32 0x0 PUSH2 0x1807 JUMP JUMPDEST PUSH1 0x2 SLOAD SWAP4 PUSH2 0x114B DUP6 PUSH2 0x1639 JUMP JUMPDEST PUSH1 0x2 SSTORE PUSH2 0x1158 DUP7 TIMESTAMP PUSH2 0x1648 JUMP JUMPDEST SWAP6 PUSH1 0x40 MLOAD PUSH2 0x100 DUP2 ADD DUP2 DUP2 LT PUSH8 0xFFFFFFFFFFFFFFFF DUP3 GT OR PUSH2 0x4C0 JUMPI PUSH1 0x40 MSTORE CALLER DUP2 MSTORE PUSH1 0x20 DUP2 ADD SWAP8 DUP7 DUP10 MSTORE PUSH1 0x40 DUP3 ADD SWAP4 DUP7 DUP6 MSTORE PUSH1 0x60 DUP4 ADD DUP7 DUP2 MSTORE PUSH1 0x80 DUP5 ADD SWAP2 DUP3 MSTORE PUSH1 0xA0 DUP5 ADD SWAP3 DUP4 MSTORE PUSH1 0xC0 DUP5 ADD SWAP6 PUSH1 0x0 DUP8 MSTORE PUSH1 0xE0 DUP6 ADD SWAP12 TIMESTAMP DUP14 MSTORE DUP12 PUSH1 0x0 MSTORE PUSH1 0x5 PUSH1 0x20 MSTORE PUSH1 0x40 PUSH1 0x0 KECCAK256 SWAP6 PUSH1 0x1 DUP1 PUSH1 0xA0 SHL SUB SWAP1 MLOAD AND PUSH12 0xFFFFFFFFFFFFFFFFFFFFFFFF PUSH1 0xA0 SHL DUP8 SLOAD AND OR DUP7 SSTORE MLOAD PUSH1 0x1 DUP7 ADD SSTORE MLOAD PUSH1 0x2 DUP6 ADD SSTORE MLOAD PUSH1 0x3 DUP5 ADD SSTORE MLOAD PUSH1 0x4 DUP4 ADD SSTORE MLOAD PUSH1 0x5 DUP3 ADD SSTORE PUSH1 0x6 DUP2 ADD SWAP3 MLOAD PUSH1 0x4 DUP2 LT ISZERO PUSH2 0x28B JUMPI PUSH1 0x20 SWAP9 PUSH2 0x122C SWAP5 PUSH1 0x7 SWAP3 PUSH1 0xFF DUP1 NOT DUP4 SLOAD AND SWAP2 AND OR SWAP1 SSTORE MLOAD SWAP2 ADD SSTORE TIMESTAMP PUSH2 0x1648 JUMP JUMPDEST SWAP2 PUSH1 0x40 MLOAD SWAP4 DUP5 MSTORE DUP6 DUP5 ADD MSTORE PUSH1 0x40 DUP4 ADD MSTORE PUSH1 0x60 DUP3 ADD MSTORE DUP2 PUSH32 0xE4C84ABAC159B1BA1D709419B44B97A9F8D4884518B3D20F634515A7B30BC1BB PUSH1 0x80 CALLER SWAP4 LOG3 PUSH1 0x40 MLOAD SWAP1 DUP2 MSTORE RETURN JUMPDEST PUSH1 0x40 MLOAD PUSH3 0x461BCD PUSH1 0xE5 SHL DUP2 MSTORE PUSH1 0x20 PUSH1 0x4 DUP3 ADD MSTORE PUSH1 0x1D PUSH1 0x24 DUP3 ADD MSTORE PUSH32 0x4475726174696F6E206D757374206265203E3D2035206D696E75746573000000 PUSH1 0x44 DUP3 ADD MSTORE PUSH1 0x64 SWAP1 REVERT JUMPDEST PUSH1 0x40 MLOAD PUSH3 0x461BCD PUSH1 0xE5 SHL DUP2 MSTORE PUSH1 0x20 PUSH1 0x4 DUP3 ADD MSTORE PUSH1 0x18 PUSH1 0x24 DUP3 ADD MSTORE PUSH32 0x4D617820747261696E657273206D757374206265203E20300000000000000000 PUSH1 0x44 DUP3 ADD MSTORE PUSH1 0x64 SWAP1 REVERT JUMPDEST PUSH1 0x40 MLOAD PUSH3 0x461BCD PUSH1 0xE5 SHL DUP2 MSTORE PUSH1 0x20 PUSH1 0x4 DUP3 ADD MSTORE PUSH1 0x15 PUSH1 0x24 DUP3 ADD MSTORE PUSH21 0x4D696E207374616B65206D757374206265203E203 PUSH1 0x5C SHL PUSH1 0x44 DUP3 ADD MSTORE PUSH1 0x64 SWAP1 REVERT JUMPDEST PUSH1 0x40 MLOAD PUSH3 0x461BCD PUSH1 0xE5 SHL DUP2 MSTORE PUSH1 0x20 PUSH1 0x4 DUP3 ADD MSTORE PUSH1 0x12 PUSH1 0x24 DUP3 ADD MSTORE PUSH18 0x526577617264206D757374206265203E203 PUSH1 0x74 SHL PUSH1 0x44 DUP3 ADD MSTORE PUSH1 0x64 SWAP1 REVERT JUMPDEST CALLVALUE PUSH2 0x121 JUMPI PUSH1 0x0 CALLDATASIZE PUSH1 0x3 NOT ADD SLT PUSH2 0x121 JUMPI PUSH2 0x138A PUSH2 0x177A JUMP JUMPDEST PUSH1 0x0 DUP1 SLOAD PUSH1 0x1 PUSH1 0x1 PUSH1 0xA0 SHL SUB NOT DUP2 AND DUP3 SSTORE PUSH1 0x1 PUSH1 0x1 PUSH1 0xA0 SHL SUB AND PUSH32 0x8BE0079C531659141344CD1FD0A4F28419497F9722A3DAAFE3B4186F6B6457E0 DUP3 DUP1 LOG3 STOP JUMPDEST CALLVALUE PUSH2 0x121 JUMPI PUSH1 0x20 CALLDATASIZE PUSH1 0x3 NOT ADD SLT PUSH2 0x121 JUMPI PUSH1 0x4 CALLDATALOAD PUSH2 0x13E6 PUSH2 0x177A JUMP JUMPDEST PUSH2 0x2710 DUP2 GT PUSH2 0x13F4 JUMPI PUSH1 0x3 SSTORE STOP JUMPDEST PUSH1 0x40 MLOAD PUSH3 0x461BCD PUSH1 0xE5 SHL DUP2 MSTORE PUSH1 0x20 PUSH1 0x4 DUP3 ADD MSTORE PUSH1 0x11 PUSH1 0x24 DUP3 ADD MSTORE PUSH17 0x5261746520657863656564732031303025 PUSH1 0x78 SHL PUSH1 0x44 DUP3 ADD MSTORE PUSH1 0x64 SWAP1 REVERT JUMPDEST CALLVALUE PUSH2 0x121 JUMPI PUSH1 0x20 CALLDATASIZE PUSH1 0x3 NOT ADD SLT PUSH2 0x121 JUMPI PUSH1 0x4 CALLDATALOAD DUP1 PUSH1 0x0 MSTORE PUSH1 0x5 PUSH1 0x20 MSTORE PUSH1 0x40 PUSH1 0x0 KECCAK256 PUSH2 0xE49 PUSH1 0x1 DUP1 PUSH1 0xA0 SHL SUB DUP3 SLOAD AND SWAP2 PUSH1 0x1 DUP2 ADD SLOAD SWAP4 PUSH1 0x2 DUP3 ADD SLOAD SWAP2 PUSH1 0x3 DUP2 ADD SLOAD PUSH1 0x4 DUP3 ADD SLOAD SWAP1 PUSH1 0xFF PUSH1 0x6 PUSH1 0x5 DUP6 ADD SLOAD SWAP5 ADD SLOAD AND SWAP4 PUSH1 0x0 MSTORE PUSH1 0x7 PUSH1 0x20 MSTORE PUSH1 0x40 PUSH1 0x0 KECCAK256 SLOAD SWAP5 PUSH1 0x40 MLOAD SWAP9 DUP10 SWAP9 DUP10 PUSH2 0x15AE JUMP JUMPDEST CALLVALUE PUSH2 0x121 JUMPI PUSH1 0x20 CALLDATASIZE PUSH1 0x3 NOT ADD SLT PUSH2 0x121 JUMPI PUSH2 0x14B6 PUSH2 0x1582 JUMP JUMPDEST PUSH2 0x14BE PUSH2 0x177A JUMP JUMPDEST PUSH2 0x14C6 PUSH2 0x17A3 JUMP JUMPDEST PUSH1 0x1 PUSH1 0x1 PUSH1 0xA0 SHL SUB DUP2 AND ISZERO PUSH2 0x154B JUMPI PUSH1 0x4 SLOAD DUP1 ISZERO PUSH2 0x1513 JUMPI PUSH2 0x150D SWAP2 PUSH1 0x0 PUSH1 0x4 SSTORE PUSH32 0x0 PUSH2 0x17C5 JUMP JUMPDEST PUSH1 0x1 DUP1 SSTORE STOP JUMPDEST PUSH1 0x40 MLOAD PUSH3 0x461BCD PUSH1 0xE5 SHL DUP2 MSTORE PUSH1 0x20 PUSH1 0x4 DUP3 ADD MSTORE PUSH1 0x10 PUSH1 0x24 DUP3 ADD MSTORE PUSH16 0x4E6F20736C61736865642066756E6473 PUSH1 0x80 SHL PUSH1 0x44 DUP3 ADD MSTORE PUSH1 0x64 SWAP1 REVERT JUMPDEST PUSH1 0x40 MLOAD PUSH3 0x461BCD PUSH1 0xE5 SHL DUP2 MSTORE PUSH1 0x20 PUSH1 0x4 DUP3 ADD MSTORE PUSH1 0xF PUSH1 0x24 DUP3 ADD MSTORE PUSH15 0x496E76616C69642061646472657373 PUSH1 0x88 SHL PUSH1 0x44 DUP3 ADD MSTORE PUSH1 0x64 SWAP1 REVERT JUMPDEST PUSH1 0x4 CALLDATALOAD SWAP1 PUSH1 0x1 PUSH1 0x1 PUSH1 0xA0 SHL SUB DUP3 AND DUP3 SUB PUSH2 0x121 JUMPI JUMP JUMPDEST PUSH1 0x24 CALLDATALOAD SWAP1 PUSH1 0x1 PUSH1 0x1 PUSH1 0xA0 SHL SUB DUP3 AND DUP3 SUB PUSH2 0x121 JUMPI JUMP JUMPDEST SWAP5 SWAP3 SWAP1 SWAP9 SWAP8 SWAP7 SWAP6 SWAP4 SWAP2 PUSH2 0x100 DUP7 ADD SWAP10 PUSH1 0x1 DUP1 PUSH1 0xA0 SHL SUB AND DUP7 MSTORE PUSH1 0x20 DUP7 ADD MSTORE PUSH1 0x40 DUP6 ADD MSTORE PUSH1 0x60 DUP5 ADD MSTORE PUSH1 0x80 DUP4 ADD MSTORE PUSH1 0xA0 DUP3 ADD MSTORE PUSH1 0x4 DUP3 LT ISZERO PUSH2 0x28B JUMPI PUSH1 0xE0 SWAP2 PUSH1 0xC0 DUP3 ADD MSTORE ADD MSTORE JUMP JUMPDEST PUSH1 0x40 SWAP1 PUSH1 0x3 NOT ADD SLT PUSH2 0x121 JUMPI PUSH1 0x4 CALLDATALOAD SWAP1 PUSH1 0x24 CALLDATALOAD SWAP1 JUMP JUMPDEST DUP1 SLOAD DUP3 LT ISZERO PUSH2 0x1623 JUMPI PUSH1 0x0 MSTORE PUSH1 0x20 PUSH1 0x0 KECCAK256 ADD SWAP1 PUSH1 0x0 SWAP1 JUMP JUMPDEST PUSH4 0x4E487B71 PUSH1 0xE0 SHL PUSH1 0x0 MSTORE PUSH1 0x32 PUSH1 0x4 MSTORE PUSH1 0x24 PUSH1 0x0 REVERT JUMPDEST PUSH1 0x0 NOT DUP2 EQ PUSH2 0x7B1 JUMPI PUSH1 0x1 ADD SWAP1 JUMP JUMPDEST SWAP2 SWAP1 DUP3 ADD DUP1 SWAP3 GT PUSH2 0x7B1 JUMPI JUMP JUMPDEST SWAP1 PUSH1 0x1F DUP1 NOT SWAP2 ADD AND DUP2 ADD SWAP1 DUP2 LT PUSH8 0xFFFFFFFFFFFFFFFF DUP3 GT OR PUSH2 0x4C0 JUMPI PUSH1 0x40 MSTORE JUMP JUMPDEST ISZERO PUSH2 0x167E JUMPI JUMP JUMPDEST PUSH1 0x40 MLOAD PUSH3 0x461BCD PUSH1 0xE5 SHL DUP2 MSTORE PUSH1 0x20 PUSH1 0x4 DUP3 ADD MSTORE PUSH1 0x16 PUSH1 0x24 DUP3 ADD MSTORE PUSH22 0x15185CDAC8185B1C9958591E48199A5B985B1A5E9959 PUSH1 0x52 SHL PUSH1 0x44 DUP3 ADD MSTORE PUSH1 0x64 SWAP1 REVERT JUMPDEST ISZERO PUSH2 0x16C3 JUMPI JUMP JUMPDEST PUSH1 0x40 MLOAD PUSH3 0x461BCD PUSH1 0xE5 SHL DUP2 MSTORE PUSH1 0x20 PUSH1 0x4 DUP3 ADD MSTORE PUSH1 0x14 PUSH1 0x24 DUP3 ADD MSTORE PUSH20 0x5461736B206E6F7420696E2070726F6772657373 PUSH1 0x60 SHL PUSH1 0x44 DUP3 ADD MSTORE PUSH1 0x64 SWAP1 REVERT JUMPDEST ISZERO PUSH2 0x1706 JUMPI JUMP JUMPDEST PUSH1 0x40 MLOAD PUSH3 0x461BCD PUSH1 0xE5 SHL DUP2 MSTORE PUSH1 0x20 PUSH1 0x4 DUP3 ADD MSTORE PUSH1 0xC PUSH1 0x24 DUP3 ADD MSTORE PUSH12 0x15185CDAC8195E1C1A5C9959 PUSH1 0xA2 SHL PUSH1 0x44 DUP3 ADD MSTORE PUSH1 0x64 SWAP1 REVERT JUMPDEST ISZERO PUSH2 0x1741 JUMPI JUMP JUMPDEST PUSH1 0x40 MLOAD PUSH3 0x461BCD PUSH1 0xE5 SHL DUP2 MSTORE PUSH1 0x20 PUSH1 0x4 DUP3 ADD MSTORE PUSH1 0x11 PUSH1 0x24 DUP3 ADD MSTORE PUSH17 0x139BDD0818481C185C9D1A58DA5C185B9D PUSH1 0x7A SHL PUSH1 0x44 DUP3 ADD MSTORE PUSH1 0x64 SWAP1 REVERT JUMPDEST PUSH1 0x0 SLOAD PUSH1 0x1 PUSH1 0x1 PUSH1 0xA0 SHL SUB AND CALLER SUB PUSH2 0x178E JUMPI JUMP JUMPDEST PUSH4 0x118CDAA7 PUSH1 0xE0 SHL PUSH1 0x0 MSTORE CALLER PUSH1 0x4 MSTORE PUSH1 0x24 PUSH1 0x0 REVERT JUMPDEST PUSH1 0x2 PUSH1 0x1 SLOAD EQ PUSH2 0x17B4 JUMPI PUSH1 0x2 PUSH1 0x1 SSTORE JUMP JUMPDEST PUSH4 0x3EE5AEB5 PUSH1 0xE0 SHL PUSH1 0x0 MSTORE PUSH1 0x4 PUSH1 0x0 REVERT JUMPDEST PUSH1 0x40 MLOAD PUSH4 0xA9059CBB PUSH1 0xE0 SHL PUSH1 0x20 DUP3 ADD MSTORE PUSH1 0x1 PUSH1 0x1 PUSH1 0xA0 SHL SUB SWAP1 SWAP3 AND PUSH1 0x24 DUP4 ADD MSTORE PUSH1 0x44 DUP1 DUP4 ADD SWAP4 SWAP1 SWAP4 MSTORE SWAP2 DUP2 MSTORE PUSH2 0x1805 SWAP2 PUSH2 0x1800 PUSH1 0x64 DUP4 PUSH2 0x1655 JUMP JUMPDEST PUSH2 0x184B JUMP JUMPDEST JUMP JUMPDEST PUSH1 0x40 MLOAD PUSH4 0x23B872DD PUSH1 0xE0 SHL PUSH1 0x20 DUP3 ADD MSTORE PUSH1 0x1 PUSH1 0x1 PUSH1 0xA0 SHL SUB SWAP3 DUP4 AND PUSH1 0x24 DUP3 ADD MSTORE SWAP3 SWAP1 SWAP2 AND PUSH1 0x44 DUP4 ADD MSTORE PUSH1 0x64 DUP1 DUP4 ADD SWAP4 SWAP1 SWAP4 MSTORE SWAP2 DUP2 MSTORE PUSH2 0x1805 SWAP2 PUSH2 0x1800 PUSH1 0x84 DUP4 PUSH2 0x1655 JUMP JUMPDEST SWAP1 PUSH1 0x0 PUSH1 0x20 SWAP2 DUP3 DUP2 MLOAD SWAP2 ADD DUP3 DUP6 GAS CALL ISZERO PUSH2 0x18A6 JUMPI PUSH1 0x0 MLOAD RETURNDATASIZE PUSH2 0x189D JUMPI POP PUSH1 0x1 PUSH1 0x1 PUSH1 0xA0 SHL SUB DUP2 AND EXTCODESIZE ISZERO JUMPDEST PUSH2 0x187C JUMPI POP JUMP JUMPDEST PUSH4 0x5274AFE7 PUSH1 0xE0 SHL PUSH1 0x0 SWAP1 DUP2 MSTORE PUSH1 0x1 PUSH1 0x1 PUSH1 0xA0 SHL SUB SWAP2 SWAP1 SWAP2 AND PUSH1 0x4 MSTORE PUSH1 0x24 SWAP1 REVERT JUMPDEST PUSH1 0x1 EQ ISZERO PUSH2 0x1875 JUMP JUMPDEST PUSH1 0x40 MLOAD RETURNDATASIZE PUSH1 0x0 DUP3 RETURNDATACOPY RETURNDATASIZE SWAP1 REVERT INVALID LOG2 PUSH5 0x6970667358 0x22 SLT KECCAK256 PUSH17 0xDA99F6BC7E3E098F4413275C7C53C09B2C LT 0x4D 0xC1 SSTORE BALANCE SWAP1 NUMBER PUSH21 0x49163B952AA464736F6C634300081C003300000000 "},"methodIdentifiers":{"cancelTask(uint256)":"7eec20a8","claimReward(uint256)":"ae169a50","completeTask(uint256)":"e1e29558","createTask(bytes32,uint256,uint256,uint256,uint256)":"7ba0636b","getTaskDetails(uint256)":"3888b9d5","getTaskTrainers(uint256)":"8e359d2a","joinTask(uint256,uint256)":"de35d846","nextTaskId()":"fdc3d8d7","owner()":"8da5cb5b","renounceOwnership()":"715018a6","setSlashRate(uint256)":"4151766b","slashRate()":"e341181d","submitResult(uint256,bytes32)":"d2ee66cf","taskTrainers(uint256,uint256)":"862509ad","tasks(uint256)":"8d977672","token()":"fc0c546a","totalSlashed()":"a201bbdd","trainers(uint256,address)":"cc91a95f","transferOwnership(address)":"f2fde38b","validateTrainer(uint256,address,bool)":"d999850e","withdrawSlashed(address)":"0ee3145e"}}}}}