{"src/SubnetRegistry.sol":{"SubnetRegistry":{"abi":[{"inputs":[{"internalType":"address","name":"_token","type":"address"},{"internalType":"uint256","name":"_subnetRegistrationCost","type":"uint256"},{"internalType":"uint256","name":"_emissionPerBlock","type":"uint256"}],"stateMutability":"nonpayable","type":"constructor"},{"inputs":[{"internalType":"address","name":"owner","type":"address"}],"name":"OwnableInvalidOwner","type":"error"},{"inputs":[{"internalType":"address","name":"account","type":"address"}],"name":"OwnableUnauthorizedAccount","type":"error"},{"inputs":[],"name":"ReentrancyGuardReentrantCall","type":"error"},{"inputs":[{"internalType":"address","name":"token","type":"address"}],"name":"SafeERC20FailedOperation","type":"error"},{"anonymous":false,"inputs":[{"indexed":true,"internalType":"uint256","name":"netuid","type":"uint256"},{"indexed":false,"internalType":"uint16","name":"uid","type":"uint16"},{"indexed":true,"internalType":"address","name":"hotkey","type":"address"},{"indexed":false,"internalType":"uint256","name":"amount","type":"uint256"}],"name":"EmissionClaimed","type":"event"},{"anonymous":false,"inputs":[{"indexed":true,"internalType":"uint256","name":"netuid","type":"uint256"},{"indexed":false,"internalType":"uint256","name":"blockNumber","type":"uint256"},{"indexed":false,"internalType":"uint256","name":"totalEmission","type":"uint256"}],"name":"EpochCompleted","type":"event"},{"anonymous":false,"inputs":[{"indexed":true,"internalType":"uint256","name":"netuid","type":"uint256"},{"indexed":false,"internalType":"uint16","name":"uid","type":"uint16"},{"indexed":true,"internalType":"address","name":"hotkey","type":"address"}],"name":"NodeDeregistered","type":"event"},{"anonymous":false,"inputs":[{"indexed":true,"internalType":"uint256","name":"netuid","type":"uint256"},{"indexed":false,"internalType":"uint16","name":"uid","type":"uint16"},{"indexed":true,"internalType":"address","name":"hotkey","type":"address"},{"indexed":true,"internalType":"address","name":"coldkey","type":"address"},{"indexed":false,"internalType":"enum SubnetRegistry.NodeType","name":"nodeType","type":"uint8"}],"name":"NodeRegistered","type":"event"},{"anonymous":false,"inputs":[{"indexed":true,"internalType":"uint256","name":"netuid","type":"uint256"},{"indexed":false,"internalType":"uint16","name":"uid","type":"uint16"},{"indexed":false,"internalType":"uint256","name":"amount","type":"uint256"},{"indexed":false,"internalType":"string","name":"reason","type":"string"}],"name":"NodeSlashed","type":"event"},{"anonymous":false,"inputs":[{"indexed":true,"internalType":"address","name":"previousOwner","type":"address"},{"indexed":true,"internalType":"address","name":"newOwner","type":"address"}],"name":"OwnershipTransferred","type":"event"},{"anonymous":false,"inputs":[{"indexed":true,"internalType":"address","name":"delegator","type":"address"},{"indexed":true,"internalType":"uint256","name":"netuid","type":"uint256"},{"indexed":false,"internalType":"uint16","name":"validatorUid","type":"uint16"},{"indexed":false,"internalType":"uint256","name":"amount","type":"uint256"}],"name":"StakeDelegated","type":"event"},{"anonymous":false,"inputs":[{"indexed":true,"internalType":"address","name":"delegator","type":"address"},{"indexed":true,"internalType":"uint256","name":"netuid","type":"uint256"},{"indexed":false,"internalType":"uint16","name":"validatorUid","type":"uint16"},{"indexed":false,"internalType":"uint256","name":"amount","type":"uint256"}],"name":"StakeUndelegated","type":"event"},{"anonymous":false,"inputs":[{"indexed":true,"internalType":"uint256","name":"netuid","type":"uint256"},{"indexed":false,"internalType":"string","name":"name","type":"string"},{"indexed":true,"internalType":"address","name":"owner","type":"address"}],"name":"SubnetCreated","type":"event"},{"anonymous":false,"inputs":[{"indexed":true,"internalType":"uint256","name":"netuid","type":"uint256"},{"indexed":false,"internalType":"string","name":"name","type":"string"}],"name":"SubnetUpdated","type":"event"},{"anonymous":false,"inputs":[{"indexed":true,"internalType":"uint256","name":"netuid","type":"uint256"},{"indexed":false,"internalType":"uint16","name":"uid","type":"uint16"},{"indexed":false,"internalType":"uint256","name":"newTrust","type":"uint256"}],"name":"TrustUpdated","type":"event"},{"anonymous":false,"inputs":[{"indexed":true,"internalType":"uint256","name":"netuid","type":"uint256"},{"indexed":true,"internalType":"uint16","name":"validatorUid","type":"uint16"},{"indexed":false,"internalType":"bytes32","name":"commitHash","type":"bytes32"}],"name":"WeightsCommitted","type":"event"},{"anonymous":false,"inputs":[{"indexed":true,"internalType":"uint256","name":"netuid","type":"uint256"},{"indexed":true,"internalType":"uint16","name":"validatorUid","type":"uint16"},{"indexed":false,"internalType":"uint256","name":"weightCount","type":"uint256"}],"name":"WeightsRevealed","type":"event"},{"anonymous":false,"inputs":[{"indexed":true,"internalType":"uint256","name":"netuid","type":"uint256"},{"indexed":true,"internalType":"uint16","name":"validatorUid","type":"uint16"},{"indexed":false,"internalType":"uint256","name":"weightCount","type":"uint256"}],"name":"WeightsSet","type":"event"},{"inputs":[],"name":"TRUST_MULTIPLIER_BASE","outputs":[{"internalType":"uint256","name":"","type":"uint256"}],"stateMutability":"view","type":"function"},{"inputs":[],"name":"TRUST_MULTIPLIER_MAX","outputs":[{"internalType":"uint256","name":"","type":"uint256"}],"stateMutability":"view","type":"function"},{"inputs":[{"internalType":"uint256","name":"netuid","type":"uint256"},{"internalType":"uint16","name":"validatorUid","type":"uint16"}],"name":"autoSlashInactive","outputs":[],"stateMutability":"nonpayable","type":"function"},{"inputs":[{"internalType":"uint256","name":"netuid","type":"uint256"},{"internalType":"uint16","name":"uid","type":"uint16"}],"name":"claimEmission","outputs":[],"stateMutability":"nonpayable","type":"function"},{"inputs":[{"internalType":"uint256","name":"","type":"uint256"},{"internalType":"address","name":"","type":"address"},{"internalType":"enum SubnetRegistry.NodeType","name":"","type":"uint8"}],"name":"coldkeyNodeType","outputs":[{"internalType":"bool","name":"","type":"bool"}],"stateMutability":"view","type":"function"},{"inputs":[],"name":"commitMinDelay","outputs":[{"internalType":"uint256","name":"","type":"uint256"}],"stateMutability":"view","type":"function"},{"inputs":[],"name":"commitRevealWindow","outputs":[{"internalType":"uint256","name":"","type":"uint256"}],"stateMutability":"view","type":"function"},{"inputs":[{"internalType":"uint256","name":"netuid","type":"uint256"},{"internalType":"bytes32","name":"commitHash","type":"bytes32"}],"name":"commitWeights","outputs":[],"stateMutability":"nonpayable","type":"function"},{"inputs":[{"internalType":"string","name":"name","type":"string"},{"internalType":"uint256","name":"maxNodes","type":"uint256"},{"internalType":"uint256","name":"minStake","type":"uint256"},{"internalType":"uint256","name":"tempo","type":"uint256"}],"name":"createSubnet","outputs":[{"internalType":"uint256","name":"netuid","type":"uint256"}],"stateMutability":"nonpayable","type":"function"},{"inputs":[{"internalType":"uint256","name":"netuid","type":"uint256"},{"internalType":"uint16","name":"validatorUid","type":"uint16"},{"internalType":"uint256","name":"amount","type":"uint256"}],"name":"delegate","outputs":[],"stateMutability":"nonpayable","type":"function"},{"inputs":[{"internalType":"address","name":"","type":"address"},{"internalType":"bytes32","name":"","type":"bytes32"}],"name":"delegations","outputs":[{"internalType":"uint256","name":"","type":"uint256"}],"stateMutability":"view","type":"function"},{"inputs":[{"internalType":"uint256","name":"netuid","type":"uint256"},{"internalType":"uint16","name":"uid","type":"uint16"}],"name":"deregisterNode","outputs":[],"stateMutability":"nonpayable","type":"function"},{"inputs":[],"name":"emissionPerBlock","outputs":[{"internalType":"uint256","name":"","type":"uint256"}],"stateMutability":"view","type":"function"},{"inputs":[{"internalType":"uint256","name":"amount","type":"uint256"}],"name":"fundEmissionPool","outputs":[],"stateMutability":"nonpayable","type":"function"},{"inputs":[{"internalType":"address","name":"delegator","type":"address"},{"internalType":"uint256","name":"netuid","type":"uint256"},{"internalType":"uint16","name":"validatorUid","type":"uint16"}],"name":"getDelegation","outputs":[{"internalType":"uint256","name":"","type":"uint256"}],"stateMutability":"view","type":"function"},{"inputs":[{"internalType":"uint256","name":"netuid","type":"uint256"}],"name":"getMetagraph","outputs":[{"internalType":"address[]","name":"hotkeys","type":"address[]"},{"internalType":"address[]","name":"coldkeys","type":"address[]"},{"internalType":"uint256[]","name":"stakes","type":"uint256[]"},{"internalType":"uint256[]","name":"ranks","type":"uint256[]"},{"internalType":"uint256[]","name":"incentives","type":"uint256[]"},{"internalType":"uint256[]","name":"emissions","type":"uint256[]"},{"internalType":"uint8[]","name":"nodeTypes","type":"uint8[]"},{"internalType":"bool[]","name":"activeFlags","type":"bool[]"}],"stateMutability":"view","type":"function"},{"inputs":[{"internalType":"uint256","name":"netuid","type":"uint256"},{"internalType":"uint16","name":"uid","type":"uint16"}],"name":"getNode","outputs":[{"internalType":"address","name":"hotkey","type":"address"},{"internalType":"address","name":"coldkey","type":"address"},{"internalType":"uint8","name":"nodeType","type":"uint8"},{"internalType":"uint256","name":"stake","type":"uint256"},{"internalType":"uint256","name":"delegatedStake","type":"uint256"},{"internalType":"uint256","name":"rank","type":"uint256"},{"internalType":"uint256","name":"incentive","type":"uint256"},{"internalType":"uint256","name":"emission","type":"uint256"},{"internalType":"uint256","name":"trust","type":"uint256"},{"internalType":"bool","name":"active","type":"bool"}],"stateMutability":"view","type":"function"},{"inputs":[{"internalType":"uint256","name":"netuid","type":"uint256"}],"name":"getSubnet","outputs":[{"internalType":"string","name":"name","type":"string"},{"internalType":"address","name":"subnetOwner","type":"address"},{"internalType":"uint256","name":"maxNodes","type":"uint256"},{"internalType":"uint256","name":"emissionShare","type":"uint256"},{"internalType":"uint256","name":"tempo","type":"uint256"},{"internalType":"uint256","name":"nodeCount","type":"uint256"},{"internalType":"bool","name":"active","type":"bool"}],"stateMutability":"view","type":"function"},{"inputs":[],"name":"getSubnetCount","outputs":[{"internalType":"uint256","name":"","type":"uint256"}],"stateMutability":"view","type":"function"},{"inputs":[{"internalType":"uint256","name":"netuid","type":"uint256"},{"internalType":"uint16","name":"uid","type":"uint16"}],"name":"getTrust","outputs":[{"internalType":"uint256","name":"","type":"uint256"}],"stateMutability":"view","type":"function"},{"inputs":[{"internalType":"uint256","name":"netuid","type":"uint256"},{"internalType":"address","name":"hotkey","type":"address"}],"name":"getUidByHotkey","outputs":[{"internalType":"uint16","name":"","type":"uint16"}],"stateMutability":"view","type":"function"},{"inputs":[{"internalType":"uint256","name":"netuid","type":"uint256"},{"internalType":"uint16","name":"validatorUid","type":"uint16"}],"name":"getWeights","outputs":[{"internalType":"uint16[]","name":"uids","type":"uint16[]"},{"internalType":"uint16[]","name":"weights","type":"uint16[]"}],"stateMutability":"view","type":"function"},{"inputs":[{"internalType":"uint256","name":"","type":"uint256"},{"internalType":"address","name":"","type":"address"}],"name":"hotkeyToUid","outputs":[{"internalType":"uint16","name":"","type":"uint16"}],"stateMutability":"view","type":"function"},{"inputs":[{"internalType":"uint256","name":"","type":"uint256"},{"internalType":"address","name":"","type":"address"}],"name":"isRegistered","outputs":[{"internalType":"bool","name":"","type":"bool"}],"stateMutability":"view","type":"function"},{"inputs":[],"name":"maxWeightAge","outputs":[{"internalType":"uint256","name":"","type":"uint256"}],"stateMutability":"view","type":"function"},{"inputs":[],"name":"nextNetuid","outputs":[{"internalType":"uint256","name":"","type":"uint256"}],"stateMutability":"view","type":"function"},{"inputs":[{"internalType":"uint256","name":"","type":"uint256"},{"internalType":"uint16","name":"","type":"uint16"}],"name":"nodes","outputs":[{"internalType":"address","name":"hotkey","type":"address"},{"internalType":"address","name":"coldkey","type":"address"},{"internalType":"enum SubnetRegistry.NodeType","name":"nodeType","type":"uint8"},{"internalType":"uint256","name":"stake","type":"uint256"},{"internalType":"uint256","name":"delegatedStake","type":"uint256"},{"internalType":"uint256","name":"lastUpdate","type":"uint256"},{"internalType":"uint16","name":"uid","type":"uint16"},{"internalType":"bool","name":"active","type":"bool"},{"internalType":"uint256","name":"incentive","type":"uint256"},{"internalType":"uint256","name":"trust","type":"uint256"},{"internalType":"uint256","name":"rank","type":"uint256"},{"internalType":"uint256","name":"emission","type":"uint256"}],"stateMutability":"view","type":"function"},{"inputs":[],"name":"owner","outputs":[{"internalType":"address","name":"","type":"address"}],"stateMutability":"view","type":"function"},{"inputs":[{"internalType":"uint256","name":"netuid","type":"uint256"},{"internalType":"address","name":"hotkey","type":"address"},{"internalType":"enum SubnetRegistry.NodeType","name":"nodeType","type":"uint8"},{"internalType":"uint256","name":"stakeAmount","type":"uint256"}],"name":"registerNode","outputs":[{"internalType":"uint16","name":"uid","type":"uint16"}],"stateMutability":"nonpayable","type":"function"},{"inputs":[],"name":"renounceOwnership","outputs":[],"stateMutability":"nonpayable","type":"function"},{"inputs":[{"internalType":"uint256","name":"netuid","type":"uint256"},{"internalType":"uint16[]","name":"uids","type":"uint16[]"},{"internalType":"uint16[]","name":"weights","type":"uint16[]"},{"internalType":"bytes32","name":"salt","type":"bytes32"}],"name":"revealWeights","outputs":[],"stateMutability":"nonpayable","type":"function"},{"inputs":[{"internalType":"uint256","name":"netuid","type":"uint256"}],"name":"runEpoch","outputs":[],"stateMutability":"nonpayable","type":"function"},{"inputs":[{"internalType":"uint256","name":"_blocks","type":"uint256"}],"name":"setCommitMinDelay","outputs":[],"stateMutability":"nonpayable","type":"function"},{"inputs":[{"internalType":"uint256","name":"_blocks","type":"uint256"}],"name":"setCommitRevealWindow","outputs":[],"stateMutability":"nonpayable","type":"function"},{"inputs":[{"internalType":"uint256","name":"amount","type":"uint256"}],"name":"setEmissionPerBlock","outputs":[],"stateMutability":"nonpayable","type":"function"},{"inputs":[{"internalType":"uint256","name":"_blocks","type":"uint256"}],"name":"setMaxWeightAge","outputs":[],"stateMutability":"nonpayable","type":"function"},{"inputs":[{"internalType":"uint256","name":"_basisPoints","type":"uint256"}],"name":"setSlashPercentage","outputs":[],"stateMutability":"nonpayable","type":"function"},{"inputs":[{"internalType":"uint256","name":"cost","type":"uint256"}],"name":"setSubnetRegistrationCost","outputs":[],"stateMutability":"nonpayable","type":"function"},{"inputs":[{"internalType":"uint256","name":"netuid","type":"uint256"},{"internalType":"uint16[]","name":"uids","type":"uint16[]"},{"internalType":"uint16[]","name":"weights","type":"uint16[]"}],"name":"setWeights","outputs":[],"stateMutability":"nonpayable","type":"function"},{"inputs":[{"internalType":"address","name":"_verifier","type":"address"}],"name":"setZkmlVerifier","outputs":[],"stateMutability":"nonpayable","type":"function"},{"inputs":[{"internalType":"uint256","name":"netuid","type":"uint256"},{"internalType":"uint16","name":"uid","type":"uint16"},{"internalType":"uint256","name":"basisPoints","type":"uint256"},{"internalType":"string","name":"reason","type":"string"}],"name":"slashNode","outputs":[],"stateMutability":"nonpayable","type":"function"},{"inputs":[],"name":"slashPercentage","outputs":[{"internalType":"uint256","name":"","type":"uint256"}],"stateMutability":"view","type":"function"},{"inputs":[],"name":"subnetRegistrationCost","outputs":[{"internalType":"uint256","name":"","type":"uint256"}],"stateMutability":"view","type":"function"},{"inputs":[{"internalType":"uint256","name":"","type":"uint256"}],"name":"subnets","outputs":[{"internalType":"string","name":"name","type":"string"},{"internalType":"address","name":"owner","type":"address"},{"internalType":"uint256","name":"maxNodes","type":"uint256"},{"internalType":"uint256","name":"emissionShare","type":"uint256"},{"internalType":"uint256","name":"tempo","type":"uint256"},{"internalType":"uint256","name":"lastEpochBlock","type":"uint256"},{"internalType":"uint256","name":"minStake","type":"uint256"},{"internalType":"uint256","name":"immunityPeriod","type":"uint256"},{"internalType":"uint256","name":"nodeCount","type":"uint256"},{"internalType":"bool","name":"active","type":"bool"},{"internalType":"uint256","name":"createdAt","type":"uint256"}],"stateMutability":"view","type":"function"},{"inputs":[],"name":"token","outputs":[{"internalType":"contract IERC20","name":"","type":"address"}],"stateMutability":"view","type":"function"},{"inputs":[],"name":"totalEmissionShares","outputs":[{"internalType":"uint256","name":"","type":"uint256"}],"stateMutability":"view","type":"function"},{"inputs":[{"internalType":"address","name":"newOwner","type":"address"}],"name":"transferOwnership","outputs":[],"stateMutability":"nonpayable","type":"function"},{"inputs":[{"internalType":"uint256","name":"netuid","type":"uint256"},{"internalType":"uint16","name":"validatorUid","type":"uint16"},{"internalType":"uint256","name":"amount","type":"uint256"}],"name":"undelegate","outputs":[],"stateMutability":"nonpayable","type":"function"},{"inputs":[{"internalType":"uint256","name":"netuid","type":"uint256"},{"internalType":"uint256","name":"maxNodes","type":"uint256"},{"internalType":"uint256","name":"minStake","type":"uint256"},{"internalType":"uint256","name":"tempo","type":"uint256"},{"internalType":"uint256","name":"immunityPeriod","type":"uint256"}],"name":"updateSubnet","outputs":[],"stateMutability":"nonpayable","type":"function"},{"inputs":[{"internalType":"uint256","name":"","type":"uint256"},{"internalType":"uint16","name":"","type":"uint16"}],"name":"weightCommits","outputs":[{"internalType":"bytes32","name":"commitHash","type":"bytes32"},{"internalType":"uint256","name":"commitBlock","type":"uint256"},{"internalType":"bool","name":"revealed","type":"bool"}],"stateMutability":"view","type":"function"},{"inputs":[],"name":"zkmlVerifier","outputs":[{"internalType":"address","name":"","type":"address"}],"stateMutability":"view","type":"function"}],"evm":{"bytecode":{"linkReferences":{},"object":"60a03461016d57601f61406138819003918201601f19168301916001600160401b038311848410176101725780849260609460405283398101031261016d5780516001600160a01b038116919082900361016d57604060208201519101519133156101575760008054336001600160a01b03198216811783556040519290916001600160a01b0316907f8be0079c531659141344cd1fd0a4f28419497f9722a3daafe3b4186f6b6457e09080a36001805560016002556101f4600f55611c20601055610258601155600a60125581156101255750608052600355600455604051613ed89081610189823960805181818161032f015281816106d001528181610b720152818161141f01528181611ee20152818161296601528181612b010152612c490152f35b62461bcd60e51b815260206004820152600d60248201526c24b73b30b634b2103a37b5b2b760991b6044820152606490fd5b631e4fbdf760e01b600052600060045260246000fd5b600080fd5b634e487b7160e01b600052604160045260246000fdfe6080604052600436101561001257600080fd5b60003560e01c80631347608514612c2657806314511bf71461267057806314d5988814612bc85780631602ab2914612ba75780631aefa1b614612b895780631ba60b7014612a175780631caa9070146128d65780632b4b37531461288a578063393ebbf8146128315780633a05eaa9146126b75780633c8133941461268e5780633d5316dd1461267057806343219f031461260f57806346a655af146125ee578063475726f71461252b5780634a77ac981461250d5780635071b8911461248857806358ca7504146123f6578063617078fb146123195780636b54b30914612116578063710fe5cd146120f5578063715018a61461209c5780637339e8811461202157806375e6ee1714611b5f5780638272f0b814611b4157806383000f4f146118da578063842443dc146114be5780638da5cb5b146114955780639e1611bf146112c45780639e793787146112a6578063a4ce91c614611263578063b53c39b41461121b578063b81f6e18146111ce578063bd58199a146111b0578063bddee43c1461118f578063c0843eeb14611148578063c95986a21461112a578063cc2d54c41461110c578063d19e2ce8146110eb578063d2d9850914611022578063dec74f1814610e9c578063dfbeffff14610d24578063e485c04c14610cfa578063ed23dcba14610cdd578063f2fde38b14610c54578063f39e9f4b14610802578063f46e1e1f14610637578063f6ec03f11461061a578063fa6139581461035e578063fc0c546a146103195763fffc4bbf1461024d57600080fd5b34610314576040366003190112610314576040610268612c6f565b60043560005260086020528160002061ffff60009216825260205220805461028f81613337565b9061029981613337565b9260005b8281106102d2576102c0846102ce87604051938493604085526040850190612f1f565b908382036020850152612f1f565b0390f35b8061ffff6102e260019385613225565b5054166102ef828761337c565b5261ffff6102fd8285613225565b505460101c1661030d828861337c565b520161029d565b600080fd5b34610314576000366003190112610314576040517f00000000000000000000000000000000000000000000000000000000000000006001600160a01b03168152602090f35b346103145760203660031901126103145760043580600052600660205260086040600020015461038d81613337565b9161039782613337565b926103a183613337565b926103ab81613337565b946103b582613337565b6103be83613337565b906103c884613320565b976103d6604051998a612d3e565b8489526103e285613320565b60208a019890601f1901368a376103f886613320565b97610406604051998a612d3e565b86895261041287613320565b60208a0190601f190136823760005b61ffff81169089821015610523576000848152600760209081526040808320858452909152902080546001600160a01b031661045d848e61337c565b52600181015460ff906001600160a01b03811661047a868e61337c565b5261048e6002840154600385015490612fdb565b610498868a61337c565b5260088301546104a8868b61337c565b5260068301546104b8868c61337c565b5260098301546104c8868d61337c565b5260a01c1690600282101561050d578f9360ff8f936104fe936005916104f1856105089a61337c565b52015460101c169261337c565b9015159052613369565b610421565b634e487b7160e01b600052602160045260246000fd5b5050979895999650509089939291604051998a996101008b526101008b0161054a91612eae565b8a810360208c015261055b91612eae565b89810360408b015261056c91612eeb565b88810360608a015261057d91612eeb565b878103608089015261058e91612eeb565b86810360a088015261059f91612eeb565b9085820360c08701525190818152602001929060005b8181106105fe5750505060209084830360e0860152519182815201919060005b8181106105e3575050500390f35b825115158452859450602093840193909201916001016105d5565b825160ff168552879650602094850194909201916001016105b5565b346103145760003660031901126103145760206040516127108152f35b346103145761064536612c80565b61064d613d97565b80156107c85782600052600760205260408060002060009061ffff851682526020522060ff600582015460101c161561078c5760ff600182015460a01c1691600283101561050d576003610783926106c860017f027aaa6a9479088edb91e883282880ac91e93b04a07c8a730242e0ed59c545989614612f9d565b6106f48330337f0000000000000000000000000000000000000000000000000000000000000000613d4e565b604080516020810189815260f089901b6001600160f01b0319169282019290925261072c81604281015b03601f198101835282612d3e565b51902033600052600b6020526040600020906000526020526040600020610754848254612fdb565b905501610762828254612fdb565b90556040519182913395836020909392919361ffff60408201951681520152565b0390a360018055005b60405162461bcd60e51b815260206004820152601460248201527356616c696461746f72206e6f742061637469766560601b6044820152606490fd5b60405162461bcd60e51b81526020600482015260126024820152710416d6f756e74206d757374206265203e20360741b6044820152606490fd5b34610314576080366003190112610314576004356001600160401b03811161031457610832903690600401612e51565b60643590602435610841613d97565b81151580610c49575b15610c155780151580610c09575b15610bd1578215610b9c5760035480610b6a575b506002549261087a846130b9565b6002556040519161016083018381106001600160401b03821117610b54576040526001600160401b038411610b54576040516108c0601f8601601f191660200182612d3e565b84815236858801116103145784876020830137600060208683010152835260208301913383526040840191825260608401906103e882526080850190815260a0850143815260c0860190604435825260e0870192611c20845261010088019460008652610120890196600188526101408a0198428a528c600052600660205260406000209a518051906001600160401b038211610b54576109618d54612ce9565b601f8111610b0c575b506020908d601f8411600114610a9557509180600a9d9c9a98969492610a129c9a989694600092610a8a575b50508160011b916000199060031b1c1916178d555b5160018d0180546001600160a01b039092166001600160a01b03199092169190911790555160028c01555160038b01555160048a01555160058901555160068801555160078701555160088601555160098501805460ff191691151560ff16919091179055565b519101556005546103e88101809111610a74577faa2647b7670da77b5fc5f9e4056c00263527212d34d09e44efabd660c88c347a610a65602095859360055560405191829188835233968984019161301b565b0390a360018055604051908152f35b634e487b7160e01b600052601160045260246000fd5b015190503880610996565b9190601f19841692600052816000209260005b818110610af4575092600192600a9f9e9c9a9896949286610a129f9d9b99979410610adb575b505050811b018d556109ab565b015160001960f88460031b161c19169055388080610ace565b92936020600181928786015181550195019301610aa8565b8d6000526020600020601f840160051c81019160208510610b4a575b601f0160051c01905b818110610b3e575061096a565b60008155600101610b31565b9091508190610b28565b634e487b7160e01b600052604160045260246000fd5b610b969030337f0000000000000000000000000000000000000000000000000000000000000000613d4e565b8461086c565b60405162461bcd60e51b815260206004820152600d60248201526c496e76616c69642074656d706f60981b6044820152606490fd5b60405162461bcd60e51b815260206004820152601060248201526f496e76616c6964206d61784e6f64657360801b6044820152606490fd5b50611000811115610858565b60405162461bcd60e51b815260206004820152600c60248201526b496e76616c6964206e616d6560a01b6044820152606490fd5b50604082111561084a565b3461031457602036600319011261031457610c6d612cbb565b610c75613d25565b6001600160a01b03168015610cc757600080546001600160a01b03198116831782556001600160a01b0316907f8be0079c531659141344cd1fd0a4f28419497f9722a3daafe3b4186f6b6457e09080a3005b631e4fbdf760e01b600052600060045260246000fd5b34610314576000366003190112610314576020604051613a988152f35b3461031457602036600319011261031457610d13613d97565b610d1e600435613390565b60018055005b346103145760403660031901126103145760043560243590806000526009602052604060002060018060a01b033316600052602052610d6a60ff6040600020541661303c565b80600052600a602052604060002060018060a01b03331660005260205261ffff6040600020541691816000526007602052604060002061ffff841660005260205260ff60016040600020015460a01c16600281101561050d576001610dcf9114612f9d565b816000526007602052604060002061ffff8416600052602052610dff60ff60056040600020015460101c16612f64565b60405160608101918183106001600160401b03841117610b5457610e936020927f9d7068cbd38a9652b8b283a496928bcf42dd01fb68865e13f7f279256529175d94604052828152600284820143815260408301906000825288600052600c875260408060002060009061ffff8d1682528952209351845551600184015551151591019060ff801983541691151516179055565b604051908152a3005b346103145760a0366003190112610314576004358060005260066020526040600020610ece60ff600983015416613079565b60018101546001600160a01b03163314801561100e575b610eee906132e3565b60243560028201556044356006820155606435600482015560843560078201556040519060208252600090805490610f2582612ce9565b91826020860152600181169081600014610fcb5750600114610f6b575b847f1f24371ed79af1971a700f92176a2cb13437ef4dbd2c6c6b9f2ad8f5fc3e8f9485850386a2005b600090815260208120939250905b808210610fb057509091508101604001817f1f24371ed79af1971a700f92176a2cb13437ef4dbd2c6c6b9f2ad8f5fc3e8f94610f42565b91926001816020925460408588010152019101909291610f79565b859450604092507f1f24371ed79af1971a700f92176a2cb13437ef4dbd2c6c6b9f2ad8f5fc3e8f949593915060ff191682840152151560051b8201019192610f42565b506000546001600160a01b03163314610ee5565b3461031457604036600319011261031457604061103d612c6f565b60043560005260076020528160002061ffff6000921682526020522060018060a01b03815416600182015460ff8160a01c1692600284101561050d57610140936002820154600383015460088401549060068501549260098601549460ff6005600789015498015460101c1697604051998a5260018060a01b031660208a015260408901526060880152608087015260a086015260c085015260e08401526101008301521515610120820152f35b3461031457602036600319011261031457611104613d25565b600435601155005b34610314576000366003190112610314576020601254604051908152f35b34610314576000366003190112610314576020600454604051908152f35b3461031457604036600319011261031457611161612c6f565b600435600052600760205261ffff604060002091166000526020526020600760406000200154604051908152f35b34610314576020366003190112610314576111a8613d25565b600435601055005b34610314576000366003190112610314576020600f54604051908152f35b34610314576040366003190112610314576111e7612ca5565b600435600052600960205260406000209060018060a01b0316600052602052602060ff604060002054166040519015158152f35b34610314576040366003190112610314576001600160a01b0361123c612cbb565b16600052600b60205260406000206024356000526020526020604060002054604051908152f35b346103145760203660031901126103145761127c612cbb565b611284613d25565b600e80546001600160a01b0319166001600160a01b0392909216919091179055005b34610314576000366003190112610314576020600354604051908152f35b346103145760403660031901126103145760043560406112e2612c6f565b6112ea613d97565b8260005260076020528160002061ffff60009216825260205220600581019182549261131b60ff8560101c16612f64565b600183019360018060a01b0385541633148015611481575b61133c906132e3565b61135c600485015484600052600660205260076040600020015490612fdb565b431061144a5762ff000019169055600081815260096020908152604080832085546001600160a01b039081168552908352818420805460ff19169055848452600d8352818420875491821685529092529091206113bf9160a01c60ff1690612cd1565b60ff1981541690556000526006602052600860406000200180548015610a745760001901905560006002820191816113ff60098554930192835490612fdb565b9355558061140d5760018055005b905461144391906001600160a01b03167f0000000000000000000000000000000000000000000000000000000000000000613db9565b8080610d1e565b60405162461bcd60e51b815260206004820152600f60248201526e125b5b5d5b9a5d1e481c195c9a5bd9608a1b6044820152606490fd5b506000546001600160a01b03163314611333565b34610314576000366003190112610314576000546040516001600160a01b039091168152602090f35b34610314576080366003190112610314576004356024356001600160401b038111610314576114f1903690600401612e7e565b6044929192356001600160401b03811161031457611513903690600401612e7e565b6115218184969396146130c8565b61152c831515613106565b60008481526009602090815260408083203384529091529020546115529060ff1661303c565b83600052600a602052604060002060018060a01b03331660005260205261ffff604060002054169484600052600760205260408060002060009061ffff89168252602052209260ff600185015460a01c16600281101561050d5760016115b89114612f9d565b6115cb60ff600586015460101c16612f64565b85600052600c60205260408060002060009061ffff8a1682526020522080549081156118a357600281019182549160ff831661186b576001015461161160125482612fdb565b43106118305760115461162391612fdb565b43116117f3578760405161165b60208261164b61164483830180978c6132a8565b8c8c6132a8565b6064358152038084520182612d3e565b519020036117be5760ff1916600117905560005b8581106117495750856000526008602052604060002061ffff881660005260205261169d60406000206131f1565b61ffff87169260005b8681106116e35788887ffba62aad89c6c437bf733319e2bb0ee93cb42499851f7a0b45088b25f3a2c49360208a8a600443910155604051908152a3005b60019088600052600860205261174360408060002060009089825260205220611715611710848c89613142565b613168565b9061ffff61172761171086898c613142565b816040519461173586612d23565b16845216602083015261323d565b016116a6565b8061177a61175d6117106001948a87613142565b89600052600660205261ffff600860406000200154911610613177565b8760005260076020526117b860ff600560408a61179f6117108784600020938b613142565b9061ffff60009216825260205220015460101c166131b1565b0161166f565b60405162461bcd60e51b815260206004820152600d60248201526c090c2e6d040dad2e6dac2e8c6d609b1b6044820152606490fd5b60405162461bcd60e51b815260206004820152601560248201527414995d99585b081dda5b991bddc8195e1c1a5c9959605a1b6044820152606490fd5b60405162461bcd60e51b8152602060048201526013602482015272151bdbc819585c9b1e481d1bc81c995d99585b606a1b6044820152606490fd5b60405162461bcd60e51b815260206004820152601060248201526f105b1c9958591e481c995d99585b195960821b6044820152606490fd5b60405162461bcd60e51b815260206004820152600f60248201526e139bc818dbdb5b5a5d08199bdd5b99608a1b6044820152606490fd5b34610314576060366003190112610314576004356024356001600160401b0381116103145761190d903690600401612e7e565b6044929192356001600160401b0381116103145761192f903690600401612e7e565b9093611939613d25565b6119448284146130c8565b61194f831515613106565b60008481526009602090815260408083203384529091529020546119759060ff1661303c565b83600052600a602052604060002060018060a01b03331660005260205261ffff6040600020541694846000526007602052604060002061ffff871660005260205260ff60016040600020015460a01c16600281101561050d5760016119dd9194939414612f9d565b846000526007602052604060002061ffff8716600052602052611a0d60ff60056040600020015460101c16612f64565b60005b848110611ae15750846000526008602052604060002061ffff8716600052602052611a3e60406000206131f1565b61ffff86169260005b858110611a9c5787877f25742c04c8f0360e39abb67701fda4acb202e054e9776c223ff2b53398c7b26060208989846000526007835260406000209060005282526040600020600443910155604051908152a3005b600190876000526008602052611adb60408060002060009089825260205220611ac9611710848b88613142565b9061ffff611727611710868b8b613142565b01611a47565b80611b14611af761171060019489899899613142565b88600052600660205261ffff600860406000200154911610613177565b866000526007602052611b3860ff600560408060002061179f611710878d8c613142565b01929192611a10565b34610314576000366003190112610314576020601054604051908152f35b3461031457608036600319011261031457611b78612ca5565b600260443510156103145760643590611b8f613d97565b6004356000526006602052604060002090611bb060ff600984015416613079565b6004356000526009602052604060002060018060a01b03821660005260205260ff60406000205416611fe757600882015460028301541115611fb45760068201548310611f7a57600091604435611f6f5760ff611c2760015b6004358652600d602090815260408088203389529091528620612cd1565b5416611f0b576004358352600d602090815260408085203386529091528320611c539060443590612cd1565b805460ff1916600117905583611eda575b61ffff6008820154169260405161018081018181106001600160401b03821117611ec65760405260018060a01b0384168152602081013381526040820192506044358352606082019687526000608083015260a0820143815260c083019787895260e08401946001865260006101008601526706f05b59d3b2000061012086015260006101408601526000610160860152600435600052600760205260408060002060009061ffff8c168252602052209360018060a01b0360018060a01b03875116166bffffffffffffffffffffffff60a01b86541617855560018060a01b039060018060a01b03905116166bffffffffffffffffffffffff60a01b6001860154161760018501555193600285101561050d576020996040966009946101609460009860018901549060ff60a01b9060a01b169060ff60a01b19161760018901555160028801556080840151600388015551600487015561ffff80600588019351161661ffff1983541617825551151562ff000082549160101b169062ff0000191617905561010081015160068501556101208101516007850155610140810151600885015501519101556004358152600a865281812060018060a01b0385168252865281812061ffff861661ffff1982541617905560043581526009865281812060018060a01b0385168252865220600160ff198254161790556008611e6d818301546130b9565b910155604051828152611e84848201604435612e44565b33916001600160a01b031690600435907fd6347f2c1cbfc00c2ef5d4dfce146b393cb3305376a2999571521d291def055590604090a460018055604051908152f35b634e487b7160e01b83526041600452602483fd5b611f068430337f0000000000000000000000000000000000000000000000000000000000000000613d4e565b611c64565b60405162461bcd60e51b815260206004820152603660248201527f53656c662d766f74653a20636f6c646b657920616c72656164792072656769736044820152757465726564206173206f70706f73697465207479706560501b6064820152608490fd5b60ff611c2784611c09565b60405162461bcd60e51b8152602060048201526012602482015271496e73756666696369656e74207374616b6560701b6044820152606490fd5b60405162461bcd60e51b815260206004820152600b60248201526a14dd589b995d08199d5b1b60aa1b6044820152606490fd5b60405162461bcd60e51b8152602060048201526012602482015271105b1c9958591e481c9959da5cdd195c995960721b6044820152606490fd5b346103145760403660031901126103145760043561203d612ca5565b90806000526009602052604060002060018060a01b03831660005260205261206c60ff6040600020541661303c565b600052600a60205260406000209060018060a01b0316600052602052602061ffff60406000205416604051908152f35b34610314576000366003190112610314576120b5613d25565b600080546001600160a01b0319811682556001600160a01b03167f8be0079c531659141344cd1fd0a4f28419497f9722a3daafe3b4186f6b6457e08280a3005b346103145760203660031901126103145761210e613d25565b600480359055005b3461031457608036600319011261031457600435612132612c6f565b6044356064356001600160401b03811161031457612154903690600401612e51565b929060018060a01b0360005416331480156122f7575b156122b257821515806122a6575b1561226157846000526007602052604060002061ffff831660005260205260406000209060ff600583015460101c161561222a577fb690d999d54e9332494c15c985df21327bfff85f3125d47be78b06ca862b419b9461ffff94600261221d94016127106121e882549384612fe8565b0491808311612222575b826121fc91612f57565b9055604051958695168552602085015260606040850152606084019161301b565b0390a2005b9150816121f2565b60405162461bcd60e51b815260206004820152600f60248201526e4e6f6465206e6f742061637469766560881b6044820152606490fd5b60405162461bcd60e51b815260206004820152601860248201527f496e76616c696420736c6173682070657263656e7461676500000000000000006044820152606490fd5b50612710831115612178565b60405162461bcd60e51b815260206004820152601760248201527f4e6f7420617574686f72697a656420746f20736c6173680000000000000000006044820152606490fd5b5084600052600660205260018060a01b0360016040600020015416331461216a565b34610314576040366003190112610314576101806040612337612c6f565b60043560005260076020528160002061ffff6000921682526020522060018060a01b03815416906001810154906002810154600382015460ff60048401546005850154906006860154936007870154956123b8600960088a0154990154996040519b8c5260018060a01b03811660208d01528660408d019160a01c16612e44565b60608a0152608089015260a088015261ffff811660c088015260101c16151560e0860152610100850152610120840152610140830152610160820152f35b34610314576020366003190112610314576004356000526006602052612463604060002060018060a01b036001820154166002820154916003810154600482015460088301549161244e60ff60098601541694612d5f565b9560405197889760e0895260e0890190612e03565b95602088015260408701526060860152608085015260a0840152151560c08301520390f35b34610314576060366003190112610314576124a1612cbb565b60443561ffff81168103610314576040516124dd8161071e6020820194602435869091602292825261ffff60f01b9060f01b1660208201520190565b5190209060018060a01b0316600052600b6020526040600020906000526020526020604060002054604051908152f35b34610314576000366003190112610314576020600554604051908152f35b346103145760203660031901126103145760043560005260066020526125b2604060002061255881612d5f565b9060018060a01b0360018201541690600281015490600381015460048201546005830154600684015490600785015492600886015494600a60ff600989015416970154976040519b8c9b6101608d526101608d0190612e03565b9960208c015260408b015260608a0152608089015260a088015260c087015260e086015261010085015215156101208401526101408301520390f35b3461031457602036600319011261031457612607613d25565b600435600355005b3461031457606036600319011261031457612628612ca5565b60443560028110156103145761266460ff91602093600435600052600d855260406000209060018060a01b031660005284526040600020612cd1565b54166040519015158152f35b34610314576000366003190112610314576020600254604051908152f35b3461031457600036600319011261031457600e546040516001600160a01b039091168152602090f35b34610314576040366003190112610314576004356126d3612c6f565b81600052600760205260408060002060009061ffff841682526020522061270360ff600583015460101c16612f64565b60ff600182015460a01c16600281101561050d5760016127239114612f9d565b612734600482015460105490612fdb565b4311156127f657600281018054916064830283810460641484151715610a74576127109004918383116127ee575b61276f8360079495612f57565b90550191825491605083029280840460501490151715610a74577fb690d999d54e9332494c15c985df21327bfff85f3125d47be78b06ca862b419b93606460a09404905561ffff60405192168252602082015260606040820152601260608201527124b730b1ba34bb32903b30b634b230ba37b960711b6080820152a2005b839250612762565b60405162461bcd60e51b815260206004820152601360248201527256616c696461746f722069732061637469766560681b6044820152606490fd5b346103145760203660031901126103145760043561284d613d25565b611388811161285b57600f55005b60405162461bcd60e51b81526020600482015260076024820152664d61782035302560c81b6044820152606490fd5b34610314576040366003190112610314576128a3612ca5565b600435600052600a60205260406000209060018060a01b0316600052602052602061ffff60406000205416604051908152f35b34610314576040366003190112610314576004356128f2612c6f565b906128fb613d97565b600081815260076020908152604080832061ffff86168452909152902060018101546001600160a01b031633036129e657600981019081549081156129b35760007f590fa2fafacb7b76b58059ea8c0b2e9e7fe3f6a044b9e3a27f9d1a1f3aff626d935561298a82337f0000000000000000000000000000000000000000000000000000000000000000613db9565b546040805161ffff909616865260208601929092526001600160a01b0316939081908101610783565b60405162461bcd60e51b815260206004820152600b60248201526a27379032b6b4b9b9b4b7b760a91b6044820152606490fd5b60405162461bcd60e51b81526020600482015260096024820152682737ba1037bbb732b960b91b6044820152606490fd5b3461031457612a2536612c80565b612a2d613d97565b604080516020810185815260f085901b6001600160f01b03191692820192909252612a5b816042810161071e565b51902033600052600b6020526040600020816000526020528160406000205410612b44577fef37dac52e652a2f78cc3df2429066b4d48a100f62255b7343f6396b3c2eef81916107839133600052600b6020526040600020906000526020526040600020612aca828254612f57565b9055846000526007602052604060002061ffff85166000526020526003604060002001612af8828254612f57565b9055612b2581337f0000000000000000000000000000000000000000000000000000000000000000613db9565b6040519182913395836020909392919361ffff60408201951681520152565b60405162461bcd60e51b815260206004820152601760248201527f496e73756666696369656e742064656c65676174696f6e0000000000000000006044820152606490fd5b34610314576000366003190112610314576020601154604051908152f35b3461031457602036600319011261031457612bc0613d25565b600435601255005b346103145760403660031901126103145760606040612be5612c6f565b600435600052600c6020528160002061ffff6000921682526020522080549060ff600260018301549201541690604051928352602083015215156040820152f35b3461031457602036600319011261031457612c3f613d25565b612c6d60043530337f0000000000000000000000000000000000000000000000000000000000000000613d4e565b005b6024359061ffff8216820361031457565b6060906003190112610314576004359060243561ffff81168103610314579060443590565b602435906001600160a01b038216820361031457565b600435906001600160a01b038216820361031457565b90600281101561050d57600052602052604060002090565b90600182811c92168015612d19575b6020831014612d0357565b634e487b7160e01b600052602260045260246000fd5b91607f1691612cf8565b604081019081106001600160401b03821117610b5457604052565b90601f801991011681019081106001600160401b03821117610b5457604052565b9060405191826000825492612d7384612ce9565b8084529360018116908115612de15750600114612d9a575b50612d9892500383612d3e565b565b90506000929192526020600020906000915b818310612dc5575050906020612d989282010138612d8b565b6020919350806001915483858901015201910190918492612dac565b905060209250612d9894915060ff191682840152151560051b82010138612d8b565b919082519283825260005b848110612e2f575050826000602080949584010152601f8019910116010190565b80602080928401015182828601015201612e0e565b90600282101561050d5752565b9181601f84011215610314578235916001600160401b038311610314576020838186019501011161031457565b9181601f84011215610314578235916001600160401b038311610314576020808501948460051b01011161031457565b906020808351928381520192019060005b818110612ecc5750505090565b82516001600160a01b0316845260209384019390920191600101612ebf565b906020808351928381520192019060005b818110612f095750505090565b8251845260209384019390920191600101612efc565b906020808351928381520192019060005b818110612f3d5750505090565b825161ffff16845260209384019390920191600101612f30565b91908203918211610a7457565b15612f6b57565b60405162461bcd60e51b815260206004820152600a6024820152694e6f742061637469766560b01b6044820152606490fd5b15612fa457565b60405162461bcd60e51b815260206004820152600f60248201526e2737ba1030903b30b634b230ba37b960891b6044820152606490fd5b91908201809211610a7457565b81810292918115918404141715610a7457565b8115613005570490565b634e487b7160e01b600052601260045260246000fd5b908060209392818452848401376000828201840152601f01601f1916010190565b1561304357565b60405162461bcd60e51b815260206004820152600e60248201526d139bdd081c9959da5cdd195c995960921b6044820152606490fd5b1561308057565b60405162461bcd60e51b81526020600482015260116024820152705375626e6574206e6f742061637469766560781b6044820152606490fd5b6000198114610a745760010190565b156130cf57565b60405162461bcd60e51b815260206004820152600f60248201526e098cadccee8d040dad2e6dac2e8c6d608b1b6044820152606490fd5b1561310d57565b60405162461bcd60e51b815260206004820152600d60248201526c456d707479207765696768747360981b6044820152606490fd5b91908110156131525760051b0190565b634e487b7160e01b600052603260045260246000fd5b3561ffff811681036103145790565b1561317e57565b60405162461bcd60e51b815260206004820152600b60248201526a125b9d985b1a590815525160aa1b6044820152606490fd5b156131b857565b60405162461bcd60e51b8152602060048201526011602482015270546172676574206e6f742061637469766560781b6044820152606490fd5b8054906000815581613201575050565b6000526020600020908101905b818110613219575050565b6000815560010161320e565b80548210156131525760005260206000200190600090565b805468010000000000000000811015610b545761325f91600182018155613225565b919091613292578051825460209092015163ffffffff1990921661ffff919091161760109190911b63ffff000016179055565b634e487b7160e01b600052600060045260246000fd5b906000905b8082106132ba5750505090565b90919283359061ffff82168203610314576020809161ffff6001941681520194019201906132ad565b156132ea57565b60405162461bcd60e51b815260206004820152600e60248201526d139bdd08185d5d1a1bdc9a5e995960921b6044820152606490fd5b6001600160401b038111610b545760051b60200190565b9061334182613320565b61334e6040519182612d3e565b828152809261335f601f1991613320565b0190602036910137565b61ffff1661ffff8114610a745760010190565b80518210156131525760209160051b010190565b908160005260066020526040600020916133b060ff600985015416613079565b6005830154916133c4600485015484612fdb565b4310613cf4576008840154928315613cc4576005548015613c8a576134056133fa6133f261340a9443612f57565b600454612fe8565b600388015490612fe8565b612ffb565b8015613c7d5761341984613337565b9160009161342686613337565b96835b8761ffff821610156136165786600052600760205260408060002060009061ffff841682526020522060ff600582015460101c161580156135f8575b6135ee5761347c6002820154600383015490612fdb565b80156135e35761348d600791613df4565b9101546113888102908082046113881490151715610a7457670de0b6b3a7640000900461271001908161271011610a7457612710916134cb91612fe8565b0487600052600860205260408060002060009061ffff85168252602052209060009182908054915b8281106135bc575083156135af5792919060009384935b8b83861061353657505050505050906135319161352b61ffff83168c61337c565b52613369565b613429565b61357b61359e8780999e6135a49461359861ffff613572896134058e9f9e8d9e9f61356660019e9f918792613225565b505460101c1690612fe8565b9687958c613225565b5054166135928561358c838661337c565b51612fdb565b9261337c565b52612fdb565b9c612fdb565b95019392919061350a565b5050505061353190613369565b936135dc60019161ffff6135d08886613225565b505460101c1690612fdb565b94016134f3565b505061353190613369565b5061353190613369565b5060ff600182015460a01c16600281101561050d5760011415613465565b5093919650939450612008840284810461200803610a745761271090048215159081613b3c575b50610708850285810461070803610a7457612710900460009060006008870154905b8161ffff821610613a79575050816139a2575b50506136b4575b50507f8b62a28f277757eb2f6f2f71863cbb10e1ce66d8bcfa14b5ebcba332ab867331916040916005439101558151904382526020820152a2565b91939260009591955b600886015461ffff821610156139925784600052600760205260408060002060009061ffff84168252602052209060ff600583015460101c16158015613974575b61396a5785600052600860205260408060002060009061ffff841682526020522080541561390157600080918054925b8381106138e25750600091829383925b81841061381d57506000925050831590506138115750670de0b6b3a7640000810290808204670de0b6b3a76400001490151715610a745760079161378191612ffb565b925b01805492604684029380850460461490151715610a7457601e810290808204601e1490151715610a7457613804889260646137e27f41e0549644e0a71255b7ed60362e6a3b2a3d5b8b00a6a7cb1b205f14e2528d089461380c98612fdb565b0480915560405191829186836020909392919361ffff60408201951681520152565b0390a2613369565b6136bd565b90506007915092613783565b909192949361ffff61382f8784613225565b505460101c16670de0b6b3a7640000810290808204670de0b6b3a76400001490151715610a74578461386091612ffb565b61387961ffff6138708986613225565b5054168d61337c565b519081670de0b6b3a7640000810204670de0b6b3a76400001482151715610a74578f92816138b6600195670de0b6b3a76400006138cd9602612ffb565b8082116138d757506138c791612fdb565b96612fdb565b950192919061373e565b90506138c791612fdb565b9092916138f860019161ffff6135d08588613225565b9293910161372e565b5090600701908154605f810290808204605f1490151715610a74577f41e0549644e0a71255b7ed60362e6a3b2a3d5b8b00a6a7cb1b205f14e2528d0861380461380c9460648a940480915560405191829186836020909392919361ffff60408201951681520152565b61380c9150613369565b5060ff600183015460a01c16600281101561050d57600114156136fe565b5090945091929050816040613679565b9592600098949198979592975b600884015461ffff82161015613a6957899087600052600760205260408060002060009061ffff84168252602052208960ff600583015460101c169384613a41575b613a0294613a07575b505050613369565b6139af565b613a2d600991613405613a3794613a276002880154600389015490612fdb565b90612fe8565b9201918254612fdb565b905538898c6139fa565b5050600181015460a01c60ff169250600283101561050d57898c6001613a02951494506139f1565b5092955092965092943880613672565b89600052600760205260ff600560408060002060009061ffff8616825260205220015460101c1680613b03575b613ab9575b613ab490613369565b61365f565b60008a815260076020908152604080832061ffff85168452909152902060028101546003909101549194613ab492613afb92613af59190612fdb565b90612fdb565b939050613aab565b5089600052600760205260ff600160408060002060009061ffff8616825260205220015460a01c16600281101561050d57600114613aa6565b919460009791979694965b60088801549061ffff811691821015613c6e57613b64828961337c565b51151580613c45575b613b81575b613b7c9150613369565b613b47565b613b9986613405613b92858c61337c565b5188612fe8565b87600052600760205260096040806000206000908682526020522001613bc0828254612fdb565b9055613bcc838a61337c565b51670de0b6b3a7640000810290808204670de0b6b3a76400001490151715610a745760066040613b7c95613c038b613c3e95612ffb565b8c6000526007602052600883806000206000908582526020522001558b60005260076020528160002060009182526020522001918254612fdb565b9055613b72565b5086600052600760205260ff600560408060002060009086825260205220015460101c16613b6d565b5050949150959492943861363d565b5092915050600543910155565b60405162461bcd60e51b81526020600482015260126024820152714e6f20656d697373696f6e2073686172657360701b6044820152606490fd5b60405162461bcd60e51b81526020600482015260086024820152674e6f206e6f64657360c01b6044820152606490fd5b60405162461bcd60e51b8152602060048201526009602482015268546f6f206561726c7960b81b6044820152606490fd5b6000546001600160a01b03163303613d3957565b63118cdaa760e01b6000523360045260246000fd5b6040516323b872dd60e01b60208201526001600160a01b039283166024820152929091166044830152606480830193909352918152612d9891613d92608483612d3e565b613e3b565b600260015414613da8576002600155565b633ee5aeb560e01b60005260046000fd5b60405163a9059cbb60e01b60208201526001600160a01b039092166024830152604480830193909352918152612d9891613d92606483612d3e565b8015613e355760018101808211610a745760011c815b828210613e1657505090565b909150613e2c82613e278184612ffb565b612fdb565b60011c90613e0a565b50600090565b906000602091828151910182855af115613e96576000513d613e8d57506001600160a01b0381163b155b613e6c5750565b635274afe760e01b60009081526001600160a01b0391909116600452602490fd5b60011415613e65565b6040513d6000823e3d90fdfea2646970667358221220ad319577f79760efc37488f08df8d6c580f7c54d8a61e5989d3f740a4712546964736f6c634300081c0033","opcodes":"PUSH1 0xA0 CALLVALUE PUSH2 0x16D JUMPI PUSH1 0x1F PUSH2 0x4061 CODESIZE DUP2 SWAP1 SUB SWAP2 DUP3 ADD PUSH1 0x1F NOT AND DUP4 ADD SWAP2 PUSH1 0x1 PUSH1 0x1 PUSH1 0x40 SHL SUB DUP4 GT DUP5 DUP5 LT OR PUSH2 0x172 JUMPI DUP1 DUP5 SWAP3 PUSH1 0x60 SWAP5 PUSH1 0x40 MSTORE DUP4 CODECOPY DUP2 ADD SUB SLT PUSH2 0x16D JUMPI DUP1 MLOAD PUSH1 0x1 PUSH1 0x1 PUSH1 0xA0 SHL SUB DUP2 AND SWAP2 SWAP1 DUP3 SWAP1 SUB PUSH2 0x16D JUMPI PUSH1 0x40 PUSH1 0x20 DUP3 ADD MLOAD SWAP2 ADD MLOAD SWAP2 CALLER ISZERO PUSH2 0x157 JUMPI PUSH1 0x0 DUP1 SLOAD CALLER PUSH1 0x1 PUSH1 0x1 PUSH1 0xA0 SHL SUB NOT DUP3 AND DUP2 OR DUP4 SSTORE PUSH1 0x40 MLOAD SWAP3 SWAP1 SWAP2 PUSH1 0x1 PUSH1 0x1 PUSH1 0xA0 SHL SUB AND SWAP1 PUSH32 0x8BE0079C531659141344CD1FD0A4F28419497F9722A3DAAFE3B4186F6B6457E0 SWAP1 DUP1 LOG3 PUSH1 0x1 DUP1 SSTORE PUSH1 0x1 PUSH1 0x2 SSTORE PUSH2 0x1F4 PUSH1 0xF SSTORE PUSH2 0x1C20 PUSH1 0x10 SSTORE PUSH2 0x258 PUSH1 0x11 SSTORE PUSH1 0xA PUSH1 0x12 SSTORE DUP2 ISZERO PUSH2 0x125 JUMPI POP PUSH1 0x80 MSTORE PUSH1 0x3 SSTORE PUSH1 0x4 SSTORE PUSH1 0x40 MLOAD PUSH2 0x3ED8 SWAP1 DUP2 PUSH2 0x189 DUP3 CODECOPY PUSH1 0x80 MLOAD DUP2 DUP2 DUP2 PUSH2 0x32F ADD MSTORE DUP2 DUP2 PUSH2 0x6D0 ADD MSTORE DUP2 DUP2 PUSH2 0xB72 ADD MSTORE DUP2 DUP2 PUSH2 0x141F ADD MSTORE DUP2 DUP2 PUSH2 0x1EE2 ADD MSTORE DUP2 DUP2 PUSH2 0x2966 ADD MSTORE DUP2 DUP2 PUSH2 0x2B01 ADD MSTORE PUSH2 0x2C49 ADD MSTORE RETURN JUMPDEST PUSH3 0x461BCD PUSH1 0xE5 SHL DUP2 MSTORE PUSH1 0x20 PUSH1 0x4 DUP3 ADD MSTORE PUSH1 0xD PUSH1 0x24 DUP3 ADD MSTORE PUSH13 0x24B73B30B634B2103A37B5B2B7 PUSH1 0x99 SHL PUSH1 0x44 DUP3 ADD MSTORE PUSH1 0x64 SWAP1 REVERT JUMPDEST PUSH4 0x1E4FBDF7 PUSH1 0xE0 SHL PUSH1 0x0 MSTORE PUSH1 0x0 PUSH1 0x4 MSTORE PUSH1 0x24 PUSH1 0x0 REVERT JUMPDEST PUSH1 0x0 DUP1 REVERT JUMPDEST PUSH4 0x4E487B71 PUSH1 0xE0 SHL PUSH1 0x0 MSTORE PUSH1 0x41 PUSH1 0x4 MSTORE PUSH1 0x24 PUSH1 0x0 REVERT INVALID PUSH1 0x80 PUSH1 0x40 MSTORE PUSH1 0x4 CALLDATASIZE LT ISZERO PUSH2 0x12 JUMPI PUSH1 0x0 DUP1 REVERT JUMPDEST PUSH1 0x0 CALLDATALOAD PUSH1 0xE0 SHR DUP1 PUSH4 0x13476085 EQ PUSH2 0x2C26 JUMPI DUP1 PUSH4 0x14511BF7 EQ PUSH2 0x2670 JUMPI DUP1 PUSH4 0x14D59888 EQ PUSH2 0x2BC8 JUMPI DUP1 PUSH4 0x1602AB29 EQ PUSH2 0x2BA7 JUMPI DUP1 PUSH4 0x1AEFA1B6 EQ PUSH2 0x2B89 JUMPI DUP1 PUSH4 0x1BA60B70 EQ PUSH2 0x2A17 JUMPI DUP1 PUSH4 0x1CAA9070 EQ PUSH2 0x28D6 JUMPI DUP1 PUSH4 0x2B4B3753 EQ PUSH2 0x288A JUMPI DUP1 PUSH4 0x393EBBF8 EQ PUSH2 0x2831 JUMPI DUP1 PUSH4 0x3A05EAA9 EQ PUSH2 0x26B7 JUMPI DUP1 PUSH4 0x3C813394 EQ PUSH2 0x268E JUMPI DUP1 PUSH4 0x3D5316DD EQ PUSH2 0x2670 JUMPI DUP1 PUSH4 0x43219F03 EQ PUSH2 0x260F JUMPI DUP1 PUSH4 0x46A655AF EQ PUSH2 0x25EE JUMPI DUP1 PUSH4 0x475726F7 EQ PUSH2 0x252B JUMPI DUP1 PUSH4 0x4A77AC98 EQ PUSH2 0x250D JUMPI DUP1 PUSH4 0x5071B891 EQ PUSH2 0x2488 JUMPI DUP1 PUSH4 0x58CA7504 EQ PUSH2 0x23F6 JUMPI DUP1 PUSH4 0x617078FB EQ PUSH2 0x2319 JUMPI DUP1 PUSH4 0x6B54B309 EQ PUSH2 0x2116 JUMPI DUP1 PUSH4 0x710FE5CD EQ PUSH2 0x20F5 JUMPI DUP1 PUSH4 0x715018A6 EQ PUSH2 0x209C JUMPI DUP1 PUSH4 0x7339E881 EQ PUSH2 0x2021 JUMPI DUP1 PUSH4 0x75E6EE17 EQ PUSH2 0x1B5F JUMPI DUP1 PUSH4 0x8272F0B8 EQ PUSH2 0x1B41 JUMPI DUP1 PUSH4 0x83000F4F EQ PUSH2 0x18DA JUMPI DUP1 PUSH4 0x842443DC EQ PUSH2 0x14BE JUMPI DUP1 PUSH4 0x8DA5CB5B EQ PUSH2 0x1495 JUMPI DUP1 PUSH4 0x9E1611BF EQ PUSH2 0x12C4 JUMPI DUP1 PUSH4 0x9E793787 EQ PUSH2 0x12A6 JUMPI DUP1 PUSH4 0xA4CE91C6 EQ PUSH2 0x1263 JUMPI DUP1 PUSH4 0xB53C39B4 EQ PUSH2 0x121B JUMPI DUP1 PUSH4 0xB81F6E18 EQ PUSH2 0x11CE JUMPI DUP1 PUSH4 0xBD58199A EQ PUSH2 0x11B0 JUMPI DUP1 PUSH4 0xBDDEE43C EQ PUSH2 0x118F JUMPI DUP1 PUSH4 0xC0843EEB EQ PUSH2 0x1148 JUMPI DUP1 PUSH4 0xC95986A2 EQ PUSH2 0x112A JUMPI DUP1 PUSH4 0xCC2D54C4 EQ PUSH2 0x110C JUMPI DUP1 PUSH4 0xD19E2CE8 EQ PUSH2 0x10EB JUMPI DUP1 PUSH4 0xD2D98509 EQ PUSH2 0x1022 JUMPI DUP1 PUSH4 0xDEC74F18 EQ PUSH2 0xE9C JUMPI DUP1 PUSH4 0xDFBEFFFF EQ PUSH2 0xD24 JUMPI DUP1 PUSH4 0xE485C04C EQ PUSH2 0xCFA JUMPI DUP1 PUSH4 0xED23DCBA EQ PUSH2 0xCDD JUMPI DUP1 PUSH4 0xF2FDE38B EQ PUSH2 0xC54 JUMPI DUP1 PUSH4 0xF39E9F4B EQ PUSH2 0x802 JUMPI DUP1 PUSH4 0xF46E1E1F EQ PUSH2 0x637 JUMPI DUP1 PUSH4 0xF6EC03F1 EQ PUSH2 0x61A JUMPI DUP1 PUSH4 0xFA613958 EQ PUSH2 0x35E JUMPI DUP1 PUSH4 0xFC0C546A EQ PUSH2 0x319 JUMPI PUSH4 0xFFFC4BBF EQ PUSH2 0x24D JUMPI PUSH1 0x0 DUP1 REVERT JUMPDEST CALLVALUE PUSH2 0x314 JUMPI PUSH1 0x40 CALLDATASIZE PUSH1 0x3 NOT ADD SLT PUSH2 0x314 JUMPI PUSH1 0x40 PUSH2 0x268 PUSH2 0x2C6F JUMP JUMPDEST PUSH1 0x4 CALLDATALOAD PUSH1 0x0 MSTORE PUSH1 0x8 PUSH1 0x20 MSTORE DUP2 PUSH1 0x0 KECCAK256 PUSH2 0xFFFF PUSH1 0x0 SWAP3 AND DUP3 MSTORE PUSH1 0x20 MSTORE KECCAK256 DUP1 SLOAD PUSH2 0x28F DUP2 PUSH2 0x3337 JUMP JUMPDEST SWAP1 PUSH2 0x299 DUP2 PUSH2 0x3337 JUMP JUMPDEST SWAP3 PUSH1 0x0 JUMPDEST DUP3 DUP2 LT PUSH2 0x2D2 JUMPI PUSH2 0x2C0 DUP5 PUSH2 0x2CE DUP8 PUSH1 0x40 MLOAD SWAP4 DUP5 SWAP4 PUSH1 0x40 DUP6 MSTORE PUSH1 0x40 DUP6 ADD SWAP1 PUSH2 0x2F1F JUMP JUMPDEST SWAP1 DUP4 DUP3 SUB PUSH1 0x20 DUP6 ADD MSTORE PUSH2 0x2F1F JUMP JUMPDEST SUB SWAP1 RETURN JUMPDEST DUP1 PUSH2 0xFFFF PUSH2 0x2E2 PUSH1 0x1 SWAP4 DUP6 PUSH2 0x3225 JUMP JUMPDEST POP SLOAD AND PUSH2 0x2EF DUP3 DUP8 PUSH2 0x337C JUMP JUMPDEST MSTORE PUSH2 0xFFFF PUSH2 0x2FD DUP3 DUP6 PUSH2 0x3225 JUMP JUMPDEST POP SLOAD PUSH1 0x10 SHR AND PUSH2 0x30D DUP3 DUP9 PUSH2 0x337C JUMP JUMPDEST MSTORE ADD PUSH2 0x29D JUMP JUMPDEST PUSH1 0x0 DUP1 REVERT JUMPDEST CALLVALUE PUSH2 0x314 JUMPI PUSH1 0x0 CALLDATASIZE PUSH1 0x3 NOT ADD SLT PUSH2 0x314 JUMPI PUSH1 0x40 MLOAD PUSH32 0x0 PUSH1 0x1 PUSH1 0x1 PUSH1 0xA0 SHL SUB AND DUP2 MSTORE PUSH1 0x20 SWAP1 RETURN JUMPDEST CALLVALUE PUSH2 0x314 JUMPI PUSH1 0x20 CALLDATASIZE PUSH1 0x3 NOT ADD SLT PUSH2 0x314 JUMPI PUSH1 0x4 CALLDATALOAD DUP1 PUSH1 0x0 MSTORE PUSH1 0x6 PUSH1 0x20 MSTORE PUSH1 0x8 PUSH1 0x40 PUSH1 0x0 KECCAK256 ADD SLOAD PUSH2 0x38D DUP2 PUSH2 0x3337 JUMP JUMPDEST SWAP2 PUSH2 0x397 DUP3 PUSH2 0x3337 JUMP JUMPDEST SWAP3 PUSH2 0x3A1 DUP4 PUSH2 0x3337 JUMP JUMPDEST SWAP3 PUSH2 0x3AB DUP2 PUSH2 0x3337 JUMP JUMPDEST SWAP5 PUSH2 0x3B5 DUP3 PUSH2 0x3337 JUMP JUMPDEST PUSH2 0x3BE DUP4 PUSH2 0x3337 JUMP JUMPDEST SWAP1 PUSH2 0x3C8 DUP5 PUSH2 0x3320 JUMP JUMPDEST SWAP8 PUSH2 0x3D6 PUSH1 0x40 MLOAD SWAP10 DUP11 PUSH2 0x2D3E JUMP JUMPDEST DUP5 DUP10 MSTORE PUSH2 0x3E2 DUP6 PUSH2 0x3320 JUMP JUMPDEST PUSH1 0x20 DUP11 ADD SWAP9 SWAP1 PUSH1 0x1F NOT ADD CALLDATASIZE DUP11 CALLDATACOPY PUSH2 0x3F8 DUP7 PUSH2 0x3320 JUMP JUMPDEST SWAP8 PUSH2 0x406 PUSH1 0x40 MLOAD SWAP10 DUP11 PUSH2 0x2D3E JUMP JUMPDEST DUP7 DUP10 MSTORE PUSH2 0x412 DUP8 PUSH2 0x3320 JUMP JUMPDEST PUSH1 0x20 DUP11 ADD SWAP1 PUSH1 0x1F NOT ADD CALLDATASIZE DUP3 CALLDATACOPY PUSH1 0x0 JUMPDEST PUSH2 0xFFFF DUP2 AND SWAP1 DUP10 DUP3 LT ISZERO PUSH2 0x523 JUMPI PUSH1 0x0 DUP5 DUP2 MSTORE PUSH1 0x7 PUSH1 0x20 SWAP1 DUP2 MSTORE PUSH1 0x40 DUP1 DUP4 KECCAK256 DUP6 DUP5 MSTORE SWAP1 SWAP2 MSTORE SWAP1 KECCAK256 DUP1 SLOAD PUSH1 0x1 PUSH1 0x1 PUSH1 0xA0 SHL SUB AND PUSH2 0x45D DUP5 DUP15 PUSH2 0x337C JUMP JUMPDEST MSTORE PUSH1 0x1 DUP2 ADD SLOAD PUSH1 0xFF SWAP1 PUSH1 0x1 PUSH1 0x1 PUSH1 0xA0 SHL SUB DUP2 AND PUSH2 0x47A DUP7 DUP15 PUSH2 0x337C JUMP JUMPDEST MSTORE PUSH2 0x48E PUSH1 0x2 DUP5 ADD SLOAD PUSH1 0x3 DUP6 ADD SLOAD SWAP1 PUSH2 0x2FDB JUMP JUMPDEST PUSH2 0x498 DUP7 DUP11 PUSH2 0x337C JUMP JUMPDEST MSTORE PUSH1 0x8 DUP4 ADD SLOAD PUSH2 0x4A8 DUP7 DUP12 PUSH2 0x337C JUMP JUMPDEST MSTORE PUSH1 0x6 DUP4 ADD SLOAD PUSH2 0x4B8 DUP7 DUP13 PUSH2 0x337C JUMP JUMPDEST MSTORE PUSH1 0x9 DUP4 ADD SLOAD PUSH2 0x4C8 DUP7 DUP14 PUSH2 0x337C JUMP JUMPDEST MSTORE PUSH1 0xA0 SHR AND SWAP1 PUSH1 0x2 DUP3 LT ISZERO PUSH2 0x50D JUMPI DUP16 SWAP4 PUSH1 0xFF DUP16 SWAP4 PUSH2 0x4FE SWAP4 PUSH1 0x5 SWAP2 PUSH2 0x4F1 DUP6 PUSH2 0x508 SWAP11 PUSH2 0x337C JUMP JUMPDEST MSTORE ADD SLOAD PUSH1 0x10 SHR AND SWAP3 PUSH2 0x337C JUMP JUMPDEST SWAP1 ISZERO ISZERO SWAP1 MSTORE PUSH2 0x3369 JUMP JUMPDEST PUSH2 0x421 JUMP JUMPDEST PUSH4 0x4E487B71 PUSH1 0xE0 SHL PUSH1 0x0 MSTORE PUSH1 0x21 PUSH1 0x4 MSTORE PUSH1 0x24 PUSH1 0x0 REVERT JUMPDEST POP POP SWAP8 SWAP9 SWAP6 SWAP10 SWAP7 POP POP SWAP1 DUP10 SWAP4 SWAP3 SWAP2 PUSH1 0x40 MLOAD SWAP10 DUP11 SWAP10 PUSH2 0x100 DUP12 MSTORE PUSH2 0x100 DUP12 ADD PUSH2 0x54A SWAP2 PUSH2 0x2EAE JUMP JUMPDEST DUP11 DUP2 SUB PUSH1 0x20 DUP13 ADD MSTORE PUSH2 0x55B SWAP2 PUSH2 0x2EAE JUMP JUMPDEST DUP10 DUP2 SUB PUSH1 0x40 DUP12 ADD MSTORE PUSH2 0x56C SWAP2 PUSH2 0x2EEB JUMP JUMPDEST DUP9 DUP2 SUB PUSH1 0x60 DUP11 ADD MSTORE PUSH2 0x57D SWAP2 PUSH2 0x2EEB JUMP JUMPDEST DUP8 DUP2 SUB PUSH1 0x80 DUP10 ADD MSTORE PUSH2 0x58E SWAP2 PUSH2 0x2EEB JUMP JUMPDEST DUP7 DUP2 SUB PUSH1 0xA0 DUP9 ADD MSTORE PUSH2 0x59F SWAP2 PUSH2 0x2EEB JUMP JUMPDEST SWAP1 DUP6 DUP3 SUB PUSH1 0xC0 DUP8 ADD MSTORE MLOAD SWAP1 DUP2 DUP2 MSTORE PUSH1 0x20 ADD SWAP3 SWAP1 PUSH1 0x0 JUMPDEST DUP2 DUP2 LT PUSH2 0x5FE JUMPI POP POP POP PUSH1 0x20 SWAP1 DUP5 DUP4 SUB PUSH1 0xE0 DUP7 ADD MSTORE MLOAD SWAP2 DUP3 DUP2 MSTORE ADD SWAP2 SWAP1 PUSH1 0x0 JUMPDEST DUP2 DUP2 LT PUSH2 0x5E3 JUMPI POP POP POP SUB SWAP1 RETURN JUMPDEST DUP3 MLOAD ISZERO ISZERO DUP5 MSTORE DUP6 SWAP5 POP PUSH1 0x20 SWAP4 DUP5 ADD SWAP4 SWAP1 SWAP3 ADD SWAP2 PUSH1 0x1 ADD PUSH2 0x5D5 JUMP JUMPDEST DUP3 MLOAD PUSH1 0xFF AND DUP6 MSTORE DUP8 SWAP7 POP PUSH1 0x20 SWAP5 DUP6 ADD SWAP5 SWAP1 SWAP3 ADD SWAP2 PUSH1 0x1 ADD PUSH2 0x5B5 JUMP JUMPDEST CALLVALUE PUSH2 0x314 JUMPI PUSH1 0x0 CALLDATASIZE PUSH1 0x3 NOT ADD SLT PUSH2 0x314 JUMPI PUSH1 0x20 PUSH1 0x40 MLOAD PUSH2 0x2710 DUP2 MSTORE RETURN JUMPDEST CALLVALUE PUSH2 0x314 JUMPI PUSH2 0x645 CALLDATASIZE PUSH2 0x2C80 JUMP JUMPDEST PUSH2 0x64D PUSH2 0x3D97 JUMP JUMPDEST DUP1 ISZERO PUSH2 0x7C8 JUMPI DUP3 PUSH1 0x0 MSTORE PUSH1 0x7 PUSH1 0x20 MSTORE PUSH1 0x40 DUP1 PUSH1 0x0 KECCAK256 PUSH1 0x0 SWAP1 PUSH2 0xFFFF DUP6 AND DUP3 MSTORE PUSH1 0x20 MSTORE KECCAK256 PUSH1 0xFF PUSH1 0x5 DUP3 ADD SLOAD PUSH1 0x10 SHR AND ISZERO PUSH2 0x78C JUMPI PUSH1 0xFF PUSH1 0x1 DUP3 ADD SLOAD PUSH1 0xA0 SHR AND SWAP2 PUSH1 0x2 DUP4 LT ISZERO PUSH2 0x50D JUMPI PUSH1 0x3 PUSH2 0x783 SWAP3 PUSH2 0x6C8 PUSH1 0x1 PUSH32 0x27AAA6A9479088EDB91E883282880AC91E93B04A07C8A730242E0ED59C54598 SWAP7 EQ PUSH2 0x2F9D JUMP JUMPDEST PUSH2 0x6F4 DUP4 ADDRESS CALLER PUSH32 0x0 PUSH2 0x3D4E JUMP JUMPDEST PUSH1 0x40 DUP1 MLOAD PUSH1 0x20 DUP2 ADD DUP10 DUP2 MSTORE PUSH1 0xF0 DUP10 SWAP1 SHL PUSH1 0x1 PUSH1 0x1 PUSH1 0xF0 SHL SUB NOT AND SWAP3 DUP3 ADD SWAP3 SWAP1 SWAP3 MSTORE PUSH2 0x72C DUP2 PUSH1 0x42 DUP2 ADD JUMPDEST SUB PUSH1 0x1F NOT DUP2 ADD DUP4 MSTORE DUP3 PUSH2 0x2D3E JUMP JUMPDEST MLOAD SWAP1 KECCAK256 CALLER PUSH1 0x0 MSTORE PUSH1 0xB PUSH1 0x20 MSTORE PUSH1 0x40 PUSH1 0x0 KECCAK256 SWAP1 PUSH1 0x0 MSTORE PUSH1 0x20 MSTORE PUSH1 0x40 PUSH1 0x0 KECCAK256 PUSH2 0x754 DUP5 DUP3 SLOAD PUSH2 0x2FDB JUMP JUMPDEST SWAP1 SSTORE ADD PUSH2 0x762 DUP3 DUP3 SLOAD PUSH2 0x2FDB JUMP JUMPDEST SWAP1 SSTORE PUSH1 0x40 MLOAD SWAP2 DUP3 SWAP2 CALLER SWAP6 DUP4 PUSH1 0x20 SWAP1 SWAP4 SWAP3 SWAP2 SWAP4 PUSH2 0xFFFF PUSH1 0x40 DUP3 ADD SWAP6 AND DUP2 MSTORE ADD MSTORE JUMP JUMPDEST SUB SWAP1 LOG3 PUSH1 0x1 DUP1 SSTORE STOP JUMPDEST PUSH1 0x40 MLOAD PUSH3 0x461BCD PUSH1 0xE5 SHL DUP2 MSTORE PUSH1 0x20 PUSH1 0x4 DUP3 ADD MSTORE PUSH1 0x14 PUSH1 0x24 DUP3 ADD MSTORE PUSH20 0x56616C696461746F72206E6F7420616374697665 PUSH1 0x60 SHL PUSH1 0x44 DUP3 ADD MSTORE PUSH1 0x64 SWAP1 REVERT JUMPDEST PUSH1 0x40 MLOAD PUSH3 0x461BCD PUSH1 0xE5 SHL DUP2 MSTORE PUSH1 0x20 PUSH1 0x4 DUP3 ADD MSTORE PUSH1 0x12 PUSH1 0x24 DUP3 ADD MSTORE PUSH18 0x416D6F756E74206D757374206265203E203 PUSH1 0x74 SHL PUSH1 0x44 DUP3 ADD MSTORE PUSH1 0x64 SWAP1 REVERT JUMPDEST CALLVALUE PUSH2 0x314 JUMPI PUSH1 0x80 CALLDATASIZE PUSH1 0x3 NOT ADD SLT PUSH2 0x314 JUMPI PUSH1 0x4 CALLDATALOAD PUSH1 0x1 PUSH1 0x1 PUSH1 0x40 SHL SUB DUP2 GT PUSH2 0x314 JUMPI PUSH2 0x832 SWAP1 CALLDATASIZE SWAP1 PUSH1 0x4 ADD PUSH2 0x2E51 JUMP JUMPDEST PUSH1 0x64 CALLDATALOAD SWAP1 PUSH1 0x24 CALLDATALOAD PUSH2 0x841 PUSH2 0x3D97 JUMP JUMPDEST DUP2 ISZERO ISZERO DUP1 PUSH2 0xC49 JUMPI JUMPDEST ISZERO PUSH2 0xC15 JUMPI DUP1 ISZERO ISZERO DUP1 PUSH2 0xC09 JUMPI JUMPDEST ISZERO PUSH2 0xBD1 JUMPI DUP3 ISZERO PUSH2 0xB9C JUMPI PUSH1 0x3 SLOAD DUP1 PUSH2 0xB6A JUMPI JUMPDEST POP PUSH1 0x2 SLOAD SWAP3 PUSH2 0x87A DUP5 PUSH2 0x30B9 JUMP JUMPDEST PUSH1 0x2 SSTORE PUSH1 0x40 MLOAD SWAP2 PUSH2 0x160 DUP4 ADD DUP4 DUP2 LT PUSH1 0x1 PUSH1 0x1 PUSH1 0x40 SHL SUB DUP3 GT OR PUSH2 0xB54 JUMPI PUSH1 0x40 MSTORE PUSH1 0x1 PUSH1 0x1 PUSH1 0x40 SHL SUB DUP5 GT PUSH2 0xB54 JUMPI PUSH1 0x40 MLOAD PUSH2 0x8C0 PUSH1 0x1F DUP7 ADD PUSH1 0x1F NOT AND PUSH1 0x20 ADD DUP3 PUSH2 0x2D3E JUMP JUMPDEST DUP5 DUP2 MSTORE CALLDATASIZE DUP6 DUP9 ADD GT PUSH2 0x314 JUMPI DUP5 DUP8 PUSH1 0x20 DUP4 ADD CALLDATACOPY PUSH1 0x0 PUSH1 0x20 DUP7 DUP4 ADD ADD MSTORE DUP4 MSTORE PUSH1 0x20 DUP4 ADD SWAP2 CALLER DUP4 MSTORE PUSH1 0x40 DUP5 ADD SWAP2 DUP3 MSTORE PUSH1 0x60 DUP5 ADD SWAP1 PUSH2 0x3E8 DUP3 MSTORE PUSH1 0x80 DUP6 ADD SWAP1 DUP2 MSTORE PUSH1 0xA0 DUP6 ADD NUMBER DUP2 MSTORE PUSH1 0xC0 DUP7 ADD SWAP1 PUSH1 0x44 CALLDATALOAD DUP3 MSTORE PUSH1 0xE0 DUP8 ADD SWAP3 PUSH2 0x1C20 DUP5 MSTORE PUSH2 0x100 DUP9 ADD SWAP5 PUSH1 0x0 DUP7 MSTORE PUSH2 0x120 DUP10 ADD SWAP7 PUSH1 0x1 DUP9 MSTORE PUSH2 0x140 DUP11 ADD SWAP9 TIMESTAMP DUP11 MSTORE DUP13 PUSH1 0x0 MSTORE PUSH1 0x6 PUSH1 0x20 MSTORE PUSH1 0x40 PUSH1 0x0 KECCAK256 SWAP11 MLOAD DUP1 MLOAD SWAP1 PUSH1 0x1 PUSH1 0x1 PUSH1 0x40 SHL SUB DUP3 GT PUSH2 0xB54 JUMPI PUSH2 0x961 DUP14 SLOAD PUSH2 0x2CE9 JUMP JUMPDEST PUSH1 0x1F DUP2 GT PUSH2 0xB0C JUMPI JUMPDEST POP PUSH1 0x20 SWAP1 DUP14 PUSH1 0x1F DUP5 GT PUSH1 0x1 EQ PUSH2 0xA95 JUMPI POP SWAP2 DUP1 PUSH1 0xA SWAP14 SWAP13 SWAP11 SWAP9 SWAP7 SWAP5 SWAP3 PUSH2 0xA12 SWAP13 SWAP11 SWAP9 SWAP7 SWAP5 PUSH1 0x0 SWAP3 PUSH2 0xA8A JUMPI JUMPDEST POP POP DUP2 PUSH1 0x1 SHL SWAP2 PUSH1 0x0 NOT SWAP1 PUSH1 0x3 SHL SHR NOT AND OR DUP14 SSTORE JUMPDEST MLOAD PUSH1 0x1 DUP14 ADD DUP1 SLOAD PUSH1 0x1 PUSH1 0x1 PUSH1 0xA0 SHL SUB SWAP1 SWAP3 AND PUSH1 0x1 PUSH1 0x1 PUSH1 0xA0 SHL SUB NOT SWAP1 SWAP3 AND SWAP2 SWAP1 SWAP2 OR SWAP1 SSTORE MLOAD PUSH1 0x2 DUP13 ADD SSTORE MLOAD PUSH1 0x3 DUP12 ADD SSTORE MLOAD PUSH1 0x4 DUP11 ADD SSTORE MLOAD PUSH1 0x5 DUP10 ADD SSTORE MLOAD PUSH1 0x6 DUP9 ADD SSTORE MLOAD PUSH1 0x7 DUP8 ADD SSTORE MLOAD PUSH1 0x8 DUP7 ADD SSTORE MLOAD PUSH1 0x9 DUP6 ADD DUP1 SLOAD PUSH1 0xFF NOT AND SWAP2 ISZERO ISZERO PUSH1 0xFF AND SWAP2 SWAP1 SWAP2 OR SWAP1 SSTORE JUMP JUMPDEST MLOAD SWAP2 ADD SSTORE PUSH1 0x5 SLOAD PUSH2 0x3E8 DUP2 ADD DUP1 SWAP2 GT PUSH2 0xA74 JUMPI PUSH32 0xAA2647B7670DA77B5FC5F9E4056C00263527212D34D09E44EFABD660C88C347A PUSH2 0xA65 PUSH1 0x20 SWAP6 DUP6 SWAP4 PUSH1 0x5 SSTORE PUSH1 0x40 MLOAD SWAP2 DUP3 SWAP2 DUP9 DUP4 MSTORE CALLER SWAP7 DUP10 DUP5 ADD SWAP2 PUSH2 0x301B JUMP JUMPDEST SUB SWAP1 LOG3 PUSH1 0x1 DUP1 SSTORE PUSH1 0x40 MLOAD SWAP1 DUP2 MSTORE RETURN JUMPDEST PUSH4 0x4E487B71 PUSH1 0xE0 SHL PUSH1 0x0 MSTORE PUSH1 0x11 PUSH1 0x4 MSTORE PUSH1 0x24 PUSH1 0x0 REVERT JUMPDEST ADD MLOAD SWAP1 POP CODESIZE DUP1 PUSH2 0x996 JUMP JUMPDEST SWAP2 SWAP1 PUSH1 0x1F NOT DUP5 AND SWAP3 PUSH1 0x0 MSTORE DUP2 PUSH1 0x0 KECCAK256 SWAP3 PUSH1 0x0 JUMPDEST DUP2 DUP2 LT PUSH2 0xAF4 JUMPI POP SWAP3 PUSH1 0x1 SWAP3 PUSH1 0xA SWAP16 SWAP15 SWAP13 SWAP11 SWAP9 SWAP7 SWAP5 SWAP3 DUP7 PUSH2 0xA12 SWAP16 SWAP14 SWAP12 SWAP10 SWAP8 SWAP5 LT PUSH2 0xADB JUMPI JUMPDEST POP POP POP DUP2 SHL ADD DUP14 SSTORE PUSH2 0x9AB JUMP JUMPDEST ADD MLOAD PUSH1 0x0 NOT PUSH1 0xF8 DUP5 PUSH1 0x3 SHL AND SHR NOT AND SWAP1 SSTORE CODESIZE DUP1 DUP1 PUSH2 0xACE JUMP JUMPDEST SWAP3 SWAP4 PUSH1 0x20 PUSH1 0x1 DUP2 SWAP3 DUP8 DUP7 ADD MLOAD DUP2 SSTORE ADD SWAP6 ADD SWAP4 ADD PUSH2 0xAA8 JUMP JUMPDEST DUP14 PUSH1 0x0 MSTORE PUSH1 0x20 PUSH1 0x0 KECCAK256 PUSH1 0x1F DUP5 ADD PUSH1 0x5 SHR DUP2 ADD SWAP2 PUSH1 0x20 DUP6 LT PUSH2 0xB4A JUMPI JUMPDEST PUSH1 0x1F ADD PUSH1 0x5 SHR ADD SWAP1 JUMPDEST DUP2 DUP2 LT PUSH2 0xB3E JUMPI POP PUSH2 0x96A JUMP JUMPDEST PUSH1 0x0 DUP2 SSTORE PUSH1 0x1 ADD PUSH2 0xB31 JUMP JUMPDEST SWAP1 SWAP2 POP DUP2 SWAP1 PUSH2 0xB28 JUMP JUMPDEST PUSH4 0x4E487B71 PUSH1 0xE0 SHL PUSH1 0x0 MSTORE PUSH1 0x41 PUSH1 0x4 MSTORE PUSH1 0x24 PUSH1 0x0 REVERT JUMPDEST PUSH2 0xB96 SWAP1 ADDRESS CALLER PUSH32 0x0 PUSH2 0x3D4E JUMP JUMPDEST DUP5 PUSH2 0x86C JUMP JUMPDEST PUSH1 0x40 MLOAD PUSH3 0x461BCD PUSH1 0xE5 SHL DUP2 MSTORE PUSH1 0x20 PUSH1 0x4 DUP3 ADD MSTORE PUSH1 0xD PUSH1 0x24 DUP3 ADD MSTORE PUSH13 0x496E76616C69642074656D706F PUSH1 0x98 SHL PUSH1 0x44 DUP3 ADD MSTORE PUSH1 0x64 SWAP1 REVERT JUMPDEST PUSH1 0x40 MLOAD PUSH3 0x461BCD PUSH1 0xE5 SHL DUP2 MSTORE PUSH1 0x20 PUSH1 0x4 DUP3 ADD MSTORE PUSH1 0x10 PUSH1 0x24 DUP3 ADD MSTORE PUSH16 0x496E76616C6964206D61784E6F646573 PUSH1 0x80 SHL PUSH1 0x44 DUP3 ADD MSTORE PUSH1 0x64 SWAP1 REVERT JUMPDEST POP PUSH2 0x1000 DUP2 GT ISZERO PUSH2 0x858 JUMP JUMPDEST PUSH1 0x40 MLOAD PUSH3 0x461BCD PUSH1 0xE5 SHL DUP2 MSTORE PUSH1 0x20 PUSH1 0x4 DUP3 ADD MSTORE PUSH1 0xC PUSH1 0x24 DUP3 ADD MSTORE PUSH12 0x496E76616C6964206E616D65 PUSH1 0xA0 SHL PUSH1 0x44 DUP3 ADD MSTORE PUSH1 0x64 SWAP1 REVERT JUMPDEST POP PUSH1 0x40 DUP3 GT ISZERO PUSH2 0x84A JUMP JUMPDEST CALLVALUE PUSH2 0x314 JUMPI PUSH1 0x20 CALLDATASIZE PUSH1 0x3 NOT ADD SLT PUSH2 0x314 JUMPI PUSH2 0xC6D PUSH2 0x2CBB JUMP JUMPDEST PUSH2 0xC75 PUSH2 0x3D25 JUMP JUMPDEST PUSH1 0x1 PUSH1 0x1 PUSH1 0xA0 SHL SUB AND DUP1 ISZERO PUSH2 0xCC7 JUMPI PUSH1 0x0 DUP1 SLOAD PUSH1 0x1 PUSH1 0x1 PUSH1 0xA0 SHL SUB NOT DUP2 AND DUP4 OR DUP3 SSTORE PUSH1 0x1 PUSH1 0x1 PUSH1 0xA0 SHL SUB AND SWAP1 PUSH32 0x8BE0079C531659141344CD1FD0A4F28419497F9722A3DAAFE3B4186F6B6457E0 SWAP1 DUP1 LOG3 STOP JUMPDEST PUSH4 0x1E4FBDF7 PUSH1 0xE0 SHL PUSH1 0x0 MSTORE PUSH1 0x0 PUSH1 0x4 MSTORE PUSH1 0x24 PUSH1 0x0 REVERT JUMPDEST CALLVALUE PUSH2 0x314 JUMPI PUSH1 0x0 CALLDATASIZE PUSH1 0x3 NOT ADD SLT PUSH2 0x314 JUMPI PUSH1 0x20 PUSH1 0x40 MLOAD PUSH2 0x3A98 DUP2 MSTORE RETURN JUMPDEST CALLVALUE PUSH2 0x314 JUMPI PUSH1 0x20 CALLDATASIZE PUSH1 0x3 NOT ADD SLT PUSH2 0x314 JUMPI PUSH2 0xD13 PUSH2 0x3D97 JUMP JUMPDEST PUSH2 0xD1E PUSH1 0x4 CALLDATALOAD PUSH2 0x3390 JUMP JUMPDEST PUSH1 0x1 DUP1 SSTORE STOP JUMPDEST CALLVALUE PUSH2 0x314 JUMPI PUSH1 0x40 CALLDATASIZE PUSH1 0x3 NOT ADD SLT PUSH2 0x314 JUMPI PUSH1 0x4 CALLDATALOAD PUSH1 0x24 CALLDATALOAD SWAP1 DUP1 PUSH1 0x0 MSTORE PUSH1 0x9 PUSH1 0x20 MSTORE PUSH1 0x40 PUSH1 0x0 KECCAK256 PUSH1 0x1 DUP1 PUSH1 0xA0 SHL SUB CALLER AND PUSH1 0x0 MSTORE PUSH1 0x20 MSTORE PUSH2 0xD6A PUSH1 0xFF PUSH1 0x40 PUSH1 0x0 KECCAK256 SLOAD AND PUSH2 0x303C JUMP JUMPDEST DUP1 PUSH1 0x0 MSTORE PUSH1 0xA PUSH1 0x20 MSTORE PUSH1 0x40 PUSH1 0x0 KECCAK256 PUSH1 0x1 DUP1 PUSH1 0xA0 SHL SUB CALLER AND PUSH1 0x0 MSTORE PUSH1 0x20 MSTORE PUSH2 0xFFFF PUSH1 0x40 PUSH1 0x0 KECCAK256 SLOAD AND SWAP2 DUP2 PUSH1 0x0 MSTORE PUSH1 0x7 PUSH1 0x20 MSTORE PUSH1 0x40 PUSH1 0x0 KECCAK256 PUSH2 0xFFFF DUP5 AND PUSH1 0x0 MSTORE PUSH1 0x20 MSTORE PUSH1 0xFF PUSH1 0x1 PUSH1 0x40 PUSH1 0x0 KECCAK256 ADD SLOAD PUSH1 0xA0 SHR AND PUSH1 0x2 DUP2 LT ISZERO PUSH2 0x50D JUMPI PUSH1 0x1 PUSH2 0xDCF SWAP2 EQ PUSH2 0x2F9D JUMP JUMPDEST DUP2 PUSH1 0x0 MSTORE PUSH1 0x7 PUSH1 0x20 MSTORE PUSH1 0x40 PUSH1 0x0 KECCAK256 PUSH2 0xFFFF DUP5 AND PUSH1 0x0 MSTORE PUSH1 0x20 MSTORE PUSH2 0xDFF PUSH1 0xFF PUSH1 0x5 PUSH1 0x40 PUSH1 0x0 KECCAK256 ADD SLOAD PUSH1 0x10 SHR AND PUSH2 0x2F64 JUMP JUMPDEST PUSH1 0x40 MLOAD PUSH1 0x60 DUP2 ADD SWAP2 DUP2 DUP4 LT PUSH1 0x1 PUSH1 0x1 PUSH1 0x40 SHL SUB DUP5 GT OR PUSH2 0xB54 JUMPI PUSH2 0xE93 PUSH1 0x20 SWAP3 PUSH32 0x9D7068CBD38A9652B8B283A496928BCF42DD01FB68865E13F7F279256529175D SWAP5 PUSH1 0x40 MSTORE DUP3 DUP2 MSTORE PUSH1 0x2 DUP5 DUP3 ADD NUMBER DUP2 MSTORE PUSH1 0x40 DUP4 ADD SWAP1 PUSH1 0x0 DUP3 MSTORE DUP9 PUSH1 0x0 MSTORE PUSH1 0xC DUP8 MSTORE PUSH1 0x40 DUP1 PUSH1 0x0 KECCAK256 PUSH1 0x0 SWAP1 PUSH2 0xFFFF DUP14 AND DUP3 MSTORE DUP10 MSTORE KECCAK256 SWAP4 MLOAD DUP5 SSTORE MLOAD PUSH1 0x1 DUP5 ADD SSTORE MLOAD ISZERO ISZERO SWAP2 ADD SWAP1 PUSH1 0xFF DUP1 NOT DUP4 SLOAD AND SWAP2 ISZERO ISZERO AND OR SWAP1 SSTORE JUMP JUMPDEST PUSH1 0x40 MLOAD SWAP1 DUP2 MSTORE LOG3 STOP JUMPDEST CALLVALUE PUSH2 0x314 JUMPI PUSH1 0xA0 CALLDATASIZE PUSH1 0x3 NOT ADD SLT PUSH2 0x314 JUMPI PUSH1 0x4 CALLDATALOAD DUP1 PUSH1 0x0 MSTORE PUSH1 0x6 PUSH1 0x20 MSTORE PUSH1 0x40 PUSH1 0x0 KECCAK256 PUSH2 0xECE PUSH1 0xFF PUSH1 0x9 DUP4 ADD SLOAD AND PUSH2 0x3079 JUMP JUMPDEST PUSH1 0x1 DUP2 ADD SLOAD PUSH1 0x1 PUSH1 0x1 PUSH1 0xA0 SHL SUB AND CALLER EQ DUP1 ISZERO PUSH2 0x100E JUMPI JUMPDEST PUSH2 0xEEE SWAP1 PUSH2 0x32E3 JUMP JUMPDEST PUSH1 0x24 CALLDATALOAD PUSH1 0x2 DUP3 ADD SSTORE PUSH1 0x44 CALLDATALOAD PUSH1 0x6 DUP3 ADD SSTORE PUSH1 0x64 CALLDATALOAD PUSH1 0x4 DUP3 ADD SSTORE PUSH1 0x84 CALLDATALOAD PUSH1 0x7 DUP3 ADD SSTORE PUSH1 0x40 MLOAD SWAP1 PUSH1 0x20 DUP3 MSTORE PUSH1 0x0 SWAP1 DUP1 SLOAD SWAP1 PUSH2 0xF25 DUP3 PUSH2 0x2CE9 JUMP JUMPDEST SWAP2 DUP3 PUSH1 0x20 DUP7 ADD MSTORE PUSH1 0x1 DUP2 AND SWAP1 DUP2 PUSH1 0x0 EQ PUSH2 0xFCB JUMPI POP PUSH1 0x1 EQ PUSH2 0xF6B JUMPI JUMPDEST DUP5 PUSH32 0x1F24371ED79AF1971A700F92176A2CB13437EF4DBD2C6C6B9F2AD8F5FC3E8F94 DUP6 DUP6 SUB DUP7 LOG2 STOP JUMPDEST PUSH1 0x0 SWAP1 DUP2 MSTORE PUSH1 0x20 DUP2 KECCAK256 SWAP4 SWAP3 POP SWAP1 JUMPDEST DUP1 DUP3 LT PUSH2 0xFB0 JUMPI POP SWAP1 SWAP2 POP DUP2 ADD PUSH1 0x40 ADD DUP2 PUSH32 0x1F24371ED79AF1971A700F92176A2CB13437EF4DBD2C6C6B9F2AD8F5FC3E8F94 PUSH2 0xF42 JUMP JUMPDEST SWAP2 SWAP3 PUSH1 0x1 DUP2 PUSH1 0x20 SWAP3 SLOAD PUSH1 0x40 DUP6 DUP9 ADD ADD MSTORE ADD SWAP2 ADD SWAP1 SWAP3 SWAP2 PUSH2 0xF79 JUMP JUMPDEST DUP6 SWAP5 POP PUSH1 0x40 SWAP3 POP PUSH32 0x1F24371ED79AF1971A700F92176A2CB13437EF4DBD2C6C6B9F2AD8F5FC3E8F94 SWAP6 SWAP4 SWAP2 POP PUSH1 0xFF NOT AND DUP3 DUP5 ADD MSTORE ISZERO ISZERO PUSH1 0x5 SHL DUP3 ADD ADD SWAP2 SWAP3 PUSH2 0xF42 JUMP JUMPDEST POP PUSH1 0x0 SLOAD PUSH1 0x1 PUSH1 0x1 PUSH1 0xA0 SHL SUB AND CALLER EQ PUSH2 0xEE5 JUMP JUMPDEST CALLVALUE PUSH2 0x314 JUMPI PUSH1 0x40 CALLDATASIZE PUSH1 0x3 NOT ADD SLT PUSH2 0x314 JUMPI PUSH1 0x40 PUSH2 0x103D PUSH2 0x2C6F JUMP JUMPDEST PUSH1 0x4 CALLDATALOAD PUSH1 0x0 MSTORE PUSH1 0x7 PUSH1 0x20 MSTORE DUP2 PUSH1 0x0 KECCAK256 PUSH2 0xFFFF PUSH1 0x0 SWAP3 AND DUP3 MSTORE PUSH1 0x20 MSTORE KECCAK256 PUSH1 0x1 DUP1 PUSH1 0xA0 SHL SUB DUP2 SLOAD AND PUSH1 0x1 DUP3 ADD SLOAD PUSH1 0xFF DUP2 PUSH1 0xA0 SHR AND SWAP3 PUSH1 0x2 DUP5 LT ISZERO PUSH2 0x50D JUMPI PUSH2 0x140 SWAP4 PUSH1 0x2 DUP3 ADD SLOAD PUSH1 0x3 DUP4 ADD SLOAD PUSH1 0x8 DUP5 ADD SLOAD SWAP1 PUSH1 0x6 DUP6 ADD SLOAD SWAP3 PUSH1 0x9 DUP7 ADD SLOAD SWAP5 PUSH1 0xFF PUSH1 0x5 PUSH1 0x7 DUP10 ADD SLOAD SWAP9 ADD SLOAD PUSH1 0x10 SHR AND SWAP8 PUSH1 0x40 MLOAD SWAP10 DUP11 MSTORE PUSH1 0x1 DUP1 PUSH1 0xA0 SHL SUB AND PUSH1 0x20 DUP11 ADD MSTORE PUSH1 0x40 DUP10 ADD MSTORE PUSH1 0x60 DUP9 ADD MSTORE PUSH1 0x80 DUP8 ADD MSTORE PUSH1 0xA0 DUP7 ADD MSTORE PUSH1 0xC0 DUP6 ADD MSTORE PUSH1 0xE0 DUP5 ADD MSTORE PUSH2 0x100 DUP4 ADD MSTORE ISZERO ISZERO PUSH2 0x120 DUP3 ADD MSTORE RETURN JUMPDEST CALLVALUE PUSH2 0x314 JUMPI PUSH1 0x20 CALLDATASIZE PUSH1 0x3 NOT ADD SLT PUSH2 0x314 JUMPI PUSH2 0x1104 PUSH2 0x3D25 JUMP JUMPDEST PUSH1 0x4 CALLDATALOAD PUSH1 0x11 SSTORE STOP JUMPDEST CALLVALUE PUSH2 0x314 JUMPI PUSH1 0x0 CALLDATASIZE PUSH1 0x3 NOT ADD SLT PUSH2 0x314 JUMPI PUSH1 0x20 PUSH1 0x12 SLOAD PUSH1 0x40 MLOAD SWAP1 DUP2 MSTORE RETURN JUMPDEST CALLVALUE PUSH2 0x314 JUMPI PUSH1 0x0 CALLDATASIZE PUSH1 0x3 NOT ADD SLT PUSH2 0x314 JUMPI PUSH1 0x20 PUSH1 0x4 SLOAD PUSH1 0x40 MLOAD SWAP1 DUP2 MSTORE RETURN JUMPDEST CALLVALUE PUSH2 0x314 JUMPI PUSH1 0x40 CALLDATASIZE PUSH1 0x3 NOT ADD SLT PUSH2 0x314 JUMPI PUSH2 0x1161 PUSH2 0x2C6F JUMP JUMPDEST PUSH1 0x4 CALLDATALOAD PUSH1 0x0 MSTORE PUSH1 0x7 PUSH1 0x20 MSTORE PUSH2 0xFFFF PUSH1 0x40 PUSH1 0x0 KECCAK256 SWAP2 AND PUSH1 0x0 MSTORE PUSH1 0x20 MSTORE PUSH1 0x20 PUSH1 0x7 PUSH1 0x40 PUSH1 0x0 KECCAK256 ADD SLOAD PUSH1 0x40 MLOAD SWAP1 DUP2 MSTORE RETURN JUMPDEST CALLVALUE PUSH2 0x314 JUMPI PUSH1 0x20 CALLDATASIZE PUSH1 0x3 NOT ADD SLT PUSH2 0x314 JUMPI PUSH2 0x11A8 PUSH2 0x3D25 JUMP JUMPDEST PUSH1 0x4 CALLDATALOAD PUSH1 0x10 SSTORE STOP JUMPDEST CALLVALUE PUSH2 0x314 JUMPI PUSH1 0x0 CALLDATASIZE PUSH1 0x3 NOT ADD SLT PUSH2 0x314 JUMPI PUSH1 0x20 PUSH1 0xF SLOAD PUSH1 0x40 MLOAD SWAP1 DUP2 MSTORE RETURN JUMPDEST CALLVALUE PUSH2 0x314 JUMPI PUSH1 0x40 CALLDATASIZE PUSH1 0x3 NOT ADD SLT PUSH2 0x314 JUMPI PUSH2 0x11E7 PUSH2 0x2CA5 JUMP JUMPDEST PUSH1 0x4 CALLDATALOAD PUSH1 0x0 MSTORE PUSH1 0x9 PUSH1 0x20 MSTORE PUSH1 0x40 PUSH1 0x0 KECCAK256 SWAP1 PUSH1 0x1 DUP1 PUSH1 0xA0 SHL SUB AND PUSH1 0x0 MSTORE PUSH1 0x20 MSTORE PUSH1 0x20 PUSH1 0xFF PUSH1 0x40 PUSH1 0x0 KECCAK256 SLOAD AND PUSH1 0x40 MLOAD SWAP1 ISZERO ISZERO DUP2 MSTORE RETURN JUMPDEST CALLVALUE PUSH2 0x314 JUMPI PUSH1 0x40 CALLDATASIZE PUSH1 0x3 NOT ADD SLT PUSH2 0x314 JUMPI PUSH1 0x1 PUSH1 0x1 PUSH1 0xA0 SHL SUB PUSH2 0x123C PUSH2 0x2CBB JUMP JUMPDEST AND PUSH1 0x0 MSTORE PUSH1 0xB PUSH1 0x20 MSTORE PUSH1 0x40 PUSH1 0x0 KECCAK256 PUSH1 0x24 CALLDATALOAD PUSH1 0x0 MSTORE PUSH1 0x20 MSTORE PUSH1 0x20 PUSH1 0x40 PUSH1 0x0 KECCAK256 SLOAD PUSH1 0x40 MLOAD SWAP1 DUP2 MSTORE RETURN JUMPDEST CALLVALUE PUSH2 0x314 JUMPI PUSH1 0x20 CALLDATASIZE PUSH1 0x3 NOT ADD SLT PUSH2 0x314 JUMPI PUSH2 0x127C PUSH2 0x2CBB JUMP JUMPDEST PUSH2 0x1284 PUSH2 0x3D25 JUMP JUMPDEST PUSH1 0xE DUP1 SLOAD PUSH1 0x1 PUSH1 0x1 PUSH1 0xA0 SHL SUB NOT AND PUSH1 0x1 PUSH1 0x1 PUSH1 0xA0 SHL SUB SWAP3 SWAP1 SWAP3 AND SWAP2 SWAP1 SWAP2 OR SWAP1 SSTORE STOP JUMPDEST CALLVALUE PUSH2 0x314 JUMPI PUSH1 0x0 CALLDATASIZE PUSH1 0x3 NOT ADD SLT PUSH2 0x314 JUMPI PUSH1 0x20 PUSH1 0x3 SLOAD PUSH1 0x40 MLOAD SWAP1 DUP2 MSTORE RETURN JUMPDEST CALLVALUE PUSH2 0x314 JUMPI PUSH1 0x40 CALLDATASIZE PUSH1 0x3 NOT ADD SLT PUSH2 0x314 JUMPI PUSH1 0x4 CALLDATALOAD PUSH1 0x40 PUSH2 0x12E2 PUSH2 0x2C6F JUMP JUMPDEST PUSH2 0x12EA PUSH2 0x3D97 JUMP JUMPDEST DUP3 PUSH1 0x0 MSTORE PUSH1 0x7 PUSH1 0x20 MSTORE DUP2 PUSH1 0x0 KECCAK256 PUSH2 0xFFFF PUSH1 0x0 SWAP3 AND DUP3 MSTORE PUSH1 0x20 MSTORE KECCAK256 PUSH1 0x5 DUP2 ADD SWAP2 DUP3 SLOAD SWAP3 PUSH2 0x131B PUSH1 0xFF DUP6 PUSH1 0x10 SHR AND PUSH2 0x2F64 JUMP JUMPDEST PUSH1 0x1 DUP4 ADD SWAP4 PUSH1 0x1 DUP1 PUSH1 0xA0 SHL SUB DUP6 SLOAD AND CALLER EQ DUP1 ISZERO PUSH2 0x1481 JUMPI JUMPDEST PUSH2 0x133C SWAP1 PUSH2 0x32E3 JUMP JUMPDEST PUSH2 0x135C PUSH1 0x4 DUP6 ADD SLOAD DUP5 PUSH1 0x0 MSTORE PUSH1 0x6 PUSH1 0x20 MSTORE PUSH1 0x7 PUSH1 0x40 PUSH1 0x0 KECCAK256 ADD SLOAD SWAP1 PUSH2 0x2FDB JUMP JUMPDEST NUMBER LT PUSH2 0x144A JUMPI PUSH3 0xFF0000 NOT AND SWAP1 SSTORE PUSH1 0x0 DUP2 DUP2 MSTORE PUSH1 0x9 PUSH1 0x20 SWAP1 DUP2 MSTORE PUSH1 0x40 DUP1 DUP4 KECCAK256 DUP6 SLOAD PUSH1 0x1 PUSH1 0x1 PUSH1 0xA0 SHL SUB SWAP1 DUP2 AND DUP6 MSTORE SWAP1 DUP4 MSTORE DUP2 DUP5 KECCAK256 DUP1 SLOAD PUSH1 0xFF NOT AND SWAP1 SSTORE DUP5 DUP5 MSTORE PUSH1 0xD DUP4 MSTORE DUP2 DUP5 KECCAK256 DUP8 SLOAD SWAP2 DUP3 AND DUP6 MSTORE SWAP1 SWAP3 MSTORE SWAP1 SWAP2 KECCAK256 PUSH2 0x13BF SWAP2 PUSH1 0xA0 SHR PUSH1 0xFF AND SWAP1 PUSH2 0x2CD1 JUMP JUMPDEST PUSH1 0xFF NOT DUP2 SLOAD AND SWAP1 SSTORE PUSH1 0x0 MSTORE PUSH1 0x6 PUSH1 0x20 MSTORE PUSH1 0x8 PUSH1 0x40 PUSH1 0x0 KECCAK256 ADD DUP1 SLOAD DUP1 ISZERO PUSH2 0xA74 JUMPI PUSH1 0x0 NOT ADD SWAP1 SSTORE PUSH1 0x0 PUSH1 0x2 DUP3 ADD SWAP2 DUP2 PUSH2 0x13FF PUSH1 0x9 DUP6 SLOAD SWAP4 ADD SWAP3 DUP4 SLOAD SWAP1 PUSH2 0x2FDB JUMP JUMPDEST SWAP4 SSTORE SSTORE DUP1 PUSH2 0x140D JUMPI PUSH1 0x1 DUP1 SSTORE STOP JUMPDEST SWAP1 SLOAD PUSH2 0x1443 SWAP2 SWAP1 PUSH1 0x1 PUSH1 0x1 PUSH1 0xA0 SHL SUB AND PUSH32 0x0 PUSH2 0x3DB9 JUMP JUMPDEST DUP1 DUP1 PUSH2 0xD1E JUMP JUMPDEST PUSH1 0x40 MLOAD PUSH3 0x461BCD PUSH1 0xE5 SHL DUP2 MSTORE PUSH1 0x20 PUSH1 0x4 DUP3 ADD MSTORE PUSH1 0xF PUSH1 0x24 DUP3 ADD MSTORE PUSH15 0x125B5B5D5B9A5D1E481C195C9A5BD9 PUSH1 0x8A SHL PUSH1 0x44 DUP3 ADD MSTORE PUSH1 0x64 SWAP1 REVERT JUMPDEST POP PUSH1 0x0 SLOAD PUSH1 0x1 PUSH1 0x1 PUSH1 0xA0 SHL SUB AND CALLER EQ PUSH2 0x1333 JUMP JUMPDEST CALLVALUE PUSH2 0x314 JUMPI PUSH1 0x0 CALLDATASIZE PUSH1 0x3 NOT ADD SLT PUSH2 0x314 JUMPI PUSH1 0x0 SLOAD PUSH1 0x40 MLOAD PUSH1 0x1 PUSH1 0x1 PUSH1 0xA0 SHL SUB SWAP1 SWAP2 AND DUP2 MSTORE PUSH1 0x20 SWAP1 RETURN JUMPDEST CALLVALUE PUSH2 0x314 JUMPI PUSH1 0x80 CALLDATASIZE PUSH1 0x3 NOT ADD SLT PUSH2 0x314 JUMPI PUSH1 0x4 CALLDATALOAD PUSH1 0x24 CALLDATALOAD PUSH1 0x1 PUSH1 0x1 PUSH1 0x40 SHL SUB DUP2 GT PUSH2 0x314 JUMPI PUSH2 0x14F1 SWAP1 CALLDATASIZE SWAP1 PUSH1 0x4 ADD PUSH2 0x2E7E JUMP JUMPDEST PUSH1 0x44 SWAP3 SWAP2 SWAP3 CALLDATALOAD PUSH1 0x1 PUSH1 0x1 PUSH1 0x40 SHL SUB DUP2 GT PUSH2 0x314 JUMPI PUSH2 0x1513 SWAP1 CALLDATASIZE SWAP1 PUSH1 0x4 ADD PUSH2 0x2E7E JUMP JUMPDEST PUSH2 0x1521 DUP2 DUP5 SWAP7 SWAP4 SWAP7 EQ PUSH2 0x30C8 JUMP JUMPDEST PUSH2 0x152C DUP4 ISZERO ISZERO PUSH2 0x3106 JUMP JUMPDEST PUSH1 0x0 DUP5 DUP2 MSTORE PUSH1 0x9 PUSH1 0x20 SWAP1 DUP2 MSTORE PUSH1 0x40 DUP1 DUP4 KECCAK256 CALLER DUP5 MSTORE SWAP1 SWAP2 MSTORE SWAP1 KECCAK256 SLOAD PUSH2 0x1552 SWAP1 PUSH1 0xFF AND PUSH2 0x303C JUMP JUMPDEST DUP4 PUSH1 0x0 MSTORE PUSH1 0xA PUSH1 0x20 MSTORE PUSH1 0x40 PUSH1 0x0 KECCAK256 PUSH1 0x1 DUP1 PUSH1 0xA0 SHL SUB CALLER AND PUSH1 0x0 MSTORE PUSH1 0x20 MSTORE PUSH2 0xFFFF PUSH1 0x40 PUSH1 0x0 KECCAK256 SLOAD AND SWAP5 DUP5 PUSH1 0x0 MSTORE PUSH1 0x7 PUSH1 0x20 MSTORE PUSH1 0x40 DUP1 PUSH1 0x0 KECCAK256 PUSH1 0x0 SWAP1 PUSH2 0xFFFF DUP10 AND DUP3 MSTORE PUSH1 0x20 MSTORE KECCAK256 SWAP3 PUSH1 0xFF PUSH1 0x1 DUP6 ADD SLOAD PUSH1 0xA0 SHR AND PUSH1 0x2 DUP2 LT ISZERO PUSH2 0x50D JUMPI PUSH1 0x1 PUSH2 0x15B8 SWAP2 EQ PUSH2 0x2F9D JUMP JUMPDEST PUSH2 0x15CB PUSH1 0xFF PUSH1 0x5 DUP7 ADD SLOAD PUSH1 0x10 SHR AND PUSH2 0x2F64 JUMP JUMPDEST DUP6 PUSH1 0x0 MSTORE PUSH1 0xC PUSH1 0x20 MSTORE PUSH1 0x40 DUP1 PUSH1 0x0 KECCAK256 PUSH1 0x0 SWAP1 PUSH2 0xFFFF DUP11 AND DUP3 MSTORE PUSH1 0x20 MSTORE KECCAK256 DUP1 SLOAD SWAP1 DUP2 ISZERO PUSH2 0x18A3 JUMPI PUSH1 0x2 DUP2 ADD SWAP2 DUP3 SLOAD SWAP2 PUSH1 0xFF DUP4 AND PUSH2 0x186B JUMPI PUSH1 0x1 ADD SLOAD PUSH2 0x1611 PUSH1 0x12 SLOAD DUP3 PUSH2 0x2FDB JUMP JUMPDEST NUMBER LT PUSH2 0x1830 JUMPI PUSH1 0x11 SLOAD PUSH2 0x1623 SWAP2 PUSH2 0x2FDB JUMP JUMPDEST NUMBER GT PUSH2 0x17F3 JUMPI DUP8 PUSH1 0x40 MLOAD PUSH2 0x165B PUSH1 0x20 DUP3 PUSH2 0x164B PUSH2 0x1644 DUP4 DUP4 ADD DUP1 SWAP8 DUP13 PUSH2 0x32A8 JUMP JUMPDEST DUP13 DUP13 PUSH2 0x32A8 JUMP JUMPDEST PUSH1 0x64 CALLDATALOAD DUP2 MSTORE SUB DUP1 DUP5 MSTORE ADD DUP3 PUSH2 0x2D3E JUMP JUMPDEST MLOAD SWAP1 KECCAK256 SUB PUSH2 0x17BE JUMPI PUSH1 0xFF NOT AND PUSH1 0x1 OR SWAP1 SSTORE PUSH1 0x0 JUMPDEST DUP6 DUP2 LT PUSH2 0x1749 JUMPI POP DUP6 PUSH1 0x0 MSTORE PUSH1 0x8 PUSH1 0x20 MSTORE PUSH1 0x40 PUSH1 0x0 KECCAK256 PUSH2 0xFFFF DUP9 AND PUSH1 0x0 MSTORE PUSH1 0x20 MSTORE PUSH2 0x169D PUSH1 0x40 PUSH1 0x0 KECCAK256 PUSH2 0x31F1 JUMP JUMPDEST PUSH2 0xFFFF DUP8 AND SWAP3 PUSH1 0x0 JUMPDEST DUP7 DUP2 LT PUSH2 0x16E3 JUMPI DUP9 DUP9 PUSH32 0xFBA62AAD89C6C437BF733319E2BB0EE93CB42499851F7A0B45088B25F3A2C493 PUSH1 0x20 DUP11 DUP11 PUSH1 0x4 NUMBER SWAP2 ADD SSTORE PUSH1 0x40 MLOAD SWAP1 DUP2 MSTORE LOG3 STOP JUMPDEST PUSH1 0x1 SWAP1 DUP9 PUSH1 0x0 MSTORE PUSH1 0x8 PUSH1 0x20 MSTORE PUSH2 0x1743 PUSH1 0x40 DUP1 PUSH1 0x0 KECCAK256 PUSH1 0x0 SWAP1 DUP10 DUP3 MSTORE PUSH1 0x20 MSTORE KECCAK256 PUSH2 0x1715 PUSH2 0x1710 DUP5 DUP13 DUP10 PUSH2 0x3142 JUMP JUMPDEST PUSH2 0x3168 JUMP JUMPDEST SWAP1 PUSH2 0xFFFF PUSH2 0x1727 PUSH2 0x1710 DUP7 DUP10 DUP13 PUSH2 0x3142 JUMP JUMPDEST DUP2 PUSH1 0x40 MLOAD SWAP5 PUSH2 0x1735 DUP7 PUSH2 0x2D23 JUMP JUMPDEST AND DUP5 MSTORE AND PUSH1 0x20 DUP4 ADD MSTORE PUSH2 0x323D JUMP JUMPDEST ADD PUSH2 0x16A6 JUMP JUMPDEST DUP1 PUSH2 0x177A PUSH2 0x175D PUSH2 0x1710 PUSH1 0x1 SWAP5 DUP11 DUP8 PUSH2 0x3142 JUMP JUMPDEST DUP10 PUSH1 0x0 MSTORE PUSH1 0x6 PUSH1 0x20 MSTORE PUSH2 0xFFFF PUSH1 0x8 PUSH1 0x40 PUSH1 0x0 KECCAK256 ADD SLOAD SWAP2 AND LT PUSH2 0x3177 JUMP JUMPDEST DUP8 PUSH1 0x0 MSTORE PUSH1 0x7 PUSH1 0x20 MSTORE PUSH2 0x17B8 PUSH1 0xFF PUSH1 0x5 PUSH1 0x40 DUP11 PUSH2 0x179F PUSH2 0x1710 DUP8 DUP5 PUSH1 0x0 KECCAK256 SWAP4 DUP12 PUSH2 0x3142 JUMP JUMPDEST SWAP1 PUSH2 0xFFFF PUSH1 0x0 SWAP3 AND DUP3 MSTORE PUSH1 0x20 MSTORE KECCAK256 ADD SLOAD PUSH1 0x10 SHR AND PUSH2 0x31B1 JUMP JUMPDEST ADD PUSH2 0x166F JUMP JUMPDEST PUSH1 0x40 MLOAD PUSH3 0x461BCD PUSH1 0xE5 SHL DUP2 MSTORE PUSH1 0x20 PUSH1 0x4 DUP3 ADD MSTORE PUSH1 0xD PUSH1 0x24 DUP3 ADD MSTORE PUSH13 0x90C2E6D040DAD2E6DAC2E8C6D PUSH1 0x9B SHL PUSH1 0x44 DUP3 ADD MSTORE PUSH1 0x64 SWAP1 REVERT JUMPDEST PUSH1 0x40 MLOAD PUSH3 0x461BCD PUSH1 0xE5 SHL DUP2 MSTORE PUSH1 0x20 PUSH1 0x4 DUP3 ADD MSTORE PUSH1 0x15 PUSH1 0x24 DUP3 ADD MSTORE PUSH21 0x14995D99585B081DDA5B991BDDC8195E1C1A5C9959 PUSH1 0x5A SHL PUSH1 0x44 DUP3 ADD MSTORE PUSH1 0x64 SWAP1 REVERT JUMPDEST PUSH1 0x40 MLOAD PUSH3 0x461BCD PUSH1 0xE5 SHL DUP2 MSTORE PUSH1 0x20 PUSH1 0x4 DUP3 ADD MSTORE PUSH1 0x13 PUSH1 0x24 DUP3 ADD MSTORE PUSH19 0x151BDBC819585C9B1E481D1BC81C995D99585B PUSH1 0x6A SHL PUSH1 0x44 DUP3 ADD MSTORE PUSH1 0x64 SWAP1 REVERT JUMPDEST PUSH1 0x40 MLOAD PUSH3 0x461BCD PUSH1 0xE5 SHL DUP2 MSTORE PUSH1 0x20 PUSH1 0x4 DUP3 ADD MSTORE PUSH1 0x10 PUSH1 0x24 DUP3 ADD MSTORE PUSH16 0x105B1C9958591E481C995D99585B1959 PUSH1 0x82 SHL PUSH1 0x44 DUP3 ADD MSTORE PUSH1 0x64 SWAP1 REVERT JUMPDEST PUSH1 0x40 MLOAD PUSH3 0x461BCD PUSH1 0xE5 SHL DUP2 MSTORE PUSH1 0x20 PUSH1 0x4 DUP3 ADD MSTORE PUSH1 0xF PUSH1 0x24 DUP3 ADD MSTORE PUSH15 0x139BC818DBDB5B5A5D08199BDD5B99 PUSH1 0x8A SHL PUSH1 0x44 DUP3 ADD MSTORE PUSH1 0x64 SWAP1 REVERT JUMPDEST CALLVALUE PUSH2 0x314 JUMPI PUSH1 0x60 CALLDATASIZE PUSH1 0x3 NOT ADD SLT PUSH2 0x314 JUMPI PUSH1 0x4 CALLDATALOAD PUSH1 0x24 CALLDATALOAD PUSH1 0x1 PUSH1 0x1 PUSH1 0x40 SHL SUB DUP2 GT PUSH2 0x314 JUMPI PUSH2 0x190D SWAP1 CALLDATASIZE SWAP1 PUSH1 0x4 ADD PUSH2 0x2E7E JUMP JUMPDEST PUSH1 0x44 SWAP3 SWAP2 SWAP3 CALLDATALOAD PUSH1 0x1 PUSH1 0x1 PUSH1 0x40 SHL SUB DUP2 GT PUSH2 0x314 JUMPI PUSH2 0x192F SWAP1 CALLDATASIZE SWAP1 PUSH1 0x4 ADD PUSH2 0x2E7E JUMP JUMPDEST SWAP1 SWAP4 PUSH2 0x1939 PUSH2 0x3D25 JUMP JUMPDEST PUSH2 0x1944 DUP3 DUP5 EQ PUSH2 0x30C8 JUMP JUMPDEST PUSH2 0x194F DUP4 ISZERO ISZERO PUSH2 0x3106 JUMP JUMPDEST PUSH1 0x0 DUP5 DUP2 MSTORE PUSH1 0x9 PUSH1 0x20 SWAP1 DUP2 MSTORE PUSH1 0x40 DUP1 DUP4 KECCAK256 CALLER DUP5 MSTORE SWAP1 SWAP2 MSTORE SWAP1 KECCAK256 SLOAD PUSH2 0x1975 SWAP1 PUSH1 0xFF AND PUSH2 0x303C JUMP JUMPDEST DUP4 PUSH1 0x0 MSTORE PUSH1 0xA PUSH1 0x20 MSTORE PUSH1 0x40 PUSH1 0x0 KECCAK256 PUSH1 0x1 DUP1 PUSH1 0xA0 SHL SUB CALLER AND PUSH1 0x0 MSTORE PUSH1 0x20 MSTORE PUSH2 0xFFFF PUSH1 0x40 PUSH1 0x0 KECCAK256 SLOAD AND SWAP5 DUP5 PUSH1 0x0 MSTORE PUSH1 0x7 PUSH1 0x20 MSTORE PUSH1 0x40 PUSH1 0x0 KECCAK256 PUSH2 0xFFFF DUP8 AND PUSH1 0x0 MSTORE PUSH1 0x20 MSTORE PUSH1 0xFF PUSH1 0x1 PUSH1 0x40 PUSH1 0x0 KECCAK256 ADD SLOAD PUSH1 0xA0 SHR AND PUSH1 0x2 DUP2 LT ISZERO PUSH2 0x50D JUMPI PUSH1 0x1 PUSH2 0x19DD SWAP2 SWAP5 SWAP4 SWAP5 EQ PUSH2 0x2F9D JUMP JUMPDEST DUP5 PUSH1 0x0 MSTORE PUSH1 0x7 PUSH1 0x20 MSTORE PUSH1 0x40 PUSH1 0x0 KECCAK256 PUSH2 0xFFFF DUP8 AND PUSH1 0x0 MSTORE PUSH1 0x20 MSTORE PUSH2 0x1A0D PUSH1 0xFF PUSH1 0x5 PUSH1 0x40 PUSH1 0x0 KECCAK256 ADD SLOAD PUSH1 0x10 SHR AND PUSH2 0x2F64 JUMP JUMPDEST PUSH1 0x0 JUMPDEST DUP5 DUP2 LT PUSH2 0x1AE1 JUMPI POP DUP5 PUSH1 0x0 MSTORE PUSH1 0x8 PUSH1 0x20 MSTORE PUSH1 0x40 PUSH1 0x0 KECCAK256 PUSH2 0xFFFF DUP8 AND PUSH1 0x0 MSTORE PUSH1 0x20 MSTORE PUSH2 0x1A3E PUSH1 0x40 PUSH1 0x0 KECCAK256 PUSH2 0x31F1 JUMP JUMPDEST PUSH2 0xFFFF DUP7 AND SWAP3 PUSH1 0x0 JUMPDEST DUP6 DUP2 LT PUSH2 0x1A9C JUMPI DUP8 DUP8 PUSH32 0x25742C04C8F0360E39ABB67701FDA4ACB202E054E9776C223FF2B53398C7B260 PUSH1 0x20 DUP10 DUP10 DUP5 PUSH1 0x0 MSTORE PUSH1 0x7 DUP4 MSTORE PUSH1 0x40 PUSH1 0x0 KECCAK256 SWAP1 PUSH1 0x0 MSTORE DUP3 MSTORE PUSH1 0x40 PUSH1 0x0 KECCAK256 PUSH1 0x4 NUMBER SWAP2 ADD SSTORE PUSH1 0x40 MLOAD SWAP1 DUP2 MSTORE LOG3 STOP JUMPDEST PUSH1 0x1 SWAP1 DUP8 PUSH1 0x0 MSTORE PUSH1 0x8 PUSH1 0x20 MSTORE PUSH2 0x1ADB PUSH1 0x40 DUP1 PUSH1 0x0 KECCAK256 PUSH1 0x0 SWAP1 DUP10 DUP3 MSTORE PUSH1 0x20 MSTORE KECCAK256 PUSH2 0x1AC9 PUSH2 0x1710 DUP5 DUP12 DUP9 PUSH2 0x3142 JUMP JUMPDEST SWAP1 PUSH2 0xFFFF PUSH2 0x1727 PUSH2 0x1710 DUP7 DUP12 DUP12 PUSH2 0x3142 JUMP JUMPDEST ADD PUSH2 0x1A47 JUMP JUMPDEST DUP1 PUSH2 0x1B14 PUSH2 0x1AF7 PUSH2 0x1710 PUSH1 0x1 SWAP5 DUP10 DUP10 SWAP9 SWAP10 PUSH2 0x3142 JUMP JUMPDEST DUP9 PUSH1 0x0 MSTORE PUSH1 0x6 PUSH1 0x20 MSTORE PUSH2 0xFFFF PUSH1 0x8 PUSH1 0x40 PUSH1 0x0 KECCAK256 ADD SLOAD SWAP2 AND LT PUSH2 0x3177 JUMP JUMPDEST DUP7 PUSH1 0x0 MSTORE PUSH1 0x7 PUSH1 0x20 MSTORE PUSH2 0x1B38 PUSH1 0xFF PUSH1 0x5 PUSH1 0x40 DUP1 PUSH1 0x0 KECCAK256 PUSH2 0x179F PUSH2 0x1710 DUP8 DUP14 DUP13 PUSH2 0x3142 JUMP JUMPDEST ADD SWAP3 SWAP2 SWAP3 PUSH2 0x1A10 JUMP JUMPDEST CALLVALUE PUSH2 0x314 JUMPI PUSH1 0x0 CALLDATASIZE PUSH1 0x3 NOT ADD SLT PUSH2 0x314 JUMPI PUSH1 0x20 PUSH1 0x10 SLOAD PUSH1 0x40 MLOAD SWAP1 DUP2 MSTORE RETURN JUMPDEST CALLVALUE PUSH2 0x314 JUMPI PUSH1 0x80 CALLDATASIZE PUSH1 0x3 NOT ADD SLT PUSH2 0x314 JUMPI PUSH2 0x1B78 PUSH2 0x2CA5 JUMP JUMPDEST PUSH1 0x2 PUSH1 0x44 CALLDATALOAD LT ISZERO PUSH2 0x314 JUMPI PUSH1 0x64 CALLDATALOAD SWAP1 PUSH2 0x1B8F PUSH2 0x3D97 JUMP JUMPDEST PUSH1 0x4 CALLDATALOAD PUSH1 0x0 MSTORE PUSH1 0x6 PUSH1 0x20 MSTORE PUSH1 0x40 PUSH1 0x0 KECCAK256 SWAP1 PUSH2 0x1BB0 PUSH1 0xFF PUSH1 0x9 DUP5 ADD SLOAD AND PUSH2 0x3079 JUMP JUMPDEST PUSH1 0x4 CALLDATALOAD PUSH1 0x0 MSTORE PUSH1 0x9 PUSH1 0x20 MSTORE PUSH1 0x40 PUSH1 0x0 KECCAK256 PUSH1 0x1 DUP1 PUSH1 0xA0 SHL SUB DUP3 AND PUSH1 0x0 MSTORE PUSH1 0x20 MSTORE PUSH1 0xFF PUSH1 0x40 PUSH1 0x0 KECCAK256 SLOAD AND PUSH2 0x1FE7 JUMPI PUSH1 0x8 DUP3 ADD SLOAD PUSH1 0x2 DUP4 ADD SLOAD GT ISZERO PUSH2 0x1FB4 JUMPI PUSH1 0x6 DUP3 ADD SLOAD DUP4 LT PUSH2 0x1F7A JUMPI PUSH1 0x0 SWAP2 PUSH1 0x44 CALLDATALOAD PUSH2 0x1F6F JUMPI PUSH1 0xFF PUSH2 0x1C27 PUSH1 0x1 JUMPDEST PUSH1 0x4 CALLDATALOAD DUP7 MSTORE PUSH1 0xD PUSH1 0x20 SWAP1 DUP2 MSTORE PUSH1 0x40 DUP1 DUP9 KECCAK256 CALLER DUP10 MSTORE SWAP1 SWAP2 MSTORE DUP7 KECCAK256 PUSH2 0x2CD1 JUMP JUMPDEST SLOAD AND PUSH2 0x1F0B JUMPI PUSH1 0x4 CALLDATALOAD DUP4 MSTORE PUSH1 0xD PUSH1 0x20 SWAP1 DUP2 MSTORE PUSH1 0x40 DUP1 DUP6 KECCAK256 CALLER DUP7 MSTORE SWAP1 SWAP2 MSTORE DUP4 KECCAK256 PUSH2 0x1C53 SWAP1 PUSH1 0x44 CALLDATALOAD SWAP1 PUSH2 0x2CD1 JUMP JUMPDEST DUP1 SLOAD PUSH1 0xFF NOT AND PUSH1 0x1 OR SWAP1 SSTORE DUP4 PUSH2 0x1EDA JUMPI JUMPDEST PUSH2 0xFFFF PUSH1 0x8 DUP3 ADD SLOAD AND SWAP3 PUSH1 0x40 MLOAD PUSH2 0x180 DUP2 ADD DUP2 DUP2 LT PUSH1 0x1 PUSH1 0x1 PUSH1 0x40 SHL SUB DUP3 GT OR PUSH2 0x1EC6 JUMPI PUSH1 0x40 MSTORE PUSH1 0x1 DUP1 PUSH1 0xA0 SHL SUB DUP5 AND DUP2 MSTORE PUSH1 0x20 DUP2 ADD CALLER DUP2 MSTORE PUSH1 0x40 DUP3 ADD SWAP3 POP PUSH1 0x44 CALLDATALOAD DUP4 MSTORE PUSH1 0x60 DUP3 ADD SWAP7 DUP8 MSTORE PUSH1 0x0 PUSH1 0x80 DUP4 ADD MSTORE PUSH1 0xA0 DUP3 ADD NUMBER DUP2 MSTORE PUSH1 0xC0 DUP4 ADD SWAP8 DUP8 DUP10 MSTORE PUSH1 0xE0 DUP5 ADD SWAP5 PUSH1 0x1 DUP7 MSTORE PUSH1 0x0 PUSH2 0x100 DUP7 ADD MSTORE PUSH8 0x6F05B59D3B20000 PUSH2 0x120 DUP7 ADD MSTORE PUSH1 0x0 PUSH2 0x140 DUP7 ADD MSTORE PUSH1 0x0 PUSH2 0x160 DUP7 ADD MSTORE PUSH1 0x4 CALLDATALOAD PUSH1 0x0 MSTORE PUSH1 0x7 PUSH1 0x20 MSTORE PUSH1 0x40 DUP1 PUSH1 0x0 KECCAK256 PUSH1 0x0 SWAP1 PUSH2 0xFFFF DUP13 AND DUP3 MSTORE PUSH1 0x20 MSTORE KECCAK256 SWAP4 PUSH1 0x1 DUP1 PUSH1 0xA0 SHL SUB PUSH1 0x1 DUP1 PUSH1 0xA0 SHL SUB DUP8 MLOAD AND AND PUSH12 0xFFFFFFFFFFFFFFFFFFFFFFFF PUSH1 0xA0 SHL DUP7 SLOAD AND OR DUP6 SSTORE PUSH1 0x1 DUP1 PUSH1 0xA0 SHL SUB SWAP1 PUSH1 0x1 DUP1 PUSH1 0xA0 SHL SUB SWAP1 MLOAD AND AND PUSH12 0xFFFFFFFFFFFFFFFFFFFFFFFF PUSH1 0xA0 SHL PUSH1 0x1 DUP7 ADD SLOAD AND OR PUSH1 0x1 DUP6 ADD SSTORE MLOAD SWAP4 PUSH1 0x2 DUP6 LT ISZERO PUSH2 0x50D JUMPI PUSH1 0x20 SWAP10 PUSH1 0x40 SWAP7 PUSH1 0x9 SWAP5 PUSH2 0x160 SWAP5 PUSH1 0x0 SWAP9 PUSH1 0x1 DUP10 ADD SLOAD SWAP1 PUSH1 0xFF PUSH1 0xA0 SHL SWAP1 PUSH1 0xA0 SHL AND SWAP1 PUSH1 0xFF PUSH1 0xA0 SHL NOT AND OR PUSH1 0x1 DUP10 ADD SSTORE MLOAD PUSH1 0x2 DUP9 ADD SSTORE PUSH1 0x80 DUP5 ADD MLOAD PUSH1 0x3 DUP9 ADD SSTORE MLOAD PUSH1 0x4 DUP8 ADD SSTORE PUSH2 0xFFFF DUP1 PUSH1 0x5 DUP9 ADD SWAP4 MLOAD AND AND PUSH2 0xFFFF NOT DUP4 SLOAD AND OR DUP3 SSTORE MLOAD ISZERO ISZERO PUSH3 0xFF0000 DUP3 SLOAD SWAP2 PUSH1 0x10 SHL AND SWAP1 PUSH3 0xFF0000 NOT AND OR SWAP1 SSTORE PUSH2 0x100 DUP2 ADD MLOAD PUSH1 0x6 DUP6 ADD SSTORE PUSH2 0x120 DUP2 ADD MLOAD PUSH1 0x7 DUP6 ADD SSTORE PUSH2 0x140 DUP2 ADD MLOAD PUSH1 0x8 DUP6 ADD SSTORE ADD MLOAD SWAP2 ADD SSTORE PUSH1 0x4 CALLDATALOAD DUP2 MSTORE PUSH1 0xA DUP7 MSTORE DUP2 DUP2 KECCAK256 PUSH1 0x1 DUP1 PUSH1 0xA0 SHL SUB DUP6 AND DUP3 MSTORE DUP7 MSTORE DUP2 DUP2 KECCAK256 PUSH2 0xFFFF DUP7 AND PUSH2 0xFFFF NOT DUP3 SLOAD AND OR SWAP1 SSTORE PUSH1 0x4 CALLDATALOAD DUP2 MSTORE PUSH1 0x9 DUP7 MSTORE DUP2 DUP2 KECCAK256 PUSH1 0x1 DUP1 PUSH1 0xA0 SHL SUB DUP6 AND DUP3 MSTORE DUP7 MSTORE KECCAK256 PUSH1 0x1 PUSH1 0xFF NOT DUP3 SLOAD AND OR SWAP1 SSTORE PUSH1 0x8 PUSH2 0x1E6D DUP2 DUP4 ADD SLOAD PUSH2 0x30B9 JUMP JUMPDEST SWAP2 ADD SSTORE PUSH1 0x40 MLOAD DUP3 DUP2 MSTORE PUSH2 0x1E84 DUP5 DUP3 ADD PUSH1 0x44 CALLDATALOAD PUSH2 0x2E44 JUMP JUMPDEST CALLER SWAP2 PUSH1 0x1 PUSH1 0x1 PUSH1 0xA0 SHL SUB AND SWAP1 PUSH1 0x4 CALLDATALOAD SWAP1 PUSH32 0xD6347F2C1CBFC00C2EF5D4DFCE146B393CB3305376A2999571521D291DEF0555 SWAP1 PUSH1 0x40 SWAP1 LOG4 PUSH1 0x1 DUP1 SSTORE PUSH1 0x40 MLOAD SWAP1 DUP2 MSTORE RETURN JUMPDEST PUSH4 0x4E487B71 PUSH1 0xE0 SHL DUP4 MSTORE PUSH1 0x41 PUSH1 0x4 MSTORE PUSH1 0x24 DUP4 REVERT JUMPDEST PUSH2 0x1F06 DUP5 ADDRESS CALLER PUSH32 0x0 PUSH2 0x3D4E JUMP JUMPDEST PUSH2 0x1C64 JUMP JUMPDEST PUSH1 0x40 MLOAD PUSH3 0x461BCD PUSH1 0xE5 SHL DUP2 MSTORE PUSH1 0x20 PUSH1 0x4 DUP3 ADD MSTORE PUSH1 0x36 PUSH1 0x24 DUP3 ADD MSTORE PUSH32 0x53656C662D766F74653A20636F6C646B657920616C7265616479207265676973 PUSH1 0x44 DUP3 ADD MSTORE PUSH22 0x7465726564206173206F70706F736974652074797065 PUSH1 0x50 SHL PUSH1 0x64 DUP3 ADD MSTORE PUSH1 0x84 SWAP1 REVERT JUMPDEST PUSH1 0xFF PUSH2 0x1C27 DUP5 PUSH2 0x1C09 JUMP JUMPDEST PUSH1 0x40 MLOAD PUSH3 0x461BCD PUSH1 0xE5 SHL DUP2 MSTORE PUSH1 0x20 PUSH1 0x4 DUP3 ADD MSTORE PUSH1 0x12 PUSH1 0x24 DUP3 ADD MSTORE PUSH18 0x496E73756666696369656E74207374616B65 PUSH1 0x70 SHL PUSH1 0x44 DUP3 ADD MSTORE PUSH1 0x64 SWAP1 REVERT JUMPDEST PUSH1 0x40 MLOAD PUSH3 0x461BCD PUSH1 0xE5 SHL DUP2 MSTORE PUSH1 0x20 PUSH1 0x4 DUP3 ADD MSTORE PUSH1 0xB PUSH1 0x24 DUP3 ADD MSTORE PUSH11 0x14DD589B995D08199D5B1B PUSH1 0xAA SHL PUSH1 0x44 DUP3 ADD MSTORE PUSH1 0x64 SWAP1 REVERT JUMPDEST PUSH1 0x40 MLOAD PUSH3 0x461BCD PUSH1 0xE5 SHL DUP2 MSTORE PUSH1 0x20 PUSH1 0x4 DUP3 ADD MSTORE PUSH1 0x12 PUSH1 0x24 DUP3 ADD MSTORE PUSH18 0x105B1C9958591E481C9959DA5CDD195C9959 PUSH1 0x72 SHL PUSH1 0x44 DUP3 ADD MSTORE PUSH1 0x64 SWAP1 REVERT JUMPDEST CALLVALUE PUSH2 0x314 JUMPI PUSH1 0x40 CALLDATASIZE PUSH1 0x3 NOT ADD SLT PUSH2 0x314 JUMPI PUSH1 0x4 CALLDATALOAD PUSH2 0x203D PUSH2 0x2CA5 JUMP JUMPDEST SWAP1 DUP1 PUSH1 0x0 MSTORE PUSH1 0x9 PUSH1 0x20 MSTORE PUSH1 0x40 PUSH1 0x0 KECCAK256 PUSH1 0x1 DUP1 PUSH1 0xA0 SHL SUB DUP4 AND PUSH1 0x0 MSTORE PUSH1 0x20 MSTORE PUSH2 0x206C PUSH1 0xFF PUSH1 0x40 PUSH1 0x0 KECCAK256 SLOAD AND PUSH2 0x303C JUMP JUMPDEST PUSH1 0x0 MSTORE PUSH1 0xA PUSH1 0x20 MSTORE PUSH1 0x40 PUSH1 0x0 KECCAK256 SWAP1 PUSH1 0x1 DUP1 PUSH1 0xA0 SHL SUB AND PUSH1 0x0 MSTORE PUSH1 0x20 MSTORE PUSH1 0x20 PUSH2 0xFFFF PUSH1 0x40 PUSH1 0x0 KECCAK256 SLOAD AND PUSH1 0x40 MLOAD SWAP1 DUP2 MSTORE RETURN JUMPDEST CALLVALUE PUSH2 0x314 JUMPI PUSH1 0x0 CALLDATASIZE PUSH1 0x3 NOT ADD SLT PUSH2 0x314 JUMPI PUSH2 0x20B5 PUSH2 0x3D25 JUMP JUMPDEST PUSH1 0x0 DUP1 SLOAD PUSH1 0x1 PUSH1 0x1 PUSH1 0xA0 SHL SUB NOT DUP2 AND DUP3 SSTORE PUSH1 0x1 PUSH1 0x1 PUSH1 0xA0 SHL SUB AND PUSH32 0x8BE0079C531659141344CD1FD0A4F28419497F9722A3DAAFE3B4186F6B6457E0 DUP3 DUP1 LOG3 STOP JUMPDEST CALLVALUE PUSH2 0x314 JUMPI PUSH1 0x20 CALLDATASIZE PUSH1 0x3 NOT ADD SLT PUSH2 0x314 JUMPI PUSH2 0x210E PUSH2 0x3D25 JUMP JUMPDEST PUSH1 0x4 DUP1 CALLDATALOAD SWAP1 SSTORE STOP JUMPDEST CALLVALUE PUSH2 0x314 JUMPI PUSH1 0x80 CALLDATASIZE PUSH1 0x3 NOT ADD SLT PUSH2 0x314 JUMPI PUSH1 0x4 CALLDATALOAD PUSH2 0x2132 PUSH2 0x2C6F JUMP JUMPDEST PUSH1 0x44 CALLDATALOAD PUSH1 0x64 CALLDATALOAD PUSH1 0x1 PUSH1 0x1 PUSH1 0x40 SHL SUB DUP2 GT PUSH2 0x314 JUMPI PUSH2 0x2154 SWAP1 CALLDATASIZE SWAP1 PUSH1 0x4 ADD PUSH2 0x2E51 JUMP JUMPDEST SWAP3 SWAP1 PUSH1 0x1 DUP1 PUSH1 0xA0 SHL SUB PUSH1 0x0 SLOAD AND CALLER EQ DUP1 ISZERO PUSH2 0x22F7 JUMPI JUMPDEST ISZERO PUSH2 0x22B2 JUMPI DUP3 ISZERO ISZERO DUP1 PUSH2 0x22A6 JUMPI JUMPDEST ISZERO PUSH2 0x2261 JUMPI DUP5 PUSH1 0x0 MSTORE PUSH1 0x7 PUSH1 0x20 MSTORE PUSH1 0x40 PUSH1 0x0 KECCAK256 PUSH2 0xFFFF DUP4 AND PUSH1 0x0 MSTORE PUSH1 0x20 MSTORE PUSH1 0x40 PUSH1 0x0 KECCAK256 SWAP1 PUSH1 0xFF PUSH1 0x5 DUP4 ADD SLOAD PUSH1 0x10 SHR AND ISZERO PUSH2 0x222A JUMPI PUSH32 0xB690D999D54E9332494C15C985DF21327BFFF85F3125D47BE78B06CA862B419B SWAP5 PUSH2 0xFFFF SWAP5 PUSH1 0x2 PUSH2 0x221D SWAP5 ADD PUSH2 0x2710 PUSH2 0x21E8 DUP3 SLOAD SWAP4 DUP5 PUSH2 0x2FE8 JUMP JUMPDEST DIV SWAP2 DUP1 DUP4 GT PUSH2 0x2222 JUMPI JUMPDEST DUP3 PUSH2 0x21FC SWAP2 PUSH2 0x2F57 JUMP JUMPDEST SWAP1 SSTORE PUSH1 0x40 MLOAD SWAP6 DUP7 SWAP6 AND DUP6 MSTORE PUSH1 0x20 DUP6 ADD MSTORE PUSH1 0x60 PUSH1 0x40 DUP6 ADD MSTORE PUSH1 0x60 DUP5 ADD SWAP2 PUSH2 0x301B JUMP JUMPDEST SUB SWAP1 LOG2 STOP JUMPDEST SWAP2 POP DUP2 PUSH2 0x21F2 JUMP JUMPDEST PUSH1 0x40 MLOAD PUSH3 0x461BCD PUSH1 0xE5 SHL DUP2 MSTORE PUSH1 0x20 PUSH1 0x4 DUP3 ADD MSTORE PUSH1 0xF PUSH1 0x24 DUP3 ADD MSTORE PUSH15 0x4E6F6465206E6F7420616374697665 PUSH1 0x88 SHL PUSH1 0x44 DUP3 ADD MSTORE PUSH1 0x64 SWAP1 REVERT JUMPDEST PUSH1 0x40 MLOAD PUSH3 0x461BCD PUSH1 0xE5 SHL DUP2 MSTORE PUSH1 0x20 PUSH1 0x4 DUP3 ADD MSTORE PUSH1 0x18 PUSH1 0x24 DUP3 ADD MSTORE PUSH32 0x496E76616C696420736C6173682070657263656E746167650000000000000000 PUSH1 0x44 DUP3 ADD MSTORE PUSH1 0x64 SWAP1 REVERT JUMPDEST POP PUSH2 0x2710 DUP4 GT ISZERO PUSH2 0x2178 JUMP JUMPDEST PUSH1 0x40 MLOAD PUSH3 0x461BCD PUSH1 0xE5 SHL DUP2 MSTORE PUSH1 0x20 PUSH1 0x4 DUP3 ADD MSTORE PUSH1 0x17 PUSH1 0x24 DUP3 ADD MSTORE PUSH32 0x4E6F7420617574686F72697A656420746F20736C617368000000000000000000 PUSH1 0x44 DUP3 ADD MSTORE PUSH1 0x64 SWAP1 REVERT JUMPDEST POP DUP5 PUSH1 0x0 MSTORE PUSH1 0x6 PUSH1 0x20 MSTORE PUSH1 0x1 DUP1 PUSH1 0xA0 SHL SUB PUSH1 0x1 PUSH1 0x40 PUSH1 0x0 KECCAK256 ADD SLOAD AND CALLER EQ PUSH2 0x216A JUMP JUMPDEST CALLVALUE PUSH2 0x314 JUMPI PUSH1 0x40 CALLDATASIZE PUSH1 0x3 NOT ADD SLT PUSH2 0x314 JUMPI PUSH2 0x180 PUSH1 0x40 PUSH2 0x2337 PUSH2 0x2C6F JUMP JUMPDEST PUSH1 0x4 CALLDATALOAD PUSH1 0x0 MSTORE PUSH1 0x7 PUSH1 0x20 MSTORE DUP2 PUSH1 0x0 KECCAK256 PUSH2 0xFFFF PUSH1 0x0 SWAP3 AND DUP3 MSTORE PUSH1 0x20 MSTORE KECCAK256 PUSH1 0x1 DUP1 PUSH1 0xA0 SHL SUB DUP2 SLOAD AND SWAP1 PUSH1 0x1 DUP2 ADD SLOAD SWAP1 PUSH1 0x2 DUP2 ADD SLOAD PUSH1 0x3 DUP3 ADD SLOAD PUSH1 0xFF PUSH1 0x4 DUP5 ADD SLOAD PUSH1 0x5 DUP6 ADD SLOAD SWAP1 PUSH1 0x6 DUP7 ADD SLOAD SWAP4 PUSH1 0x7 DUP8 ADD SLOAD SWAP6 PUSH2 0x23B8 PUSH1 0x9 PUSH1 0x8 DUP11 ADD SLOAD SWAP10 ADD SLOAD SWAP10 PUSH1 0x40 MLOAD SWAP12 DUP13 MSTORE PUSH1 0x1 DUP1 PUSH1 0xA0 SHL SUB DUP2 AND PUSH1 0x20 DUP14 ADD MSTORE DUP7 PUSH1 0x40 DUP14 ADD SWAP2 PUSH1 0xA0 SHR AND PUSH2 0x2E44 JUMP JUMPDEST PUSH1 0x60 DUP11 ADD MSTORE PUSH1 0x80 DUP10 ADD MSTORE PUSH1 0xA0 DUP9 ADD MSTORE PUSH2 0xFFFF DUP2 AND PUSH1 0xC0 DUP9 ADD MSTORE PUSH1 0x10 SHR AND ISZERO ISZERO PUSH1 0xE0 DUP7 ADD MSTORE PUSH2 0x100 DUP6 ADD MSTORE PUSH2 0x120 DUP5 ADD MSTORE PUSH2 0x140 DUP4 ADD MSTORE PUSH2 0x160 DUP3 ADD MSTORE RETURN JUMPDEST CALLVALUE PUSH2 0x314 JUMPI PUSH1 0x20 CALLDATASIZE PUSH1 0x3 NOT ADD SLT PUSH2 0x314 JUMPI PUSH1 0x4 CALLDATALOAD PUSH1 0x0 MSTORE PUSH1 0x6 PUSH1 0x20 MSTORE PUSH2 0x2463 PUSH1 0x40 PUSH1 0x0 KECCAK256 PUSH1 0x1 DUP1 PUSH1 0xA0 SHL SUB PUSH1 0x1 DUP3 ADD SLOAD AND PUSH1 0x2 DUP3 ADD SLOAD SWAP2 PUSH1 0x3 DUP2 ADD SLOAD PUSH1 0x4 DUP3 ADD SLOAD PUSH1 0x8 DUP4 ADD SLOAD SWAP2 PUSH2 0x244E PUSH1 0xFF PUSH1 0x9 DUP7 ADD SLOAD AND SWAP5 PUSH2 0x2D5F JUMP JUMPDEST SWAP6 PUSH1 0x40 MLOAD SWAP8 DUP9 SWAP8 PUSH1 0xE0 DUP10 MSTORE PUSH1 0xE0 DUP10 ADD SWAP1 PUSH2 0x2E03 JUMP JUMPDEST SWAP6 PUSH1 0x20 DUP9 ADD MSTORE PUSH1 0x40 DUP8 ADD MSTORE PUSH1 0x60 DUP7 ADD MSTORE PUSH1 0x80 DUP6 ADD MSTORE PUSH1 0xA0 DUP5 ADD MSTORE ISZERO ISZERO PUSH1 0xC0 DUP4 ADD MSTORE SUB SWAP1 RETURN JUMPDEST CALLVALUE PUSH2 0x314 JUMPI PUSH1 0x60 CALLDATASIZE PUSH1 0x3 NOT ADD SLT PUSH2 0x314 JUMPI PUSH2 0x24A1 PUSH2 0x2CBB JUMP JUMPDEST PUSH1 0x44 CALLDATALOAD PUSH2 0xFFFF DUP2 AND DUP2 SUB PUSH2 0x314 JUMPI PUSH1 0x40 MLOAD PUSH2 0x24DD DUP2 PUSH2 0x71E PUSH1 0x20 DUP3 ADD SWAP5 PUSH1 0x24 CALLDATALOAD DUP7 SWAP1 SWAP2 PUSH1 0x22 SWAP3 DUP3 MSTORE PUSH2 0xFFFF PUSH1 0xF0 SHL SWAP1 PUSH1 0xF0 SHL AND PUSH1 0x20 DUP3 ADD MSTORE ADD SWAP1 JUMP JUMPDEST MLOAD SWAP1 KECCAK256 SWAP1 PUSH1 0x1 DUP1 PUSH1 0xA0 SHL SUB AND PUSH1 0x0 MSTORE PUSH1 0xB PUSH1 0x20 MSTORE PUSH1 0x40 PUSH1 0x0 KECCAK256 SWAP1 PUSH1 0x0 MSTORE PUSH1 0x20 MSTORE PUSH1 0x20 PUSH1 0x40 PUSH1 0x0 KECCAK256 SLOAD PUSH1 0x40 MLOAD SWAP1 DUP2 MSTORE RETURN JUMPDEST CALLVALUE PUSH2 0x314 JUMPI PUSH1 0x0 CALLDATASIZE PUSH1 0x3 NOT ADD SLT PUSH2 0x314 JUMPI PUSH1 0x20 PUSH1 0x5 SLOAD PUSH1 0x40 MLOAD SWAP1 DUP2 MSTORE RETURN JUMPDEST CALLVALUE PUSH2 0x314 JUMPI PUSH1 0x20 CALLDATASIZE PUSH1 0x3 NOT ADD SLT PUSH2 0x314 JUMPI PUSH1 0x4 CALLDATALOAD PUSH1 0x0 MSTORE PUSH1 0x6 PUSH1 0x20 MSTORE PUSH2 0x25B2 PUSH1 0x40 PUSH1 0x0 KECCAK256 PUSH2 0x2558 DUP2 PUSH2 0x2D5F JUMP JUMPDEST SWAP1 PUSH1 0x1 DUP1 PUSH1 0xA0 SHL SUB PUSH1 0x1 DUP3 ADD SLOAD AND SWAP1 PUSH1 0x2 DUP2 ADD SLOAD SWAP1 PUSH1 0x3 DUP2 ADD SLOAD PUSH1 0x4 DUP3 ADD SLOAD PUSH1 0x5 DUP4 ADD SLOAD PUSH1 0x6 DUP5 ADD SLOAD SWAP1 PUSH1 0x7 DUP6 ADD SLOAD SWAP3 PUSH1 0x8 DUP7 ADD SLOAD SWAP5 PUSH1 0xA PUSH1 0xFF PUSH1 0x9 DUP10 ADD SLOAD AND SWAP8 ADD SLOAD SWAP8 PUSH1 0x40 MLOAD SWAP12 DUP13 SWAP12 PUSH2 0x160 DUP14 MSTORE PUSH2 0x160 DUP14 ADD SWAP1 PUSH2 0x2E03 JUMP JUMPDEST SWAP10 PUSH1 0x20 DUP13 ADD MSTORE PUSH1 0x40 DUP12 ADD MSTORE PUSH1 0x60 DUP11 ADD MSTORE PUSH1 0x80 DUP10 ADD MSTORE PUSH1 0xA0 DUP9 ADD MSTORE PUSH1 0xC0 DUP8 ADD MSTORE PUSH1 0xE0 DUP7 ADD MSTORE PUSH2 0x100 DUP6 ADD MSTORE ISZERO ISZERO PUSH2 0x120 DUP5 ADD MSTORE PUSH2 0x140 DUP4 ADD MSTORE SUB SWAP1 RETURN JUMPDEST CALLVALUE PUSH2 0x314 JUMPI PUSH1 0x20 CALLDATASIZE PUSH1 0x3 NOT ADD SLT PUSH2 0x314 JUMPI PUSH2 0x2607 PUSH2 0x3D25 JUMP JUMPDEST PUSH1 0x4 CALLDATALOAD PUSH1 0x3 SSTORE STOP JUMPDEST CALLVALUE PUSH2 0x314 JUMPI PUSH1 0x60 CALLDATASIZE PUSH1 0x3 NOT ADD SLT PUSH2 0x314 JUMPI PUSH2 0x2628 PUSH2 0x2CA5 JUMP JUMPDEST PUSH1 0x44 CALLDATALOAD PUSH1 0x2 DUP2 LT ISZERO PUSH2 0x314 JUMPI PUSH2 0x2664 PUSH1 0xFF SWAP2 PUSH1 0x20 SWAP4 PUSH1 0x4 CALLDATALOAD PUSH1 0x0 MSTORE PUSH1 0xD DUP6 MSTORE PUSH1 0x40 PUSH1 0x0 KECCAK256 SWAP1 PUSH1 0x1 DUP1 PUSH1 0xA0 SHL SUB AND PUSH1 0x0 MSTORE DUP5 MSTORE PUSH1 0x40 PUSH1 0x0 KECCAK256 PUSH2 0x2CD1 JUMP JUMPDEST SLOAD AND PUSH1 0x40 MLOAD SWAP1 ISZERO ISZERO DUP2 MSTORE RETURN JUMPDEST CALLVALUE PUSH2 0x314 JUMPI PUSH1 0x0 CALLDATASIZE PUSH1 0x3 NOT ADD SLT PUSH2 0x314 JUMPI PUSH1 0x20 PUSH1 0x2 SLOAD PUSH1 0x40 MLOAD SWAP1 DUP2 MSTORE RETURN JUMPDEST CALLVALUE PUSH2 0x314 JUMPI PUSH1 0x0 CALLDATASIZE PUSH1 0x3 NOT ADD SLT PUSH2 0x314 JUMPI PUSH1 0xE SLOAD PUSH1 0x40 MLOAD PUSH1 0x1 PUSH1 0x1 PUSH1 0xA0 SHL SUB SWAP1 SWAP2 AND DUP2 MSTORE PUSH1 0x20 SWAP1 RETURN JUMPDEST CALLVALUE PUSH2 0x314 JUMPI PUSH1 0x40 CALLDATASIZE PUSH1 0x3 NOT ADD SLT PUSH2 0x314 JUMPI PUSH1 0x4 CALLDATALOAD PUSH2 0x26D3 PUSH2 0x2C6F JUMP JUMPDEST DUP2 PUSH1 0x0 MSTORE PUSH1 0x7 PUSH1 0x20 MSTORE PUSH1 0x40 DUP1 PUSH1 0x0 KECCAK256 PUSH1 0x0 SWAP1 PUSH2 0xFFFF DUP5 AND DUP3 MSTORE PUSH1 0x20 MSTORE KECCAK256 PUSH2 0x2703 PUSH1 0xFF PUSH1 0x5 DUP4 ADD SLOAD PUSH1 0x10 SHR AND PUSH2 0x2F64 JUMP JUMPDEST PUSH1 0xFF PUSH1 0x1 DUP3 ADD SLOAD PUSH1 0xA0 SHR AND PUSH1 0x2 DUP2 LT ISZERO PUSH2 0x50D JUMPI PUSH1 0x1 PUSH2 0x2723 SWAP2 EQ PUSH2 0x2F9D JUMP JUMPDEST PUSH2 0x2734 PUSH1 0x4 DUP3 ADD SLOAD PUSH1 0x10 SLOAD SWAP1 PUSH2 0x2FDB JUMP JUMPDEST NUMBER GT ISZERO PUSH2 0x27F6 JUMPI PUSH1 0x2 DUP2 ADD DUP1 SLOAD SWAP2 PUSH1 0x64 DUP4 MUL DUP4 DUP2 DIV PUSH1 0x64 EQ DUP5 ISZERO OR ISZERO PUSH2 0xA74 JUMPI PUSH2 0x2710 SWAP1 DIV SWAP2 DUP4 DUP4 GT PUSH2 0x27EE JUMPI JUMPDEST PUSH2 0x276F DUP4 PUSH1 0x7 SWAP5 SWAP6 PUSH2 0x2F57 JUMP JUMPDEST SWAP1 SSTORE ADD SWAP2 DUP3 SLOAD SWAP2 PUSH1 0x50 DUP4 MUL SWAP3 DUP1 DUP5 DIV PUSH1 0x50 EQ SWAP1 ISZERO OR ISZERO PUSH2 0xA74 JUMPI PUSH32 0xB690D999D54E9332494C15C985DF21327BFFF85F3125D47BE78B06CA862B419B SWAP4 PUSH1 0x64 PUSH1 0xA0 SWAP5 DIV SWAP1 SSTORE PUSH2 0xFFFF PUSH1 0x40 MLOAD SWAP3 AND DUP3 MSTORE PUSH1 0x20 DUP3 ADD MSTORE PUSH1 0x60 PUSH1 0x40 DUP3 ADD MSTORE PUSH1 0x12 PUSH1 0x60 DUP3 ADD MSTORE PUSH18 0x24B730B1BA34BB32903B30B634B230BA37B9 PUSH1 0x71 SHL PUSH1 0x80 DUP3 ADD MSTORE LOG2 STOP JUMPDEST DUP4 SWAP3 POP PUSH2 0x2762 JUMP JUMPDEST PUSH1 0x40 MLOAD PUSH3 0x461BCD PUSH1 0xE5 SHL DUP2 MSTORE PUSH1 0x20 PUSH1 0x4 DUP3 ADD MSTORE PUSH1 0x13 PUSH1 0x24 DUP3 ADD MSTORE PUSH19 0x56616C696461746F7220697320616374697665 PUSH1 0x68 SHL PUSH1 0x44 DUP3 ADD MSTORE PUSH1 0x64 SWAP1 REVERT JUMPDEST CALLVALUE PUSH2 0x314 JUMPI PUSH1 0x20 CALLDATASIZE PUSH1 0x3 NOT ADD SLT PUSH2 0x314 JUMPI PUSH1 0x4 CALLDATALOAD PUSH2 0x284D PUSH2 0x3D25 JUMP JUMPDEST PUSH2 0x1388 DUP2 GT PUSH2 0x285B JUMPI PUSH1 0xF SSTORE STOP JUMPDEST PUSH1 0x40 MLOAD PUSH3 0x461BCD PUSH1 0xE5 SHL DUP2 MSTORE PUSH1 0x20 PUSH1 0x4 DUP3 ADD MSTORE PUSH1 0x7 PUSH1 0x24 DUP3 ADD MSTORE PUSH7 0x4D617820353025 PUSH1 0xC8 SHL PUSH1 0x44 DUP3 ADD MSTORE PUSH1 0x64 SWAP1 REVERT JUMPDEST CALLVALUE PUSH2 0x314 JUMPI PUSH1 0x40 CALLDATASIZE PUSH1 0x3 NOT ADD SLT PUSH2 0x314 JUMPI PUSH2 0x28A3 PUSH2 0x2CA5 JUMP JUMPDEST PUSH1 0x4 CALLDATALOAD PUSH1 0x0 MSTORE PUSH1 0xA PUSH1 0x20 MSTORE PUSH1 0x40 PUSH1 0x0 KECCAK256 SWAP1 PUSH1 0x1 DUP1 PUSH1 0xA0 SHL SUB AND PUSH1 0x0 MSTORE PUSH1 0x20 MSTORE PUSH1 0x20 PUSH2 0xFFFF PUSH1 0x40 PUSH1 0x0 KECCAK256 SLOAD AND PUSH1 0x40 MLOAD SWAP1 DUP2 MSTORE RETURN JUMPDEST CALLVALUE PUSH2 0x314 JUMPI PUSH1 0x40 CALLDATASIZE PUSH1 0x3 NOT ADD SLT PUSH2 0x314 JUMPI PUSH1 0x4 CALLDATALOAD PUSH2 0x28F2 PUSH2 0x2C6F JUMP JUMPDEST SWAP1 PUSH2 0x28FB PUSH2 0x3D97 JUMP JUMPDEST PUSH1 0x0 DUP2 DUP2 MSTORE PUSH1 0x7 PUSH1 0x20 SWAP1 DUP2 MSTORE PUSH1 0x40 DUP1 DUP4 KECCAK256 PUSH2 0xFFFF DUP7 AND DUP5 MSTORE SWAP1 SWAP2 MSTORE SWAP1 KECCAK256 PUSH1 0x1 DUP2 ADD SLOAD PUSH1 0x1 PUSH1 0x1 PUSH1 0xA0 SHL SUB AND CALLER SUB PUSH2 0x29E6 JUMPI PUSH1 0x9 DUP2 ADD SWAP1 DUP2 SLOAD SWAP1 DUP2 ISZERO PUSH2 0x29B3 JUMPI PUSH1 0x0 PUSH32 0x590FA2FAFACB7B76B58059EA8C0B2E9E7FE3F6A044B9E3A27F9D1A1F3AFF626D SWAP4 SSTORE PUSH2 0x298A DUP3 CALLER PUSH32 0x0 PUSH2 0x3DB9 JUMP JUMPDEST SLOAD PUSH1 0x40 DUP1 MLOAD PUSH2 0xFFFF SWAP1 SWAP7 AND DUP7 MSTORE PUSH1 0x20 DUP7 ADD SWAP3 SWAP1 SWAP3 MSTORE PUSH1 0x1 PUSH1 0x1 PUSH1 0xA0 SHL SUB AND SWAP4 SWAP1 DUP2 SWAP1 DUP2 ADD PUSH2 0x783 JUMP JUMPDEST PUSH1 0x40 MLOAD PUSH3 0x461BCD PUSH1 0xE5 SHL DUP2 MSTORE PUSH1 0x20 PUSH1 0x4 DUP3 ADD MSTORE PUSH1 0xB PUSH1 0x24 DUP3 ADD MSTORE PUSH11 0x27379032B6B4B9B9B4B7B7 PUSH1 0xA9 SHL PUSH1 0x44 DUP3 ADD MSTORE PUSH1 0x64 SWAP1 REVERT JUMPDEST PUSH1 0x40 MLOAD PUSH3 0x461BCD PUSH1 0xE5 SHL DUP2 MSTORE PUSH1 0x20 PUSH1 0x4 DUP3 ADD MSTORE PUSH1 0x9 PUSH1 0x24 DUP3 ADD MSTORE PUSH9 0x2737BA1037BBB732B9 PUSH1 0xB9 SHL PUSH1 0x44 DUP3 ADD MSTORE PUSH1 0x64 SWAP1 REVERT JUMPDEST CALLVALUE PUSH2 0x314 JUMPI PUSH2 0x2A25 CALLDATASIZE PUSH2 0x2C80 JUMP JUMPDEST PUSH2 0x2A2D PUSH2 0x3D97 JUMP JUMPDEST PUSH1 0x40 DUP1 MLOAD PUSH1 0x20 DUP2 ADD DUP6 DUP2 MSTORE PUSH1 0xF0 DUP6 SWAP1 SHL PUSH1 0x1 PUSH1 0x1 PUSH1 0xF0 SHL SUB NOT AND SWAP3 DUP3 ADD SWAP3 SWAP1 SWAP3 MSTORE PUSH2 0x2A5B DUP2 PUSH1 0x42 DUP2 ADD PUSH2 0x71E JUMP JUMPDEST MLOAD SWAP1 KECCAK256 CALLER PUSH1 0x0 MSTORE PUSH1 0xB PUSH1 0x20 MSTORE PUSH1 0x40 PUSH1 0x0 KECCAK256 DUP2 PUSH1 0x0 MSTORE PUSH1 0x20 MSTORE DUP2 PUSH1 0x40 PUSH1 0x0 KECCAK256 SLOAD LT PUSH2 0x2B44 JUMPI PUSH32 0xEF37DAC52E652A2F78CC3DF2429066B4D48A100F62255B7343F6396B3C2EEF81 SWAP2 PUSH2 0x783 SWAP2 CALLER PUSH1 0x0 MSTORE PUSH1 0xB PUSH1 0x20 MSTORE PUSH1 0x40 PUSH1 0x0 KECCAK256 SWAP1 PUSH1 0x0 MSTORE PUSH1 0x20 MSTORE PUSH1 0x40 PUSH1 0x0 KECCAK256 PUSH2 0x2ACA DUP3 DUP3 SLOAD PUSH2 0x2F57 JUMP JUMPDEST SWAP1 SSTORE DUP5 PUSH1 0x0 MSTORE PUSH1 0x7 PUSH1 0x20 MSTORE PUSH1 0x40 PUSH1 0x0 KECCAK256 PUSH2 0xFFFF DUP6 AND PUSH1 0x0 MSTORE PUSH1 0x20 MSTORE PUSH1 0x3 PUSH1 0x40 PUSH1 0x0 KECCAK256 ADD PUSH2 0x2AF8 DUP3 DUP3 SLOAD PUSH2 0x2F57 JUMP JUMPDEST SWAP1 SSTORE PUSH2 0x2B25 DUP2 CALLER PUSH32 0x0 PUSH2 0x3DB9 JUMP JUMPDEST PUSH1 0x40 MLOAD SWAP2 DUP3 SWAP2 CALLER SWAP6 DUP4 PUSH1 0x20 SWAP1 SWAP4 SWAP3 SWAP2 SWAP4 PUSH2 0xFFFF PUSH1 0x40 DUP3 ADD SWAP6 AND DUP2 MSTORE ADD MSTORE JUMP JUMPDEST PUSH1 0x40 MLOAD PUSH3 0x461BCD PUSH1 0xE5 SHL DUP2 MSTORE PUSH1 0x20 PUSH1 0x4 DUP3 ADD MSTORE PUSH1 0x17 PUSH1 0x24 DUP3 ADD MSTORE PUSH32 0x496E73756666696369656E742064656C65676174696F6E000000000000000000 PUSH1 0x44 DUP3 ADD MSTORE PUSH1 0x64 SWAP1 REVERT JUMPDEST CALLVALUE PUSH2 0x314 JUMPI PUSH1 0x0 CALLDATASIZE PUSH1 0x3 NOT ADD SLT PUSH2 0x314 JUMPI PUSH1 0x20 PUSH1 0x11 SLOAD PUSH1 0x40 MLOAD SWAP1 DUP2 MSTORE RETURN JUMPDEST CALLVALUE PUSH2 0x314 JUMPI PUSH1 0x20 CALLDATASIZE PUSH1 0x3 NOT ADD SLT PUSH2 0x314 JUMPI PUSH2 0x2BC0 PUSH2 0x3D25 JUMP JUMPDEST PUSH1 0x4 CALLDATALOAD PUSH1 0x12 SSTORE STOP JUMPDEST CALLVALUE PUSH2 0x314 JUMPI PUSH1 0x40 CALLDATASIZE PUSH1 0x3 NOT ADD SLT PUSH2 0x314 JUMPI PUSH1 0x60 PUSH1 0x40 PUSH2 0x2BE5 PUSH2 0x2C6F JUMP JUMPDEST PUSH1 0x4 CALLDATALOAD PUSH1 0x0 MSTORE PUSH1 0xC PUSH1 0x20 MSTORE DUP2 PUSH1 0x0 KECCAK256 PUSH2 0xFFFF PUSH1 0x0 SWAP3 AND DUP3 MSTORE PUSH1 0x20 MSTORE KECCAK256 DUP1 SLOAD SWAP1 PUSH1 0xFF PUSH1 0x2 PUSH1 0x1 DUP4 ADD SLOAD SWAP3 ADD SLOAD AND SWAP1 PUSH1 0x40 MLOAD SWAP3 DUP4 MSTORE PUSH1 0x20 DUP4 ADD MSTORE ISZERO ISZERO PUSH1 0x40 DUP3 ADD MSTORE RETURN JUMPDEST CALLVALUE PUSH2 0x314 JUMPI PUSH1 0x20 CALLDATASIZE PUSH1 0x3 NOT ADD SLT PUSH2 0x314 JUMPI PUSH2 0x2C3F PUSH2 0x3D25 JUMP JUMPDEST PUSH2 0x2C6D PUSH1 0x4 CALLDATALOAD ADDRESS CALLER PUSH32 0x0 PUSH2 0x3D4E JUMP JUMPDEST STOP JUMPDEST PUSH1 0x24 CALLDATALOAD SWAP1 PUSH2 0xFFFF DUP3 AND DUP3 SUB PUSH2 0x314 JUMPI JUMP JUMPDEST PUSH1 0x60 SWAP1 PUSH1 0x3 NOT ADD SLT PUSH2 0x314 JUMPI PUSH1 0x4 CALLDATALOAD SWAP1 PUSH1 0x24 CALLDATALOAD PUSH2 0xFFFF DUP2 AND DUP2 SUB PUSH2 0x314 JUMPI SWAP1 PUSH1 0x44 CALLDATALOAD SWAP1 JUMP JUMPDEST PUSH1 0x24 CALLDATALOAD SWAP1 PUSH1 0x1 PUSH1 0x1 PUSH1 0xA0 SHL SUB DUP3 AND DUP3 SUB PUSH2 0x314 JUMPI JUMP JUMPDEST PUSH1 0x4 CALLDATALOAD SWAP1 PUSH1 0x1 PUSH1 0x1 PUSH1 0xA0 SHL SUB DUP3 AND DUP3 SUB PUSH2 0x314 JUMPI JUMP JUMPDEST SWAP1 PUSH1 0x2 DUP2 LT ISZERO PUSH2 0x50D JUMPI PUSH1 0x0 MSTORE PUSH1 0x20 MSTORE PUSH1 0x40 PUSH1 0x0 KECCAK256 SWAP1 JUMP JUMPDEST SWAP1 PUSH1 0x1 DUP3 DUP2 SHR SWAP3 AND DUP1 ISZERO PUSH2 0x2D19 JUMPI JUMPDEST PUSH1 0x20 DUP4 LT EQ PUSH2 0x2D03 JUMPI JUMP JUMPDEST PUSH4 0x4E487B71 PUSH1 0xE0 SHL PUSH1 0x0 MSTORE PUSH1 0x22 PUSH1 0x4 MSTORE PUSH1 0x24 PUSH1 0x0 REVERT JUMPDEST SWAP2 PUSH1 0x7F AND SWAP2 PUSH2 0x2CF8 JUMP JUMPDEST PUSH1 0x40 DUP2 ADD SWAP1 DUP2 LT PUSH1 0x1 PUSH1 0x1 PUSH1 0x40 SHL SUB DUP3 GT OR PUSH2 0xB54 JUMPI PUSH1 0x40 MSTORE JUMP JUMPDEST SWAP1 PUSH1 0x1F DUP1 NOT SWAP2 ADD AND DUP2 ADD SWAP1 DUP2 LT PUSH1 0x1 PUSH1 0x1 PUSH1 0x40 SHL SUB DUP3 GT OR PUSH2 0xB54 JUMPI PUSH1 0x40 MSTORE JUMP JUMPDEST SWAP1 PUSH1 0x40 MLOAD SWAP2 DUP3 PUSH1 0x0 DUP3 SLOAD SWAP3 PUSH2 0x2D73 DUP5 PUSH2 0x2CE9 JUMP JUMPDEST DUP1 DUP5 MSTORE SWAP4 PUSH1 0x1 DUP2 AND SWAP1 DUP2 ISZERO PUSH2 0x2DE1 JUMPI POP PUSH1 0x1 EQ PUSH2 0x2D9A JUMPI JUMPDEST POP PUSH2 0x2D98 SWAP3 POP SUB DUP4 PUSH2 0x2D3E JUMP JUMPDEST JUMP JUMPDEST SWAP1 POP PUSH1 0x0 SWAP3 SWAP2 SWAP3 MSTORE PUSH1 0x20 PUSH1 0x0 KECCAK256 SWAP1 PUSH1 0x0 SWAP2 JUMPDEST DUP2 DUP4 LT PUSH2 0x2DC5 JUMPI POP POP SWAP1 PUSH1 0x20 PUSH2 0x2D98 SWAP3 DUP3 ADD ADD CODESIZE PUSH2 0x2D8B JUMP JUMPDEST PUSH1 0x20 SWAP2 SWAP4 POP DUP1 PUSH1 0x1 SWAP2 SLOAD DUP4 DUP6 DUP10 ADD ADD MSTORE ADD SWAP2 ADD SWAP1 SWAP2 DUP5 SWAP3 PUSH2 0x2DAC JUMP JUMPDEST SWAP1 POP PUSH1 0x20 SWAP3 POP PUSH2 0x2D98 SWAP5 SWAP2 POP PUSH1 0xFF NOT AND DUP3 DUP5 ADD MSTORE ISZERO ISZERO PUSH1 0x5 SHL DUP3 ADD ADD CODESIZE PUSH2 0x2D8B JUMP JUMPDEST SWAP2 SWAP1 DUP3 MLOAD SWAP3 DUP4 DUP3 MSTORE PUSH1 0x0 JUMPDEST DUP5 DUP2 LT PUSH2 0x2E2F JUMPI POP POP DUP3 PUSH1 0x0 PUSH1 0x20 DUP1 SWAP5 SWAP6 DUP5 ADD ADD MSTORE PUSH1 0x1F DUP1 NOT SWAP2 ADD AND ADD ADD SWAP1 JUMP JUMPDEST DUP1 PUSH1 0x20 DUP1 SWAP3 DUP5 ADD ADD MLOAD DUP3 DUP3 DUP7 ADD ADD MSTORE ADD PUSH2 0x2E0E JUMP JUMPDEST SWAP1 PUSH1 0x2 DUP3 LT ISZERO PUSH2 0x50D JUMPI MSTORE JUMP JUMPDEST SWAP2 DUP2 PUSH1 0x1F DUP5 ADD SLT ISZERO PUSH2 0x314 JUMPI DUP3 CALLDATALOAD SWAP2 PUSH1 0x1 PUSH1 0x1 PUSH1 0x40 SHL SUB DUP4 GT PUSH2 0x314 JUMPI PUSH1 0x20 DUP4 DUP2 DUP7 ADD SWAP6 ADD ADD GT PUSH2 0x314 JUMPI JUMP JUMPDEST SWAP2 DUP2 PUSH1 0x1F DUP5 ADD SLT ISZERO PUSH2 0x314 JUMPI DUP3 CALLDATALOAD SWAP2 PUSH1 0x1 PUSH1 0x1 PUSH1 0x40 SHL SUB DUP4 GT PUSH2 0x314 JUMPI PUSH1 0x20 DUP1 DUP6 ADD SWAP5 DUP5 PUSH1 0x5 SHL ADD ADD GT PUSH2 0x314 JUMPI JUMP JUMPDEST SWAP1 PUSH1 0x20 DUP1 DUP4 MLOAD SWAP3 DUP4 DUP2 MSTORE ADD SWAP3 ADD SWAP1 PUSH1 0x0 JUMPDEST DUP2 DUP2 LT PUSH2 0x2ECC JUMPI POP POP POP SWAP1 JUMP JUMPDEST DUP3 MLOAD PUSH1 0x1 PUSH1 0x1 PUSH1 0xA0 SHL SUB AND DUP5 MSTORE PUSH1 0x20 SWAP4 DUP5 ADD SWAP4 SWAP1 SWAP3 ADD SWAP2 PUSH1 0x1 ADD PUSH2 0x2EBF JUMP JUMPDEST SWAP1 PUSH1 0x20 DUP1 DUP4 MLOAD SWAP3 DUP4 DUP2 MSTORE ADD SWAP3 ADD SWAP1 PUSH1 0x0 JUMPDEST DUP2 DUP2 LT PUSH2 0x2F09 JUMPI POP POP POP SWAP1 JUMP JUMPDEST DUP3 MLOAD DUP5 MSTORE PUSH1 0x20 SWAP4 DUP5 ADD SWAP4 SWAP1 SWAP3 ADD SWAP2 PUSH1 0x1 ADD PUSH2 0x2EFC JUMP JUMPDEST SWAP1 PUSH1 0x20 DUP1 DUP4 MLOAD SWAP3 DUP4 DUP2 MSTORE ADD SWAP3 ADD SWAP1 PUSH1 0x0 JUMPDEST DUP2 DUP2 LT PUSH2 0x2F3D JUMPI POP POP POP SWAP1 JUMP JUMPDEST DUP3 MLOAD PUSH2 0xFFFF AND DUP5 MSTORE PUSH1 0x20 SWAP4 DUP5 ADD SWAP4 SWAP1 SWAP3 ADD SWAP2 PUSH1 0x1 ADD PUSH2 0x2F30 JUMP JUMPDEST SWAP2 SWAP1 DUP3 SUB SWAP2 DUP3 GT PUSH2 0xA74 JUMPI JUMP JUMPDEST ISZERO PUSH2 0x2F6B JUMPI JUMP JUMPDEST PUSH1 0x40 MLOAD PUSH3 0x461BCD PUSH1 0xE5 SHL DUP2 MSTORE PUSH1 0x20 PUSH1 0x4 DUP3 ADD MSTORE PUSH1 0xA PUSH1 0x24 DUP3 ADD MSTORE PUSH10 0x4E6F7420616374697665 PUSH1 0xB0 SHL PUSH1 0x44 DUP3 ADD MSTORE PUSH1 0x64 SWAP1 REVERT JUMPDEST ISZERO PUSH2 0x2FA4 JUMPI JUMP JUMPDEST PUSH1 0x40 MLOAD PUSH3 0x461BCD PUSH1 0xE5 SHL DUP2 MSTORE PUSH1 0x20 PUSH1 0x4 DUP3 ADD MSTORE PUSH1 0xF PUSH1 0x24 DUP3 ADD MSTORE PUSH15 0x2737BA1030903B30B634B230BA37B9 PUSH1 0x89 SHL PUSH1 0x44 DUP3 ADD MSTORE PUSH1 0x64 SWAP1 REVERT JUMPDEST SWAP2 SWAP1 DUP3 ADD DUP1 SWAP3 GT PUSH2 0xA74 JUMPI JUMP JUMPDEST DUP2 DUP2 MUL SWAP3 SWAP2 DUP2 ISZERO SWAP2 DUP5 DIV EQ OR ISZERO PUSH2 0xA74 JUMPI JUMP JUMPDEST DUP2 ISZERO PUSH2 0x3005 JUMPI DIV SWAP1 JUMP JUMPDEST PUSH4 0x4E487B71 PUSH1 0xE0 SHL PUSH1 0x0 MSTORE PUSH1 0x12 PUSH1 0x4 MSTORE PUSH1 0x24 PUSH1 0x0 REVERT JUMPDEST SWAP1 DUP1 PUSH1 0x20 SWAP4 SWAP3 DUP2 DUP5 MSTORE DUP5 DUP5 ADD CALLDATACOPY PUSH1 0x0 DUP3 DUP3 ADD DUP5 ADD MSTORE PUSH1 0x1F ADD PUSH1 0x1F NOT AND ADD ADD SWAP1 JUMP JUMPDEST ISZERO PUSH2 0x3043 JUMPI JUMP JUMPDEST PUSH1 0x40 MLOAD PUSH3 0x461BCD PUSH1 0xE5 SHL DUP2 MSTORE PUSH1 0x20 PUSH1 0x4 DUP3 ADD MSTORE PUSH1 0xE PUSH1 0x24 DUP3 ADD MSTORE PUSH14 0x139BDD081C9959DA5CDD195C9959 PUSH1 0x92 SHL PUSH1 0x44 DUP3 ADD MSTORE PUSH1 0x64 SWAP1 REVERT JUMPDEST ISZERO PUSH2 0x3080 JUMPI JUMP JUMPDEST PUSH1 0x40 MLOAD PUSH3 0x461BCD PUSH1 0xE5 SHL DUP2 MSTORE PUSH1 0x20 PUSH1 0x4 DUP3 ADD MSTORE PUSH1 0x11 PUSH1 0x24 DUP3 ADD MSTORE PUSH17 0x5375626E6574206E6F7420616374697665 PUSH1 0x78 SHL PUSH1 0x44 DUP3 ADD MSTORE PUSH1 0x64 SWAP1 REVERT JUMPDEST PUSH1 0x0 NOT DUP2 EQ PUSH2 0xA74 JUMPI PUSH1 0x1 ADD SWAP1 JUMP JUMPDEST ISZERO PUSH2 0x30CF JUMPI JUMP JUMPDEST PUSH1 0x40 MLOAD PUSH3 0x461BCD PUSH1 0xE5 SHL DUP2 MSTORE PUSH1 0x20 PUSH1 0x4 DUP3 ADD MSTORE PUSH1 0xF PUSH1 0x24 DUP3 ADD MSTORE PUSH15 0x98CADCCEE8D040DAD2E6DAC2E8C6D PUSH1 0x8B SHL PUSH1 0x44 DUP3 ADD MSTORE PUSH1 0x64 SWAP1 REVERT JUMPDEST ISZERO PUSH2 0x310D JUMPI JUMP JUMPDEST PUSH1 0x40 MLOAD PUSH3 0x461BCD PUSH1 0xE5 SHL DUP2 MSTORE PUSH1 0x20 PUSH1 0x4 DUP3 ADD MSTORE PUSH1 0xD PUSH1 0x24 DUP3 ADD MSTORE PUSH13 0x456D7074792077656967687473 PUSH1 0x98 SHL PUSH1 0x44 DUP3 ADD MSTORE PUSH1 0x64 SWAP1 REVERT JUMPDEST SWAP2 SWAP1 DUP2 LT ISZERO PUSH2 0x3152 JUMPI PUSH1 0x5 SHL ADD SWAP1 JUMP JUMPDEST PUSH4 0x4E487B71 PUSH1 0xE0 SHL PUSH1 0x0 MSTORE PUSH1 0x32 PUSH1 0x4 MSTORE PUSH1 0x24 PUSH1 0x0 REVERT JUMPDEST CALLDATALOAD PUSH2 0xFFFF DUP2 AND DUP2 SUB PUSH2 0x314 JUMPI SWAP1 JUMP JUMPDEST ISZERO PUSH2 0x317E JUMPI JUMP JUMPDEST PUSH1 0x40 MLOAD PUSH3 0x461BCD PUSH1 0xE5 SHL DUP2 MSTORE PUSH1 0x20 PUSH1 0x4 DUP3 ADD MSTORE PUSH1 0xB PUSH1 0x24 DUP3 ADD MSTORE PUSH11 0x125B9D985B1A5908155251 PUSH1 0xAA SHL PUSH1 0x44 DUP3 ADD MSTORE PUSH1 0x64 SWAP1 REVERT JUMPDEST ISZERO PUSH2 0x31B8 JUMPI JUMP JUMPDEST PUSH1 0x40 MLOAD PUSH3 0x461BCD PUSH1 0xE5 SHL DUP2 MSTORE PUSH1 0x20 PUSH1 0x4 DUP3 ADD MSTORE PUSH1 0x11 PUSH1 0x24 DUP3 ADD MSTORE PUSH17 0x546172676574206E6F7420616374697665 PUSH1 0x78 SHL PUSH1 0x44 DUP3 ADD MSTORE PUSH1 0x64 SWAP1 REVERT JUMPDEST DUP1 SLOAD SWAP1 PUSH1 0x0 DUP2 SSTORE DUP2 PUSH2 0x3201 JUMPI POP POP JUMP JUMPDEST PUSH1 0x0 MSTORE PUSH1 0x20 PUSH1 0x0 KECCAK256 SWAP1 DUP2 ADD SWAP1 JUMPDEST DUP2 DUP2 LT PUSH2 0x3219 JUMPI POP POP JUMP JUMPDEST PUSH1 0x0 DUP2 SSTORE PUSH1 0x1 ADD PUSH2 0x320E JUMP JUMPDEST DUP1 SLOAD DUP3 LT ISZERO PUSH2 0x3152 JUMPI PUSH1 0x0 MSTORE PUSH1 0x20 PUSH1 0x0 KECCAK256 ADD SWAP1 PUSH1 0x0 SWAP1 JUMP JUMPDEST DUP1 SLOAD PUSH9 0x10000000000000000 DUP2 LT ISZERO PUSH2 0xB54 JUMPI PUSH2 0x325F SWAP2 PUSH1 0x1 DUP3 ADD DUP2 SSTORE PUSH2 0x3225 JUMP JUMPDEST SWAP2 SWAP1 SWAP2 PUSH2 0x3292 JUMPI DUP1 MLOAD DUP3 SLOAD PUSH1 0x20 SWAP1 SWAP3 ADD MLOAD PUSH4 0xFFFFFFFF NOT SWAP1 SWAP3 AND PUSH2 0xFFFF SWAP2 SWAP1 SWAP2 AND OR PUSH1 0x10 SWAP2 SWAP1 SWAP2 SHL PUSH4 0xFFFF0000 AND OR SWAP1 SSTORE JUMP JUMPDEST PUSH4 0x4E487B71 PUSH1 0xE0 SHL PUSH1 0x0 MSTORE PUSH1 0x0 PUSH1 0x4 MSTORE PUSH1 0x24 PUSH1 0x0 REVERT JUMPDEST SWAP1 PUSH1 0x0 SWAP1 JUMPDEST DUP1 DUP3 LT PUSH2 0x32BA JUMPI POP POP POP SWAP1 JUMP JUMPDEST SWAP1 SWAP2 SWAP3 DUP4 CALLDATALOAD SWAP1 PUSH2 0xFFFF DUP3 AND DUP3 SUB PUSH2 0x314 JUMPI PUSH1 0x20 DUP1 SWAP2 PUSH2 0xFFFF PUSH1 0x1 SWAP5 AND DUP2 MSTORE ADD SWAP5 ADD SWAP3 ADD SWAP1 PUSH2 0x32AD JUMP JUMPDEST ISZERO PUSH2 0x32EA JUMPI JUMP JUMPDEST PUSH1 0x40 MLOAD PUSH3 0x461BCD PUSH1 0xE5 SHL DUP2 MSTORE PUSH1 0x20 PUSH1 0x4 DUP3 ADD MSTORE PUSH1 0xE PUSH1 0x24 DUP3 ADD MSTORE PUSH14 0x139BDD08185D5D1A1BDC9A5E9959 PUSH1 0x92 SHL PUSH1 0x44 DUP3 ADD MSTORE PUSH1 0x64 SWAP1 REVERT JUMPDEST PUSH1 0x1 PUSH1 0x1 PUSH1 0x40 SHL SUB DUP2 GT PUSH2 0xB54 JUMPI PUSH1 0x5 SHL PUSH1 0x20 ADD SWAP1 JUMP JUMPDEST SWAP1 PUSH2 0x3341 DUP3 PUSH2 0x3320 JUMP JUMPDEST PUSH2 0x334E PUSH1 0x40 MLOAD SWAP2 DUP3 PUSH2 0x2D3E JUMP JUMPDEST DUP3 DUP2 MSTORE DUP1 SWAP3 PUSH2 0x335F PUSH1 0x1F NOT SWAP2 PUSH2 0x3320 JUMP JUMPDEST ADD SWAP1 PUSH1 0x20 CALLDATASIZE SWAP2 ADD CALLDATACOPY JUMP JUMPDEST PUSH2 0xFFFF AND PUSH2 0xFFFF DUP2 EQ PUSH2 0xA74 JUMPI PUSH1 0x1 ADD SWAP1 JUMP JUMPDEST DUP1 MLOAD DUP3 LT ISZERO PUSH2 0x3152 JUMPI PUSH1 0x20 SWAP2 PUSH1 0x5 SHL ADD ADD SWAP1 JUMP JUMPDEST SWAP1 DUP2 PUSH1 0x0 MSTORE PUSH1 0x6 PUSH1 0x20 MSTORE PUSH1 0x40 PUSH1 0x0 KECCAK256 SWAP2 PUSH2 0x33B0 PUSH1 0xFF PUSH1 0x9 DUP6 ADD SLOAD AND PUSH2 0x3079 JUMP JUMPDEST PUSH1 0x5 DUP4 ADD SLOAD SWAP2 PUSH2 0x33C4 PUSH1 0x4 DUP6 ADD SLOAD DUP5 PUSH2 0x2FDB JUMP JUMPDEST NUMBER LT PUSH2 0x3CF4 JUMPI PUSH1 0x8 DUP5 ADD SLOAD SWAP3 DUP4 ISZERO PUSH2 0x3CC4 JUMPI PUSH1 0x5 SLOAD DUP1 ISZERO PUSH2 0x3C8A JUMPI PUSH2 0x3405 PUSH2 0x33FA PUSH2 0x33F2 PUSH2 0x340A SWAP5 NUMBER PUSH2 0x2F57 JUMP JUMPDEST PUSH1 0x4 SLOAD PUSH2 0x2FE8 JUMP JUMPDEST PUSH1 0x3 DUP9 ADD SLOAD SWAP1 PUSH2 0x2FE8 JUMP JUMPDEST PUSH2 0x2FFB JUMP JUMPDEST DUP1 ISZERO PUSH2 0x3C7D JUMPI PUSH2 0x3419 DUP5 PUSH2 0x3337 JUMP JUMPDEST SWAP2 PUSH1 0x0 SWAP2 PUSH2 0x3426 DUP7 PUSH2 0x3337 JUMP JUMPDEST SWAP7 DUP4 JUMPDEST DUP8 PUSH2 0xFFFF DUP3 AND LT ISZERO PUSH2 0x3616 JUMPI DUP7 PUSH1 0x0 MSTORE PUSH1 0x7 PUSH1 0x20 MSTORE PUSH1 0x40 DUP1 PUSH1 0x0 KECCAK256 PUSH1 0x0 SWAP1 PUSH2 0xFFFF DUP5 AND DUP3 MSTORE PUSH1 0x20 MSTORE KECCAK256 PUSH1 0xFF PUSH1 0x5 DUP3 ADD SLOAD PUSH1 0x10 SHR AND ISZERO DUP1 ISZERO PUSH2 0x35F8 JUMPI JUMPDEST PUSH2 0x35EE JUMPI PUSH2 0x347C PUSH1 0x2 DUP3 ADD SLOAD PUSH1 0x3 DUP4 ADD SLOAD SWAP1 PUSH2 0x2FDB JUMP JUMPDEST DUP1 ISZERO PUSH2 0x35E3 JUMPI PUSH2 0x348D PUSH1 0x7 SWAP2 PUSH2 0x3DF4 JUMP JUMPDEST SWAP2 ADD SLOAD PUSH2 0x1388 DUP2 MUL SWAP1 DUP1 DUP3 DIV PUSH2 0x1388 EQ SWAP1 ISZERO OR ISZERO PUSH2 0xA74 JUMPI PUSH8 0xDE0B6B3A7640000 SWAP1 DIV PUSH2 0x2710 ADD SWAP1 DUP2 PUSH2 0x2710 GT PUSH2 0xA74 JUMPI PUSH2 0x2710 SWAP2 PUSH2 0x34CB SWAP2 PUSH2 0x2FE8 JUMP JUMPDEST DIV DUP8 PUSH1 0x0 MSTORE PUSH1 0x8 PUSH1 0x20 MSTORE PUSH1 0x40 DUP1 PUSH1 0x0 KECCAK256 PUSH1 0x0 SWAP1 PUSH2 0xFFFF DUP6 AND DUP3 MSTORE PUSH1 0x20 MSTORE KECCAK256 SWAP1 PUSH1 0x0 SWAP2 DUP3 SWAP1 DUP1 SLOAD SWAP2 JUMPDEST DUP3 DUP2 LT PUSH2 0x35BC JUMPI POP DUP4 ISZERO PUSH2 0x35AF JUMPI SWAP3 SWAP2 SWAP1 PUSH1 0x0 SWAP4 DUP5 SWAP4 JUMPDEST DUP12 DUP4 DUP7 LT PUSH2 0x3536 JUMPI POP POP POP POP POP POP SWAP1 PUSH2 0x3531 SWAP2 PUSH2 0x352B PUSH2 0xFFFF DUP4 AND DUP13 PUSH2 0x337C JUMP JUMPDEST MSTORE PUSH2 0x3369 JUMP JUMPDEST PUSH2 0x3429 JUMP JUMPDEST PUSH2 0x357B PUSH2 0x359E DUP8 DUP1 SWAP10 SWAP15 PUSH2 0x35A4 SWAP5 PUSH2 0x3598 PUSH2 0xFFFF PUSH2 0x3572 DUP10 PUSH2 0x3405 DUP15 SWAP16 SWAP15 DUP14 SWAP15 SWAP16 PUSH2 0x3566 PUSH1 0x1 SWAP15 SWAP16 SWAP2 DUP8 SWAP3 PUSH2 0x3225 JUMP JUMPDEST POP SLOAD PUSH1 0x10 SHR AND SWAP1 PUSH2 0x2FE8 JUMP JUMPDEST SWAP7 DUP8 SWAP6 DUP13 PUSH2 0x3225 JUMP JUMPDEST POP SLOAD AND PUSH2 0x3592 DUP6 PUSH2 0x358C DUP4 DUP7 PUSH2 0x337C JUMP JUMPDEST MLOAD PUSH2 0x2FDB JUMP JUMPDEST SWAP3 PUSH2 0x337C JUMP JUMPDEST MSTORE PUSH2 0x2FDB JUMP JUMPDEST SWAP13 PUSH2 0x2FDB JUMP JUMPDEST SWAP6 ADD SWAP4 SWAP3 SWAP2 SWAP1 PUSH2 0x350A JUMP JUMPDEST POP POP POP POP PUSH2 0x3531 SWAP1 PUSH2 0x3369 JUMP JUMPDEST SWAP4 PUSH2 0x35DC PUSH1 0x1 SWAP2 PUSH2 0xFFFF PUSH2 0x35D0 DUP9 DUP7 PUSH2 0x3225 JUMP JUMPDEST POP SLOAD PUSH1 0x10 SHR AND SWAP1 PUSH2 0x2FDB JUMP JUMPDEST SWAP5 ADD PUSH2 0x34F3 JUMP JUMPDEST POP POP PUSH2 0x3531 SWAP1 PUSH2 0x3369 JUMP JUMPDEST POP PUSH2 0x3531 SWAP1 PUSH2 0x3369 JUMP JUMPDEST POP PUSH1 0xFF PUSH1 0x1 DUP3 ADD SLOAD PUSH1 0xA0 SHR AND PUSH1 0x2 DUP2 LT ISZERO PUSH2 0x50D JUMPI PUSH1 0x1 EQ ISZERO PUSH2 0x3465 JUMP JUMPDEST POP SWAP4 SWAP2 SWAP7 POP SWAP4 SWAP5 POP PUSH2 0x2008 DUP5 MUL DUP5 DUP2 DIV PUSH2 0x2008 SUB PUSH2 0xA74 JUMPI PUSH2 0x2710 SWAP1 DIV DUP3 ISZERO ISZERO SWAP1 DUP2 PUSH2 0x3B3C JUMPI JUMPDEST POP PUSH2 0x708 DUP6 MUL DUP6 DUP2 DIV PUSH2 0x708 SUB PUSH2 0xA74 JUMPI PUSH2 0x2710 SWAP1 DIV PUSH1 0x0 SWAP1 PUSH1 0x0 PUSH1 0x8 DUP8 ADD SLOAD SWAP1 JUMPDEST DUP2 PUSH2 0xFFFF DUP3 AND LT PUSH2 0x3A79 JUMPI POP POP DUP2 PUSH2 0x39A2 JUMPI JUMPDEST POP POP PUSH2 0x36B4 JUMPI JUMPDEST POP POP PUSH32 0x8B62A28F277757EB2F6F2F71863CBB10E1CE66D8BCFA14B5EBCBA332AB867331 SWAP2 PUSH1 0x40 SWAP2 PUSH1 0x5 NUMBER SWAP2 ADD SSTORE DUP2 MLOAD SWAP1 NUMBER DUP3 MSTORE PUSH1 0x20 DUP3 ADD MSTORE LOG2 JUMP JUMPDEST SWAP2 SWAP4 SWAP3 PUSH1 0x0 SWAP6 SWAP2 SWAP6 JUMPDEST PUSH1 0x8 DUP7 ADD SLOAD PUSH2 0xFFFF DUP3 AND LT ISZERO PUSH2 0x3992 JUMPI DUP5 PUSH1 0x0 MSTORE PUSH1 0x7 PUSH1 0x20 MSTORE PUSH1 0x40 DUP1 PUSH1 0x0 KECCAK256 PUSH1 0x0 SWAP1 PUSH2 0xFFFF DUP5 AND DUP3 MSTORE PUSH1 0x20 MSTORE KECCAK256 SWAP1 PUSH1 0xFF PUSH1 0x5 DUP4 ADD SLOAD PUSH1 0x10 SHR AND ISZERO DUP1 ISZERO PUSH2 0x3974 JUMPI JUMPDEST PUSH2 0x396A JUMPI DUP6 PUSH1 0x0 MSTORE PUSH1 0x8 PUSH1 0x20 MSTORE PUSH1 0x40 DUP1 PUSH1 0x0 KECCAK256 PUSH1 0x0 SWAP1 PUSH2 0xFFFF DUP5 AND DUP3 MSTORE PUSH1 0x20 MSTORE KECCAK256 DUP1 SLOAD ISZERO PUSH2 0x3901 JUMPI PUSH1 0x0 DUP1 SWAP2 DUP1 SLOAD SWAP3 JUMPDEST DUP4 DUP2 LT PUSH2 0x38E2 JUMPI POP PUSH1 0x0 SWAP2 DUP3 SWAP4 DUP4 SWAP3 JUMPDEST DUP2 DUP5 LT PUSH2 0x381D JUMPI POP PUSH1 0x0 SWAP3 POP POP DUP4 ISZERO SWAP1 POP PUSH2 0x3811 JUMPI POP PUSH8 0xDE0B6B3A7640000 DUP2 MUL SWAP1 DUP1 DUP3 DIV PUSH8 0xDE0B6B3A7640000 EQ SWAP1 ISZERO OR ISZERO PUSH2 0xA74 JUMPI PUSH1 0x7 SWAP2 PUSH2 0x3781 SWAP2 PUSH2 0x2FFB JUMP JUMPDEST SWAP3 JUMPDEST ADD DUP1 SLOAD SWAP3 PUSH1 0x46 DUP5 MUL SWAP4 DUP1 DUP6 DIV PUSH1 0x46 EQ SWAP1 ISZERO OR ISZERO PUSH2 0xA74 JUMPI PUSH1 0x1E DUP2 MUL SWAP1 DUP1 DUP3 DIV PUSH1 0x1E EQ SWAP1 ISZERO OR ISZERO PUSH2 0xA74 JUMPI PUSH2 0x3804 DUP9 SWAP3 PUSH1 0x64 PUSH2 0x37E2 PUSH32 0x41E0549644E0A71255B7ED60362E6A3B2A3D5B8B00A6A7CB1B205F14E2528D08 SWAP5 PUSH2 0x380C SWAP9 PUSH2 0x2FDB JUMP JUMPDEST DIV DUP1 SWAP2 SSTORE PUSH1 0x40 MLOAD SWAP2 DUP3 SWAP2 DUP7 DUP4 PUSH1 0x20 SWAP1 SWAP4 SWAP3 SWAP2 SWAP4 PUSH2 0xFFFF PUSH1 0x40 DUP3 ADD SWAP6 AND DUP2 MSTORE ADD MSTORE JUMP JUMPDEST SUB SWAP1 LOG2 PUSH2 0x3369 JUMP JUMPDEST PUSH2 0x36BD JUMP JUMPDEST SWAP1 POP PUSH1 0x7 SWAP2 POP SWAP3 PUSH2 0x3783 JUMP JUMPDEST SWAP1 SWAP2 SWAP3 SWAP5 SWAP4 PUSH2 0xFFFF PUSH2 0x382F DUP8 DUP5 PUSH2 0x3225 JUMP JUMPDEST POP SLOAD PUSH1 0x10 SHR AND PUSH8 0xDE0B6B3A7640000 DUP2 MUL SWAP1 DUP1 DUP3 DIV PUSH8 0xDE0B6B3A7640000 EQ SWAP1 ISZERO OR ISZERO PUSH2 0xA74 JUMPI DUP5 PUSH2 0x3860 SWAP2 PUSH2 0x2FFB JUMP JUMPDEST PUSH2 0x3879 PUSH2 0xFFFF PUSH2 0x3870 DUP10 DUP7 PUSH2 0x3225 JUMP JUMPDEST POP SLOAD AND DUP14 PUSH2 0x337C JUMP JUMPDEST MLOAD SWAP1 DUP2 PUSH8 0xDE0B6B3A7640000 DUP2 MUL DIV PUSH8 0xDE0B6B3A7640000 EQ DUP3 ISZERO OR ISZERO PUSH2 0xA74 JUMPI DUP16 SWAP3 DUP2 PUSH2 0x38B6 PUSH1 0x1 SWAP6 PUSH8 0xDE0B6B3A7640000 PUSH2 0x38CD SWAP7 MUL PUSH2 0x2FFB JUMP JUMPDEST DUP1 DUP3 GT PUSH2 0x38D7 JUMPI POP PUSH2 0x38C7 SWAP2 PUSH2 0x2FDB JUMP JUMPDEST SWAP7 PUSH2 0x2FDB JUMP JUMPDEST SWAP6 ADD SWAP3 SWAP2 SWAP1 PUSH2 0x373E JUMP JUMPDEST SWAP1 POP PUSH2 0x38C7 SWAP2 PUSH2 0x2FDB JUMP JUMPDEST SWAP1 SWAP3 SWAP2 PUSH2 0x38F8 PUSH1 0x1 SWAP2 PUSH2 0xFFFF PUSH2 0x35D0 DUP6 DUP9 PUSH2 0x3225 JUMP JUMPDEST SWAP3 SWAP4 SWAP2 ADD PUSH2 0x372E JUMP JUMPDEST POP SWAP1 PUSH1 0x7 ADD SWAP1 DUP2 SLOAD PUSH1 0x5F DUP2 MUL SWAP1 DUP1 DUP3 DIV PUSH1 0x5F EQ SWAP1 ISZERO OR ISZERO PUSH2 0xA74 JUMPI PUSH32 0x41E0549644E0A71255B7ED60362E6A3B2A3D5B8B00A6A7CB1B205F14E2528D08 PUSH2 0x3804 PUSH2 0x380C SWAP5 PUSH1 0x64 DUP11 SWAP5 DIV DUP1 SWAP2 SSTORE PUSH1 0x40 MLOAD SWAP2 DUP3 SWAP2 DUP7 DUP4 PUSH1 0x20 SWAP1 SWAP4 SWAP3 SWAP2 SWAP4 PUSH2 0xFFFF PUSH1 0x40 DUP3 ADD SWAP6 AND DUP2 MSTORE ADD MSTORE JUMP JUMPDEST PUSH2 0x380C SWAP2 POP PUSH2 0x3369 JUMP JUMPDEST POP PUSH1 0xFF PUSH1 0x1 DUP4 ADD SLOAD PUSH1 0xA0 SHR AND PUSH1 0x2 DUP2 LT ISZERO PUSH2 0x50D JUMPI PUSH1 0x1 EQ ISZERO PUSH2 0x36FE JUMP JUMPDEST POP SWAP1 SWAP5 POP SWAP2 SWAP3 SWAP1 POP DUP2 PUSH1 0x40 PUSH2 0x3679 JUMP JUMPDEST SWAP6 SWAP3 PUSH1 0x0 SWAP9 SWAP5 SWAP2 SWAP9 SWAP8 SWAP6 SWAP3 SWAP8 JUMPDEST PUSH1 0x8 DUP5 ADD SLOAD PUSH2 0xFFFF DUP3 AND LT ISZERO PUSH2 0x3A69 JUMPI DUP10 SWAP1 DUP8 PUSH1 0x0 MSTORE PUSH1 0x7 PUSH1 0x20 MSTORE PUSH1 0x40 DUP1 PUSH1 0x0 KECCAK256 PUSH1 0x0 SWAP1 PUSH2 0xFFFF DUP5 AND DUP3 MSTORE PUSH1 0x20 MSTORE KECCAK256 DUP10 PUSH1 0xFF PUSH1 0x5 DUP4 ADD SLOAD PUSH1 0x10 SHR AND SWAP4 DUP5 PUSH2 0x3A41 JUMPI JUMPDEST PUSH2 0x3A02 SWAP5 PUSH2 0x3A07 JUMPI JUMPDEST POP POP POP PUSH2 0x3369 JUMP JUMPDEST PUSH2 0x39AF JUMP JUMPDEST PUSH2 0x3A2D PUSH1 0x9 SWAP2 PUSH2 0x3405 PUSH2 0x3A37 SWAP5 PUSH2 0x3A27 PUSH1 0x2 DUP9 ADD SLOAD PUSH1 0x3 DUP10 ADD SLOAD SWAP1 PUSH2 0x2FDB JUMP JUMPDEST SWAP1 PUSH2 0x2FE8 JUMP JUMPDEST SWAP3 ADD SWAP2 DUP3 SLOAD PUSH2 0x2FDB JUMP JUMPDEST SWAP1 SSTORE CODESIZE DUP10 DUP13 PUSH2 0x39FA JUMP JUMPDEST POP POP PUSH1 0x1 DUP2 ADD SLOAD PUSH1 0xA0 SHR PUSH1 0xFF AND SWAP3 POP PUSH1 0x2 DUP4 LT ISZERO PUSH2 0x50D JUMPI DUP10 DUP13 PUSH1 0x1 PUSH2 0x3A02 SWAP6 EQ SWAP5 POP PUSH2 0x39F1 JUMP JUMPDEST POP SWAP3 SWAP6 POP SWAP3 SWAP7 POP SWAP3 SWAP5 CODESIZE DUP1 PUSH2 0x3672 JUMP JUMPDEST DUP10 PUSH1 0x0 MSTORE PUSH1 0x7 PUSH1 0x20 MSTORE PUSH1 0xFF PUSH1 0x5 PUSH1 0x40 DUP1 PUSH1 0x0 KECCAK256 PUSH1 0x0 SWAP1 PUSH2 0xFFFF DUP7 AND DUP3 MSTORE PUSH1 0x20 MSTORE KECCAK256 ADD SLOAD PUSH1 0x10 SHR AND DUP1 PUSH2 0x3B03 JUMPI JUMPDEST PUSH2 0x3AB9 JUMPI JUMPDEST PUSH2 0x3AB4 SWAP1 PUSH2 0x3369 JUMP JUMPDEST PUSH2 0x365F JUMP JUMPDEST PUSH1 0x0 DUP11 DUP2 MSTORE PUSH1 0x7 PUSH1 0x20 SWAP1 DUP2 MSTORE PUSH1 0x40 DUP1 DUP4 KECCAK256 PUSH2 0xFFFF DUP6 AND DUP5 MSTORE SWAP1 SWAP2 MSTORE SWAP1 KECCAK256 PUSH1 0x2 DUP2 ADD SLOAD PUSH1 0x3 SWAP1 SWAP2 ADD SLOAD SWAP2 SWAP5 PUSH2 0x3AB4 SWAP3 PUSH2 0x3AFB SWAP3 PUSH2 0x3AF5 SWAP2 SWAP1 PUSH2 0x2FDB JUMP JUMPDEST SWAP1 PUSH2 0x2FDB JUMP JUMPDEST SWAP4 SWAP1 POP PUSH2 0x3AAB JUMP JUMPDEST POP DUP10 PUSH1 0x0 MSTORE PUSH1 0x7 PUSH1 0x20 MSTORE PUSH1 0xFF PUSH1 0x1 PUSH1 0x40 DUP1 PUSH1 0x0 KECCAK256 PUSH1 0x0 SWAP1 PUSH2 0xFFFF DUP7 AND DUP3 MSTORE PUSH1 0x20 MSTORE KECCAK256 ADD SLOAD PUSH1 0xA0 SHR AND PUSH1 0x2 DUP2 LT ISZERO PUSH2 0x50D JUMPI PUSH1 0x1 EQ PUSH2 0x3AA6 JUMP JUMPDEST SWAP2 SWAP5 PUSH1 0x0 SWAP8 SWAP2 SWAP8 SWAP7 SWAP5 SWAP7 JUMPDEST PUSH1 0x8 DUP9 ADD SLOAD SWAP1 PUSH2 0xFFFF DUP2 AND SWAP2 DUP3 LT ISZERO PUSH2 0x3C6E JUMPI PUSH2 0x3B64 DUP3 DUP10 PUSH2 0x337C JUMP JUMPDEST MLOAD ISZERO ISZERO DUP1 PUSH2 0x3C45 JUMPI JUMPDEST PUSH2 0x3B81 JUMPI JUMPDEST PUSH2 0x3B7C SWAP2 POP PUSH2 0x3369 JUMP JUMPDEST PUSH2 0x3B47 JUMP JUMPDEST PUSH2 0x3B99 DUP7 PUSH2 0x3405 PUSH2 0x3B92 DUP6 DUP13 PUSH2 0x337C JUMP JUMPDEST MLOAD DUP9 PUSH2 0x2FE8 JUMP JUMPDEST DUP8 PUSH1 0x0 MSTORE PUSH1 0x7 PUSH1 0x20 MSTORE PUSH1 0x9 PUSH1 0x40 DUP1 PUSH1 0x0 KECCAK256 PUSH1 0x0 SWAP1 DUP7 DUP3 MSTORE PUSH1 0x20 MSTORE KECCAK256 ADD PUSH2 0x3BC0 DUP3 DUP3 SLOAD PUSH2 0x2FDB JUMP JUMPDEST SWAP1 SSTORE PUSH2 0x3BCC DUP4 DUP11 PUSH2 0x337C JUMP JUMPDEST MLOAD PUSH8 0xDE0B6B3A7640000 DUP2 MUL SWAP1 DUP1 DUP3 DIV PUSH8 0xDE0B6B3A7640000 EQ SWAP1 ISZERO OR ISZERO PUSH2 0xA74 JUMPI PUSH1 0x6 PUSH1 0x40 PUSH2 0x3B7C SWAP6 PUSH2 0x3C03 DUP12 PUSH2 0x3C3E SWAP6 PUSH2 0x2FFB JUMP JUMPDEST DUP13 PUSH1 0x0 MSTORE PUSH1 0x7 PUSH1 0x20 MSTORE PUSH1 0x8 DUP4 DUP1 PUSH1 0x0 KECCAK256 PUSH1 0x0 SWAP1 DUP6 DUP3 MSTORE PUSH1 0x20 MSTORE KECCAK256 ADD SSTORE DUP12 PUSH1 0x0 MSTORE PUSH1 0x7 PUSH1 0x20 MSTORE DUP2 PUSH1 0x0 KECCAK256 PUSH1 0x0 SWAP2 DUP3 MSTORE PUSH1 0x20 MSTORE KECCAK256 ADD SWAP2 DUP3 SLOAD PUSH2 0x2FDB JUMP JUMPDEST SWAP1 SSTORE PUSH2 0x3B72 JUMP JUMPDEST POP DUP7 PUSH1 0x0 MSTORE PUSH1 0x7 PUSH1 0x20 MSTORE PUSH1 0xFF PUSH1 0x5 PUSH1 0x40 DUP1 PUSH1 0x0 KECCAK256 PUSH1 0x0 SWAP1 DUP7 DUP3 MSTORE PUSH1 0x20 MSTORE KECCAK256 ADD SLOAD PUSH1 0x10 SHR AND PUSH2 0x3B6D JUMP JUMPDEST POP POP SWAP5 SWAP2 POP SWAP6 SWAP5 SWAP3 SWAP5 CODESIZE PUSH2 0x363D JUMP JUMPDEST POP SWAP3 SWAP2 POP POP PUSH1 0x5 NUMBER SWAP2 ADD SSTORE JUMP JUMPDEST PUSH1 0x40 MLOAD PUSH3 0x461BCD PUSH1 0xE5 SHL DUP2 MSTORE PUSH1 0x20 PUSH1 0x4 DUP3 ADD MSTORE PUSH1 0x12 PUSH1 0x24 DUP3 ADD MSTORE PUSH18 0x4E6F20656D697373696F6E20736861726573 PUSH1 0x70 SHL PUSH1 0x44 DUP3 ADD MSTORE PUSH1 0x64 SWAP1 REVERT JUMPDEST PUSH1 0x40 MLOAD PUSH3 0x461BCD PUSH1 0xE5 SHL DUP2 MSTORE PUSH1 0x20 PUSH1 0x4 DUP3 ADD MSTORE PUSH1 0x8 PUSH1 0x24 DUP3 ADD MSTORE PUSH8 0x4E6F206E6F646573 PUSH1 0xC0 SHL PUSH1 0x44 DUP3 ADD MSTORE PUSH1 0x64 SWAP1 REVERT JUMPDEST PUSH1 0x40 MLOAD PUSH3 0x461BCD PUSH1 0xE5 SHL DUP2 MSTORE PUSH1 0x20 PUSH1 0x4 DUP3 ADD MSTORE PUSH1 0x9 PUSH1 0x24 DUP3 ADD MSTORE PUSH9 0x546F6F206561726C79 PUSH1 0xB8 SHL PUSH1 0x44 DUP3 ADD MSTORE PUSH1 0x64 SWAP1 REVERT JUMPDEST PUSH1 0x0 SLOAD PUSH1 0x1 PUSH1 0x1 PUSH1 0xA0 SHL SUB AND CALLER SUB PUSH2 0x3D39 JUMPI JUMP JUMPDEST PUSH4 0x118CDAA7 PUSH1 0xE0 SHL PUSH1 0x0 MSTORE CALLER PUSH1 0x4 MSTORE PUSH1 0x24 PUSH1 0x0 REVERT JUMPDEST PUSH1 0x40 MLOAD PUSH4 0x23B872DD PUSH1 0xE0 SHL PUSH1 0x20 DUP3 ADD MSTORE PUSH1 0x1 PUSH1 0x1 PUSH1 0xA0 SHL SUB SWAP3 DUP4 AND PUSH1 0x24 DUP3 ADD MSTORE SWAP3 SWAP1 SWAP2 AND PUSH1 0x44 DUP4 ADD MSTORE PUSH1 0x64 DUP1 DUP4 ADD SWAP4 SWAP1 SWAP4 MSTORE SWAP2 DUP2 MSTORE PUSH2 0x2D98 SWAP2 PUSH2 0x3D92 PUSH1 0x84 DUP4 PUSH2 0x2D3E JUMP JUMPDEST PUSH2 0x3E3B JUMP JUMPDEST PUSH1 0x2 PUSH1 0x1 SLOAD EQ PUSH2 0x3DA8 JUMPI PUSH1 0x2 PUSH1 0x1 SSTORE JUMP JUMPDEST PUSH4 0x3EE5AEB5 PUSH1 0xE0 SHL PUSH1 0x0 MSTORE PUSH1 0x4 PUSH1 0x0 REVERT JUMPDEST PUSH1 0x40 MLOAD PUSH4 0xA9059CBB PUSH1 0xE0 SHL PUSH1 0x20 DUP3 ADD MSTORE PUSH1 0x1 PUSH1 0x1 PUSH1 0xA0 SHL SUB SWAP1 SWAP3 AND PUSH1 0x24 DUP4 ADD MSTORE PUSH1 0x44 DUP1 DUP4 ADD SWAP4 SWAP1 SWAP4 MSTORE SWAP2 DUP2 MSTORE PUSH2 0x2D98 SWAP2 PUSH2 0x3D92 PUSH1 0x64 DUP4 PUSH2 0x2D3E JUMP JUMPDEST DUP1 ISZERO PUSH2 0x3E35 JUMPI PUSH1 0x1 DUP2 ADD DUP1 DUP3 GT PUSH2 0xA74 JUMPI PUSH1 0x1 SHR DUP2 JUMPDEST DUP3 DUP3 LT PUSH2 0x3E16 JUMPI POP POP SWAP1 JUMP JUMPDEST SWAP1 SWAP2 POP PUSH2 0x3E2C DUP3 PUSH2 0x3E27 DUP2 DUP5 PUSH2 0x2FFB JUMP JUMPDEST PUSH2 0x2FDB JUMP JUMPDEST PUSH1 0x1 SHR SWAP1 PUSH2 0x3E0A JUMP JUMPDEST POP PUSH1 0x0 SWAP1 JUMP JUMPDEST SWAP1 PUSH1 0x0 PUSH1 0x20 SWAP2 DUP3 DUP2 MLOAD SWAP2 ADD DUP3 DUP6 GAS CALL ISZERO PUSH2 0x3E96 JUMPI PUSH1 0x0 MLOAD RETURNDATASIZE PUSH2 0x3E8D JUMPI POP PUSH1 0x1 PUSH1 0x1 PUSH1 0xA0 SHL SUB DUP2 AND EXTCODESIZE ISZERO JUMPDEST PUSH2 0x3E6C JUMPI POP JUMP JUMPDEST PUSH4 0x5274AFE7 PUSH1 0xE0 SHL PUSH1 0x0 SWAP1 DUP2 MSTORE PUSH1 0x1 PUSH1 0x1 PUSH1 0xA0 SHL SUB SWAP2 SWAP1 SWAP2 AND PUSH1 0x4 MSTORE PUSH1 0x24 SWAP1 REVERT JUMPDEST PUSH1 0x1 EQ ISZERO PUSH2 0x3E65 JUMP JUMPDEST PUSH1 0x40 MLOAD RETURNDATASIZE PUSH1 0x0 DUP3 RETURNDATACOPY RETURNDATASIZE SWAP1 REVERT INVALID LOG2 PUSH5 0x6970667358 0x22 SLT KECCAK256 0xAD BALANCE SWAP6 PUSH24 0xF79760EFC37488F08DF8D6C580F7C54D8A61E5989D3F740A SELFBALANCE SLT SLOAD PUSH10 0x64736F6C634300081C00 CALLER "},"methodIdentifiers":{"TRUST_MULTIPLIER_BASE()":"f6ec03f1","TRUST_MULTIPLIER_MAX()":"ed23dcba","autoSlashInactive(uint256,uint16)":"3a05eaa9","claimEmission(uint256,uint16)":"1caa9070","coldkeyNodeType(uint256,address,uint8)":"43219f03","commitMinDelay()":"cc2d54c4","commitRevealWindow()":"1aefa1b6","commitWeights(uint256,bytes32)":"dfbeffff","createSubnet(string,uint256,uint256,uint256)":"f39e9f4b","delegate(uint256,uint16,uint256)":"f46e1e1f","delegations(address,bytes32)":"b53c39b4","deregisterNode(uint256,uint16)":"9e1611bf","emissionPerBlock()":"c95986a2","fundEmissionPool(uint256)":"13476085","getDelegation(address,uint256,uint16)":"5071b891","getMetagraph(uint256)":"fa613958","getNode(uint256,uint16)":"d2d98509","getSubnet(uint256)":"58ca7504","getSubnetCount()":"3d5316dd","getTrust(uint256,uint16)":"c0843eeb","getUidByHotkey(uint256,address)":"7339e881","getWeights(uint256,uint16)":"fffc4bbf","hotkeyToUid(uint256,address)":"2b4b3753","isRegistered(uint256,address)":"b81f6e18","maxWeightAge()":"8272f0b8","nextNetuid()":"14511bf7","nodes(uint256,uint16)":"617078fb","owner()":"8da5cb5b","registerNode(uint256,address,uint8,uint256)":"75e6ee17","renounceOwnership()":"715018a6","revealWeights(uint256,uint16[],uint16[],bytes32)":"842443dc","runEpoch(uint256)":"e485c04c","setCommitMinDelay(uint256)":"1602ab29","setCommitRevealWindow(uint256)":"d19e2ce8","setEmissionPerBlock(uint256)":"710fe5cd","setMaxWeightAge(uint256)":"bddee43c","setSlashPercentage(uint256)":"393ebbf8","setSubnetRegistrationCost(uint256)":"46a655af","setWeights(uint256,uint16[],uint16[])":"83000f4f","setZkmlVerifier(address)":"a4ce91c6","slashNode(uint256,uint16,uint256,string)":"6b54b309","slashPercentage()":"bd58199a","subnetRegistrationCost()":"9e793787","subnets(uint256)":"475726f7","token()":"fc0c546a","totalEmissionShares()":"4a77ac98","transferOwnership(address)":"f2fde38b","undelegate(uint256,uint16,uint256)":"1ba60b70","updateSubnet(uint256,uint256,uint256,uint256,uint256)":"dec74f18","weightCommits(uint256,uint16)":"14d59888","zkmlVerifier()":"3c813394"}}}}}