{"src/MDTVesting.sol":{"MDTVesting":{"abi":[{"inputs":[{"internalType":"address","name":"_token","type":"address"}],"stateMutability":"nonpayable","type":"constructor"},{"inputs":[{"internalType":"address","name":"owner","type":"address"}],"name":"OwnableInvalidOwner","type":"error"},{"inputs":[{"internalType":"address","name":"account","type":"address"}],"name":"OwnableUnauthorizedAccount","type":"error"},{"inputs":[],"name":"ReentrancyGuardReentrantCall","type":"error"},{"inputs":[{"internalType":"address","name":"token","type":"address"}],"name":"SafeERC20FailedOperation","type":"error"},{"anonymous":false,"inputs":[{"indexed":true,"internalType":"address","name":"previousOwner","type":"address"},{"indexed":true,"internalType":"address","name":"newOwner","type":"address"}],"name":"OwnershipTransferred","type":"event"},{"anonymous":false,"inputs":[{"indexed":false,"internalType":"uint256","name":"timestamp","type":"uint256"}],"name":"TGESet","type":"event"},{"anonymous":false,"inputs":[{"indexed":true,"internalType":"address","name":"beneficiary","type":"address"},{"indexed":false,"internalType":"uint256","name":"amount","type":"uint256"}],"name":"TokensClaimed","type":"event"},{"anonymous":false,"inputs":[{"indexed":true,"internalType":"address","name":"beneficiary","type":"address"},{"indexed":false,"internalType":"uint256","name":"amount","type":"uint256"},{"indexed":false,"internalType":"enum MDTVesting.Category","name":"category","type":"uint8"}],"name":"VestingCreated","type":"event"},{"anonymous":false,"inputs":[{"indexed":true,"internalType":"address","name":"beneficiary","type":"address"},{"indexed":false,"internalType":"uint256","name":"index","type":"uint256"},{"indexed":false,"internalType":"uint256","name":"remaining","type":"uint256"}],"name":"VestingRevoked","type":"event"},{"inputs":[],"name":"claim","outputs":[],"stateMutability":"nonpayable","type":"function"},{"inputs":[{"internalType":"address","name":"beneficiary","type":"address"}],"name":"claimable","outputs":[{"internalType":"uint256","name":"","type":"uint256"}],"stateMutability":"view","type":"function"},{"inputs":[{"internalType":"address","name":"beneficiary","type":"address"},{"internalType":"uint256","name":"amount","type":"uint256"}],"name":"createIDOVesting","outputs":[],"stateMutability":"nonpayable","type":"function"},{"inputs":[{"internalType":"address","name":"beneficiary","type":"address"},{"internalType":"uint256","name":"amount","type":"uint256"}],"name":"createPrivateSaleVesting","outputs":[],"stateMutability":"nonpayable","type":"function"},{"inputs":[{"internalType":"address","name":"beneficiary","type":"address"},{"internalType":"uint256","name":"amount","type":"uint256"}],"name":"createTeamVesting","outputs":[],"stateMutability":"nonpayable","type":"function"},{"inputs":[],"name":"emergencyWithdraw","outputs":[],"stateMutability":"nonpayable","type":"function"},{"inputs":[{"internalType":"address","name":"beneficiary","type":"address"}],"name":"getVestingInfo","outputs":[{"internalType":"uint256","name":"scheduleCount","type":"uint256"},{"internalType":"uint256","name":"totalVested","type":"uint256"},{"internalType":"uint256","name":"totalClaimable","type":"uint256"},{"internalType":"uint256","name":"totalClaimed_","type":"uint256"}],"stateMutability":"view","type":"function"},{"inputs":[],"name":"owner","outputs":[{"internalType":"address","name":"","type":"address"}],"stateMutability":"view","type":"function"},{"inputs":[],"name":"renounceOwnership","outputs":[],"stateMutability":"nonpayable","type":"function"},{"inputs":[{"internalType":"address","name":"beneficiary","type":"address"},{"internalType":"uint256","name":"index","type":"uint256"}],"name":"revoke","outputs":[],"stateMutability":"nonpayable","type":"function"},{"inputs":[{"internalType":"uint256","name":"_timestamp","type":"uint256"}],"name":"setTGE","outputs":[],"stateMutability":"nonpayable","type":"function"},{"inputs":[],"name":"tgeTimestamp","outputs":[{"internalType":"uint256","name":"","type":"uint256"}],"stateMutability":"view","type":"function"},{"inputs":[],"name":"token","outputs":[{"internalType":"contract IERC20","name":"","type":"address"}],"stateMutability":"view","type":"function"},{"inputs":[],"name":"totalAllocated","outputs":[{"internalType":"uint256","name":"","type":"uint256"}],"stateMutability":"view","type":"function"},{"inputs":[],"name":"totalClaimed","outputs":[{"internalType":"uint256","name":"","type":"uint256"}],"stateMutability":"view","type":"function"},{"inputs":[{"internalType":"address","name":"newOwner","type":"address"}],"name":"transferOwnership","outputs":[],"stateMutability":"nonpayable","type":"function"},{"inputs":[{"internalType":"address","name":"beneficiary","type":"address"},{"internalType":"uint256","name":"index","type":"uint256"}],"name":"vestedAmount","outputs":[{"internalType":"uint256","name":"","type":"uint256"}],"stateMutability":"view","type":"function"},{"inputs":[{"internalType":"address","name":"","type":"address"},{"internalType":"uint256","name":"","type":"uint256"}],"name":"vestingSchedules","outputs":[{"internalType":"uint256","name":"totalAmount","type":"uint256"},{"internalType":"uint256","name":"claimedAmount","type":"uint256"},{"internalType":"uint256","name":"startTime","type":"uint256"},{"internalType":"uint256","name":"cliffDuration","type":"uint256"},{"internalType":"uint256","name":"vestingDuration","type":"uint256"},{"internalType":"uint8","name":"tgePercent","type":"uint8"},{"internalType":"bool","name":"revocable","type":"bool"},{"internalType":"bool","name":"revoked","type":"bool"}],"stateMutability":"view","type":"function"}],"evm":{"bytecode":{"linkReferences":{},"object":"60a03461013257601f61150a38819003918201601f19168301916001600160401b038311848410176101375780849260209460405283398101031261013257516001600160a01b0381169081900361013257331561011c5760008054336001600160a01b03198216811783556040519290916001600160a01b0316907f8be0079c531659141344cd1fd0a4f28419497f9722a3daafe3b4186f6b6457e09080a36001805581156100da57506080526040516113bc908161014e82396080518181816101c70152818161044f0152818161085c0152610eea0152f35b62461bcd60e51b815260206004820152601560248201527f496e76616c696420746f6b656e206164647265737300000000000000000000006044820152606490fd5b631e4fbdf760e01b600052600060045260246000fd5b600080fd5b634e487b7160e01b600052604160045260246000fdfe6080604052600436101561001257600080fd5b60003560e01c806317cf5391146110f2578063402914f51461105057806345626bd614610fa757806345f7f24914610f895780634e71d92d14610e21578063715018a614610dc857806388d9e6f414610bca5780638da5cb5b14610ba1578063a4317ef414610b83578063ce5b45c314610984578063d54ad2a114610966578063db2e21bc1461082e578063dbf403af14610519578063eac449d914610355578063f2fde38b146102cc578063fb897ce4146101f6578063fc0c546a146101b15763ff1a318d146100e257600080fd5b346101ac5760203660031901126101ac576004356100fe61135d565b60025461017557801561013c576020817f9f5b1d2626fe1a57b989b4566912279df2387b8a481a7297f0a11373c230073c92600255604051908152a1005b60405162461bcd60e51b81526020600482015260116024820152700496e76616c69642074696d657374616d7607c1b6044820152606490fd5b60405162461bcd60e51b815260206004820152600f60248201526e1511d148185b1c9958591e481cd95d608a1b6044820152606490fd5b600080fd5b346101ac5760003660031901126101ac576040517f00000000000000000000000000000000000000000000000000000000000000006001600160a01b03168152602090f35b346101ac5760203660031901126101ac5761020f611121565b6001600160a01b038116600081815260036020526040812054909290918391829190825b8581106102585750505092608093604051938452602084015260408301526060820152f35b82600052600360205261026f816040600020611137565b5060ff600582015460101c161561028a575b50600101610233565b936102c5906102bf8397996102b960016102af6102a882988a6111ac565b809661119f565b9901548094611169565b9061119f565b9861119f565b9490610281565b346101ac5760203660031901126101ac576102e5611121565b6102ed61135d565b6001600160a01b0316801561033f57600080546001600160a01b03198116831782556001600160a01b0316907f8be0079c531659141344cd1fd0a4f28419497f9722a3daafe3b4186f6b6457e09080a3005b631e4fbdf760e01b600052600060045260246000fd5b346101ac5760403660031901126101ac5761036e611121565b60243561037961135d565b6001600160a01b0382166000818152600360205260409020549092908210156104e4578260005260036020526103b3826040600020611137565b50916005830180549060ff8260081c16156104af5760ff8260101c16610478576201000061040f7febe4c59724de32494ac2dc26d066e582e9737a6abe9f796bfb8a43f9fde516f796610408866040986111ac565b9054611169565b9262ff0000191617905561042581600454611169565b6004558061043b575b82519182526020820152a2005b6000546104739082906001600160a01b03167f00000000000000000000000000000000000000000000000000000000000000006112cc565b61042e565b60405162461bcd60e51b815260206004820152600f60248201526e105b1c9958591e481c995d9bdad959608a1b6044820152606490fd5b60405162461bcd60e51b815260206004820152600d60248201526c4e6f74207265766f6361626c6560981b6044820152606490fd5b60405162461bcd60e51b815260206004820152600d60248201526c092dcecc2d8d2c840d2dcc8caf609b1b6044820152606490fd5b346101ac5760403660031901126101ac57610532611121565b60243561053d61135d565b6001600160a01b0390911690600082156107f35781156107b957600254801561078657838252600360205260408220805490835b8281106106b85750505083825260036020526040822060405161059381611277565b84815260208101908482526040810193845260608101858152608082019062ed4e00825260a08301956019875260c084019488865260e0850196898852805490600160401b8210156106a457906105ef91600182018155611137565b959095610690575185555160018501555160028401555160038301555160048201559251600590930180549151925162ffffff1990921660ff949094169390931791151560081b61ff00169190911790151560101b62ff0000161790557ff8b9db65a8f6306efa84d087b9e9b6d62134e17921af16f14150254acc216b439160409161067d8260045461119f565b60045582519182525060026020820152a2005b634e487b7160e01b8a5260048a905260248afd5b634e487b7160e01b8b52604160045260248bfd5b60ff60056106c68385611137565b50015460101c161580610770575b80610756575b8061073b575b6106ec57600101610571565b60405162461bcd60e51b815260206004820152602160248201527f4475706c69636174652076657374696e67207363686564756c652065786973746044820152607360f81b6064820152608490fd5b50601960ff600561074c8486611137565b50015416146106e0565b5062ed4e0060046107678385611137565b500154146106da565b50600361077d8284611137565b500154156106d4565b60405162461bcd60e51b815260206004820152600b60248201526a1511d1481b9bdd081cd95d60aa1b6044820152606490fd5b60405162461bcd60e51b81526020600482015260126024820152710416d6f756e74206d757374206265203e20360741b6044820152606490fd5b60405162461bcd60e51b8152602060048201526013602482015272496e76616c69642062656e656669636961727960681b6044820152606490fd5b346101ac5760003660031901126101ac5761084761135d565b6040516370a0823160e01b81523060048201527f00000000000000000000000000000000000000000000000000000000000000006020826024816001600160a01b0385165afa91821561095a57600092610926575b506004546005548082111561091c576108b491611169565b915b828111156108df576108dd926108cb91611169565b9060018060a01b0360005416906112cc565b005b60405162461bcd60e51b81526020600482015260156024820152744e6f20756e636f6d6d697474656420746f6b656e7360581b6044820152606490fd5b50506000916108b6565b9091506020813d602011610952575b81610942602093836112aa565b810103126101ac5751908261089c565b3d9150610935565b6040513d6000823e3d90fd5b346101ac5760003660031901126101ac576020600554604051908152f35b346101ac5760403660031901126101ac5761099d611121565b6024356109a861135d565b6001600160a01b0390911690600082156107f35781156107b957600254801561078657838252600360205260408220805490835b828110610b00575050508382526003602052604082206040516109fe81611277565b848152602081019084825260408101938452606081016301e1338081526080820190630784ce00825260a083019587875260c08401946001865260e0850196898852805490600160401b8210156106a45790610a5f91600182018155611137565b959095610690575185555160018501555160028401555160038301555160048201559251600590930180549151925162ffffff1990921660ff949094169390931791151560081b61ff00169190911790151560101b62ff0000161790557ff8b9db65a8f6306efa84d087b9e9b6d62134e17921af16f14150254acc216b4391604091610aed8260045461119f565b60045582519182525060006020820152a2005b60ff6005610b0e8385611137565b50015460101c161580610b68575b80610b4d575b80610b34575b6106ec576001016109dc565b5060ff6005610b438385611137565b5001541615610b28565b50630784ce006004610b5f8385611137565b50015414610b22565b506301e133806003610b7a8385611137565b50015414610b1c565b346101ac5760003660031901126101ac576020600254604051908152f35b346101ac5760003660031901126101ac576000546040516001600160a01b039091168152602090f35b346101ac5760403660031901126101ac57610be3611121565b602435610bee61135d565b6001600160a01b0390911690600082156107f35781156107b957600254801561078657838252600360205260408220805490835b828110610d4557505050838252600360205260408220604051610c4481611277565b848152602081019084825260408101938452606081016301e13380815260808201906303c26700825260a083019587875260c084019488865260e0850196898852805490600160401b8210156106a45790610ca491600182018155611137565b959095610690575185555160018501555160028401555160038301555160048201559251600590930180549151925162ffffff1990921660ff949094169390931791151560081b61ff00169190911790151560101b62ff0000161790557ff8b9db65a8f6306efa84d087b9e9b6d62134e17921af16f14150254acc216b4391604091610d328260045461119f565b60045582519182525060016020820152a2005b60ff6005610d538385611137565b50015460101c161580610dad575b80610d92575b80610d79575b6106ec57600101610c22565b5060ff6005610d888385611137565b5001541615610d6d565b506303c267006004610da48385611137565b50015414610d67565b506301e133806003610dbf8385611137565b50015414610d61565b346101ac5760003660031901126101ac57610de161135d565b600080546001600160a01b0319811682556001600160a01b03167f8be0079c531659141344cd1fd0a4f28419497f9722a3daafe3b4186f6b6457e08280a3005b346101ac5760003660031901126101ac57600260015414610f785760026001556000805b336000526003602052604060002054811015610ecd57336000526003602052610e72816040600020611137565b5060ff600582015460101c1615610e8d575b50600101610e45565b6001610e9983336111ac565b910190610ea7825482611169565b9182610eb5575b5050610e84565b559091600191610ec49161119f565b91908380610eae565b508015610f4057610ee08160055461119f565b600555610f0e81337f00000000000000000000000000000000000000000000000000000000000000006112cc565b6040519081527f896e034966eaaf1adc54acc0f257056febbd300c9e47182cf761982cf1f5e43060203392a260018055005b60405162461bcd60e51b815260206004820152601060248201526f4e6f7468696e6720746f20636c61696d60801b6044820152606490fd5b633ee5aeb560e01b60005260046000fd5b346101ac5760003660031901126101ac576020600454604051908152f35b346101ac5760403660031901126101ac57610fc0611121565b6001600160a01b03166000908152600360205260409020805460243591908210156101ac5761010091610ff291611137565b5060ff81549160018101549060028101546003820154906005600484015493015493604051968752602087015260408601526060850152608084015281811660a0840152818160081c16151560c084015260101c16151560e0820152f35b346101ac5760203660031901126101ac57611069611121565b6000906001600160a01b03811690825b8260005260036020526040600020548110156110e7578260005260036020526110a6816040600020611137565b5060ff600582015460101c16156110c1575b50600101611079565b81946102b96110e09260016110d78196886111ac565b91015490611169565b93906110b8565b602084604051908152f35b346101ac5760403660031901126101ac576020611119611110611121565b602435906111ac565b604051908152f35b600435906001600160a01b03821682036101ac57565b8054821015611153576000526006602060002091020190600090565b634e487b7160e01b600052603260045260246000fd5b9190820391821161117657565b634e487b7160e01b600052601160045260246000fd5b8181029291811591840414171561117657565b9190820180921161117657565b6001600160a01b031660009081526003602052604090206111cd9190611137565b50600581015460ff8160101c1661126f576002820154804210611267576111f49042611169565b90606461120660ff855493168361118c565b04916112128383611169565b9060038501549081811061125e5760049161122c91611169565b940154918215611256578285101561125657506112539361124c9161118c565b049061119f565b90565b935050505090565b50505050905090565b505050600090565b506001015490565b610100810190811067ffffffffffffffff82111761129457604052565b634e487b7160e01b600052604160045260246000fd5b90601f8019910116810190811067ffffffffffffffff82111761129457604052565b60405163a9059cbb60e01b60208281019182526001600160a01b039094166024830152604480830195909552938152909260009161130b6064826112aa565b519082855af11561095a576000513d61135457506001600160a01b0381163b155b6113335750565b635274afe760e01b60009081526001600160a01b0391909116600452602490fd5b6001141561132c565b6000546001600160a01b0316330361137157565b63118cdaa760e01b6000523360045260246000fdfea2646970667358221220f1d0a60bc052ab8e4a2ecafffa9374955432fcdb8ccb8b205df1007a2af17cec64736f6c634300081c0033","opcodes":"PUSH1 0xA0 CALLVALUE PUSH2 0x132 JUMPI PUSH1 0x1F PUSH2 0x150A CODESIZE DUP2 SWAP1 SUB SWAP2 DUP3 ADD PUSH1 0x1F NOT AND DUP4 ADD SWAP2 PUSH1 0x1 PUSH1 0x1 PUSH1 0x40 SHL SUB DUP4 GT DUP5 DUP5 LT OR PUSH2 0x137 JUMPI DUP1 DUP5 SWAP3 PUSH1 0x20 SWAP5 PUSH1 0x40 MSTORE DUP4 CODECOPY DUP2 ADD SUB SLT PUSH2 0x132 JUMPI MLOAD PUSH1 0x1 PUSH1 0x1 PUSH1 0xA0 SHL SUB DUP2 AND SWAP1 DUP2 SWAP1 SUB PUSH2 0x132 JUMPI CALLER ISZERO PUSH2 0x11C JUMPI PUSH1 0x0 DUP1 SLOAD CALLER PUSH1 0x1 PUSH1 0x1 PUSH1 0xA0 SHL SUB NOT DUP3 AND DUP2 OR DUP4 SSTORE PUSH1 0x40 MLOAD SWAP3 SWAP1 SWAP2 PUSH1 0x1 PUSH1 0x1 PUSH1 0xA0 SHL SUB AND SWAP1 PUSH32 0x8BE0079C531659141344CD1FD0A4F28419497F9722A3DAAFE3B4186F6B6457E0 SWAP1 DUP1 LOG3 PUSH1 0x1 DUP1 SSTORE DUP2 ISZERO PUSH2 0xDA JUMPI POP PUSH1 0x80 MSTORE PUSH1 0x40 MLOAD PUSH2 0x13BC SWAP1 DUP2 PUSH2 0x14E DUP3 CODECOPY PUSH1 0x80 MLOAD DUP2 DUP2 DUP2 PUSH2 0x1C7 ADD MSTORE DUP2 DUP2 PUSH2 0x44F ADD MSTORE DUP2 DUP2 PUSH2 0x85C ADD MSTORE PUSH2 0xEEA ADD MSTORE RETURN JUMPDEST PUSH3 0x461BCD PUSH1 0xE5 SHL DUP2 MSTORE PUSH1 0x20 PUSH1 0x4 DUP3 ADD MSTORE PUSH1 0x15 PUSH1 0x24 DUP3 ADD MSTORE PUSH32 0x496E76616C696420746F6B656E20616464726573730000000000000000000000 PUSH1 0x44 DUP3 ADD MSTORE PUSH1 0x64 SWAP1 REVERT JUMPDEST PUSH4 0x1E4FBDF7 PUSH1 0xE0 SHL PUSH1 0x0 MSTORE PUSH1 0x0 PUSH1 0x4 MSTORE PUSH1 0x24 PUSH1 0x0 REVERT JUMPDEST PUSH1 0x0 DUP1 REVERT JUMPDEST PUSH4 0x4E487B71 PUSH1 0xE0 SHL PUSH1 0x0 MSTORE PUSH1 0x41 PUSH1 0x4 MSTORE PUSH1 0x24 PUSH1 0x0 REVERT INVALID PUSH1 0x80 PUSH1 0x40 MSTORE PUSH1 0x4 CALLDATASIZE LT ISZERO PUSH2 0x12 JUMPI PUSH1 0x0 DUP1 REVERT JUMPDEST PUSH1 0x0 CALLDATALOAD PUSH1 0xE0 SHR DUP1 PUSH4 0x17CF5391 EQ PUSH2 0x10F2 JUMPI DUP1 PUSH4 0x402914F5 EQ PUSH2 0x1050 JUMPI DUP1 PUSH4 0x45626BD6 EQ PUSH2 0xFA7 JUMPI DUP1 PUSH4 0x45F7F249 EQ PUSH2 0xF89 JUMPI DUP1 PUSH4 0x4E71D92D EQ PUSH2 0xE21 JUMPI DUP1 PUSH4 0x715018A6 EQ PUSH2 0xDC8 JUMPI DUP1 PUSH4 0x88D9E6F4 EQ PUSH2 0xBCA JUMPI DUP1 PUSH4 0x8DA5CB5B EQ PUSH2 0xBA1 JUMPI DUP1 PUSH4 0xA4317EF4 EQ PUSH2 0xB83 JUMPI DUP1 PUSH4 0xCE5B45C3 EQ PUSH2 0x984 JUMPI DUP1 PUSH4 0xD54AD2A1 EQ PUSH2 0x966 JUMPI DUP1 PUSH4 0xDB2E21BC EQ PUSH2 0x82E JUMPI DUP1 PUSH4 0xDBF403AF EQ PUSH2 0x519 JUMPI DUP1 PUSH4 0xEAC449D9 EQ PUSH2 0x355 JUMPI DUP1 PUSH4 0xF2FDE38B EQ PUSH2 0x2CC JUMPI DUP1 PUSH4 0xFB897CE4 EQ PUSH2 0x1F6 JUMPI DUP1 PUSH4 0xFC0C546A EQ PUSH2 0x1B1 JUMPI PUSH4 0xFF1A318D EQ PUSH2 0xE2 JUMPI PUSH1 0x0 DUP1 REVERT JUMPDEST CALLVALUE PUSH2 0x1AC JUMPI PUSH1 0x20 CALLDATASIZE PUSH1 0x3 NOT ADD SLT PUSH2 0x1AC JUMPI PUSH1 0x4 CALLDATALOAD PUSH2 0xFE PUSH2 0x135D JUMP JUMPDEST PUSH1 0x2 SLOAD PUSH2 0x175 JUMPI DUP1 ISZERO PUSH2 0x13C JUMPI PUSH1 0x20 DUP2 PUSH32 0x9F5B1D2626FE1A57B989B4566912279DF2387B8A481A7297F0A11373C230073C SWAP3 PUSH1 0x2 SSTORE PUSH1 0x40 MLOAD SWAP1 DUP2 MSTORE LOG1 STOP JUMPDEST PUSH1 0x40 MLOAD PUSH3 0x461BCD PUSH1 0xE5 SHL DUP2 MSTORE PUSH1 0x20 PUSH1 0x4 DUP3 ADD MSTORE PUSH1 0x11 PUSH1 0x24 DUP3 ADD MSTORE PUSH17 0x496E76616C69642074696D657374616D7 PUSH1 0x7C SHL PUSH1 0x44 DUP3 ADD MSTORE PUSH1 0x64 SWAP1 REVERT JUMPDEST PUSH1 0x40 MLOAD PUSH3 0x461BCD PUSH1 0xE5 SHL DUP2 MSTORE PUSH1 0x20 PUSH1 0x4 DUP3 ADD MSTORE PUSH1 0xF PUSH1 0x24 DUP3 ADD MSTORE PUSH15 0x1511D148185B1C9958591E481CD95D PUSH1 0x8A SHL PUSH1 0x44 DUP3 ADD MSTORE PUSH1 0x64 SWAP1 REVERT JUMPDEST PUSH1 0x0 DUP1 REVERT JUMPDEST CALLVALUE PUSH2 0x1AC JUMPI PUSH1 0x0 CALLDATASIZE PUSH1 0x3 NOT ADD SLT PUSH2 0x1AC JUMPI PUSH1 0x40 MLOAD PUSH32 0x0 PUSH1 0x1 PUSH1 0x1 PUSH1 0xA0 SHL SUB AND DUP2 MSTORE PUSH1 0x20 SWAP1 RETURN JUMPDEST CALLVALUE PUSH2 0x1AC JUMPI PUSH1 0x20 CALLDATASIZE PUSH1 0x3 NOT ADD SLT PUSH2 0x1AC JUMPI PUSH2 0x20F PUSH2 0x1121 JUMP JUMPDEST PUSH1 0x1 PUSH1 0x1 PUSH1 0xA0 SHL SUB DUP2 AND PUSH1 0x0 DUP2 DUP2 MSTORE PUSH1 0x3 PUSH1 0x20 MSTORE PUSH1 0x40 DUP2 KECCAK256 SLOAD SWAP1 SWAP3 SWAP1 SWAP2 DUP4 SWAP2 DUP3 SWAP2 SWAP1 DUP3 JUMPDEST DUP6 DUP2 LT PUSH2 0x258 JUMPI POP POP POP SWAP3 PUSH1 0x80 SWAP4 PUSH1 0x40 MLOAD SWAP4 DUP5 MSTORE PUSH1 0x20 DUP5 ADD MSTORE PUSH1 0x40 DUP4 ADD MSTORE PUSH1 0x60 DUP3 ADD MSTORE RETURN JUMPDEST DUP3 PUSH1 0x0 MSTORE PUSH1 0x3 PUSH1 0x20 MSTORE PUSH2 0x26F DUP2 PUSH1 0x40 PUSH1 0x0 KECCAK256 PUSH2 0x1137 JUMP JUMPDEST POP PUSH1 0xFF PUSH1 0x5 DUP3 ADD SLOAD PUSH1 0x10 SHR AND ISZERO PUSH2 0x28A JUMPI JUMPDEST POP PUSH1 0x1 ADD PUSH2 0x233 JUMP JUMPDEST SWAP4 PUSH2 0x2C5 SWAP1 PUSH2 0x2BF DUP4 SWAP8 SWAP10 PUSH2 0x2B9 PUSH1 0x1 PUSH2 0x2AF PUSH2 0x2A8 DUP3 SWAP9 DUP11 PUSH2 0x11AC JUMP JUMPDEST DUP1 SWAP7 PUSH2 0x119F JUMP JUMPDEST SWAP10 ADD SLOAD DUP1 SWAP5 PUSH2 0x1169 JUMP JUMPDEST SWAP1 PUSH2 0x119F JUMP JUMPDEST SWAP9 PUSH2 0x119F JUMP JUMPDEST SWAP5 SWAP1 PUSH2 0x281 JUMP JUMPDEST CALLVALUE PUSH2 0x1AC JUMPI PUSH1 0x20 CALLDATASIZE PUSH1 0x3 NOT ADD SLT PUSH2 0x1AC JUMPI PUSH2 0x2E5 PUSH2 0x1121 JUMP JUMPDEST PUSH2 0x2ED PUSH2 0x135D JUMP JUMPDEST PUSH1 0x1 PUSH1 0x1 PUSH1 0xA0 SHL SUB AND DUP1 ISZERO PUSH2 0x33F JUMPI PUSH1 0x0 DUP1 SLOAD PUSH1 0x1 PUSH1 0x1 PUSH1 0xA0 SHL SUB NOT DUP2 AND DUP4 OR DUP3 SSTORE PUSH1 0x1 PUSH1 0x1 PUSH1 0xA0 SHL SUB AND SWAP1 PUSH32 0x8BE0079C531659141344CD1FD0A4F28419497F9722A3DAAFE3B4186F6B6457E0 SWAP1 DUP1 LOG3 STOP JUMPDEST PUSH4 0x1E4FBDF7 PUSH1 0xE0 SHL PUSH1 0x0 MSTORE PUSH1 0x0 PUSH1 0x4 MSTORE PUSH1 0x24 PUSH1 0x0 REVERT JUMPDEST CALLVALUE PUSH2 0x1AC JUMPI PUSH1 0x40 CALLDATASIZE PUSH1 0x3 NOT ADD SLT PUSH2 0x1AC JUMPI PUSH2 0x36E PUSH2 0x1121 JUMP JUMPDEST PUSH1 0x24 CALLDATALOAD PUSH2 0x379 PUSH2 0x135D JUMP JUMPDEST PUSH1 0x1 PUSH1 0x1 PUSH1 0xA0 SHL SUB DUP3 AND PUSH1 0x0 DUP2 DUP2 MSTORE PUSH1 0x3 PUSH1 0x20 MSTORE PUSH1 0x40 SWAP1 KECCAK256 SLOAD SWAP1 SWAP3 SWAP1 DUP3 LT ISZERO PUSH2 0x4E4 JUMPI DUP3 PUSH1 0x0 MSTORE PUSH1 0x3 PUSH1 0x20 MSTORE PUSH2 0x3B3 DUP3 PUSH1 0x40 PUSH1 0x0 KECCAK256 PUSH2 0x1137 JUMP JUMPDEST POP SWAP2 PUSH1 0x5 DUP4 ADD DUP1 SLOAD SWAP1 PUSH1 0xFF DUP3 PUSH1 0x8 SHR AND ISZERO PUSH2 0x4AF JUMPI PUSH1 0xFF DUP3 PUSH1 0x10 SHR AND PUSH2 0x478 JUMPI PUSH3 0x10000 PUSH2 0x40F PUSH32 0xEBE4C59724DE32494AC2DC26D066E582E9737A6ABE9F796BFB8A43F9FDE516F7 SWAP7 PUSH2 0x408 DUP7 PUSH1 0x40 SWAP9 PUSH2 0x11AC JUMP JUMPDEST SWAP1 SLOAD PUSH2 0x1169 JUMP JUMPDEST SWAP3 PUSH3 0xFF0000 NOT AND OR SWAP1 SSTORE PUSH2 0x425 DUP2 PUSH1 0x4 SLOAD PUSH2 0x1169 JUMP JUMPDEST PUSH1 0x4 SSTORE DUP1 PUSH2 0x43B JUMPI JUMPDEST DUP3 MLOAD SWAP2 DUP3 MSTORE PUSH1 0x20 DUP3 ADD MSTORE LOG2 STOP JUMPDEST PUSH1 0x0 SLOAD PUSH2 0x473 SWAP1 DUP3 SWAP1 PUSH1 0x1 PUSH1 0x1 PUSH1 0xA0 SHL SUB AND PUSH32 0x0 PUSH2 0x12CC JUMP JUMPDEST PUSH2 0x42E JUMP JUMPDEST PUSH1 0x40 MLOAD PUSH3 0x461BCD PUSH1 0xE5 SHL DUP2 MSTORE PUSH1 0x20 PUSH1 0x4 DUP3 ADD MSTORE PUSH1 0xF PUSH1 0x24 DUP3 ADD MSTORE PUSH15 0x105B1C9958591E481C995D9BDAD959 PUSH1 0x8A SHL PUSH1 0x44 DUP3 ADD MSTORE PUSH1 0x64 SWAP1 REVERT JUMPDEST PUSH1 0x40 MLOAD PUSH3 0x461BCD PUSH1 0xE5 SHL DUP2 MSTORE PUSH1 0x20 PUSH1 0x4 DUP3 ADD MSTORE PUSH1 0xD PUSH1 0x24 DUP3 ADD MSTORE PUSH13 0x4E6F74207265766F6361626C65 PUSH1 0x98 SHL PUSH1 0x44 DUP3 ADD MSTORE PUSH1 0x64 SWAP1 REVERT JUMPDEST PUSH1 0x40 MLOAD PUSH3 0x461BCD PUSH1 0xE5 SHL DUP2 MSTORE PUSH1 0x20 PUSH1 0x4 DUP3 ADD MSTORE PUSH1 0xD PUSH1 0x24 DUP3 ADD MSTORE PUSH13 0x92DCECC2D8D2C840D2DCC8CAF PUSH1 0x9B SHL PUSH1 0x44 DUP3 ADD MSTORE PUSH1 0x64 SWAP1 REVERT JUMPDEST CALLVALUE PUSH2 0x1AC JUMPI PUSH1 0x40 CALLDATASIZE PUSH1 0x3 NOT ADD SLT PUSH2 0x1AC JUMPI PUSH2 0x532 PUSH2 0x1121 JUMP JUMPDEST PUSH1 0x24 CALLDATALOAD PUSH2 0x53D PUSH2 0x135D JUMP JUMPDEST PUSH1 0x1 PUSH1 0x1 PUSH1 0xA0 SHL SUB SWAP1 SWAP2 AND SWAP1 PUSH1 0x0 DUP3 ISZERO PUSH2 0x7F3 JUMPI DUP2 ISZERO PUSH2 0x7B9 JUMPI PUSH1 0x2 SLOAD DUP1 ISZERO PUSH2 0x786 JUMPI DUP4 DUP3 MSTORE PUSH1 0x3 PUSH1 0x20 MSTORE PUSH1 0x40 DUP3 KECCAK256 DUP1 SLOAD SWAP1 DUP4 JUMPDEST DUP3 DUP2 LT PUSH2 0x6B8 JUMPI POP POP POP DUP4 DUP3 MSTORE PUSH1 0x3 PUSH1 0x20 MSTORE PUSH1 0x40 DUP3 KECCAK256 PUSH1 0x40 MLOAD PUSH2 0x593 DUP2 PUSH2 0x1277 JUMP JUMPDEST DUP5 DUP2 MSTORE PUSH1 0x20 DUP2 ADD SWAP1 DUP5 DUP3 MSTORE PUSH1 0x40 DUP2 ADD SWAP4 DUP5 MSTORE PUSH1 0x60 DUP2 ADD DUP6 DUP2 MSTORE PUSH1 0x80 DUP3 ADD SWAP1 PUSH3 0xED4E00 DUP3 MSTORE PUSH1 0xA0 DUP4 ADD SWAP6 PUSH1 0x19 DUP8 MSTORE PUSH1 0xC0 DUP5 ADD SWAP5 DUP9 DUP7 MSTORE PUSH1 0xE0 DUP6 ADD SWAP7 DUP10 DUP9 MSTORE DUP1 SLOAD SWAP1 PUSH1 0x1 PUSH1 0x40 SHL DUP3 LT ISZERO PUSH2 0x6A4 JUMPI SWAP1 PUSH2 0x5EF SWAP2 PUSH1 0x1 DUP3 ADD DUP2 SSTORE PUSH2 0x1137 JUMP JUMPDEST SWAP6 SWAP1 SWAP6 PUSH2 0x690 JUMPI MLOAD DUP6 SSTORE MLOAD PUSH1 0x1 DUP6 ADD SSTORE MLOAD PUSH1 0x2 DUP5 ADD SSTORE MLOAD PUSH1 0x3 DUP4 ADD SSTORE MLOAD PUSH1 0x4 DUP3 ADD SSTORE SWAP3 MLOAD PUSH1 0x5 SWAP1 SWAP4 ADD DUP1 SLOAD SWAP2 MLOAD SWAP3 MLOAD PUSH3 0xFFFFFF NOT SWAP1 SWAP3 AND PUSH1 0xFF SWAP5 SWAP1 SWAP5 AND SWAP4 SWAP1 SWAP4 OR SWAP2 ISZERO ISZERO PUSH1 0x8 SHL PUSH2 0xFF00 AND SWAP2 SWAP1 SWAP2 OR SWAP1 ISZERO ISZERO PUSH1 0x10 SHL PUSH3 0xFF0000 AND OR SWAP1 SSTORE PUSH32 0xF8B9DB65A8F6306EFA84D087B9E9B6D62134E17921AF16F14150254ACC216B43 SWAP2 PUSH1 0x40 SWAP2 PUSH2 0x67D DUP3 PUSH1 0x4 SLOAD PUSH2 0x119F JUMP JUMPDEST PUSH1 0x4 SSTORE DUP3 MLOAD SWAP2 DUP3 MSTORE POP PUSH1 0x2 PUSH1 0x20 DUP3 ADD MSTORE LOG2 STOP JUMPDEST PUSH4 0x4E487B71 PUSH1 0xE0 SHL DUP11 MSTORE PUSH1 0x4 DUP11 SWAP1 MSTORE PUSH1 0x24 DUP11 REVERT JUMPDEST PUSH4 0x4E487B71 PUSH1 0xE0 SHL DUP12 MSTORE PUSH1 0x41 PUSH1 0x4 MSTORE PUSH1 0x24 DUP12 REVERT JUMPDEST PUSH1 0xFF PUSH1 0x5 PUSH2 0x6C6 DUP4 DUP6 PUSH2 0x1137 JUMP JUMPDEST POP ADD SLOAD PUSH1 0x10 SHR AND ISZERO DUP1 PUSH2 0x770 JUMPI JUMPDEST DUP1 PUSH2 0x756 JUMPI JUMPDEST DUP1 PUSH2 0x73B JUMPI JUMPDEST PUSH2 0x6EC JUMPI PUSH1 0x1 ADD PUSH2 0x571 JUMP JUMPDEST PUSH1 0x40 MLOAD PUSH3 0x461BCD PUSH1 0xE5 SHL DUP2 MSTORE PUSH1 0x20 PUSH1 0x4 DUP3 ADD MSTORE PUSH1 0x21 PUSH1 0x24 DUP3 ADD MSTORE PUSH32 0x4475706C69636174652076657374696E67207363686564756C65206578697374 PUSH1 0x44 DUP3 ADD MSTORE PUSH1 0x73 PUSH1 0xF8 SHL PUSH1 0x64 DUP3 ADD MSTORE PUSH1 0x84 SWAP1 REVERT JUMPDEST POP PUSH1 0x19 PUSH1 0xFF PUSH1 0x5 PUSH2 0x74C DUP5 DUP7 PUSH2 0x1137 JUMP JUMPDEST POP ADD SLOAD AND EQ PUSH2 0x6E0 JUMP JUMPDEST POP PUSH3 0xED4E00 PUSH1 0x4 PUSH2 0x767 DUP4 DUP6 PUSH2 0x1137 JUMP JUMPDEST POP ADD SLOAD EQ PUSH2 0x6DA JUMP JUMPDEST POP PUSH1 0x3 PUSH2 0x77D DUP3 DUP5 PUSH2 0x1137 JUMP JUMPDEST POP ADD SLOAD ISZERO PUSH2 0x6D4 JUMP JUMPDEST PUSH1 0x40 MLOAD PUSH3 0x461BCD PUSH1 0xE5 SHL DUP2 MSTORE PUSH1 0x20 PUSH1 0x4 DUP3 ADD MSTORE PUSH1 0xB PUSH1 0x24 DUP3 ADD MSTORE PUSH11 0x1511D1481B9BDD081CD95D PUSH1 0xAA SHL PUSH1 0x44 DUP3 ADD MSTORE PUSH1 0x64 SWAP1 REVERT JUMPDEST PUSH1 0x40 MLOAD PUSH3 0x461BCD PUSH1 0xE5 SHL DUP2 MSTORE PUSH1 0x20 PUSH1 0x4 DUP3 ADD MSTORE PUSH1 0x12 PUSH1 0x24 DUP3 ADD MSTORE PUSH18 0x416D6F756E74206D757374206265203E203 PUSH1 0x74 SHL PUSH1 0x44 DUP3 ADD MSTORE PUSH1 0x64 SWAP1 REVERT JUMPDEST PUSH1 0x40 MLOAD PUSH3 0x461BCD PUSH1 0xE5 SHL DUP2 MSTORE PUSH1 0x20 PUSH1 0x4 DUP3 ADD MSTORE PUSH1 0x13 PUSH1 0x24 DUP3 ADD MSTORE PUSH19 0x496E76616C69642062656E6566696369617279 PUSH1 0x68 SHL PUSH1 0x44 DUP3 ADD MSTORE PUSH1 0x64 SWAP1 REVERT JUMPDEST CALLVALUE PUSH2 0x1AC JUMPI PUSH1 0x0 CALLDATASIZE PUSH1 0x3 NOT ADD SLT PUSH2 0x1AC JUMPI PUSH2 0x847 PUSH2 0x135D JUMP JUMPDEST PUSH1 0x40 MLOAD PUSH4 0x70A08231 PUSH1 0xE0 SHL DUP2 MSTORE ADDRESS PUSH1 0x4 DUP3 ADD MSTORE PUSH32 0x0 PUSH1 0x20 DUP3 PUSH1 0x24 DUP2 PUSH1 0x1 PUSH1 0x1 PUSH1 0xA0 SHL SUB DUP6 AND GAS STATICCALL SWAP2 DUP3 ISZERO PUSH2 0x95A JUMPI PUSH1 0x0 SWAP3 PUSH2 0x926 JUMPI JUMPDEST POP PUSH1 0x4 SLOAD PUSH1 0x5 SLOAD DUP1 DUP3 GT ISZERO PUSH2 0x91C JUMPI PUSH2 0x8B4 SWAP2 PUSH2 0x1169 JUMP JUMPDEST SWAP2 JUMPDEST DUP3 DUP2 GT ISZERO PUSH2 0x8DF JUMPI PUSH2 0x8DD SWAP3 PUSH2 0x8CB SWAP2 PUSH2 0x1169 JUMP JUMPDEST SWAP1 PUSH1 0x1 DUP1 PUSH1 0xA0 SHL SUB PUSH1 0x0 SLOAD AND SWAP1 PUSH2 0x12CC JUMP JUMPDEST STOP JUMPDEST PUSH1 0x40 MLOAD PUSH3 0x461BCD PUSH1 0xE5 SHL DUP2 MSTORE PUSH1 0x20 PUSH1 0x4 DUP3 ADD MSTORE PUSH1 0x15 PUSH1 0x24 DUP3 ADD MSTORE PUSH21 0x4E6F20756E636F6D6D697474656420746F6B656E73 PUSH1 0x58 SHL PUSH1 0x44 DUP3 ADD MSTORE PUSH1 0x64 SWAP1 REVERT JUMPDEST POP POP PUSH1 0x0 SWAP2 PUSH2 0x8B6 JUMP JUMPDEST SWAP1 SWAP2 POP PUSH1 0x20 DUP2 RETURNDATASIZE PUSH1 0x20 GT PUSH2 0x952 JUMPI JUMPDEST DUP2 PUSH2 0x942 PUSH1 0x20 SWAP4 DUP4 PUSH2 0x12AA JUMP JUMPDEST DUP2 ADD SUB SLT PUSH2 0x1AC JUMPI MLOAD SWAP1 DUP3 PUSH2 0x89C JUMP JUMPDEST RETURNDATASIZE SWAP2 POP PUSH2 0x935 JUMP JUMPDEST PUSH1 0x40 MLOAD RETURNDATASIZE PUSH1 0x0 DUP3 RETURNDATACOPY RETURNDATASIZE SWAP1 REVERT JUMPDEST CALLVALUE PUSH2 0x1AC JUMPI PUSH1 0x0 CALLDATASIZE PUSH1 0x3 NOT ADD SLT PUSH2 0x1AC JUMPI PUSH1 0x20 PUSH1 0x5 SLOAD PUSH1 0x40 MLOAD SWAP1 DUP2 MSTORE RETURN JUMPDEST CALLVALUE PUSH2 0x1AC JUMPI PUSH1 0x40 CALLDATASIZE PUSH1 0x3 NOT ADD SLT PUSH2 0x1AC JUMPI PUSH2 0x99D PUSH2 0x1121 JUMP JUMPDEST PUSH1 0x24 CALLDATALOAD PUSH2 0x9A8 PUSH2 0x135D JUMP JUMPDEST PUSH1 0x1 PUSH1 0x1 PUSH1 0xA0 SHL SUB SWAP1 SWAP2 AND SWAP1 PUSH1 0x0 DUP3 ISZERO PUSH2 0x7F3 JUMPI DUP2 ISZERO PUSH2 0x7B9 JUMPI PUSH1 0x2 SLOAD DUP1 ISZERO PUSH2 0x786 JUMPI DUP4 DUP3 MSTORE PUSH1 0x3 PUSH1 0x20 MSTORE PUSH1 0x40 DUP3 KECCAK256 DUP1 SLOAD SWAP1 DUP4 JUMPDEST DUP3 DUP2 LT PUSH2 0xB00 JUMPI POP POP POP DUP4 DUP3 MSTORE PUSH1 0x3 PUSH1 0x20 MSTORE PUSH1 0x40 DUP3 KECCAK256 PUSH1 0x40 MLOAD PUSH2 0x9FE DUP2 PUSH2 0x1277 JUMP JUMPDEST DUP5 DUP2 MSTORE PUSH1 0x20 DUP2 ADD SWAP1 DUP5 DUP3 MSTORE PUSH1 0x40 DUP2 ADD SWAP4 DUP5 MSTORE PUSH1 0x60 DUP2 ADD PUSH4 0x1E13380 DUP2 MSTORE PUSH1 0x80 DUP3 ADD SWAP1 PUSH4 0x784CE00 DUP3 MSTORE PUSH1 0xA0 DUP4 ADD SWAP6 DUP8 DUP8 MSTORE PUSH1 0xC0 DUP5 ADD SWAP5 PUSH1 0x1 DUP7 MSTORE PUSH1 0xE0 DUP6 ADD SWAP7 DUP10 DUP9 MSTORE DUP1 SLOAD SWAP1 PUSH1 0x1 PUSH1 0x40 SHL DUP3 LT ISZERO PUSH2 0x6A4 JUMPI SWAP1 PUSH2 0xA5F SWAP2 PUSH1 0x1 DUP3 ADD DUP2 SSTORE PUSH2 0x1137 JUMP JUMPDEST SWAP6 SWAP1 SWAP6 PUSH2 0x690 JUMPI MLOAD DUP6 SSTORE MLOAD PUSH1 0x1 DUP6 ADD SSTORE MLOAD PUSH1 0x2 DUP5 ADD SSTORE MLOAD PUSH1 0x3 DUP4 ADD SSTORE MLOAD PUSH1 0x4 DUP3 ADD SSTORE SWAP3 MLOAD PUSH1 0x5 SWAP1 SWAP4 ADD DUP1 SLOAD SWAP2 MLOAD SWAP3 MLOAD PUSH3 0xFFFFFF NOT SWAP1 SWAP3 AND PUSH1 0xFF SWAP5 SWAP1 SWAP5 AND SWAP4 SWAP1 SWAP4 OR SWAP2 ISZERO ISZERO PUSH1 0x8 SHL PUSH2 0xFF00 AND SWAP2 SWAP1 SWAP2 OR SWAP1 ISZERO ISZERO PUSH1 0x10 SHL PUSH3 0xFF0000 AND OR SWAP1 SSTORE PUSH32 0xF8B9DB65A8F6306EFA84D087B9E9B6D62134E17921AF16F14150254ACC216B43 SWAP2 PUSH1 0x40 SWAP2 PUSH2 0xAED DUP3 PUSH1 0x4 SLOAD PUSH2 0x119F JUMP JUMPDEST PUSH1 0x4 SSTORE DUP3 MLOAD SWAP2 DUP3 MSTORE POP PUSH1 0x0 PUSH1 0x20 DUP3 ADD MSTORE LOG2 STOP JUMPDEST PUSH1 0xFF PUSH1 0x5 PUSH2 0xB0E DUP4 DUP6 PUSH2 0x1137 JUMP JUMPDEST POP ADD SLOAD PUSH1 0x10 SHR AND ISZERO DUP1 PUSH2 0xB68 JUMPI JUMPDEST DUP1 PUSH2 0xB4D JUMPI JUMPDEST DUP1 PUSH2 0xB34 JUMPI JUMPDEST PUSH2 0x6EC JUMPI PUSH1 0x1 ADD PUSH2 0x9DC JUMP JUMPDEST POP PUSH1 0xFF PUSH1 0x5 PUSH2 0xB43 DUP4 DUP6 PUSH2 0x1137 JUMP JUMPDEST POP ADD SLOAD AND ISZERO PUSH2 0xB28 JUMP JUMPDEST POP PUSH4 0x784CE00 PUSH1 0x4 PUSH2 0xB5F DUP4 DUP6 PUSH2 0x1137 JUMP JUMPDEST POP ADD SLOAD EQ PUSH2 0xB22 JUMP JUMPDEST POP PUSH4 0x1E13380 PUSH1 0x3 PUSH2 0xB7A DUP4 DUP6 PUSH2 0x1137 JUMP JUMPDEST POP ADD SLOAD EQ PUSH2 0xB1C JUMP JUMPDEST CALLVALUE PUSH2 0x1AC JUMPI PUSH1 0x0 CALLDATASIZE PUSH1 0x3 NOT ADD SLT PUSH2 0x1AC JUMPI PUSH1 0x20 PUSH1 0x2 SLOAD PUSH1 0x40 MLOAD SWAP1 DUP2 MSTORE RETURN JUMPDEST CALLVALUE PUSH2 0x1AC JUMPI PUSH1 0x0 CALLDATASIZE PUSH1 0x3 NOT ADD SLT PUSH2 0x1AC JUMPI PUSH1 0x0 SLOAD PUSH1 0x40 MLOAD PUSH1 0x1 PUSH1 0x1 PUSH1 0xA0 SHL SUB SWAP1 SWAP2 AND DUP2 MSTORE PUSH1 0x20 SWAP1 RETURN JUMPDEST CALLVALUE PUSH2 0x1AC JUMPI PUSH1 0x40 CALLDATASIZE PUSH1 0x3 NOT ADD SLT PUSH2 0x1AC JUMPI PUSH2 0xBE3 PUSH2 0x1121 JUMP JUMPDEST PUSH1 0x24 CALLDATALOAD PUSH2 0xBEE PUSH2 0x135D JUMP JUMPDEST PUSH1 0x1 PUSH1 0x1 PUSH1 0xA0 SHL SUB SWAP1 SWAP2 AND SWAP1 PUSH1 0x0 DUP3 ISZERO PUSH2 0x7F3 JUMPI DUP2 ISZERO PUSH2 0x7B9 JUMPI PUSH1 0x2 SLOAD DUP1 ISZERO PUSH2 0x786 JUMPI DUP4 DUP3 MSTORE PUSH1 0x3 PUSH1 0x20 MSTORE PUSH1 0x40 DUP3 KECCAK256 DUP1 SLOAD SWAP1 DUP4 JUMPDEST DUP3 DUP2 LT PUSH2 0xD45 JUMPI POP POP POP DUP4 DUP3 MSTORE PUSH1 0x3 PUSH1 0x20 MSTORE PUSH1 0x40 DUP3 KECCAK256 PUSH1 0x40 MLOAD PUSH2 0xC44 DUP2 PUSH2 0x1277 JUMP JUMPDEST DUP5 DUP2 MSTORE PUSH1 0x20 DUP2 ADD SWAP1 DUP5 DUP3 MSTORE PUSH1 0x40 DUP2 ADD SWAP4 DUP5 MSTORE PUSH1 0x60 DUP2 ADD PUSH4 0x1E13380 DUP2 MSTORE PUSH1 0x80 DUP3 ADD SWAP1 PUSH4 0x3C26700 DUP3 MSTORE PUSH1 0xA0 DUP4 ADD SWAP6 DUP8 DUP8 MSTORE PUSH1 0xC0 DUP5 ADD SWAP5 DUP9 DUP7 MSTORE PUSH1 0xE0 DUP6 ADD SWAP7 DUP10 DUP9 MSTORE DUP1 SLOAD SWAP1 PUSH1 0x1 PUSH1 0x40 SHL DUP3 LT ISZERO PUSH2 0x6A4 JUMPI SWAP1 PUSH2 0xCA4 SWAP2 PUSH1 0x1 DUP3 ADD DUP2 SSTORE PUSH2 0x1137 JUMP JUMPDEST SWAP6 SWAP1 SWAP6 PUSH2 0x690 JUMPI MLOAD DUP6 SSTORE MLOAD PUSH1 0x1 DUP6 ADD SSTORE MLOAD PUSH1 0x2 DUP5 ADD SSTORE MLOAD PUSH1 0x3 DUP4 ADD SSTORE MLOAD PUSH1 0x4 DUP3 ADD SSTORE SWAP3 MLOAD PUSH1 0x5 SWAP1 SWAP4 ADD DUP1 SLOAD SWAP2 MLOAD SWAP3 MLOAD PUSH3 0xFFFFFF NOT SWAP1 SWAP3 AND PUSH1 0xFF SWAP5 SWAP1 SWAP5 AND SWAP4 SWAP1 SWAP4 OR SWAP2 ISZERO ISZERO PUSH1 0x8 SHL PUSH2 0xFF00 AND SWAP2 SWAP1 SWAP2 OR SWAP1 ISZERO ISZERO PUSH1 0x10 SHL PUSH3 0xFF0000 AND OR SWAP1 SSTORE PUSH32 0xF8B9DB65A8F6306EFA84D087B9E9B6D62134E17921AF16F14150254ACC216B43 SWAP2 PUSH1 0x40 SWAP2 PUSH2 0xD32 DUP3 PUSH1 0x4 SLOAD PUSH2 0x119F JUMP JUMPDEST PUSH1 0x4 SSTORE DUP3 MLOAD SWAP2 DUP3 MSTORE POP PUSH1 0x1 PUSH1 0x20 DUP3 ADD MSTORE LOG2 STOP JUMPDEST PUSH1 0xFF PUSH1 0x5 PUSH2 0xD53 DUP4 DUP6 PUSH2 0x1137 JUMP JUMPDEST POP ADD SLOAD PUSH1 0x10 SHR AND ISZERO DUP1 PUSH2 0xDAD JUMPI JUMPDEST DUP1 PUSH2 0xD92 JUMPI JUMPDEST DUP1 PUSH2 0xD79 JUMPI JUMPDEST PUSH2 0x6EC JUMPI PUSH1 0x1 ADD PUSH2 0xC22 JUMP JUMPDEST POP PUSH1 0xFF PUSH1 0x5 PUSH2 0xD88 DUP4 DUP6 PUSH2 0x1137 JUMP JUMPDEST POP ADD SLOAD AND ISZERO PUSH2 0xD6D JUMP JUMPDEST POP PUSH4 0x3C26700 PUSH1 0x4 PUSH2 0xDA4 DUP4 DUP6 PUSH2 0x1137 JUMP JUMPDEST POP ADD SLOAD EQ PUSH2 0xD67 JUMP JUMPDEST POP PUSH4 0x1E13380 PUSH1 0x3 PUSH2 0xDBF DUP4 DUP6 PUSH2 0x1137 JUMP JUMPDEST POP ADD SLOAD EQ PUSH2 0xD61 JUMP JUMPDEST CALLVALUE PUSH2 0x1AC JUMPI PUSH1 0x0 CALLDATASIZE PUSH1 0x3 NOT ADD SLT PUSH2 0x1AC JUMPI PUSH2 0xDE1 PUSH2 0x135D JUMP JUMPDEST PUSH1 0x0 DUP1 SLOAD PUSH1 0x1 PUSH1 0x1 PUSH1 0xA0 SHL SUB NOT DUP2 AND DUP3 SSTORE PUSH1 0x1 PUSH1 0x1 PUSH1 0xA0 SHL SUB AND PUSH32 0x8BE0079C531659141344CD1FD0A4F28419497F9722A3DAAFE3B4186F6B6457E0 DUP3 DUP1 LOG3 STOP JUMPDEST CALLVALUE PUSH2 0x1AC JUMPI PUSH1 0x0 CALLDATASIZE PUSH1 0x3 NOT ADD SLT PUSH2 0x1AC JUMPI PUSH1 0x2 PUSH1 0x1 SLOAD EQ PUSH2 0xF78 JUMPI PUSH1 0x2 PUSH1 0x1 SSTORE PUSH1 0x0 DUP1 JUMPDEST CALLER PUSH1 0x0 MSTORE PUSH1 0x3 PUSH1 0x20 MSTORE PUSH1 0x40 PUSH1 0x0 KECCAK256 SLOAD DUP2 LT ISZERO PUSH2 0xECD JUMPI CALLER PUSH1 0x0 MSTORE PUSH1 0x3 PUSH1 0x20 MSTORE PUSH2 0xE72 DUP2 PUSH1 0x40 PUSH1 0x0 KECCAK256 PUSH2 0x1137 JUMP JUMPDEST POP PUSH1 0xFF PUSH1 0x5 DUP3 ADD SLOAD PUSH1 0x10 SHR AND ISZERO PUSH2 0xE8D JUMPI JUMPDEST POP PUSH1 0x1 ADD PUSH2 0xE45 JUMP JUMPDEST PUSH1 0x1 PUSH2 0xE99 DUP4 CALLER PUSH2 0x11AC JUMP JUMPDEST SWAP2 ADD SWAP1 PUSH2 0xEA7 DUP3 SLOAD DUP3 PUSH2 0x1169 JUMP JUMPDEST SWAP2 DUP3 PUSH2 0xEB5 JUMPI JUMPDEST POP POP PUSH2 0xE84 JUMP JUMPDEST SSTORE SWAP1 SWAP2 PUSH1 0x1 SWAP2 PUSH2 0xEC4 SWAP2 PUSH2 0x119F JUMP JUMPDEST SWAP2 SWAP1 DUP4 DUP1 PUSH2 0xEAE JUMP JUMPDEST POP DUP1 ISZERO PUSH2 0xF40 JUMPI PUSH2 0xEE0 DUP2 PUSH1 0x5 SLOAD PUSH2 0x119F JUMP JUMPDEST PUSH1 0x5 SSTORE PUSH2 0xF0E DUP2 CALLER PUSH32 0x0 PUSH2 0x12CC JUMP JUMPDEST PUSH1 0x40 MLOAD SWAP1 DUP2 MSTORE PUSH32 0x896E034966EAAF1ADC54ACC0F257056FEBBD300C9E47182CF761982CF1F5E430 PUSH1 0x20 CALLER SWAP3 LOG2 PUSH1 0x1 DUP1 SSTORE STOP JUMPDEST PUSH1 0x40 MLOAD PUSH3 0x461BCD PUSH1 0xE5 SHL DUP2 MSTORE PUSH1 0x20 PUSH1 0x4 DUP3 ADD MSTORE PUSH1 0x10 PUSH1 0x24 DUP3 ADD MSTORE PUSH16 0x4E6F7468696E6720746F20636C61696D PUSH1 0x80 SHL PUSH1 0x44 DUP3 ADD MSTORE PUSH1 0x64 SWAP1 REVERT JUMPDEST PUSH4 0x3EE5AEB5 PUSH1 0xE0 SHL PUSH1 0x0 MSTORE PUSH1 0x4 PUSH1 0x0 REVERT JUMPDEST CALLVALUE PUSH2 0x1AC JUMPI PUSH1 0x0 CALLDATASIZE PUSH1 0x3 NOT ADD SLT PUSH2 0x1AC JUMPI PUSH1 0x20 PUSH1 0x4 SLOAD PUSH1 0x40 MLOAD SWAP1 DUP2 MSTORE RETURN JUMPDEST CALLVALUE PUSH2 0x1AC JUMPI PUSH1 0x40 CALLDATASIZE PUSH1 0x3 NOT ADD SLT PUSH2 0x1AC JUMPI PUSH2 0xFC0 PUSH2 0x1121 JUMP JUMPDEST PUSH1 0x1 PUSH1 0x1 PUSH1 0xA0 SHL SUB AND PUSH1 0x0 SWAP1 DUP2 MSTORE PUSH1 0x3 PUSH1 0x20 MSTORE PUSH1 0x40 SWAP1 KECCAK256 DUP1 SLOAD PUSH1 0x24 CALLDATALOAD SWAP2 SWAP1 DUP3 LT ISZERO PUSH2 0x1AC JUMPI PUSH2 0x100 SWAP2 PUSH2 0xFF2 SWAP2 PUSH2 0x1137 JUMP JUMPDEST POP PUSH1 0xFF DUP2 SLOAD SWAP2 PUSH1 0x1 DUP2 ADD SLOAD SWAP1 PUSH1 0x2 DUP2 ADD SLOAD PUSH1 0x3 DUP3 ADD SLOAD SWAP1 PUSH1 0x5 PUSH1 0x4 DUP5 ADD SLOAD SWAP4 ADD SLOAD SWAP4 PUSH1 0x40 MLOAD SWAP7 DUP8 MSTORE PUSH1 0x20 DUP8 ADD MSTORE PUSH1 0x40 DUP7 ADD MSTORE PUSH1 0x60 DUP6 ADD MSTORE PUSH1 0x80 DUP5 ADD MSTORE DUP2 DUP2 AND PUSH1 0xA0 DUP5 ADD MSTORE DUP2 DUP2 PUSH1 0x8 SHR AND ISZERO ISZERO PUSH1 0xC0 DUP5 ADD MSTORE PUSH1 0x10 SHR AND ISZERO ISZERO PUSH1 0xE0 DUP3 ADD MSTORE RETURN JUMPDEST CALLVALUE PUSH2 0x1AC JUMPI PUSH1 0x20 CALLDATASIZE PUSH1 0x3 NOT ADD SLT PUSH2 0x1AC JUMPI PUSH2 0x1069 PUSH2 0x1121 JUMP JUMPDEST PUSH1 0x0 SWAP1 PUSH1 0x1 PUSH1 0x1 PUSH1 0xA0 SHL SUB DUP2 AND SWAP1 DUP3 JUMPDEST DUP3 PUSH1 0x0 MSTORE PUSH1 0x3 PUSH1 0x20 MSTORE PUSH1 0x40 PUSH1 0x0 KECCAK256 SLOAD DUP2 LT ISZERO PUSH2 0x10E7 JUMPI DUP3 PUSH1 0x0 MSTORE PUSH1 0x3 PUSH1 0x20 MSTORE PUSH2 0x10A6 DUP2 PUSH1 0x40 PUSH1 0x0 KECCAK256 PUSH2 0x1137 JUMP JUMPDEST POP PUSH1 0xFF PUSH1 0x5 DUP3 ADD SLOAD PUSH1 0x10 SHR AND ISZERO PUSH2 0x10C1 JUMPI JUMPDEST POP PUSH1 0x1 ADD PUSH2 0x1079 JUMP JUMPDEST DUP2 SWAP5 PUSH2 0x2B9 PUSH2 0x10E0 SWAP3 PUSH1 0x1 PUSH2 0x10D7 DUP2 SWAP7 DUP9 PUSH2 0x11AC JUMP JUMPDEST SWAP2 ADD SLOAD SWAP1 PUSH2 0x1169 JUMP JUMPDEST SWAP4 SWAP1 PUSH2 0x10B8 JUMP JUMPDEST PUSH1 0x20 DUP5 PUSH1 0x40 MLOAD SWAP1 DUP2 MSTORE RETURN JUMPDEST CALLVALUE PUSH2 0x1AC JUMPI PUSH1 0x40 CALLDATASIZE PUSH1 0x3 NOT ADD SLT PUSH2 0x1AC JUMPI PUSH1 0x20 PUSH2 0x1119 PUSH2 0x1110 PUSH2 0x1121 JUMP JUMPDEST PUSH1 0x24 CALLDATALOAD SWAP1 PUSH2 0x11AC JUMP JUMPDEST PUSH1 0x40 MLOAD SWAP1 DUP2 MSTORE RETURN JUMPDEST PUSH1 0x4 CALLDATALOAD SWAP1 PUSH1 0x1 PUSH1 0x1 PUSH1 0xA0 SHL SUB DUP3 AND DUP3 SUB PUSH2 0x1AC JUMPI JUMP JUMPDEST DUP1 SLOAD DUP3 LT ISZERO PUSH2 0x1153 JUMPI PUSH1 0x0 MSTORE PUSH1 0x6 PUSH1 0x20 PUSH1 0x0 KECCAK256 SWAP2 MUL ADD SWAP1 PUSH1 0x0 SWAP1 JUMP JUMPDEST PUSH4 0x4E487B71 PUSH1 0xE0 SHL PUSH1 0x0 MSTORE PUSH1 0x32 PUSH1 0x4 MSTORE PUSH1 0x24 PUSH1 0x0 REVERT JUMPDEST SWAP2 SWAP1 DUP3 SUB SWAP2 DUP3 GT PUSH2 0x1176 JUMPI JUMP JUMPDEST PUSH4 0x4E487B71 PUSH1 0xE0 SHL PUSH1 0x0 MSTORE PUSH1 0x11 PUSH1 0x4 MSTORE PUSH1 0x24 PUSH1 0x0 REVERT JUMPDEST DUP2 DUP2 MUL SWAP3 SWAP2 DUP2 ISZERO SWAP2 DUP5 DIV EQ OR ISZERO PUSH2 0x1176 JUMPI JUMP JUMPDEST SWAP2 SWAP1 DUP3 ADD DUP1 SWAP3 GT PUSH2 0x1176 JUMPI JUMP JUMPDEST PUSH1 0x1 PUSH1 0x1 PUSH1 0xA0 SHL SUB AND PUSH1 0x0 SWAP1 DUP2 MSTORE PUSH1 0x3 PUSH1 0x20 MSTORE PUSH1 0x40 SWAP1 KECCAK256 PUSH2 0x11CD SWAP2 SWAP1 PUSH2 0x1137 JUMP JUMPDEST POP PUSH1 0x5 DUP2 ADD SLOAD PUSH1 0xFF DUP2 PUSH1 0x10 SHR AND PUSH2 0x126F JUMPI PUSH1 0x2 DUP3 ADD SLOAD DUP1 TIMESTAMP LT PUSH2 0x1267 JUMPI PUSH2 0x11F4 SWAP1 TIMESTAMP PUSH2 0x1169 JUMP JUMPDEST SWAP1 PUSH1 0x64 PUSH2 0x1206 PUSH1 0xFF DUP6 SLOAD SWAP4 AND DUP4 PUSH2 0x118C JUMP JUMPDEST DIV SWAP2 PUSH2 0x1212 DUP4 DUP4 PUSH2 0x1169 JUMP JUMPDEST SWAP1 PUSH1 0x3 DUP6 ADD SLOAD SWAP1 DUP2 DUP2 LT PUSH2 0x125E JUMPI PUSH1 0x4 SWAP2 PUSH2 0x122C SWAP2 PUSH2 0x1169 JUMP JUMPDEST SWAP5 ADD SLOAD SWAP2 DUP3 ISZERO PUSH2 0x1256 JUMPI DUP3 DUP6 LT ISZERO PUSH2 0x1256 JUMPI POP PUSH2 0x1253 SWAP4 PUSH2 0x124C SWAP2 PUSH2 0x118C JUMP JUMPDEST DIV SWAP1 PUSH2 0x119F JUMP JUMPDEST SWAP1 JUMP JUMPDEST SWAP4 POP POP POP POP SWAP1 JUMP JUMPDEST POP POP POP POP SWAP1 POP SWAP1 JUMP JUMPDEST POP POP POP PUSH1 0x0 SWAP1 JUMP JUMPDEST POP PUSH1 0x1 ADD SLOAD SWAP1 JUMP JUMPDEST PUSH2 0x100 DUP2 ADD SWAP1 DUP2 LT PUSH8 0xFFFFFFFFFFFFFFFF DUP3 GT OR PUSH2 0x1294 JUMPI PUSH1 0x40 MSTORE JUMP JUMPDEST PUSH4 0x4E487B71 PUSH1 0xE0 SHL PUSH1 0x0 MSTORE PUSH1 0x41 PUSH1 0x4 MSTORE PUSH1 0x24 PUSH1 0x0 REVERT JUMPDEST SWAP1 PUSH1 0x1F DUP1 NOT SWAP2 ADD AND DUP2 ADD SWAP1 DUP2 LT PUSH8 0xFFFFFFFFFFFFFFFF DUP3 GT OR PUSH2 0x1294 JUMPI PUSH1 0x40 MSTORE JUMP JUMPDEST PUSH1 0x40 MLOAD PUSH4 0xA9059CBB PUSH1 0xE0 SHL PUSH1 0x20 DUP3 DUP2 ADD SWAP2 DUP3 MSTORE PUSH1 0x1 PUSH1 0x1 PUSH1 0xA0 SHL SUB SWAP1 SWAP5 AND PUSH1 0x24 DUP4 ADD MSTORE PUSH1 0x44 DUP1 DUP4 ADD SWAP6 SWAP1 SWAP6 MSTORE SWAP4 DUP2 MSTORE SWAP1 SWAP3 PUSH1 0x0 SWAP2 PUSH2 0x130B PUSH1 0x64 DUP3 PUSH2 0x12AA JUMP JUMPDEST MLOAD SWAP1 DUP3 DUP6 GAS CALL ISZERO PUSH2 0x95A JUMPI PUSH1 0x0 MLOAD RETURNDATASIZE PUSH2 0x1354 JUMPI POP PUSH1 0x1 PUSH1 0x1 PUSH1 0xA0 SHL SUB DUP2 AND EXTCODESIZE ISZERO JUMPDEST PUSH2 0x1333 JUMPI POP JUMP JUMPDEST PUSH4 0x5274AFE7 PUSH1 0xE0 SHL PUSH1 0x0 SWAP1 DUP2 MSTORE PUSH1 0x1 PUSH1 0x1 PUSH1 0xA0 SHL SUB SWAP2 SWAP1 SWAP2 AND PUSH1 0x4 MSTORE PUSH1 0x24 SWAP1 REVERT JUMPDEST PUSH1 0x1 EQ ISZERO PUSH2 0x132C JUMP JUMPDEST PUSH1 0x0 SLOAD PUSH1 0x1 PUSH1 0x1 PUSH1 0xA0 SHL SUB AND CALLER SUB PUSH2 0x1371 JUMPI JUMP JUMPDEST PUSH4 0x118CDAA7 PUSH1 0xE0 SHL PUSH1 0x0 MSTORE CALLER PUSH1 0x4 MSTORE PUSH1 0x24 PUSH1 0x0 REVERT INVALID LOG2 PUSH5 0x6970667358 0x22 SLT KECCAK256 CALL 0xD0 0xA6 SIGNEXTEND 0xC0 MSTORE 0xAB DUP15 BLOBBASEFEE 0x2E 0xCA SELFDESTRUCT STATICCALL SWAP4 PUSH21 0x955432FCDB8CCB8B205DF1007A2AF17CEC64736F6C PUSH4 0x4300081C STOP CALLER "},"methodIdentifiers":{"claim()":"4e71d92d","claimable(address)":"402914f5","createIDOVesting(address,uint256)":"dbf403af","createPrivateSaleVesting(address,uint256)":"88d9e6f4","createTeamVesting(address,uint256)":"ce5b45c3","emergencyWithdraw()":"db2e21bc","getVestingInfo(address)":"fb897ce4","owner()":"8da5cb5b","renounceOwnership()":"715018a6","revoke(address,uint256)":"eac449d9","setTGE(uint256)":"ff1a318d","tgeTimestamp()":"a4317ef4","token()":"fc0c546a","totalAllocated()":"45f7f249","totalClaimed()":"d54ad2a1","transferOwnership(address)":"f2fde38b","vestedAmount(address,uint256)":"17cf5391","vestingSchedules(address,uint256)":"45626bd6"}}}}}