{"src/MDTStaking.sol":{"MDTStaking":{"abi":[{"inputs":[{"internalType":"address","name":"_token","type":"address"}],"stateMutability":"nonpayable","type":"constructor"},{"inputs":[{"internalType":"address","name":"owner","type":"address"}],"name":"OwnableInvalidOwner","type":"error"},{"inputs":[{"internalType":"address","name":"account","type":"address"}],"name":"OwnableUnauthorizedAccount","type":"error"},{"inputs":[],"name":"ReentrancyGuardReentrantCall","type":"error"},{"inputs":[{"internalType":"address","name":"token","type":"address"}],"name":"SafeERC20FailedOperation","type":"error"},{"anonymous":false,"inputs":[{"indexed":true,"internalType":"address","name":"previousOwner","type":"address"},{"indexed":true,"internalType":"address","name":"newOwner","type":"address"}],"name":"OwnershipTransferred","type":"event"},{"anonymous":false,"inputs":[{"indexed":true,"internalType":"address","name":"staker","type":"address"},{"indexed":false,"internalType":"uint256","name":"amount","type":"uint256"},{"indexed":false,"internalType":"uint256","name":"lockDays","type":"uint256"},{"indexed":false,"internalType":"uint256","name":"bonusRate","type":"uint256"},{"indexed":false,"internalType":"uint256","name":"unlockTime","type":"uint256"}],"name":"Staked","type":"event"},{"anonymous":false,"inputs":[{"indexed":true,"internalType":"address","name":"staker","type":"address"},{"indexed":false,"internalType":"uint256","name":"amount","type":"uint256"},{"indexed":false,"internalType":"uint256","name":"bonus","type":"uint256"},{"indexed":false,"internalType":"uint256","name":"totalReturned","type":"uint256"}],"name":"Unstaked","type":"event"},{"inputs":[{"internalType":"uint256","name":"amount","type":"uint256"}],"name":"fundBonusPool","outputs":[],"stateMutability":"nonpayable","type":"function"},{"inputs":[{"internalType":"uint256","name":"lockDays","type":"uint256"}],"name":"getBonusRate","outputs":[{"internalType":"uint256","name":"","type":"uint256"}],"stateMutability":"pure","type":"function"},{"inputs":[{"internalType":"address","name":"staker","type":"address"}],"name":"getStakeCount","outputs":[{"internalType":"uint256","name":"","type":"uint256"}],"stateMutability":"view","type":"function"},{"inputs":[{"internalType":"address","name":"staker","type":"address"}],"name":"getStakeInfo","outputs":[{"internalType":"uint256","name":"activeStakes","type":"uint256"},{"internalType":"uint256","name":"totalLocked","type":"uint256"},{"internalType":"uint256","name":"pendingBonus","type":"uint256"}],"stateMutability":"view","type":"function"},{"inputs":[{"internalType":"address","name":"staker","type":"address"},{"internalType":"uint256","name":"index","type":"uint256"}],"name":"getStakeLock","outputs":[{"internalType":"uint256","name":"amount","type":"uint256"},{"internalType":"uint256","name":"lockTime","type":"uint256"},{"internalType":"uint256","name":"unlockTime","type":"uint256"},{"internalType":"uint256","name":"bonusRate","type":"uint256"},{"internalType":"bool","name":"withdrawn","type":"bool"},{"internalType":"bool","name":"canUnlock","type":"bool"}],"stateMutability":"view","type":"function"},{"inputs":[{"internalType":"uint256","name":"amount","type":"uint256"},{"internalType":"uint256","name":"lockDays","type":"uint256"}],"name":"lock","outputs":[],"stateMutability":"nonpayable","type":"function"},{"inputs":[{"internalType":"uint256","name":"amount","type":"uint256"},{"internalType":"uint256","name":"lockSeconds_","type":"uint256"}],"name":"lockSeconds","outputs":[],"stateMutability":"nonpayable","type":"function"},{"inputs":[],"name":"owner","outputs":[{"internalType":"address","name":"","type":"address"}],"stateMutability":"view","type":"function"},{"inputs":[],"name":"renounceOwnership","outputs":[],"stateMutability":"nonpayable","type":"function"},{"inputs":[{"internalType":"address","name":"","type":"address"},{"internalType":"uint256","name":"","type":"uint256"}],"name":"stakeLocks","outputs":[{"internalType":"uint256","name":"amount","type":"uint256"},{"internalType":"uint256","name":"lockTime","type":"uint256"},{"internalType":"uint256","name":"unlockTime","type":"uint256"},{"internalType":"uint256","name":"bonusRate","type":"uint256"},{"internalType":"bool","name":"withdrawn","type":"bool"}],"stateMutability":"view","type":"function"},{"inputs":[],"name":"token","outputs":[{"internalType":"contract IERC20","name":"","type":"address"}],"stateMutability":"view","type":"function"},{"inputs":[],"name":"totalBonusPaid","outputs":[{"internalType":"uint256","name":"","type":"uint256"}],"stateMutability":"view","type":"function"},{"inputs":[],"name":"totalStaked","outputs":[{"internalType":"uint256","name":"","type":"uint256"}],"stateMutability":"view","type":"function"},{"inputs":[{"internalType":"address","name":"newOwner","type":"address"}],"name":"transferOwnership","outputs":[],"stateMutability":"nonpayable","type":"function"},{"inputs":[{"internalType":"uint256","name":"index","type":"uint256"}],"name":"unlock","outputs":[],"stateMutability":"nonpayable","type":"function"}],"evm":{"bytecode":{"linkReferences":{},"object":"60a03461012857601f610e8638819003918201601f19168301916001600160401b0383118484101761012d5780849260209460405283398101031261012857516001600160a01b038116908190036101285733156101125760008054336001600160a01b03198216811783556040519290916001600160a01b0316907f8be0079c531659141344cd1fd0a4f28419497f9722a3daafe3b4186f6b6457e09080a36001805581156100e05750608052604051610d429081610144823960805181818160d70152818161024d015281816106ba015281816108d1015261092f0152f35b62461bcd60e51b815260206004820152600d60248201526c24b73b30b634b2103a37b5b2b760991b6044820152606490fd5b631e4fbdf760e01b600052600060045260246000fd5b600080fd5b634e487b7160e01b600052604160045260246000fdfe6080604052600436101561001257600080fd5b60003560e01c80631338736f146108f75780634b7aeb21146108ae5780636198e3391461061f578063715018a6146105c6578063817b1cd2146105a85780638325263c1461058a5780638da5cb5b14610561578063971fe937146104dc578063a458bd3e1461042d578063c34531531461034e578063cb44acc6146101f4578063cf57ee69146101ba578063e37cd20214610194578063f2fde38b1461010b5763fc0c546a146100c157600080fd5b34610106576000366003190112610106576040517f00000000000000000000000000000000000000000000000000000000000000006001600160a01b03168152602090f35b600080fd5b3461010657602036600319011261010657610124610a2c565b61012c610c88565b6001600160a01b0316801561017e57600080546001600160a01b03198116831782556001600160a01b0316907f8be0079c531659141344cd1fd0a4f28419497f9722a3daafe3b4186f6b6457e09080a3005b631e4fbdf760e01b600052600060045260246000fd5b346101065760203660031901126101065760206101b2600435610bdc565b604051908152f35b34610106576020366003190112610106576001600160a01b036101db610a2c565b1660005260026020526020604060002054604051908152f35b346101065761020236610a16565b61020a610c88565b610212610c20565b61021d821515610a74565b8015610309577f9cfd25589d1eb8ad71e342a86a8524e83522e3936c0803048c08f6d9ad974f40906102718330337f0000000000000000000000000000000000000000000000000000000000000000610c42565b62015180810461030061028d61028683610bdc565b9342610ac8565b3360005260026020526102cc6040600020604051906102ab82610ad5565b88825242602083015283604083015286606083015260006080830152610b29565b6102d886600354610ac8565b6003556040519384933397859094939260609260808301968352602083015260408201520152565b0390a260018055005b60405162461bcd60e51b815260206004820152601860248201527f4c6f636b207365636f6e6473206d757374206265203e203000000000000000006044820152606490fd5b3461010657602036600319011261010657610367610a2c565b6000906001600160a01b03168180805b836000526002602052604060002054811015610415578360005260026020526103a4816040600020610a42565b5060ff600482015416156103bc575b50600101610377565b929490919060001981146103ff576001916127106103f1846103f894019860036103e889548093610ac8565b98015490610ab5565b0490610ac8565b91906103b3565b634e487b7160e01b600052601160045260246000fd5b50604080518581526020810193909352820152606090f35b346101065760403660031901126101065760c061048561044b610a2c565b6001600160a01b03166000818152600260205260409020546024359190610473908310610ba0565b60005260026020526040600020610a42565b5080549060018101549060028101549060ff6004600383015492015416918042101593846104d3575b60405195865260208601526040850152606084015215156080830152151560a0820152f35b831594506104ae565b34610106576040366003190112610106576104f5610a2c565b6001600160a01b03166000908152600260205260409020805460243591908210156101065760a09161052691610a42565b50805490600181015490600281015460ff60046003840154930154169260405194855260208501526040840152606083015215156080820152f35b34610106576000366003190112610106576000546040516001600160a01b039091168152602090f35b34610106576000366003190112610106576020600454604051908152f35b34610106576000366003190112610106576020600354604051908152f35b34610106576000366003190112610106576105df610c88565b600080546001600160a01b0319811682556001600160a01b03167f8be0079c531659141344cd1fd0a4f28419497f9722a3daafe3b4186f6b6457e08280a3005b346101065760203660031901126101065761066a60043561063e610c20565b3360005260026020526106576040600020548210610ba0565b3360005260026020526040600020610a42565b506004810180549060ff8216610875576002830154421061083d57825492612710610699600383015486610ab5565b04936106a58582610ac8565b6040516370a0823160e01b81523060048201527f000000000000000000000000000000000000000000000000000000000000000095919491906020816024816001600160a01b038b165afa80156108315786916000916107fc575b50106107a55760ff191660011790556003549081039081116103ff577f204fccf0d92ed8d48f204adb39b2e81e92bad0dedb93f5716ca9478cfb57de00936107859160035561075186600454610ac8565b60045560405163a9059cbb60e01b60208201523360248201526044808201869052815290610780606483610b07565b610cb1565b546040805191825260208201949094529283015233918060608101610300565b60405162461bcd60e51b815260206004820152602960248201527f496e73756666696369656e7420626f6e757320706f6f6c3a2066756e64206d6f604482015268726520746f6b656e7360b81b6064820152608490fd5b9150506020813d602011610829575b8161081860209383610b07565b810103126101065785905189610700565b3d915061080b565b6040513d6000823e3d90fd5b60405162461bcd60e51b815260206004820152601060248201526f131bd8dac81b9bdd08195e1c1a5c995960821b6044820152606490fd5b60405162461bcd60e51b815260206004820152601160248201527020b63932b0b23c903bb4ba34323930bbb760791b6044820152606490fd5b34610106576020366003190112610106576108c7610c88565b6108f560043530337f0000000000000000000000000000000000000000000000000000000000000000610c42565b005b346101065761090536610a16565b61090d610c20565b610918821515610a74565b80156109d95761016d811161099d576109538230337f0000000000000000000000000000000000000000000000000000000000000000610c42565b61095c81610bdc565b6201518082029180830462015180036103ff5761030061028d7f9cfd25589d1eb8ad71e342a86a8524e83522e3936c0803048c08f6d9ad974f409442610ac8565b60405162461bcd60e51b81526020600482015260146024820152734d6178206c6f636b20697320333635206461797360601b6044820152606490fd5b60405162461bcd60e51b815260206004820152601560248201527404c6f636b2064617973206d757374206265203e203605c1b6044820152606490fd5b6040906003190112610106576004359060243590565b600435906001600160a01b038216820361010657565b8054821015610a5e576000526005602060002091020190600090565b634e487b7160e01b600052603260045260246000fd5b15610a7b57565b60405162461bcd60e51b81526020600482015260126024820152710416d6f756e74206d757374206265203e20360741b6044820152606490fd5b818102929181159184041417156103ff57565b919082018092116103ff57565b60a0810190811067ffffffffffffffff821117610af157604052565b634e487b7160e01b600052604160045260246000fd5b90601f8019910116810190811067ffffffffffffffff821117610af157604052565b805468010000000000000000811015610af157610b4b91600182018155610a42565b610b8a5760046080918351815560208401516001820155604084015160028201556060840151600382015501910151151560ff80198354169116179055565b634e487b7160e01b600052600060045260246000fd5b15610ba757565b60405162461bcd60e51b815260206004820152600d60248201526c092dcecc2d8d2c840d2dcc8caf609b1b6044820152606490fd5b61016d811015610c195760b4811015610c1257605a811015610c0b57601e1115610c0557600090565b6103e890565b506109c490565b5061138890565b5061271090565b600260015414610c31576002600155565b633ee5aeb560e01b60005260046000fd5b6040516323b872dd60e01b60208201526001600160a01b039283166024820152929091166044830152606480830193909352918152610c8691610780608483610b07565b565b6000546001600160a01b03163303610c9c57565b63118cdaa760e01b6000523360045260246000fd5b906000602091828151910182855af115610831576000513d610d0357506001600160a01b0381163b155b610ce25750565b635274afe760e01b60009081526001600160a01b0391909116600452602490fd5b60011415610cdb56fea2646970667358221220d598bbe399f9c43c0382815afab38d85320a74a2b477940e482d122c22d9913064736f6c634300081c0033","opcodes":"PUSH1 0xA0 CALLVALUE PUSH2 0x128 JUMPI PUSH1 0x1F PUSH2 0xE86 CODESIZE DUP2 SWAP1 SUB SWAP2 DUP3 ADD PUSH1 0x1F NOT AND DUP4 ADD SWAP2 PUSH1 0x1 PUSH1 0x1 PUSH1 0x40 SHL SUB DUP4 GT DUP5 DUP5 LT OR PUSH2 0x12D JUMPI DUP1 DUP5 SWAP3 PUSH1 0x20 SWAP5 PUSH1 0x40 MSTORE DUP4 CODECOPY DUP2 ADD SUB SLT PUSH2 0x128 JUMPI MLOAD PUSH1 0x1 PUSH1 0x1 PUSH1 0xA0 SHL SUB DUP2 AND SWAP1 DUP2 SWAP1 SUB PUSH2 0x128 JUMPI CALLER ISZERO PUSH2 0x112 JUMPI PUSH1 0x0 DUP1 SLOAD CALLER PUSH1 0x1 PUSH1 0x1 PUSH1 0xA0 SHL SUB NOT DUP3 AND DUP2 OR DUP4 SSTORE PUSH1 0x40 MLOAD SWAP3 SWAP1 SWAP2 PUSH1 0x1 PUSH1 0x1 PUSH1 0xA0 SHL SUB AND SWAP1 PUSH32 0x8BE0079C531659141344CD1FD0A4F28419497F9722A3DAAFE3B4186F6B6457E0 SWAP1 DUP1 LOG3 PUSH1 0x1 DUP1 SSTORE DUP2 ISZERO PUSH2 0xE0 JUMPI POP PUSH1 0x80 MSTORE PUSH1 0x40 MLOAD PUSH2 0xD42 SWAP1 DUP2 PUSH2 0x144 DUP3 CODECOPY PUSH1 0x80 MLOAD DUP2 DUP2 DUP2 PUSH1 0xD7 ADD MSTORE DUP2 DUP2 PUSH2 0x24D ADD MSTORE DUP2 DUP2 PUSH2 0x6BA ADD MSTORE DUP2 DUP2 PUSH2 0x8D1 ADD MSTORE PUSH2 0x92F ADD MSTORE RETURN JUMPDEST PUSH3 0x461BCD PUSH1 0xE5 SHL DUP2 MSTORE PUSH1 0x20 PUSH1 0x4 DUP3 ADD MSTORE PUSH1 0xD PUSH1 0x24 DUP3 ADD MSTORE PUSH13 0x24B73B30B634B2103A37B5B2B7 PUSH1 0x99 SHL PUSH1 0x44 DUP3 ADD MSTORE PUSH1 0x64 SWAP1 REVERT JUMPDEST PUSH4 0x1E4FBDF7 PUSH1 0xE0 SHL PUSH1 0x0 MSTORE PUSH1 0x0 PUSH1 0x4 MSTORE PUSH1 0x24 PUSH1 0x0 REVERT JUMPDEST PUSH1 0x0 DUP1 REVERT JUMPDEST PUSH4 0x4E487B71 PUSH1 0xE0 SHL PUSH1 0x0 MSTORE PUSH1 0x41 PUSH1 0x4 MSTORE PUSH1 0x24 PUSH1 0x0 REVERT INVALID PUSH1 0x80 PUSH1 0x40 MSTORE PUSH1 0x4 CALLDATASIZE LT ISZERO PUSH2 0x12 JUMPI PUSH1 0x0 DUP1 REVERT JUMPDEST PUSH1 0x0 CALLDATALOAD PUSH1 0xE0 SHR DUP1 PUSH4 0x1338736F EQ PUSH2 0x8F7 JUMPI DUP1 PUSH4 0x4B7AEB21 EQ PUSH2 0x8AE JUMPI DUP1 PUSH4 0x6198E339 EQ PUSH2 0x61F JUMPI DUP1 PUSH4 0x715018A6 EQ PUSH2 0x5C6 JUMPI DUP1 PUSH4 0x817B1CD2 EQ PUSH2 0x5A8 JUMPI DUP1 PUSH4 0x8325263C EQ PUSH2 0x58A JUMPI DUP1 PUSH4 0x8DA5CB5B EQ PUSH2 0x561 JUMPI DUP1 PUSH4 0x971FE937 EQ PUSH2 0x4DC JUMPI DUP1 PUSH4 0xA458BD3E EQ PUSH2 0x42D JUMPI DUP1 PUSH4 0xC3453153 EQ PUSH2 0x34E JUMPI DUP1 PUSH4 0xCB44ACC6 EQ PUSH2 0x1F4 JUMPI DUP1 PUSH4 0xCF57EE69 EQ PUSH2 0x1BA JUMPI DUP1 PUSH4 0xE37CD202 EQ PUSH2 0x194 JUMPI DUP1 PUSH4 0xF2FDE38B EQ PUSH2 0x10B JUMPI PUSH4 0xFC0C546A EQ PUSH2 0xC1 JUMPI PUSH1 0x0 DUP1 REVERT JUMPDEST CALLVALUE PUSH2 0x106 JUMPI PUSH1 0x0 CALLDATASIZE PUSH1 0x3 NOT ADD SLT PUSH2 0x106 JUMPI PUSH1 0x40 MLOAD PUSH32 0x0 PUSH1 0x1 PUSH1 0x1 PUSH1 0xA0 SHL SUB AND DUP2 MSTORE PUSH1 0x20 SWAP1 RETURN JUMPDEST PUSH1 0x0 DUP1 REVERT JUMPDEST CALLVALUE PUSH2 0x106 JUMPI PUSH1 0x20 CALLDATASIZE PUSH1 0x3 NOT ADD SLT PUSH2 0x106 JUMPI PUSH2 0x124 PUSH2 0xA2C JUMP JUMPDEST PUSH2 0x12C PUSH2 0xC88 JUMP JUMPDEST PUSH1 0x1 PUSH1 0x1 PUSH1 0xA0 SHL SUB AND DUP1 ISZERO PUSH2 0x17E JUMPI PUSH1 0x0 DUP1 SLOAD PUSH1 0x1 PUSH1 0x1 PUSH1 0xA0 SHL SUB NOT DUP2 AND DUP4 OR DUP3 SSTORE PUSH1 0x1 PUSH1 0x1 PUSH1 0xA0 SHL SUB AND SWAP1 PUSH32 0x8BE0079C531659141344CD1FD0A4F28419497F9722A3DAAFE3B4186F6B6457E0 SWAP1 DUP1 LOG3 STOP JUMPDEST PUSH4 0x1E4FBDF7 PUSH1 0xE0 SHL PUSH1 0x0 MSTORE PUSH1 0x0 PUSH1 0x4 MSTORE PUSH1 0x24 PUSH1 0x0 REVERT JUMPDEST CALLVALUE PUSH2 0x106 JUMPI PUSH1 0x20 CALLDATASIZE PUSH1 0x3 NOT ADD SLT PUSH2 0x106 JUMPI PUSH1 0x20 PUSH2 0x1B2 PUSH1 0x4 CALLDATALOAD PUSH2 0xBDC JUMP JUMPDEST PUSH1 0x40 MLOAD SWAP1 DUP2 MSTORE RETURN JUMPDEST CALLVALUE PUSH2 0x106 JUMPI PUSH1 0x20 CALLDATASIZE PUSH1 0x3 NOT ADD SLT PUSH2 0x106 JUMPI PUSH1 0x1 PUSH1 0x1 PUSH1 0xA0 SHL SUB PUSH2 0x1DB PUSH2 0xA2C JUMP JUMPDEST AND PUSH1 0x0 MSTORE PUSH1 0x2 PUSH1 0x20 MSTORE PUSH1 0x20 PUSH1 0x40 PUSH1 0x0 KECCAK256 SLOAD PUSH1 0x40 MLOAD SWAP1 DUP2 MSTORE RETURN JUMPDEST CALLVALUE PUSH2 0x106 JUMPI PUSH2 0x202 CALLDATASIZE PUSH2 0xA16 JUMP JUMPDEST PUSH2 0x20A PUSH2 0xC88 JUMP JUMPDEST PUSH2 0x212 PUSH2 0xC20 JUMP JUMPDEST PUSH2 0x21D DUP3 ISZERO ISZERO PUSH2 0xA74 JUMP JUMPDEST DUP1 ISZERO PUSH2 0x309 JUMPI PUSH32 0x9CFD25589D1EB8AD71E342A86A8524E83522E3936C0803048C08F6D9AD974F40 SWAP1 PUSH2 0x271 DUP4 ADDRESS CALLER PUSH32 0x0 PUSH2 0xC42 JUMP JUMPDEST PUSH3 0x15180 DUP2 DIV PUSH2 0x300 PUSH2 0x28D PUSH2 0x286 DUP4 PUSH2 0xBDC JUMP JUMPDEST SWAP4 TIMESTAMP PUSH2 0xAC8 JUMP JUMPDEST CALLER PUSH1 0x0 MSTORE PUSH1 0x2 PUSH1 0x20 MSTORE PUSH2 0x2CC PUSH1 0x40 PUSH1 0x0 KECCAK256 PUSH1 0x40 MLOAD SWAP1 PUSH2 0x2AB DUP3 PUSH2 0xAD5 JUMP JUMPDEST DUP9 DUP3 MSTORE TIMESTAMP PUSH1 0x20 DUP4 ADD MSTORE DUP4 PUSH1 0x40 DUP4 ADD MSTORE DUP7 PUSH1 0x60 DUP4 ADD MSTORE PUSH1 0x0 PUSH1 0x80 DUP4 ADD MSTORE PUSH2 0xB29 JUMP JUMPDEST PUSH2 0x2D8 DUP7 PUSH1 0x3 SLOAD PUSH2 0xAC8 JUMP JUMPDEST PUSH1 0x3 SSTORE PUSH1 0x40 MLOAD SWAP4 DUP5 SWAP4 CALLER SWAP8 DUP6 SWAP1 SWAP5 SWAP4 SWAP3 PUSH1 0x60 SWAP3 PUSH1 0x80 DUP4 ADD SWAP7 DUP4 MSTORE PUSH1 0x20 DUP4 ADD MSTORE PUSH1 0x40 DUP3 ADD MSTORE ADD MSTORE JUMP JUMPDEST SUB SWAP1 LOG2 PUSH1 0x1 DUP1 SSTORE STOP JUMPDEST PUSH1 0x40 MLOAD PUSH3 0x461BCD PUSH1 0xE5 SHL DUP2 MSTORE PUSH1 0x20 PUSH1 0x4 DUP3 ADD MSTORE PUSH1 0x18 PUSH1 0x24 DUP3 ADD MSTORE PUSH32 0x4C6F636B207365636F6E6473206D757374206265203E20300000000000000000 PUSH1 0x44 DUP3 ADD MSTORE PUSH1 0x64 SWAP1 REVERT JUMPDEST CALLVALUE PUSH2 0x106 JUMPI PUSH1 0x20 CALLDATASIZE PUSH1 0x3 NOT ADD SLT PUSH2 0x106 JUMPI PUSH2 0x367 PUSH2 0xA2C JUMP JUMPDEST PUSH1 0x0 SWAP1 PUSH1 0x1 PUSH1 0x1 PUSH1 0xA0 SHL SUB AND DUP2 DUP1 DUP1 JUMPDEST DUP4 PUSH1 0x0 MSTORE PUSH1 0x2 PUSH1 0x20 MSTORE PUSH1 0x40 PUSH1 0x0 KECCAK256 SLOAD DUP2 LT ISZERO PUSH2 0x415 JUMPI DUP4 PUSH1 0x0 MSTORE PUSH1 0x2 PUSH1 0x20 MSTORE PUSH2 0x3A4 DUP2 PUSH1 0x40 PUSH1 0x0 KECCAK256 PUSH2 0xA42 JUMP JUMPDEST POP PUSH1 0xFF PUSH1 0x4 DUP3 ADD SLOAD AND ISZERO PUSH2 0x3BC JUMPI JUMPDEST POP PUSH1 0x1 ADD PUSH2 0x377 JUMP JUMPDEST SWAP3 SWAP5 SWAP1 SWAP2 SWAP1 PUSH1 0x0 NOT DUP2 EQ PUSH2 0x3FF JUMPI PUSH1 0x1 SWAP2 PUSH2 0x2710 PUSH2 0x3F1 DUP5 PUSH2 0x3F8 SWAP5 ADD SWAP9 PUSH1 0x3 PUSH2 0x3E8 DUP10 SLOAD DUP1 SWAP4 PUSH2 0xAC8 JUMP JUMPDEST SWAP9 ADD SLOAD SWAP1 PUSH2 0xAB5 JUMP JUMPDEST DIV SWAP1 PUSH2 0xAC8 JUMP JUMPDEST SWAP2 SWAP1 PUSH2 0x3B3 JUMP JUMPDEST PUSH4 0x4E487B71 PUSH1 0xE0 SHL PUSH1 0x0 MSTORE PUSH1 0x11 PUSH1 0x4 MSTORE PUSH1 0x24 PUSH1 0x0 REVERT JUMPDEST POP PUSH1 0x40 DUP1 MLOAD DUP6 DUP2 MSTORE PUSH1 0x20 DUP2 ADD SWAP4 SWAP1 SWAP4 MSTORE DUP3 ADD MSTORE PUSH1 0x60 SWAP1 RETURN JUMPDEST CALLVALUE PUSH2 0x106 JUMPI PUSH1 0x40 CALLDATASIZE PUSH1 0x3 NOT ADD SLT PUSH2 0x106 JUMPI PUSH1 0xC0 PUSH2 0x485 PUSH2 0x44B PUSH2 0xA2C JUMP JUMPDEST PUSH1 0x1 PUSH1 0x1 PUSH1 0xA0 SHL SUB AND PUSH1 0x0 DUP2 DUP2 MSTORE PUSH1 0x2 PUSH1 0x20 MSTORE PUSH1 0x40 SWAP1 KECCAK256 SLOAD PUSH1 0x24 CALLDATALOAD SWAP2 SWAP1 PUSH2 0x473 SWAP1 DUP4 LT PUSH2 0xBA0 JUMP JUMPDEST PUSH1 0x0 MSTORE PUSH1 0x2 PUSH1 0x20 MSTORE PUSH1 0x40 PUSH1 0x0 KECCAK256 PUSH2 0xA42 JUMP JUMPDEST POP DUP1 SLOAD SWAP1 PUSH1 0x1 DUP2 ADD SLOAD SWAP1 PUSH1 0x2 DUP2 ADD SLOAD SWAP1 PUSH1 0xFF PUSH1 0x4 PUSH1 0x3 DUP4 ADD SLOAD SWAP3 ADD SLOAD AND SWAP2 DUP1 TIMESTAMP LT ISZERO SWAP4 DUP5 PUSH2 0x4D3 JUMPI JUMPDEST PUSH1 0x40 MLOAD SWAP6 DUP7 MSTORE PUSH1 0x20 DUP7 ADD MSTORE PUSH1 0x40 DUP6 ADD MSTORE PUSH1 0x60 DUP5 ADD MSTORE ISZERO ISZERO PUSH1 0x80 DUP4 ADD MSTORE ISZERO ISZERO PUSH1 0xA0 DUP3 ADD MSTORE RETURN JUMPDEST DUP4 ISZERO SWAP5 POP PUSH2 0x4AE JUMP JUMPDEST CALLVALUE PUSH2 0x106 JUMPI PUSH1 0x40 CALLDATASIZE PUSH1 0x3 NOT ADD SLT PUSH2 0x106 JUMPI PUSH2 0x4F5 PUSH2 0xA2C JUMP JUMPDEST PUSH1 0x1 PUSH1 0x1 PUSH1 0xA0 SHL SUB AND PUSH1 0x0 SWAP1 DUP2 MSTORE PUSH1 0x2 PUSH1 0x20 MSTORE PUSH1 0x40 SWAP1 KECCAK256 DUP1 SLOAD PUSH1 0x24 CALLDATALOAD SWAP2 SWAP1 DUP3 LT ISZERO PUSH2 0x106 JUMPI PUSH1 0xA0 SWAP2 PUSH2 0x526 SWAP2 PUSH2 0xA42 JUMP JUMPDEST POP DUP1 SLOAD SWAP1 PUSH1 0x1 DUP2 ADD SLOAD SWAP1 PUSH1 0x2 DUP2 ADD SLOAD PUSH1 0xFF PUSH1 0x4 PUSH1 0x3 DUP5 ADD SLOAD SWAP4 ADD SLOAD AND SWAP3 PUSH1 0x40 MLOAD SWAP5 DUP6 MSTORE PUSH1 0x20 DUP6 ADD MSTORE PUSH1 0x40 DUP5 ADD MSTORE PUSH1 0x60 DUP4 ADD MSTORE ISZERO ISZERO PUSH1 0x80 DUP3 ADD MSTORE RETURN JUMPDEST CALLVALUE PUSH2 0x106 JUMPI PUSH1 0x0 CALLDATASIZE PUSH1 0x3 NOT ADD SLT PUSH2 0x106 JUMPI PUSH1 0x0 SLOAD PUSH1 0x40 MLOAD PUSH1 0x1 PUSH1 0x1 PUSH1 0xA0 SHL SUB SWAP1 SWAP2 AND DUP2 MSTORE PUSH1 0x20 SWAP1 RETURN JUMPDEST CALLVALUE PUSH2 0x106 JUMPI PUSH1 0x0 CALLDATASIZE PUSH1 0x3 NOT ADD SLT PUSH2 0x106 JUMPI PUSH1 0x20 PUSH1 0x4 SLOAD PUSH1 0x40 MLOAD SWAP1 DUP2 MSTORE RETURN JUMPDEST CALLVALUE PUSH2 0x106 JUMPI PUSH1 0x0 CALLDATASIZE PUSH1 0x3 NOT ADD SLT PUSH2 0x106 JUMPI PUSH1 0x20 PUSH1 0x3 SLOAD PUSH1 0x40 MLOAD SWAP1 DUP2 MSTORE RETURN JUMPDEST CALLVALUE PUSH2 0x106 JUMPI PUSH1 0x0 CALLDATASIZE PUSH1 0x3 NOT ADD SLT PUSH2 0x106 JUMPI PUSH2 0x5DF PUSH2 0xC88 JUMP JUMPDEST PUSH1 0x0 DUP1 SLOAD PUSH1 0x1 PUSH1 0x1 PUSH1 0xA0 SHL SUB NOT DUP2 AND DUP3 SSTORE PUSH1 0x1 PUSH1 0x1 PUSH1 0xA0 SHL SUB AND PUSH32 0x8BE0079C531659141344CD1FD0A4F28419497F9722A3DAAFE3B4186F6B6457E0 DUP3 DUP1 LOG3 STOP JUMPDEST CALLVALUE PUSH2 0x106 JUMPI PUSH1 0x20 CALLDATASIZE PUSH1 0x3 NOT ADD SLT PUSH2 0x106 JUMPI PUSH2 0x66A PUSH1 0x4 CALLDATALOAD PUSH2 0x63E PUSH2 0xC20 JUMP JUMPDEST CALLER PUSH1 0x0 MSTORE PUSH1 0x2 PUSH1 0x20 MSTORE PUSH2 0x657 PUSH1 0x40 PUSH1 0x0 KECCAK256 SLOAD DUP3 LT PUSH2 0xBA0 JUMP JUMPDEST CALLER PUSH1 0x0 MSTORE PUSH1 0x2 PUSH1 0x20 MSTORE PUSH1 0x40 PUSH1 0x0 KECCAK256 PUSH2 0xA42 JUMP JUMPDEST POP PUSH1 0x4 DUP2 ADD DUP1 SLOAD SWAP1 PUSH1 0xFF DUP3 AND PUSH2 0x875 JUMPI PUSH1 0x2 DUP4 ADD SLOAD TIMESTAMP LT PUSH2 0x83D JUMPI DUP3 SLOAD SWAP3 PUSH2 0x2710 PUSH2 0x699 PUSH1 0x3 DUP4 ADD SLOAD DUP7 PUSH2 0xAB5 JUMP JUMPDEST DIV SWAP4 PUSH2 0x6A5 DUP6 DUP3 PUSH2 0xAC8 JUMP JUMPDEST PUSH1 0x40 MLOAD PUSH4 0x70A08231 PUSH1 0xE0 SHL DUP2 MSTORE ADDRESS PUSH1 0x4 DUP3 ADD MSTORE PUSH32 0x0 SWAP6 SWAP2 SWAP5 SWAP2 SWAP1 PUSH1 0x20 DUP2 PUSH1 0x24 DUP2 PUSH1 0x1 PUSH1 0x1 PUSH1 0xA0 SHL SUB DUP12 AND GAS STATICCALL DUP1 ISZERO PUSH2 0x831 JUMPI DUP7 SWAP2 PUSH1 0x0 SWAP2 PUSH2 0x7FC JUMPI JUMPDEST POP LT PUSH2 0x7A5 JUMPI PUSH1 0xFF NOT AND PUSH1 0x1 OR SWAP1 SSTORE PUSH1 0x3 SLOAD SWAP1 DUP2 SUB SWAP1 DUP2 GT PUSH2 0x3FF JUMPI PUSH32 0x204FCCF0D92ED8D48F204ADB39B2E81E92BAD0DEDB93F5716CA9478CFB57DE00 SWAP4 PUSH2 0x785 SWAP2 PUSH1 0x3 SSTORE PUSH2 0x751 DUP7 PUSH1 0x4 SLOAD PUSH2 0xAC8 JUMP JUMPDEST PUSH1 0x4 SSTORE PUSH1 0x40 MLOAD PUSH4 0xA9059CBB PUSH1 0xE0 SHL PUSH1 0x20 DUP3 ADD MSTORE CALLER PUSH1 0x24 DUP3 ADD MSTORE PUSH1 0x44 DUP1 DUP3 ADD DUP7 SWAP1 MSTORE DUP2 MSTORE SWAP1 PUSH2 0x780 PUSH1 0x64 DUP4 PUSH2 0xB07 JUMP JUMPDEST PUSH2 0xCB1 JUMP JUMPDEST SLOAD PUSH1 0x40 DUP1 MLOAD SWAP2 DUP3 MSTORE PUSH1 0x20 DUP3 ADD SWAP5 SWAP1 SWAP5 MSTORE SWAP3 DUP4 ADD MSTORE CALLER SWAP2 DUP1 PUSH1 0x60 DUP2 ADD PUSH2 0x300 JUMP JUMPDEST PUSH1 0x40 MLOAD PUSH3 0x461BCD PUSH1 0xE5 SHL DUP2 MSTORE PUSH1 0x20 PUSH1 0x4 DUP3 ADD MSTORE PUSH1 0x29 PUSH1 0x24 DUP3 ADD MSTORE PUSH32 0x496E73756666696369656E7420626F6E757320706F6F6C3A2066756E64206D6F PUSH1 0x44 DUP3 ADD MSTORE PUSH9 0x726520746F6B656E73 PUSH1 0xB8 SHL PUSH1 0x64 DUP3 ADD MSTORE PUSH1 0x84 SWAP1 REVERT JUMPDEST SWAP2 POP POP PUSH1 0x20 DUP2 RETURNDATASIZE PUSH1 0x20 GT PUSH2 0x829 JUMPI JUMPDEST DUP2 PUSH2 0x818 PUSH1 0x20 SWAP4 DUP4 PUSH2 0xB07 JUMP JUMPDEST DUP2 ADD SUB SLT PUSH2 0x106 JUMPI DUP6 SWAP1 MLOAD DUP10 PUSH2 0x700 JUMP JUMPDEST RETURNDATASIZE SWAP2 POP PUSH2 0x80B JUMP JUMPDEST PUSH1 0x40 MLOAD RETURNDATASIZE PUSH1 0x0 DUP3 RETURNDATACOPY RETURNDATASIZE SWAP1 REVERT JUMPDEST PUSH1 0x40 MLOAD PUSH3 0x461BCD PUSH1 0xE5 SHL DUP2 MSTORE PUSH1 0x20 PUSH1 0x4 DUP3 ADD MSTORE PUSH1 0x10 PUSH1 0x24 DUP3 ADD MSTORE PUSH16 0x131BD8DAC81B9BDD08195E1C1A5C9959 PUSH1 0x82 SHL PUSH1 0x44 DUP3 ADD MSTORE PUSH1 0x64 SWAP1 REVERT JUMPDEST PUSH1 0x40 MLOAD PUSH3 0x461BCD PUSH1 0xE5 SHL DUP2 MSTORE PUSH1 0x20 PUSH1 0x4 DUP3 ADD MSTORE PUSH1 0x11 PUSH1 0x24 DUP3 ADD MSTORE PUSH17 0x20B63932B0B23C903BB4BA34323930BBB7 PUSH1 0x79 SHL PUSH1 0x44 DUP3 ADD MSTORE PUSH1 0x64 SWAP1 REVERT JUMPDEST CALLVALUE PUSH2 0x106 JUMPI PUSH1 0x20 CALLDATASIZE PUSH1 0x3 NOT ADD SLT PUSH2 0x106 JUMPI PUSH2 0x8C7 PUSH2 0xC88 JUMP JUMPDEST PUSH2 0x8F5 PUSH1 0x4 CALLDATALOAD ADDRESS CALLER PUSH32 0x0 PUSH2 0xC42 JUMP JUMPDEST STOP JUMPDEST CALLVALUE PUSH2 0x106 JUMPI PUSH2 0x905 CALLDATASIZE PUSH2 0xA16 JUMP JUMPDEST PUSH2 0x90D PUSH2 0xC20 JUMP JUMPDEST PUSH2 0x918 DUP3 ISZERO ISZERO PUSH2 0xA74 JUMP JUMPDEST DUP1 ISZERO PUSH2 0x9D9 JUMPI PUSH2 0x16D DUP2 GT PUSH2 0x99D JUMPI PUSH2 0x953 DUP3 ADDRESS CALLER PUSH32 0x0 PUSH2 0xC42 JUMP JUMPDEST PUSH2 0x95C DUP2 PUSH2 0xBDC JUMP JUMPDEST PUSH3 0x15180 DUP3 MUL SWAP2 DUP1 DUP4 DIV PUSH3 0x15180 SUB PUSH2 0x3FF JUMPI PUSH2 0x300 PUSH2 0x28D PUSH32 0x9CFD25589D1EB8AD71E342A86A8524E83522E3936C0803048C08F6D9AD974F40 SWAP5 TIMESTAMP PUSH2 0xAC8 JUMP JUMPDEST PUSH1 0x40 MLOAD PUSH3 0x461BCD PUSH1 0xE5 SHL DUP2 MSTORE PUSH1 0x20 PUSH1 0x4 DUP3 ADD MSTORE PUSH1 0x14 PUSH1 0x24 DUP3 ADD MSTORE PUSH20 0x4D6178206C6F636B206973203336352064617973 PUSH1 0x60 SHL PUSH1 0x44 DUP3 ADD MSTORE PUSH1 0x64 SWAP1 REVERT JUMPDEST PUSH1 0x40 MLOAD PUSH3 0x461BCD PUSH1 0xE5 SHL DUP2 MSTORE PUSH1 0x20 PUSH1 0x4 DUP3 ADD MSTORE PUSH1 0x15 PUSH1 0x24 DUP3 ADD MSTORE PUSH21 0x4C6F636B2064617973206D757374206265203E203 PUSH1 0x5C SHL PUSH1 0x44 DUP3 ADD MSTORE PUSH1 0x64 SWAP1 REVERT JUMPDEST PUSH1 0x40 SWAP1 PUSH1 0x3 NOT ADD SLT PUSH2 0x106 JUMPI PUSH1 0x4 CALLDATALOAD SWAP1 PUSH1 0x24 CALLDATALOAD SWAP1 JUMP JUMPDEST PUSH1 0x4 CALLDATALOAD SWAP1 PUSH1 0x1 PUSH1 0x1 PUSH1 0xA0 SHL SUB DUP3 AND DUP3 SUB PUSH2 0x106 JUMPI JUMP JUMPDEST DUP1 SLOAD DUP3 LT ISZERO PUSH2 0xA5E JUMPI PUSH1 0x0 MSTORE PUSH1 0x5 PUSH1 0x20 PUSH1 0x0 KECCAK256 SWAP2 MUL ADD SWAP1 PUSH1 0x0 SWAP1 JUMP JUMPDEST PUSH4 0x4E487B71 PUSH1 0xE0 SHL PUSH1 0x0 MSTORE PUSH1 0x32 PUSH1 0x4 MSTORE PUSH1 0x24 PUSH1 0x0 REVERT JUMPDEST ISZERO PUSH2 0xA7B JUMPI JUMP JUMPDEST PUSH1 0x40 MLOAD PUSH3 0x461BCD PUSH1 0xE5 SHL DUP2 MSTORE PUSH1 0x20 PUSH1 0x4 DUP3 ADD MSTORE PUSH1 0x12 PUSH1 0x24 DUP3 ADD MSTORE PUSH18 0x416D6F756E74206D757374206265203E203 PUSH1 0x74 SHL PUSH1 0x44 DUP3 ADD MSTORE PUSH1 0x64 SWAP1 REVERT JUMPDEST DUP2 DUP2 MUL SWAP3 SWAP2 DUP2 ISZERO SWAP2 DUP5 DIV EQ OR ISZERO PUSH2 0x3FF JUMPI JUMP JUMPDEST SWAP2 SWAP1 DUP3 ADD DUP1 SWAP3 GT PUSH2 0x3FF JUMPI JUMP JUMPDEST PUSH1 0xA0 DUP2 ADD SWAP1 DUP2 LT PUSH8 0xFFFFFFFFFFFFFFFF DUP3 GT OR PUSH2 0xAF1 JUMPI PUSH1 0x40 MSTORE JUMP JUMPDEST PUSH4 0x4E487B71 PUSH1 0xE0 SHL PUSH1 0x0 MSTORE PUSH1 0x41 PUSH1 0x4 MSTORE PUSH1 0x24 PUSH1 0x0 REVERT JUMPDEST SWAP1 PUSH1 0x1F DUP1 NOT SWAP2 ADD AND DUP2 ADD SWAP1 DUP2 LT PUSH8 0xFFFFFFFFFFFFFFFF DUP3 GT OR PUSH2 0xAF1 JUMPI PUSH1 0x40 MSTORE JUMP JUMPDEST DUP1 SLOAD PUSH9 0x10000000000000000 DUP2 LT ISZERO PUSH2 0xAF1 JUMPI PUSH2 0xB4B SWAP2 PUSH1 0x1 DUP3 ADD DUP2 SSTORE PUSH2 0xA42 JUMP JUMPDEST PUSH2 0xB8A JUMPI PUSH1 0x4 PUSH1 0x80 SWAP2 DUP4 MLOAD DUP2 SSTORE PUSH1 0x20 DUP5 ADD MLOAD PUSH1 0x1 DUP3 ADD SSTORE PUSH1 0x40 DUP5 ADD MLOAD PUSH1 0x2 DUP3 ADD SSTORE PUSH1 0x60 DUP5 ADD MLOAD PUSH1 0x3 DUP3 ADD SSTORE ADD SWAP2 ADD MLOAD ISZERO ISZERO PUSH1 0xFF DUP1 NOT DUP4 SLOAD AND SWAP2 AND OR SWAP1 SSTORE JUMP JUMPDEST PUSH4 0x4E487B71 PUSH1 0xE0 SHL PUSH1 0x0 MSTORE PUSH1 0x0 PUSH1 0x4 MSTORE PUSH1 0x24 PUSH1 0x0 REVERT JUMPDEST ISZERO PUSH2 0xBA7 JUMPI JUMP JUMPDEST PUSH1 0x40 MLOAD PUSH3 0x461BCD PUSH1 0xE5 SHL DUP2 MSTORE PUSH1 0x20 PUSH1 0x4 DUP3 ADD MSTORE PUSH1 0xD PUSH1 0x24 DUP3 ADD MSTORE PUSH13 0x92DCECC2D8D2C840D2DCC8CAF PUSH1 0x9B SHL PUSH1 0x44 DUP3 ADD MSTORE PUSH1 0x64 SWAP1 REVERT JUMPDEST PUSH2 0x16D DUP2 LT ISZERO PUSH2 0xC19 JUMPI PUSH1 0xB4 DUP2 LT ISZERO PUSH2 0xC12 JUMPI PUSH1 0x5A DUP2 LT ISZERO PUSH2 0xC0B JUMPI PUSH1 0x1E GT ISZERO PUSH2 0xC05 JUMPI PUSH1 0x0 SWAP1 JUMP JUMPDEST PUSH2 0x3E8 SWAP1 JUMP JUMPDEST POP PUSH2 0x9C4 SWAP1 JUMP JUMPDEST POP PUSH2 0x1388 SWAP1 JUMP JUMPDEST POP PUSH2 0x2710 SWAP1 JUMP JUMPDEST PUSH1 0x2 PUSH1 0x1 SLOAD EQ PUSH2 0xC31 JUMPI PUSH1 0x2 PUSH1 0x1 SSTORE JUMP JUMPDEST PUSH4 0x3EE5AEB5 PUSH1 0xE0 SHL PUSH1 0x0 MSTORE PUSH1 0x4 PUSH1 0x0 REVERT JUMPDEST PUSH1 0x40 MLOAD PUSH4 0x23B872DD PUSH1 0xE0 SHL PUSH1 0x20 DUP3 ADD MSTORE PUSH1 0x1 PUSH1 0x1 PUSH1 0xA0 SHL SUB SWAP3 DUP4 AND PUSH1 0x24 DUP3 ADD MSTORE SWAP3 SWAP1 SWAP2 AND PUSH1 0x44 DUP4 ADD MSTORE PUSH1 0x64 DUP1 DUP4 ADD SWAP4 SWAP1 SWAP4 MSTORE SWAP2 DUP2 MSTORE PUSH2 0xC86 SWAP2 PUSH2 0x780 PUSH1 0x84 DUP4 PUSH2 0xB07 JUMP JUMPDEST JUMP JUMPDEST PUSH1 0x0 SLOAD PUSH1 0x1 PUSH1 0x1 PUSH1 0xA0 SHL SUB AND CALLER SUB PUSH2 0xC9C JUMPI JUMP JUMPDEST PUSH4 0x118CDAA7 PUSH1 0xE0 SHL PUSH1 0x0 MSTORE CALLER PUSH1 0x4 MSTORE PUSH1 0x24 PUSH1 0x0 REVERT JUMPDEST SWAP1 PUSH1 0x0 PUSH1 0x20 SWAP2 DUP3 DUP2 MLOAD SWAP2 ADD DUP3 DUP6 GAS CALL ISZERO PUSH2 0x831 JUMPI PUSH1 0x0 MLOAD RETURNDATASIZE PUSH2 0xD03 JUMPI POP PUSH1 0x1 PUSH1 0x1 PUSH1 0xA0 SHL SUB DUP2 AND EXTCODESIZE ISZERO JUMPDEST PUSH2 0xCE2 JUMPI POP JUMP JUMPDEST PUSH4 0x5274AFE7 PUSH1 0xE0 SHL PUSH1 0x0 SWAP1 DUP2 MSTORE PUSH1 0x1 PUSH1 0x1 PUSH1 0xA0 SHL SUB SWAP2 SWAP1 SWAP2 AND PUSH1 0x4 MSTORE PUSH1 0x24 SWAP1 REVERT JUMPDEST PUSH1 0x1 EQ ISZERO PUSH2 0xCDB JUMP INVALID LOG2 PUSH5 0x6970667358 0x22 SLT KECCAK256 0xD5 SWAP9 0xBB 0xE3 SWAP10 0xF9 0xC4 EXTCODECOPY SUB DUP3 DUP2 GAS STATICCALL 0xB3 DUP14 DUP6 ORIGIN EXP PUSH21 0xA2B477940E482D122C22D9913064736F6C63430008 SHR STOP CALLER "},"methodIdentifiers":{"fundBonusPool(uint256)":"4b7aeb21","getBonusRate(uint256)":"e37cd202","getStakeCount(address)":"cf57ee69","getStakeInfo(address)":"c3453153","getStakeLock(address,uint256)":"a458bd3e","lock(uint256,uint256)":"1338736f","lockSeconds(uint256,uint256)":"cb44acc6","owner()":"8da5cb5b","renounceOwnership()":"715018a6","stakeLocks(address,uint256)":"971fe937","token()":"fc0c546a","totalBonusPaid()":"8325263c","totalStaked()":"817b1cd2","transferOwnership(address)":"f2fde38b","unlock(uint256)":"6198e339"}}}}}