{"src/templates/LuxToken.sol":{"LuxToken":{"abi":[{"inputs":[{"internalType":"string","name":"name","type":"string"},{"internalType":"string","name":"symbol","type":"string"},{"internalType":"uint256","name":"initialSupply","type":"uint256"},{"internalType":"uint256","name":"_maxSupply","type":"uint256"}],"stateMutability":"nonpayable","type":"constructor"},{"inputs":[],"name":"ECDSAInvalidSignature","type":"error"},{"inputs":[{"internalType":"uint256","name":"length","type":"uint256"}],"name":"ECDSAInvalidSignatureLength","type":"error"},{"inputs":[{"internalType":"bytes32","name":"s","type":"bytes32"}],"name":"ECDSAInvalidSignatureS","type":"error"},{"inputs":[{"internalType":"address","name":"spender","type":"address"},{"internalType":"uint256","name":"allowance","type":"uint256"},{"internalType":"uint256","name":"needed","type":"uint256"}],"name":"ERC20InsufficientAllowance","type":"error"},{"inputs":[{"internalType":"address","name":"sender","type":"address"},{"internalType":"uint256","name":"balance","type":"uint256"},{"internalType":"uint256","name":"needed","type":"uint256"}],"name":"ERC20InsufficientBalance","type":"error"},{"inputs":[{"internalType":"address","name":"approver","type":"address"}],"name":"ERC20InvalidApprover","type":"error"},{"inputs":[{"internalType":"address","name":"receiver","type":"address"}],"name":"ERC20InvalidReceiver","type":"error"},{"inputs":[{"internalType":"address","name":"sender","type":"address"}],"name":"ERC20InvalidSender","type":"error"},{"inputs":[{"internalType":"address","name":"spender","type":"address"}],"name":"ERC20InvalidSpender","type":"error"},{"inputs":[{"internalType":"uint256","name":"deadline","type":"uint256"}],"name":"ERC2612ExpiredSignature","type":"error"},{"inputs":[{"internalType":"address","name":"signer","type":"address"},{"internalType":"address","name":"owner","type":"address"}],"name":"ERC2612InvalidSigner","type":"error"},{"inputs":[{"internalType":"address","name":"account","type":"address"},{"internalType":"uint256","name":"currentNonce","type":"uint256"}],"name":"InvalidAccountNonce","type":"error"},{"inputs":[],"name":"InvalidShortString","type":"error"},{"inputs":[{"internalType":"address","name":"owner","type":"address"}],"name":"OwnableInvalidOwner","type":"error"},{"inputs":[{"internalType":"address","name":"account","type":"address"}],"name":"OwnableUnauthorizedAccount","type":"error"},{"inputs":[{"internalType":"string","name":"str","type":"string"}],"name":"StringTooLong","type":"error"},{"anonymous":false,"inputs":[{"indexed":true,"internalType":"address","name":"owner","type":"address"},{"indexed":true,"internalType":"address","name":"spender","type":"address"},{"indexed":false,"internalType":"uint256","name":"value","type":"uint256"}],"name":"Approval","type":"event"},{"anonymous":false,"inputs":[],"name":"EIP712DomainChanged","type":"event"},{"anonymous":false,"inputs":[],"name":"MintingDisabled","type":"event"},{"anonymous":false,"inputs":[{"indexed":true,"internalType":"address","name":"previousOwner","type":"address"},{"indexed":true,"internalType":"address","name":"newOwner","type":"address"}],"name":"OwnershipTransferred","type":"event"},{"anonymous":false,"inputs":[{"indexed":true,"internalType":"address","name":"to","type":"address"},{"indexed":false,"internalType":"uint256","name":"amount","type":"uint256"}],"name":"TokensMinted","type":"event"},{"anonymous":false,"inputs":[{"indexed":true,"internalType":"address","name":"from","type":"address"},{"indexed":true,"internalType":"address","name":"to","type":"address"},{"indexed":false,"internalType":"uint256","name":"value","type":"uint256"}],"name":"Transfer","type":"event"},{"inputs":[],"name":"DOMAIN_SEPARATOR","outputs":[{"internalType":"bytes32","name":"","type":"bytes32"}],"stateMutability":"view","type":"function"},{"inputs":[{"internalType":"address","name":"owner","type":"address"},{"internalType":"address","name":"spender","type":"address"}],"name":"allowance","outputs":[{"internalType":"uint256","name":"","type":"uint256"}],"stateMutability":"view","type":"function"},{"inputs":[{"internalType":"address","name":"spender","type":"address"},{"internalType":"uint256","name":"value","type":"uint256"}],"name":"approve","outputs":[{"internalType":"bool","name":"","type":"bool"}],"stateMutability":"nonpayable","type":"function"},{"inputs":[{"internalType":"address","name":"account","type":"address"}],"name":"balanceOf","outputs":[{"internalType":"uint256","name":"","type":"uint256"}],"stateMutability":"view","type":"function"},{"inputs":[{"internalType":"uint256","name":"value","type":"uint256"}],"name":"burn","outputs":[],"stateMutability":"nonpayable","type":"function"},{"inputs":[{"internalType":"address","name":"account","type":"address"},{"internalType":"uint256","name":"value","type":"uint256"}],"name":"burnFrom","outputs":[],"stateMutability":"nonpayable","type":"function"},{"inputs":[],"name":"decimals","outputs":[{"internalType":"uint8","name":"","type":"uint8"}],"stateMutability":"view","type":"function"},{"inputs":[],"name":"disableMinting","outputs":[],"stateMutability":"nonpayable","type":"function"},{"inputs":[],"name":"eip712Domain","outputs":[{"internalType":"bytes1","name":"fields","type":"bytes1"},{"internalType":"string","name":"name","type":"string"},{"internalType":"string","name":"version","type":"string"},{"internalType":"uint256","name":"chainId","type":"uint256"},{"internalType":"address","name":"verifyingContract","type":"address"},{"internalType":"bytes32","name":"salt","type":"bytes32"},{"internalType":"uint256[]","name":"extensions","type":"uint256[]"}],"stateMutability":"view","type":"function"},{"inputs":[],"name":"maxSupply","outputs":[{"internalType":"uint256","name":"","type":"uint256"}],"stateMutability":"view","type":"function"},{"inputs":[{"internalType":"address","name":"to","type":"address"},{"internalType":"uint256","name":"amount","type":"uint256"}],"name":"mint","outputs":[],"stateMutability":"nonpayable","type":"function"},{"inputs":[],"name":"mintingEnabled","outputs":[{"internalType":"bool","name":"","type":"bool"}],"stateMutability":"view","type":"function"},{"inputs":[],"name":"name","outputs":[{"internalType":"string","name":"","type":"string"}],"stateMutability":"view","type":"function"},{"inputs":[{"internalType":"address","name":"owner","type":"address"}],"name":"nonces","outputs":[{"internalType":"uint256","name":"","type":"uint256"}],"stateMutability":"view","type":"function"},{"inputs":[],"name":"owner","outputs":[{"internalType":"address","name":"","type":"address"}],"stateMutability":"view","type":"function"},{"inputs":[{"internalType":"address","name":"owner","type":"address"},{"internalType":"address","name":"spender","type":"address"},{"internalType":"uint256","name":"value","type":"uint256"},{"internalType":"uint256","name":"deadline","type":"uint256"},{"internalType":"uint8","name":"v","type":"uint8"},{"internalType":"bytes32","name":"r","type":"bytes32"},{"internalType":"bytes32","name":"s","type":"bytes32"}],"name":"permit","outputs":[],"stateMutability":"nonpayable","type":"function"},{"inputs":[],"name":"renounceOwnership","outputs":[],"stateMutability":"nonpayable","type":"function"},{"inputs":[],"name":"symbol","outputs":[{"internalType":"string","name":"","type":"string"}],"stateMutability":"view","type":"function"},{"inputs":[{"internalType":"uint256","name":"amount","type":"uint256"}],"name":"toTokenUnits","outputs":[{"internalType":"uint256","name":"","type":"uint256"}],"stateMutability":"view","type":"function"},{"inputs":[],"name":"totalSupply","outputs":[{"internalType":"uint256","name":"","type":"uint256"}],"stateMutability":"view","type":"function"},{"inputs":[{"internalType":"address","name":"to","type":"address"},{"internalType":"uint256","name":"value","type":"uint256"}],"name":"transfer","outputs":[{"internalType":"bool","name":"","type":"bool"}],"stateMutability":"nonpayable","type":"function"},{"inputs":[{"internalType":"address","name":"from","type":"address"},{"internalType":"address","name":"to","type":"address"},{"internalType":"uint256","name":"value","type":"uint256"}],"name":"transferFrom","outputs":[{"internalType":"bool","name":"","type":"bool"}],"stateMutability":"nonpayable","type":"function"},{"inputs":[{"internalType":"address","name":"newOwner","type":"address"}],"name":"transferOwnership","outputs":[],"stateMutability":"nonpayable","type":"function"}],"evm":{"bytecode":{"linkReferences":{},"object":"610160806040523461059457611a6b803803809161001d8285610599565b83398101906080818303126105945780516001600160401b03811161059457826100489183016105df565b602082015190926001600160401b038211610594576100689183016105df565b9160606040830151920151906040938451916100848684610599565b60018352603160f81b6020840190815281519092906001600160401b03811161049e57600354600181811c9116801561058a575b602082101461047e57601f8111610525575b50806020601f82116001146104bf576000916104b4575b508160011b916000199060031b1c1916176003555b8051906001600160401b03821161049e5760045490600182811c92168015610494575b602083101461047e5781601f84931161040e575b50602090601f83116001146103a65760009261039b575b50508160011b916000199060031b1c1916176004555b33156103855760058054336001600160a01b0319821681179092556001600160a01b03167f8be0079c531659141344cd1fd0a4f28419497f9722a3daafe3b4186f6b6457e0600080a36101ac81610633565b610120526101b9836107c4565b6101405260208151910120918260e05251902080610100524660a05284519060208201927f8b73c3c69bb8fe3d512ecc4cf759cc79239f7b179b0ffacaa9a75d522b39400f84528683015260608201524660808201523060a082015260a0815261022460c082610599565b5190206080523060c0528015801561037b575b1561034757600955600160ff19600a541617600a55801580156102a5575b82516111649081610907823960805181610d7f015260a05181610e3c015260c05181610d49015260e05181610dce01526101005181610df40152610120518161050f015261014051816105380152f35b670de0b6b3a76400008202918204670de0b6b3a764000014171561033157600060025482810180911161031d576002555033600052600060205281600020818154019055815190815260007fddf252ad1be2c89b69c2b068fc378daa952ba7f163c4a11628f55a4df523b3ef60203393a33880610255565b634e487b7160e01b82526011600452602482fd5b634e487b7160e01b600052601160045260246000fd5b825162461bcd60e51b815260206004820152600d60248201526c092dcd2e8d2c2d8407c40dac2f609b1b6044820152606490fd5b5080821115610237565b631e4fbdf760e01b600052600060045260246000fd5b015190503880610144565b600460009081528281209350601f198516905b8181106103f657509084600195949392106103dd575b505050811b0160045561015a565b015160001960f88460031b161c191690553880806103cf565b929360206001819287860151815501950193016103b9565b60046000529091507f8a35acfbc15ff81a39ae7d344fd709f28e8600b4aa8c65c6b64bfe7fe36bd19b601f840160051c81019160208510610474575b90601f859493920160051c01905b818110610465575061012d565b60008155849350600101610458565b909150819061044a565b634e487b7160e01b600052602260045260246000fd5b91607f1691610119565b634e487b7160e01b600052604160045260246000fd5b9050830151386100e1565b600360009081528181209250601f198416905b81811061050d575090836001949392106104f4575b5050811b016003556100f6565b85015160001960f88460031b161c1916905538806104e7565b9192602060018192868a0151815501940192016104d2565b60036000527fc2575a0e9e593c00f959f8c92f12db2869c3395a3b0502d05e2516446f71f85b601f830160051c81019160208410610580575b601f0160051c01905b81811061057457506100ca565b60008155600101610567565b909150819061055e565b90607f16906100b8565b600080fd5b601f909101601f19168101906001600160401b0382119082101761049e57604052565b60005b8381106105cf5750506000910152565b81810151838201526020016105bf565b81601f820112156105945780516001600160401b03811161049e5760405192610612601f8301601f191660200185610599565b818452602082840101116105945761063091602080850191016105bc565b90565b908151602081106000146106ae575090601f81511161066f57602081519101516020821061065f571790565b6000198260200360031b1b161790565b6044604051809263305a27a960e01b8252602060048301526106a081518092816024860152602086860191016105bc565b601f01601f19168101030190fd5b6001600160401b03811161049e57600654600181811c911680156107ba575b602082101461047e57601f8111610784575b50602092601f821160011461071f5792819293600092610714575b50508160011b916000199060031b1c19161760065560ff90565b0151905038806106fa565b601f198216936006600052806000209160005b86811061076c5750836001959610610753575b505050811b0160065560ff90565b015160001960f88460031b161c19169055388080610745565b91926020600181928685015181550194019201610732565b6006600052601f6020600020910160051c810190601f830160051c015b8181106107ae57506106df565b600081556001016107a1565b90607f16906106cd565b908151602081106000146107f0575090601f81511161066f57602081519101516020821061065f571790565b6001600160401b03811161049e57600754600181811c911680156108fc575b602082101461047e57601f81116108c6575b50602092601f82116001146108615792819293600092610856575b50508160011b916000199060031b1c19161760075560ff90565b01519050388061083c565b601f198216936007600052806000209160005b8681106108ae5750836001959610610895575b505050811b0160075560ff90565b015160001960f88460031b161c19169055388080610887565b91926020600181928685015181550194019201610874565b6007600052601f6020600020910160051c810190601f830160051c015b8181106108f05750610821565b600081556001016108e3565b90607f169061080f56fe608080604052600436101561001357600080fd5b60003560e01c90816306fdde031461098357508063095ea7b31461095d57806318160ddd1461093f57806323b872dd14610907578063313ce567146108eb5780633644e515146108d057806340c10f191461075b57806342966c681461073e57806370a0823114610704578063715018a6146106a757806379cc6790146106775780637e5cd5c11461062d5780637ecebe00146105f357806384b0196e146104f65780638da5cb5b146104cd57806395d89b41146103e85780639fd6db12146103c5578063a9059cbb14610394578063c2a755f414610365578063d505accf1461021a578063d5abeb01146101fc578063dd62ed3e146101ab5763f2fde38b1461011c57600080fd5b346101a65760203660031901126101a657610135610a69565b61013d610e62565b6001600160a01b0316801561019057600580546001600160a01b0319811683179091556001600160a01b03167f8be0079c531659141344cd1fd0a4f28419497f9722a3daafe3b4186f6b6457e0600080a3005b631e4fbdf760e01b600052600060045260246000fd5b600080fd5b346101a65760403660031901126101a6576101c4610a69565b6101cc610a7f565b6001600160a01b039182166000908152600160209081526040808320949093168252928352819020549051908152f35b346101a65760003660031901126101a6576020600954604051908152f35b346101a65760e03660031901126101a657610233610a69565b61023b610a7f565b604435906064359260843560ff811681036101a6578442116103505761031161031a9160018060a01b038416968760005260086020526040600020908154916001830190556040519060208201927f6e71edae12b1b97f4d1f60370fef10105fa2faae0126114a169c64845d6126c984528a604084015260018060a01b038916606084015289608084015260a083015260c082015260c081526102df60e082610b52565b5190206102ea610d46565b906040519161190160f01b83526002830152602282015260c43591604260a4359220611011565b909291926110a6565b6001600160a01b031684810361033757506103359350610f0c565b005b84906325c0072360e11b60005260045260245260446000fd5b8463313c898160e11b60005260045260246000fd5b346101a65760203660031901126101a657602061038c670de0b6b3a7640000600435610bad565b604051908152f35b346101a65760403660031901126101a6576103ba6103b0610a69565b6024359033610c97565b602060405160018152f35b346101a65760003660031901126101a657602060ff600a54166040519015158152f35b346101a65760003660031901126101a657604051600060045461040a81610a95565b80845290600181169081156104a9575060011461044a575b6104468361043281850382610b52565b604051918291602083526020830190610a28565b0390f35b600460009081527f8a35acfbc15ff81a39ae7d344fd709f28e8600b4aa8c65c6b64bfe7fe36bd19b939250905b80821061048f57509091508101602001610432610422565b919260018160209254838588010152019101909291610477565b60ff191660208086019190915291151560051b840190910191506104329050610422565b346101a65760003660031901126101a6576005546040516001600160a01b039091168152602090f35b346101a65760003660031901126101a6576105956105337f0000000000000000000000000000000000000000000000000000000000000000610f73565b61055c7f0000000000000000000000000000000000000000000000000000000000000000610fda565b60206105a36040519261056f8385610b52565b600084526000368137604051958695600f60f81b875260e08588015260e0870190610a28565b908582036040870152610a28565b466060850152306080850152600060a085015283810360c085015281808451928381520193019160005b8281106105dc57505050500390f35b8351855286955093810193928101926001016105cd565b346101a65760203660031901126101a6576001600160a01b03610614610a69565b1660005260086020526020604060002054604051908152f35b346101a65760003660031901126101a657610646610e62565b60ff19600a5416600a557faf79b4370f6af9d950564bbe6b81f7f0834c003c455db9248f4e55e6bf865eb7600080a1005b346101a65760403660031901126101a657610335610693610a69565b602435906106a2823383610bc0565b610e8b565b346101a65760003660031901126101a6576106c0610e62565b600580546001600160a01b031981169091556000906001600160a01b03167f8be0079c531659141344cd1fd0a4f28419497f9722a3daafe3b4186f6b6457e08280a3005b346101a65760203660031901126101a6576001600160a01b03610725610a69565b1660005260006020526020604060002054604051908152f35b346101a65760203660031901126101a65761033560043533610e8b565b346101a65760403660031901126101a657610774610a69565b60243590610780610e62565b60ff600a5416156108985760095480610834575b506001600160a01b0316801561081e576107b082600254610b8a565b6002557f3f2c9d57c068687834f0de942a9babb9e5acab57d516d3480a3c16ee165a427360206000938385528482526040852081815401905583857fddf252ad1be2c89b69c2b068fc378daa952ba7f163c4a11628f55a4df523b3ef84604051858152a3604051908152a280f35b63ec442f0560e01b600052600060045260246000fd5b61085361084384600254610b8a565b91670de0b6b3a764000090610bad565b1061085e5782610794565b60405162461bcd60e51b815260206004820152601260248201527145786365656473206d617820737570706c7960701b6044820152606490fd5b60405162461bcd60e51b815260206004820152601060248201526f135a5b9d1a5b99c8191a5cd8589b195960821b6044820152606490fd5b346101a65760003660031901126101a657602061038c610d46565b346101a65760003660031901126101a657602060405160128152f35b346101a65760603660031901126101a6576103ba610923610a69565b61092b610a7f565b6044359161093a833383610bc0565b610c97565b346101a65760003660031901126101a6576020600254604051908152f35b346101a65760403660031901126101a6576103ba610979610a69565b6024359033610f0c565b346101a65760003660031901126101a65760006003546109a281610a95565b80845290600181169081156104a957506001146109c9576104468361043281850382610b52565b600360009081527fc2575a0e9e593c00f959f8c92f12db2869c3395a3b0502d05e2516446f71f85b939250905b808210610a0e57509091508101602001610432610422565b9192600181602092548385880101520191019092916109f6565b919082519283825260005b848110610a54575050826000602080949584010152601f8019910116010190565b80602080928401015182828601015201610a33565b600435906001600160a01b03821682036101a657565b602435906001600160a01b03821682036101a657565b90600182811c92168015610ac5575b6020831014610aaf57565b634e487b7160e01b600052602260045260246000fd5b91607f1691610aa4565b60009291815491610adf83610a95565b8083529260018116908115610b355750600114610afb57505050565b60009081526020812093945091925b838310610b1b575060209250010190565b600181602092949394548385870101520191019190610b0a565b915050602093945060ff929192191683830152151560051b010190565b90601f8019910116810190811067ffffffffffffffff821117610b7457604052565b634e487b7160e01b600052604160045260246000fd5b91908201809211610b9757565b634e487b7160e01b600052601160045260246000fd5b81810292918115918404141715610b9757565b6001600160a01b039081166000818152600160209081526040808320948616835293905291909120549291906000198410610bfc575b50505050565b828410610c72578015610c5c576001600160a01b03821615610c4657600052600160205260406000209060018060a01b031660005260205260406000209103905538808080610bf6565b634a1406b160e11b600052600060045260246000fd5b63e602df0560e01b600052600060045260246000fd5b508290637dc7a0d960e11b60005260018060a01b031660045260245260445260646000fd5b6001600160a01b0316908115610d30576001600160a01b031691821561081e576000828152806020526040812054828110610d165791604082827fddf252ad1be2c89b69c2b068fc378daa952ba7f163c4a11628f55a4df523b3ef958760209652828652038282205586815280845220818154019055604051908152a3565b916064928463391434e360e21b8452600452602452604452fd5b634b637e8f60e11b600052600060045260246000fd5b307f00000000000000000000000000000000000000000000000000000000000000006001600160a01b03161480610e39575b15610da1577f000000000000000000000000000000000000000000000000000000000000000090565b60405160208101907f8b73c3c69bb8fe3d512ecc4cf759cc79239f7b179b0ffacaa9a75d522b39400f82527f000000000000000000000000000000000000000000000000000000000000000060408201527f000000000000000000000000000000000000000000000000000000000000000060608201524660808201523060a082015260a08152610e3360c082610b52565b51902090565b507f00000000000000000000000000000000000000000000000000000000000000004614610d78565b6005546001600160a01b03163303610e7657565b63118cdaa760e01b6000523360045260246000fd5b6001600160a01b03168015610d3057600091818352826020526040832054818110610ef357817fddf252ad1be2c89b69c2b068fc378daa952ba7f163c4a11628f55a4df523b3ef926020928587528684520360408620558060025403600255604051908152a3565b6064939263391434e360e21b8452600452602452604452fd5b6001600160a01b0316908115610c5c576001600160a01b0316918215610c465760207f8c5be1e5ebec7d5bd14f71427d1e84f3dd0314c0f7b2291e5b200ac8c7c3b925918360005260018252604060002085600052825280604060002055604051908152a3565b60ff8114610fbd5760ff811690601f8211610fac576040805192610f978285610b52565b6020808552840191601f190136833783525290565b632cd44ac360e21b60005260046000fd5b50604051610fd781610fd0816006610acf565b0382610b52565b90565b60ff8114610ffe5760ff811690601f8211610fac576040805192610f978285610b52565b50604051610fd781610fd0816007610acf565b91907f7fffffffffffffffffffffffffffffff5d576e7357a4501ddfe92f46681b20a0841161109a579160209360809260ff60009560405194855216868401526040830152606082015282805260015afa1561108e576000516001600160a01b038116156110825790600090600090565b50600090600190600090565b6040513d6000823e3d90fd5b50505060009160039190565b919091600481101561111857806110bc57509050565b6000600182036110d75763f645eedf60e01b60005260046000fd5b50600281036110f5578263fce698f760e01b60005260045260246000fd5b9091600360009214611105575050565b6335e2f38360e21b825260045260249150fd5b634e487b7160e01b600052602160045260246000fdfea2646970667358221220cd4b186ccf95615d1440eeffe7959f86558b24401f4a700ad0af9c6315a8773564736f6c634300081c0033","opcodes":"PUSH2 0x160 DUP1 PUSH1 0x40 MSTORE CALLVALUE PUSH2 0x594 JUMPI PUSH2 0x1A6B DUP1 CODESIZE SUB DUP1 SWAP2 PUSH2 0x1D DUP3 DUP6 PUSH2 0x599 JUMP JUMPDEST DUP4 CODECOPY DUP2 ADD SWAP1 PUSH1 0x80 DUP2 DUP4 SUB SLT PUSH2 0x594 JUMPI DUP1 MLOAD PUSH1 0x1 PUSH1 0x1 PUSH1 0x40 SHL SUB DUP2 GT PUSH2 0x594 JUMPI DUP3 PUSH2 0x48 SWAP2 DUP4 ADD PUSH2 0x5DF JUMP JUMPDEST PUSH1 0x20 DUP3 ADD MLOAD SWAP1 SWAP3 PUSH1 0x1 PUSH1 0x1 PUSH1 0x40 SHL SUB DUP3 GT PUSH2 0x594 JUMPI PUSH2 0x68 SWAP2 DUP4 ADD PUSH2 0x5DF JUMP JUMPDEST SWAP2 PUSH1 0x60 PUSH1 0x40 DUP4 ADD MLOAD SWAP3 ADD MLOAD SWAP1 PUSH1 0x40 SWAP4 DUP5 MLOAD SWAP2 PUSH2 0x84 DUP7 DUP5 PUSH2 0x599 JUMP JUMPDEST PUSH1 0x1 DUP4 MSTORE PUSH1 0x31 PUSH1 0xF8 SHL PUSH1 0x20 DUP5 ADD SWAP1 DUP2 MSTORE DUP2 MLOAD SWAP1 SWAP3 SWAP1 PUSH1 0x1 PUSH1 0x1 PUSH1 0x40 SHL SUB DUP2 GT PUSH2 0x49E JUMPI PUSH1 0x3 SLOAD PUSH1 0x1 DUP2 DUP2 SHR SWAP2 AND DUP1 ISZERO PUSH2 0x58A JUMPI JUMPDEST PUSH1 0x20 DUP3 LT EQ PUSH2 0x47E JUMPI PUSH1 0x1F DUP2 GT PUSH2 0x525 JUMPI JUMPDEST POP DUP1 PUSH1 0x20 PUSH1 0x1F DUP3 GT PUSH1 0x1 EQ PUSH2 0x4BF JUMPI PUSH1 0x0 SWAP2 PUSH2 0x4B4 JUMPI JUMPDEST POP DUP2 PUSH1 0x1 SHL SWAP2 PUSH1 0x0 NOT SWAP1 PUSH1 0x3 SHL SHR NOT AND OR PUSH1 0x3 SSTORE JUMPDEST DUP1 MLOAD SWAP1 PUSH1 0x1 PUSH1 0x1 PUSH1 0x40 SHL SUB DUP3 GT PUSH2 0x49E JUMPI PUSH1 0x4 SLOAD SWAP1 PUSH1 0x1 DUP3 DUP2 SHR SWAP3 AND DUP1 ISZERO PUSH2 0x494 JUMPI JUMPDEST PUSH1 0x20 DUP4 LT EQ PUSH2 0x47E JUMPI DUP2 PUSH1 0x1F DUP5 SWAP4 GT PUSH2 0x40E JUMPI JUMPDEST POP PUSH1 0x20 SWAP1 PUSH1 0x1F DUP4 GT PUSH1 0x1 EQ PUSH2 0x3A6 JUMPI PUSH1 0x0 SWAP3 PUSH2 0x39B JUMPI JUMPDEST POP POP DUP2 PUSH1 0x1 SHL SWAP2 PUSH1 0x0 NOT SWAP1 PUSH1 0x3 SHL SHR NOT AND OR PUSH1 0x4 SSTORE JUMPDEST CALLER ISZERO PUSH2 0x385 JUMPI PUSH1 0x5 DUP1 SLOAD CALLER PUSH1 0x1 PUSH1 0x1 PUSH1 0xA0 SHL SUB NOT DUP3 AND DUP2 OR SWAP1 SWAP3 SSTORE PUSH1 0x1 PUSH1 0x1 PUSH1 0xA0 SHL SUB AND PUSH32 0x8BE0079C531659141344CD1FD0A4F28419497F9722A3DAAFE3B4186F6B6457E0 PUSH1 0x0 DUP1 LOG3 PUSH2 0x1AC DUP2 PUSH2 0x633 JUMP JUMPDEST PUSH2 0x120 MSTORE PUSH2 0x1B9 DUP4 PUSH2 0x7C4 JUMP JUMPDEST PUSH2 0x140 MSTORE PUSH1 0x20 DUP2 MLOAD SWAP2 ADD KECCAK256 SWAP2 DUP3 PUSH1 0xE0 MSTORE MLOAD SWAP1 KECCAK256 DUP1 PUSH2 0x100 MSTORE CHAINID PUSH1 0xA0 MSTORE DUP5 MLOAD SWAP1 PUSH1 0x20 DUP3 ADD SWAP3 PUSH32 0x8B73C3C69BB8FE3D512ECC4CF759CC79239F7B179B0FFACAA9A75D522B39400F DUP5 MSTORE DUP7 DUP4 ADD MSTORE PUSH1 0x60 DUP3 ADD MSTORE CHAINID PUSH1 0x80 DUP3 ADD MSTORE ADDRESS PUSH1 0xA0 DUP3 ADD MSTORE PUSH1 0xA0 DUP2 MSTORE PUSH2 0x224 PUSH1 0xC0 DUP3 PUSH2 0x599 JUMP JUMPDEST MLOAD SWAP1 KECCAK256 PUSH1 0x80 MSTORE ADDRESS PUSH1 0xC0 MSTORE DUP1 ISZERO DUP1 ISZERO PUSH2 0x37B JUMPI JUMPDEST ISZERO PUSH2 0x347 JUMPI PUSH1 0x9 SSTORE PUSH1 0x1 PUSH1 0xFF NOT PUSH1 0xA SLOAD AND OR PUSH1 0xA SSTORE DUP1 ISZERO DUP1 ISZERO PUSH2 0x2A5 JUMPI JUMPDEST DUP3 MLOAD PUSH2 0x1164 SWAP1 DUP2 PUSH2 0x907 DUP3 CODECOPY PUSH1 0x80 MLOAD DUP2 PUSH2 0xD7F ADD MSTORE PUSH1 0xA0 MLOAD DUP2 PUSH2 0xE3C ADD MSTORE PUSH1 0xC0 MLOAD DUP2 PUSH2 0xD49 ADD MSTORE PUSH1 0xE0 MLOAD DUP2 PUSH2 0xDCE ADD MSTORE PUSH2 0x100 MLOAD DUP2 PUSH2 0xDF4 ADD MSTORE PUSH2 0x120 MLOAD DUP2 PUSH2 0x50F ADD MSTORE PUSH2 0x140 MLOAD DUP2 PUSH2 0x538 ADD MSTORE RETURN JUMPDEST PUSH8 0xDE0B6B3A7640000 DUP3 MUL SWAP2 DUP3 DIV PUSH8 0xDE0B6B3A7640000 EQ OR ISZERO PUSH2 0x331 JUMPI PUSH1 0x0 PUSH1 0x2 SLOAD DUP3 DUP2 ADD DUP1 SWAP2 GT PUSH2 0x31D JUMPI PUSH1 0x2 SSTORE POP CALLER PUSH1 0x0 MSTORE PUSH1 0x0 PUSH1 0x20 MSTORE DUP2 PUSH1 0x0 KECCAK256 DUP2 DUP2 SLOAD ADD SWAP1 SSTORE DUP2 MLOAD SWAP1 DUP2 MSTORE PUSH1 0x0 PUSH32 0xDDF252AD1BE2C89B69C2B068FC378DAA952BA7F163C4A11628F55A4DF523B3EF PUSH1 0x20 CALLER SWAP4 LOG3 CODESIZE DUP1 PUSH2 0x255 JUMP JUMPDEST PUSH4 0x4E487B71 PUSH1 0xE0 SHL DUP3 MSTORE PUSH1 0x11 PUSH1 0x4 MSTORE PUSH1 0x24 DUP3 REVERT JUMPDEST PUSH4 0x4E487B71 PUSH1 0xE0 SHL PUSH1 0x0 MSTORE PUSH1 0x11 PUSH1 0x4 MSTORE PUSH1 0x24 PUSH1 0x0 REVERT JUMPDEST DUP3 MLOAD PUSH3 0x461BCD PUSH1 0xE5 SHL DUP2 MSTORE PUSH1 0x20 PUSH1 0x4 DUP3 ADD MSTORE PUSH1 0xD PUSH1 0x24 DUP3 ADD MSTORE PUSH13 0x92DCD2E8D2C2D8407C40DAC2F PUSH1 0x9B SHL PUSH1 0x44 DUP3 ADD MSTORE PUSH1 0x64 SWAP1 REVERT JUMPDEST POP DUP1 DUP3 GT ISZERO PUSH2 0x237 JUMP JUMPDEST PUSH4 0x1E4FBDF7 PUSH1 0xE0 SHL PUSH1 0x0 MSTORE PUSH1 0x0 PUSH1 0x4 MSTORE PUSH1 0x24 PUSH1 0x0 REVERT JUMPDEST ADD MLOAD SWAP1 POP CODESIZE DUP1 PUSH2 0x144 JUMP JUMPDEST PUSH1 0x4 PUSH1 0x0 SWAP1 DUP2 MSTORE DUP3 DUP2 KECCAK256 SWAP4 POP PUSH1 0x1F NOT DUP6 AND SWAP1 JUMPDEST DUP2 DUP2 LT PUSH2 0x3F6 JUMPI POP SWAP1 DUP5 PUSH1 0x1 SWAP6 SWAP5 SWAP4 SWAP3 LT PUSH2 0x3DD JUMPI JUMPDEST POP POP POP DUP2 SHL ADD PUSH1 0x4 SSTORE PUSH2 0x15A JUMP JUMPDEST ADD MLOAD PUSH1 0x0 NOT PUSH1 0xF8 DUP5 PUSH1 0x3 SHL AND SHR NOT AND SWAP1 SSTORE CODESIZE DUP1 DUP1 PUSH2 0x3CF JUMP JUMPDEST SWAP3 SWAP4 PUSH1 0x20 PUSH1 0x1 DUP2 SWAP3 DUP8 DUP7 ADD MLOAD DUP2 SSTORE ADD SWAP6 ADD SWAP4 ADD PUSH2 0x3B9 JUMP JUMPDEST PUSH1 0x4 PUSH1 0x0 MSTORE SWAP1 SWAP2 POP PUSH32 0x8A35ACFBC15FF81A39AE7D344FD709F28E8600B4AA8C65C6B64BFE7FE36BD19B PUSH1 0x1F DUP5 ADD PUSH1 0x5 SHR DUP2 ADD SWAP2 PUSH1 0x20 DUP6 LT PUSH2 0x474 JUMPI JUMPDEST SWAP1 PUSH1 0x1F DUP6 SWAP5 SWAP4 SWAP3 ADD PUSH1 0x5 SHR ADD SWAP1 JUMPDEST DUP2 DUP2 LT PUSH2 0x465 JUMPI POP PUSH2 0x12D JUMP JUMPDEST PUSH1 0x0 DUP2 SSTORE DUP5 SWAP4 POP PUSH1 0x1 ADD PUSH2 0x458 JUMP JUMPDEST SWAP1 SWAP2 POP DUP2 SWAP1 PUSH2 0x44A JUMP JUMPDEST PUSH4 0x4E487B71 PUSH1 0xE0 SHL PUSH1 0x0 MSTORE PUSH1 0x22 PUSH1 0x4 MSTORE PUSH1 0x24 PUSH1 0x0 REVERT JUMPDEST SWAP2 PUSH1 0x7F AND SWAP2 PUSH2 0x119 JUMP JUMPDEST PUSH4 0x4E487B71 PUSH1 0xE0 SHL PUSH1 0x0 MSTORE PUSH1 0x41 PUSH1 0x4 MSTORE PUSH1 0x24 PUSH1 0x0 REVERT JUMPDEST SWAP1 POP DUP4 ADD MLOAD CODESIZE PUSH2 0xE1 JUMP JUMPDEST PUSH1 0x3 PUSH1 0x0 SWAP1 DUP2 MSTORE DUP2 DUP2 KECCAK256 SWAP3 POP PUSH1 0x1F NOT DUP5 AND SWAP1 JUMPDEST DUP2 DUP2 LT PUSH2 0x50D JUMPI POP SWAP1 DUP4 PUSH1 0x1 SWAP5 SWAP4 SWAP3 LT PUSH2 0x4F4 JUMPI JUMPDEST POP POP DUP2 SHL ADD PUSH1 0x3 SSTORE PUSH2 0xF6 JUMP JUMPDEST DUP6 ADD MLOAD PUSH1 0x0 NOT PUSH1 0xF8 DUP5 PUSH1 0x3 SHL AND SHR NOT AND SWAP1 SSTORE CODESIZE DUP1 PUSH2 0x4E7 JUMP JUMPDEST SWAP2 SWAP3 PUSH1 0x20 PUSH1 0x1 DUP2 SWAP3 DUP7 DUP11 ADD MLOAD DUP2 SSTORE ADD SWAP5 ADD SWAP3 ADD PUSH2 0x4D2 JUMP JUMPDEST PUSH1 0x3 PUSH1 0x0 MSTORE PUSH32 0xC2575A0E9E593C00F959F8C92F12DB2869C3395A3B0502D05E2516446F71F85B PUSH1 0x1F DUP4 ADD PUSH1 0x5 SHR DUP2 ADD SWAP2 PUSH1 0x20 DUP5 LT PUSH2 0x580 JUMPI JUMPDEST PUSH1 0x1F ADD PUSH1 0x5 SHR ADD SWAP1 JUMPDEST DUP2 DUP2 LT PUSH2 0x574 JUMPI POP PUSH2 0xCA JUMP JUMPDEST PUSH1 0x0 DUP2 SSTORE PUSH1 0x1 ADD PUSH2 0x567 JUMP JUMPDEST SWAP1 SWAP2 POP DUP2 SWAP1 PUSH2 0x55E JUMP JUMPDEST SWAP1 PUSH1 0x7F AND SWAP1 PUSH2 0xB8 JUMP JUMPDEST PUSH1 0x0 DUP1 REVERT JUMPDEST PUSH1 0x1F SWAP1 SWAP2 ADD PUSH1 0x1F NOT AND DUP2 ADD SWAP1 PUSH1 0x1 PUSH1 0x1 PUSH1 0x40 SHL SUB DUP3 GT SWAP1 DUP3 LT OR PUSH2 0x49E JUMPI PUSH1 0x40 MSTORE JUMP JUMPDEST PUSH1 0x0 JUMPDEST DUP4 DUP2 LT PUSH2 0x5CF JUMPI POP POP PUSH1 0x0 SWAP2 ADD MSTORE JUMP JUMPDEST DUP2 DUP2 ADD MLOAD DUP4 DUP3 ADD MSTORE PUSH1 0x20 ADD PUSH2 0x5BF JUMP JUMPDEST DUP2 PUSH1 0x1F DUP3 ADD SLT ISZERO PUSH2 0x594 JUMPI DUP1 MLOAD PUSH1 0x1 PUSH1 0x1 PUSH1 0x40 SHL SUB DUP2 GT PUSH2 0x49E JUMPI PUSH1 0x40 MLOAD SWAP3 PUSH2 0x612 PUSH1 0x1F DUP4 ADD PUSH1 0x1F NOT AND PUSH1 0x20 ADD DUP6 PUSH2 0x599 JUMP JUMPDEST DUP2 DUP5 MSTORE PUSH1 0x20 DUP3 DUP5 ADD ADD GT PUSH2 0x594 JUMPI PUSH2 0x630 SWAP2 PUSH1 0x20 DUP1 DUP6 ADD SWAP2 ADD PUSH2 0x5BC JUMP JUMPDEST SWAP1 JUMP JUMPDEST SWAP1 DUP2 MLOAD PUSH1 0x20 DUP2 LT PUSH1 0x0 EQ PUSH2 0x6AE JUMPI POP SWAP1 PUSH1 0x1F DUP2 MLOAD GT PUSH2 0x66F JUMPI PUSH1 0x20 DUP2 MLOAD SWAP2 ADD MLOAD PUSH1 0x20 DUP3 LT PUSH2 0x65F JUMPI OR SWAP1 JUMP JUMPDEST PUSH1 0x0 NOT DUP3 PUSH1 0x20 SUB PUSH1 0x3 SHL SHL AND OR SWAP1 JUMP JUMPDEST PUSH1 0x44 PUSH1 0x40 MLOAD DUP1 SWAP3 PUSH4 0x305A27A9 PUSH1 0xE0 SHL DUP3 MSTORE PUSH1 0x20 PUSH1 0x4 DUP4 ADD MSTORE PUSH2 0x6A0 DUP2 MLOAD DUP1 SWAP3 DUP2 PUSH1 0x24 DUP7 ADD MSTORE PUSH1 0x20 DUP7 DUP7 ADD SWAP2 ADD PUSH2 0x5BC JUMP JUMPDEST PUSH1 0x1F ADD PUSH1 0x1F NOT AND DUP2 ADD SUB ADD SWAP1 REVERT JUMPDEST PUSH1 0x1 PUSH1 0x1 PUSH1 0x40 SHL SUB DUP2 GT PUSH2 0x49E JUMPI PUSH1 0x6 SLOAD PUSH1 0x1 DUP2 DUP2 SHR SWAP2 AND DUP1 ISZERO PUSH2 0x7BA JUMPI JUMPDEST PUSH1 0x20 DUP3 LT EQ PUSH2 0x47E JUMPI PUSH1 0x1F DUP2 GT PUSH2 0x784 JUMPI JUMPDEST POP PUSH1 0x20 SWAP3 PUSH1 0x1F DUP3 GT PUSH1 0x1 EQ PUSH2 0x71F JUMPI SWAP3 DUP2 SWAP3 SWAP4 PUSH1 0x0 SWAP3 PUSH2 0x714 JUMPI JUMPDEST POP POP DUP2 PUSH1 0x1 SHL SWAP2 PUSH1 0x0 NOT SWAP1 PUSH1 0x3 SHL SHR NOT AND OR PUSH1 0x6 SSTORE PUSH1 0xFF SWAP1 JUMP JUMPDEST ADD MLOAD SWAP1 POP CODESIZE DUP1 PUSH2 0x6FA JUMP JUMPDEST PUSH1 0x1F NOT DUP3 AND SWAP4 PUSH1 0x6 PUSH1 0x0 MSTORE DUP1 PUSH1 0x0 KECCAK256 SWAP2 PUSH1 0x0 JUMPDEST DUP7 DUP2 LT PUSH2 0x76C JUMPI POP DUP4 PUSH1 0x1 SWAP6 SWAP7 LT PUSH2 0x753 JUMPI JUMPDEST POP POP POP DUP2 SHL ADD PUSH1 0x6 SSTORE PUSH1 0xFF SWAP1 JUMP JUMPDEST ADD MLOAD PUSH1 0x0 NOT PUSH1 0xF8 DUP5 PUSH1 0x3 SHL AND SHR NOT AND SWAP1 SSTORE CODESIZE DUP1 DUP1 PUSH2 0x745 JUMP JUMPDEST SWAP2 SWAP3 PUSH1 0x20 PUSH1 0x1 DUP2 SWAP3 DUP7 DUP6 ADD MLOAD DUP2 SSTORE ADD SWAP5 ADD SWAP3 ADD PUSH2 0x732 JUMP JUMPDEST PUSH1 0x6 PUSH1 0x0 MSTORE PUSH1 0x1F PUSH1 0x20 PUSH1 0x0 KECCAK256 SWAP2 ADD PUSH1 0x5 SHR DUP2 ADD SWAP1 PUSH1 0x1F DUP4 ADD PUSH1 0x5 SHR ADD JUMPDEST DUP2 DUP2 LT PUSH2 0x7AE JUMPI POP PUSH2 0x6DF JUMP JUMPDEST PUSH1 0x0 DUP2 SSTORE PUSH1 0x1 ADD PUSH2 0x7A1 JUMP JUMPDEST SWAP1 PUSH1 0x7F AND SWAP1 PUSH2 0x6CD JUMP JUMPDEST SWAP1 DUP2 MLOAD PUSH1 0x20 DUP2 LT PUSH1 0x0 EQ PUSH2 0x7F0 JUMPI POP SWAP1 PUSH1 0x1F DUP2 MLOAD GT PUSH2 0x66F JUMPI PUSH1 0x20 DUP2 MLOAD SWAP2 ADD MLOAD PUSH1 0x20 DUP3 LT PUSH2 0x65F JUMPI OR SWAP1 JUMP JUMPDEST PUSH1 0x1 PUSH1 0x1 PUSH1 0x40 SHL SUB DUP2 GT PUSH2 0x49E JUMPI PUSH1 0x7 SLOAD PUSH1 0x1 DUP2 DUP2 SHR SWAP2 AND DUP1 ISZERO PUSH2 0x8FC JUMPI JUMPDEST PUSH1 0x20 DUP3 LT EQ PUSH2 0x47E JUMPI PUSH1 0x1F DUP2 GT PUSH2 0x8C6 JUMPI JUMPDEST POP PUSH1 0x20 SWAP3 PUSH1 0x1F DUP3 GT PUSH1 0x1 EQ PUSH2 0x861 JUMPI SWAP3 DUP2 SWAP3 SWAP4 PUSH1 0x0 SWAP3 PUSH2 0x856 JUMPI JUMPDEST POP POP DUP2 PUSH1 0x1 SHL SWAP2 PUSH1 0x0 NOT SWAP1 PUSH1 0x3 SHL SHR NOT AND OR PUSH1 0x7 SSTORE PUSH1 0xFF SWAP1 JUMP JUMPDEST ADD MLOAD SWAP1 POP CODESIZE DUP1 PUSH2 0x83C JUMP JUMPDEST PUSH1 0x1F NOT DUP3 AND SWAP4 PUSH1 0x7 PUSH1 0x0 MSTORE DUP1 PUSH1 0x0 KECCAK256 SWAP2 PUSH1 0x0 JUMPDEST DUP7 DUP2 LT PUSH2 0x8AE JUMPI POP DUP4 PUSH1 0x1 SWAP6 SWAP7 LT PUSH2 0x895 JUMPI JUMPDEST POP POP POP DUP2 SHL ADD PUSH1 0x7 SSTORE PUSH1 0xFF SWAP1 JUMP JUMPDEST ADD MLOAD PUSH1 0x0 NOT PUSH1 0xF8 DUP5 PUSH1 0x3 SHL AND SHR NOT AND SWAP1 SSTORE CODESIZE DUP1 DUP1 PUSH2 0x887 JUMP JUMPDEST SWAP2 SWAP3 PUSH1 0x20 PUSH1 0x1 DUP2 SWAP3 DUP7 DUP6 ADD MLOAD DUP2 SSTORE ADD SWAP5 ADD SWAP3 ADD PUSH2 0x874 JUMP JUMPDEST PUSH1 0x7 PUSH1 0x0 MSTORE PUSH1 0x1F PUSH1 0x20 PUSH1 0x0 KECCAK256 SWAP2 ADD PUSH1 0x5 SHR DUP2 ADD SWAP1 PUSH1 0x1F DUP4 ADD PUSH1 0x5 SHR ADD JUMPDEST DUP2 DUP2 LT PUSH2 0x8F0 JUMPI POP PUSH2 0x821 JUMP JUMPDEST PUSH1 0x0 DUP2 SSTORE PUSH1 0x1 ADD PUSH2 0x8E3 JUMP JUMPDEST SWAP1 PUSH1 0x7F AND SWAP1 PUSH2 0x80F JUMP INVALID PUSH1 0x80 DUP1 PUSH1 0x40 MSTORE PUSH1 0x4 CALLDATASIZE LT ISZERO PUSH2 0x13 JUMPI PUSH1 0x0 DUP1 REVERT JUMPDEST PUSH1 0x0 CALLDATALOAD PUSH1 0xE0 SHR SWAP1 DUP2 PUSH4 0x6FDDE03 EQ PUSH2 0x983 JUMPI POP DUP1 PUSH4 0x95EA7B3 EQ PUSH2 0x95D JUMPI DUP1 PUSH4 0x18160DDD EQ PUSH2 0x93F JUMPI DUP1 PUSH4 0x23B872DD EQ PUSH2 0x907 JUMPI DUP1 PUSH4 0x313CE567 EQ PUSH2 0x8EB JUMPI DUP1 PUSH4 0x3644E515 EQ PUSH2 0x8D0 JUMPI DUP1 PUSH4 0x40C10F19 EQ PUSH2 0x75B JUMPI DUP1 PUSH4 0x42966C68 EQ PUSH2 0x73E JUMPI DUP1 PUSH4 0x70A08231 EQ PUSH2 0x704 JUMPI DUP1 PUSH4 0x715018A6 EQ PUSH2 0x6A7 JUMPI DUP1 PUSH4 0x79CC6790 EQ PUSH2 0x677 JUMPI DUP1 PUSH4 0x7E5CD5C1 EQ PUSH2 0x62D JUMPI DUP1 PUSH4 0x7ECEBE00 EQ PUSH2 0x5F3 JUMPI DUP1 PUSH4 0x84B0196E EQ PUSH2 0x4F6 JUMPI DUP1 PUSH4 0x8DA5CB5B EQ PUSH2 0x4CD JUMPI DUP1 PUSH4 0x95D89B41 EQ PUSH2 0x3E8 JUMPI DUP1 PUSH4 0x9FD6DB12 EQ PUSH2 0x3C5 JUMPI DUP1 PUSH4 0xA9059CBB EQ PUSH2 0x394 JUMPI DUP1 PUSH4 0xC2A755F4 EQ PUSH2 0x365 JUMPI DUP1 PUSH4 0xD505ACCF EQ PUSH2 0x21A JUMPI DUP1 PUSH4 0xD5ABEB01 EQ PUSH2 0x1FC JUMPI DUP1 PUSH4 0xDD62ED3E EQ PUSH2 0x1AB JUMPI PUSH4 0xF2FDE38B EQ PUSH2 0x11C JUMPI PUSH1 0x0 DUP1 REVERT JUMPDEST CALLVALUE PUSH2 0x1A6 JUMPI PUSH1 0x20 CALLDATASIZE PUSH1 0x3 NOT ADD SLT PUSH2 0x1A6 JUMPI PUSH2 0x135 PUSH2 0xA69 JUMP JUMPDEST PUSH2 0x13D PUSH2 0xE62 JUMP JUMPDEST PUSH1 0x1 PUSH1 0x1 PUSH1 0xA0 SHL SUB AND DUP1 ISZERO PUSH2 0x190 JUMPI PUSH1 0x5 DUP1 SLOAD PUSH1 0x1 PUSH1 0x1 PUSH1 0xA0 SHL SUB NOT DUP2 AND DUP4 OR SWAP1 SWAP2 SSTORE PUSH1 0x1 PUSH1 0x1 PUSH1 0xA0 SHL SUB AND PUSH32 0x8BE0079C531659141344CD1FD0A4F28419497F9722A3DAAFE3B4186F6B6457E0 PUSH1 0x0 DUP1 LOG3 STOP JUMPDEST PUSH4 0x1E4FBDF7 PUSH1 0xE0 SHL PUSH1 0x0 MSTORE PUSH1 0x0 PUSH1 0x4 MSTORE PUSH1 0x24 PUSH1 0x0 REVERT JUMPDEST PUSH1 0x0 DUP1 REVERT JUMPDEST CALLVALUE PUSH2 0x1A6 JUMPI PUSH1 0x40 CALLDATASIZE PUSH1 0x3 NOT ADD SLT PUSH2 0x1A6 JUMPI PUSH2 0x1C4 PUSH2 0xA69 JUMP JUMPDEST PUSH2 0x1CC PUSH2 0xA7F JUMP JUMPDEST PUSH1 0x1 PUSH1 0x1 PUSH1 0xA0 SHL SUB SWAP2 DUP3 AND PUSH1 0x0 SWAP1 DUP2 MSTORE PUSH1 0x1 PUSH1 0x20 SWAP1 DUP2 MSTORE PUSH1 0x40 DUP1 DUP4 KECCAK256 SWAP5 SWAP1 SWAP4 AND DUP3 MSTORE SWAP3 DUP4 MSTORE DUP2 SWAP1 KECCAK256 SLOAD SWAP1 MLOAD SWAP1 DUP2 MSTORE RETURN JUMPDEST CALLVALUE PUSH2 0x1A6 JUMPI PUSH1 0x0 CALLDATASIZE PUSH1 0x3 NOT ADD SLT PUSH2 0x1A6 JUMPI PUSH1 0x20 PUSH1 0x9 SLOAD PUSH1 0x40 MLOAD SWAP1 DUP2 MSTORE RETURN JUMPDEST CALLVALUE PUSH2 0x1A6 JUMPI PUSH1 0xE0 CALLDATASIZE PUSH1 0x3 NOT ADD SLT PUSH2 0x1A6 JUMPI PUSH2 0x233 PUSH2 0xA69 JUMP JUMPDEST PUSH2 0x23B PUSH2 0xA7F JUMP JUMPDEST PUSH1 0x44 CALLDATALOAD SWAP1 PUSH1 0x64 CALLDATALOAD SWAP3 PUSH1 0x84 CALLDATALOAD PUSH1 0xFF DUP2 AND DUP2 SUB PUSH2 0x1A6 JUMPI DUP5 TIMESTAMP GT PUSH2 0x350 JUMPI PUSH2 0x311 PUSH2 0x31A SWAP2 PUSH1 0x1 DUP1 PUSH1 0xA0 SHL SUB DUP5 AND SWAP7 DUP8 PUSH1 0x0 MSTORE PUSH1 0x8 PUSH1 0x20 MSTORE PUSH1 0x40 PUSH1 0x0 KECCAK256 SWAP1 DUP2 SLOAD SWAP2 PUSH1 0x1 DUP4 ADD SWAP1 SSTORE PUSH1 0x40 MLOAD SWAP1 PUSH1 0x20 DUP3 ADD SWAP3 PUSH32 0x6E71EDAE12B1B97F4D1F60370FEF10105FA2FAAE0126114A169C64845D6126C9 DUP5 MSTORE DUP11 PUSH1 0x40 DUP5 ADD MSTORE PUSH1 0x1 DUP1 PUSH1 0xA0 SHL SUB DUP10 AND PUSH1 0x60 DUP5 ADD MSTORE DUP10 PUSH1 0x80 DUP5 ADD MSTORE PUSH1 0xA0 DUP4 ADD MSTORE PUSH1 0xC0 DUP3 ADD MSTORE PUSH1 0xC0 DUP2 MSTORE PUSH2 0x2DF PUSH1 0xE0 DUP3 PUSH2 0xB52 JUMP JUMPDEST MLOAD SWAP1 KECCAK256 PUSH2 0x2EA PUSH2 0xD46 JUMP JUMPDEST SWAP1 PUSH1 0x40 MLOAD SWAP2 PUSH2 0x1901 PUSH1 0xF0 SHL DUP4 MSTORE PUSH1 0x2 DUP4 ADD MSTORE PUSH1 0x22 DUP3 ADD MSTORE PUSH1 0xC4 CALLDATALOAD SWAP2 PUSH1 0x42 PUSH1 0xA4 CALLDATALOAD SWAP3 KECCAK256 PUSH2 0x1011 JUMP JUMPDEST SWAP1 SWAP3 SWAP2 SWAP3 PUSH2 0x10A6 JUMP JUMPDEST PUSH1 0x1 PUSH1 0x1 PUSH1 0xA0 SHL SUB AND DUP5 DUP2 SUB PUSH2 0x337 JUMPI POP PUSH2 0x335 SWAP4 POP PUSH2 0xF0C JUMP JUMPDEST STOP JUMPDEST DUP5 SWAP1 PUSH4 0x25C00723 PUSH1 0xE1 SHL PUSH1 0x0 MSTORE PUSH1 0x4 MSTORE PUSH1 0x24 MSTORE PUSH1 0x44 PUSH1 0x0 REVERT JUMPDEST DUP5 PUSH4 0x313C8981 PUSH1 0xE1 SHL PUSH1 0x0 MSTORE PUSH1 0x4 MSTORE PUSH1 0x24 PUSH1 0x0 REVERT JUMPDEST CALLVALUE PUSH2 0x1A6 JUMPI PUSH1 0x20 CALLDATASIZE PUSH1 0x3 NOT ADD SLT PUSH2 0x1A6 JUMPI PUSH1 0x20 PUSH2 0x38C PUSH8 0xDE0B6B3A7640000 PUSH1 0x4 CALLDATALOAD PUSH2 0xBAD JUMP JUMPDEST PUSH1 0x40 MLOAD SWAP1 DUP2 MSTORE RETURN JUMPDEST CALLVALUE PUSH2 0x1A6 JUMPI PUSH1 0x40 CALLDATASIZE PUSH1 0x3 NOT ADD SLT PUSH2 0x1A6 JUMPI PUSH2 0x3BA PUSH2 0x3B0 PUSH2 0xA69 JUMP JUMPDEST PUSH1 0x24 CALLDATALOAD SWAP1 CALLER PUSH2 0xC97 JUMP JUMPDEST PUSH1 0x20 PUSH1 0x40 MLOAD PUSH1 0x1 DUP2 MSTORE RETURN JUMPDEST CALLVALUE PUSH2 0x1A6 JUMPI PUSH1 0x0 CALLDATASIZE PUSH1 0x3 NOT ADD SLT PUSH2 0x1A6 JUMPI PUSH1 0x20 PUSH1 0xFF PUSH1 0xA SLOAD AND PUSH1 0x40 MLOAD SWAP1 ISZERO ISZERO DUP2 MSTORE RETURN JUMPDEST CALLVALUE PUSH2 0x1A6 JUMPI PUSH1 0x0 CALLDATASIZE PUSH1 0x3 NOT ADD SLT PUSH2 0x1A6 JUMPI PUSH1 0x40 MLOAD PUSH1 0x0 PUSH1 0x4 SLOAD PUSH2 0x40A DUP2 PUSH2 0xA95 JUMP JUMPDEST DUP1 DUP5 MSTORE SWAP1 PUSH1 0x1 DUP2 AND SWAP1 DUP2 ISZERO PUSH2 0x4A9 JUMPI POP PUSH1 0x1 EQ PUSH2 0x44A JUMPI JUMPDEST PUSH2 0x446 DUP4 PUSH2 0x432 DUP2 DUP6 SUB DUP3 PUSH2 0xB52 JUMP JUMPDEST PUSH1 0x40 MLOAD SWAP2 DUP3 SWAP2 PUSH1 0x20 DUP4 MSTORE PUSH1 0x20 DUP4 ADD SWAP1 PUSH2 0xA28 JUMP JUMPDEST SUB SWAP1 RETURN JUMPDEST PUSH1 0x4 PUSH1 0x0 SWAP1 DUP2 MSTORE PUSH32 0x8A35ACFBC15FF81A39AE7D344FD709F28E8600B4AA8C65C6B64BFE7FE36BD19B SWAP4 SWAP3 POP SWAP1 JUMPDEST DUP1 DUP3 LT PUSH2 0x48F JUMPI POP SWAP1 SWAP2 POP DUP2 ADD PUSH1 0x20 ADD PUSH2 0x432 PUSH2 0x422 JUMP JUMPDEST SWAP2 SWAP3 PUSH1 0x1 DUP2 PUSH1 0x20 SWAP3 SLOAD DUP4 DUP6 DUP9 ADD ADD MSTORE ADD SWAP2 ADD SWAP1 SWAP3 SWAP2 PUSH2 0x477 JUMP JUMPDEST PUSH1 0xFF NOT AND PUSH1 0x20 DUP1 DUP7 ADD SWAP2 SWAP1 SWAP2 MSTORE SWAP2 ISZERO ISZERO PUSH1 0x5 SHL DUP5 ADD SWAP1 SWAP2 ADD SWAP2 POP PUSH2 0x432 SWAP1 POP PUSH2 0x422 JUMP JUMPDEST CALLVALUE PUSH2 0x1A6 JUMPI PUSH1 0x0 CALLDATASIZE PUSH1 0x3 NOT ADD SLT PUSH2 0x1A6 JUMPI PUSH1 0x5 SLOAD PUSH1 0x40 MLOAD PUSH1 0x1 PUSH1 0x1 PUSH1 0xA0 SHL SUB SWAP1 SWAP2 AND DUP2 MSTORE PUSH1 0x20 SWAP1 RETURN JUMPDEST CALLVALUE PUSH2 0x1A6 JUMPI PUSH1 0x0 CALLDATASIZE PUSH1 0x3 NOT ADD SLT PUSH2 0x1A6 JUMPI PUSH2 0x595 PUSH2 0x533 PUSH32 0x0 PUSH2 0xF73 JUMP JUMPDEST PUSH2 0x55C PUSH32 0x0 PUSH2 0xFDA JUMP JUMPDEST PUSH1 0x20 PUSH2 0x5A3 PUSH1 0x40 MLOAD SWAP3 PUSH2 0x56F DUP4 DUP6 PUSH2 0xB52 JUMP JUMPDEST PUSH1 0x0 DUP5 MSTORE PUSH1 0x0 CALLDATASIZE DUP2 CALLDATACOPY PUSH1 0x40 MLOAD SWAP6 DUP7 SWAP6 PUSH1 0xF PUSH1 0xF8 SHL DUP8 MSTORE PUSH1 0xE0 DUP6 DUP9 ADD MSTORE PUSH1 0xE0 DUP8 ADD SWAP1 PUSH2 0xA28 JUMP JUMPDEST SWAP1 DUP6 DUP3 SUB PUSH1 0x40 DUP8 ADD MSTORE PUSH2 0xA28 JUMP JUMPDEST CHAINID PUSH1 0x60 DUP6 ADD MSTORE ADDRESS PUSH1 0x80 DUP6 ADD MSTORE PUSH1 0x0 PUSH1 0xA0 DUP6 ADD MSTORE DUP4 DUP2 SUB PUSH1 0xC0 DUP6 ADD MSTORE DUP2 DUP1 DUP5 MLOAD SWAP3 DUP4 DUP2 MSTORE ADD SWAP4 ADD SWAP2 PUSH1 0x0 JUMPDEST DUP3 DUP2 LT PUSH2 0x5DC JUMPI POP POP POP POP SUB SWAP1 RETURN JUMPDEST DUP4 MLOAD DUP6 MSTORE DUP7 SWAP6 POP SWAP4 DUP2 ADD SWAP4 SWAP3 DUP2 ADD SWAP3 PUSH1 0x1 ADD PUSH2 0x5CD JUMP JUMPDEST CALLVALUE PUSH2 0x1A6 JUMPI PUSH1 0x20 CALLDATASIZE PUSH1 0x3 NOT ADD SLT PUSH2 0x1A6 JUMPI PUSH1 0x1 PUSH1 0x1 PUSH1 0xA0 SHL SUB PUSH2 0x614 PUSH2 0xA69 JUMP JUMPDEST AND PUSH1 0x0 MSTORE PUSH1 0x8 PUSH1 0x20 MSTORE PUSH1 0x20 PUSH1 0x40 PUSH1 0x0 KECCAK256 SLOAD PUSH1 0x40 MLOAD SWAP1 DUP2 MSTORE RETURN JUMPDEST CALLVALUE PUSH2 0x1A6 JUMPI PUSH1 0x0 CALLDATASIZE PUSH1 0x3 NOT ADD SLT PUSH2 0x1A6 JUMPI PUSH2 0x646 PUSH2 0xE62 JUMP JUMPDEST PUSH1 0xFF NOT PUSH1 0xA SLOAD AND PUSH1 0xA SSTORE PUSH32 0xAF79B4370F6AF9D950564BBE6B81F7F0834C003C455DB9248F4E55E6BF865EB7 PUSH1 0x0 DUP1 LOG1 STOP JUMPDEST CALLVALUE PUSH2 0x1A6 JUMPI PUSH1 0x40 CALLDATASIZE PUSH1 0x3 NOT ADD SLT PUSH2 0x1A6 JUMPI PUSH2 0x335 PUSH2 0x693 PUSH2 0xA69 JUMP JUMPDEST PUSH1 0x24 CALLDATALOAD SWAP1 PUSH2 0x6A2 DUP3 CALLER DUP4 PUSH2 0xBC0 JUMP JUMPDEST PUSH2 0xE8B JUMP JUMPDEST CALLVALUE PUSH2 0x1A6 JUMPI PUSH1 0x0 CALLDATASIZE PUSH1 0x3 NOT ADD SLT PUSH2 0x1A6 JUMPI PUSH2 0x6C0 PUSH2 0xE62 JUMP JUMPDEST PUSH1 0x5 DUP1 SLOAD PUSH1 0x1 PUSH1 0x1 PUSH1 0xA0 SHL SUB NOT DUP2 AND SWAP1 SWAP2 SSTORE PUSH1 0x0 SWAP1 PUSH1 0x1 PUSH1 0x1 PUSH1 0xA0 SHL SUB AND PUSH32 0x8BE0079C531659141344CD1FD0A4F28419497F9722A3DAAFE3B4186F6B6457E0 DUP3 DUP1 LOG3 STOP JUMPDEST CALLVALUE PUSH2 0x1A6 JUMPI PUSH1 0x20 CALLDATASIZE PUSH1 0x3 NOT ADD SLT PUSH2 0x1A6 JUMPI PUSH1 0x1 PUSH1 0x1 PUSH1 0xA0 SHL SUB PUSH2 0x725 PUSH2 0xA69 JUMP JUMPDEST AND PUSH1 0x0 MSTORE PUSH1 0x0 PUSH1 0x20 MSTORE PUSH1 0x20 PUSH1 0x40 PUSH1 0x0 KECCAK256 SLOAD PUSH1 0x40 MLOAD SWAP1 DUP2 MSTORE RETURN JUMPDEST CALLVALUE PUSH2 0x1A6 JUMPI PUSH1 0x20 CALLDATASIZE PUSH1 0x3 NOT ADD SLT PUSH2 0x1A6 JUMPI PUSH2 0x335 PUSH1 0x4 CALLDATALOAD CALLER PUSH2 0xE8B JUMP JUMPDEST CALLVALUE PUSH2 0x1A6 JUMPI PUSH1 0x40 CALLDATASIZE PUSH1 0x3 NOT ADD SLT PUSH2 0x1A6 JUMPI PUSH2 0x774 PUSH2 0xA69 JUMP JUMPDEST PUSH1 0x24 CALLDATALOAD SWAP1 PUSH2 0x780 PUSH2 0xE62 JUMP JUMPDEST PUSH1 0xFF PUSH1 0xA SLOAD AND ISZERO PUSH2 0x898 JUMPI PUSH1 0x9 SLOAD DUP1 PUSH2 0x834 JUMPI JUMPDEST POP PUSH1 0x1 PUSH1 0x1 PUSH1 0xA0 SHL SUB AND DUP1 ISZERO PUSH2 0x81E JUMPI PUSH2 0x7B0 DUP3 PUSH1 0x2 SLOAD PUSH2 0xB8A JUMP JUMPDEST PUSH1 0x2 SSTORE PUSH32 0x3F2C9D57C068687834F0DE942A9BABB9E5ACAB57D516D3480A3C16EE165A4273 PUSH1 0x20 PUSH1 0x0 SWAP4 DUP4 DUP6 MSTORE DUP5 DUP3 MSTORE PUSH1 0x40 DUP6 KECCAK256 DUP2 DUP2 SLOAD ADD SWAP1 SSTORE DUP4 DUP6 PUSH32 0xDDF252AD1BE2C89B69C2B068FC378DAA952BA7F163C4A11628F55A4DF523B3EF DUP5 PUSH1 0x40 MLOAD DUP6 DUP2 MSTORE LOG3 PUSH1 0x40 MLOAD SWAP1 DUP2 MSTORE LOG2 DUP1 RETURN JUMPDEST PUSH4 0xEC442F05 PUSH1 0xE0 SHL PUSH1 0x0 MSTORE PUSH1 0x0 PUSH1 0x4 MSTORE PUSH1 0x24 PUSH1 0x0 REVERT JUMPDEST PUSH2 0x853 PUSH2 0x843 DUP5 PUSH1 0x2 SLOAD PUSH2 0xB8A JUMP JUMPDEST SWAP2 PUSH8 0xDE0B6B3A7640000 SWAP1 PUSH2 0xBAD JUMP JUMPDEST LT PUSH2 0x85E JUMPI DUP3 PUSH2 0x794 JUMP JUMPDEST PUSH1 0x40 MLOAD PUSH3 0x461BCD PUSH1 0xE5 SHL DUP2 MSTORE PUSH1 0x20 PUSH1 0x4 DUP3 ADD MSTORE PUSH1 0x12 PUSH1 0x24 DUP3 ADD MSTORE PUSH18 0x45786365656473206D617820737570706C79 PUSH1 0x70 SHL PUSH1 0x44 DUP3 ADD MSTORE PUSH1 0x64 SWAP1 REVERT JUMPDEST PUSH1 0x40 MLOAD PUSH3 0x461BCD PUSH1 0xE5 SHL DUP2 MSTORE PUSH1 0x20 PUSH1 0x4 DUP3 ADD MSTORE PUSH1 0x10 PUSH1 0x24 DUP3 ADD MSTORE PUSH16 0x135A5B9D1A5B99C8191A5CD8589B1959 PUSH1 0x82 SHL PUSH1 0x44 DUP3 ADD MSTORE PUSH1 0x64 SWAP1 REVERT JUMPDEST CALLVALUE PUSH2 0x1A6 JUMPI PUSH1 0x0 CALLDATASIZE PUSH1 0x3 NOT ADD SLT PUSH2 0x1A6 JUMPI PUSH1 0x20 PUSH2 0x38C PUSH2 0xD46 JUMP JUMPDEST CALLVALUE PUSH2 0x1A6 JUMPI PUSH1 0x0 CALLDATASIZE PUSH1 0x3 NOT ADD SLT PUSH2 0x1A6 JUMPI PUSH1 0x20 PUSH1 0x40 MLOAD PUSH1 0x12 DUP2 MSTORE RETURN JUMPDEST CALLVALUE PUSH2 0x1A6 JUMPI PUSH1 0x60 CALLDATASIZE PUSH1 0x3 NOT ADD SLT PUSH2 0x1A6 JUMPI PUSH2 0x3BA PUSH2 0x923 PUSH2 0xA69 JUMP JUMPDEST PUSH2 0x92B PUSH2 0xA7F JUMP JUMPDEST PUSH1 0x44 CALLDATALOAD SWAP2 PUSH2 0x93A DUP4 CALLER DUP4 PUSH2 0xBC0 JUMP JUMPDEST PUSH2 0xC97 JUMP JUMPDEST CALLVALUE PUSH2 0x1A6 JUMPI PUSH1 0x0 CALLDATASIZE PUSH1 0x3 NOT ADD SLT PUSH2 0x1A6 JUMPI PUSH1 0x20 PUSH1 0x2 SLOAD PUSH1 0x40 MLOAD SWAP1 DUP2 MSTORE RETURN JUMPDEST CALLVALUE PUSH2 0x1A6 JUMPI PUSH1 0x40 CALLDATASIZE PUSH1 0x3 NOT ADD SLT PUSH2 0x1A6 JUMPI PUSH2 0x3BA PUSH2 0x979 PUSH2 0xA69 JUMP JUMPDEST PUSH1 0x24 CALLDATALOAD SWAP1 CALLER PUSH2 0xF0C JUMP JUMPDEST CALLVALUE PUSH2 0x1A6 JUMPI PUSH1 0x0 CALLDATASIZE PUSH1 0x3 NOT ADD SLT PUSH2 0x1A6 JUMPI PUSH1 0x0 PUSH1 0x3 SLOAD PUSH2 0x9A2 DUP2 PUSH2 0xA95 JUMP JUMPDEST DUP1 DUP5 MSTORE SWAP1 PUSH1 0x1 DUP2 AND SWAP1 DUP2 ISZERO PUSH2 0x4A9 JUMPI POP PUSH1 0x1 EQ PUSH2 0x9C9 JUMPI PUSH2 0x446 DUP4 PUSH2 0x432 DUP2 DUP6 SUB DUP3 PUSH2 0xB52 JUMP JUMPDEST PUSH1 0x3 PUSH1 0x0 SWAP1 DUP2 MSTORE PUSH32 0xC2575A0E9E593C00F959F8C92F12DB2869C3395A3B0502D05E2516446F71F85B SWAP4 SWAP3 POP SWAP1 JUMPDEST DUP1 DUP3 LT PUSH2 0xA0E JUMPI POP SWAP1 SWAP2 POP DUP2 ADD PUSH1 0x20 ADD PUSH2 0x432 PUSH2 0x422 JUMP JUMPDEST SWAP2 SWAP3 PUSH1 0x1 DUP2 PUSH1 0x20 SWAP3 SLOAD DUP4 DUP6 DUP9 ADD ADD MSTORE ADD SWAP2 ADD SWAP1 SWAP3 SWAP2 PUSH2 0x9F6 JUMP JUMPDEST SWAP2 SWAP1 DUP3 MLOAD SWAP3 DUP4 DUP3 MSTORE PUSH1 0x0 JUMPDEST DUP5 DUP2 LT PUSH2 0xA54 JUMPI POP POP DUP3 PUSH1 0x0 PUSH1 0x20 DUP1 SWAP5 SWAP6 DUP5 ADD ADD MSTORE PUSH1 0x1F DUP1 NOT SWAP2 ADD AND ADD ADD SWAP1 JUMP JUMPDEST DUP1 PUSH1 0x20 DUP1 SWAP3 DUP5 ADD ADD MLOAD DUP3 DUP3 DUP7 ADD ADD MSTORE ADD PUSH2 0xA33 JUMP JUMPDEST PUSH1 0x4 CALLDATALOAD SWAP1 PUSH1 0x1 PUSH1 0x1 PUSH1 0xA0 SHL SUB DUP3 AND DUP3 SUB PUSH2 0x1A6 JUMPI JUMP JUMPDEST PUSH1 0x24 CALLDATALOAD SWAP1 PUSH1 0x1 PUSH1 0x1 PUSH1 0xA0 SHL SUB DUP3 AND DUP3 SUB PUSH2 0x1A6 JUMPI JUMP JUMPDEST SWAP1 PUSH1 0x1 DUP3 DUP2 SHR SWAP3 AND DUP1 ISZERO PUSH2 0xAC5 JUMPI JUMPDEST PUSH1 0x20 DUP4 LT EQ PUSH2 0xAAF JUMPI JUMP JUMPDEST PUSH4 0x4E487B71 PUSH1 0xE0 SHL PUSH1 0x0 MSTORE PUSH1 0x22 PUSH1 0x4 MSTORE PUSH1 0x24 PUSH1 0x0 REVERT JUMPDEST SWAP2 PUSH1 0x7F AND SWAP2 PUSH2 0xAA4 JUMP JUMPDEST PUSH1 0x0 SWAP3 SWAP2 DUP2 SLOAD SWAP2 PUSH2 0xADF DUP4 PUSH2 0xA95 JUMP JUMPDEST DUP1 DUP4 MSTORE SWAP3 PUSH1 0x1 DUP2 AND SWAP1 DUP2 ISZERO PUSH2 0xB35 JUMPI POP PUSH1 0x1 EQ PUSH2 0xAFB JUMPI POP POP POP JUMP JUMPDEST PUSH1 0x0 SWAP1 DUP2 MSTORE PUSH1 0x20 DUP2 KECCAK256 SWAP4 SWAP5 POP SWAP2 SWAP3 JUMPDEST DUP4 DUP4 LT PUSH2 0xB1B JUMPI POP PUSH1 0x20 SWAP3 POP ADD ADD SWAP1 JUMP JUMPDEST PUSH1 0x1 DUP2 PUSH1 0x20 SWAP3 SWAP5 SWAP4 SWAP5 SLOAD DUP4 DUP6 DUP8 ADD ADD MSTORE ADD SWAP2 ADD SWAP2 SWAP1 PUSH2 0xB0A JUMP JUMPDEST SWAP2 POP POP PUSH1 0x20 SWAP4 SWAP5 POP PUSH1 0xFF SWAP3 SWAP2 SWAP3 NOT AND DUP4 DUP4 ADD MSTORE ISZERO ISZERO PUSH1 0x5 SHL ADD ADD SWAP1 JUMP JUMPDEST SWAP1 PUSH1 0x1F DUP1 NOT SWAP2 ADD AND DUP2 ADD SWAP1 DUP2 LT PUSH8 0xFFFFFFFFFFFFFFFF DUP3 GT OR PUSH2 0xB74 JUMPI PUSH1 0x40 MSTORE JUMP JUMPDEST PUSH4 0x4E487B71 PUSH1 0xE0 SHL PUSH1 0x0 MSTORE PUSH1 0x41 PUSH1 0x4 MSTORE PUSH1 0x24 PUSH1 0x0 REVERT JUMPDEST SWAP2 SWAP1 DUP3 ADD DUP1 SWAP3 GT PUSH2 0xB97 JUMPI JUMP JUMPDEST PUSH4 0x4E487B71 PUSH1 0xE0 SHL PUSH1 0x0 MSTORE PUSH1 0x11 PUSH1 0x4 MSTORE PUSH1 0x24 PUSH1 0x0 REVERT JUMPDEST DUP2 DUP2 MUL SWAP3 SWAP2 DUP2 ISZERO SWAP2 DUP5 DIV EQ OR ISZERO PUSH2 0xB97 JUMPI JUMP JUMPDEST PUSH1 0x1 PUSH1 0x1 PUSH1 0xA0 SHL SUB SWAP1 DUP2 AND PUSH1 0x0 DUP2 DUP2 MSTORE PUSH1 0x1 PUSH1 0x20 SWAP1 DUP2 MSTORE PUSH1 0x40 DUP1 DUP4 KECCAK256 SWAP5 DUP7 AND DUP4 MSTORE SWAP4 SWAP1 MSTORE SWAP2 SWAP1 SWAP2 KECCAK256 SLOAD SWAP3 SWAP2 SWAP1 PUSH1 0x0 NOT DUP5 LT PUSH2 0xBFC JUMPI JUMPDEST POP POP POP POP JUMP JUMPDEST DUP3 DUP5 LT PUSH2 0xC72 JUMPI DUP1 ISZERO PUSH2 0xC5C JUMPI PUSH1 0x1 PUSH1 0x1 PUSH1 0xA0 SHL SUB DUP3 AND ISZERO PUSH2 0xC46 JUMPI PUSH1 0x0 MSTORE PUSH1 0x1 PUSH1 0x20 MSTORE PUSH1 0x40 PUSH1 0x0 KECCAK256 SWAP1 PUSH1 0x1 DUP1 PUSH1 0xA0 SHL SUB AND PUSH1 0x0 MSTORE PUSH1 0x20 MSTORE PUSH1 0x40 PUSH1 0x0 KECCAK256 SWAP2 SUB SWAP1 SSTORE CODESIZE DUP1 DUP1 DUP1 PUSH2 0xBF6 JUMP JUMPDEST PUSH4 0x4A1406B1 PUSH1 0xE1 SHL PUSH1 0x0 MSTORE PUSH1 0x0 PUSH1 0x4 MSTORE PUSH1 0x24 PUSH1 0x0 REVERT JUMPDEST PUSH4 0xE602DF05 PUSH1 0xE0 SHL PUSH1 0x0 MSTORE PUSH1 0x0 PUSH1 0x4 MSTORE PUSH1 0x24 PUSH1 0x0 REVERT JUMPDEST POP DUP3 SWAP1 PUSH4 0x7DC7A0D9 PUSH1 0xE1 SHL PUSH1 0x0 MSTORE PUSH1 0x1 DUP1 PUSH1 0xA0 SHL SUB AND PUSH1 0x4 MSTORE PUSH1 0x24 MSTORE PUSH1 0x44 MSTORE PUSH1 0x64 PUSH1 0x0 REVERT JUMPDEST PUSH1 0x1 PUSH1 0x1 PUSH1 0xA0 SHL SUB AND SWAP1 DUP2 ISZERO PUSH2 0xD30 JUMPI PUSH1 0x1 PUSH1 0x1 PUSH1 0xA0 SHL SUB AND SWAP2 DUP3 ISZERO PUSH2 0x81E JUMPI PUSH1 0x0 DUP3 DUP2 MSTORE DUP1 PUSH1 0x20 MSTORE PUSH1 0x40 DUP2 KECCAK256 SLOAD DUP3 DUP2 LT PUSH2 0xD16 JUMPI SWAP2 PUSH1 0x40 DUP3 DUP3 PUSH32 0xDDF252AD1BE2C89B69C2B068FC378DAA952BA7F163C4A11628F55A4DF523B3EF SWAP6 DUP8 PUSH1 0x20 SWAP7 MSTORE DUP3 DUP7 MSTORE SUB DUP3 DUP3 KECCAK256 SSTORE DUP7 DUP2 MSTORE DUP1 DUP5 MSTORE KECCAK256 DUP2 DUP2 SLOAD ADD SWAP1 SSTORE PUSH1 0x40 MLOAD SWAP1 DUP2 MSTORE LOG3 JUMP JUMPDEST SWAP2 PUSH1 0x64 SWAP3 DUP5 PUSH4 0x391434E3 PUSH1 0xE2 SHL DUP5 MSTORE PUSH1 0x4 MSTORE PUSH1 0x24 MSTORE PUSH1 0x44 MSTORE REVERT JUMPDEST PUSH4 0x4B637E8F PUSH1 0xE1 SHL PUSH1 0x0 MSTORE PUSH1 0x0 PUSH1 0x4 MSTORE PUSH1 0x24 PUSH1 0x0 REVERT JUMPDEST ADDRESS PUSH32 0x0 PUSH1 0x1 PUSH1 0x1 PUSH1 0xA0 SHL SUB AND EQ DUP1 PUSH2 0xE39 JUMPI JUMPDEST ISZERO PUSH2 0xDA1 JUMPI PUSH32 0x0 SWAP1 JUMP JUMPDEST PUSH1 0x40 MLOAD PUSH1 0x20 DUP2 ADD SWAP1 PUSH32 0x8B73C3C69BB8FE3D512ECC4CF759CC79239F7B179B0FFACAA9A75D522B39400F DUP3 MSTORE PUSH32 0x0 PUSH1 0x40 DUP3 ADD MSTORE PUSH32 0x0 PUSH1 0x60 DUP3 ADD MSTORE CHAINID PUSH1 0x80 DUP3 ADD MSTORE ADDRESS PUSH1 0xA0 DUP3 ADD MSTORE PUSH1 0xA0 DUP2 MSTORE PUSH2 0xE33 PUSH1 0xC0 DUP3 PUSH2 0xB52 JUMP JUMPDEST MLOAD SWAP1 KECCAK256 SWAP1 JUMP JUMPDEST POP PUSH32 0x0 CHAINID EQ PUSH2 0xD78 JUMP JUMPDEST PUSH1 0x5 SLOAD PUSH1 0x1 PUSH1 0x1 PUSH1 0xA0 SHL SUB AND CALLER SUB PUSH2 0xE76 JUMPI JUMP JUMPDEST PUSH4 0x118CDAA7 PUSH1 0xE0 SHL PUSH1 0x0 MSTORE CALLER PUSH1 0x4 MSTORE PUSH1 0x24 PUSH1 0x0 REVERT JUMPDEST PUSH1 0x1 PUSH1 0x1 PUSH1 0xA0 SHL SUB AND DUP1 ISZERO PUSH2 0xD30 JUMPI PUSH1 0x0 SWAP2 DUP2 DUP4 MSTORE DUP3 PUSH1 0x20 MSTORE PUSH1 0x40 DUP4 KECCAK256 SLOAD DUP2 DUP2 LT PUSH2 0xEF3 JUMPI DUP2 PUSH32 0xDDF252AD1BE2C89B69C2B068FC378DAA952BA7F163C4A11628F55A4DF523B3EF SWAP3 PUSH1 0x20 SWAP3 DUP6 DUP8 MSTORE DUP7 DUP5 MSTORE SUB PUSH1 0x40 DUP7 KECCAK256 SSTORE DUP1 PUSH1 0x2 SLOAD SUB PUSH1 0x2 SSTORE PUSH1 0x40 MLOAD SWAP1 DUP2 MSTORE LOG3 JUMP JUMPDEST PUSH1 0x64 SWAP4 SWAP3 PUSH4 0x391434E3 PUSH1 0xE2 SHL DUP5 MSTORE PUSH1 0x4 MSTORE PUSH1 0x24 MSTORE PUSH1 0x44 MSTORE REVERT JUMPDEST PUSH1 0x1 PUSH1 0x1 PUSH1 0xA0 SHL SUB AND SWAP1 DUP2 ISZERO PUSH2 0xC5C JUMPI PUSH1 0x1 PUSH1 0x1 PUSH1 0xA0 SHL SUB AND SWAP2 DUP3 ISZERO PUSH2 0xC46 JUMPI PUSH1 0x20 PUSH32 0x8C5BE1E5EBEC7D5BD14F71427D1E84F3DD0314C0F7B2291E5B200AC8C7C3B925 SWAP2 DUP4 PUSH1 0x0 MSTORE PUSH1 0x1 DUP3 MSTORE PUSH1 0x40 PUSH1 0x0 KECCAK256 DUP6 PUSH1 0x0 MSTORE DUP3 MSTORE DUP1 PUSH1 0x40 PUSH1 0x0 KECCAK256 SSTORE PUSH1 0x40 MLOAD SWAP1 DUP2 MSTORE LOG3 JUMP JUMPDEST PUSH1 0xFF DUP2 EQ PUSH2 0xFBD JUMPI PUSH1 0xFF DUP2 AND SWAP1 PUSH1 0x1F DUP3 GT PUSH2 0xFAC JUMPI PUSH1 0x40 DUP1 MLOAD SWAP3 PUSH2 0xF97 DUP3 DUP6 PUSH2 0xB52 JUMP JUMPDEST PUSH1 0x20 DUP1 DUP6 MSTORE DUP5 ADD SWAP2 PUSH1 0x1F NOT ADD CALLDATASIZE DUP4 CALLDATACOPY DUP4 MSTORE MSTORE SWAP1 JUMP JUMPDEST PUSH4 0x2CD44AC3 PUSH1 0xE2 SHL PUSH1 0x0 MSTORE PUSH1 0x4 PUSH1 0x0 REVERT JUMPDEST POP PUSH1 0x40 MLOAD PUSH2 0xFD7 DUP2 PUSH2 0xFD0 DUP2 PUSH1 0x6 PUSH2 0xACF JUMP JUMPDEST SUB DUP3 PUSH2 0xB52 JUMP JUMPDEST SWAP1 JUMP JUMPDEST PUSH1 0xFF DUP2 EQ PUSH2 0xFFE JUMPI PUSH1 0xFF DUP2 AND SWAP1 PUSH1 0x1F DUP3 GT PUSH2 0xFAC JUMPI PUSH1 0x40 DUP1 MLOAD SWAP3 PUSH2 0xF97 DUP3 DUP6 PUSH2 0xB52 JUMP JUMPDEST POP PUSH1 0x40 MLOAD PUSH2 0xFD7 DUP2 PUSH2 0xFD0 DUP2 PUSH1 0x7 PUSH2 0xACF JUMP JUMPDEST SWAP2 SWAP1 PUSH32 0x7FFFFFFFFFFFFFFFFFFFFFFFFFFFFFFF5D576E7357A4501DDFE92F46681B20A0 DUP5 GT PUSH2 0x109A JUMPI SWAP2 PUSH1 0x20 SWAP4 PUSH1 0x80 SWAP3 PUSH1 0xFF PUSH1 0x0 SWAP6 PUSH1 0x40 MLOAD SWAP5 DUP6 MSTORE AND DUP7 DUP5 ADD MSTORE PUSH1 0x40 DUP4 ADD MSTORE PUSH1 0x60 DUP3 ADD MSTORE DUP3 DUP1 MSTORE PUSH1 0x1 GAS STATICCALL ISZERO PUSH2 0x108E JUMPI PUSH1 0x0 MLOAD PUSH1 0x1 PUSH1 0x1 PUSH1 0xA0 SHL SUB DUP2 AND ISZERO PUSH2 0x1082 JUMPI SWAP1 PUSH1 0x0 SWAP1 PUSH1 0x0 SWAP1 JUMP JUMPDEST POP PUSH1 0x0 SWAP1 PUSH1 0x1 SWAP1 PUSH1 0x0 SWAP1 JUMP JUMPDEST PUSH1 0x40 MLOAD RETURNDATASIZE PUSH1 0x0 DUP3 RETURNDATACOPY RETURNDATASIZE SWAP1 REVERT JUMPDEST POP POP POP PUSH1 0x0 SWAP2 PUSH1 0x3 SWAP2 SWAP1 JUMP JUMPDEST SWAP2 SWAP1 SWAP2 PUSH1 0x4 DUP2 LT ISZERO PUSH2 0x1118 JUMPI DUP1 PUSH2 0x10BC JUMPI POP SWAP1 POP JUMP JUMPDEST PUSH1 0x0 PUSH1 0x1 DUP3 SUB PUSH2 0x10D7 JUMPI PUSH4 0xF645EEDF PUSH1 0xE0 SHL PUSH1 0x0 MSTORE PUSH1 0x4 PUSH1 0x0 REVERT JUMPDEST POP PUSH1 0x2 DUP2 SUB PUSH2 0x10F5 JUMPI DUP3 PUSH4 0xFCE698F7 PUSH1 0xE0 SHL PUSH1 0x0 MSTORE PUSH1 0x4 MSTORE PUSH1 0x24 PUSH1 0x0 REVERT JUMPDEST SWAP1 SWAP2 PUSH1 0x3 PUSH1 0x0 SWAP3 EQ PUSH2 0x1105 JUMPI POP POP JUMP JUMPDEST PUSH4 0x35E2F383 PUSH1 0xE2 SHL DUP3 MSTORE PUSH1 0x4 MSTORE PUSH1 0x24 SWAP2 POP REVERT JUMPDEST PUSH4 0x4E487B71 PUSH1 0xE0 SHL PUSH1 0x0 MSTORE PUSH1 0x21 PUSH1 0x4 MSTORE PUSH1 0x24 PUSH1 0x0 REVERT INVALID LOG2 PUSH5 0x6970667358 0x22 SLT KECCAK256 0xCD 0x4B XOR PUSH13 0xCF95615D1440EEFFE7959F8655 DUP12 0x24 BLOCKHASH 0x1F BLOBBASEFEE PUSH17 0xAD0AF9C6315A8773564736F6C63430008 SHR STOP CALLER "},"methodIdentifiers":{"DOMAIN_SEPARATOR()":"3644e515","allowance(address,address)":"dd62ed3e","approve(address,uint256)":"095ea7b3","balanceOf(address)":"70a08231","burn(uint256)":"42966c68","burnFrom(address,uint256)":"79cc6790","decimals()":"313ce567","disableMinting()":"7e5cd5c1","eip712Domain()":"84b0196e","maxSupply()":"d5abeb01","mint(address,uint256)":"40c10f19","mintingEnabled()":"9fd6db12","name()":"06fdde03","nonces(address)":"7ecebe00","owner()":"8da5cb5b","permit(address,address,uint256,uint256,uint8,bytes32,bytes32)":"d505accf","renounceOwnership()":"715018a6","symbol()":"95d89b41","toTokenUnits(uint256)":"c2a755f4","totalSupply()":"18160ddd","transfer(address,uint256)":"a9059cbb","transferFrom(address,address,uint256)":"23b872dd","transferOwnership(address)":"f2fde38b"}}}}}