{"src/templates/ZkMLVerifier.sol":{"ZkMLVerifier":{"abi":[{"inputs":[],"stateMutability":"nonpayable","type":"constructor"},{"inputs":[{"internalType":"address","name":"owner","type":"address"}],"name":"OwnableInvalidOwner","type":"error"},{"inputs":[{"internalType":"address","name":"account","type":"address"}],"name":"OwnableUnauthorizedAccount","type":"error"},{"anonymous":false,"inputs":[{"indexed":false,"internalType":"bool","name":"enabled","type":"bool"}],"name":"DevModeToggled","type":"event"},{"anonymous":false,"inputs":[{"indexed":true,"internalType":"bytes32","name":"imageId","type":"bytes32"}],"name":"ImageRevoked","type":"event"},{"anonymous":false,"inputs":[{"indexed":true,"internalType":"bytes32","name":"imageId","type":"bytes32"}],"name":"ImageTrusted","type":"event"},{"anonymous":false,"inputs":[{"indexed":true,"internalType":"address","name":"previousOwner","type":"address"},{"indexed":true,"internalType":"address","name":"newOwner","type":"address"}],"name":"OwnershipTransferred","type":"event"},{"anonymous":false,"inputs":[{"indexed":true,"internalType":"bytes32","name":"proofHash","type":"bytes32"},{"indexed":true,"internalType":"bytes32","name":"imageId","type":"bytes32"},{"indexed":false,"internalType":"address","name":"verifier","type":"address"},{"indexed":false,"internalType":"bool","name":"isValid","type":"bool"}],"name":"ProofVerified","type":"event"},{"inputs":[],"name":"PROOF_TYPE_DEV","outputs":[{"internalType":"uint8","name":"","type":"uint8"}],"stateMutability":"view","type":"function"},{"inputs":[],"name":"PROOF_TYPE_GROTH16","outputs":[{"internalType":"uint8","name":"","type":"uint8"}],"stateMutability":"view","type":"function"},{"inputs":[],"name":"PROOF_TYPE_STARK","outputs":[{"internalType":"uint8","name":"","type":"uint8"}],"stateMutability":"view","type":"function"},{"inputs":[],"name":"RISC0_VERIFIER","outputs":[{"internalType":"address","name":"","type":"address"}],"stateMutability":"view","type":"function"},{"inputs":[{"internalType":"address","name":"","type":"address"}],"name":"authorizedVerifiers","outputs":[{"internalType":"bool","name":"","type":"bool"}],"stateMutability":"view","type":"function"},{"inputs":[{"internalType":"bytes32","name":"imageId","type":"bytes32"},{"internalType":"bytes","name":"journal","type":"bytes"},{"internalType":"bytes","name":"seal","type":"bytes"}],"name":"computeProofHash","outputs":[{"internalType":"bytes32","name":"","type":"bytes32"}],"stateMutability":"pure","type":"function"},{"inputs":[],"name":"devModeEnabled","outputs":[{"internalType":"bool","name":"","type":"bool"}],"stateMutability":"view","type":"function"},{"inputs":[{"internalType":"bytes32","name":"proofHash","type":"bytes32"}],"name":"getVerification","outputs":[{"components":[{"internalType":"bytes32","name":"imageId","type":"bytes32"},{"internalType":"bytes32","name":"journalHash","type":"bytes32"},{"internalType":"address","name":"verifier","type":"address"},{"internalType":"uint256","name":"verifiedAt","type":"uint256"},{"internalType":"bool","name":"isValid","type":"bool"}],"internalType":"struct ZkMLVerifier.VerifiedProof","name":"","type":"tuple"}],"stateMutability":"view","type":"function"},{"inputs":[{"internalType":"bytes32","name":"imageId","type":"bytes32"}],"name":"isImageTrusted","outputs":[{"internalType":"bool","name":"","type":"bool"}],"stateMutability":"view","type":"function"},{"inputs":[],"name":"maxProofAge","outputs":[{"internalType":"uint256","name":"","type":"uint256"}],"stateMutability":"view","type":"function"},{"inputs":[],"name":"openVerification","outputs":[{"internalType":"bool","name":"","type":"bool"}],"stateMutability":"view","type":"function"},{"inputs":[],"name":"owner","outputs":[{"internalType":"address","name":"","type":"address"}],"stateMutability":"view","type":"function"},{"inputs":[],"name":"renounceOwnership","outputs":[],"stateMutability":"nonpayable","type":"function"},{"inputs":[{"internalType":"bytes32","name":"imageId","type":"bytes32"}],"name":"revokeImage","outputs":[],"stateMutability":"nonpayable","type":"function"},{"inputs":[{"internalType":"address","name":"verifier","type":"address"},{"internalType":"bool","name":"authorized","type":"bool"}],"name":"setAuthorizedVerifier","outputs":[],"stateMutability":"nonpayable","type":"function"},{"inputs":[{"internalType":"bool","name":"enabled","type":"bool"}],"name":"setDevMode","outputs":[],"stateMutability":"nonpayable","type":"function"},{"inputs":[{"internalType":"uint256","name":"age","type":"uint256"}],"name":"setMaxProofAge","outputs":[],"stateMutability":"nonpayable","type":"function"},{"inputs":[{"internalType":"bool","name":"open","type":"bool"}],"name":"setOpenVerification","outputs":[],"stateMutability":"nonpayable","type":"function"},{"inputs":[{"internalType":"uint256[4]","name":"gamma","type":"uint256[4]"}],"name":"setVerificationKeyGamma","outputs":[],"stateMutability":"nonpayable","type":"function"},{"inputs":[{"internalType":"address","name":"newOwner","type":"address"}],"name":"transferOwnership","outputs":[],"stateMutability":"nonpayable","type":"function"},{"inputs":[{"internalType":"bytes32","name":"imageId","type":"bytes32"}],"name":"trustImage","outputs":[],"stateMutability":"nonpayable","type":"function"},{"inputs":[{"internalType":"bytes32[]","name":"imageIds","type":"bytes32[]"}],"name":"trustImages","outputs":[],"stateMutability":"nonpayable","type":"function"},{"inputs":[{"internalType":"bytes32","name":"","type":"bytes32"}],"name":"trustedImages","outputs":[{"internalType":"bool","name":"","type":"bool"}],"stateMutability":"view","type":"function"},{"inputs":[{"internalType":"bytes32","name":"","type":"bytes32"}],"name":"verifiedProofs","outputs":[{"internalType":"bytes32","name":"imageId","type":"bytes32"},{"internalType":"bytes32","name":"journalHash","type":"bytes32"},{"internalType":"address","name":"verifier","type":"address"},{"internalType":"uint256","name":"verifiedAt","type":"uint256"},{"internalType":"bool","name":"isValid","type":"bool"}],"stateMutability":"view","type":"function"},{"inputs":[{"internalType":"bytes","name":"proofData","type":"bytes"}],"name":"verify","outputs":[{"internalType":"bool","name":"isValid","type":"bool"},{"internalType":"bytes32","name":"journalHash","type":"bytes32"}],"stateMutability":"nonpayable","type":"function"},{"inputs":[{"internalType":"bytes32","name":"imageId","type":"bytes32"},{"internalType":"bytes","name":"journal","type":"bytes"},{"internalType":"bytes","name":"seal","type":"bytes"},{"internalType":"uint8","name":"proofType","type":"uint8"}],"name":"verifyProof","outputs":[{"internalType":"bool","name":"isValid","type":"bool"},{"internalType":"bytes32","name":"journalHash","type":"bytes32"}],"stateMutability":"nonpayable","type":"function"},{"inputs":[{"internalType":"uint256","name":"","type":"uint256"}],"name":"vkGamma","outputs":[{"internalType":"uint256","name":"","type":"uint256"}],"stateMutability":"view","type":"function"},{"inputs":[],"name":"vkGammaSet","outputs":[{"internalType":"bool","name":"","type":"bool"}],"stateMutability":"view","type":"function"}],"evm":{"bytecode":{"linkReferences":{},"object":"608080604052346092573315607c5760008054336001600160a01b0319821681178355916001600160a01b03909116907f8be0079c531659141344cd1fd0a4f28419497f9722a3daafe3b4186f6b6457e09080a360ff1960085416600855610e10600955600160ff19600b541617600b5561162490816100988239f35b631e4fbdf760e01b600052600060045260246000fd5b600080fdfe6080604052600436101561001257600080fd5b60003560e01c806306e647cb146101d2578063176d80c4146101cd5780631bddcb19146101c85780632c5d696c146101c3578063391e6c99146101be57806343f9405f146101b95780634ee9f2d1146101b95780635423ac8e146101b45780635bb4aefd146101af5780636f5b6b20146101aa578063715018a6146101a55780637c897da2146101a05780637d4ba4fe1461019b5780638728f94f146101965780638bbd8fe5146101915780638da5cb5b1461018c5780638e760afe1461018757806394ef244014610182578063965a572b1461017d5780639a89171614610178578063a9c6dc0314610173578063b0e00c211461016e578063cd620de214610169578063d0e3f1b614610164578063e2dd67451461015f578063f08b224c1461015a578063f2fde38b146101555763fa592e3f1461015057600080fd5b610b9c565b610b13565b610af6565b610a06565b6109c5565b61098b565b610930565b6108d7565b610898565b61083c565b610767565b61063d565b610614565b61055d565b61050d565b6104ea565b610488565b61042f565b610411565b6103f5565b61039c565b61034b565b610325565b610309565b61029e565b610228565b346102235760803660031901126102235736608411610223576101f3610da1565b600460005b6004811061020f576005805460ff19166001179055005b6001906020833593019281830155016101f8565b600080fd5b3461022357602036600319011261022357600435600052600760205260a06040600020805490600181015490600180851b0360028201541660ff60046003840154930154169260405194855260208501526040840152606083015215156080820152f35b60209060031901126102235760043590565b34610223576102ac3661028c565b6102b4610da1565b603c811015806102fc575b156102c957600955005b60405162461bcd60e51b815260206004820152600b60248201526a496e76616c69642061676560a81b6044820152606490fd5b50620151808111156102bf565b3461022357600036600319011261022357602060405160028152f35b34610223576103333661028c565b60048110156102235760209060010154604051908152f35b34610223576020366003190112610223576004356000526006602052602060ff604060002054166040519015158152f35b600435906001600160a01b038216820361022357565b8015150361022357565b34610223576040366003190112610223576103f36103b861037c565b602435906103c582610392565b6103cd610da1565b60018060a01b0316600052600a60205260406000209060ff801983541691151516179055565b005b3461022357600036600319011261022357602060405160018152f35b34610223576000366003190112610223576020600954604051908152f35b3461022357600036600319011261022357610448610da1565b600080546001600160a01b0319811682556001600160a01b03167f8be0079c531659141344cd1fd0a4f28419497f9722a3daafe3b4186f6b6457e08280a3005b34610223576020366003190112610223577fc337d6f45251ec06523ece720baa068bf4eb00bfaa211df09f4e981072170d9160206004356104c881610392565b6104d0610da1565b151560ff196008541660ff821617600855604051908152a1005b3461022357600036600319011261022357602060ff600854166040519015158152f35b3461022357600036600319011261022357602060ff600554166040519015158152f35b9181601f84011215610223578235916001600160401b038311610223576020838186019501011161022357565b34610223576060366003190112610223576004356024356001600160401b03811161022357610590903690600401610530565b60443592916001600160401b0384116102235760606105fd916105c76105bd610610973690600401610530565b9290953691610c65565b6020815191012090806040519586936020850198895260408501528484013781016000838201520301601f198101835282610c09565b5190206040519081529081906020820190565b0390f35b34610223576000366003190112610223576000546040516001600160a01b039091168152602090f35b34610223576020366003190112610223576004356001600160401b0381116102235761066d903690600401610530565b60ff600b5416801561074f575b801561073b575b61068a90610c9c565b810190602081830312610223578035906001600160401b03821161022357019060808282031261022357604051906106c182610bce565b8235825260208301356001600160401b03811161022357816106e4918501610ce8565b60208301526040830135906001600160401b038211610223578361071260609261071d946107279701610ce8565b6040850152016109f8565b6060820152610f16565b604080519215158352602083019190915290f35b506000546001600160a01b03163314610681565b5033600052600a60205260ff6040600020541661067a565b34610223576020366003190112610223576004356000608060405161078b81610bee565b82815282602082015282604082015282606082015201526000526007602052610610604060002060ff6004604051926107c384610bee565b805484526001810154602085015260018060a01b03600282015416604085015260038101546060850152015416151560808201526040519182918291909160808060a0830194805184526020810151602085015260018060a01b0360408201511660408501526060810151606085015201511515910152565b3461022357602036600319011261022357600435610858610da1565b8060005260066020526040600020600160ff198254161790557fcea99d9506d3ccdf6d16ab2b79aa5ed14f544362f4a09cc5a8e3da196c75fea2600080a2005b34610223576020366003190112610223576001600160a01b036108b961037c565b16600052600a602052602060ff604060002054166040519015158152f35b34610223576020366003190112610223576004356108f3610da1565b806000526006602052604060002060ff1981541690557fae0cbfb48e0a7a904df88eec3a0bbe8eb58ba3558a9d53f7d94208b2c1c7279e600080a2005b34610223576020366003190112610223576004356001600160401b03811161022357366023820112156102235780600401356001600160401b038111610223573660248260051b840101116102235760246103f39201610d06565b34610223576020366003190112610223576004356109a881610392565b6109b0610da1565b60ff8019600b54169115151617600b55600080f35b3461022357600036600319011261022357602060ff600b54166040519015158152f35b6064359060ff8216820361022357565b359060ff8216820361022357565b34610223576080366003190112610223576004356024356001600160401b03811161022357610a39903690600401610530565b9190604435926001600160401b03841161022357610aaf610abe92610aa3610a68610727973690600401610530565b919092610a736109e8565b9560ff600b54168015610ad7575b8015610ac3575b610a9190610c9c565b610a99610c2a565b9889523691610c65565b60208701523691610c65565b604084015260ff166060830152565b610f16565b506000546001600160a01b03163314610a88565b5033600052600a602052610af1604060002060ff90541690565b610a81565b3461022357600036600319011261022357602060405161cafe8152f35b3461022357602036600319011261022357610b2c61037c565b610b34610da1565b6001600160a01b03168015610b8657600080546001600160a01b03198116831782556001600160a01b0316907f8be0079c531659141344cd1fd0a4f28419497f9722a3daafe3b4186f6b6457e09080a3005b631e4fbdf760e01b600052600060045260246000fd5b3461022357600036600319011261022357602060405160008152f35b634e487b7160e01b600052604160045260246000fd5b608081019081106001600160401b03821117610be957604052565b610bb8565b60a081019081106001600160401b03821117610be957604052565b90601f801991011681019081106001600160401b03821117610be957604052565b60405190610c39608083610c09565b565b60405190610c3960a083610c09565b6001600160401b038111610be957601f01601f191660200190565b929192610c7182610c4a565b91610c7f6040519384610c09565b829481845281830111610223578281602093846000960137010152565b15610ca357565b60405162461bcd60e51b815260206004820152601860248201527f4e6f7420617574686f72697a656420746f2076657269667900000000000000006044820152606490fd5b9080601f8301121561022357816020610d0393359101610c65565b90565b90610d0f610da1565b60005b818110610d1e57505050565b80610d2c6001928486610d7b565b35600052600660205260406000208260ff19825416179055610d4f818486610d7b565b357fcea99d9506d3ccdf6d16ab2b79aa5ed14f544362f4a09cc5a8e3da196c75fea2600080a201610d12565b9190811015610d8b5760051b0190565b634e487b7160e01b600052603260045260246000fd5b6000546001600160a01b03163303610db557565b63118cdaa760e01b6000523360045260246000fd5b15610dd157565b60405162461bcd60e51b8152602060048201526011602482015270125b5859d9481b9bdd081d1c9d5cdd1959607a1b6044820152606490fd5b60005b838110610e1d5750506000910152565b8181015183820152602001610e0d565b90916040939282526020820152610e4d8251809360208685019101610e0a565b010190565b91908203918211610e5f57565b634e487b7160e01b600052601160045260246000fd5b15610e7c57565b60405162461bcd60e51b815260206004820152601460248201527310d858da1959081c1c9bdbd988195e1c1a5c995960621b6044820152606490fd5b60046080610c399380518455602081015160018501556002840160018060a01b036040830151166bffffffffffffffffffffffff60a01b825416179055606081015160038501550151151591019060ff801983541691151516179055565b90610f3e610f39610f3284516000526006602052604060002090565b5460ff1690565b610dca565b602082015160208151910120918051610f6a610f78604084015160405192839188602084019687610e2d565b03601f198101835282610c09565b5190206003610f91826000526007602052604060002090565b015461109a5760ff610fa7606084015160ff1690565b166002810361103b5750610fba8261143c565b915b6110008151610fc9610c3b565b908152602081018790523360408201524260608201528415156080820152610ffb846000526007602052604060002090565b610eb8565b516040805133815284151560208201529192917fa63c74b8ff7c46b7e5e577ea9c355079dbf254f2beb1d31043043a51e507e3f29190a39190565b80611050575061104a8261133e565b91610fbc565b6001036110605761104a826111e6565b60405162461bcd60e51b8152602060048201526012602482015271556e6b6e6f776e2070726f6f66207479706560701b6044820152606490fd5b6110eb91506110e3816110d36110c960036110c16004966000526007602052604060002090565b015442610e52565b6009541015610e75565b6000526007602052604060002090565b015460ff1690565b9190565b6040908151916110ff8184610c09565b368337565b6040519060206110ff8184610c09565b60409081516111238382610c09565b809260005b81811061113457505050565b60209082516111438482610c09565b833682378185015201611128565b906000905b6002821061116357505050565b6020806001928551815201930191019091611156565b906000905b6002821061118b57505050565b602060408261119d6001948751611151565b0193019101909161117e565b926111d7906111cd6111e2946111c3876101809996611151565b6040870190611179565b60c0850190611151565b610100830190611179565b0190565b610100604082015151106112a35760206111fe6110ef565b9161127f61126361120d611114565b94610100606061121b6110ef565b9501518681015183526040810151878401526080810151885260608101518789015260c0810151604089015260a0810151606089015260e081015186520151858501526114cd565b93610f6a61126f611577565b60405194859387850198896111a9565b611287611104565b928391519060085afa908161129a575090565b60019150511490565b50600090565b906020916112c281518092818552858086019101610e0a565b601f01601f1916010190565b916112eb90610d03949284526060602085015260608401906112a9565b9160408184039101526112a9565b3d15611324573d9061130a82610c4a565b916113186040519384610c09565b82523d6000602084013e565b606090565b908160209103126102235751610d0381610392565b6040810151602081511061141d5761cafe3b6113bf5760405162461bcd60e51b815260206004820152603c60248201527f535441524b206e6f7420737570706f727465643a207573652047726f7468313660448201527f206f7220446576206d6f6465206f6e20506f6c6b61646f7420487562000000006064820152608490fd5b81600092916113e36020859451930151610f6a6040519384926020840196876112ce565b519061cafe5afa6113f26112f9565b90158015611412575b6112a35780602080610d0393518301019101611329565b5060208151106113fb565b5050600090565b602092918152610e4d82518093858085019101610e0a565b60ff60085416156114945760408151610f6a61146660208501518451928391602083019586611424565b519020910151602081519101209060405161148d81610f6a60208201948560209181520190565b5190201490565b60405162461bcd60e51b815260206004820152601160248201527011195d881b5bd91948191a5cd8589b1959607a1b6044820152606490fd5b6040908180516114dd8282610c09565b369037815191808301918383106001600160401b03841117610be9577f30644e72e131a029b85045b68181585d97816a916871ca8d3c208c16d87cfd479260209252805184520151067f30644e72e131a029b85045b68181585d97816a916871ca8d3c208c16d87cfd47037f30644e72e131a029b85045b68181585d97816a916871ca8d3c208c16d87cfd478111610e5f57602082015290565b61157f611114565b9060ff60055416156115b6576001548251526002548251602090810191909152600354818401805191909152600454905190910152565b60405162461bcd60e51b815260206004820152601060248201526f1592c819d85b5b58481b9bdd081cd95d60821b6044820152606490fdfea2646970667358221220979f1a18be4e83d17170bce1b812f9052658fd796eb3d38af87bbe872df104b064736f6c634300081c0033","opcodes":"PUSH1 0x80 DUP1 PUSH1 0x40 MSTORE CALLVALUE PUSH1 0x92 JUMPI CALLER ISZERO PUSH1 0x7C JUMPI PUSH1 0x0 DUP1 SLOAD CALLER PUSH1 0x1 PUSH1 0x1 PUSH1 0xA0 SHL SUB NOT DUP3 AND DUP2 OR DUP4 SSTORE SWAP2 PUSH1 0x1 PUSH1 0x1 PUSH1 0xA0 SHL SUB SWAP1 SWAP2 AND SWAP1 PUSH32 0x8BE0079C531659141344CD1FD0A4F28419497F9722A3DAAFE3B4186F6B6457E0 SWAP1 DUP1 LOG3 PUSH1 0xFF NOT PUSH1 0x8 SLOAD AND PUSH1 0x8 SSTORE PUSH2 0xE10 PUSH1 0x9 SSTORE PUSH1 0x1 PUSH1 0xFF NOT PUSH1 0xB SLOAD AND OR PUSH1 0xB SSTORE PUSH2 0x1624 SWAP1 DUP2 PUSH2 0x98 DUP3 CODECOPY RETURN JUMPDEST PUSH4 0x1E4FBDF7 PUSH1 0xE0 SHL PUSH1 0x0 MSTORE PUSH1 0x0 PUSH1 0x4 MSTORE PUSH1 0x24 PUSH1 0x0 REVERT JUMPDEST PUSH1 0x0 DUP1 REVERT INVALID PUSH1 0x80 PUSH1 0x40 MSTORE PUSH1 0x4 CALLDATASIZE LT ISZERO PUSH2 0x12 JUMPI PUSH1 0x0 DUP1 REVERT JUMPDEST PUSH1 0x0 CALLDATALOAD PUSH1 0xE0 SHR DUP1 PUSH4 0x6E647CB EQ PUSH2 0x1D2 JUMPI DUP1 PUSH4 0x176D80C4 EQ PUSH2 0x1CD JUMPI DUP1 PUSH4 0x1BDDCB19 EQ PUSH2 0x1C8 JUMPI DUP1 PUSH4 0x2C5D696C EQ PUSH2 0x1C3 JUMPI DUP1 PUSH4 0x391E6C99 EQ PUSH2 0x1BE JUMPI DUP1 PUSH4 0x43F9405F EQ PUSH2 0x1B9 JUMPI DUP1 PUSH4 0x4EE9F2D1 EQ PUSH2 0x1B9 JUMPI DUP1 PUSH4 0x5423AC8E EQ PUSH2 0x1B4 JUMPI DUP1 PUSH4 0x5BB4AEFD EQ PUSH2 0x1AF JUMPI DUP1 PUSH4 0x6F5B6B20 EQ PUSH2 0x1AA JUMPI DUP1 PUSH4 0x715018A6 EQ PUSH2 0x1A5 JUMPI DUP1 PUSH4 0x7C897DA2 EQ PUSH2 0x1A0 JUMPI DUP1 PUSH4 0x7D4BA4FE EQ PUSH2 0x19B JUMPI DUP1 PUSH4 0x8728F94F EQ PUSH2 0x196 JUMPI DUP1 PUSH4 0x8BBD8FE5 EQ PUSH2 0x191 JUMPI DUP1 PUSH4 0x8DA5CB5B EQ PUSH2 0x18C JUMPI DUP1 PUSH4 0x8E760AFE EQ PUSH2 0x187 JUMPI DUP1 PUSH4 0x94EF2440 EQ PUSH2 0x182 JUMPI DUP1 PUSH4 0x965A572B EQ PUSH2 0x17D JUMPI DUP1 PUSH4 0x9A891716 EQ PUSH2 0x178 JUMPI DUP1 PUSH4 0xA9C6DC03 EQ PUSH2 0x173 JUMPI DUP1 PUSH4 0xB0E00C21 EQ PUSH2 0x16E JUMPI DUP1 PUSH4 0xCD620DE2 EQ PUSH2 0x169 JUMPI DUP1 PUSH4 0xD0E3F1B6 EQ PUSH2 0x164 JUMPI DUP1 PUSH4 0xE2DD6745 EQ PUSH2 0x15F JUMPI DUP1 PUSH4 0xF08B224C EQ PUSH2 0x15A JUMPI DUP1 PUSH4 0xF2FDE38B EQ PUSH2 0x155 JUMPI PUSH4 0xFA592E3F EQ PUSH2 0x150 JUMPI PUSH1 0x0 DUP1 REVERT JUMPDEST PUSH2 0xB9C JUMP JUMPDEST PUSH2 0xB13 JUMP JUMPDEST PUSH2 0xAF6 JUMP JUMPDEST PUSH2 0xA06 JUMP JUMPDEST PUSH2 0x9C5 JUMP JUMPDEST PUSH2 0x98B JUMP JUMPDEST PUSH2 0x930 JUMP JUMPDEST PUSH2 0x8D7 JUMP JUMPDEST PUSH2 0x898 JUMP JUMPDEST PUSH2 0x83C JUMP JUMPDEST PUSH2 0x767 JUMP JUMPDEST PUSH2 0x63D JUMP JUMPDEST PUSH2 0x614 JUMP JUMPDEST PUSH2 0x55D JUMP JUMPDEST PUSH2 0x50D JUMP JUMPDEST PUSH2 0x4EA JUMP JUMPDEST PUSH2 0x488 JUMP JUMPDEST PUSH2 0x42F JUMP JUMPDEST PUSH2 0x411 JUMP JUMPDEST PUSH2 0x3F5 JUMP JUMPDEST PUSH2 0x39C JUMP JUMPDEST PUSH2 0x34B JUMP JUMPDEST PUSH2 0x325 JUMP JUMPDEST PUSH2 0x309 JUMP JUMPDEST PUSH2 0x29E JUMP JUMPDEST PUSH2 0x228 JUMP JUMPDEST CALLVALUE PUSH2 0x223 JUMPI PUSH1 0x80 CALLDATASIZE PUSH1 0x3 NOT ADD SLT PUSH2 0x223 JUMPI CALLDATASIZE PUSH1 0x84 GT PUSH2 0x223 JUMPI PUSH2 0x1F3 PUSH2 0xDA1 JUMP JUMPDEST PUSH1 0x4 PUSH1 0x0 JUMPDEST PUSH1 0x4 DUP2 LT PUSH2 0x20F JUMPI PUSH1 0x5 DUP1 SLOAD PUSH1 0xFF NOT AND PUSH1 0x1 OR SWAP1 SSTORE STOP JUMPDEST PUSH1 0x1 SWAP1 PUSH1 0x20 DUP4 CALLDATALOAD SWAP4 ADD SWAP3 DUP2 DUP4 ADD SSTORE ADD PUSH2 0x1F8 JUMP JUMPDEST PUSH1 0x0 DUP1 REVERT JUMPDEST CALLVALUE PUSH2 0x223 JUMPI PUSH1 0x20 CALLDATASIZE PUSH1 0x3 NOT ADD SLT PUSH2 0x223 JUMPI PUSH1 0x4 CALLDATALOAD PUSH1 0x0 MSTORE PUSH1 0x7 PUSH1 0x20 MSTORE PUSH1 0xA0 PUSH1 0x40 PUSH1 0x0 KECCAK256 DUP1 SLOAD SWAP1 PUSH1 0x1 DUP2 ADD SLOAD SWAP1 PUSH1 0x1 DUP1 DUP6 SHL SUB PUSH1 0x2 DUP3 ADD SLOAD AND PUSH1 0xFF PUSH1 0x4 PUSH1 0x3 DUP5 ADD SLOAD SWAP4 ADD SLOAD AND SWAP3 PUSH1 0x40 MLOAD SWAP5 DUP6 MSTORE PUSH1 0x20 DUP6 ADD MSTORE PUSH1 0x40 DUP5 ADD MSTORE PUSH1 0x60 DUP4 ADD MSTORE ISZERO ISZERO PUSH1 0x80 DUP3 ADD MSTORE RETURN JUMPDEST PUSH1 0x20 SWAP1 PUSH1 0x3 NOT ADD SLT PUSH2 0x223 JUMPI PUSH1 0x4 CALLDATALOAD SWAP1 JUMP JUMPDEST CALLVALUE PUSH2 0x223 JUMPI PUSH2 0x2AC CALLDATASIZE PUSH2 0x28C JUMP JUMPDEST PUSH2 0x2B4 PUSH2 0xDA1 JUMP JUMPDEST PUSH1 0x3C DUP2 LT ISZERO DUP1 PUSH2 0x2FC JUMPI JUMPDEST ISZERO PUSH2 0x2C9 JUMPI PUSH1 0x9 SSTORE STOP JUMPDEST PUSH1 0x40 MLOAD PUSH3 0x461BCD PUSH1 0xE5 SHL DUP2 MSTORE PUSH1 0x20 PUSH1 0x4 DUP3 ADD MSTORE PUSH1 0xB PUSH1 0x24 DUP3 ADD MSTORE PUSH11 0x496E76616C696420616765 PUSH1 0xA8 SHL PUSH1 0x44 DUP3 ADD MSTORE PUSH1 0x64 SWAP1 REVERT JUMPDEST POP PUSH3 0x15180 DUP2 GT ISZERO PUSH2 0x2BF JUMP JUMPDEST CALLVALUE PUSH2 0x223 JUMPI PUSH1 0x0 CALLDATASIZE PUSH1 0x3 NOT ADD SLT PUSH2 0x223 JUMPI PUSH1 0x20 PUSH1 0x40 MLOAD PUSH1 0x2 DUP2 MSTORE RETURN JUMPDEST CALLVALUE PUSH2 0x223 JUMPI PUSH2 0x333 CALLDATASIZE PUSH2 0x28C JUMP JUMPDEST PUSH1 0x4 DUP2 LT ISZERO PUSH2 0x223 JUMPI PUSH1 0x20 SWAP1 PUSH1 0x1 ADD SLOAD PUSH1 0x40 MLOAD SWAP1 DUP2 MSTORE RETURN JUMPDEST CALLVALUE PUSH2 0x223 JUMPI PUSH1 0x20 CALLDATASIZE PUSH1 0x3 NOT ADD SLT PUSH2 0x223 JUMPI PUSH1 0x4 CALLDATALOAD PUSH1 0x0 MSTORE PUSH1 0x6 PUSH1 0x20 MSTORE PUSH1 0x20 PUSH1 0xFF PUSH1 0x40 PUSH1 0x0 KECCAK256 SLOAD AND PUSH1 0x40 MLOAD SWAP1 ISZERO ISZERO DUP2 MSTORE RETURN JUMPDEST PUSH1 0x4 CALLDATALOAD SWAP1 PUSH1 0x1 PUSH1 0x1 PUSH1 0xA0 SHL SUB DUP3 AND DUP3 SUB PUSH2 0x223 JUMPI JUMP JUMPDEST DUP1 ISZERO ISZERO SUB PUSH2 0x223 JUMPI JUMP JUMPDEST CALLVALUE PUSH2 0x223 JUMPI PUSH1 0x40 CALLDATASIZE PUSH1 0x3 NOT ADD SLT PUSH2 0x223 JUMPI PUSH2 0x3F3 PUSH2 0x3B8 PUSH2 0x37C JUMP JUMPDEST PUSH1 0x24 CALLDATALOAD SWAP1 PUSH2 0x3C5 DUP3 PUSH2 0x392 JUMP JUMPDEST PUSH2 0x3CD PUSH2 0xDA1 JUMP JUMPDEST PUSH1 0x1 DUP1 PUSH1 0xA0 SHL SUB AND PUSH1 0x0 MSTORE PUSH1 0xA PUSH1 0x20 MSTORE PUSH1 0x40 PUSH1 0x0 KECCAK256 SWAP1 PUSH1 0xFF DUP1 NOT DUP4 SLOAD AND SWAP2 ISZERO ISZERO AND OR SWAP1 SSTORE JUMP JUMPDEST STOP JUMPDEST CALLVALUE PUSH2 0x223 JUMPI PUSH1 0x0 CALLDATASIZE PUSH1 0x3 NOT ADD SLT PUSH2 0x223 JUMPI PUSH1 0x20 PUSH1 0x40 MLOAD PUSH1 0x1 DUP2 MSTORE RETURN JUMPDEST CALLVALUE PUSH2 0x223 JUMPI PUSH1 0x0 CALLDATASIZE PUSH1 0x3 NOT ADD SLT PUSH2 0x223 JUMPI PUSH1 0x20 PUSH1 0x9 SLOAD PUSH1 0x40 MLOAD SWAP1 DUP2 MSTORE RETURN JUMPDEST CALLVALUE PUSH2 0x223 JUMPI PUSH1 0x0 CALLDATASIZE PUSH1 0x3 NOT ADD SLT PUSH2 0x223 JUMPI PUSH2 0x448 PUSH2 0xDA1 JUMP JUMPDEST PUSH1 0x0 DUP1 SLOAD PUSH1 0x1 PUSH1 0x1 PUSH1 0xA0 SHL SUB NOT DUP2 AND DUP3 SSTORE PUSH1 0x1 PUSH1 0x1 PUSH1 0xA0 SHL SUB AND PUSH32 0x8BE0079C531659141344CD1FD0A4F28419497F9722A3DAAFE3B4186F6B6457E0 DUP3 DUP1 LOG3 STOP JUMPDEST CALLVALUE PUSH2 0x223 JUMPI PUSH1 0x20 CALLDATASIZE PUSH1 0x3 NOT ADD SLT PUSH2 0x223 JUMPI PUSH32 0xC337D6F45251EC06523ECE720BAA068BF4EB00BFAA211DF09F4E981072170D91 PUSH1 0x20 PUSH1 0x4 CALLDATALOAD PUSH2 0x4C8 DUP2 PUSH2 0x392 JUMP JUMPDEST PUSH2 0x4D0 PUSH2 0xDA1 JUMP JUMPDEST ISZERO ISZERO PUSH1 0xFF NOT PUSH1 0x8 SLOAD AND PUSH1 0xFF DUP3 AND OR PUSH1 0x8 SSTORE PUSH1 0x40 MLOAD SWAP1 DUP2 MSTORE LOG1 STOP JUMPDEST CALLVALUE PUSH2 0x223 JUMPI PUSH1 0x0 CALLDATASIZE PUSH1 0x3 NOT ADD SLT PUSH2 0x223 JUMPI PUSH1 0x20 PUSH1 0xFF PUSH1 0x8 SLOAD AND PUSH1 0x40 MLOAD SWAP1 ISZERO ISZERO DUP2 MSTORE RETURN JUMPDEST CALLVALUE PUSH2 0x223 JUMPI PUSH1 0x0 CALLDATASIZE PUSH1 0x3 NOT ADD SLT PUSH2 0x223 JUMPI PUSH1 0x20 PUSH1 0xFF PUSH1 0x5 SLOAD AND PUSH1 0x40 MLOAD SWAP1 ISZERO ISZERO DUP2 MSTORE RETURN JUMPDEST SWAP2 DUP2 PUSH1 0x1F DUP5 ADD SLT ISZERO PUSH2 0x223 JUMPI DUP3 CALLDATALOAD SWAP2 PUSH1 0x1 PUSH1 0x1 PUSH1 0x40 SHL SUB DUP4 GT PUSH2 0x223 JUMPI PUSH1 0x20 DUP4 DUP2 DUP7 ADD SWAP6 ADD ADD GT PUSH2 0x223 JUMPI JUMP JUMPDEST CALLVALUE PUSH2 0x223 JUMPI PUSH1 0x60 CALLDATASIZE PUSH1 0x3 NOT ADD SLT PUSH2 0x223 JUMPI PUSH1 0x4 CALLDATALOAD PUSH1 0x24 CALLDATALOAD PUSH1 0x1 PUSH1 0x1 PUSH1 0x40 SHL SUB DUP2 GT PUSH2 0x223 JUMPI PUSH2 0x590 SWAP1 CALLDATASIZE SWAP1 PUSH1 0x4 ADD PUSH2 0x530 JUMP JUMPDEST PUSH1 0x44 CALLDATALOAD SWAP3 SWAP2 PUSH1 0x1 PUSH1 0x1 PUSH1 0x40 SHL SUB DUP5 GT PUSH2 0x223 JUMPI PUSH1 0x60 PUSH2 0x5FD SWAP2 PUSH2 0x5C7 PUSH2 0x5BD PUSH2 0x610 SWAP8 CALLDATASIZE SWAP1 PUSH1 0x4 ADD PUSH2 0x530 JUMP JUMPDEST SWAP3 SWAP1 SWAP6 CALLDATASIZE SWAP2 PUSH2 0xC65 JUMP JUMPDEST PUSH1 0x20 DUP2 MLOAD SWAP2 ADD KECCAK256 SWAP1 DUP1 PUSH1 0x40 MLOAD SWAP6 DUP7 SWAP4 PUSH1 0x20 DUP6 ADD SWAP9 DUP10 MSTORE PUSH1 0x40 DUP6 ADD MSTORE DUP5 DUP5 ADD CALLDATACOPY DUP2 ADD PUSH1 0x0 DUP4 DUP3 ADD MSTORE SUB ADD PUSH1 0x1F NOT DUP2 ADD DUP4 MSTORE DUP3 PUSH2 0xC09 JUMP JUMPDEST MLOAD SWAP1 KECCAK256 PUSH1 0x40 MLOAD SWAP1 DUP2 MSTORE SWAP1 DUP2 SWAP1 PUSH1 0x20 DUP3 ADD SWAP1 JUMP JUMPDEST SUB SWAP1 RETURN JUMPDEST CALLVALUE PUSH2 0x223 JUMPI PUSH1 0x0 CALLDATASIZE PUSH1 0x3 NOT ADD SLT PUSH2 0x223 JUMPI PUSH1 0x0 SLOAD PUSH1 0x40 MLOAD PUSH1 0x1 PUSH1 0x1 PUSH1 0xA0 SHL SUB SWAP1 SWAP2 AND DUP2 MSTORE PUSH1 0x20 SWAP1 RETURN JUMPDEST CALLVALUE PUSH2 0x223 JUMPI PUSH1 0x20 CALLDATASIZE PUSH1 0x3 NOT ADD SLT PUSH2 0x223 JUMPI PUSH1 0x4 CALLDATALOAD PUSH1 0x1 PUSH1 0x1 PUSH1 0x40 SHL SUB DUP2 GT PUSH2 0x223 JUMPI PUSH2 0x66D SWAP1 CALLDATASIZE SWAP1 PUSH1 0x4 ADD PUSH2 0x530 JUMP JUMPDEST PUSH1 0xFF PUSH1 0xB SLOAD AND DUP1 ISZERO PUSH2 0x74F JUMPI JUMPDEST DUP1 ISZERO PUSH2 0x73B JUMPI JUMPDEST PUSH2 0x68A SWAP1 PUSH2 0xC9C JUMP JUMPDEST DUP2 ADD SWAP1 PUSH1 0x20 DUP2 DUP4 SUB SLT PUSH2 0x223 JUMPI DUP1 CALLDATALOAD SWAP1 PUSH1 0x1 PUSH1 0x1 PUSH1 0x40 SHL SUB DUP3 GT PUSH2 0x223 JUMPI ADD SWAP1 PUSH1 0x80 DUP3 DUP3 SUB SLT PUSH2 0x223 JUMPI PUSH1 0x40 MLOAD SWAP1 PUSH2 0x6C1 DUP3 PUSH2 0xBCE JUMP JUMPDEST DUP3 CALLDATALOAD DUP3 MSTORE PUSH1 0x20 DUP4 ADD CALLDATALOAD PUSH1 0x1 PUSH1 0x1 PUSH1 0x40 SHL SUB DUP2 GT PUSH2 0x223 JUMPI DUP2 PUSH2 0x6E4 SWAP2 DUP6 ADD PUSH2 0xCE8 JUMP JUMPDEST PUSH1 0x20 DUP4 ADD MSTORE PUSH1 0x40 DUP4 ADD CALLDATALOAD SWAP1 PUSH1 0x1 PUSH1 0x1 PUSH1 0x40 SHL SUB DUP3 GT PUSH2 0x223 JUMPI DUP4 PUSH2 0x712 PUSH1 0x60 SWAP3 PUSH2 0x71D SWAP5 PUSH2 0x727 SWAP8 ADD PUSH2 0xCE8 JUMP JUMPDEST PUSH1 0x40 DUP6 ADD MSTORE ADD PUSH2 0x9F8 JUMP JUMPDEST PUSH1 0x60 DUP3 ADD MSTORE PUSH2 0xF16 JUMP JUMPDEST PUSH1 0x40 DUP1 MLOAD SWAP3 ISZERO ISZERO DUP4 MSTORE PUSH1 0x20 DUP4 ADD SWAP2 SWAP1 SWAP2 MSTORE SWAP1 RETURN JUMPDEST POP PUSH1 0x0 SLOAD PUSH1 0x1 PUSH1 0x1 PUSH1 0xA0 SHL SUB AND CALLER EQ PUSH2 0x681 JUMP JUMPDEST POP CALLER PUSH1 0x0 MSTORE PUSH1 0xA PUSH1 0x20 MSTORE PUSH1 0xFF PUSH1 0x40 PUSH1 0x0 KECCAK256 SLOAD AND PUSH2 0x67A JUMP JUMPDEST CALLVALUE PUSH2 0x223 JUMPI PUSH1 0x20 CALLDATASIZE PUSH1 0x3 NOT ADD SLT PUSH2 0x223 JUMPI PUSH1 0x4 CALLDATALOAD PUSH1 0x0 PUSH1 0x80 PUSH1 0x40 MLOAD PUSH2 0x78B DUP2 PUSH2 0xBEE JUMP JUMPDEST DUP3 DUP2 MSTORE DUP3 PUSH1 0x20 DUP3 ADD MSTORE DUP3 PUSH1 0x40 DUP3 ADD MSTORE DUP3 PUSH1 0x60 DUP3 ADD MSTORE ADD MSTORE PUSH1 0x0 MSTORE PUSH1 0x7 PUSH1 0x20 MSTORE PUSH2 0x610 PUSH1 0x40 PUSH1 0x0 KECCAK256 PUSH1 0xFF PUSH1 0x4 PUSH1 0x40 MLOAD SWAP3 PUSH2 0x7C3 DUP5 PUSH2 0xBEE JUMP JUMPDEST DUP1 SLOAD DUP5 MSTORE PUSH1 0x1 DUP2 ADD SLOAD PUSH1 0x20 DUP6 ADD MSTORE PUSH1 0x1 DUP1 PUSH1 0xA0 SHL SUB PUSH1 0x2 DUP3 ADD SLOAD AND PUSH1 0x40 DUP6 ADD MSTORE PUSH1 0x3 DUP2 ADD SLOAD PUSH1 0x60 DUP6 ADD MSTORE ADD SLOAD AND ISZERO ISZERO PUSH1 0x80 DUP3 ADD MSTORE PUSH1 0x40 MLOAD SWAP2 DUP3 SWAP2 DUP3 SWAP2 SWAP1 SWAP2 PUSH1 0x80 DUP1 PUSH1 0xA0 DUP4 ADD SWAP5 DUP1 MLOAD DUP5 MSTORE PUSH1 0x20 DUP2 ADD MLOAD PUSH1 0x20 DUP6 ADD MSTORE PUSH1 0x1 DUP1 PUSH1 0xA0 SHL SUB PUSH1 0x40 DUP3 ADD MLOAD AND PUSH1 0x40 DUP6 ADD MSTORE PUSH1 0x60 DUP2 ADD MLOAD PUSH1 0x60 DUP6 ADD MSTORE ADD MLOAD ISZERO ISZERO SWAP2 ADD MSTORE JUMP JUMPDEST CALLVALUE PUSH2 0x223 JUMPI PUSH1 0x20 CALLDATASIZE PUSH1 0x3 NOT ADD SLT PUSH2 0x223 JUMPI PUSH1 0x4 CALLDATALOAD PUSH2 0x858 PUSH2 0xDA1 JUMP JUMPDEST DUP1 PUSH1 0x0 MSTORE PUSH1 0x6 PUSH1 0x20 MSTORE PUSH1 0x40 PUSH1 0x0 KECCAK256 PUSH1 0x1 PUSH1 0xFF NOT DUP3 SLOAD AND OR SWAP1 SSTORE PUSH32 0xCEA99D9506D3CCDF6D16AB2B79AA5ED14F544362F4A09CC5A8E3DA196C75FEA2 PUSH1 0x0 DUP1 LOG2 STOP JUMPDEST CALLVALUE PUSH2 0x223 JUMPI PUSH1 0x20 CALLDATASIZE PUSH1 0x3 NOT ADD SLT PUSH2 0x223 JUMPI PUSH1 0x1 PUSH1 0x1 PUSH1 0xA0 SHL SUB PUSH2 0x8B9 PUSH2 0x37C JUMP JUMPDEST AND PUSH1 0x0 MSTORE PUSH1 0xA PUSH1 0x20 MSTORE PUSH1 0x20 PUSH1 0xFF PUSH1 0x40 PUSH1 0x0 KECCAK256 SLOAD AND PUSH1 0x40 MLOAD SWAP1 ISZERO ISZERO DUP2 MSTORE RETURN JUMPDEST CALLVALUE PUSH2 0x223 JUMPI PUSH1 0x20 CALLDATASIZE PUSH1 0x3 NOT ADD SLT PUSH2 0x223 JUMPI PUSH1 0x4 CALLDATALOAD PUSH2 0x8F3 PUSH2 0xDA1 JUMP JUMPDEST DUP1 PUSH1 0x0 MSTORE PUSH1 0x6 PUSH1 0x20 MSTORE PUSH1 0x40 PUSH1 0x0 KECCAK256 PUSH1 0xFF NOT DUP2 SLOAD AND SWAP1 SSTORE PUSH32 0xAE0CBFB48E0A7A904DF88EEC3A0BBE8EB58BA3558A9D53F7D94208B2C1C7279E PUSH1 0x0 DUP1 LOG2 STOP JUMPDEST CALLVALUE PUSH2 0x223 JUMPI PUSH1 0x20 CALLDATASIZE PUSH1 0x3 NOT ADD SLT PUSH2 0x223 JUMPI PUSH1 0x4 CALLDATALOAD PUSH1 0x1 PUSH1 0x1 PUSH1 0x40 SHL SUB DUP2 GT PUSH2 0x223 JUMPI CALLDATASIZE PUSH1 0x23 DUP3 ADD SLT ISZERO PUSH2 0x223 JUMPI DUP1 PUSH1 0x4 ADD CALLDATALOAD PUSH1 0x1 PUSH1 0x1 PUSH1 0x40 SHL SUB DUP2 GT PUSH2 0x223 JUMPI CALLDATASIZE PUSH1 0x24 DUP3 PUSH1 0x5 SHL DUP5 ADD ADD GT PUSH2 0x223 JUMPI PUSH1 0x24 PUSH2 0x3F3 SWAP3 ADD PUSH2 0xD06 JUMP JUMPDEST CALLVALUE PUSH2 0x223 JUMPI PUSH1 0x20 CALLDATASIZE PUSH1 0x3 NOT ADD SLT PUSH2 0x223 JUMPI PUSH1 0x4 CALLDATALOAD PUSH2 0x9A8 DUP2 PUSH2 0x392 JUMP JUMPDEST PUSH2 0x9B0 PUSH2 0xDA1 JUMP JUMPDEST PUSH1 0xFF DUP1 NOT PUSH1 0xB SLOAD AND SWAP2 ISZERO ISZERO AND OR PUSH1 0xB SSTORE PUSH1 0x0 DUP1 RETURN JUMPDEST CALLVALUE PUSH2 0x223 JUMPI PUSH1 0x0 CALLDATASIZE PUSH1 0x3 NOT ADD SLT PUSH2 0x223 JUMPI PUSH1 0x20 PUSH1 0xFF PUSH1 0xB SLOAD AND PUSH1 0x40 MLOAD SWAP1 ISZERO ISZERO DUP2 MSTORE RETURN JUMPDEST PUSH1 0x64 CALLDATALOAD SWAP1 PUSH1 0xFF DUP3 AND DUP3 SUB PUSH2 0x223 JUMPI JUMP JUMPDEST CALLDATALOAD SWAP1 PUSH1 0xFF DUP3 AND DUP3 SUB PUSH2 0x223 JUMPI JUMP JUMPDEST CALLVALUE PUSH2 0x223 JUMPI PUSH1 0x80 CALLDATASIZE PUSH1 0x3 NOT ADD SLT PUSH2 0x223 JUMPI PUSH1 0x4 CALLDATALOAD PUSH1 0x24 CALLDATALOAD PUSH1 0x1 PUSH1 0x1 PUSH1 0x40 SHL SUB DUP2 GT PUSH2 0x223 JUMPI PUSH2 0xA39 SWAP1 CALLDATASIZE SWAP1 PUSH1 0x4 ADD PUSH2 0x530 JUMP JUMPDEST SWAP2 SWAP1 PUSH1 0x44 CALLDATALOAD SWAP3 PUSH1 0x1 PUSH1 0x1 PUSH1 0x40 SHL SUB DUP5 GT PUSH2 0x223 JUMPI PUSH2 0xAAF PUSH2 0xABE SWAP3 PUSH2 0xAA3 PUSH2 0xA68 PUSH2 0x727 SWAP8 CALLDATASIZE SWAP1 PUSH1 0x4 ADD PUSH2 0x530 JUMP JUMPDEST SWAP2 SWAP1 SWAP3 PUSH2 0xA73 PUSH2 0x9E8 JUMP JUMPDEST SWAP6 PUSH1 0xFF PUSH1 0xB SLOAD AND DUP1 ISZERO PUSH2 0xAD7 JUMPI JUMPDEST DUP1 ISZERO PUSH2 0xAC3 JUMPI JUMPDEST PUSH2 0xA91 SWAP1 PUSH2 0xC9C JUMP JUMPDEST PUSH2 0xA99 PUSH2 0xC2A JUMP JUMPDEST SWAP9 DUP10 MSTORE CALLDATASIZE SWAP2 PUSH2 0xC65 JUMP JUMPDEST PUSH1 0x20 DUP8 ADD MSTORE CALLDATASIZE SWAP2 PUSH2 0xC65 JUMP JUMPDEST PUSH1 0x40 DUP5 ADD MSTORE PUSH1 0xFF AND PUSH1 0x60 DUP4 ADD MSTORE JUMP JUMPDEST PUSH2 0xF16 JUMP JUMPDEST POP PUSH1 0x0 SLOAD PUSH1 0x1 PUSH1 0x1 PUSH1 0xA0 SHL SUB AND CALLER EQ PUSH2 0xA88 JUMP JUMPDEST POP CALLER PUSH1 0x0 MSTORE PUSH1 0xA PUSH1 0x20 MSTORE PUSH2 0xAF1 PUSH1 0x40 PUSH1 0x0 KECCAK256 PUSH1 0xFF SWAP1 SLOAD AND SWAP1 JUMP JUMPDEST PUSH2 0xA81 JUMP JUMPDEST CALLVALUE PUSH2 0x223 JUMPI PUSH1 0x0 CALLDATASIZE PUSH1 0x3 NOT ADD SLT PUSH2 0x223 JUMPI PUSH1 0x20 PUSH1 0x40 MLOAD PUSH2 0xCAFE DUP2 MSTORE RETURN JUMPDEST CALLVALUE PUSH2 0x223 JUMPI PUSH1 0x20 CALLDATASIZE PUSH1 0x3 NOT ADD SLT PUSH2 0x223 JUMPI PUSH2 0xB2C PUSH2 0x37C JUMP JUMPDEST PUSH2 0xB34 PUSH2 0xDA1 JUMP JUMPDEST PUSH1 0x1 PUSH1 0x1 PUSH1 0xA0 SHL SUB AND DUP1 ISZERO PUSH2 0xB86 JUMPI PUSH1 0x0 DUP1 SLOAD PUSH1 0x1 PUSH1 0x1 PUSH1 0xA0 SHL SUB NOT DUP2 AND DUP4 OR DUP3 SSTORE PUSH1 0x1 PUSH1 0x1 PUSH1 0xA0 SHL SUB AND SWAP1 PUSH32 0x8BE0079C531659141344CD1FD0A4F28419497F9722A3DAAFE3B4186F6B6457E0 SWAP1 DUP1 LOG3 STOP JUMPDEST PUSH4 0x1E4FBDF7 PUSH1 0xE0 SHL PUSH1 0x0 MSTORE PUSH1 0x0 PUSH1 0x4 MSTORE PUSH1 0x24 PUSH1 0x0 REVERT JUMPDEST CALLVALUE PUSH2 0x223 JUMPI PUSH1 0x0 CALLDATASIZE PUSH1 0x3 NOT ADD SLT PUSH2 0x223 JUMPI PUSH1 0x20 PUSH1 0x40 MLOAD PUSH1 0x0 DUP2 MSTORE RETURN JUMPDEST PUSH4 0x4E487B71 PUSH1 0xE0 SHL PUSH1 0x0 MSTORE PUSH1 0x41 PUSH1 0x4 MSTORE PUSH1 0x24 PUSH1 0x0 REVERT JUMPDEST PUSH1 0x80 DUP2 ADD SWAP1 DUP2 LT PUSH1 0x1 PUSH1 0x1 PUSH1 0x40 SHL SUB DUP3 GT OR PUSH2 0xBE9 JUMPI PUSH1 0x40 MSTORE JUMP JUMPDEST PUSH2 0xBB8 JUMP JUMPDEST PUSH1 0xA0 DUP2 ADD SWAP1 DUP2 LT PUSH1 0x1 PUSH1 0x1 PUSH1 0x40 SHL SUB DUP3 GT OR PUSH2 0xBE9 JUMPI PUSH1 0x40 MSTORE JUMP JUMPDEST SWAP1 PUSH1 0x1F DUP1 NOT SWAP2 ADD AND DUP2 ADD SWAP1 DUP2 LT PUSH1 0x1 PUSH1 0x1 PUSH1 0x40 SHL SUB DUP3 GT OR PUSH2 0xBE9 JUMPI PUSH1 0x40 MSTORE JUMP JUMPDEST PUSH1 0x40 MLOAD SWAP1 PUSH2 0xC39 PUSH1 0x80 DUP4 PUSH2 0xC09 JUMP JUMPDEST JUMP JUMPDEST PUSH1 0x40 MLOAD SWAP1 PUSH2 0xC39 PUSH1 0xA0 DUP4 PUSH2 0xC09 JUMP JUMPDEST PUSH1 0x1 PUSH1 0x1 PUSH1 0x40 SHL SUB DUP2 GT PUSH2 0xBE9 JUMPI PUSH1 0x1F ADD PUSH1 0x1F NOT AND PUSH1 0x20 ADD SWAP1 JUMP JUMPDEST SWAP3 SWAP2 SWAP3 PUSH2 0xC71 DUP3 PUSH2 0xC4A JUMP JUMPDEST SWAP2 PUSH2 0xC7F PUSH1 0x40 MLOAD SWAP4 DUP5 PUSH2 0xC09 JUMP JUMPDEST DUP3 SWAP5 DUP2 DUP5 MSTORE DUP2 DUP4 ADD GT PUSH2 0x223 JUMPI DUP3 DUP2 PUSH1 0x20 SWAP4 DUP5 PUSH1 0x0 SWAP7 ADD CALLDATACOPY ADD ADD MSTORE JUMP JUMPDEST ISZERO PUSH2 0xCA3 JUMPI JUMP JUMPDEST PUSH1 0x40 MLOAD PUSH3 0x461BCD PUSH1 0xE5 SHL DUP2 MSTORE PUSH1 0x20 PUSH1 0x4 DUP3 ADD MSTORE PUSH1 0x18 PUSH1 0x24 DUP3 ADD MSTORE PUSH32 0x4E6F7420617574686F72697A656420746F207665726966790000000000000000 PUSH1 0x44 DUP3 ADD MSTORE PUSH1 0x64 SWAP1 REVERT JUMPDEST SWAP1 DUP1 PUSH1 0x1F DUP4 ADD SLT ISZERO PUSH2 0x223 JUMPI DUP2 PUSH1 0x20 PUSH2 0xD03 SWAP4 CALLDATALOAD SWAP2 ADD PUSH2 0xC65 JUMP JUMPDEST SWAP1 JUMP JUMPDEST SWAP1 PUSH2 0xD0F PUSH2 0xDA1 JUMP JUMPDEST PUSH1 0x0 JUMPDEST DUP2 DUP2 LT PUSH2 0xD1E JUMPI POP POP POP JUMP JUMPDEST DUP1 PUSH2 0xD2C PUSH1 0x1 SWAP3 DUP5 DUP7 PUSH2 0xD7B JUMP JUMPDEST CALLDATALOAD PUSH1 0x0 MSTORE PUSH1 0x6 PUSH1 0x20 MSTORE PUSH1 0x40 PUSH1 0x0 KECCAK256 DUP3 PUSH1 0xFF NOT DUP3 SLOAD AND OR SWAP1 SSTORE PUSH2 0xD4F DUP2 DUP5 DUP7 PUSH2 0xD7B JUMP JUMPDEST CALLDATALOAD PUSH32 0xCEA99D9506D3CCDF6D16AB2B79AA5ED14F544362F4A09CC5A8E3DA196C75FEA2 PUSH1 0x0 DUP1 LOG2 ADD PUSH2 0xD12 JUMP JUMPDEST SWAP2 SWAP1 DUP2 LT ISZERO PUSH2 0xD8B JUMPI PUSH1 0x5 SHL ADD SWAP1 JUMP JUMPDEST PUSH4 0x4E487B71 PUSH1 0xE0 SHL PUSH1 0x0 MSTORE PUSH1 0x32 PUSH1 0x4 MSTORE PUSH1 0x24 PUSH1 0x0 REVERT JUMPDEST PUSH1 0x0 SLOAD PUSH1 0x1 PUSH1 0x1 PUSH1 0xA0 SHL SUB AND CALLER SUB PUSH2 0xDB5 JUMPI JUMP JUMPDEST PUSH4 0x118CDAA7 PUSH1 0xE0 SHL PUSH1 0x0 MSTORE CALLER PUSH1 0x4 MSTORE PUSH1 0x24 PUSH1 0x0 REVERT JUMPDEST ISZERO PUSH2 0xDD1 JUMPI JUMP JUMPDEST PUSH1 0x40 MLOAD PUSH3 0x461BCD PUSH1 0xE5 SHL DUP2 MSTORE PUSH1 0x20 PUSH1 0x4 DUP3 ADD MSTORE PUSH1 0x11 PUSH1 0x24 DUP3 ADD MSTORE PUSH17 0x125B5859D9481B9BDD081D1C9D5CDD1959 PUSH1 0x7A SHL PUSH1 0x44 DUP3 ADD MSTORE PUSH1 0x64 SWAP1 REVERT JUMPDEST PUSH1 0x0 JUMPDEST DUP4 DUP2 LT PUSH2 0xE1D JUMPI POP POP PUSH1 0x0 SWAP2 ADD MSTORE JUMP JUMPDEST DUP2 DUP2 ADD MLOAD DUP4 DUP3 ADD MSTORE PUSH1 0x20 ADD PUSH2 0xE0D JUMP JUMPDEST SWAP1 SWAP2 PUSH1 0x40 SWAP4 SWAP3 DUP3 MSTORE PUSH1 0x20 DUP3 ADD MSTORE PUSH2 0xE4D DUP3 MLOAD DUP1 SWAP4 PUSH1 0x20 DUP7 DUP6 ADD SWAP2 ADD PUSH2 0xE0A JUMP JUMPDEST ADD ADD SWAP1 JUMP JUMPDEST SWAP2 SWAP1 DUP3 SUB SWAP2 DUP3 GT PUSH2 0xE5F JUMPI JUMP JUMPDEST PUSH4 0x4E487B71 PUSH1 0xE0 SHL PUSH1 0x0 MSTORE PUSH1 0x11 PUSH1 0x4 MSTORE PUSH1 0x24 PUSH1 0x0 REVERT JUMPDEST ISZERO PUSH2 0xE7C JUMPI JUMP JUMPDEST PUSH1 0x40 MLOAD PUSH3 0x461BCD PUSH1 0xE5 SHL DUP2 MSTORE PUSH1 0x20 PUSH1 0x4 DUP3 ADD MSTORE PUSH1 0x14 PUSH1 0x24 DUP3 ADD MSTORE PUSH20 0x10D858DA1959081C1C9BDBD988195E1C1A5C9959 PUSH1 0x62 SHL PUSH1 0x44 DUP3 ADD MSTORE PUSH1 0x64 SWAP1 REVERT JUMPDEST PUSH1 0x4 PUSH1 0x80 PUSH2 0xC39 SWAP4 DUP1 MLOAD DUP5 SSTORE PUSH1 0x20 DUP2 ADD MLOAD PUSH1 0x1 DUP6 ADD SSTORE PUSH1 0x2 DUP5 ADD PUSH1 0x1 DUP1 PUSH1 0xA0 SHL SUB PUSH1 0x40 DUP4 ADD MLOAD AND PUSH12 0xFFFFFFFFFFFFFFFFFFFFFFFF PUSH1 0xA0 SHL DUP3 SLOAD AND OR SWAP1 SSTORE PUSH1 0x60 DUP2 ADD MLOAD PUSH1 0x3 DUP6 ADD SSTORE ADD MLOAD ISZERO ISZERO SWAP2 ADD SWAP1 PUSH1 0xFF DUP1 NOT DUP4 SLOAD AND SWAP2 ISZERO ISZERO AND OR SWAP1 SSTORE JUMP JUMPDEST SWAP1 PUSH2 0xF3E PUSH2 0xF39 PUSH2 0xF32 DUP5 MLOAD PUSH1 0x0 MSTORE PUSH1 0x6 PUSH1 0x20 MSTORE PUSH1 0x40 PUSH1 0x0 KECCAK256 SWAP1 JUMP JUMPDEST SLOAD PUSH1 0xFF AND SWAP1 JUMP JUMPDEST PUSH2 0xDCA JUMP JUMPDEST PUSH1 0x20 DUP3 ADD MLOAD PUSH1 0x20 DUP2 MLOAD SWAP2 ADD KECCAK256 SWAP2 DUP1 MLOAD PUSH2 0xF6A PUSH2 0xF78 PUSH1 0x40 DUP5 ADD MLOAD PUSH1 0x40 MLOAD SWAP3 DUP4 SWAP2 DUP9 PUSH1 0x20 DUP5 ADD SWAP7 DUP8 PUSH2 0xE2D JUMP JUMPDEST SUB PUSH1 0x1F NOT DUP2 ADD DUP4 MSTORE DUP3 PUSH2 0xC09 JUMP JUMPDEST MLOAD SWAP1 KECCAK256 PUSH1 0x3 PUSH2 0xF91 DUP3 PUSH1 0x0 MSTORE PUSH1 0x7 PUSH1 0x20 MSTORE PUSH1 0x40 PUSH1 0x0 KECCAK256 SWAP1 JUMP JUMPDEST ADD SLOAD PUSH2 0x109A JUMPI PUSH1 0xFF PUSH2 0xFA7 PUSH1 0x60 DUP5 ADD MLOAD PUSH1 0xFF AND SWAP1 JUMP JUMPDEST AND PUSH1 0x2 DUP2 SUB PUSH2 0x103B JUMPI POP PUSH2 0xFBA DUP3 PUSH2 0x143C JUMP JUMPDEST SWAP2 JUMPDEST PUSH2 0x1000 DUP2 MLOAD PUSH2 0xFC9 PUSH2 0xC3B JUMP JUMPDEST SWAP1 DUP2 MSTORE PUSH1 0x20 DUP2 ADD DUP8 SWAP1 MSTORE CALLER PUSH1 0x40 DUP3 ADD MSTORE TIMESTAMP PUSH1 0x60 DUP3 ADD MSTORE DUP5 ISZERO ISZERO PUSH1 0x80 DUP3 ADD MSTORE PUSH2 0xFFB DUP5 PUSH1 0x0 MSTORE PUSH1 0x7 PUSH1 0x20 MSTORE PUSH1 0x40 PUSH1 0x0 KECCAK256 SWAP1 JUMP JUMPDEST PUSH2 0xEB8 JUMP JUMPDEST MLOAD PUSH1 0x40 DUP1 MLOAD CALLER DUP2 MSTORE DUP5 ISZERO ISZERO PUSH1 0x20 DUP3 ADD MSTORE SWAP2 SWAP3 SWAP2 PUSH32 0xA63C74B8FF7C46B7E5E577EA9C355079DBF254F2BEB1D31043043A51E507E3F2 SWAP2 SWAP1 LOG3 SWAP2 SWAP1 JUMP JUMPDEST DUP1 PUSH2 0x1050 JUMPI POP PUSH2 0x104A DUP3 PUSH2 0x133E JUMP JUMPDEST SWAP2 PUSH2 0xFBC JUMP JUMPDEST PUSH1 0x1 SUB PUSH2 0x1060 JUMPI PUSH2 0x104A DUP3 PUSH2 0x11E6 JUMP JUMPDEST PUSH1 0x40 MLOAD PUSH3 0x461BCD PUSH1 0xE5 SHL DUP2 MSTORE PUSH1 0x20 PUSH1 0x4 DUP3 ADD MSTORE PUSH1 0x12 PUSH1 0x24 DUP3 ADD MSTORE PUSH18 0x556E6B6E6F776E2070726F6F662074797065 PUSH1 0x70 SHL PUSH1 0x44 DUP3 ADD MSTORE PUSH1 0x64 SWAP1 REVERT JUMPDEST PUSH2 0x10EB SWAP2 POP PUSH2 0x10E3 DUP2 PUSH2 0x10D3 PUSH2 0x10C9 PUSH1 0x3 PUSH2 0x10C1 PUSH1 0x4 SWAP7 PUSH1 0x0 MSTORE PUSH1 0x7 PUSH1 0x20 MSTORE PUSH1 0x40 PUSH1 0x0 KECCAK256 SWAP1 JUMP JUMPDEST ADD SLOAD TIMESTAMP PUSH2 0xE52 JUMP JUMPDEST PUSH1 0x9 SLOAD LT ISZERO PUSH2 0xE75 JUMP JUMPDEST PUSH1 0x0 MSTORE PUSH1 0x7 PUSH1 0x20 MSTORE PUSH1 0x40 PUSH1 0x0 KECCAK256 SWAP1 JUMP JUMPDEST ADD SLOAD PUSH1 0xFF AND SWAP1 JUMP JUMPDEST SWAP2 SWAP1 JUMP JUMPDEST PUSH1 0x40 SWAP1 DUP2 MLOAD SWAP2 PUSH2 0x10FF DUP2 DUP5 PUSH2 0xC09 JUMP JUMPDEST CALLDATASIZE DUP4 CALLDATACOPY JUMP JUMPDEST PUSH1 0x40 MLOAD SWAP1 PUSH1 0x20 PUSH2 0x10FF DUP2 DUP5 PUSH2 0xC09 JUMP JUMPDEST PUSH1 0x40 SWAP1 DUP2 MLOAD PUSH2 0x1123 DUP4 DUP3 PUSH2 0xC09 JUMP JUMPDEST DUP1 SWAP3 PUSH1 0x0 JUMPDEST DUP2 DUP2 LT PUSH2 0x1134 JUMPI POP POP POP JUMP JUMPDEST PUSH1 0x20 SWAP1 DUP3 MLOAD PUSH2 0x1143 DUP5 DUP3 PUSH2 0xC09 JUMP JUMPDEST DUP4 CALLDATASIZE DUP3 CALLDATACOPY DUP2 DUP6 ADD MSTORE ADD PUSH2 0x1128 JUMP JUMPDEST SWAP1 PUSH1 0x0 SWAP1 JUMPDEST PUSH1 0x2 DUP3 LT PUSH2 0x1163 JUMPI POP POP POP JUMP JUMPDEST PUSH1 0x20 DUP1 PUSH1 0x1 SWAP3 DUP6 MLOAD DUP2 MSTORE ADD SWAP4 ADD SWAP2 ADD SWAP1 SWAP2 PUSH2 0x1156 JUMP JUMPDEST SWAP1 PUSH1 0x0 SWAP1 JUMPDEST PUSH1 0x2 DUP3 LT PUSH2 0x118B JUMPI POP POP POP JUMP JUMPDEST PUSH1 0x20 PUSH1 0x40 DUP3 PUSH2 0x119D PUSH1 0x1 SWAP5 DUP8 MLOAD PUSH2 0x1151 JUMP JUMPDEST ADD SWAP4 ADD SWAP2 ADD SWAP1 SWAP2 PUSH2 0x117E JUMP JUMPDEST SWAP3 PUSH2 0x11D7 SWAP1 PUSH2 0x11CD PUSH2 0x11E2 SWAP5 PUSH2 0x11C3 DUP8 PUSH2 0x180 SWAP10 SWAP7 PUSH2 0x1151 JUMP JUMPDEST PUSH1 0x40 DUP8 ADD SWAP1 PUSH2 0x1179 JUMP JUMPDEST PUSH1 0xC0 DUP6 ADD SWAP1 PUSH2 0x1151 JUMP JUMPDEST PUSH2 0x100 DUP4 ADD SWAP1 PUSH2 0x1179 JUMP JUMPDEST ADD SWAP1 JUMP JUMPDEST PUSH2 0x100 PUSH1 0x40 DUP3 ADD MLOAD MLOAD LT PUSH2 0x12A3 JUMPI PUSH1 0x20 PUSH2 0x11FE PUSH2 0x10EF JUMP JUMPDEST SWAP2 PUSH2 0x127F PUSH2 0x1263 PUSH2 0x120D PUSH2 0x1114 JUMP JUMPDEST SWAP5 PUSH2 0x100 PUSH1 0x60 PUSH2 0x121B PUSH2 0x10EF JUMP JUMPDEST SWAP6 ADD MLOAD DUP7 DUP2 ADD MLOAD DUP4 MSTORE PUSH1 0x40 DUP2 ADD MLOAD DUP8 DUP5 ADD MSTORE PUSH1 0x80 DUP2 ADD MLOAD DUP9 MSTORE PUSH1 0x60 DUP2 ADD MLOAD DUP8 DUP10 ADD MSTORE PUSH1 0xC0 DUP2 ADD MLOAD PUSH1 0x40 DUP10 ADD MSTORE PUSH1 0xA0 DUP2 ADD MLOAD PUSH1 0x60 DUP10 ADD MSTORE PUSH1 0xE0 DUP2 ADD MLOAD DUP7 MSTORE ADD MLOAD DUP6 DUP6 ADD MSTORE PUSH2 0x14CD JUMP JUMPDEST SWAP4 PUSH2 0xF6A PUSH2 0x126F PUSH2 0x1577 JUMP JUMPDEST PUSH1 0x40 MLOAD SWAP5 DUP6 SWAP4 DUP8 DUP6 ADD SWAP9 DUP10 PUSH2 0x11A9 JUMP JUMPDEST PUSH2 0x1287 PUSH2 0x1104 JUMP JUMPDEST SWAP3 DUP4 SWAP2 MLOAD SWAP1 PUSH1 0x8 GAS STATICCALL SWAP1 DUP2 PUSH2 0x129A JUMPI POP SWAP1 JUMP JUMPDEST PUSH1 0x1 SWAP2 POP MLOAD EQ SWAP1 JUMP JUMPDEST POP PUSH1 0x0 SWAP1 JUMP JUMPDEST SWAP1 PUSH1 0x20 SWAP2 PUSH2 0x12C2 DUP2 MLOAD DUP1 SWAP3 DUP2 DUP6 MSTORE DUP6 DUP1 DUP7 ADD SWAP2 ADD PUSH2 0xE0A JUMP JUMPDEST PUSH1 0x1F ADD PUSH1 0x1F NOT AND ADD ADD SWAP1 JUMP JUMPDEST SWAP2 PUSH2 0x12EB SWAP1 PUSH2 0xD03 SWAP5 SWAP3 DUP5 MSTORE PUSH1 0x60 PUSH1 0x20 DUP6 ADD MSTORE PUSH1 0x60 DUP5 ADD SWAP1 PUSH2 0x12A9 JUMP JUMPDEST SWAP2 PUSH1 0x40 DUP2 DUP5 SUB SWAP2 ADD MSTORE PUSH2 0x12A9 JUMP JUMPDEST RETURNDATASIZE ISZERO PUSH2 0x1324 JUMPI RETURNDATASIZE SWAP1 PUSH2 0x130A DUP3 PUSH2 0xC4A JUMP JUMPDEST SWAP2 PUSH2 0x1318 PUSH1 0x40 MLOAD SWAP4 DUP5 PUSH2 0xC09 JUMP JUMPDEST DUP3 MSTORE RETURNDATASIZE PUSH1 0x0 PUSH1 0x20 DUP5 ADD RETURNDATACOPY JUMP JUMPDEST PUSH1 0x60 SWAP1 JUMP JUMPDEST SWAP1 DUP2 PUSH1 0x20 SWAP2 SUB SLT PUSH2 0x223 JUMPI MLOAD PUSH2 0xD03 DUP2 PUSH2 0x392 JUMP JUMPDEST PUSH1 0x40 DUP2 ADD MLOAD PUSH1 0x20 DUP2 MLOAD LT PUSH2 0x141D JUMPI PUSH2 0xCAFE EXTCODESIZE PUSH2 0x13BF JUMPI PUSH1 0x40 MLOAD PUSH3 0x461BCD PUSH1 0xE5 SHL DUP2 MSTORE PUSH1 0x20 PUSH1 0x4 DUP3 ADD MSTORE PUSH1 0x3C PUSH1 0x24 DUP3 ADD MSTORE PUSH32 0x535441524B206E6F7420737570706F727465643A207573652047726F74683136 PUSH1 0x44 DUP3 ADD MSTORE PUSH32 0x206F7220446576206D6F6465206F6E20506F6C6B61646F742048756200000000 PUSH1 0x64 DUP3 ADD MSTORE PUSH1 0x84 SWAP1 REVERT JUMPDEST DUP2 PUSH1 0x0 SWAP3 SWAP2 PUSH2 0x13E3 PUSH1 0x20 DUP6 SWAP5 MLOAD SWAP4 ADD MLOAD PUSH2 0xF6A PUSH1 0x40 MLOAD SWAP4 DUP5 SWAP3 PUSH1 0x20 DUP5 ADD SWAP7 DUP8 PUSH2 0x12CE JUMP JUMPDEST MLOAD SWAP1 PUSH2 0xCAFE GAS STATICCALL PUSH2 0x13F2 PUSH2 0x12F9 JUMP JUMPDEST SWAP1 ISZERO DUP1 ISZERO PUSH2 0x1412 JUMPI JUMPDEST PUSH2 0x12A3 JUMPI DUP1 PUSH1 0x20 DUP1 PUSH2 0xD03 SWAP4 MLOAD DUP4 ADD ADD SWAP2 ADD PUSH2 0x1329 JUMP JUMPDEST POP PUSH1 0x20 DUP2 MLOAD LT PUSH2 0x13FB JUMP JUMPDEST POP POP PUSH1 0x0 SWAP1 JUMP JUMPDEST PUSH1 0x20 SWAP3 SWAP2 DUP2 MSTORE PUSH2 0xE4D DUP3 MLOAD DUP1 SWAP4 DUP6 DUP1 DUP6 ADD SWAP2 ADD PUSH2 0xE0A JUMP JUMPDEST PUSH1 0xFF PUSH1 0x8 SLOAD AND ISZERO PUSH2 0x1494 JUMPI PUSH1 0x40 DUP2 MLOAD PUSH2 0xF6A PUSH2 0x1466 PUSH1 0x20 DUP6 ADD MLOAD DUP5 MLOAD SWAP3 DUP4 SWAP2 PUSH1 0x20 DUP4 ADD SWAP6 DUP7 PUSH2 0x1424 JUMP JUMPDEST MLOAD SWAP1 KECCAK256 SWAP2 ADD MLOAD PUSH1 0x20 DUP2 MLOAD SWAP2 ADD KECCAK256 SWAP1 PUSH1 0x40 MLOAD PUSH2 0x148D DUP2 PUSH2 0xF6A PUSH1 0x20 DUP3 ADD SWAP5 DUP6 PUSH1 0x20 SWAP2 DUP2 MSTORE ADD SWAP1 JUMP JUMPDEST MLOAD SWAP1 KECCAK256 EQ SWAP1 JUMP JUMPDEST PUSH1 0x40 MLOAD PUSH3 0x461BCD PUSH1 0xE5 SHL DUP2 MSTORE PUSH1 0x20 PUSH1 0x4 DUP3 ADD MSTORE PUSH1 0x11 PUSH1 0x24 DUP3 ADD MSTORE PUSH17 0x11195D881B5BD91948191A5CD8589B1959 PUSH1 0x7A SHL PUSH1 0x44 DUP3 ADD MSTORE PUSH1 0x64 SWAP1 REVERT JUMPDEST PUSH1 0x40 SWAP1 DUP2 DUP1 MLOAD PUSH2 0x14DD DUP3 DUP3 PUSH2 0xC09 JUMP JUMPDEST CALLDATASIZE SWAP1 CALLDATACOPY DUP2 MLOAD SWAP2 DUP1 DUP4 ADD SWAP2 DUP4 DUP4 LT PUSH1 0x1 PUSH1 0x1 PUSH1 0x40 SHL SUB DUP5 GT OR PUSH2 0xBE9 JUMPI PUSH32 0x30644E72E131A029B85045B68181585D97816A916871CA8D3C208C16D87CFD47 SWAP3 PUSH1 0x20 SWAP3 MSTORE DUP1 MLOAD DUP5 MSTORE ADD MLOAD MOD PUSH32 0x30644E72E131A029B85045B68181585D97816A916871CA8D3C208C16D87CFD47 SUB PUSH32 0x30644E72E131A029B85045B68181585D97816A916871CA8D3C208C16D87CFD47 DUP2 GT PUSH2 0xE5F JUMPI PUSH1 0x20 DUP3 ADD MSTORE SWAP1 JUMP JUMPDEST PUSH2 0x157F PUSH2 0x1114 JUMP JUMPDEST SWAP1 PUSH1 0xFF PUSH1 0x5 SLOAD AND ISZERO PUSH2 0x15B6 JUMPI PUSH1 0x1 SLOAD DUP3 MLOAD MSTORE PUSH1 0x2 SLOAD DUP3 MLOAD PUSH1 0x20 SWAP1 DUP2 ADD SWAP2 SWAP1 SWAP2 MSTORE PUSH1 0x3 SLOAD DUP2 DUP5 ADD DUP1 MLOAD SWAP2 SWAP1 SWAP2 MSTORE PUSH1 0x4 SLOAD SWAP1 MLOAD SWAP1 SWAP2 ADD MSTORE JUMP JUMPDEST PUSH1 0x40 MLOAD PUSH3 0x461BCD PUSH1 0xE5 SHL DUP2 MSTORE PUSH1 0x20 PUSH1 0x4 DUP3 ADD MSTORE PUSH1 0x10 PUSH1 0x24 DUP3 ADD MSTORE PUSH16 0x1592C819D85B5B58481B9BDD081CD95D PUSH1 0x82 SHL PUSH1 0x44 DUP3 ADD MSTORE PUSH1 0x64 SWAP1 REVERT INVALID LOG2 PUSH5 0x6970667358 0x22 SLT KECCAK256 SWAP8 SWAP16 BYTE XOR 0xBE 0x4E DUP4 0xD1 PUSH18 0x70BCE1B812F9052658FD796EB3D38AF87BBE DUP8 0x2D CALL DIV 0xB0 PUSH5 0x736F6C6343 STOP ADDMOD SHR STOP CALLER "},"methodIdentifiers":{"PROOF_TYPE_DEV()":"2c5d696c","PROOF_TYPE_GROTH16()":"5bb4aefd","PROOF_TYPE_STARK()":"fa592e3f","RISC0_VERIFIER()":"f08b224c","authorizedVerifiers(address)":"9a891716","computeProofHash(bytes32,bytes,bytes)":"8bbd8fe5","devModeEnabled()":"7d4ba4fe","getVerification(bytes32)":"94ef2440","isImageTrusted(bytes32)":"43f9405f","maxProofAge()":"6f5b6b20","openVerification()":"d0e3f1b6","owner()":"8da5cb5b","renounceOwnership()":"715018a6","revokeImage(bytes32)":"a9c6dc03","setAuthorizedVerifier(address,bool)":"5423ac8e","setDevMode(bool)":"7c897da2","setMaxProofAge(uint256)":"1bddcb19","setOpenVerification(bool)":"cd620de2","setVerificationKeyGamma(uint256[4])":"06e647cb","transferOwnership(address)":"f2fde38b","trustImage(bytes32)":"965a572b","trustImages(bytes32[])":"b0e00c21","trustedImages(bytes32)":"4ee9f2d1","verifiedProofs(bytes32)":"176d80c4","verify(bytes)":"8e760afe","verifyProof(bytes32,bytes,bytes,uint8)":"e2dd6745","vkGamma(uint256)":"391e6c99","vkGammaSet()":"8728f94f"}}}}}