{"src/MDTStaking.sol":{"MDTStaking":{"abi":[{"inputs":[{"internalType":"address","name":"_token","type":"address"}],"stateMutability":"nonpayable","type":"constructor"},{"inputs":[{"internalType":"address","name":"owner","type":"address"}],"name":"OwnableInvalidOwner","type":"error"},{"inputs":[{"internalType":"address","name":"account","type":"address"}],"name":"OwnableUnauthorizedAccount","type":"error"},{"inputs":[],"name":"ReentrancyGuardReentrantCall","type":"error"},{"inputs":[{"internalType":"address","name":"token","type":"address"}],"name":"SafeERC20FailedOperation","type":"error"},{"anonymous":false,"inputs":[{"indexed":true,"internalType":"address","name":"previousOwner","type":"address"},{"indexed":true,"internalType":"address","name":"newOwner","type":"address"}],"name":"OwnershipTransferred","type":"event"},{"anonymous":false,"inputs":[{"indexed":true,"internalType":"address","name":"staker","type":"address"},{"indexed":false,"internalType":"uint256","name":"amount","type":"uint256"},{"indexed":false,"internalType":"uint256","name":"lockDays","type":"uint256"},{"indexed":false,"internalType":"uint256","name":"bonusRate","type":"uint256"},{"indexed":false,"internalType":"uint256","name":"unlockTime","type":"uint256"}],"name":"Staked","type":"event"},{"anonymous":false,"inputs":[{"indexed":true,"internalType":"address","name":"staker","type":"address"},{"indexed":false,"internalType":"uint256","name":"amount","type":"uint256"},{"indexed":false,"internalType":"uint256","name":"bonus","type":"uint256"},{"indexed":false,"internalType":"uint256","name":"totalReturned","type":"uint256"}],"name":"Unstaked","type":"event"},{"inputs":[{"internalType":"uint256","name":"amount","type":"uint256"}],"name":"fundBonusPool","outputs":[],"stateMutability":"nonpayable","type":"function"},{"inputs":[{"internalType":"uint256","name":"lockDays","type":"uint256"}],"name":"getBonusRate","outputs":[{"internalType":"uint256","name":"","type":"uint256"}],"stateMutability":"pure","type":"function"},{"inputs":[{"internalType":"address","name":"staker","type":"address"}],"name":"getStakeCount","outputs":[{"internalType":"uint256","name":"","type":"uint256"}],"stateMutability":"view","type":"function"},{"inputs":[{"internalType":"address","name":"staker","type":"address"}],"name":"getStakeInfo","outputs":[{"internalType":"uint256","name":"activeStakes","type":"uint256"},{"internalType":"uint256","name":"totalLocked","type":"uint256"},{"internalType":"uint256","name":"pendingBonus","type":"uint256"}],"stateMutability":"view","type":"function"},{"inputs":[{"internalType":"address","name":"staker","type":"address"},{"internalType":"uint256","name":"index","type":"uint256"}],"name":"getStakeLock","outputs":[{"internalType":"uint256","name":"amount","type":"uint256"},{"internalType":"uint256","name":"lockTime","type":"uint256"},{"internalType":"uint256","name":"unlockTime","type":"uint256"},{"internalType":"uint256","name":"bonusRate","type":"uint256"},{"internalType":"bool","name":"withdrawn","type":"bool"},{"internalType":"bool","name":"canUnlock","type":"bool"}],"stateMutability":"view","type":"function"},{"inputs":[{"internalType":"uint256","name":"amount","type":"uint256"},{"internalType":"uint256","name":"lockDays","type":"uint256"}],"name":"lock","outputs":[],"stateMutability":"nonpayable","type":"function"},{"inputs":[{"internalType":"uint256","name":"amount","type":"uint256"},{"internalType":"uint256","name":"lockSeconds_","type":"uint256"}],"name":"lockSeconds","outputs":[],"stateMutability":"nonpayable","type":"function"},{"inputs":[],"name":"owner","outputs":[{"internalType":"address","name":"","type":"address"}],"stateMutability":"view","type":"function"},{"inputs":[],"name":"renounceOwnership","outputs":[],"stateMutability":"nonpayable","type":"function"},{"inputs":[{"internalType":"address","name":"","type":"address"},{"internalType":"uint256","name":"","type":"uint256"}],"name":"stakeLocks","outputs":[{"internalType":"uint256","name":"amount","type":"uint256"},{"internalType":"uint256","name":"lockTime","type":"uint256"},{"internalType":"uint256","name":"unlockTime","type":"uint256"},{"internalType":"uint256","name":"bonusRate","type":"uint256"},{"internalType":"bool","name":"withdrawn","type":"bool"}],"stateMutability":"view","type":"function"},{"inputs":[],"name":"token","outputs":[{"internalType":"contract IERC20","name":"","type":"address"}],"stateMutability":"view","type":"function"},{"inputs":[],"name":"totalBonusPaid","outputs":[{"internalType":"uint256","name":"","type":"uint256"}],"stateMutability":"view","type":"function"},{"inputs":[],"name":"totalBonusReserved","outputs":[{"internalType":"uint256","name":"","type":"uint256"}],"stateMutability":"view","type":"function"},{"inputs":[],"name":"totalStaked","outputs":[{"internalType":"uint256","name":"","type":"uint256"}],"stateMutability":"view","type":"function"},{"inputs":[{"internalType":"address","name":"newOwner","type":"address"}],"name":"transferOwnership","outputs":[],"stateMutability":"nonpayable","type":"function"},{"inputs":[{"internalType":"uint256","name":"index","type":"uint256"}],"name":"unlock","outputs":[],"stateMutability":"nonpayable","type":"function"}],"evm":{"bytecode":{"linkReferences":{},"object":"60a03461012857601f610fee38819003918201601f19168301916001600160401b0383118484101761012d5780849260209460405283398101031261012857516001600160a01b038116908190036101285733156101125760008054336001600160a01b03198216811783556040519290916001600160a01b0316907f8be0079c531659141344cd1fd0a4f28419497f9722a3daafe3b4186f6b6457e09080a36001805581156100e05750608052604051610eaa9081610144823960805181818160e2015281816102310152818161081a0152818161091001526109680152f35b62461bcd60e51b815260206004820152600d60248201526c24b73b30b634b2103a37b5b2b760991b6044820152606490fd5b631e4fbdf760e01b600052600060045260246000fd5b600080fd5b634e487b7160e01b600052604160045260246000fdfe6080604052600436101561001257600080fd5b60003560e01c80631338736f146109365780634b7aeb21146108ed57806354a1dd28146108cf5780636198e3391461070d578063715018a6146106b4578063817b1cd2146106965780638325263c146106785780638da5cb5b1461064f578063971fe937146105ca578063a458bd3e1461051b578063c34531531461043c578063cb44acc6146101ff578063cf57ee69146101c5578063e37cd2021461019f578063f2fde38b146101165763fc0c546a146100cc57600080fd5b34610111576000366003190112610111576040517f00000000000000000000000000000000000000000000000000000000000000006001600160a01b03168152602090f35b600080fd5b346101115760203660031901126101115761012f610b24565b610137610df0565b6001600160a01b0316801561018957600080546001600160a01b03198116831782556001600160a01b0316907f8be0079c531659141344cd1fd0a4f28419497f9722a3daafe3b4186f6b6457e09080a3005b631e4fbdf760e01b600052600060045260246000fd5b346101115760203660031901126101115760206101bd600435610d3f565b604051908152f35b34610111576020366003190112610111576001600160a01b036101e6610b24565b1660005260026020526020604060002054604051908152f35b346101115761020d36610b0e565b90610216610df0565b61021e610d83565b610229811515610b6c565b81156103f7577f00000000000000000000000000000000000000000000000000000000000000009161025d82303386610da5565b62015180810461027661026f82610d3f565b9242610c14565b93602460206127106102888688610bad565b6040516370a0823160e01b8152306004820152919004939092839182906001600160a01b03165afa9081156103eb576000916103b4575b509461032761039d927f9cfd25589d1eb8ad71e342a86a8524e83522e3936c0803048c08f6d9ad974f409697600354908260055492836102ff8183610c14565b8411156103a65761031661031b9261032295610c21565b610c21565b1015610c2e565b610c14565b60055533600052600260205261036960406000206040519061034882610bc0565b88825242602083015283604083015286606083015260006080830152610c8c565b61037586600354610c14565b6003556040519384933397859094939260609260808301968352602083015260408201520152565b0390a260018055005b50506103229150600061031b565b906020823d6020116103e3575b816103ce60209383610bf2565b810103126103e05750516103276102bf565b80fd5b3d91506103c1565b6040513d6000823e3d90fd5b60405162461bcd60e51b815260206004820152601860248201527f4c6f636b207365636f6e6473206d757374206265203e203000000000000000006044820152606490fd5b3461011157602036600319011261011157610455610b24565b6000906001600160a01b03168180805b83600052600260205260406000205481101561050357836000526002602052610492816040600020610b3a565b5060ff600482015416156104aa575b50600101610465565b929490919060001981146104ed576001916127106104df846104e694019860036104d689548093610c14565b98015490610bad565b0490610c14565b91906104a1565b634e487b7160e01b600052601160045260246000fd5b50604080518581526020810193909352820152606090f35b346101115760403660031901126101115760c0610573610539610b24565b6001600160a01b03166000818152600260205260409020546024359190610561908310610d03565b60005260026020526040600020610b3a565b5080549060018101549060028101549060ff6004600383015492015416918042101593846105c1575b60405195865260208601526040850152606084015215156080830152151560a0820152f35b8315945061059c565b34610111576040366003190112610111576105e3610b24565b6001600160a01b03166000908152600260205260409020805460243591908210156101115760a09161061491610b3a565b50805490600181015490600281015460ff60046003840154930154169260405194855260208501526040840152606083015215156080820152f35b34610111576000366003190112610111576000546040516001600160a01b039091168152602090f35b34610111576000366003190112610111576020600454604051908152f35b34610111576000366003190112610111576020600354604051908152f35b34610111576000366003190112610111576106cd610df0565b600080546001600160a01b0319811682556001600160a01b03167f8be0079c531659141344cd1fd0a4f28419497f9722a3daafe3b4186f6b6457e08280a3005b346101115760203660031901126101115761075860043561072c610d83565b3360005260026020526107456040600020548210610d03565b3360005260026020526040600020610b3a565b506004810190815460ff8116610896576002820154421061085e57816107c97f204fccf0d92ed8d48f204adb39b2e81e92bad0dedb93f5716ca9478cfb57de0093546127106107ab600385015483610bad565b049560016107b98884610c14565b9560ff1916179055600354610c21565b6003556107d884600454610c14565b6004556107e784600554610c21565b60055561083e60405163a9059cbb60e01b602082015233602482015283604482015260448152610818606482610bf2565b7f0000000000000000000000000000000000000000000000000000000000000000610e19565b54604080519182526020820194909452928301523391806060810161039d565b60405162461bcd60e51b815260206004820152601060248201526f131bd8dac81b9bdd08195e1c1a5c995960821b6044820152606490fd5b60405162461bcd60e51b815260206004820152601160248201527020b63932b0b23c903bb4ba34323930bbb760791b6044820152606490fd5b34610111576000366003190112610111576020600554604051908152f35b3461011157602036600319011261011157610906610df0565b61093460043530337f0000000000000000000000000000000000000000000000000000000000000000610da5565b005b346101115761094436610b0e565b61094c610d83565b610957821515610b6c565b8015610ad15761016d8111610a95577f000000000000000000000000000000000000000000000000000000000000000061099383303384610da5565b61099c82610d3f565b90602460206127106109ae8588610bad565b6040516370a0823160e01b8152306004820152919004939092839182906001600160a01b03165afa9081156103eb57600091610a61575b50906109ff91600354908260055492836102ff8183610c14565b6005556201518082029180830462015180036104ed5761039d610a437f9cfd25589d1eb8ad71e342a86a8524e83522e3936c0803048c08f6d9ad974f409442610c14565b33600052600260205261036960406000206040519061034882610bc0565b906020823d602011610a8d575b81610a7b60209383610bf2565b810103126103e05750516109ff6109e5565b3d9150610a6e565b60405162461bcd60e51b81526020600482015260146024820152734d6178206c6f636b20697320333635206461797360601b6044820152606490fd5b60405162461bcd60e51b815260206004820152601560248201527404c6f636b2064617973206d757374206265203e203605c1b6044820152606490fd5b6040906003190112610111576004359060243590565b600435906001600160a01b038216820361011157565b8054821015610b56576000526005602060002091020190600090565b634e487b7160e01b600052603260045260246000fd5b15610b7357565b60405162461bcd60e51b81526020600482015260126024820152710416d6f756e74206d757374206265203e20360741b6044820152606490fd5b818102929181159184041417156104ed57565b60a0810190811067ffffffffffffffff821117610bdc57604052565b634e487b7160e01b600052604160045260246000fd5b90601f8019910116810190811067ffffffffffffffff821117610bdc57604052565b919082018092116104ed57565b919082039182116104ed57565b15610c3557565b60405162461bcd60e51b815260206004820152602960248201527f496e73756666696369656e7420626f6e757320706f6f6c3a2066756e64206d6f604482015268726520746f6b656e7360b81b6064820152608490fd5b805468010000000000000000811015610bdc57610cae91600182018155610b3a565b610ced5760046080918351815560208401516001820155604084015160028201556060840151600382015501910151151560ff80198354169116179055565b634e487b7160e01b600052600060045260246000fd5b15610d0a57565b60405162461bcd60e51b815260206004820152600d60248201526c092dcecc2d8d2c840d2dcc8caf609b1b6044820152606490fd5b61016d811015610d7c5760b4811015610d7557605a811015610d6e57601e1115610d6857600090565b6103e890565b506109c490565b5061138890565b5061271090565b600260015414610d94576002600155565b633ee5aeb560e01b60005260046000fd5b6040516323b872dd60e01b60208201526001600160a01b039283166024820152929091166044830152606480830193909352918152610dee91610de9608483610bf2565b610e19565b565b6000546001600160a01b03163303610e0457565b63118cdaa760e01b6000523360045260246000fd5b906000602091828151910182855af1156103eb576000513d610e6b57506001600160a01b0381163b155b610e4a5750565b635274afe760e01b60009081526001600160a01b0391909116600452602490fd5b60011415610e4356fea26469706673582212207b9958f5d37e79556fcee2cce2f0d9d95a7b7fa38b254519e7853747fd991b6a64736f6c634300081c0033","opcodes":"PUSH1 0xA0 CALLVALUE PUSH2 0x128 JUMPI PUSH1 0x1F PUSH2 0xFEE CODESIZE DUP2 SWAP1 SUB SWAP2 DUP3 ADD PUSH1 0x1F NOT AND DUP4 ADD SWAP2 PUSH1 0x1 PUSH1 0x1 PUSH1 0x40 SHL SUB DUP4 GT DUP5 DUP5 LT OR PUSH2 0x12D JUMPI DUP1 DUP5 SWAP3 PUSH1 0x20 SWAP5 PUSH1 0x40 MSTORE DUP4 CODECOPY DUP2 ADD SUB SLT PUSH2 0x128 JUMPI MLOAD PUSH1 0x1 PUSH1 0x1 PUSH1 0xA0 SHL SUB DUP2 AND SWAP1 DUP2 SWAP1 SUB PUSH2 0x128 JUMPI CALLER ISZERO PUSH2 0x112 JUMPI PUSH1 0x0 DUP1 SLOAD CALLER PUSH1 0x1 PUSH1 0x1 PUSH1 0xA0 SHL SUB NOT DUP3 AND DUP2 OR DUP4 SSTORE PUSH1 0x40 MLOAD SWAP3 SWAP1 SWAP2 PUSH1 0x1 PUSH1 0x1 PUSH1 0xA0 SHL SUB AND SWAP1 PUSH32 0x8BE0079C531659141344CD1FD0A4F28419497F9722A3DAAFE3B4186F6B6457E0 SWAP1 DUP1 LOG3 PUSH1 0x1 DUP1 SSTORE DUP2 ISZERO PUSH2 0xE0 JUMPI POP PUSH1 0x80 MSTORE PUSH1 0x40 MLOAD PUSH2 0xEAA SWAP1 DUP2 PUSH2 0x144 DUP3 CODECOPY PUSH1 0x80 MLOAD DUP2 DUP2 DUP2 PUSH1 0xE2 ADD MSTORE DUP2 DUP2 PUSH2 0x231 ADD MSTORE DUP2 DUP2 PUSH2 0x81A ADD MSTORE DUP2 DUP2 PUSH2 0x910 ADD MSTORE PUSH2 0x968 ADD MSTORE RETURN JUMPDEST PUSH3 0x461BCD PUSH1 0xE5 SHL DUP2 MSTORE PUSH1 0x20 PUSH1 0x4 DUP3 ADD MSTORE PUSH1 0xD PUSH1 0x24 DUP3 ADD MSTORE PUSH13 0x24B73B30B634B2103A37B5B2B7 PUSH1 0x99 SHL PUSH1 0x44 DUP3 ADD MSTORE PUSH1 0x64 SWAP1 REVERT JUMPDEST PUSH4 0x1E4FBDF7 PUSH1 0xE0 SHL PUSH1 0x0 MSTORE PUSH1 0x0 PUSH1 0x4 MSTORE PUSH1 0x24 PUSH1 0x0 REVERT JUMPDEST PUSH1 0x0 DUP1 REVERT JUMPDEST PUSH4 0x4E487B71 PUSH1 0xE0 SHL PUSH1 0x0 MSTORE PUSH1 0x41 PUSH1 0x4 MSTORE PUSH1 0x24 PUSH1 0x0 REVERT INVALID PUSH1 0x80 PUSH1 0x40 MSTORE PUSH1 0x4 CALLDATASIZE LT ISZERO PUSH2 0x12 JUMPI PUSH1 0x0 DUP1 REVERT JUMPDEST PUSH1 0x0 CALLDATALOAD PUSH1 0xE0 SHR DUP1 PUSH4 0x1338736F EQ PUSH2 0x936 JUMPI DUP1 PUSH4 0x4B7AEB21 EQ PUSH2 0x8ED JUMPI DUP1 PUSH4 0x54A1DD28 EQ PUSH2 0x8CF JUMPI DUP1 PUSH4 0x6198E339 EQ PUSH2 0x70D JUMPI DUP1 PUSH4 0x715018A6 EQ PUSH2 0x6B4 JUMPI DUP1 PUSH4 0x817B1CD2 EQ PUSH2 0x696 JUMPI DUP1 PUSH4 0x8325263C EQ PUSH2 0x678 JUMPI DUP1 PUSH4 0x8DA5CB5B EQ PUSH2 0x64F JUMPI DUP1 PUSH4 0x971FE937 EQ PUSH2 0x5CA JUMPI DUP1 PUSH4 0xA458BD3E EQ PUSH2 0x51B JUMPI DUP1 PUSH4 0xC3453153 EQ PUSH2 0x43C JUMPI DUP1 PUSH4 0xCB44ACC6 EQ PUSH2 0x1FF JUMPI DUP1 PUSH4 0xCF57EE69 EQ PUSH2 0x1C5 JUMPI DUP1 PUSH4 0xE37CD202 EQ PUSH2 0x19F JUMPI DUP1 PUSH4 0xF2FDE38B EQ PUSH2 0x116 JUMPI PUSH4 0xFC0C546A EQ PUSH2 0xCC JUMPI PUSH1 0x0 DUP1 REVERT JUMPDEST CALLVALUE PUSH2 0x111 JUMPI PUSH1 0x0 CALLDATASIZE PUSH1 0x3 NOT ADD SLT PUSH2 0x111 JUMPI PUSH1 0x40 MLOAD PUSH32 0x0 PUSH1 0x1 PUSH1 0x1 PUSH1 0xA0 SHL SUB AND DUP2 MSTORE PUSH1 0x20 SWAP1 RETURN JUMPDEST PUSH1 0x0 DUP1 REVERT JUMPDEST CALLVALUE PUSH2 0x111 JUMPI PUSH1 0x20 CALLDATASIZE PUSH1 0x3 NOT ADD SLT PUSH2 0x111 JUMPI PUSH2 0x12F PUSH2 0xB24 JUMP JUMPDEST PUSH2 0x137 PUSH2 0xDF0 JUMP JUMPDEST PUSH1 0x1 PUSH1 0x1 PUSH1 0xA0 SHL SUB AND DUP1 ISZERO PUSH2 0x189 JUMPI PUSH1 0x0 DUP1 SLOAD PUSH1 0x1 PUSH1 0x1 PUSH1 0xA0 SHL SUB NOT DUP2 AND DUP4 OR DUP3 SSTORE PUSH1 0x1 PUSH1 0x1 PUSH1 0xA0 SHL SUB AND SWAP1 PUSH32 0x8BE0079C531659141344CD1FD0A4F28419497F9722A3DAAFE3B4186F6B6457E0 SWAP1 DUP1 LOG3 STOP JUMPDEST PUSH4 0x1E4FBDF7 PUSH1 0xE0 SHL PUSH1 0x0 MSTORE PUSH1 0x0 PUSH1 0x4 MSTORE PUSH1 0x24 PUSH1 0x0 REVERT JUMPDEST CALLVALUE PUSH2 0x111 JUMPI PUSH1 0x20 CALLDATASIZE PUSH1 0x3 NOT ADD SLT PUSH2 0x111 JUMPI PUSH1 0x20 PUSH2 0x1BD PUSH1 0x4 CALLDATALOAD PUSH2 0xD3F JUMP JUMPDEST PUSH1 0x40 MLOAD SWAP1 DUP2 MSTORE RETURN JUMPDEST CALLVALUE PUSH2 0x111 JUMPI PUSH1 0x20 CALLDATASIZE PUSH1 0x3 NOT ADD SLT PUSH2 0x111 JUMPI PUSH1 0x1 PUSH1 0x1 PUSH1 0xA0 SHL SUB PUSH2 0x1E6 PUSH2 0xB24 JUMP JUMPDEST AND PUSH1 0x0 MSTORE PUSH1 0x2 PUSH1 0x20 MSTORE PUSH1 0x20 PUSH1 0x40 PUSH1 0x0 KECCAK256 SLOAD PUSH1 0x40 MLOAD SWAP1 DUP2 MSTORE RETURN JUMPDEST CALLVALUE PUSH2 0x111 JUMPI PUSH2 0x20D CALLDATASIZE PUSH2 0xB0E JUMP JUMPDEST SWAP1 PUSH2 0x216 PUSH2 0xDF0 JUMP JUMPDEST PUSH2 0x21E PUSH2 0xD83 JUMP JUMPDEST PUSH2 0x229 DUP2 ISZERO ISZERO PUSH2 0xB6C JUMP JUMPDEST DUP2 ISZERO PUSH2 0x3F7 JUMPI PUSH32 0x0 SWAP2 PUSH2 0x25D DUP3 ADDRESS CALLER DUP7 PUSH2 0xDA5 JUMP JUMPDEST PUSH3 0x15180 DUP2 DIV PUSH2 0x276 PUSH2 0x26F DUP3 PUSH2 0xD3F JUMP JUMPDEST SWAP3 TIMESTAMP PUSH2 0xC14 JUMP JUMPDEST SWAP4 PUSH1 0x24 PUSH1 0x20 PUSH2 0x2710 PUSH2 0x288 DUP7 DUP9 PUSH2 0xBAD JUMP JUMPDEST PUSH1 0x40 MLOAD PUSH4 0x70A08231 PUSH1 0xE0 SHL DUP2 MSTORE ADDRESS PUSH1 0x4 DUP3 ADD MSTORE SWAP2 SWAP1 DIV SWAP4 SWAP1 SWAP3 DUP4 SWAP2 DUP3 SWAP1 PUSH1 0x1 PUSH1 0x1 PUSH1 0xA0 SHL SUB AND GAS STATICCALL SWAP1 DUP2 ISZERO PUSH2 0x3EB JUMPI PUSH1 0x0 SWAP2 PUSH2 0x3B4 JUMPI JUMPDEST POP SWAP5 PUSH2 0x327 PUSH2 0x39D SWAP3 PUSH32 0x9CFD25589D1EB8AD71E342A86A8524E83522E3936C0803048C08F6D9AD974F40 SWAP7 SWAP8 PUSH1 0x3 SLOAD SWAP1 DUP3 PUSH1 0x5 SLOAD SWAP3 DUP4 PUSH2 0x2FF DUP2 DUP4 PUSH2 0xC14 JUMP JUMPDEST DUP5 GT ISZERO PUSH2 0x3A6 JUMPI PUSH2 0x316 PUSH2 0x31B SWAP3 PUSH2 0x322 SWAP6 PUSH2 0xC21 JUMP JUMPDEST PUSH2 0xC21 JUMP JUMPDEST LT ISZERO PUSH2 0xC2E JUMP JUMPDEST PUSH2 0xC14 JUMP JUMPDEST PUSH1 0x5 SSTORE CALLER PUSH1 0x0 MSTORE PUSH1 0x2 PUSH1 0x20 MSTORE PUSH2 0x369 PUSH1 0x40 PUSH1 0x0 KECCAK256 PUSH1 0x40 MLOAD SWAP1 PUSH2 0x348 DUP3 PUSH2 0xBC0 JUMP JUMPDEST DUP9 DUP3 MSTORE TIMESTAMP PUSH1 0x20 DUP4 ADD MSTORE DUP4 PUSH1 0x40 DUP4 ADD MSTORE DUP7 PUSH1 0x60 DUP4 ADD MSTORE PUSH1 0x0 PUSH1 0x80 DUP4 ADD MSTORE PUSH2 0xC8C JUMP JUMPDEST PUSH2 0x375 DUP7 PUSH1 0x3 SLOAD PUSH2 0xC14 JUMP JUMPDEST PUSH1 0x3 SSTORE PUSH1 0x40 MLOAD SWAP4 DUP5 SWAP4 CALLER SWAP8 DUP6 SWAP1 SWAP5 SWAP4 SWAP3 PUSH1 0x60 SWAP3 PUSH1 0x80 DUP4 ADD SWAP7 DUP4 MSTORE PUSH1 0x20 DUP4 ADD MSTORE PUSH1 0x40 DUP3 ADD MSTORE ADD MSTORE JUMP JUMPDEST SUB SWAP1 LOG2 PUSH1 0x1 DUP1 SSTORE STOP JUMPDEST POP POP PUSH2 0x322 SWAP2 POP PUSH1 0x0 PUSH2 0x31B JUMP JUMPDEST SWAP1 PUSH1 0x20 DUP3 RETURNDATASIZE PUSH1 0x20 GT PUSH2 0x3E3 JUMPI JUMPDEST DUP2 PUSH2 0x3CE PUSH1 0x20 SWAP4 DUP4 PUSH2 0xBF2 JUMP JUMPDEST DUP2 ADD SUB SLT PUSH2 0x3E0 JUMPI POP MLOAD PUSH2 0x327 PUSH2 0x2BF JUMP JUMPDEST DUP1 REVERT JUMPDEST RETURNDATASIZE SWAP2 POP PUSH2 0x3C1 JUMP JUMPDEST PUSH1 0x40 MLOAD RETURNDATASIZE PUSH1 0x0 DUP3 RETURNDATACOPY RETURNDATASIZE SWAP1 REVERT JUMPDEST PUSH1 0x40 MLOAD PUSH3 0x461BCD PUSH1 0xE5 SHL DUP2 MSTORE PUSH1 0x20 PUSH1 0x4 DUP3 ADD MSTORE PUSH1 0x18 PUSH1 0x24 DUP3 ADD MSTORE PUSH32 0x4C6F636B207365636F6E6473206D757374206265203E20300000000000000000 PUSH1 0x44 DUP3 ADD MSTORE PUSH1 0x64 SWAP1 REVERT JUMPDEST CALLVALUE PUSH2 0x111 JUMPI PUSH1 0x20 CALLDATASIZE PUSH1 0x3 NOT ADD SLT PUSH2 0x111 JUMPI PUSH2 0x455 PUSH2 0xB24 JUMP JUMPDEST PUSH1 0x0 SWAP1 PUSH1 0x1 PUSH1 0x1 PUSH1 0xA0 SHL SUB AND DUP2 DUP1 DUP1 JUMPDEST DUP4 PUSH1 0x0 MSTORE PUSH1 0x2 PUSH1 0x20 MSTORE PUSH1 0x40 PUSH1 0x0 KECCAK256 SLOAD DUP2 LT ISZERO PUSH2 0x503 JUMPI DUP4 PUSH1 0x0 MSTORE PUSH1 0x2 PUSH1 0x20 MSTORE PUSH2 0x492 DUP2 PUSH1 0x40 PUSH1 0x0 KECCAK256 PUSH2 0xB3A JUMP JUMPDEST POP PUSH1 0xFF PUSH1 0x4 DUP3 ADD SLOAD AND ISZERO PUSH2 0x4AA JUMPI JUMPDEST POP PUSH1 0x1 ADD PUSH2 0x465 JUMP JUMPDEST SWAP3 SWAP5 SWAP1 SWAP2 SWAP1 PUSH1 0x0 NOT DUP2 EQ PUSH2 0x4ED JUMPI PUSH1 0x1 SWAP2 PUSH2 0x2710 PUSH2 0x4DF DUP5 PUSH2 0x4E6 SWAP5 ADD SWAP9 PUSH1 0x3 PUSH2 0x4D6 DUP10 SLOAD DUP1 SWAP4 PUSH2 0xC14 JUMP JUMPDEST SWAP9 ADD SLOAD SWAP1 PUSH2 0xBAD JUMP JUMPDEST DIV SWAP1 PUSH2 0xC14 JUMP JUMPDEST SWAP2 SWAP1 PUSH2 0x4A1 JUMP JUMPDEST PUSH4 0x4E487B71 PUSH1 0xE0 SHL PUSH1 0x0 MSTORE PUSH1 0x11 PUSH1 0x4 MSTORE PUSH1 0x24 PUSH1 0x0 REVERT JUMPDEST POP PUSH1 0x40 DUP1 MLOAD DUP6 DUP2 MSTORE PUSH1 0x20 DUP2 ADD SWAP4 SWAP1 SWAP4 MSTORE DUP3 ADD MSTORE PUSH1 0x60 SWAP1 RETURN JUMPDEST CALLVALUE PUSH2 0x111 JUMPI PUSH1 0x40 CALLDATASIZE PUSH1 0x3 NOT ADD SLT PUSH2 0x111 JUMPI PUSH1 0xC0 PUSH2 0x573 PUSH2 0x539 PUSH2 0xB24 JUMP JUMPDEST PUSH1 0x1 PUSH1 0x1 PUSH1 0xA0 SHL SUB AND PUSH1 0x0 DUP2 DUP2 MSTORE PUSH1 0x2 PUSH1 0x20 MSTORE PUSH1 0x40 SWAP1 KECCAK256 SLOAD PUSH1 0x24 CALLDATALOAD SWAP2 SWAP1 PUSH2 0x561 SWAP1 DUP4 LT PUSH2 0xD03 JUMP JUMPDEST PUSH1 0x0 MSTORE PUSH1 0x2 PUSH1 0x20 MSTORE PUSH1 0x40 PUSH1 0x0 KECCAK256 PUSH2 0xB3A JUMP JUMPDEST POP DUP1 SLOAD SWAP1 PUSH1 0x1 DUP2 ADD SLOAD SWAP1 PUSH1 0x2 DUP2 ADD SLOAD SWAP1 PUSH1 0xFF PUSH1 0x4 PUSH1 0x3 DUP4 ADD SLOAD SWAP3 ADD SLOAD AND SWAP2 DUP1 TIMESTAMP LT ISZERO SWAP4 DUP5 PUSH2 0x5C1 JUMPI JUMPDEST PUSH1 0x40 MLOAD SWAP6 DUP7 MSTORE PUSH1 0x20 DUP7 ADD MSTORE PUSH1 0x40 DUP6 ADD MSTORE PUSH1 0x60 DUP5 ADD MSTORE ISZERO ISZERO PUSH1 0x80 DUP4 ADD MSTORE ISZERO ISZERO PUSH1 0xA0 DUP3 ADD MSTORE RETURN JUMPDEST DUP4 ISZERO SWAP5 POP PUSH2 0x59C JUMP JUMPDEST CALLVALUE PUSH2 0x111 JUMPI PUSH1 0x40 CALLDATASIZE PUSH1 0x3 NOT ADD SLT PUSH2 0x111 JUMPI PUSH2 0x5E3 PUSH2 0xB24 JUMP JUMPDEST PUSH1 0x1 PUSH1 0x1 PUSH1 0xA0 SHL SUB AND PUSH1 0x0 SWAP1 DUP2 MSTORE PUSH1 0x2 PUSH1 0x20 MSTORE PUSH1 0x40 SWAP1 KECCAK256 DUP1 SLOAD PUSH1 0x24 CALLDATALOAD SWAP2 SWAP1 DUP3 LT ISZERO PUSH2 0x111 JUMPI PUSH1 0xA0 SWAP2 PUSH2 0x614 SWAP2 PUSH2 0xB3A JUMP JUMPDEST POP DUP1 SLOAD SWAP1 PUSH1 0x1 DUP2 ADD SLOAD SWAP1 PUSH1 0x2 DUP2 ADD SLOAD PUSH1 0xFF PUSH1 0x4 PUSH1 0x3 DUP5 ADD SLOAD SWAP4 ADD SLOAD AND SWAP3 PUSH1 0x40 MLOAD SWAP5 DUP6 MSTORE PUSH1 0x20 DUP6 ADD MSTORE PUSH1 0x40 DUP5 ADD MSTORE PUSH1 0x60 DUP4 ADD MSTORE ISZERO ISZERO PUSH1 0x80 DUP3 ADD MSTORE RETURN JUMPDEST CALLVALUE PUSH2 0x111 JUMPI PUSH1 0x0 CALLDATASIZE PUSH1 0x3 NOT ADD SLT PUSH2 0x111 JUMPI PUSH1 0x0 SLOAD PUSH1 0x40 MLOAD PUSH1 0x1 PUSH1 0x1 PUSH1 0xA0 SHL SUB SWAP1 SWAP2 AND DUP2 MSTORE PUSH1 0x20 SWAP1 RETURN JUMPDEST CALLVALUE PUSH2 0x111 JUMPI PUSH1 0x0 CALLDATASIZE PUSH1 0x3 NOT ADD SLT PUSH2 0x111 JUMPI PUSH1 0x20 PUSH1 0x4 SLOAD PUSH1 0x40 MLOAD SWAP1 DUP2 MSTORE RETURN JUMPDEST CALLVALUE PUSH2 0x111 JUMPI PUSH1 0x0 CALLDATASIZE PUSH1 0x3 NOT ADD SLT PUSH2 0x111 JUMPI PUSH1 0x20 PUSH1 0x3 SLOAD PUSH1 0x40 MLOAD SWAP1 DUP2 MSTORE RETURN JUMPDEST CALLVALUE PUSH2 0x111 JUMPI PUSH1 0x0 CALLDATASIZE PUSH1 0x3 NOT ADD SLT PUSH2 0x111 JUMPI PUSH2 0x6CD PUSH2 0xDF0 JUMP JUMPDEST PUSH1 0x0 DUP1 SLOAD PUSH1 0x1 PUSH1 0x1 PUSH1 0xA0 SHL SUB NOT DUP2 AND DUP3 SSTORE PUSH1 0x1 PUSH1 0x1 PUSH1 0xA0 SHL SUB AND PUSH32 0x8BE0079C531659141344CD1FD0A4F28419497F9722A3DAAFE3B4186F6B6457E0 DUP3 DUP1 LOG3 STOP JUMPDEST CALLVALUE PUSH2 0x111 JUMPI PUSH1 0x20 CALLDATASIZE PUSH1 0x3 NOT ADD SLT PUSH2 0x111 JUMPI PUSH2 0x758 PUSH1 0x4 CALLDATALOAD PUSH2 0x72C PUSH2 0xD83 JUMP JUMPDEST CALLER PUSH1 0x0 MSTORE PUSH1 0x2 PUSH1 0x20 MSTORE PUSH2 0x745 PUSH1 0x40 PUSH1 0x0 KECCAK256 SLOAD DUP3 LT PUSH2 0xD03 JUMP JUMPDEST CALLER PUSH1 0x0 MSTORE PUSH1 0x2 PUSH1 0x20 MSTORE PUSH1 0x40 PUSH1 0x0 KECCAK256 PUSH2 0xB3A JUMP JUMPDEST POP PUSH1 0x4 DUP2 ADD SWAP1 DUP2 SLOAD PUSH1 0xFF DUP2 AND PUSH2 0x896 JUMPI PUSH1 0x2 DUP3 ADD SLOAD TIMESTAMP LT PUSH2 0x85E JUMPI DUP2 PUSH2 0x7C9 PUSH32 0x204FCCF0D92ED8D48F204ADB39B2E81E92BAD0DEDB93F5716CA9478CFB57DE00 SWAP4 SLOAD PUSH2 0x2710 PUSH2 0x7AB PUSH1 0x3 DUP6 ADD SLOAD DUP4 PUSH2 0xBAD JUMP JUMPDEST DIV SWAP6 PUSH1 0x1 PUSH2 0x7B9 DUP9 DUP5 PUSH2 0xC14 JUMP JUMPDEST SWAP6 PUSH1 0xFF NOT AND OR SWAP1 SSTORE PUSH1 0x3 SLOAD PUSH2 0xC21 JUMP JUMPDEST PUSH1 0x3 SSTORE PUSH2 0x7D8 DUP5 PUSH1 0x4 SLOAD PUSH2 0xC14 JUMP JUMPDEST PUSH1 0x4 SSTORE PUSH2 0x7E7 DUP5 PUSH1 0x5 SLOAD PUSH2 0xC21 JUMP JUMPDEST PUSH1 0x5 SSTORE PUSH2 0x83E PUSH1 0x40 MLOAD PUSH4 0xA9059CBB PUSH1 0xE0 SHL PUSH1 0x20 DUP3 ADD MSTORE CALLER PUSH1 0x24 DUP3 ADD MSTORE DUP4 PUSH1 0x44 DUP3 ADD MSTORE PUSH1 0x44 DUP2 MSTORE PUSH2 0x818 PUSH1 0x64 DUP3 PUSH2 0xBF2 JUMP JUMPDEST PUSH32 0x0 PUSH2 0xE19 JUMP JUMPDEST SLOAD PUSH1 0x40 DUP1 MLOAD SWAP2 DUP3 MSTORE PUSH1 0x20 DUP3 ADD SWAP5 SWAP1 SWAP5 MSTORE SWAP3 DUP4 ADD MSTORE CALLER SWAP2 DUP1 PUSH1 0x60 DUP2 ADD PUSH2 0x39D JUMP JUMPDEST PUSH1 0x40 MLOAD PUSH3 0x461BCD PUSH1 0xE5 SHL DUP2 MSTORE PUSH1 0x20 PUSH1 0x4 DUP3 ADD MSTORE PUSH1 0x10 PUSH1 0x24 DUP3 ADD MSTORE PUSH16 0x131BD8DAC81B9BDD08195E1C1A5C9959 PUSH1 0x82 SHL PUSH1 0x44 DUP3 ADD MSTORE PUSH1 0x64 SWAP1 REVERT JUMPDEST PUSH1 0x40 MLOAD PUSH3 0x461BCD PUSH1 0xE5 SHL DUP2 MSTORE PUSH1 0x20 PUSH1 0x4 DUP3 ADD MSTORE PUSH1 0x11 PUSH1 0x24 DUP3 ADD MSTORE PUSH17 0x20B63932B0B23C903BB4BA34323930BBB7 PUSH1 0x79 SHL PUSH1 0x44 DUP3 ADD MSTORE PUSH1 0x64 SWAP1 REVERT JUMPDEST CALLVALUE PUSH2 0x111 JUMPI PUSH1 0x0 CALLDATASIZE PUSH1 0x3 NOT ADD SLT PUSH2 0x111 JUMPI PUSH1 0x20 PUSH1 0x5 SLOAD PUSH1 0x40 MLOAD SWAP1 DUP2 MSTORE RETURN JUMPDEST CALLVALUE PUSH2 0x111 JUMPI PUSH1 0x20 CALLDATASIZE PUSH1 0x3 NOT ADD SLT PUSH2 0x111 JUMPI PUSH2 0x906 PUSH2 0xDF0 JUMP JUMPDEST PUSH2 0x934 PUSH1 0x4 CALLDATALOAD ADDRESS CALLER PUSH32 0x0 PUSH2 0xDA5 JUMP JUMPDEST STOP JUMPDEST CALLVALUE PUSH2 0x111 JUMPI PUSH2 0x944 CALLDATASIZE PUSH2 0xB0E JUMP JUMPDEST PUSH2 0x94C PUSH2 0xD83 JUMP JUMPDEST PUSH2 0x957 DUP3 ISZERO ISZERO PUSH2 0xB6C JUMP JUMPDEST DUP1 ISZERO PUSH2 0xAD1 JUMPI PUSH2 0x16D DUP2 GT PUSH2 0xA95 JUMPI PUSH32 0x0 PUSH2 0x993 DUP4 ADDRESS CALLER DUP5 PUSH2 0xDA5 JUMP JUMPDEST PUSH2 0x99C DUP3 PUSH2 0xD3F JUMP JUMPDEST SWAP1 PUSH1 0x24 PUSH1 0x20 PUSH2 0x2710 PUSH2 0x9AE DUP6 DUP9 PUSH2 0xBAD JUMP JUMPDEST PUSH1 0x40 MLOAD PUSH4 0x70A08231 PUSH1 0xE0 SHL DUP2 MSTORE ADDRESS PUSH1 0x4 DUP3 ADD MSTORE SWAP2 SWAP1 DIV SWAP4 SWAP1 SWAP3 DUP4 SWAP2 DUP3 SWAP1 PUSH1 0x1 PUSH1 0x1 PUSH1 0xA0 SHL SUB AND GAS STATICCALL SWAP1 DUP2 ISZERO PUSH2 0x3EB JUMPI PUSH1 0x0 SWAP2 PUSH2 0xA61 JUMPI JUMPDEST POP SWAP1 PUSH2 0x9FF SWAP2 PUSH1 0x3 SLOAD SWAP1 DUP3 PUSH1 0x5 SLOAD SWAP3 DUP4 PUSH2 0x2FF DUP2 DUP4 PUSH2 0xC14 JUMP JUMPDEST PUSH1 0x5 SSTORE PUSH3 0x15180 DUP3 MUL SWAP2 DUP1 DUP4 DIV PUSH3 0x15180 SUB PUSH2 0x4ED JUMPI PUSH2 0x39D PUSH2 0xA43 PUSH32 0x9CFD25589D1EB8AD71E342A86A8524E83522E3936C0803048C08F6D9AD974F40 SWAP5 TIMESTAMP PUSH2 0xC14 JUMP JUMPDEST CALLER PUSH1 0x0 MSTORE PUSH1 0x2 PUSH1 0x20 MSTORE PUSH2 0x369 PUSH1 0x40 PUSH1 0x0 KECCAK256 PUSH1 0x40 MLOAD SWAP1 PUSH2 0x348 DUP3 PUSH2 0xBC0 JUMP JUMPDEST SWAP1 PUSH1 0x20 DUP3 RETURNDATASIZE PUSH1 0x20 GT PUSH2 0xA8D JUMPI JUMPDEST DUP2 PUSH2 0xA7B PUSH1 0x20 SWAP4 DUP4 PUSH2 0xBF2 JUMP JUMPDEST DUP2 ADD SUB SLT PUSH2 0x3E0 JUMPI POP MLOAD PUSH2 0x9FF PUSH2 0x9E5 JUMP JUMPDEST RETURNDATASIZE SWAP2 POP PUSH2 0xA6E JUMP JUMPDEST PUSH1 0x40 MLOAD PUSH3 0x461BCD PUSH1 0xE5 SHL DUP2 MSTORE PUSH1 0x20 PUSH1 0x4 DUP3 ADD MSTORE PUSH1 0x14 PUSH1 0x24 DUP3 ADD MSTORE PUSH20 0x4D6178206C6F636B206973203336352064617973 PUSH1 0x60 SHL PUSH1 0x44 DUP3 ADD MSTORE PUSH1 0x64 SWAP1 REVERT JUMPDEST PUSH1 0x40 MLOAD PUSH3 0x461BCD PUSH1 0xE5 SHL DUP2 MSTORE PUSH1 0x20 PUSH1 0x4 DUP3 ADD MSTORE PUSH1 0x15 PUSH1 0x24 DUP3 ADD MSTORE PUSH21 0x4C6F636B2064617973206D757374206265203E203 PUSH1 0x5C SHL PUSH1 0x44 DUP3 ADD MSTORE PUSH1 0x64 SWAP1 REVERT JUMPDEST PUSH1 0x40 SWAP1 PUSH1 0x3 NOT ADD SLT PUSH2 0x111 JUMPI PUSH1 0x4 CALLDATALOAD SWAP1 PUSH1 0x24 CALLDATALOAD SWAP1 JUMP JUMPDEST PUSH1 0x4 CALLDATALOAD SWAP1 PUSH1 0x1 PUSH1 0x1 PUSH1 0xA0 SHL SUB DUP3 AND DUP3 SUB PUSH2 0x111 JUMPI JUMP JUMPDEST DUP1 SLOAD DUP3 LT ISZERO PUSH2 0xB56 JUMPI PUSH1 0x0 MSTORE PUSH1 0x5 PUSH1 0x20 PUSH1 0x0 KECCAK256 SWAP2 MUL ADD SWAP1 PUSH1 0x0 SWAP1 JUMP JUMPDEST PUSH4 0x4E487B71 PUSH1 0xE0 SHL PUSH1 0x0 MSTORE PUSH1 0x32 PUSH1 0x4 MSTORE PUSH1 0x24 PUSH1 0x0 REVERT JUMPDEST ISZERO PUSH2 0xB73 JUMPI JUMP JUMPDEST PUSH1 0x40 MLOAD PUSH3 0x461BCD PUSH1 0xE5 SHL DUP2 MSTORE PUSH1 0x20 PUSH1 0x4 DUP3 ADD MSTORE PUSH1 0x12 PUSH1 0x24 DUP3 ADD MSTORE PUSH18 0x416D6F756E74206D757374206265203E203 PUSH1 0x74 SHL PUSH1 0x44 DUP3 ADD MSTORE PUSH1 0x64 SWAP1 REVERT JUMPDEST DUP2 DUP2 MUL SWAP3 SWAP2 DUP2 ISZERO SWAP2 DUP5 DIV EQ OR ISZERO PUSH2 0x4ED JUMPI JUMP JUMPDEST PUSH1 0xA0 DUP2 ADD SWAP1 DUP2 LT PUSH8 0xFFFFFFFFFFFFFFFF DUP3 GT OR PUSH2 0xBDC JUMPI PUSH1 0x40 MSTORE JUMP JUMPDEST PUSH4 0x4E487B71 PUSH1 0xE0 SHL PUSH1 0x0 MSTORE PUSH1 0x41 PUSH1 0x4 MSTORE PUSH1 0x24 PUSH1 0x0 REVERT JUMPDEST SWAP1 PUSH1 0x1F DUP1 NOT SWAP2 ADD AND DUP2 ADD SWAP1 DUP2 LT PUSH8 0xFFFFFFFFFFFFFFFF DUP3 GT OR PUSH2 0xBDC JUMPI PUSH1 0x40 MSTORE JUMP JUMPDEST SWAP2 SWAP1 DUP3 ADD DUP1 SWAP3 GT PUSH2 0x4ED JUMPI JUMP JUMPDEST SWAP2 SWAP1 DUP3 SUB SWAP2 DUP3 GT PUSH2 0x4ED JUMPI JUMP JUMPDEST ISZERO PUSH2 0xC35 JUMPI JUMP JUMPDEST PUSH1 0x40 MLOAD PUSH3 0x461BCD PUSH1 0xE5 SHL DUP2 MSTORE PUSH1 0x20 PUSH1 0x4 DUP3 ADD MSTORE PUSH1 0x29 PUSH1 0x24 DUP3 ADD MSTORE PUSH32 0x496E73756666696369656E7420626F6E757320706F6F6C3A2066756E64206D6F PUSH1 0x44 DUP3 ADD MSTORE PUSH9 0x726520746F6B656E73 PUSH1 0xB8 SHL PUSH1 0x64 DUP3 ADD MSTORE PUSH1 0x84 SWAP1 REVERT JUMPDEST DUP1 SLOAD PUSH9 0x10000000000000000 DUP2 LT ISZERO PUSH2 0xBDC JUMPI PUSH2 0xCAE SWAP2 PUSH1 0x1 DUP3 ADD DUP2 SSTORE PUSH2 0xB3A JUMP JUMPDEST PUSH2 0xCED JUMPI PUSH1 0x4 PUSH1 0x80 SWAP2 DUP4 MLOAD DUP2 SSTORE PUSH1 0x20 DUP5 ADD MLOAD PUSH1 0x1 DUP3 ADD SSTORE PUSH1 0x40 DUP5 ADD MLOAD PUSH1 0x2 DUP3 ADD SSTORE PUSH1 0x60 DUP5 ADD MLOAD PUSH1 0x3 DUP3 ADD SSTORE ADD SWAP2 ADD MLOAD ISZERO ISZERO PUSH1 0xFF DUP1 NOT DUP4 SLOAD AND SWAP2 AND OR SWAP1 SSTORE JUMP JUMPDEST PUSH4 0x4E487B71 PUSH1 0xE0 SHL PUSH1 0x0 MSTORE PUSH1 0x0 PUSH1 0x4 MSTORE PUSH1 0x24 PUSH1 0x0 REVERT JUMPDEST ISZERO PUSH2 0xD0A JUMPI JUMP JUMPDEST PUSH1 0x40 MLOAD PUSH3 0x461BCD PUSH1 0xE5 SHL DUP2 MSTORE PUSH1 0x20 PUSH1 0x4 DUP3 ADD MSTORE PUSH1 0xD PUSH1 0x24 DUP3 ADD MSTORE PUSH13 0x92DCECC2D8D2C840D2DCC8CAF PUSH1 0x9B SHL PUSH1 0x44 DUP3 ADD MSTORE PUSH1 0x64 SWAP1 REVERT JUMPDEST PUSH2 0x16D DUP2 LT ISZERO PUSH2 0xD7C JUMPI PUSH1 0xB4 DUP2 LT ISZERO PUSH2 0xD75 JUMPI PUSH1 0x5A DUP2 LT ISZERO PUSH2 0xD6E JUMPI PUSH1 0x1E GT ISZERO PUSH2 0xD68 JUMPI PUSH1 0x0 SWAP1 JUMP JUMPDEST PUSH2 0x3E8 SWAP1 JUMP JUMPDEST POP PUSH2 0x9C4 SWAP1 JUMP JUMPDEST POP PUSH2 0x1388 SWAP1 JUMP JUMPDEST POP PUSH2 0x2710 SWAP1 JUMP JUMPDEST PUSH1 0x2 PUSH1 0x1 SLOAD EQ PUSH2 0xD94 JUMPI PUSH1 0x2 PUSH1 0x1 SSTORE JUMP JUMPDEST PUSH4 0x3EE5AEB5 PUSH1 0xE0 SHL PUSH1 0x0 MSTORE PUSH1 0x4 PUSH1 0x0 REVERT JUMPDEST PUSH1 0x40 MLOAD PUSH4 0x23B872DD PUSH1 0xE0 SHL PUSH1 0x20 DUP3 ADD MSTORE PUSH1 0x1 PUSH1 0x1 PUSH1 0xA0 SHL SUB SWAP3 DUP4 AND PUSH1 0x24 DUP3 ADD MSTORE SWAP3 SWAP1 SWAP2 AND PUSH1 0x44 DUP4 ADD MSTORE PUSH1 0x64 DUP1 DUP4 ADD SWAP4 SWAP1 SWAP4 MSTORE SWAP2 DUP2 MSTORE PUSH2 0xDEE SWAP2 PUSH2 0xDE9 PUSH1 0x84 DUP4 PUSH2 0xBF2 JUMP JUMPDEST PUSH2 0xE19 JUMP JUMPDEST JUMP JUMPDEST PUSH1 0x0 SLOAD PUSH1 0x1 PUSH1 0x1 PUSH1 0xA0 SHL SUB AND CALLER SUB PUSH2 0xE04 JUMPI JUMP JUMPDEST PUSH4 0x118CDAA7 PUSH1 0xE0 SHL PUSH1 0x0 MSTORE CALLER PUSH1 0x4 MSTORE PUSH1 0x24 PUSH1 0x0 REVERT JUMPDEST SWAP1 PUSH1 0x0 PUSH1 0x20 SWAP2 DUP3 DUP2 MLOAD SWAP2 ADD DUP3 DUP6 GAS CALL ISZERO PUSH2 0x3EB JUMPI PUSH1 0x0 MLOAD RETURNDATASIZE PUSH2 0xE6B JUMPI POP PUSH1 0x1 PUSH1 0x1 PUSH1 0xA0 SHL SUB DUP2 AND EXTCODESIZE ISZERO JUMPDEST PUSH2 0xE4A JUMPI POP JUMP JUMPDEST PUSH4 0x5274AFE7 PUSH1 0xE0 SHL PUSH1 0x0 SWAP1 DUP2 MSTORE PUSH1 0x1 PUSH1 0x1 PUSH1 0xA0 SHL SUB SWAP2 SWAP1 SWAP2 AND PUSH1 0x4 MSTORE PUSH1 0x24 SWAP1 REVERT JUMPDEST PUSH1 0x1 EQ ISZERO PUSH2 0xE43 JUMP INVALID LOG2 PUSH5 0x6970667358 0x22 SLT KECCAK256 PUSH28 0x9958F5D37E79556FCEE2CCE2F0D9D95A7B7FA38B254519E7853747FD SWAP10 SHL PUSH11 0x64736F6C634300081C0033 "},"methodIdentifiers":{"fundBonusPool(uint256)":"4b7aeb21","getBonusRate(uint256)":"e37cd202","getStakeCount(address)":"cf57ee69","getStakeInfo(address)":"c3453153","getStakeLock(address,uint256)":"a458bd3e","lock(uint256,uint256)":"1338736f","lockSeconds(uint256,uint256)":"cb44acc6","owner()":"8da5cb5b","renounceOwnership()":"715018a6","stakeLocks(address,uint256)":"971fe937","token()":"fc0c546a","totalBonusPaid()":"8325263c","totalBonusReserved()":"54a1dd28","totalStaked()":"817b1cd2","transferOwnership(address)":"f2fde38b","unlock(uint256)":"6198e339"}}}}}