{"src/SubnetRegistry.sol":{"SubnetRegistry":{"abi":[{"inputs":[{"internalType":"address","name":"_token","type":"address"},{"internalType":"uint256","name":"_subnetRegistrationCost","type":"uint256"},{"internalType":"uint256","name":"_emissionPerBlock","type":"uint256"}],"stateMutability":"nonpayable","type":"constructor"},{"inputs":[{"internalType":"address","name":"owner","type":"address"}],"name":"OwnableInvalidOwner","type":"error"},{"inputs":[{"internalType":"address","name":"account","type":"address"}],"name":"OwnableUnauthorizedAccount","type":"error"},{"inputs":[],"name":"ReentrancyGuardReentrantCall","type":"error"},{"inputs":[{"internalType":"address","name":"token","type":"address"}],"name":"SafeERC20FailedOperation","type":"error"},{"anonymous":false,"inputs":[{"indexed":true,"internalType":"uint256","name":"netuid","type":"uint256"},{"indexed":false,"internalType":"uint16","name":"uid","type":"uint16"},{"indexed":true,"internalType":"address","name":"hotkey","type":"address"},{"indexed":false,"internalType":"uint256","name":"amount","type":"uint256"}],"name":"EmissionClaimed","type":"event"},{"anonymous":false,"inputs":[{"indexed":true,"internalType":"uint256","name":"netuid","type":"uint256"},{"indexed":false,"internalType":"uint256","name":"blockNumber","type":"uint256"},{"indexed":false,"internalType":"uint256","name":"totalEmission","type":"uint256"}],"name":"EpochCompleted","type":"event"},{"anonymous":false,"inputs":[{"indexed":true,"internalType":"uint256","name":"netuid","type":"uint256"},{"indexed":false,"internalType":"uint16","name":"uid","type":"uint16"},{"indexed":true,"internalType":"address","name":"hotkey","type":"address"}],"name":"NodeDeregistered","type":"event"},{"anonymous":false,"inputs":[{"indexed":true,"internalType":"uint256","name":"netuid","type":"uint256"},{"indexed":false,"internalType":"uint16","name":"uid","type":"uint16"},{"indexed":true,"internalType":"address","name":"hotkey","type":"address"},{"indexed":true,"internalType":"address","name":"coldkey","type":"address"},{"indexed":false,"internalType":"enum SubnetRegistry.NodeType","name":"nodeType","type":"uint8"}],"name":"NodeRegistered","type":"event"},{"anonymous":false,"inputs":[{"indexed":true,"internalType":"uint256","name":"netuid","type":"uint256"},{"indexed":false,"internalType":"uint16","name":"uid","type":"uint16"},{"indexed":false,"internalType":"uint256","name":"amount","type":"uint256"},{"indexed":false,"internalType":"string","name":"reason","type":"string"}],"name":"NodeSlashed","type":"event"},{"anonymous":false,"inputs":[{"indexed":true,"internalType":"address","name":"previousOwner","type":"address"},{"indexed":true,"internalType":"address","name":"newOwner","type":"address"}],"name":"OwnershipTransferred","type":"event"},{"anonymous":false,"inputs":[{"indexed":true,"internalType":"address","name":"delegator","type":"address"},{"indexed":true,"internalType":"uint256","name":"netuid","type":"uint256"},{"indexed":false,"internalType":"uint16","name":"validatorUid","type":"uint16"},{"indexed":false,"internalType":"uint256","name":"amount","type":"uint256"}],"name":"StakeDelegated","type":"event"},{"anonymous":false,"inputs":[{"indexed":true,"internalType":"address","name":"delegator","type":"address"},{"indexed":true,"internalType":"uint256","name":"netuid","type":"uint256"},{"indexed":false,"internalType":"uint16","name":"validatorUid","type":"uint16"},{"indexed":false,"internalType":"uint256","name":"amount","type":"uint256"}],"name":"StakeUndelegated","type":"event"},{"anonymous":false,"inputs":[{"indexed":true,"internalType":"uint256","name":"netuid","type":"uint256"},{"indexed":false,"internalType":"string","name":"name","type":"string"},{"indexed":true,"internalType":"address","name":"owner","type":"address"}],"name":"SubnetCreated","type":"event"},{"anonymous":false,"inputs":[{"indexed":true,"internalType":"uint256","name":"netuid","type":"uint256"},{"indexed":false,"internalType":"string","name":"name","type":"string"}],"name":"SubnetUpdated","type":"event"},{"anonymous":false,"inputs":[{"indexed":true,"internalType":"uint256","name":"netuid","type":"uint256"},{"indexed":false,"internalType":"uint16","name":"uid","type":"uint16"},{"indexed":false,"internalType":"uint256","name":"newTrust","type":"uint256"}],"name":"TrustUpdated","type":"event"},{"anonymous":false,"inputs":[{"indexed":true,"internalType":"uint256","name":"netuid","type":"uint256"},{"indexed":true,"internalType":"uint16","name":"uid","type":"uint16"},{"indexed":false,"internalType":"uint256","name":"trust","type":"uint256"},{"indexed":false,"internalType":"uint256","name":"emission","type":"uint256"},{"indexed":false,"internalType":"uint256","name":"alignment","type":"uint256"}],"name":"ValidatorScored","type":"event"},{"anonymous":false,"inputs":[{"indexed":true,"internalType":"uint256","name":"netuid","type":"uint256"},{"indexed":true,"internalType":"uint16","name":"validatorUid","type":"uint16"},{"indexed":false,"internalType":"bytes32","name":"commitHash","type":"bytes32"}],"name":"WeightsCommitted","type":"event"},{"anonymous":false,"inputs":[{"indexed":true,"internalType":"uint256","name":"netuid","type":"uint256"},{"indexed":true,"internalType":"uint16","name":"validatorUid","type":"uint16"},{"indexed":false,"internalType":"uint256","name":"weightCount","type":"uint256"}],"name":"WeightsRevealed","type":"event"},{"anonymous":false,"inputs":[{"indexed":true,"internalType":"uint256","name":"netuid","type":"uint256"},{"indexed":true,"internalType":"uint16","name":"validatorUid","type":"uint16"},{"indexed":false,"internalType":"uint256","name":"weightCount","type":"uint256"}],"name":"WeightsSet","type":"event"},{"inputs":[],"name":"TRUST_MULTIPLIER_BASE","outputs":[{"internalType":"uint256","name":"","type":"uint256"}],"stateMutability":"view","type":"function"},{"inputs":[],"name":"TRUST_MULTIPLIER_MAX","outputs":[{"internalType":"uint256","name":"","type":"uint256"}],"stateMutability":"view","type":"function"},{"inputs":[{"internalType":"uint256","name":"netuid","type":"uint256"},{"internalType":"uint16","name":"validatorUid","type":"uint16"}],"name":"autoSlashInactive","outputs":[],"stateMutability":"nonpayable","type":"function"},{"inputs":[{"internalType":"uint256","name":"netuid","type":"uint256"},{"internalType":"uint16","name":"uid","type":"uint16"}],"name":"claimEmission","outputs":[],"stateMutability":"nonpayable","type":"function"},{"inputs":[{"internalType":"uint256","name":"","type":"uint256"},{"internalType":"address","name":"","type":"address"},{"internalType":"enum SubnetRegistry.NodeType","name":"","type":"uint8"}],"name":"coldkeyNodeType","outputs":[{"internalType":"bool","name":"","type":"bool"}],"stateMutability":"view","type":"function"},{"inputs":[],"name":"commitMinDelay","outputs":[{"internalType":"uint256","name":"","type":"uint256"}],"stateMutability":"view","type":"function"},{"inputs":[],"name":"commitRevealWindow","outputs":[{"internalType":"uint256","name":"","type":"uint256"}],"stateMutability":"view","type":"function"},{"inputs":[{"internalType":"uint256","name":"netuid","type":"uint256"},{"internalType":"bytes32","name":"commitHash","type":"bytes32"}],"name":"commitWeights","outputs":[],"stateMutability":"nonpayable","type":"function"},{"inputs":[{"internalType":"string","name":"name","type":"string"},{"internalType":"uint256","name":"maxNodes","type":"uint256"},{"internalType":"uint256","name":"minStake","type":"uint256"},{"internalType":"uint256","name":"tempo","type":"uint256"}],"name":"createSubnet","outputs":[{"internalType":"uint256","name":"netuid","type":"uint256"}],"stateMutability":"nonpayable","type":"function"},{"inputs":[{"internalType":"uint256","name":"netuid","type":"uint256"},{"internalType":"uint16","name":"validatorUid","type":"uint16"},{"internalType":"uint256","name":"amount","type":"uint256"}],"name":"delegate","outputs":[],"stateMutability":"nonpayable","type":"function"},{"inputs":[{"internalType":"address","name":"","type":"address"},{"internalType":"bytes32","name":"","type":"bytes32"}],"name":"delegations","outputs":[{"internalType":"uint256","name":"","type":"uint256"}],"stateMutability":"view","type":"function"},{"inputs":[{"internalType":"uint256","name":"netuid","type":"uint256"},{"internalType":"uint16","name":"uid","type":"uint16"}],"name":"deregisterNode","outputs":[],"stateMutability":"nonpayable","type":"function"},{"inputs":[],"name":"emissionPerBlock","outputs":[{"internalType":"uint256","name":"","type":"uint256"}],"stateMutability":"view","type":"function"},{"inputs":[{"internalType":"uint256","name":"amount","type":"uint256"}],"name":"fundEmissionPool","outputs":[],"stateMutability":"nonpayable","type":"function"},{"inputs":[{"internalType":"address","name":"delegator","type":"address"},{"internalType":"uint256","name":"netuid","type":"uint256"},{"internalType":"uint16","name":"validatorUid","type":"uint16"}],"name":"getDelegation","outputs":[{"internalType":"uint256","name":"","type":"uint256"}],"stateMutability":"view","type":"function"},{"inputs":[{"internalType":"uint256","name":"netuid","type":"uint256"}],"name":"getMetagraph","outputs":[{"internalType":"address[]","name":"hotkeys","type":"address[]"},{"internalType":"address[]","name":"coldkeys","type":"address[]"},{"internalType":"uint256[]","name":"stakes","type":"uint256[]"},{"internalType":"uint256[]","name":"ranks","type":"uint256[]"},{"internalType":"uint256[]","name":"incentives","type":"uint256[]"},{"internalType":"uint256[]","name":"emissions","type":"uint256[]"},{"internalType":"uint8[]","name":"nodeTypes","type":"uint8[]"},{"internalType":"bool[]","name":"activeFlags","type":"bool[]"}],"stateMutability":"view","type":"function"},{"inputs":[{"internalType":"uint256","name":"netuid","type":"uint256"},{"internalType":"uint16","name":"uid","type":"uint16"}],"name":"getNode","outputs":[{"internalType":"address","name":"hotkey","type":"address"},{"internalType":"address","name":"coldkey","type":"address"},{"internalType":"uint8","name":"nodeType","type":"uint8"},{"internalType":"uint256","name":"stake","type":"uint256"},{"internalType":"uint256","name":"delegatedStake","type":"uint256"},{"internalType":"uint256","name":"rank","type":"uint256"},{"internalType":"uint256","name":"incentive","type":"uint256"},{"internalType":"uint256","name":"emission","type":"uint256"},{"internalType":"uint256","name":"trust","type":"uint256"},{"internalType":"bool","name":"active","type":"bool"}],"stateMutability":"view","type":"function"},{"inputs":[{"internalType":"uint256","name":"netuid","type":"uint256"}],"name":"getSubnet","outputs":[{"internalType":"string","name":"name","type":"string"},{"internalType":"address","name":"subnetOwner","type":"address"},{"internalType":"uint256","name":"maxNodes","type":"uint256"},{"internalType":"uint256","name":"emissionShare","type":"uint256"},{"internalType":"uint256","name":"tempo","type":"uint256"},{"internalType":"uint256","name":"nodeCount","type":"uint256"},{"internalType":"bool","name":"active","type":"bool"}],"stateMutability":"view","type":"function"},{"inputs":[],"name":"getSubnetCount","outputs":[{"internalType":"uint256","name":"","type":"uint256"}],"stateMutability":"view","type":"function"},{"inputs":[{"internalType":"uint256","name":"netuid","type":"uint256"},{"internalType":"uint16","name":"uid","type":"uint16"}],"name":"getTrust","outputs":[{"internalType":"uint256","name":"","type":"uint256"}],"stateMutability":"view","type":"function"},{"inputs":[{"internalType":"uint256","name":"netuid","type":"uint256"},{"internalType":"address","name":"hotkey","type":"address"}],"name":"getUidByHotkey","outputs":[{"internalType":"uint16","name":"","type":"uint16"}],"stateMutability":"view","type":"function"},{"inputs":[{"internalType":"uint256","name":"netuid","type":"uint256"},{"internalType":"uint16","name":"uid","type":"uint16"}],"name":"getValidatorScore","outputs":[{"internalType":"uint256","name":"trust","type":"uint256"},{"internalType":"uint256","name":"rank","type":"uint256"},{"internalType":"uint256","name":"stake","type":"uint256"},{"internalType":"uint256","name":"delegatedStake","type":"uint256"},{"internalType":"uint256","name":"effectivePower","type":"uint256"},{"internalType":"uint256","name":"emission","type":"uint256"},{"internalType":"uint256","name":"incentive","type":"uint256"},{"internalType":"bool","name":"active","type":"bool"}],"stateMutability":"view","type":"function"},{"inputs":[{"internalType":"uint256","name":"netuid","type":"uint256"},{"internalType":"uint16","name":"validatorUid","type":"uint16"}],"name":"getWeights","outputs":[{"internalType":"uint16[]","name":"uids","type":"uint16[]"},{"internalType":"uint16[]","name":"weights","type":"uint16[]"}],"stateMutability":"view","type":"function"},{"inputs":[{"internalType":"uint256","name":"","type":"uint256"},{"internalType":"address","name":"","type":"address"}],"name":"hotkeyToUid","outputs":[{"internalType":"uint16","name":"","type":"uint16"}],"stateMutability":"view","type":"function"},{"inputs":[{"internalType":"uint256","name":"","type":"uint256"},{"internalType":"address","name":"","type":"address"}],"name":"isRegistered","outputs":[{"internalType":"bool","name":"","type":"bool"}],"stateMutability":"view","type":"function"},{"inputs":[],"name":"maxWeightAge","outputs":[{"internalType":"uint256","name":"","type":"uint256"}],"stateMutability":"view","type":"function"},{"inputs":[],"name":"nextNetuid","outputs":[{"internalType":"uint256","name":"","type":"uint256"}],"stateMutability":"view","type":"function"},{"inputs":[{"internalType":"uint256","name":"","type":"uint256"},{"internalType":"uint16","name":"","type":"uint16"}],"name":"nodes","outputs":[{"internalType":"address","name":"hotkey","type":"address"},{"internalType":"address","name":"coldkey","type":"address"},{"internalType":"enum SubnetRegistry.NodeType","name":"nodeType","type":"uint8"},{"internalType":"uint256","name":"stake","type":"uint256"},{"internalType":"uint256","name":"delegatedStake","type":"uint256"},{"internalType":"uint256","name":"lastUpdate","type":"uint256"},{"internalType":"uint16","name":"uid","type":"uint16"},{"internalType":"bool","name":"active","type":"bool"},{"internalType":"uint256","name":"incentive","type":"uint256"},{"internalType":"uint256","name":"trust","type":"uint256"},{"internalType":"uint256","name":"rank","type":"uint256"},{"internalType":"uint256","name":"emission","type":"uint256"}],"stateMutability":"view","type":"function"},{"inputs":[],"name":"owner","outputs":[{"internalType":"address","name":"","type":"address"}],"stateMutability":"view","type":"function"},{"inputs":[{"internalType":"uint256","name":"netuid","type":"uint256"},{"internalType":"address","name":"hotkey","type":"address"},{"internalType":"enum SubnetRegistry.NodeType","name":"nodeType","type":"uint8"},{"internalType":"uint256","name":"stakeAmount","type":"uint256"}],"name":"registerNode","outputs":[{"internalType":"uint16","name":"uid","type":"uint16"}],"stateMutability":"nonpayable","type":"function"},{"inputs":[],"name":"renounceOwnership","outputs":[],"stateMutability":"nonpayable","type":"function"},{"inputs":[{"internalType":"uint256","name":"netuid","type":"uint256"},{"internalType":"uint16[]","name":"uids","type":"uint16[]"},{"internalType":"uint16[]","name":"weights","type":"uint16[]"},{"internalType":"bytes32","name":"salt","type":"bytes32"}],"name":"revealWeights","outputs":[],"stateMutability":"nonpayable","type":"function"},{"inputs":[{"internalType":"uint256","name":"netuid","type":"uint256"}],"name":"runEpoch","outputs":[],"stateMutability":"nonpayable","type":"function"},{"inputs":[{"internalType":"uint256","name":"_blocks","type":"uint256"}],"name":"setCommitMinDelay","outputs":[],"stateMutability":"nonpayable","type":"function"},{"inputs":[{"internalType":"uint256","name":"_blocks","type":"uint256"}],"name":"setCommitRevealWindow","outputs":[],"stateMutability":"nonpayable","type":"function"},{"inputs":[{"internalType":"uint256","name":"amount","type":"uint256"}],"name":"setEmissionPerBlock","outputs":[],"stateMutability":"nonpayable","type":"function"},{"inputs":[{"internalType":"uint256","name":"_blocks","type":"uint256"}],"name":"setMaxWeightAge","outputs":[],"stateMutability":"nonpayable","type":"function"},{"inputs":[{"internalType":"uint256","name":"_basisPoints","type":"uint256"}],"name":"setSlashPercentage","outputs":[],"stateMutability":"nonpayable","type":"function"},{"inputs":[{"internalType":"uint256","name":"cost","type":"uint256"}],"name":"setSubnetRegistrationCost","outputs":[],"stateMutability":"nonpayable","type":"function"},{"inputs":[{"internalType":"uint256","name":"netuid","type":"uint256"},{"internalType":"uint16","name":"validatorUid","type":"uint16"},{"internalType":"uint16[]","name":"uids","type":"uint16[]"},{"internalType":"uint16[]","name":"weights","type":"uint16[]"}],"name":"setWeights","outputs":[],"stateMutability":"nonpayable","type":"function"},{"inputs":[{"internalType":"address","name":"_verifier","type":"address"}],"name":"setZkmlVerifier","outputs":[],"stateMutability":"nonpayable","type":"function"},{"inputs":[{"internalType":"uint256","name":"netuid","type":"uint256"},{"internalType":"uint16","name":"uid","type":"uint16"},{"internalType":"uint256","name":"basisPoints","type":"uint256"},{"internalType":"string","name":"reason","type":"string"}],"name":"slashNode","outputs":[],"stateMutability":"nonpayable","type":"function"},{"inputs":[],"name":"slashPercentage","outputs":[{"internalType":"uint256","name":"","type":"uint256"}],"stateMutability":"view","type":"function"},{"inputs":[],"name":"subnetRegistrationCost","outputs":[{"internalType":"uint256","name":"","type":"uint256"}],"stateMutability":"view","type":"function"},{"inputs":[{"internalType":"uint256","name":"","type":"uint256"}],"name":"subnets","outputs":[{"internalType":"string","name":"name","type":"string"},{"internalType":"address","name":"owner","type":"address"},{"internalType":"uint256","name":"maxNodes","type":"uint256"},{"internalType":"uint256","name":"emissionShare","type":"uint256"},{"internalType":"uint256","name":"tempo","type":"uint256"},{"internalType":"uint256","name":"lastEpochBlock","type":"uint256"},{"internalType":"uint256","name":"minStake","type":"uint256"},{"internalType":"uint256","name":"immunityPeriod","type":"uint256"},{"internalType":"uint256","name":"nodeCount","type":"uint256"},{"internalType":"uint256","name":"nextUid","type":"uint256"},{"internalType":"bool","name":"active","type":"bool"},{"internalType":"uint256","name":"createdAt","type":"uint256"}],"stateMutability":"view","type":"function"},{"inputs":[],"name":"token","outputs":[{"internalType":"contract IERC20","name":"","type":"address"}],"stateMutability":"view","type":"function"},{"inputs":[],"name":"totalEmissionShares","outputs":[{"internalType":"uint256","name":"","type":"uint256"}],"stateMutability":"view","type":"function"},{"inputs":[{"internalType":"address","name":"newOwner","type":"address"}],"name":"transferOwnership","outputs":[],"stateMutability":"nonpayable","type":"function"},{"inputs":[{"internalType":"uint256","name":"netuid","type":"uint256"},{"internalType":"uint16","name":"validatorUid","type":"uint16"},{"internalType":"uint256","name":"amount","type":"uint256"}],"name":"undelegate","outputs":[],"stateMutability":"nonpayable","type":"function"},{"inputs":[{"internalType":"uint256","name":"netuid","type":"uint256"},{"internalType":"uint256","name":"maxNodes","type":"uint256"},{"internalType":"uint256","name":"minStake","type":"uint256"},{"internalType":"uint256","name":"tempo","type":"uint256"},{"internalType":"uint256","name":"immunityPeriod","type":"uint256"}],"name":"updateSubnet","outputs":[],"stateMutability":"nonpayable","type":"function"},{"inputs":[{"internalType":"uint256","name":"","type":"uint256"},{"internalType":"uint16","name":"","type":"uint16"}],"name":"weightCommits","outputs":[{"internalType":"bytes32","name":"commitHash","type":"bytes32"},{"internalType":"uint256","name":"commitBlock","type":"uint256"},{"internalType":"bool","name":"revealed","type":"bool"}],"stateMutability":"view","type":"function"},{"inputs":[],"name":"zkmlVerifier","outputs":[{"internalType":"address","name":"","type":"address"}],"stateMutability":"view","type":"function"}],"evm":{"bytecode":{"linkReferences":{},"object":"60a03461017457601f61433238819003918201601f19168301916001600160401b03831184841017610179578084926060946040528339810103126101745780516001600160a01b0381169190829003610174576040602082015191015191331561015e5760008054336001600160a01b03198216811783556040519290916001600160a01b0316907f8be0079c531659141344cd1fd0a4f28419497f9722a3daafe3b4186f6b6457e09080a36001805560016002556101f4600f55611c20601055610258601155600a601255811561012c57506080526003556004556040516141a29081610190823960805181818161033a0152818161073401528181610b9c0152818161153e01528181611db001528181612a5601528181612bf101528181612d3901526135d10152f35b62461bcd60e51b815260206004820152600d60248201526c24b73b30b634b2103a37b5b2b760991b6044820152606490fd5b631e4fbdf760e01b600052600060045260246000fd5b600080fd5b634e487b7160e01b600052604160045260246000fdfe6080604052600436101561001257600080fd5b60003560e01c80631347608514612d1657806314511bf71461254857806314d5988814612cb85780631602ab2914612c975780631aefa1b614612c795780631ba60b7014612b075780631caa9070146129c65780632aaa86aa146127ae5780632b4b375314612762578063393ebbf8146127095780633a05eaa91461258f5780633c813394146125665780633d5316dd1461254857806343219f03146124e757806346a655af146124c6578063475726f7146123f95780634a77ac98146123db5780635071b8911461235657806358ca7504146122c4578063617078fb146121e75780636b54b30914611fe4578063710fe5cd14611fc3578063715018a614611f6a5780637339e88114611eef57806375e6ee1714611a5e5780638272f0b814611a40578063842443dc146115dd5780638da5cb5b146115b45780639e1611bf146113e35780639e793787146113c5578063a4ce91c614611382578063b53c39b41461133a578063b81f6e18146112ed578063bd58199a146112cf578063bddee43c146112ae578063c0843eeb14611267578063c113c31114611172578063c95986a214611154578063cc2d54c414611136578063d19e2ce814611115578063d2d985091461104c578063dec74f1814610ec6578063dfbeffff14610d4e578063e485c04c14610d24578063ed23dcba14610d07578063f2fde38b14610c7e578063f39e9f4b1461082a578063f46e1e1f14610698578063f6ec03f11461067b578063fa61395814610369578063fc0c546a146103245763fffc4bbf1461025857600080fd5b3461031f57604036600319011261031f576040610273612d5f565b60043560005260086020528160002061ffff60009216825260205220805461029a816134e3565b906102a4816134e3565b9260005b8281106102dd576102cb846102d98760405193849360408552604085019061302b565b90838203602085015261302b565b0390f35b8061ffff6102ed600193856132be565b5054166102fa8287613528565b5261ffff61030882856132be565b505460101c166103188288613528565b52016102a8565b600080fd5b3461031f57600036600319011261031f576040517f00000000000000000000000000000000000000000000000000000000000000006001600160a01b03168152602090f35b3461031f57602036600319011261031f5760043580600052600660205260406000206008810154610399816134e3565b906103a3816134e3565b6103ac826134e3565b926103b6836134e3565b906103c0846134e3565b6103c9856134e3565b926103d3866134cc565b96604051976103e29089612e7a565b8688526103ee876134cc565b602089019a90601f1901368c37610404886134cc565b9a6040519b610413908d612e7a565b888c5261041f896134cc565b60208d019190601f19013683378960009c8d809c60098e93015461ffff81945b16109182610671575b5050156105785784600052600760205260408c8160002061ffff6000921682526020522060ff600582015460101c161561056a579d60ff60029f8c61050a8f9260098f918f8f8f8a956104a58760018060a01b0387541692613528565b526001840154986001600160a01b038a16906104c2908890613528565b526002866104db6104e19287015460038801549061337a565b92613528565b526104f185600885015492613528565b5261050184600684015492613528565b52015492613528565b5260a01c169e8f1015610554578f61ffff9f918f61053c82610542946105489661053683600196613528565b52613528565b52613445565b9c613515565b9b82819f83908f61043f565b634e487b7160e01b600052602160045260246000fd5b5061054861ffff9e9c613515565b5050979a509750509089949291979397604051998a996101008b526101008b016105a191612fba565b8a810360208c01526105b291612fba565b89810360408b01526105c391612ff7565b88810360608a01526105d491612ff7565b87810360808901526105e591612ff7565b86810360a08801526105f691612ff7565b9085820360c08701525190818152602001929060005b8181106106555750505060209084830360e0860152519182815201919060005b81811061063a575050500390f35b8251151584528594506020938401939092019160010161062c565b825160ff1685528796506020948501949092019160010161060c565b109050828f610448565b3461031f57600036600319011261031f5760206040516127108152f35b3461031f576106a636612d70565b6106ae61406d565b80156107f05782600052600760205260408060002060009061ffff85168252602052206106e460ff600583015460101c166130ea565b60ff600182015460a01c169160028310156105545760036107e79261072c60017f027aaa6a9479088edb91e883282880ac91e93b04a07c8a730242e0ed59c54598961461312d565b6107588330337f0000000000000000000000000000000000000000000000000000000000000000614024565b604080516020810189815260f089901b6001600160f01b0319169282019290925261079081604281015b03601f198101835282612e7a565b51902033600052600b60205260406000209060005260205260406000206107b884825461337a565b9055016107c682825461337a565b90556040519182913395836020909392919361ffff60408201951681520152565b0390a360018055005b60405162461bcd60e51b81526020600482015260126024820152710416d6f756e74206d757374206265203e20360741b6044820152606490fd5b3461031f57608036600319011261031f576004356001600160401b03811161031f5761085a903690600401612f8d565b6064359060243561086961406d565b81151580610c73575b15610c3f5780151580610c33575b15610bfb578215610bc65760035480610b94575b50600254926108a284613445565b600255604051916108b283612e5e565b6001600160401b038411610b7e576040516108d7601f8601601f191660200182612e7a565b848152368588011161031f5784876020830137600060208683010152835233602084015260408301526103e8606083015260808201524360a082015260443560c0820152611c2060e08201526000610100820152600061012082015260016101408201524261016082015282600052600660205260406000209080518051906001600160401b038211610b7e5761096e8454612e09565b601f8111610b36575b50602090601f8311600114610ac7579180600b949261016094600092610abc575b50508160011b916000199060031b1c19161784555b60208101516001850180546001600160a01b039092166001600160a01b031990921691909117905560408101516002850155606081015160038501556080810151600485015560a0810151600585015560c0810151600685015560e0810151600785015561010081015160088501556101208101516009850155610140810151600a8501805460ff191691151560ff1691909117905501519101556005546103e88101809111610aa6577faa2647b7670da77b5fc5f9e4056c00263527212d34d09e44efabd660c88c347a610a9760209585936005556040519182918883523396898401916133a7565b0390a360018055604051908152f35b634e487b7160e01b600052601160045260246000fd5b015190508980610998565b9084600052806000209160005b601f1985168110610b1e575092600b94926001926101609583601f19811610610b05575b505050811b0184556109ad565b015160001960f88460031b161c19169055898080610af8565b91926020600181928685015181550194019201610ad4565b846000526020600020601f840160051c81019160208510610b74575b601f0160051c01905b818110610b685750610977565b60008155600101610b5b565b9091508190610b52565b634e487b7160e01b600052604160045260246000fd5b610bc09030337f0000000000000000000000000000000000000000000000000000000000000000614024565b84610894565b60405162461bcd60e51b815260206004820152600d60248201526c496e76616c69642074656d706f60981b6044820152606490fd5b60405162461bcd60e51b815260206004820152601060248201526f496e76616c6964206d61784e6f64657360801b6044820152606490fd5b50611000811115610880565b60405162461bcd60e51b815260206004820152600c60248201526b496e76616c6964206e616d6560a01b6044820152606490fd5b506040821115610872565b3461031f57602036600319011261031f57610c97612ddb565b610c9f613ffb565b6001600160a01b03168015610cf157600080546001600160a01b03198116831782556001600160a01b0316907f8be0079c531659141344cd1fd0a4f28419497f9722a3daafe3b4186f6b6457e09080a3005b631e4fbdf760e01b600052600060045260246000fd5b3461031f57600036600319011261031f576020604051613a988152f35b3461031f57602036600319011261031f57610d3d61406d565b610d4860043561353c565b60018055005b3461031f57604036600319011261031f5760043560243590806000526009602052604060002060018060a01b033316600052602052610d9460ff604060002054166133c8565b80600052600a602052604060002060018060a01b03331660005260205261ffff6040600020541691816000526007602052604060002061ffff841660005260205260ff60016040600020015460a01c166002811015610554576001610df9911461312d565b816000526007602052604060002061ffff8416600052602052610e2960ff60056040600020015460101c16613341565b60405160608101918183106001600160401b03841117610b7e57610ebd6020927f9d7068cbd38a9652b8b283a496928bcf42dd01fb68865e13f7f279256529175d94604052828152600284820143815260408301906000825288600052600c875260408060002060009061ffff8d1682528952209351845551600184015551151591019060ff801983541691151516179055565b604051908152a3005b3461031f5760a036600319011261031f576004358060005260066020526040600020610ef860ff600a83015416613405565b60018101546001600160a01b031633148015611038575b610f189061348f565b60243560028201556044356006820155606435600482015560843560078201556040519060208252600090805490610f4f82612e09565b91826020860152600181169081600014610ff55750600114610f95575b847f1f24371ed79af1971a700f92176a2cb13437ef4dbd2c6c6b9f2ad8f5fc3e8f9485850386a2005b600090815260208120939250905b808210610fda57509091508101604001817f1f24371ed79af1971a700f92176a2cb13437ef4dbd2c6c6b9f2ad8f5fc3e8f94610f6c565b91926001816020925460408588010152019101909291610fa3565b859450604092507f1f24371ed79af1971a700f92176a2cb13437ef4dbd2c6c6b9f2ad8f5fc3e8f949593915060ff191682840152151560051b8201019192610f6c565b506000546001600160a01b03163314610f0f565b3461031f57604036600319011261031f576040611067612d5f565b60043560005260076020528160002061ffff6000921682526020522060018060a01b03815416600182015460ff8160a01c1692600284101561055457610140936002820154600383015460088401549060068501549260098601549460ff6005600789015498015460101c1697604051998a5260018060a01b031660208a015260408901526060880152608087015260a086015260c085015260e08401526101008301521515610120820152f35b3461031f57602036600319011261031f5761112e613ffb565b600435601155005b3461031f57600036600319011261031f576020601254604051908152f35b3461031f57600036600319011261031f576020600454604051908152f35b3461031f57604036600319011261031f57604061118d612d5f565b60043560005260076020528160002061ffff6000921682526020522060ff600182015460a01c1660028110156105545760016111c9911461312d565b600281015460038201546111e56111e0828461337a565b6140ca565b92600781015492670de0b6b3a76400006111fe8561325f565b04612710018061271011610aa65761121c6127109161010097613277565b0460088301549360098401549260ff6005600687015496015460101c1695604051978852602088015260408701526060860152608085015260a084015260c0830152151560e0820152f35b3461031f57604036600319011261031f57611280612d5f565b600435600052600760205261ffff604060002091166000526020526020600760406000200154604051908152f35b3461031f57602036600319011261031f576112c7613ffb565b600435601055005b3461031f57600036600319011261031f576020600f54604051908152f35b3461031f57604036600319011261031f57611306612dc5565b600435600052600960205260406000209060018060a01b0316600052602052602060ff604060002054166040519015158152f35b3461031f57604036600319011261031f576001600160a01b0361135b612ddb565b16600052600b60205260406000206024356000526020526020604060002054604051908152f35b3461031f57602036600319011261031f5761139b612ddb565b6113a3613ffb565b600e80546001600160a01b0319166001600160a01b0392909216919091179055005b3461031f57600036600319011261031f576020600354604051908152f35b3461031f57604036600319011261031f576004356040611401612d5f565b61140961406d565b8260005260076020528160002061ffff60009216825260205220600581019182549261143a60ff8560101c16613341565b600183019360018060a01b03855416331480156115a0575b61145b9061348f565b61147b60048501548460005260066020526007604060002001549061337a565b43106115695762ff000019169055600081815260096020908152604080832085546001600160a01b039081168552908352818420805460ff19169055848452600d8352818420875491821685529092529091206114de9160a01c60ff1690612df1565b60ff1981541690556000526006602052600860406000200180548015610aa657600019019055600060028201918161151e6009855493019283549061337a565b9355558061152c5760018055005b905461156291906001600160a01b03167f000000000000000000000000000000000000000000000000000000000000000061408f565b8080610d48565b60405162461bcd60e51b815260206004820152600f60248201526e125b5b5d5b9a5d1e481c195c9a5bd9608a1b6044820152606490fd5b506000546001600160a01b03163314611452565b3461031f57600036600319011261031f576000546040516001600160a01b039091168152602090f35b3461031f57608036600319011261031f576004356024356001600160401b03811161031f57611610903690600401612d95565b6044929192356001600160401b03811161031f57611632903690600401612d95565b611640818496939614613070565b61164b8315156130ae565b60008481526009602090815260408083203384529091529020546116719060ff166133c8565b83600052600a602052604060002060018060a01b03331660005260205261ffff604060002054169484600052600760205260408060002060009061ffff89168252602052209260ff600185015460a01c1660028110156105545760016116d7911461312d565b6116ea60ff600586015460101c16613341565b85600052600c60205260408060002060009061ffff8a168252602052208054908115611a0957600281019182549160ff83166119d157600101546117306012548261337a565b4310611996576011546117429161337a565b4311611959578760405161177a60208261176a61176383830180978c613454565b8c8c613454565b6064358152038084520182612e7a565b519020036119245760ff1916600117905560005b8581106118685750856000526008602052604060002061ffff88166000526020526117bc604060002061328a565b61ffff87169260005b8681106118025788887ffba62aad89c6c437bf733319e2bb0ee93cb42499851f7a0b45088b25f3a2c49360208a8a600443910155604051908152a3005b6001908860005260086020526118626040806000206000908982526020522061183461182f848c8961316b565b613191565b9061ffff61184661182f86898c61316b565b816040519461185486612e43565b1684521660208301526132d6565b016117c5565b61189661187961182f83898661316b565b88600052600660205261ffff6009604060002001549116106131a0565b8660005260076020526118d360ff60056040806000206118ba61182f878d8a61316b565b9061ffff60009216825260205220015460101c166131da565b86600052600760205260ff60016040806000206118f461182f868c8961316b565b9061ffff60009216825260205220015460a01c169060028210156105545761191e6001921561321a565b0161178e565b60405162461bcd60e51b815260206004820152600d60248201526c090c2e6d040dad2e6dac2e8c6d609b1b6044820152606490fd5b60405162461bcd60e51b815260206004820152601560248201527414995d99585b081dda5b991bddc8195e1c1a5c9959605a1b6044820152606490fd5b60405162461bcd60e51b8152602060048201526013602482015272151bdbc819585c9b1e481d1bc81c995d99585b606a1b6044820152606490fd5b60405162461bcd60e51b815260206004820152601060248201526f105b1c9958591e481c995d99585b195960821b6044820152606490fd5b60405162461bcd60e51b815260206004820152600f60248201526e139bc818dbdb5b5a5d08199bdd5b99608a1b6044820152606490fd5b3461031f57600036600319011261031f576020601054604051908152f35b3461031f57608036600319011261031f57611a77612dc5565b6002604435101561031f5760643590611a8e61406d565b6004356000526006602052604060002090611aaf60ff600a84015416613405565b6004356000526009602052604060002060018060a01b03821660005260205260ff60406000205416611eb557600882015460028301541115611e825760068201548310611e4857600091604435611e3d5760ff611b2660015b6004358652600d602090815260408088203389529091528620612df1565b5416611dd9576004358352600d602090815260408085203386529091528320611b529060443590612df1565b805460ff1916600117905583611da8575b6009810192835493611b7485613445565b9055604051611b8281612e5e565b6001600160a01b0384811682523360208084019182526044356040808601918252606086019a8b526000608087018190524360a0880190815261ffff8c1660c08901818152600160e08b018181526101008c018690526706f05b59d3b200006101208d01526101408c018690526101608c018690526004358652600789528686209386529290975293909220885181549089166001600160a01b0319918216178255965195810180549690981695909616949094179095559051909993955093919290916002851015610554576020996040966009946101609460009860018901549060ff60a01b9060a01b169060ff60a01b19161760018901555160028801556080840151600388015551600487015561ffff80600588019351161661ffff1983541617825551151562ff000082549160101b169062ff0000191617905561010081015160068501556101208101516007850155610140810151600885015501519101556004358152600a865281812060018060a01b0385168252865281812061ffff8087161661ffff1982541617905560043581526009865281812060018060a01b0385168252865220600160ff198254161790556008611d4781830154613445565b91015560405161ffff83168152611d62848201604435612f80565b33916001600160a01b031690600435907fd6347f2c1cbfc00c2ef5d4dfce146b393cb3305376a2999571521d291def055590604090a46001805561ffff60405191168152f35b611dd48430337f0000000000000000000000000000000000000000000000000000000000000000614024565b611b63565b60405162461bcd60e51b815260206004820152603660248201527f53656c662d766f74653a20636f6c646b657920616c72656164792072656769736044820152757465726564206173206f70706f73697465207479706560501b6064820152608490fd5b60ff611b2684611b08565b60405162461bcd60e51b8152602060048201526012602482015271496e73756666696369656e74207374616b6560701b6044820152606490fd5b60405162461bcd60e51b815260206004820152600b60248201526a14dd589b995d08199d5b1b60aa1b6044820152606490fd5b60405162461bcd60e51b8152602060048201526012602482015271105b1c9958591e481c9959da5cdd195c995960721b6044820152606490fd5b3461031f57604036600319011261031f57600435611f0b612dc5565b90806000526009602052604060002060018060a01b038316600052602052611f3a60ff604060002054166133c8565b600052600a60205260406000209060018060a01b0316600052602052602061ffff60406000205416604051908152f35b3461031f57600036600319011261031f57611f83613ffb565b600080546001600160a01b0319811682556001600160a01b03167f8be0079c531659141344cd1fd0a4f28419497f9722a3daafe3b4186f6b6457e08280a3005b3461031f57602036600319011261031f57611fdc613ffb565b600480359055005b3461031f57608036600319011261031f57600435612000612d5f565b6044356064356001600160401b03811161031f57612022903690600401612f8d565b929060018060a01b0360005416331480156121c5575b156121805782151580612174575b1561212f57846000526007602052604060002061ffff831660005260205260406000209060ff600583015460101c16156120f8577fb690d999d54e9332494c15c985df21327bfff85f3125d47be78b06ca862b419b9461ffff9460026120eb94016127106120b682549384613277565b04918083116120f0575b826120ca91613063565b905560405195869516855260208501526060604085015260608401916133a7565b0390a2005b9150816120c0565b60405162461bcd60e51b815260206004820152600f60248201526e4e6f6465206e6f742061637469766560881b6044820152606490fd5b60405162461bcd60e51b815260206004820152601860248201527f496e76616c696420736c6173682070657263656e7461676500000000000000006044820152606490fd5b50612710831115612046565b60405162461bcd60e51b815260206004820152601760248201527f4e6f7420617574686f72697a656420746f20736c6173680000000000000000006044820152606490fd5b5084600052600660205260018060a01b03600160406000200154163314612038565b3461031f57604036600319011261031f576101806040612205612d5f565b60043560005260076020528160002061ffff6000921682526020522060018060a01b03815416906001810154906002810154600382015460ff6004840154600585015490600686015493600787015495612286600960088a0154990154996040519b8c5260018060a01b03811660208d01528660408d019160a01c16612f80565b60608a0152608089015260a088015261ffff811660c088015260101c16151560e0860152610100850152610120840152610140830152610160820152f35b3461031f57602036600319011261031f576004356000526006602052612331604060002060018060a01b036001820154166002820154916003810154600482015460088301549161231c60ff600a8601541694612e9b565b9560405197889760e0895260e0890190612f3f565b95602088015260408701526060860152608085015260a0840152151560c08301520390f35b3461031f57606036600319011261031f5761236f612ddb565b60443561ffff8116810361031f576040516123ab816107826020820194602435869091602292825261ffff60f01b9060f01b1660208201520190565b5190209060018060a01b0316600052600b6020526040600020906000526020526020604060002054604051908152f35b3461031f57600036600319011261031f576020600554604051908152f35b3461031f57602036600319011261031f576004356000526006602052604060002061018061242682612e9b565b9160018060a01b03600182015416906002810154906003810154600482015460058301546006840154600785015491600886015493600987015495600b60ff600a8a015416980154986124846040519d8d8f9e8f9081520190612f3f565b9a60208d015260408c015260608b015260808a015260a089015260c088015260e087015261010086015261012085015215156101408401526101608301520390f35b3461031f57602036600319011261031f576124df613ffb565b600435600355005b3461031f57606036600319011261031f57612500612dc5565b604435600281101561031f5761253c60ff91602093600435600052600d855260406000209060018060a01b031660005284526040600020612df1565b54166040519015158152f35b3461031f57600036600319011261031f576020600254604051908152f35b3461031f57600036600319011261031f57600e546040516001600160a01b039091168152602090f35b3461031f57604036600319011261031f576004356125ab612d5f565b81600052600760205260408060002060009061ffff84168252602052206125db60ff600583015460101c16613341565b60ff600182015460a01c1660028110156105545760016125fb911461312d565b61260c60048201546010549061337a565b4311156126ce57600281018054916064830283810460641484151715610aa6576127109004918383116126c6575b6126478360079495613063565b90550191825491605083029280840460501490151715610aa6577fb690d999d54e9332494c15c985df21327bfff85f3125d47be78b06ca862b419b93606460a09404905561ffff60405192168252602082015260606040820152601260608201527124b730b1ba34bb32903b30b634b230ba37b960711b6080820152a2005b83925061263a565b60405162461bcd60e51b815260206004820152601360248201527256616c696461746f722069732061637469766560681b6044820152606490fd5b3461031f57602036600319011261031f57600435612725613ffb565b611388811161273357600f55005b60405162461bcd60e51b81526020600482015260076024820152664d61782035302560c81b6044820152606490fd5b3461031f57604036600319011261031f5761277b612dc5565b600435600052600a60205260406000209060018060a01b0316600052602052602061ffff60406000205416604051908152f35b3461031f57608036600319011261031f576004356127ca612d5f565b906044356001600160401b03811161031f576127ea903690600401612d95565b906064356001600160401b03811161031f5761280a903690600401612d95565b9490612814613ffb565b61281f868514613070565b61282a8415156130ae565b84600052600760205260408060002060009061ffff85168252602052209261285b60ff600586015460101c166130ea565b60ff600185015460a01c16600281101561055457600161287e919894981461312d565b60005b85811061293a5750856000526008602052604060002061ffff88166000526020526128af604060002061328a565b61ffff60009716965b8581106128f55787877f25742c04c8f0360e39abb67701fda4acb202e054e9776c223ff2b53398c7b26060208989600443910155604051908152a3005b6001908760005260086020526129346040806000206000908c82526020522061292261182f848b8861316b565b9061ffff61184661182f868b8b61316b565b016128b8565b61294e61187961182f8389869c989c61316b565b86600052600760205261297260ff60056040806000206118ba61182f878d8a61316b565b86600052600760205260ff600160408060002061299361182f868c8961316b565b9061ffff60009216825260205220015460a01c16906002821015610554576129bd6001921561321a565b01969296612881565b3461031f57604036600319011261031f576004356129e2612d5f565b906129eb61406d565b600081815260076020908152604080832061ffff86168452909152902060018101546001600160a01b03163303612ad65760098101908154908115612aa35760007f590fa2fafacb7b76b58059ea8c0b2e9e7fe3f6a044b9e3a27f9d1a1f3aff626d9355612a7a82337f000000000000000000000000000000000000000000000000000000000000000061408f565b546040805161ffff909616865260208601929092526001600160a01b03169390819081016107e7565b60405162461bcd60e51b815260206004820152600b60248201526a27379032b6b4b9b9b4b7b760a91b6044820152606490fd5b60405162461bcd60e51b81526020600482015260096024820152682737ba1037bbb732b960b91b6044820152606490fd5b3461031f57612b1536612d70565b612b1d61406d565b604080516020810185815260f085901b6001600160f01b03191692820192909252612b4b8160428101610782565b51902033600052600b6020526040600020816000526020528160406000205410612c34577fef37dac52e652a2f78cc3df2429066b4d48a100f62255b7343f6396b3c2eef81916107e79133600052600b6020526040600020906000526020526040600020612bba828254613063565b9055846000526007602052604060002061ffff85166000526020526003604060002001612be8828254613063565b9055612c1581337f000000000000000000000000000000000000000000000000000000000000000061408f565b6040519182913395836020909392919361ffff60408201951681520152565b60405162461bcd60e51b815260206004820152601760248201527f496e73756666696369656e742064656c65676174696f6e0000000000000000006044820152606490fd5b3461031f57600036600319011261031f576020601154604051908152f35b3461031f57602036600319011261031f57612cb0613ffb565b600435601255005b3461031f57604036600319011261031f5760606040612cd5612d5f565b600435600052600c6020528160002061ffff6000921682526020522080549060ff600260018301549201541690604051928352602083015215156040820152f35b3461031f57602036600319011261031f57612d2f613ffb565b612d5d60043530337f0000000000000000000000000000000000000000000000000000000000000000614024565b005b6024359061ffff8216820361031f57565b606090600319011261031f576004359060243561ffff8116810361031f579060443590565b9181601f8401121561031f578235916001600160401b03831161031f576020808501948460051b01011161031f57565b602435906001600160a01b038216820361031f57565b600435906001600160a01b038216820361031f57565b90600281101561055457600052602052604060002090565b90600182811c92168015612e39575b6020831014612e2357565b634e487b7160e01b600052602260045260246000fd5b91607f1691612e18565b604081019081106001600160401b03821117610b7e57604052565b61018081019081106001600160401b03821117610b7e57604052565b90601f801991011681019081106001600160401b03821117610b7e57604052565b9060405191826000825492612eaf84612e09565b8084529360018116908115612f1d5750600114612ed6575b50612ed492500383612e7a565b565b90506000929192526020600020906000915b818310612f01575050906020612ed49282010138612ec7565b6020919350806001915483858901015201910190918492612ee8565b905060209250612ed494915060ff191682840152151560051b82010138612ec7565b919082519283825260005b848110612f6b575050826000602080949584010152601f8019910116010190565b80602080928401015182828601015201612f4a565b9060028210156105545752565b9181601f8401121561031f578235916001600160401b03831161031f576020838186019501011161031f57565b906020808351928381520192019060005b818110612fd85750505090565b82516001600160a01b0316845260209384019390920191600101612fcb565b906020808351928381520192019060005b8181106130155750505090565b8251845260209384019390920191600101613008565b906020808351928381520192019060005b8181106130495750505090565b825161ffff1684526020938401939092019160010161303c565b91908203918211610aa657565b1561307757565b60405162461bcd60e51b815260206004820152600f60248201526e098cadccee8d040dad2e6dac2e8c6d608b1b6044820152606490fd5b156130b557565b60405162461bcd60e51b815260206004820152600d60248201526c456d707479207765696768747360981b6044820152606490fd5b156130f157565b60405162461bcd60e51b815260206004820152601460248201527356616c696461746f72206e6f742061637469766560601b6044820152606490fd5b1561313457565b60405162461bcd60e51b815260206004820152600f60248201526e2737ba1030903b30b634b230ba37b960891b6044820152606490fd5b919081101561317b5760051b0190565b634e487b7160e01b600052603260045260246000fd5b3561ffff8116810361031f5790565b156131a757565b60405162461bcd60e51b815260206004820152600b60248201526a125b9d985b1a590815525160aa1b6044820152606490fd5b156131e157565b60405162461bcd60e51b8152602060048201526011602482015270546172676574206e6f742061637469766560781b6044820152606490fd5b1561322157565b60405162461bcd60e51b815260206004820152601660248201527543616e206f6e6c7920776569676874206d696e65727360501b6044820152606490fd5b906113888202918083046113881490151715610aa657565b81810292918115918404141715610aa657565b805490600081558161329a575050565b6000526020600020908101905b8181106132b2575050565b600081556001016132a7565b805482101561317b5760005260206000200190600090565b805468010000000000000000811015610b7e576132f8916001820181556132be565b91909161332b578051825460209092015163ffffffff1990921661ffff919091161760109190911b63ffff000016179055565b634e487b7160e01b600052600060045260246000fd5b1561334857565b60405162461bcd60e51b815260206004820152600a6024820152694e6f742061637469766560b01b6044820152606490fd5b91908201809211610aa657565b8115613391570490565b634e487b7160e01b600052601260045260246000fd5b908060209392818452848401376000828201840152601f01601f1916010190565b156133cf57565b60405162461bcd60e51b815260206004820152600e60248201526d139bdd081c9959da5cdd195c995960921b6044820152606490fd5b1561340c57565b60405162461bcd60e51b81526020600482015260116024820152705375626e6574206e6f742061637469766560781b6044820152606490fd5b6000198114610aa65760010190565b906000905b8082106134665750505090565b90919283359061ffff8216820361031f576020809161ffff600194168152019401920190613459565b1561349657565b60405162461bcd60e51b815260206004820152600e60248201526d139bdd08185d5d1a1bdc9a5e995960921b6044820152606490fd5b6001600160401b038111610b7e5760051b60200190565b906134ed826134cc565b6134fa6040519182612e7a565b828152809261350b601f19916134cc565b0190602036910137565b61ffff1661ffff8114610aa65760010190565b805182101561317b5760209160051b010190565b9081600052600660205260406000209161355c60ff600a85015416613405565b600583015461356f60048501548261337a565b4310613fca57600884015415613f9a576005548015613f60576135ae6135a361359b6135b39443613063565b600454613277565b600387015490613277565b613387565b6040516370a0823160e01b81523060048201529092906020816024817f00000000000000000000000000000000000000000000000000000000000000006001600160a01b03165afa908115613f5457600091613f22575b50808411613f1a575b508215613f0e57600984015492613629846134e3565b91600091613636866134e3565b96835b8761ffff821610156138125786600052600760205260408060002060009061ffff841682526020522060ff600582015460101c161580156137f4575b6137ea5761368c600282015460038301549061337a565b80156137df576136b160076136a9670de0b6b3a7640000936140ca565b93015461325f565b0461271001908161271011610aa657612710916136cd91613277565b0487600052600860205260408060002060009061ffff85168252602052209060009182908054915b8281106137b8575083156137ab5792919060009384935b8b83861061373857505050505050906137339161372d61ffff83168c613528565b52613515565b613639565b61377d61379a8780999e6137a09461379461ffff613774896135ae8e9f9e8d9e9f61376860019e9f9187926132be565b505460101c1690613277565b9687958c6132be565b5054166104db8561378e8386613528565b5161337a565b5261337a565b9c61337a565b95019392919061370c565b5050505061373390613515565b936137d860019161ffff6137cc88866132be565b505460101c169061337a565b94016136f5565b505061373390613515565b5061373390613515565b5060ff600182015460a01c1660028110156105545760011415613675565b509392919650939450612008840284810461200803610aa65761271090048115159081613dcb575b50610708850285810461070803610aa657612710900460009060006009870154905b8161ffff821610613d1857505081613c1e575b50506138b1575b50507f8b62a28f277757eb2f6f2f71863cbb10e1ce66d8bcfa14b5ebcba332ab867331916040916005439101558151904382526020820152a2565b91939260009591955b600986015461ffff82161015613c0e5784600052600760205260408060002060009061ffff84168252602052209060ff600583015460101c16158015613bf0575b613be65785600052600860205260408060002060009061ffff8416825260205220805415613b36578054600091825b828110613b175750600092839284925b818410613a505750600092505082159050613a485750670de0b6b3a7640000820291808304670de0b6b3a76400001490151715610aa65761397a91613387565b60078301908154604681029080820460461490151715610aa657601e820294828604601e1483151715610aa65760646139b8613a439760099461337a565b04809455897f41e0549644e0a71255b7ed60362e6a3b2a3d5b8b00a6a7cb1b205f14e2528d08604051806139fe888a836020909392919361ffff60408201951681520152565b0390a2015460405192835260208301526040820152867f70081bb37524d6436e9f431af67096c6878e6c5daf03fe827e65b73168db6398606061ffff851693a3613515565b6138ba565b91505061397a565b909192939461ffff613a6286846132be565b505460101c1680670de0b6b3a7640000810204670de0b6b3a76400001481151715610aa657613ab78f9186670de0b6b3a7640000613aa09202613387565b9161ffff613aae89876132be565b50541690613528565b5190670de0b6b3a7640000820291808304670de0b6b3a76400001490151715610aa65760019281613aeb8f613b0295613387565b808211613b0c5750613afc9161337a565b9761337a565b940192919061393a565b9050613afc9161337a565b909192613b2d60019161ffff6137cc85876132be565b9392910161392a565b50600782018054605f810290808204605f1490151715610aa657613a4393606460099204809355887f41e0549644e0a71255b7ed60362e6a3b2a3d5b8b00a6a7cb1b205f14e2528d0860405180613b9f8789836020909392919361ffff60408201951681520152565b0390a20154604051918252602082015260006040820152867f70081bb37524d6436e9f431af67096c6878e6c5daf03fe827e65b73168db6398606061ffff851693a3613515565b613a439150613515565b5060ff600183015460a01c16600281101561055457600114156138fb565b5090945091929050816040613876565b9592600098949198979592975b600984015461ffff82161015613d085786600052600760205260408060002060009061ffff84168252602052209060ff600583015460101c1680613ceb575b613c7e575b613c799150613515565b613c2b565b613c91600283015460038401549061337a565b91670de0b6b3a7640000613ca8600783015461325f565b04612710018061271011610aa6576009613cda8e6135ae8e612710613cd3613ce497613c799b613277565b0490613277565b920191825461337a565b9055613c6f565b5060ff600183015460a01c16600281101561055457600114613c6a565b509295509296509294388061386f565b89600052600760205260408060002060009061ffff841682526020522060ff600582015460101c1680613dae575b613d5a575b50613d5590613515565b61385c565b670de0b6b3a7640000613d7e60076136a9600285999699015460038601549061337a565b0461271001918261271011610aa657612710613da0613d5594613da794613277565b049061337a565b9390613d4b565b5060ff600182015460a01c16600281101561055457600114613d46565b91929460009791979694965b60098801549061ffff811691821015613efe57613df48289613528565b51151580613ed5575b613e11575b613e0c9150613515565b613dd7565b613e29866135ae613e22858c613528565b5188613277565b87600052600760205260096040806000206000908682526020522001613e5082825461337a565b9055613e5c838a613528565b51670de0b6b3a7640000810290808204670de0b6b3a76400001490151715610aa65760066040613e0c95613e938b613ece95613387565b8c6000526007602052600883806000206000908582526020522001558b6000526007602052816000206000918252602052200191825461337a565b9055613e02565b5086600052600760205260ff600560408060002060009086825260205220015460101c16613dfd565b505094929150959492943861383a565b92915050600543910155565b925038613613565b90506020813d602011613f4c575b81613f3d60209383612e7a565b8101031261031f57513861360a565b3d9150613f30565b6040513d6000823e3d90fd5b60405162461bcd60e51b81526020600482015260126024820152714e6f20656d697373696f6e2073686172657360701b6044820152606490fd5b60405162461bcd60e51b81526020600482015260086024820152674e6f206e6f64657360c01b6044820152606490fd5b60405162461bcd60e51b8152602060048201526009602482015268546f6f206561726c7960b81b6044820152606490fd5b6000546001600160a01b0316330361400f57565b63118cdaa760e01b6000523360045260246000fd5b6040516323b872dd60e01b60208201526001600160a01b039283166024820152929091166044830152606480830193909352918152612ed491614068608483612e7a565b614111565b60026001541461407e576002600155565b633ee5aeb560e01b60005260046000fd5b60405163a9059cbb60e01b60208201526001600160a01b039092166024830152604480830193909352918152612ed491614068606483612e7a565b801561410b5760018101808211610aa65760011c815b8282106140ec57505090565b909150614102826140fd8184613387565b61337a565b60011c906140e0565b50600090565b906000602091828151910182855af115613f54576000513d61416357506001600160a01b0381163b155b6141425750565b635274afe760e01b60009081526001600160a01b0391909116600452602490fd5b6001141561413b56fea2646970667358221220c48c185b9d7d05ad92942fa92b635faea2fbd35562ea85834c9d10b0db35278264736f6c634300081c0033","opcodes":"PUSH1 0xA0 CALLVALUE PUSH2 0x174 JUMPI PUSH1 0x1F PUSH2 0x4332 CODESIZE DUP2 SWAP1 SUB SWAP2 DUP3 ADD PUSH1 0x1F NOT AND DUP4 ADD SWAP2 PUSH1 0x1 PUSH1 0x1 PUSH1 0x40 SHL SUB DUP4 GT DUP5 DUP5 LT OR PUSH2 0x179 JUMPI DUP1 DUP5 SWAP3 PUSH1 0x60 SWAP5 PUSH1 0x40 MSTORE DUP4 CODECOPY DUP2 ADD SUB SLT PUSH2 0x174 JUMPI DUP1 MLOAD PUSH1 0x1 PUSH1 0x1 PUSH1 0xA0 SHL SUB DUP2 AND SWAP2 SWAP1 DUP3 SWAP1 SUB PUSH2 0x174 JUMPI PUSH1 0x40 PUSH1 0x20 DUP3 ADD MLOAD SWAP2 ADD MLOAD SWAP2 CALLER ISZERO PUSH2 0x15E JUMPI PUSH1 0x0 DUP1 SLOAD CALLER PUSH1 0x1 PUSH1 0x1 PUSH1 0xA0 SHL SUB NOT DUP3 AND DUP2 OR DUP4 SSTORE PUSH1 0x40 MLOAD SWAP3 SWAP1 SWAP2 PUSH1 0x1 PUSH1 0x1 PUSH1 0xA0 SHL SUB AND SWAP1 PUSH32 0x8BE0079C531659141344CD1FD0A4F28419497F9722A3DAAFE3B4186F6B6457E0 SWAP1 DUP1 LOG3 PUSH1 0x1 DUP1 SSTORE PUSH1 0x1 PUSH1 0x2 SSTORE PUSH2 0x1F4 PUSH1 0xF SSTORE PUSH2 0x1C20 PUSH1 0x10 SSTORE PUSH2 0x258 PUSH1 0x11 SSTORE PUSH1 0xA PUSH1 0x12 SSTORE DUP2 ISZERO PUSH2 0x12C JUMPI POP PUSH1 0x80 MSTORE PUSH1 0x3 SSTORE PUSH1 0x4 SSTORE PUSH1 0x40 MLOAD PUSH2 0x41A2 SWAP1 DUP2 PUSH2 0x190 DUP3 CODECOPY PUSH1 0x80 MLOAD DUP2 DUP2 DUP2 PUSH2 0x33A ADD MSTORE DUP2 DUP2 PUSH2 0x734 ADD MSTORE DUP2 DUP2 PUSH2 0xB9C ADD MSTORE DUP2 DUP2 PUSH2 0x153E ADD MSTORE DUP2 DUP2 PUSH2 0x1DB0 ADD MSTORE DUP2 DUP2 PUSH2 0x2A56 ADD MSTORE DUP2 DUP2 PUSH2 0x2BF1 ADD MSTORE DUP2 DUP2 PUSH2 0x2D39 ADD MSTORE PUSH2 0x35D1 ADD MSTORE RETURN JUMPDEST PUSH3 0x461BCD PUSH1 0xE5 SHL DUP2 MSTORE PUSH1 0x20 PUSH1 0x4 DUP3 ADD MSTORE PUSH1 0xD PUSH1 0x24 DUP3 ADD MSTORE PUSH13 0x24B73B30B634B2103A37B5B2B7 PUSH1 0x99 SHL PUSH1 0x44 DUP3 ADD MSTORE PUSH1 0x64 SWAP1 REVERT JUMPDEST PUSH4 0x1E4FBDF7 PUSH1 0xE0 SHL PUSH1 0x0 MSTORE PUSH1 0x0 PUSH1 0x4 MSTORE PUSH1 0x24 PUSH1 0x0 REVERT JUMPDEST PUSH1 0x0 DUP1 REVERT JUMPDEST PUSH4 0x4E487B71 PUSH1 0xE0 SHL PUSH1 0x0 MSTORE PUSH1 0x41 PUSH1 0x4 MSTORE PUSH1 0x24 PUSH1 0x0 REVERT INVALID PUSH1 0x80 PUSH1 0x40 MSTORE PUSH1 0x4 CALLDATASIZE LT ISZERO PUSH2 0x12 JUMPI PUSH1 0x0 DUP1 REVERT JUMPDEST PUSH1 0x0 CALLDATALOAD PUSH1 0xE0 SHR DUP1 PUSH4 0x13476085 EQ PUSH2 0x2D16 JUMPI DUP1 PUSH4 0x14511BF7 EQ PUSH2 0x2548 JUMPI DUP1 PUSH4 0x14D59888 EQ PUSH2 0x2CB8 JUMPI DUP1 PUSH4 0x1602AB29 EQ PUSH2 0x2C97 JUMPI DUP1 PUSH4 0x1AEFA1B6 EQ PUSH2 0x2C79 JUMPI DUP1 PUSH4 0x1BA60B70 EQ PUSH2 0x2B07 JUMPI DUP1 PUSH4 0x1CAA9070 EQ PUSH2 0x29C6 JUMPI DUP1 PUSH4 0x2AAA86AA EQ PUSH2 0x27AE JUMPI DUP1 PUSH4 0x2B4B3753 EQ PUSH2 0x2762 JUMPI DUP1 PUSH4 0x393EBBF8 EQ PUSH2 0x2709 JUMPI DUP1 PUSH4 0x3A05EAA9 EQ PUSH2 0x258F JUMPI DUP1 PUSH4 0x3C813394 EQ PUSH2 0x2566 JUMPI DUP1 PUSH4 0x3D5316DD EQ PUSH2 0x2548 JUMPI DUP1 PUSH4 0x43219F03 EQ PUSH2 0x24E7 JUMPI DUP1 PUSH4 0x46A655AF EQ PUSH2 0x24C6 JUMPI DUP1 PUSH4 0x475726F7 EQ PUSH2 0x23F9 JUMPI DUP1 PUSH4 0x4A77AC98 EQ PUSH2 0x23DB JUMPI DUP1 PUSH4 0x5071B891 EQ PUSH2 0x2356 JUMPI DUP1 PUSH4 0x58CA7504 EQ PUSH2 0x22C4 JUMPI DUP1 PUSH4 0x617078FB EQ PUSH2 0x21E7 JUMPI DUP1 PUSH4 0x6B54B309 EQ PUSH2 0x1FE4 JUMPI DUP1 PUSH4 0x710FE5CD EQ PUSH2 0x1FC3 JUMPI DUP1 PUSH4 0x715018A6 EQ PUSH2 0x1F6A JUMPI DUP1 PUSH4 0x7339E881 EQ PUSH2 0x1EEF JUMPI DUP1 PUSH4 0x75E6EE17 EQ PUSH2 0x1A5E JUMPI DUP1 PUSH4 0x8272F0B8 EQ PUSH2 0x1A40 JUMPI DUP1 PUSH4 0x842443DC EQ PUSH2 0x15DD JUMPI DUP1 PUSH4 0x8DA5CB5B EQ PUSH2 0x15B4 JUMPI DUP1 PUSH4 0x9E1611BF EQ PUSH2 0x13E3 JUMPI DUP1 PUSH4 0x9E793787 EQ PUSH2 0x13C5 JUMPI DUP1 PUSH4 0xA4CE91C6 EQ PUSH2 0x1382 JUMPI DUP1 PUSH4 0xB53C39B4 EQ PUSH2 0x133A JUMPI DUP1 PUSH4 0xB81F6E18 EQ PUSH2 0x12ED JUMPI DUP1 PUSH4 0xBD58199A EQ PUSH2 0x12CF JUMPI DUP1 PUSH4 0xBDDEE43C EQ PUSH2 0x12AE JUMPI DUP1 PUSH4 0xC0843EEB EQ PUSH2 0x1267 JUMPI DUP1 PUSH4 0xC113C311 EQ PUSH2 0x1172 JUMPI DUP1 PUSH4 0xC95986A2 EQ PUSH2 0x1154 JUMPI DUP1 PUSH4 0xCC2D54C4 EQ PUSH2 0x1136 JUMPI DUP1 PUSH4 0xD19E2CE8 EQ PUSH2 0x1115 JUMPI DUP1 PUSH4 0xD2D98509 EQ PUSH2 0x104C JUMPI DUP1 PUSH4 0xDEC74F18 EQ PUSH2 0xEC6 JUMPI DUP1 PUSH4 0xDFBEFFFF EQ PUSH2 0xD4E JUMPI DUP1 PUSH4 0xE485C04C EQ PUSH2 0xD24 JUMPI DUP1 PUSH4 0xED23DCBA EQ PUSH2 0xD07 JUMPI DUP1 PUSH4 0xF2FDE38B EQ PUSH2 0xC7E JUMPI DUP1 PUSH4 0xF39E9F4B EQ PUSH2 0x82A JUMPI DUP1 PUSH4 0xF46E1E1F EQ PUSH2 0x698 JUMPI DUP1 PUSH4 0xF6EC03F1 EQ PUSH2 0x67B JUMPI DUP1 PUSH4 0xFA613958 EQ PUSH2 0x369 JUMPI DUP1 PUSH4 0xFC0C546A EQ PUSH2 0x324 JUMPI PUSH4 0xFFFC4BBF EQ PUSH2 0x258 JUMPI PUSH1 0x0 DUP1 REVERT JUMPDEST CALLVALUE PUSH2 0x31F JUMPI PUSH1 0x40 CALLDATASIZE PUSH1 0x3 NOT ADD SLT PUSH2 0x31F JUMPI PUSH1 0x40 PUSH2 0x273 PUSH2 0x2D5F JUMP JUMPDEST PUSH1 0x4 CALLDATALOAD PUSH1 0x0 MSTORE PUSH1 0x8 PUSH1 0x20 MSTORE DUP2 PUSH1 0x0 KECCAK256 PUSH2 0xFFFF PUSH1 0x0 SWAP3 AND DUP3 MSTORE PUSH1 0x20 MSTORE KECCAK256 DUP1 SLOAD PUSH2 0x29A DUP2 PUSH2 0x34E3 JUMP JUMPDEST SWAP1 PUSH2 0x2A4 DUP2 PUSH2 0x34E3 JUMP JUMPDEST SWAP3 PUSH1 0x0 JUMPDEST DUP3 DUP2 LT PUSH2 0x2DD JUMPI PUSH2 0x2CB DUP5 PUSH2 0x2D9 DUP8 PUSH1 0x40 MLOAD SWAP4 DUP5 SWAP4 PUSH1 0x40 DUP6 MSTORE PUSH1 0x40 DUP6 ADD SWAP1 PUSH2 0x302B JUMP JUMPDEST SWAP1 DUP4 DUP3 SUB PUSH1 0x20 DUP6 ADD MSTORE PUSH2 0x302B JUMP JUMPDEST SUB SWAP1 RETURN JUMPDEST DUP1 PUSH2 0xFFFF PUSH2 0x2ED PUSH1 0x1 SWAP4 DUP6 PUSH2 0x32BE JUMP JUMPDEST POP SLOAD AND PUSH2 0x2FA DUP3 DUP8 PUSH2 0x3528 JUMP JUMPDEST MSTORE PUSH2 0xFFFF PUSH2 0x308 DUP3 DUP6 PUSH2 0x32BE JUMP JUMPDEST POP SLOAD PUSH1 0x10 SHR AND PUSH2 0x318 DUP3 DUP9 PUSH2 0x3528 JUMP JUMPDEST MSTORE ADD PUSH2 0x2A8 JUMP JUMPDEST PUSH1 0x0 DUP1 REVERT JUMPDEST CALLVALUE PUSH2 0x31F JUMPI PUSH1 0x0 CALLDATASIZE PUSH1 0x3 NOT ADD SLT PUSH2 0x31F JUMPI PUSH1 0x40 MLOAD PUSH32 0x0 PUSH1 0x1 PUSH1 0x1 PUSH1 0xA0 SHL SUB AND DUP2 MSTORE PUSH1 0x20 SWAP1 RETURN JUMPDEST CALLVALUE PUSH2 0x31F JUMPI PUSH1 0x20 CALLDATASIZE PUSH1 0x3 NOT ADD SLT PUSH2 0x31F JUMPI PUSH1 0x4 CALLDATALOAD DUP1 PUSH1 0x0 MSTORE PUSH1 0x6 PUSH1 0x20 MSTORE PUSH1 0x40 PUSH1 0x0 KECCAK256 PUSH1 0x8 DUP2 ADD SLOAD PUSH2 0x399 DUP2 PUSH2 0x34E3 JUMP JUMPDEST SWAP1 PUSH2 0x3A3 DUP2 PUSH2 0x34E3 JUMP JUMPDEST PUSH2 0x3AC DUP3 PUSH2 0x34E3 JUMP JUMPDEST SWAP3 PUSH2 0x3B6 DUP4 PUSH2 0x34E3 JUMP JUMPDEST SWAP1 PUSH2 0x3C0 DUP5 PUSH2 0x34E3 JUMP JUMPDEST PUSH2 0x3C9 DUP6 PUSH2 0x34E3 JUMP JUMPDEST SWAP3 PUSH2 0x3D3 DUP7 PUSH2 0x34CC JUMP JUMPDEST SWAP7 PUSH1 0x40 MLOAD SWAP8 PUSH2 0x3E2 SWAP1 DUP10 PUSH2 0x2E7A JUMP JUMPDEST DUP7 DUP9 MSTORE PUSH2 0x3EE DUP8 PUSH2 0x34CC JUMP JUMPDEST PUSH1 0x20 DUP10 ADD SWAP11 SWAP1 PUSH1 0x1F NOT ADD CALLDATASIZE DUP13 CALLDATACOPY PUSH2 0x404 DUP9 PUSH2 0x34CC JUMP JUMPDEST SWAP11 PUSH1 0x40 MLOAD SWAP12 PUSH2 0x413 SWAP1 DUP14 PUSH2 0x2E7A JUMP JUMPDEST DUP9 DUP13 MSTORE PUSH2 0x41F DUP10 PUSH2 0x34CC JUMP JUMPDEST PUSH1 0x20 DUP14 ADD SWAP2 SWAP1 PUSH1 0x1F NOT ADD CALLDATASIZE DUP4 CALLDATACOPY DUP10 PUSH1 0x0 SWAP13 DUP14 DUP1 SWAP13 PUSH1 0x9 DUP15 SWAP4 ADD SLOAD PUSH2 0xFFFF DUP2 SWAP5 JUMPDEST AND LT SWAP2 DUP3 PUSH2 0x671 JUMPI JUMPDEST POP POP ISZERO PUSH2 0x578 JUMPI DUP5 PUSH1 0x0 MSTORE PUSH1 0x7 PUSH1 0x20 MSTORE PUSH1 0x40 DUP13 DUP2 PUSH1 0x0 KECCAK256 PUSH2 0xFFFF PUSH1 0x0 SWAP3 AND DUP3 MSTORE PUSH1 0x20 MSTORE KECCAK256 PUSH1 0xFF PUSH1 0x5 DUP3 ADD SLOAD PUSH1 0x10 SHR AND ISZERO PUSH2 0x56A JUMPI SWAP14 PUSH1 0xFF PUSH1 0x2 SWAP16 DUP13 PUSH2 0x50A DUP16 SWAP3 PUSH1 0x9 DUP16 SWAP2 DUP16 DUP16 DUP16 DUP11 SWAP6 PUSH2 0x4A5 DUP8 PUSH1 0x1 DUP1 PUSH1 0xA0 SHL SUB DUP8 SLOAD AND SWAP3 PUSH2 0x3528 JUMP JUMPDEST MSTORE PUSH1 0x1 DUP5 ADD SLOAD SWAP9 PUSH1 0x1 PUSH1 0x1 PUSH1 0xA0 SHL SUB DUP11 AND SWAP1 PUSH2 0x4C2 SWAP1 DUP9 SWAP1 PUSH2 0x3528 JUMP JUMPDEST MSTORE PUSH1 0x2 DUP7 PUSH2 0x4DB PUSH2 0x4E1 SWAP3 DUP8 ADD SLOAD PUSH1 0x3 DUP9 ADD SLOAD SWAP1 PUSH2 0x337A JUMP JUMPDEST SWAP3 PUSH2 0x3528 JUMP JUMPDEST MSTORE PUSH2 0x4F1 DUP6 PUSH1 0x8 DUP6 ADD SLOAD SWAP3 PUSH2 0x3528 JUMP JUMPDEST MSTORE PUSH2 0x501 DUP5 PUSH1 0x6 DUP5 ADD SLOAD SWAP3 PUSH2 0x3528 JUMP JUMPDEST MSTORE ADD SLOAD SWAP3 PUSH2 0x3528 JUMP JUMPDEST MSTORE PUSH1 0xA0 SHR AND SWAP15 DUP16 LT ISZERO PUSH2 0x554 JUMPI DUP16 PUSH2 0xFFFF SWAP16 SWAP2 DUP16 PUSH2 0x53C DUP3 PUSH2 0x542 SWAP5 PUSH2 0x548 SWAP7 PUSH2 0x536 DUP4 PUSH1 0x1 SWAP7 PUSH2 0x3528 JUMP JUMPDEST MSTORE PUSH2 0x3528 JUMP JUMPDEST MSTORE PUSH2 0x3445 JUMP JUMPDEST SWAP13 PUSH2 0x3515 JUMP JUMPDEST SWAP12 DUP3 DUP2 SWAP16 DUP4 SWAP1 DUP16 PUSH2 0x43F JUMP JUMPDEST PUSH4 0x4E487B71 PUSH1 0xE0 SHL PUSH1 0x0 MSTORE PUSH1 0x21 PUSH1 0x4 MSTORE PUSH1 0x24 PUSH1 0x0 REVERT JUMPDEST POP PUSH2 0x548 PUSH2 0xFFFF SWAP15 SWAP13 PUSH2 0x3515 JUMP JUMPDEST POP POP SWAP8 SWAP11 POP SWAP8 POP POP SWAP1 DUP10 SWAP5 SWAP3 SWAP2 SWAP8 SWAP4 SWAP8 PUSH1 0x40 MLOAD SWAP10 DUP11 SWAP10 PUSH2 0x100 DUP12 MSTORE PUSH2 0x100 DUP12 ADD PUSH2 0x5A1 SWAP2 PUSH2 0x2FBA JUMP JUMPDEST DUP11 DUP2 SUB PUSH1 0x20 DUP13 ADD MSTORE PUSH2 0x5B2 SWAP2 PUSH2 0x2FBA JUMP JUMPDEST DUP10 DUP2 SUB PUSH1 0x40 DUP12 ADD MSTORE PUSH2 0x5C3 SWAP2 PUSH2 0x2FF7 JUMP JUMPDEST DUP9 DUP2 SUB PUSH1 0x60 DUP11 ADD MSTORE PUSH2 0x5D4 SWAP2 PUSH2 0x2FF7 JUMP JUMPDEST DUP8 DUP2 SUB PUSH1 0x80 DUP10 ADD MSTORE PUSH2 0x5E5 SWAP2 PUSH2 0x2FF7 JUMP JUMPDEST DUP7 DUP2 SUB PUSH1 0xA0 DUP9 ADD MSTORE PUSH2 0x5F6 SWAP2 PUSH2 0x2FF7 JUMP JUMPDEST SWAP1 DUP6 DUP3 SUB PUSH1 0xC0 DUP8 ADD MSTORE MLOAD SWAP1 DUP2 DUP2 MSTORE PUSH1 0x20 ADD SWAP3 SWAP1 PUSH1 0x0 JUMPDEST DUP2 DUP2 LT PUSH2 0x655 JUMPI POP POP POP PUSH1 0x20 SWAP1 DUP5 DUP4 SUB PUSH1 0xE0 DUP7 ADD MSTORE MLOAD SWAP2 DUP3 DUP2 MSTORE ADD SWAP2 SWAP1 PUSH1 0x0 JUMPDEST DUP2 DUP2 LT PUSH2 0x63A JUMPI POP POP POP SUB SWAP1 RETURN JUMPDEST DUP3 MLOAD ISZERO ISZERO DUP5 MSTORE DUP6 SWAP5 POP PUSH1 0x20 SWAP4 DUP5 ADD SWAP4 SWAP1 SWAP3 ADD SWAP2 PUSH1 0x1 ADD PUSH2 0x62C JUMP JUMPDEST DUP3 MLOAD PUSH1 0xFF AND DUP6 MSTORE DUP8 SWAP7 POP PUSH1 0x20 SWAP5 DUP6 ADD SWAP5 SWAP1 SWAP3 ADD SWAP2 PUSH1 0x1 ADD PUSH2 0x60C JUMP JUMPDEST LT SWAP1 POP DUP3 DUP16 PUSH2 0x448 JUMP JUMPDEST CALLVALUE PUSH2 0x31F JUMPI PUSH1 0x0 CALLDATASIZE PUSH1 0x3 NOT ADD SLT PUSH2 0x31F JUMPI PUSH1 0x20 PUSH1 0x40 MLOAD PUSH2 0x2710 DUP2 MSTORE RETURN JUMPDEST CALLVALUE PUSH2 0x31F JUMPI PUSH2 0x6A6 CALLDATASIZE PUSH2 0x2D70 JUMP JUMPDEST PUSH2 0x6AE PUSH2 0x406D JUMP JUMPDEST DUP1 ISZERO PUSH2 0x7F0 JUMPI DUP3 PUSH1 0x0 MSTORE PUSH1 0x7 PUSH1 0x20 MSTORE PUSH1 0x40 DUP1 PUSH1 0x0 KECCAK256 PUSH1 0x0 SWAP1 PUSH2 0xFFFF DUP6 AND DUP3 MSTORE PUSH1 0x20 MSTORE KECCAK256 PUSH2 0x6E4 PUSH1 0xFF PUSH1 0x5 DUP4 ADD SLOAD PUSH1 0x10 SHR AND PUSH2 0x30EA JUMP JUMPDEST PUSH1 0xFF PUSH1 0x1 DUP3 ADD SLOAD PUSH1 0xA0 SHR AND SWAP2 PUSH1 0x2 DUP4 LT ISZERO PUSH2 0x554 JUMPI PUSH1 0x3 PUSH2 0x7E7 SWAP3 PUSH2 0x72C PUSH1 0x1 PUSH32 0x27AAA6A9479088EDB91E883282880AC91E93B04A07C8A730242E0ED59C54598 SWAP7 EQ PUSH2 0x312D JUMP JUMPDEST PUSH2 0x758 DUP4 ADDRESS CALLER PUSH32 0x0 PUSH2 0x4024 JUMP JUMPDEST PUSH1 0x40 DUP1 MLOAD PUSH1 0x20 DUP2 ADD DUP10 DUP2 MSTORE PUSH1 0xF0 DUP10 SWAP1 SHL PUSH1 0x1 PUSH1 0x1 PUSH1 0xF0 SHL SUB NOT AND SWAP3 DUP3 ADD SWAP3 SWAP1 SWAP3 MSTORE PUSH2 0x790 DUP2 PUSH1 0x42 DUP2 ADD JUMPDEST SUB PUSH1 0x1F NOT DUP2 ADD DUP4 MSTORE DUP3 PUSH2 0x2E7A JUMP JUMPDEST MLOAD SWAP1 KECCAK256 CALLER PUSH1 0x0 MSTORE PUSH1 0xB PUSH1 0x20 MSTORE PUSH1 0x40 PUSH1 0x0 KECCAK256 SWAP1 PUSH1 0x0 MSTORE PUSH1 0x20 MSTORE PUSH1 0x40 PUSH1 0x0 KECCAK256 PUSH2 0x7B8 DUP5 DUP3 SLOAD PUSH2 0x337A JUMP JUMPDEST SWAP1 SSTORE ADD PUSH2 0x7C6 DUP3 DUP3 SLOAD PUSH2 0x337A JUMP JUMPDEST SWAP1 SSTORE PUSH1 0x40 MLOAD SWAP2 DUP3 SWAP2 CALLER SWAP6 DUP4 PUSH1 0x20 SWAP1 SWAP4 SWAP3 SWAP2 SWAP4 PUSH2 0xFFFF PUSH1 0x40 DUP3 ADD SWAP6 AND DUP2 MSTORE ADD MSTORE JUMP JUMPDEST SUB SWAP1 LOG3 PUSH1 0x1 DUP1 SSTORE STOP JUMPDEST PUSH1 0x40 MLOAD PUSH3 0x461BCD PUSH1 0xE5 SHL DUP2 MSTORE PUSH1 0x20 PUSH1 0x4 DUP3 ADD MSTORE PUSH1 0x12 PUSH1 0x24 DUP3 ADD MSTORE PUSH18 0x416D6F756E74206D757374206265203E203 PUSH1 0x74 SHL PUSH1 0x44 DUP3 ADD MSTORE PUSH1 0x64 SWAP1 REVERT JUMPDEST CALLVALUE PUSH2 0x31F JUMPI PUSH1 0x80 CALLDATASIZE PUSH1 0x3 NOT ADD SLT PUSH2 0x31F JUMPI PUSH1 0x4 CALLDATALOAD PUSH1 0x1 PUSH1 0x1 PUSH1 0x40 SHL SUB DUP2 GT PUSH2 0x31F JUMPI PUSH2 0x85A SWAP1 CALLDATASIZE SWAP1 PUSH1 0x4 ADD PUSH2 0x2F8D JUMP JUMPDEST PUSH1 0x64 CALLDATALOAD SWAP1 PUSH1 0x24 CALLDATALOAD PUSH2 0x869 PUSH2 0x406D JUMP JUMPDEST DUP2 ISZERO ISZERO DUP1 PUSH2 0xC73 JUMPI JUMPDEST ISZERO PUSH2 0xC3F JUMPI DUP1 ISZERO ISZERO DUP1 PUSH2 0xC33 JUMPI JUMPDEST ISZERO PUSH2 0xBFB JUMPI DUP3 ISZERO PUSH2 0xBC6 JUMPI PUSH1 0x3 SLOAD DUP1 PUSH2 0xB94 JUMPI JUMPDEST POP PUSH1 0x2 SLOAD SWAP3 PUSH2 0x8A2 DUP5 PUSH2 0x3445 JUMP JUMPDEST PUSH1 0x2 SSTORE PUSH1 0x40 MLOAD SWAP2 PUSH2 0x8B2 DUP4 PUSH2 0x2E5E JUMP JUMPDEST PUSH1 0x1 PUSH1 0x1 PUSH1 0x40 SHL SUB DUP5 GT PUSH2 0xB7E JUMPI PUSH1 0x40 MLOAD PUSH2 0x8D7 PUSH1 0x1F DUP7 ADD PUSH1 0x1F NOT AND PUSH1 0x20 ADD DUP3 PUSH2 0x2E7A JUMP JUMPDEST DUP5 DUP2 MSTORE CALLDATASIZE DUP6 DUP9 ADD GT PUSH2 0x31F JUMPI DUP5 DUP8 PUSH1 0x20 DUP4 ADD CALLDATACOPY PUSH1 0x0 PUSH1 0x20 DUP7 DUP4 ADD ADD MSTORE DUP4 MSTORE CALLER PUSH1 0x20 DUP5 ADD MSTORE PUSH1 0x40 DUP4 ADD MSTORE PUSH2 0x3E8 PUSH1 0x60 DUP4 ADD MSTORE PUSH1 0x80 DUP3 ADD MSTORE NUMBER PUSH1 0xA0 DUP3 ADD MSTORE PUSH1 0x44 CALLDATALOAD PUSH1 0xC0 DUP3 ADD MSTORE PUSH2 0x1C20 PUSH1 0xE0 DUP3 ADD MSTORE PUSH1 0x0 PUSH2 0x100 DUP3 ADD MSTORE PUSH1 0x0 PUSH2 0x120 DUP3 ADD MSTORE PUSH1 0x1 PUSH2 0x140 DUP3 ADD MSTORE TIMESTAMP PUSH2 0x160 DUP3 ADD MSTORE DUP3 PUSH1 0x0 MSTORE PUSH1 0x6 PUSH1 0x20 MSTORE PUSH1 0x40 PUSH1 0x0 KECCAK256 SWAP1 DUP1 MLOAD DUP1 MLOAD SWAP1 PUSH1 0x1 PUSH1 0x1 PUSH1 0x40 SHL SUB DUP3 GT PUSH2 0xB7E JUMPI PUSH2 0x96E DUP5 SLOAD PUSH2 0x2E09 JUMP JUMPDEST PUSH1 0x1F DUP2 GT PUSH2 0xB36 JUMPI JUMPDEST POP PUSH1 0x20 SWAP1 PUSH1 0x1F DUP4 GT PUSH1 0x1 EQ PUSH2 0xAC7 JUMPI SWAP2 DUP1 PUSH1 0xB SWAP5 SWAP3 PUSH2 0x160 SWAP5 PUSH1 0x0 SWAP3 PUSH2 0xABC JUMPI JUMPDEST POP POP DUP2 PUSH1 0x1 SHL SWAP2 PUSH1 0x0 NOT SWAP1 PUSH1 0x3 SHL SHR NOT AND OR DUP5 SSTORE JUMPDEST PUSH1 0x20 DUP2 ADD MLOAD PUSH1 0x1 DUP6 ADD DUP1 SLOAD PUSH1 0x1 PUSH1 0x1 PUSH1 0xA0 SHL SUB SWAP1 SWAP3 AND PUSH1 0x1 PUSH1 0x1 PUSH1 0xA0 SHL SUB NOT SWAP1 SWAP3 AND SWAP2 SWAP1 SWAP2 OR SWAP1 SSTORE PUSH1 0x40 DUP2 ADD MLOAD PUSH1 0x2 DUP6 ADD SSTORE PUSH1 0x60 DUP2 ADD MLOAD PUSH1 0x3 DUP6 ADD SSTORE PUSH1 0x80 DUP2 ADD MLOAD PUSH1 0x4 DUP6 ADD SSTORE PUSH1 0xA0 DUP2 ADD MLOAD PUSH1 0x5 DUP6 ADD SSTORE PUSH1 0xC0 DUP2 ADD MLOAD PUSH1 0x6 DUP6 ADD SSTORE PUSH1 0xE0 DUP2 ADD MLOAD PUSH1 0x7 DUP6 ADD SSTORE PUSH2 0x100 DUP2 ADD MLOAD PUSH1 0x8 DUP6 ADD SSTORE PUSH2 0x120 DUP2 ADD MLOAD PUSH1 0x9 DUP6 ADD SSTORE PUSH2 0x140 DUP2 ADD MLOAD PUSH1 0xA DUP6 ADD DUP1 SLOAD PUSH1 0xFF NOT AND SWAP2 ISZERO ISZERO PUSH1 0xFF AND SWAP2 SWAP1 SWAP2 OR SWAP1 SSTORE ADD MLOAD SWAP2 ADD SSTORE PUSH1 0x5 SLOAD PUSH2 0x3E8 DUP2 ADD DUP1 SWAP2 GT PUSH2 0xAA6 JUMPI PUSH32 0xAA2647B7670DA77B5FC5F9E4056C00263527212D34D09E44EFABD660C88C347A PUSH2 0xA97 PUSH1 0x20 SWAP6 DUP6 SWAP4 PUSH1 0x5 SSTORE PUSH1 0x40 MLOAD SWAP2 DUP3 SWAP2 DUP9 DUP4 MSTORE CALLER SWAP7 DUP10 DUP5 ADD SWAP2 PUSH2 0x33A7 JUMP JUMPDEST SUB SWAP1 LOG3 PUSH1 0x1 DUP1 SSTORE PUSH1 0x40 MLOAD SWAP1 DUP2 MSTORE RETURN JUMPDEST PUSH4 0x4E487B71 PUSH1 0xE0 SHL PUSH1 0x0 MSTORE PUSH1 0x11 PUSH1 0x4 MSTORE PUSH1 0x24 PUSH1 0x0 REVERT JUMPDEST ADD MLOAD SWAP1 POP DUP10 DUP1 PUSH2 0x998 JUMP JUMPDEST SWAP1 DUP5 PUSH1 0x0 MSTORE DUP1 PUSH1 0x0 KECCAK256 SWAP2 PUSH1 0x0 JUMPDEST PUSH1 0x1F NOT DUP6 AND DUP2 LT PUSH2 0xB1E JUMPI POP SWAP3 PUSH1 0xB SWAP5 SWAP3 PUSH1 0x1 SWAP3 PUSH2 0x160 SWAP6 DUP4 PUSH1 0x1F NOT DUP2 AND LT PUSH2 0xB05 JUMPI JUMPDEST POP POP POP DUP2 SHL ADD DUP5 SSTORE PUSH2 0x9AD JUMP JUMPDEST ADD MLOAD PUSH1 0x0 NOT PUSH1 0xF8 DUP5 PUSH1 0x3 SHL AND SHR NOT AND SWAP1 SSTORE DUP10 DUP1 DUP1 PUSH2 0xAF8 JUMP JUMPDEST SWAP2 SWAP3 PUSH1 0x20 PUSH1 0x1 DUP2 SWAP3 DUP7 DUP6 ADD MLOAD DUP2 SSTORE ADD SWAP5 ADD SWAP3 ADD PUSH2 0xAD4 JUMP JUMPDEST DUP5 PUSH1 0x0 MSTORE PUSH1 0x20 PUSH1 0x0 KECCAK256 PUSH1 0x1F DUP5 ADD PUSH1 0x5 SHR DUP2 ADD SWAP2 PUSH1 0x20 DUP6 LT PUSH2 0xB74 JUMPI JUMPDEST PUSH1 0x1F ADD PUSH1 0x5 SHR ADD SWAP1 JUMPDEST DUP2 DUP2 LT PUSH2 0xB68 JUMPI POP PUSH2 0x977 JUMP JUMPDEST PUSH1 0x0 DUP2 SSTORE PUSH1 0x1 ADD PUSH2 0xB5B JUMP JUMPDEST SWAP1 SWAP2 POP DUP2 SWAP1 PUSH2 0xB52 JUMP JUMPDEST PUSH4 0x4E487B71 PUSH1 0xE0 SHL PUSH1 0x0 MSTORE PUSH1 0x41 PUSH1 0x4 MSTORE PUSH1 0x24 PUSH1 0x0 REVERT JUMPDEST PUSH2 0xBC0 SWAP1 ADDRESS CALLER PUSH32 0x0 PUSH2 0x4024 JUMP JUMPDEST DUP5 PUSH2 0x894 JUMP JUMPDEST PUSH1 0x40 MLOAD PUSH3 0x461BCD PUSH1 0xE5 SHL DUP2 MSTORE PUSH1 0x20 PUSH1 0x4 DUP3 ADD MSTORE PUSH1 0xD PUSH1 0x24 DUP3 ADD MSTORE PUSH13 0x496E76616C69642074656D706F PUSH1 0x98 SHL PUSH1 0x44 DUP3 ADD MSTORE PUSH1 0x64 SWAP1 REVERT JUMPDEST PUSH1 0x40 MLOAD PUSH3 0x461BCD PUSH1 0xE5 SHL DUP2 MSTORE PUSH1 0x20 PUSH1 0x4 DUP3 ADD MSTORE PUSH1 0x10 PUSH1 0x24 DUP3 ADD MSTORE PUSH16 0x496E76616C6964206D61784E6F646573 PUSH1 0x80 SHL PUSH1 0x44 DUP3 ADD MSTORE PUSH1 0x64 SWAP1 REVERT JUMPDEST POP PUSH2 0x1000 DUP2 GT ISZERO PUSH2 0x880 JUMP JUMPDEST PUSH1 0x40 MLOAD PUSH3 0x461BCD PUSH1 0xE5 SHL DUP2 MSTORE PUSH1 0x20 PUSH1 0x4 DUP3 ADD MSTORE PUSH1 0xC PUSH1 0x24 DUP3 ADD MSTORE PUSH12 0x496E76616C6964206E616D65 PUSH1 0xA0 SHL PUSH1 0x44 DUP3 ADD MSTORE PUSH1 0x64 SWAP1 REVERT JUMPDEST POP PUSH1 0x40 DUP3 GT ISZERO PUSH2 0x872 JUMP JUMPDEST CALLVALUE PUSH2 0x31F JUMPI PUSH1 0x20 CALLDATASIZE PUSH1 0x3 NOT ADD SLT PUSH2 0x31F JUMPI PUSH2 0xC97 PUSH2 0x2DDB JUMP JUMPDEST PUSH2 0xC9F PUSH2 0x3FFB JUMP JUMPDEST PUSH1 0x1 PUSH1 0x1 PUSH1 0xA0 SHL SUB AND DUP1 ISZERO PUSH2 0xCF1 JUMPI PUSH1 0x0 DUP1 SLOAD PUSH1 0x1 PUSH1 0x1 PUSH1 0xA0 SHL SUB NOT DUP2 AND DUP4 OR DUP3 SSTORE PUSH1 0x1 PUSH1 0x1 PUSH1 0xA0 SHL SUB AND SWAP1 PUSH32 0x8BE0079C531659141344CD1FD0A4F28419497F9722A3DAAFE3B4186F6B6457E0 SWAP1 DUP1 LOG3 STOP JUMPDEST PUSH4 0x1E4FBDF7 PUSH1 0xE0 SHL PUSH1 0x0 MSTORE PUSH1 0x0 PUSH1 0x4 MSTORE PUSH1 0x24 PUSH1 0x0 REVERT JUMPDEST CALLVALUE PUSH2 0x31F JUMPI PUSH1 0x0 CALLDATASIZE PUSH1 0x3 NOT ADD SLT PUSH2 0x31F JUMPI PUSH1 0x20 PUSH1 0x40 MLOAD PUSH2 0x3A98 DUP2 MSTORE RETURN JUMPDEST CALLVALUE PUSH2 0x31F JUMPI PUSH1 0x20 CALLDATASIZE PUSH1 0x3 NOT ADD SLT PUSH2 0x31F JUMPI PUSH2 0xD3D PUSH2 0x406D JUMP JUMPDEST PUSH2 0xD48 PUSH1 0x4 CALLDATALOAD PUSH2 0x353C JUMP JUMPDEST PUSH1 0x1 DUP1 SSTORE STOP JUMPDEST CALLVALUE PUSH2 0x31F JUMPI PUSH1 0x40 CALLDATASIZE PUSH1 0x3 NOT ADD SLT PUSH2 0x31F JUMPI PUSH1 0x4 CALLDATALOAD PUSH1 0x24 CALLDATALOAD SWAP1 DUP1 PUSH1 0x0 MSTORE PUSH1 0x9 PUSH1 0x20 MSTORE PUSH1 0x40 PUSH1 0x0 KECCAK256 PUSH1 0x1 DUP1 PUSH1 0xA0 SHL SUB CALLER AND PUSH1 0x0 MSTORE PUSH1 0x20 MSTORE PUSH2 0xD94 PUSH1 0xFF PUSH1 0x40 PUSH1 0x0 KECCAK256 SLOAD AND PUSH2 0x33C8 JUMP JUMPDEST DUP1 PUSH1 0x0 MSTORE PUSH1 0xA PUSH1 0x20 MSTORE PUSH1 0x40 PUSH1 0x0 KECCAK256 PUSH1 0x1 DUP1 PUSH1 0xA0 SHL SUB CALLER AND PUSH1 0x0 MSTORE PUSH1 0x20 MSTORE PUSH2 0xFFFF PUSH1 0x40 PUSH1 0x0 KECCAK256 SLOAD AND SWAP2 DUP2 PUSH1 0x0 MSTORE PUSH1 0x7 PUSH1 0x20 MSTORE PUSH1 0x40 PUSH1 0x0 KECCAK256 PUSH2 0xFFFF DUP5 AND PUSH1 0x0 MSTORE PUSH1 0x20 MSTORE PUSH1 0xFF PUSH1 0x1 PUSH1 0x40 PUSH1 0x0 KECCAK256 ADD SLOAD PUSH1 0xA0 SHR AND PUSH1 0x2 DUP2 LT ISZERO PUSH2 0x554 JUMPI PUSH1 0x1 PUSH2 0xDF9 SWAP2 EQ PUSH2 0x312D JUMP JUMPDEST DUP2 PUSH1 0x0 MSTORE PUSH1 0x7 PUSH1 0x20 MSTORE PUSH1 0x40 PUSH1 0x0 KECCAK256 PUSH2 0xFFFF DUP5 AND PUSH1 0x0 MSTORE PUSH1 0x20 MSTORE PUSH2 0xE29 PUSH1 0xFF PUSH1 0x5 PUSH1 0x40 PUSH1 0x0 KECCAK256 ADD SLOAD PUSH1 0x10 SHR AND PUSH2 0x3341 JUMP JUMPDEST PUSH1 0x40 MLOAD PUSH1 0x60 DUP2 ADD SWAP2 DUP2 DUP4 LT PUSH1 0x1 PUSH1 0x1 PUSH1 0x40 SHL SUB DUP5 GT OR PUSH2 0xB7E JUMPI PUSH2 0xEBD PUSH1 0x20 SWAP3 PUSH32 0x9D7068CBD38A9652B8B283A496928BCF42DD01FB68865E13F7F279256529175D SWAP5 PUSH1 0x40 MSTORE DUP3 DUP2 MSTORE PUSH1 0x2 DUP5 DUP3 ADD NUMBER DUP2 MSTORE PUSH1 0x40 DUP4 ADD SWAP1 PUSH1 0x0 DUP3 MSTORE DUP9 PUSH1 0x0 MSTORE PUSH1 0xC DUP8 MSTORE PUSH1 0x40 DUP1 PUSH1 0x0 KECCAK256 PUSH1 0x0 SWAP1 PUSH2 0xFFFF DUP14 AND DUP3 MSTORE DUP10 MSTORE KECCAK256 SWAP4 MLOAD DUP5 SSTORE MLOAD PUSH1 0x1 DUP5 ADD SSTORE MLOAD ISZERO ISZERO SWAP2 ADD SWAP1 PUSH1 0xFF DUP1 NOT DUP4 SLOAD AND SWAP2 ISZERO ISZERO AND OR SWAP1 SSTORE JUMP JUMPDEST PUSH1 0x40 MLOAD SWAP1 DUP2 MSTORE LOG3 STOP JUMPDEST CALLVALUE PUSH2 0x31F JUMPI PUSH1 0xA0 CALLDATASIZE PUSH1 0x3 NOT ADD SLT PUSH2 0x31F JUMPI PUSH1 0x4 CALLDATALOAD DUP1 PUSH1 0x0 MSTORE PUSH1 0x6 PUSH1 0x20 MSTORE PUSH1 0x40 PUSH1 0x0 KECCAK256 PUSH2 0xEF8 PUSH1 0xFF PUSH1 0xA DUP4 ADD SLOAD AND PUSH2 0x3405 JUMP JUMPDEST PUSH1 0x1 DUP2 ADD SLOAD PUSH1 0x1 PUSH1 0x1 PUSH1 0xA0 SHL SUB AND CALLER EQ DUP1 ISZERO PUSH2 0x1038 JUMPI JUMPDEST PUSH2 0xF18 SWAP1 PUSH2 0x348F JUMP JUMPDEST PUSH1 0x24 CALLDATALOAD PUSH1 0x2 DUP3 ADD SSTORE PUSH1 0x44 CALLDATALOAD PUSH1 0x6 DUP3 ADD SSTORE PUSH1 0x64 CALLDATALOAD PUSH1 0x4 DUP3 ADD SSTORE PUSH1 0x84 CALLDATALOAD PUSH1 0x7 DUP3 ADD SSTORE PUSH1 0x40 MLOAD SWAP1 PUSH1 0x20 DUP3 MSTORE PUSH1 0x0 SWAP1 DUP1 SLOAD SWAP1 PUSH2 0xF4F DUP3 PUSH2 0x2E09 JUMP JUMPDEST SWAP2 DUP3 PUSH1 0x20 DUP7 ADD MSTORE PUSH1 0x1 DUP2 AND SWAP1 DUP2 PUSH1 0x0 EQ PUSH2 0xFF5 JUMPI POP PUSH1 0x1 EQ PUSH2 0xF95 JUMPI JUMPDEST DUP5 PUSH32 0x1F24371ED79AF1971A700F92176A2CB13437EF4DBD2C6C6B9F2AD8F5FC3E8F94 DUP6 DUP6 SUB DUP7 LOG2 STOP JUMPDEST PUSH1 0x0 SWAP1 DUP2 MSTORE PUSH1 0x20 DUP2 KECCAK256 SWAP4 SWAP3 POP SWAP1 JUMPDEST DUP1 DUP3 LT PUSH2 0xFDA JUMPI POP SWAP1 SWAP2 POP DUP2 ADD PUSH1 0x40 ADD DUP2 PUSH32 0x1F24371ED79AF1971A700F92176A2CB13437EF4DBD2C6C6B9F2AD8F5FC3E8F94 PUSH2 0xF6C JUMP JUMPDEST SWAP2 SWAP3 PUSH1 0x1 DUP2 PUSH1 0x20 SWAP3 SLOAD PUSH1 0x40 DUP6 DUP9 ADD ADD MSTORE ADD SWAP2 ADD SWAP1 SWAP3 SWAP2 PUSH2 0xFA3 JUMP JUMPDEST DUP6 SWAP5 POP PUSH1 0x40 SWAP3 POP PUSH32 0x1F24371ED79AF1971A700F92176A2CB13437EF4DBD2C6C6B9F2AD8F5FC3E8F94 SWAP6 SWAP4 SWAP2 POP PUSH1 0xFF NOT AND DUP3 DUP5 ADD MSTORE ISZERO ISZERO PUSH1 0x5 SHL DUP3 ADD ADD SWAP2 SWAP3 PUSH2 0xF6C JUMP JUMPDEST POP PUSH1 0x0 SLOAD PUSH1 0x1 PUSH1 0x1 PUSH1 0xA0 SHL SUB AND CALLER EQ PUSH2 0xF0F JUMP JUMPDEST CALLVALUE PUSH2 0x31F JUMPI PUSH1 0x40 CALLDATASIZE PUSH1 0x3 NOT ADD SLT PUSH2 0x31F JUMPI PUSH1 0x40 PUSH2 0x1067 PUSH2 0x2D5F JUMP JUMPDEST PUSH1 0x4 CALLDATALOAD PUSH1 0x0 MSTORE PUSH1 0x7 PUSH1 0x20 MSTORE DUP2 PUSH1 0x0 KECCAK256 PUSH2 0xFFFF PUSH1 0x0 SWAP3 AND DUP3 MSTORE PUSH1 0x20 MSTORE KECCAK256 PUSH1 0x1 DUP1 PUSH1 0xA0 SHL SUB DUP2 SLOAD AND PUSH1 0x1 DUP3 ADD SLOAD PUSH1 0xFF DUP2 PUSH1 0xA0 SHR AND SWAP3 PUSH1 0x2 DUP5 LT ISZERO PUSH2 0x554 JUMPI PUSH2 0x140 SWAP4 PUSH1 0x2 DUP3 ADD SLOAD PUSH1 0x3 DUP4 ADD SLOAD PUSH1 0x8 DUP5 ADD SLOAD SWAP1 PUSH1 0x6 DUP6 ADD SLOAD SWAP3 PUSH1 0x9 DUP7 ADD SLOAD SWAP5 PUSH1 0xFF PUSH1 0x5 PUSH1 0x7 DUP10 ADD SLOAD SWAP9 ADD SLOAD PUSH1 0x10 SHR AND SWAP8 PUSH1 0x40 MLOAD SWAP10 DUP11 MSTORE PUSH1 0x1 DUP1 PUSH1 0xA0 SHL SUB AND PUSH1 0x20 DUP11 ADD MSTORE PUSH1 0x40 DUP10 ADD MSTORE PUSH1 0x60 DUP9 ADD MSTORE PUSH1 0x80 DUP8 ADD MSTORE PUSH1 0xA0 DUP7 ADD MSTORE PUSH1 0xC0 DUP6 ADD MSTORE PUSH1 0xE0 DUP5 ADD MSTORE PUSH2 0x100 DUP4 ADD MSTORE ISZERO ISZERO PUSH2 0x120 DUP3 ADD MSTORE RETURN JUMPDEST CALLVALUE PUSH2 0x31F JUMPI PUSH1 0x20 CALLDATASIZE PUSH1 0x3 NOT ADD SLT PUSH2 0x31F JUMPI PUSH2 0x112E PUSH2 0x3FFB JUMP JUMPDEST PUSH1 0x4 CALLDATALOAD PUSH1 0x11 SSTORE STOP JUMPDEST CALLVALUE PUSH2 0x31F JUMPI PUSH1 0x0 CALLDATASIZE PUSH1 0x3 NOT ADD SLT PUSH2 0x31F JUMPI PUSH1 0x20 PUSH1 0x12 SLOAD PUSH1 0x40 MLOAD SWAP1 DUP2 MSTORE RETURN JUMPDEST CALLVALUE PUSH2 0x31F JUMPI PUSH1 0x0 CALLDATASIZE PUSH1 0x3 NOT ADD SLT PUSH2 0x31F JUMPI PUSH1 0x20 PUSH1 0x4 SLOAD PUSH1 0x40 MLOAD SWAP1 DUP2 MSTORE RETURN JUMPDEST CALLVALUE PUSH2 0x31F JUMPI PUSH1 0x40 CALLDATASIZE PUSH1 0x3 NOT ADD SLT PUSH2 0x31F JUMPI PUSH1 0x40 PUSH2 0x118D PUSH2 0x2D5F JUMP JUMPDEST PUSH1 0x4 CALLDATALOAD PUSH1 0x0 MSTORE PUSH1 0x7 PUSH1 0x20 MSTORE DUP2 PUSH1 0x0 KECCAK256 PUSH2 0xFFFF PUSH1 0x0 SWAP3 AND DUP3 MSTORE PUSH1 0x20 MSTORE KECCAK256 PUSH1 0xFF PUSH1 0x1 DUP3 ADD SLOAD PUSH1 0xA0 SHR AND PUSH1 0x2 DUP2 LT ISZERO PUSH2 0x554 JUMPI PUSH1 0x1 PUSH2 0x11C9 SWAP2 EQ PUSH2 0x312D JUMP JUMPDEST PUSH1 0x2 DUP2 ADD SLOAD PUSH1 0x3 DUP3 ADD SLOAD PUSH2 0x11E5 PUSH2 0x11E0 DUP3 DUP5 PUSH2 0x337A JUMP JUMPDEST PUSH2 0x40CA JUMP JUMPDEST SWAP3 PUSH1 0x7 DUP2 ADD SLOAD SWAP3 PUSH8 0xDE0B6B3A7640000 PUSH2 0x11FE DUP6 PUSH2 0x325F JUMP JUMPDEST DIV PUSH2 0x2710 ADD DUP1 PUSH2 0x2710 GT PUSH2 0xAA6 JUMPI PUSH2 0x121C PUSH2 0x2710 SWAP2 PUSH2 0x100 SWAP8 PUSH2 0x3277 JUMP JUMPDEST DIV PUSH1 0x8 DUP4 ADD SLOAD SWAP4 PUSH1 0x9 DUP5 ADD SLOAD SWAP3 PUSH1 0xFF PUSH1 0x5 PUSH1 0x6 DUP8 ADD SLOAD SWAP7 ADD SLOAD PUSH1 0x10 SHR AND SWAP6 PUSH1 0x40 MLOAD SWAP8 DUP9 MSTORE PUSH1 0x20 DUP9 ADD MSTORE PUSH1 0x40 DUP8 ADD MSTORE PUSH1 0x60 DUP7 ADD MSTORE PUSH1 0x80 DUP6 ADD MSTORE PUSH1 0xA0 DUP5 ADD MSTORE PUSH1 0xC0 DUP4 ADD MSTORE ISZERO ISZERO PUSH1 0xE0 DUP3 ADD MSTORE RETURN JUMPDEST CALLVALUE PUSH2 0x31F JUMPI PUSH1 0x40 CALLDATASIZE PUSH1 0x3 NOT ADD SLT PUSH2 0x31F JUMPI PUSH2 0x1280 PUSH2 0x2D5F JUMP JUMPDEST PUSH1 0x4 CALLDATALOAD PUSH1 0x0 MSTORE PUSH1 0x7 PUSH1 0x20 MSTORE PUSH2 0xFFFF PUSH1 0x40 PUSH1 0x0 KECCAK256 SWAP2 AND PUSH1 0x0 MSTORE PUSH1 0x20 MSTORE PUSH1 0x20 PUSH1 0x7 PUSH1 0x40 PUSH1 0x0 KECCAK256 ADD SLOAD PUSH1 0x40 MLOAD SWAP1 DUP2 MSTORE RETURN JUMPDEST CALLVALUE PUSH2 0x31F JUMPI PUSH1 0x20 CALLDATASIZE PUSH1 0x3 NOT ADD SLT PUSH2 0x31F JUMPI PUSH2 0x12C7 PUSH2 0x3FFB JUMP JUMPDEST PUSH1 0x4 CALLDATALOAD PUSH1 0x10 SSTORE STOP JUMPDEST CALLVALUE PUSH2 0x31F JUMPI PUSH1 0x0 CALLDATASIZE PUSH1 0x3 NOT ADD SLT PUSH2 0x31F JUMPI PUSH1 0x20 PUSH1 0xF SLOAD PUSH1 0x40 MLOAD SWAP1 DUP2 MSTORE RETURN JUMPDEST CALLVALUE PUSH2 0x31F JUMPI PUSH1 0x40 CALLDATASIZE PUSH1 0x3 NOT ADD SLT PUSH2 0x31F JUMPI PUSH2 0x1306 PUSH2 0x2DC5 JUMP JUMPDEST PUSH1 0x4 CALLDATALOAD PUSH1 0x0 MSTORE PUSH1 0x9 PUSH1 0x20 MSTORE PUSH1 0x40 PUSH1 0x0 KECCAK256 SWAP1 PUSH1 0x1 DUP1 PUSH1 0xA0 SHL SUB AND PUSH1 0x0 MSTORE PUSH1 0x20 MSTORE PUSH1 0x20 PUSH1 0xFF PUSH1 0x40 PUSH1 0x0 KECCAK256 SLOAD AND PUSH1 0x40 MLOAD SWAP1 ISZERO ISZERO DUP2 MSTORE RETURN JUMPDEST CALLVALUE PUSH2 0x31F JUMPI PUSH1 0x40 CALLDATASIZE PUSH1 0x3 NOT ADD SLT PUSH2 0x31F JUMPI PUSH1 0x1 PUSH1 0x1 PUSH1 0xA0 SHL SUB PUSH2 0x135B PUSH2 0x2DDB JUMP JUMPDEST AND PUSH1 0x0 MSTORE PUSH1 0xB PUSH1 0x20 MSTORE PUSH1 0x40 PUSH1 0x0 KECCAK256 PUSH1 0x24 CALLDATALOAD PUSH1 0x0 MSTORE PUSH1 0x20 MSTORE PUSH1 0x20 PUSH1 0x40 PUSH1 0x0 KECCAK256 SLOAD PUSH1 0x40 MLOAD SWAP1 DUP2 MSTORE RETURN JUMPDEST CALLVALUE PUSH2 0x31F JUMPI PUSH1 0x20 CALLDATASIZE PUSH1 0x3 NOT ADD SLT PUSH2 0x31F JUMPI PUSH2 0x139B PUSH2 0x2DDB JUMP JUMPDEST PUSH2 0x13A3 PUSH2 0x3FFB JUMP JUMPDEST PUSH1 0xE DUP1 SLOAD PUSH1 0x1 PUSH1 0x1 PUSH1 0xA0 SHL SUB NOT AND PUSH1 0x1 PUSH1 0x1 PUSH1 0xA0 SHL SUB SWAP3 SWAP1 SWAP3 AND SWAP2 SWAP1 SWAP2 OR SWAP1 SSTORE STOP JUMPDEST CALLVALUE PUSH2 0x31F JUMPI PUSH1 0x0 CALLDATASIZE PUSH1 0x3 NOT ADD SLT PUSH2 0x31F JUMPI PUSH1 0x20 PUSH1 0x3 SLOAD PUSH1 0x40 MLOAD SWAP1 DUP2 MSTORE RETURN JUMPDEST CALLVALUE PUSH2 0x31F JUMPI PUSH1 0x40 CALLDATASIZE PUSH1 0x3 NOT ADD SLT PUSH2 0x31F JUMPI PUSH1 0x4 CALLDATALOAD PUSH1 0x40 PUSH2 0x1401 PUSH2 0x2D5F JUMP JUMPDEST PUSH2 0x1409 PUSH2 0x406D JUMP JUMPDEST DUP3 PUSH1 0x0 MSTORE PUSH1 0x7 PUSH1 0x20 MSTORE DUP2 PUSH1 0x0 KECCAK256 PUSH2 0xFFFF PUSH1 0x0 SWAP3 AND DUP3 MSTORE PUSH1 0x20 MSTORE KECCAK256 PUSH1 0x5 DUP2 ADD SWAP2 DUP3 SLOAD SWAP3 PUSH2 0x143A PUSH1 0xFF DUP6 PUSH1 0x10 SHR AND PUSH2 0x3341 JUMP JUMPDEST PUSH1 0x1 DUP4 ADD SWAP4 PUSH1 0x1 DUP1 PUSH1 0xA0 SHL SUB DUP6 SLOAD AND CALLER EQ DUP1 ISZERO PUSH2 0x15A0 JUMPI JUMPDEST PUSH2 0x145B SWAP1 PUSH2 0x348F JUMP JUMPDEST PUSH2 0x147B PUSH1 0x4 DUP6 ADD SLOAD DUP5 PUSH1 0x0 MSTORE PUSH1 0x6 PUSH1 0x20 MSTORE PUSH1 0x7 PUSH1 0x40 PUSH1 0x0 KECCAK256 ADD SLOAD SWAP1 PUSH2 0x337A JUMP JUMPDEST NUMBER LT PUSH2 0x1569 JUMPI PUSH3 0xFF0000 NOT AND SWAP1 SSTORE PUSH1 0x0 DUP2 DUP2 MSTORE PUSH1 0x9 PUSH1 0x20 SWAP1 DUP2 MSTORE PUSH1 0x40 DUP1 DUP4 KECCAK256 DUP6 SLOAD PUSH1 0x1 PUSH1 0x1 PUSH1 0xA0 SHL SUB SWAP1 DUP2 AND DUP6 MSTORE SWAP1 DUP4 MSTORE DUP2 DUP5 KECCAK256 DUP1 SLOAD PUSH1 0xFF NOT AND SWAP1 SSTORE DUP5 DUP5 MSTORE PUSH1 0xD DUP4 MSTORE DUP2 DUP5 KECCAK256 DUP8 SLOAD SWAP2 DUP3 AND DUP6 MSTORE SWAP1 SWAP3 MSTORE SWAP1 SWAP2 KECCAK256 PUSH2 0x14DE SWAP2 PUSH1 0xA0 SHR PUSH1 0xFF AND SWAP1 PUSH2 0x2DF1 JUMP JUMPDEST PUSH1 0xFF NOT DUP2 SLOAD AND SWAP1 SSTORE PUSH1 0x0 MSTORE PUSH1 0x6 PUSH1 0x20 MSTORE PUSH1 0x8 PUSH1 0x40 PUSH1 0x0 KECCAK256 ADD DUP1 SLOAD DUP1 ISZERO PUSH2 0xAA6 JUMPI PUSH1 0x0 NOT ADD SWAP1 SSTORE PUSH1 0x0 PUSH1 0x2 DUP3 ADD SWAP2 DUP2 PUSH2 0x151E PUSH1 0x9 DUP6 SLOAD SWAP4 ADD SWAP3 DUP4 SLOAD SWAP1 PUSH2 0x337A JUMP JUMPDEST SWAP4 SSTORE SSTORE DUP1 PUSH2 0x152C JUMPI PUSH1 0x1 DUP1 SSTORE STOP JUMPDEST SWAP1 SLOAD PUSH2 0x1562 SWAP2 SWAP1 PUSH1 0x1 PUSH1 0x1 PUSH1 0xA0 SHL SUB AND PUSH32 0x0 PUSH2 0x408F JUMP JUMPDEST DUP1 DUP1 PUSH2 0xD48 JUMP JUMPDEST PUSH1 0x40 MLOAD PUSH3 0x461BCD PUSH1 0xE5 SHL DUP2 MSTORE PUSH1 0x20 PUSH1 0x4 DUP3 ADD MSTORE PUSH1 0xF PUSH1 0x24 DUP3 ADD MSTORE PUSH15 0x125B5B5D5B9A5D1E481C195C9A5BD9 PUSH1 0x8A SHL PUSH1 0x44 DUP3 ADD MSTORE PUSH1 0x64 SWAP1 REVERT JUMPDEST POP PUSH1 0x0 SLOAD PUSH1 0x1 PUSH1 0x1 PUSH1 0xA0 SHL SUB AND CALLER EQ PUSH2 0x1452 JUMP JUMPDEST CALLVALUE PUSH2 0x31F JUMPI PUSH1 0x0 CALLDATASIZE PUSH1 0x3 NOT ADD SLT PUSH2 0x31F JUMPI PUSH1 0x0 SLOAD PUSH1 0x40 MLOAD PUSH1 0x1 PUSH1 0x1 PUSH1 0xA0 SHL SUB SWAP1 SWAP2 AND DUP2 MSTORE PUSH1 0x20 SWAP1 RETURN JUMPDEST CALLVALUE PUSH2 0x31F JUMPI PUSH1 0x80 CALLDATASIZE PUSH1 0x3 NOT ADD SLT PUSH2 0x31F JUMPI PUSH1 0x4 CALLDATALOAD PUSH1 0x24 CALLDATALOAD PUSH1 0x1 PUSH1 0x1 PUSH1 0x40 SHL SUB DUP2 GT PUSH2 0x31F JUMPI PUSH2 0x1610 SWAP1 CALLDATASIZE SWAP1 PUSH1 0x4 ADD PUSH2 0x2D95 JUMP JUMPDEST PUSH1 0x44 SWAP3 SWAP2 SWAP3 CALLDATALOAD PUSH1 0x1 PUSH1 0x1 PUSH1 0x40 SHL SUB DUP2 GT PUSH2 0x31F JUMPI PUSH2 0x1632 SWAP1 CALLDATASIZE SWAP1 PUSH1 0x4 ADD PUSH2 0x2D95 JUMP JUMPDEST PUSH2 0x1640 DUP2 DUP5 SWAP7 SWAP4 SWAP7 EQ PUSH2 0x3070 JUMP JUMPDEST PUSH2 0x164B DUP4 ISZERO ISZERO PUSH2 0x30AE JUMP JUMPDEST PUSH1 0x0 DUP5 DUP2 MSTORE PUSH1 0x9 PUSH1 0x20 SWAP1 DUP2 MSTORE PUSH1 0x40 DUP1 DUP4 KECCAK256 CALLER DUP5 MSTORE SWAP1 SWAP2 MSTORE SWAP1 KECCAK256 SLOAD PUSH2 0x1671 SWAP1 PUSH1 0xFF AND PUSH2 0x33C8 JUMP JUMPDEST DUP4 PUSH1 0x0 MSTORE PUSH1 0xA PUSH1 0x20 MSTORE PUSH1 0x40 PUSH1 0x0 KECCAK256 PUSH1 0x1 DUP1 PUSH1 0xA0 SHL SUB CALLER AND PUSH1 0x0 MSTORE PUSH1 0x20 MSTORE PUSH2 0xFFFF PUSH1 0x40 PUSH1 0x0 KECCAK256 SLOAD AND SWAP5 DUP5 PUSH1 0x0 MSTORE PUSH1 0x7 PUSH1 0x20 MSTORE PUSH1 0x40 DUP1 PUSH1 0x0 KECCAK256 PUSH1 0x0 SWAP1 PUSH2 0xFFFF DUP10 AND DUP3 MSTORE PUSH1 0x20 MSTORE KECCAK256 SWAP3 PUSH1 0xFF PUSH1 0x1 DUP6 ADD SLOAD PUSH1 0xA0 SHR AND PUSH1 0x2 DUP2 LT ISZERO PUSH2 0x554 JUMPI PUSH1 0x1 PUSH2 0x16D7 SWAP2 EQ PUSH2 0x312D JUMP JUMPDEST PUSH2 0x16EA PUSH1 0xFF PUSH1 0x5 DUP7 ADD SLOAD PUSH1 0x10 SHR AND PUSH2 0x3341 JUMP JUMPDEST DUP6 PUSH1 0x0 MSTORE PUSH1 0xC PUSH1 0x20 MSTORE PUSH1 0x40 DUP1 PUSH1 0x0 KECCAK256 PUSH1 0x0 SWAP1 PUSH2 0xFFFF DUP11 AND DUP3 MSTORE PUSH1 0x20 MSTORE KECCAK256 DUP1 SLOAD SWAP1 DUP2 ISZERO PUSH2 0x1A09 JUMPI PUSH1 0x2 DUP2 ADD SWAP2 DUP3 SLOAD SWAP2 PUSH1 0xFF DUP4 AND PUSH2 0x19D1 JUMPI PUSH1 0x1 ADD SLOAD PUSH2 0x1730 PUSH1 0x12 SLOAD DUP3 PUSH2 0x337A JUMP JUMPDEST NUMBER LT PUSH2 0x1996 JUMPI PUSH1 0x11 SLOAD PUSH2 0x1742 SWAP2 PUSH2 0x337A JUMP JUMPDEST NUMBER GT PUSH2 0x1959 JUMPI DUP8 PUSH1 0x40 MLOAD PUSH2 0x177A PUSH1 0x20 DUP3 PUSH2 0x176A PUSH2 0x1763 DUP4 DUP4 ADD DUP1 SWAP8 DUP13 PUSH2 0x3454 JUMP JUMPDEST DUP13 DUP13 PUSH2 0x3454 JUMP JUMPDEST PUSH1 0x64 CALLDATALOAD DUP2 MSTORE SUB DUP1 DUP5 MSTORE ADD DUP3 PUSH2 0x2E7A JUMP JUMPDEST MLOAD SWAP1 KECCAK256 SUB PUSH2 0x1924 JUMPI PUSH1 0xFF NOT AND PUSH1 0x1 OR SWAP1 SSTORE PUSH1 0x0 JUMPDEST DUP6 DUP2 LT PUSH2 0x1868 JUMPI POP DUP6 PUSH1 0x0 MSTORE PUSH1 0x8 PUSH1 0x20 MSTORE PUSH1 0x40 PUSH1 0x0 KECCAK256 PUSH2 0xFFFF DUP9 AND PUSH1 0x0 MSTORE PUSH1 0x20 MSTORE PUSH2 0x17BC PUSH1 0x40 PUSH1 0x0 KECCAK256 PUSH2 0x328A JUMP JUMPDEST PUSH2 0xFFFF DUP8 AND SWAP3 PUSH1 0x0 JUMPDEST DUP7 DUP2 LT PUSH2 0x1802 JUMPI DUP9 DUP9 PUSH32 0xFBA62AAD89C6C437BF733319E2BB0EE93CB42499851F7A0B45088B25F3A2C493 PUSH1 0x20 DUP11 DUP11 PUSH1 0x4 NUMBER SWAP2 ADD SSTORE PUSH1 0x40 MLOAD SWAP1 DUP2 MSTORE LOG3 STOP JUMPDEST PUSH1 0x1 SWAP1 DUP9 PUSH1 0x0 MSTORE PUSH1 0x8 PUSH1 0x20 MSTORE PUSH2 0x1862 PUSH1 0x40 DUP1 PUSH1 0x0 KECCAK256 PUSH1 0x0 SWAP1 DUP10 DUP3 MSTORE PUSH1 0x20 MSTORE KECCAK256 PUSH2 0x1834 PUSH2 0x182F DUP5 DUP13 DUP10 PUSH2 0x316B JUMP JUMPDEST PUSH2 0x3191 JUMP JUMPDEST SWAP1 PUSH2 0xFFFF PUSH2 0x1846 PUSH2 0x182F DUP7 DUP10 DUP13 PUSH2 0x316B JUMP JUMPDEST DUP2 PUSH1 0x40 MLOAD SWAP5 PUSH2 0x1854 DUP7 PUSH2 0x2E43 JUMP JUMPDEST AND DUP5 MSTORE AND PUSH1 0x20 DUP4 ADD MSTORE PUSH2 0x32D6 JUMP JUMPDEST ADD PUSH2 0x17C5 JUMP JUMPDEST PUSH2 0x1896 PUSH2 0x1879 PUSH2 0x182F DUP4 DUP10 DUP7 PUSH2 0x316B JUMP JUMPDEST DUP9 PUSH1 0x0 MSTORE PUSH1 0x6 PUSH1 0x20 MSTORE PUSH2 0xFFFF PUSH1 0x9 PUSH1 0x40 PUSH1 0x0 KECCAK256 ADD SLOAD SWAP2 AND LT PUSH2 0x31A0 JUMP JUMPDEST DUP7 PUSH1 0x0 MSTORE PUSH1 0x7 PUSH1 0x20 MSTORE PUSH2 0x18D3 PUSH1 0xFF PUSH1 0x5 PUSH1 0x40 DUP1 PUSH1 0x0 KECCAK256 PUSH2 0x18BA PUSH2 0x182F DUP8 DUP14 DUP11 PUSH2 0x316B JUMP JUMPDEST SWAP1 PUSH2 0xFFFF PUSH1 0x0 SWAP3 AND DUP3 MSTORE PUSH1 0x20 MSTORE KECCAK256 ADD SLOAD PUSH1 0x10 SHR AND PUSH2 0x31DA JUMP JUMPDEST DUP7 PUSH1 0x0 MSTORE PUSH1 0x7 PUSH1 0x20 MSTORE PUSH1 0xFF PUSH1 0x1 PUSH1 0x40 DUP1 PUSH1 0x0 KECCAK256 PUSH2 0x18F4 PUSH2 0x182F DUP7 DUP13 DUP10 PUSH2 0x316B JUMP JUMPDEST SWAP1 PUSH2 0xFFFF PUSH1 0x0 SWAP3 AND DUP3 MSTORE PUSH1 0x20 MSTORE KECCAK256 ADD SLOAD PUSH1 0xA0 SHR AND SWAP1 PUSH1 0x2 DUP3 LT ISZERO PUSH2 0x554 JUMPI PUSH2 0x191E PUSH1 0x1 SWAP3 ISZERO PUSH2 0x321A JUMP JUMPDEST ADD PUSH2 0x178E JUMP JUMPDEST PUSH1 0x40 MLOAD PUSH3 0x461BCD PUSH1 0xE5 SHL DUP2 MSTORE PUSH1 0x20 PUSH1 0x4 DUP3 ADD MSTORE PUSH1 0xD PUSH1 0x24 DUP3 ADD MSTORE PUSH13 0x90C2E6D040DAD2E6DAC2E8C6D PUSH1 0x9B SHL PUSH1 0x44 DUP3 ADD MSTORE PUSH1 0x64 SWAP1 REVERT JUMPDEST PUSH1 0x40 MLOAD PUSH3 0x461BCD PUSH1 0xE5 SHL DUP2 MSTORE PUSH1 0x20 PUSH1 0x4 DUP3 ADD MSTORE PUSH1 0x15 PUSH1 0x24 DUP3 ADD MSTORE PUSH21 0x14995D99585B081DDA5B991BDDC8195E1C1A5C9959 PUSH1 0x5A SHL PUSH1 0x44 DUP3 ADD MSTORE PUSH1 0x64 SWAP1 REVERT JUMPDEST PUSH1 0x40 MLOAD PUSH3 0x461BCD PUSH1 0xE5 SHL DUP2 MSTORE PUSH1 0x20 PUSH1 0x4 DUP3 ADD MSTORE PUSH1 0x13 PUSH1 0x24 DUP3 ADD MSTORE PUSH19 0x151BDBC819585C9B1E481D1BC81C995D99585B PUSH1 0x6A SHL PUSH1 0x44 DUP3 ADD MSTORE PUSH1 0x64 SWAP1 REVERT JUMPDEST PUSH1 0x40 MLOAD PUSH3 0x461BCD PUSH1 0xE5 SHL DUP2 MSTORE PUSH1 0x20 PUSH1 0x4 DUP3 ADD MSTORE PUSH1 0x10 PUSH1 0x24 DUP3 ADD MSTORE PUSH16 0x105B1C9958591E481C995D99585B1959 PUSH1 0x82 SHL PUSH1 0x44 DUP3 ADD MSTORE PUSH1 0x64 SWAP1 REVERT JUMPDEST PUSH1 0x40 MLOAD PUSH3 0x461BCD PUSH1 0xE5 SHL DUP2 MSTORE PUSH1 0x20 PUSH1 0x4 DUP3 ADD MSTORE PUSH1 0xF PUSH1 0x24 DUP3 ADD MSTORE PUSH15 0x139BC818DBDB5B5A5D08199BDD5B99 PUSH1 0x8A SHL PUSH1 0x44 DUP3 ADD MSTORE PUSH1 0x64 SWAP1 REVERT JUMPDEST CALLVALUE PUSH2 0x31F JUMPI PUSH1 0x0 CALLDATASIZE PUSH1 0x3 NOT ADD SLT PUSH2 0x31F JUMPI PUSH1 0x20 PUSH1 0x10 SLOAD PUSH1 0x40 MLOAD SWAP1 DUP2 MSTORE RETURN JUMPDEST CALLVALUE PUSH2 0x31F JUMPI PUSH1 0x80 CALLDATASIZE PUSH1 0x3 NOT ADD SLT PUSH2 0x31F JUMPI PUSH2 0x1A77 PUSH2 0x2DC5 JUMP JUMPDEST PUSH1 0x2 PUSH1 0x44 CALLDATALOAD LT ISZERO PUSH2 0x31F JUMPI PUSH1 0x64 CALLDATALOAD SWAP1 PUSH2 0x1A8E PUSH2 0x406D JUMP JUMPDEST PUSH1 0x4 CALLDATALOAD PUSH1 0x0 MSTORE PUSH1 0x6 PUSH1 0x20 MSTORE PUSH1 0x40 PUSH1 0x0 KECCAK256 SWAP1 PUSH2 0x1AAF PUSH1 0xFF PUSH1 0xA DUP5 ADD SLOAD AND PUSH2 0x3405 JUMP JUMPDEST PUSH1 0x4 CALLDATALOAD PUSH1 0x0 MSTORE PUSH1 0x9 PUSH1 0x20 MSTORE PUSH1 0x40 PUSH1 0x0 KECCAK256 PUSH1 0x1 DUP1 PUSH1 0xA0 SHL SUB DUP3 AND PUSH1 0x0 MSTORE PUSH1 0x20 MSTORE PUSH1 0xFF PUSH1 0x40 PUSH1 0x0 KECCAK256 SLOAD AND PUSH2 0x1EB5 JUMPI PUSH1 0x8 DUP3 ADD SLOAD PUSH1 0x2 DUP4 ADD SLOAD GT ISZERO PUSH2 0x1E82 JUMPI PUSH1 0x6 DUP3 ADD SLOAD DUP4 LT PUSH2 0x1E48 JUMPI PUSH1 0x0 SWAP2 PUSH1 0x44 CALLDATALOAD PUSH2 0x1E3D JUMPI PUSH1 0xFF PUSH2 0x1B26 PUSH1 0x1 JUMPDEST PUSH1 0x4 CALLDATALOAD DUP7 MSTORE PUSH1 0xD PUSH1 0x20 SWAP1 DUP2 MSTORE PUSH1 0x40 DUP1 DUP9 KECCAK256 CALLER DUP10 MSTORE SWAP1 SWAP2 MSTORE DUP7 KECCAK256 PUSH2 0x2DF1 JUMP JUMPDEST SLOAD AND PUSH2 0x1DD9 JUMPI PUSH1 0x4 CALLDATALOAD DUP4 MSTORE PUSH1 0xD PUSH1 0x20 SWAP1 DUP2 MSTORE PUSH1 0x40 DUP1 DUP6 KECCAK256 CALLER DUP7 MSTORE SWAP1 SWAP2 MSTORE DUP4 KECCAK256 PUSH2 0x1B52 SWAP1 PUSH1 0x44 CALLDATALOAD SWAP1 PUSH2 0x2DF1 JUMP JUMPDEST DUP1 SLOAD PUSH1 0xFF NOT AND PUSH1 0x1 OR SWAP1 SSTORE DUP4 PUSH2 0x1DA8 JUMPI JUMPDEST PUSH1 0x9 DUP2 ADD SWAP3 DUP4 SLOAD SWAP4 PUSH2 0x1B74 DUP6 PUSH2 0x3445 JUMP JUMPDEST SWAP1 SSTORE PUSH1 0x40 MLOAD PUSH2 0x1B82 DUP2 PUSH2 0x2E5E JUMP JUMPDEST PUSH1 0x1 PUSH1 0x1 PUSH1 0xA0 SHL SUB DUP5 DUP2 AND DUP3 MSTORE CALLER PUSH1 0x20 DUP1 DUP5 ADD SWAP2 DUP3 MSTORE PUSH1 0x44 CALLDATALOAD PUSH1 0x40 DUP1 DUP7 ADD SWAP2 DUP3 MSTORE PUSH1 0x60 DUP7 ADD SWAP11 DUP12 MSTORE PUSH1 0x0 PUSH1 0x80 DUP8 ADD DUP2 SWAP1 MSTORE NUMBER PUSH1 0xA0 DUP9 ADD SWAP1 DUP2 MSTORE PUSH2 0xFFFF DUP13 AND PUSH1 0xC0 DUP10 ADD DUP2 DUP2 MSTORE PUSH1 0x1 PUSH1 0xE0 DUP12 ADD DUP2 DUP2 MSTORE PUSH2 0x100 DUP13 ADD DUP7 SWAP1 MSTORE PUSH8 0x6F05B59D3B20000 PUSH2 0x120 DUP14 ADD MSTORE PUSH2 0x140 DUP13 ADD DUP7 SWAP1 MSTORE PUSH2 0x160 DUP13 ADD DUP7 SWAP1 MSTORE PUSH1 0x4 CALLDATALOAD DUP7 MSTORE PUSH1 0x7 DUP10 MSTORE DUP7 DUP7 KECCAK256 SWAP4 DUP7 MSTORE SWAP3 SWAP1 SWAP8 MSTORE SWAP4 SWAP1 SWAP3 KECCAK256 DUP9 MLOAD DUP2 SLOAD SWAP1 DUP10 AND PUSH1 0x1 PUSH1 0x1 PUSH1 0xA0 SHL SUB NOT SWAP2 DUP3 AND OR DUP3 SSTORE SWAP7 MLOAD SWAP6 DUP2 ADD DUP1 SLOAD SWAP7 SWAP1 SWAP9 AND SWAP6 SWAP1 SWAP7 AND SWAP5 SWAP1 SWAP5 OR SWAP1 SWAP6 SSTORE SWAP1 MLOAD SWAP1 SWAP10 SWAP4 SWAP6 POP SWAP4 SWAP2 SWAP3 SWAP1 SWAP2 PUSH1 0x2 DUP6 LT ISZERO PUSH2 0x554 JUMPI PUSH1 0x20 SWAP10 PUSH1 0x40 SWAP7 PUSH1 0x9 SWAP5 PUSH2 0x160 SWAP5 PUSH1 0x0 SWAP9 PUSH1 0x1 DUP10 ADD SLOAD SWAP1 PUSH1 0xFF PUSH1 0xA0 SHL SWAP1 PUSH1 0xA0 SHL AND SWAP1 PUSH1 0xFF PUSH1 0xA0 SHL NOT AND OR PUSH1 0x1 DUP10 ADD SSTORE MLOAD PUSH1 0x2 DUP9 ADD SSTORE PUSH1 0x80 DUP5 ADD MLOAD PUSH1 0x3 DUP9 ADD SSTORE MLOAD PUSH1 0x4 DUP8 ADD SSTORE PUSH2 0xFFFF DUP1 PUSH1 0x5 DUP9 ADD SWAP4 MLOAD AND AND PUSH2 0xFFFF NOT DUP4 SLOAD AND OR DUP3 SSTORE MLOAD ISZERO ISZERO PUSH3 0xFF0000 DUP3 SLOAD SWAP2 PUSH1 0x10 SHL AND SWAP1 PUSH3 0xFF0000 NOT AND OR SWAP1 SSTORE PUSH2 0x100 DUP2 ADD MLOAD PUSH1 0x6 DUP6 ADD SSTORE PUSH2 0x120 DUP2 ADD MLOAD PUSH1 0x7 DUP6 ADD SSTORE PUSH2 0x140 DUP2 ADD MLOAD PUSH1 0x8 DUP6 ADD SSTORE ADD MLOAD SWAP2 ADD SSTORE PUSH1 0x4 CALLDATALOAD DUP2 MSTORE PUSH1 0xA DUP7 MSTORE DUP2 DUP2 KECCAK256 PUSH1 0x1 DUP1 PUSH1 0xA0 SHL SUB DUP6 AND DUP3 MSTORE DUP7 MSTORE DUP2 DUP2 KECCAK256 PUSH2 0xFFFF DUP1 DUP8 AND AND PUSH2 0xFFFF NOT DUP3 SLOAD AND OR SWAP1 SSTORE PUSH1 0x4 CALLDATALOAD DUP2 MSTORE PUSH1 0x9 DUP7 MSTORE DUP2 DUP2 KECCAK256 PUSH1 0x1 DUP1 PUSH1 0xA0 SHL SUB DUP6 AND DUP3 MSTORE DUP7 MSTORE KECCAK256 PUSH1 0x1 PUSH1 0xFF NOT DUP3 SLOAD AND OR SWAP1 SSTORE PUSH1 0x8 PUSH2 0x1D47 DUP2 DUP4 ADD SLOAD PUSH2 0x3445 JUMP JUMPDEST SWAP2 ADD SSTORE PUSH1 0x40 MLOAD PUSH2 0xFFFF DUP4 AND DUP2 MSTORE PUSH2 0x1D62 DUP5 DUP3 ADD PUSH1 0x44 CALLDATALOAD PUSH2 0x2F80 JUMP JUMPDEST CALLER SWAP2 PUSH1 0x1 PUSH1 0x1 PUSH1 0xA0 SHL SUB AND SWAP1 PUSH1 0x4 CALLDATALOAD SWAP1 PUSH32 0xD6347F2C1CBFC00C2EF5D4DFCE146B393CB3305376A2999571521D291DEF0555 SWAP1 PUSH1 0x40 SWAP1 LOG4 PUSH1 0x1 DUP1 SSTORE PUSH2 0xFFFF PUSH1 0x40 MLOAD SWAP2 AND DUP2 MSTORE RETURN JUMPDEST PUSH2 0x1DD4 DUP5 ADDRESS CALLER PUSH32 0x0 PUSH2 0x4024 JUMP JUMPDEST PUSH2 0x1B63 JUMP JUMPDEST PUSH1 0x40 MLOAD PUSH3 0x461BCD PUSH1 0xE5 SHL DUP2 MSTORE PUSH1 0x20 PUSH1 0x4 DUP3 ADD MSTORE PUSH1 0x36 PUSH1 0x24 DUP3 ADD MSTORE PUSH32 0x53656C662D766F74653A20636F6C646B657920616C7265616479207265676973 PUSH1 0x44 DUP3 ADD MSTORE PUSH22 0x7465726564206173206F70706F736974652074797065 PUSH1 0x50 SHL PUSH1 0x64 DUP3 ADD MSTORE PUSH1 0x84 SWAP1 REVERT JUMPDEST PUSH1 0xFF PUSH2 0x1B26 DUP5 PUSH2 0x1B08 JUMP JUMPDEST PUSH1 0x40 MLOAD PUSH3 0x461BCD PUSH1 0xE5 SHL DUP2 MSTORE PUSH1 0x20 PUSH1 0x4 DUP3 ADD MSTORE PUSH1 0x12 PUSH1 0x24 DUP3 ADD MSTORE PUSH18 0x496E73756666696369656E74207374616B65 PUSH1 0x70 SHL PUSH1 0x44 DUP3 ADD MSTORE PUSH1 0x64 SWAP1 REVERT JUMPDEST PUSH1 0x40 MLOAD PUSH3 0x461BCD PUSH1 0xE5 SHL DUP2 MSTORE PUSH1 0x20 PUSH1 0x4 DUP3 ADD MSTORE PUSH1 0xB PUSH1 0x24 DUP3 ADD MSTORE PUSH11 0x14DD589B995D08199D5B1B PUSH1 0xAA SHL PUSH1 0x44 DUP3 ADD MSTORE PUSH1 0x64 SWAP1 REVERT JUMPDEST PUSH1 0x40 MLOAD PUSH3 0x461BCD PUSH1 0xE5 SHL DUP2 MSTORE PUSH1 0x20 PUSH1 0x4 DUP3 ADD MSTORE PUSH1 0x12 PUSH1 0x24 DUP3 ADD MSTORE PUSH18 0x105B1C9958591E481C9959DA5CDD195C9959 PUSH1 0x72 SHL PUSH1 0x44 DUP3 ADD MSTORE PUSH1 0x64 SWAP1 REVERT JUMPDEST CALLVALUE PUSH2 0x31F JUMPI PUSH1 0x40 CALLDATASIZE PUSH1 0x3 NOT ADD SLT PUSH2 0x31F JUMPI PUSH1 0x4 CALLDATALOAD PUSH2 0x1F0B PUSH2 0x2DC5 JUMP JUMPDEST SWAP1 DUP1 PUSH1 0x0 MSTORE PUSH1 0x9 PUSH1 0x20 MSTORE PUSH1 0x40 PUSH1 0x0 KECCAK256 PUSH1 0x1 DUP1 PUSH1 0xA0 SHL SUB DUP4 AND PUSH1 0x0 MSTORE PUSH1 0x20 MSTORE PUSH2 0x1F3A PUSH1 0xFF PUSH1 0x40 PUSH1 0x0 KECCAK256 SLOAD AND PUSH2 0x33C8 JUMP JUMPDEST PUSH1 0x0 MSTORE PUSH1 0xA PUSH1 0x20 MSTORE PUSH1 0x40 PUSH1 0x0 KECCAK256 SWAP1 PUSH1 0x1 DUP1 PUSH1 0xA0 SHL SUB AND PUSH1 0x0 MSTORE PUSH1 0x20 MSTORE PUSH1 0x20 PUSH2 0xFFFF PUSH1 0x40 PUSH1 0x0 KECCAK256 SLOAD AND PUSH1 0x40 MLOAD SWAP1 DUP2 MSTORE RETURN JUMPDEST CALLVALUE PUSH2 0x31F JUMPI PUSH1 0x0 CALLDATASIZE PUSH1 0x3 NOT ADD SLT PUSH2 0x31F JUMPI PUSH2 0x1F83 PUSH2 0x3FFB JUMP JUMPDEST PUSH1 0x0 DUP1 SLOAD PUSH1 0x1 PUSH1 0x1 PUSH1 0xA0 SHL SUB NOT DUP2 AND DUP3 SSTORE PUSH1 0x1 PUSH1 0x1 PUSH1 0xA0 SHL SUB AND PUSH32 0x8BE0079C531659141344CD1FD0A4F28419497F9722A3DAAFE3B4186F6B6457E0 DUP3 DUP1 LOG3 STOP JUMPDEST CALLVALUE PUSH2 0x31F JUMPI PUSH1 0x20 CALLDATASIZE PUSH1 0x3 NOT ADD SLT PUSH2 0x31F JUMPI PUSH2 0x1FDC PUSH2 0x3FFB JUMP JUMPDEST PUSH1 0x4 DUP1 CALLDATALOAD SWAP1 SSTORE STOP JUMPDEST CALLVALUE PUSH2 0x31F JUMPI PUSH1 0x80 CALLDATASIZE PUSH1 0x3 NOT ADD SLT PUSH2 0x31F JUMPI PUSH1 0x4 CALLDATALOAD PUSH2 0x2000 PUSH2 0x2D5F JUMP JUMPDEST PUSH1 0x44 CALLDATALOAD PUSH1 0x64 CALLDATALOAD PUSH1 0x1 PUSH1 0x1 PUSH1 0x40 SHL SUB DUP2 GT PUSH2 0x31F JUMPI PUSH2 0x2022 SWAP1 CALLDATASIZE SWAP1 PUSH1 0x4 ADD PUSH2 0x2F8D JUMP JUMPDEST SWAP3 SWAP1 PUSH1 0x1 DUP1 PUSH1 0xA0 SHL SUB PUSH1 0x0 SLOAD AND CALLER EQ DUP1 ISZERO PUSH2 0x21C5 JUMPI JUMPDEST ISZERO PUSH2 0x2180 JUMPI DUP3 ISZERO ISZERO DUP1 PUSH2 0x2174 JUMPI JUMPDEST ISZERO PUSH2 0x212F JUMPI DUP5 PUSH1 0x0 MSTORE PUSH1 0x7 PUSH1 0x20 MSTORE PUSH1 0x40 PUSH1 0x0 KECCAK256 PUSH2 0xFFFF DUP4 AND PUSH1 0x0 MSTORE PUSH1 0x20 MSTORE PUSH1 0x40 PUSH1 0x0 KECCAK256 SWAP1 PUSH1 0xFF PUSH1 0x5 DUP4 ADD SLOAD PUSH1 0x10 SHR AND ISZERO PUSH2 0x20F8 JUMPI PUSH32 0xB690D999D54E9332494C15C985DF21327BFFF85F3125D47BE78B06CA862B419B SWAP5 PUSH2 0xFFFF SWAP5 PUSH1 0x2 PUSH2 0x20EB SWAP5 ADD PUSH2 0x2710 PUSH2 0x20B6 DUP3 SLOAD SWAP4 DUP5 PUSH2 0x3277 JUMP JUMPDEST DIV SWAP2 DUP1 DUP4 GT PUSH2 0x20F0 JUMPI JUMPDEST DUP3 PUSH2 0x20CA SWAP2 PUSH2 0x3063 JUMP JUMPDEST SWAP1 SSTORE PUSH1 0x40 MLOAD SWAP6 DUP7 SWAP6 AND DUP6 MSTORE PUSH1 0x20 DUP6 ADD MSTORE PUSH1 0x60 PUSH1 0x40 DUP6 ADD MSTORE PUSH1 0x60 DUP5 ADD SWAP2 PUSH2 0x33A7 JUMP JUMPDEST SUB SWAP1 LOG2 STOP JUMPDEST SWAP2 POP DUP2 PUSH2 0x20C0 JUMP JUMPDEST PUSH1 0x40 MLOAD PUSH3 0x461BCD PUSH1 0xE5 SHL DUP2 MSTORE PUSH1 0x20 PUSH1 0x4 DUP3 ADD MSTORE PUSH1 0xF PUSH1 0x24 DUP3 ADD MSTORE PUSH15 0x4E6F6465206E6F7420616374697665 PUSH1 0x88 SHL PUSH1 0x44 DUP3 ADD MSTORE PUSH1 0x64 SWAP1 REVERT JUMPDEST PUSH1 0x40 MLOAD PUSH3 0x461BCD PUSH1 0xE5 SHL DUP2 MSTORE PUSH1 0x20 PUSH1 0x4 DUP3 ADD MSTORE PUSH1 0x18 PUSH1 0x24 DUP3 ADD MSTORE PUSH32 0x496E76616C696420736C6173682070657263656E746167650000000000000000 PUSH1 0x44 DUP3 ADD MSTORE PUSH1 0x64 SWAP1 REVERT JUMPDEST POP PUSH2 0x2710 DUP4 GT ISZERO PUSH2 0x2046 JUMP JUMPDEST PUSH1 0x40 MLOAD PUSH3 0x461BCD PUSH1 0xE5 SHL DUP2 MSTORE PUSH1 0x20 PUSH1 0x4 DUP3 ADD MSTORE PUSH1 0x17 PUSH1 0x24 DUP3 ADD MSTORE PUSH32 0x4E6F7420617574686F72697A656420746F20736C617368000000000000000000 PUSH1 0x44 DUP3 ADD MSTORE PUSH1 0x64 SWAP1 REVERT JUMPDEST POP DUP5 PUSH1 0x0 MSTORE PUSH1 0x6 PUSH1 0x20 MSTORE PUSH1 0x1 DUP1 PUSH1 0xA0 SHL SUB PUSH1 0x1 PUSH1 0x40 PUSH1 0x0 KECCAK256 ADD SLOAD AND CALLER EQ PUSH2 0x2038 JUMP JUMPDEST CALLVALUE PUSH2 0x31F JUMPI PUSH1 0x40 CALLDATASIZE PUSH1 0x3 NOT ADD SLT PUSH2 0x31F JUMPI PUSH2 0x180 PUSH1 0x40 PUSH2 0x2205 PUSH2 0x2D5F JUMP JUMPDEST PUSH1 0x4 CALLDATALOAD PUSH1 0x0 MSTORE PUSH1 0x7 PUSH1 0x20 MSTORE DUP2 PUSH1 0x0 KECCAK256 PUSH2 0xFFFF PUSH1 0x0 SWAP3 AND DUP3 MSTORE PUSH1 0x20 MSTORE KECCAK256 PUSH1 0x1 DUP1 PUSH1 0xA0 SHL SUB DUP2 SLOAD AND SWAP1 PUSH1 0x1 DUP2 ADD SLOAD SWAP1 PUSH1 0x2 DUP2 ADD SLOAD PUSH1 0x3 DUP3 ADD SLOAD PUSH1 0xFF PUSH1 0x4 DUP5 ADD SLOAD PUSH1 0x5 DUP6 ADD SLOAD SWAP1 PUSH1 0x6 DUP7 ADD SLOAD SWAP4 PUSH1 0x7 DUP8 ADD SLOAD SWAP6 PUSH2 0x2286 PUSH1 0x9 PUSH1 0x8 DUP11 ADD SLOAD SWAP10 ADD SLOAD SWAP10 PUSH1 0x40 MLOAD SWAP12 DUP13 MSTORE PUSH1 0x1 DUP1 PUSH1 0xA0 SHL SUB DUP2 AND PUSH1 0x20 DUP14 ADD MSTORE DUP7 PUSH1 0x40 DUP14 ADD SWAP2 PUSH1 0xA0 SHR AND PUSH2 0x2F80 JUMP JUMPDEST PUSH1 0x60 DUP11 ADD MSTORE PUSH1 0x80 DUP10 ADD MSTORE PUSH1 0xA0 DUP9 ADD MSTORE PUSH2 0xFFFF DUP2 AND PUSH1 0xC0 DUP9 ADD MSTORE PUSH1 0x10 SHR AND ISZERO ISZERO PUSH1 0xE0 DUP7 ADD MSTORE PUSH2 0x100 DUP6 ADD MSTORE PUSH2 0x120 DUP5 ADD MSTORE PUSH2 0x140 DUP4 ADD MSTORE PUSH2 0x160 DUP3 ADD MSTORE RETURN JUMPDEST CALLVALUE PUSH2 0x31F JUMPI PUSH1 0x20 CALLDATASIZE PUSH1 0x3 NOT ADD SLT PUSH2 0x31F JUMPI PUSH1 0x4 CALLDATALOAD PUSH1 0x0 MSTORE PUSH1 0x6 PUSH1 0x20 MSTORE PUSH2 0x2331 PUSH1 0x40 PUSH1 0x0 KECCAK256 PUSH1 0x1 DUP1 PUSH1 0xA0 SHL SUB PUSH1 0x1 DUP3 ADD SLOAD AND PUSH1 0x2 DUP3 ADD SLOAD SWAP2 PUSH1 0x3 DUP2 ADD SLOAD PUSH1 0x4 DUP3 ADD SLOAD PUSH1 0x8 DUP4 ADD SLOAD SWAP2 PUSH2 0x231C PUSH1 0xFF PUSH1 0xA DUP7 ADD SLOAD AND SWAP5 PUSH2 0x2E9B JUMP JUMPDEST SWAP6 PUSH1 0x40 MLOAD SWAP8 DUP9 SWAP8 PUSH1 0xE0 DUP10 MSTORE PUSH1 0xE0 DUP10 ADD SWAP1 PUSH2 0x2F3F JUMP JUMPDEST SWAP6 PUSH1 0x20 DUP9 ADD MSTORE PUSH1 0x40 DUP8 ADD MSTORE PUSH1 0x60 DUP7 ADD MSTORE PUSH1 0x80 DUP6 ADD MSTORE PUSH1 0xA0 DUP5 ADD MSTORE ISZERO ISZERO PUSH1 0xC0 DUP4 ADD MSTORE SUB SWAP1 RETURN JUMPDEST CALLVALUE PUSH2 0x31F JUMPI PUSH1 0x60 CALLDATASIZE PUSH1 0x3 NOT ADD SLT PUSH2 0x31F JUMPI PUSH2 0x236F PUSH2 0x2DDB JUMP JUMPDEST PUSH1 0x44 CALLDATALOAD PUSH2 0xFFFF DUP2 AND DUP2 SUB PUSH2 0x31F JUMPI PUSH1 0x40 MLOAD PUSH2 0x23AB DUP2 PUSH2 0x782 PUSH1 0x20 DUP3 ADD SWAP5 PUSH1 0x24 CALLDATALOAD DUP7 SWAP1 SWAP2 PUSH1 0x22 SWAP3 DUP3 MSTORE PUSH2 0xFFFF PUSH1 0xF0 SHL SWAP1 PUSH1 0xF0 SHL AND PUSH1 0x20 DUP3 ADD MSTORE ADD SWAP1 JUMP JUMPDEST MLOAD SWAP1 KECCAK256 SWAP1 PUSH1 0x1 DUP1 PUSH1 0xA0 SHL SUB AND PUSH1 0x0 MSTORE PUSH1 0xB PUSH1 0x20 MSTORE PUSH1 0x40 PUSH1 0x0 KECCAK256 SWAP1 PUSH1 0x0 MSTORE PUSH1 0x20 MSTORE PUSH1 0x20 PUSH1 0x40 PUSH1 0x0 KECCAK256 SLOAD PUSH1 0x40 MLOAD SWAP1 DUP2 MSTORE RETURN JUMPDEST CALLVALUE PUSH2 0x31F JUMPI PUSH1 0x0 CALLDATASIZE PUSH1 0x3 NOT ADD SLT PUSH2 0x31F JUMPI PUSH1 0x20 PUSH1 0x5 SLOAD PUSH1 0x40 MLOAD SWAP1 DUP2 MSTORE RETURN JUMPDEST CALLVALUE PUSH2 0x31F JUMPI PUSH1 0x20 CALLDATASIZE PUSH1 0x3 NOT ADD SLT PUSH2 0x31F JUMPI PUSH1 0x4 CALLDATALOAD PUSH1 0x0 MSTORE PUSH1 0x6 PUSH1 0x20 MSTORE PUSH1 0x40 PUSH1 0x0 KECCAK256 PUSH2 0x180 PUSH2 0x2426 DUP3 PUSH2 0x2E9B JUMP JUMPDEST SWAP2 PUSH1 0x1 DUP1 PUSH1 0xA0 SHL SUB PUSH1 0x1 DUP3 ADD SLOAD AND SWAP1 PUSH1 0x2 DUP2 ADD SLOAD SWAP1 PUSH1 0x3 DUP2 ADD SLOAD PUSH1 0x4 DUP3 ADD SLOAD PUSH1 0x5 DUP4 ADD SLOAD PUSH1 0x6 DUP5 ADD SLOAD PUSH1 0x7 DUP6 ADD SLOAD SWAP2 PUSH1 0x8 DUP7 ADD SLOAD SWAP4 PUSH1 0x9 DUP8 ADD SLOAD SWAP6 PUSH1 0xB PUSH1 0xFF PUSH1 0xA DUP11 ADD SLOAD AND SWAP9 ADD SLOAD SWAP9 PUSH2 0x2484 PUSH1 0x40 MLOAD SWAP14 DUP14 DUP16 SWAP15 DUP16 SWAP1 DUP2 MSTORE ADD SWAP1 PUSH2 0x2F3F JUMP JUMPDEST SWAP11 PUSH1 0x20 DUP14 ADD MSTORE PUSH1 0x40 DUP13 ADD MSTORE PUSH1 0x60 DUP12 ADD MSTORE PUSH1 0x80 DUP11 ADD MSTORE PUSH1 0xA0 DUP10 ADD MSTORE PUSH1 0xC0 DUP9 ADD MSTORE PUSH1 0xE0 DUP8 ADD MSTORE PUSH2 0x100 DUP7 ADD MSTORE PUSH2 0x120 DUP6 ADD MSTORE ISZERO ISZERO PUSH2 0x140 DUP5 ADD MSTORE PUSH2 0x160 DUP4 ADD MSTORE SUB SWAP1 RETURN JUMPDEST CALLVALUE PUSH2 0x31F JUMPI PUSH1 0x20 CALLDATASIZE PUSH1 0x3 NOT ADD SLT PUSH2 0x31F JUMPI PUSH2 0x24DF PUSH2 0x3FFB JUMP JUMPDEST PUSH1 0x4 CALLDATALOAD PUSH1 0x3 SSTORE STOP JUMPDEST CALLVALUE PUSH2 0x31F JUMPI PUSH1 0x60 CALLDATASIZE PUSH1 0x3 NOT ADD SLT PUSH2 0x31F JUMPI PUSH2 0x2500 PUSH2 0x2DC5 JUMP JUMPDEST PUSH1 0x44 CALLDATALOAD PUSH1 0x2 DUP2 LT ISZERO PUSH2 0x31F JUMPI PUSH2 0x253C PUSH1 0xFF SWAP2 PUSH1 0x20 SWAP4 PUSH1 0x4 CALLDATALOAD PUSH1 0x0 MSTORE PUSH1 0xD DUP6 MSTORE PUSH1 0x40 PUSH1 0x0 KECCAK256 SWAP1 PUSH1 0x1 DUP1 PUSH1 0xA0 SHL SUB AND PUSH1 0x0 MSTORE DUP5 MSTORE PUSH1 0x40 PUSH1 0x0 KECCAK256 PUSH2 0x2DF1 JUMP JUMPDEST SLOAD AND PUSH1 0x40 MLOAD SWAP1 ISZERO ISZERO DUP2 MSTORE RETURN JUMPDEST CALLVALUE PUSH2 0x31F JUMPI PUSH1 0x0 CALLDATASIZE PUSH1 0x3 NOT ADD SLT PUSH2 0x31F JUMPI PUSH1 0x20 PUSH1 0x2 SLOAD PUSH1 0x40 MLOAD SWAP1 DUP2 MSTORE RETURN JUMPDEST CALLVALUE PUSH2 0x31F JUMPI PUSH1 0x0 CALLDATASIZE PUSH1 0x3 NOT ADD SLT PUSH2 0x31F JUMPI PUSH1 0xE SLOAD PUSH1 0x40 MLOAD PUSH1 0x1 PUSH1 0x1 PUSH1 0xA0 SHL SUB SWAP1 SWAP2 AND DUP2 MSTORE PUSH1 0x20 SWAP1 RETURN JUMPDEST CALLVALUE PUSH2 0x31F JUMPI PUSH1 0x40 CALLDATASIZE PUSH1 0x3 NOT ADD SLT PUSH2 0x31F JUMPI PUSH1 0x4 CALLDATALOAD PUSH2 0x25AB PUSH2 0x2D5F JUMP JUMPDEST DUP2 PUSH1 0x0 MSTORE PUSH1 0x7 PUSH1 0x20 MSTORE PUSH1 0x40 DUP1 PUSH1 0x0 KECCAK256 PUSH1 0x0 SWAP1 PUSH2 0xFFFF DUP5 AND DUP3 MSTORE PUSH1 0x20 MSTORE KECCAK256 PUSH2 0x25DB PUSH1 0xFF PUSH1 0x5 DUP4 ADD SLOAD PUSH1 0x10 SHR AND PUSH2 0x3341 JUMP JUMPDEST PUSH1 0xFF PUSH1 0x1 DUP3 ADD SLOAD PUSH1 0xA0 SHR AND PUSH1 0x2 DUP2 LT ISZERO PUSH2 0x554 JUMPI PUSH1 0x1 PUSH2 0x25FB SWAP2 EQ PUSH2 0x312D JUMP JUMPDEST PUSH2 0x260C PUSH1 0x4 DUP3 ADD SLOAD PUSH1 0x10 SLOAD SWAP1 PUSH2 0x337A JUMP JUMPDEST NUMBER GT ISZERO PUSH2 0x26CE JUMPI PUSH1 0x2 DUP2 ADD DUP1 SLOAD SWAP2 PUSH1 0x64 DUP4 MUL DUP4 DUP2 DIV PUSH1 0x64 EQ DUP5 ISZERO OR ISZERO PUSH2 0xAA6 JUMPI PUSH2 0x2710 SWAP1 DIV SWAP2 DUP4 DUP4 GT PUSH2 0x26C6 JUMPI JUMPDEST PUSH2 0x2647 DUP4 PUSH1 0x7 SWAP5 SWAP6 PUSH2 0x3063 JUMP JUMPDEST SWAP1 SSTORE ADD SWAP2 DUP3 SLOAD SWAP2 PUSH1 0x50 DUP4 MUL SWAP3 DUP1 DUP5 DIV PUSH1 0x50 EQ SWAP1 ISZERO OR ISZERO PUSH2 0xAA6 JUMPI PUSH32 0xB690D999D54E9332494C15C985DF21327BFFF85F3125D47BE78B06CA862B419B SWAP4 PUSH1 0x64 PUSH1 0xA0 SWAP5 DIV SWAP1 SSTORE PUSH2 0xFFFF PUSH1 0x40 MLOAD SWAP3 AND DUP3 MSTORE PUSH1 0x20 DUP3 ADD MSTORE PUSH1 0x60 PUSH1 0x40 DUP3 ADD MSTORE PUSH1 0x12 PUSH1 0x60 DUP3 ADD MSTORE PUSH18 0x24B730B1BA34BB32903B30B634B230BA37B9 PUSH1 0x71 SHL PUSH1 0x80 DUP3 ADD MSTORE LOG2 STOP JUMPDEST DUP4 SWAP3 POP PUSH2 0x263A JUMP JUMPDEST PUSH1 0x40 MLOAD PUSH3 0x461BCD PUSH1 0xE5 SHL DUP2 MSTORE PUSH1 0x20 PUSH1 0x4 DUP3 ADD MSTORE PUSH1 0x13 PUSH1 0x24 DUP3 ADD MSTORE PUSH19 0x56616C696461746F7220697320616374697665 PUSH1 0x68 SHL PUSH1 0x44 DUP3 ADD MSTORE PUSH1 0x64 SWAP1 REVERT JUMPDEST CALLVALUE PUSH2 0x31F JUMPI PUSH1 0x20 CALLDATASIZE PUSH1 0x3 NOT ADD SLT PUSH2 0x31F JUMPI PUSH1 0x4 CALLDATALOAD PUSH2 0x2725 PUSH2 0x3FFB JUMP JUMPDEST PUSH2 0x1388 DUP2 GT PUSH2 0x2733 JUMPI PUSH1 0xF SSTORE STOP JUMPDEST PUSH1 0x40 MLOAD PUSH3 0x461BCD PUSH1 0xE5 SHL DUP2 MSTORE PUSH1 0x20 PUSH1 0x4 DUP3 ADD MSTORE PUSH1 0x7 PUSH1 0x24 DUP3 ADD MSTORE PUSH7 0x4D617820353025 PUSH1 0xC8 SHL PUSH1 0x44 DUP3 ADD MSTORE PUSH1 0x64 SWAP1 REVERT JUMPDEST CALLVALUE PUSH2 0x31F JUMPI PUSH1 0x40 CALLDATASIZE PUSH1 0x3 NOT ADD SLT PUSH2 0x31F JUMPI PUSH2 0x277B PUSH2 0x2DC5 JUMP JUMPDEST PUSH1 0x4 CALLDATALOAD PUSH1 0x0 MSTORE PUSH1 0xA PUSH1 0x20 MSTORE PUSH1 0x40 PUSH1 0x0 KECCAK256 SWAP1 PUSH1 0x1 DUP1 PUSH1 0xA0 SHL SUB AND PUSH1 0x0 MSTORE PUSH1 0x20 MSTORE PUSH1 0x20 PUSH2 0xFFFF PUSH1 0x40 PUSH1 0x0 KECCAK256 SLOAD AND PUSH1 0x40 MLOAD SWAP1 DUP2 MSTORE RETURN JUMPDEST CALLVALUE PUSH2 0x31F JUMPI PUSH1 0x80 CALLDATASIZE PUSH1 0x3 NOT ADD SLT PUSH2 0x31F JUMPI PUSH1 0x4 CALLDATALOAD PUSH2 0x27CA PUSH2 0x2D5F JUMP JUMPDEST SWAP1 PUSH1 0x44 CALLDATALOAD PUSH1 0x1 PUSH1 0x1 PUSH1 0x40 SHL SUB DUP2 GT PUSH2 0x31F JUMPI PUSH2 0x27EA SWAP1 CALLDATASIZE SWAP1 PUSH1 0x4 ADD PUSH2 0x2D95 JUMP JUMPDEST SWAP1 PUSH1 0x64 CALLDATALOAD PUSH1 0x1 PUSH1 0x1 PUSH1 0x40 SHL SUB DUP2 GT PUSH2 0x31F JUMPI PUSH2 0x280A SWAP1 CALLDATASIZE SWAP1 PUSH1 0x4 ADD PUSH2 0x2D95 JUMP JUMPDEST SWAP5 SWAP1 PUSH2 0x2814 PUSH2 0x3FFB JUMP JUMPDEST PUSH2 0x281F DUP7 DUP6 EQ PUSH2 0x3070 JUMP JUMPDEST PUSH2 0x282A DUP5 ISZERO ISZERO PUSH2 0x30AE JUMP JUMPDEST DUP5 PUSH1 0x0 MSTORE PUSH1 0x7 PUSH1 0x20 MSTORE PUSH1 0x40 DUP1 PUSH1 0x0 KECCAK256 PUSH1 0x0 SWAP1 PUSH2 0xFFFF DUP6 AND DUP3 MSTORE PUSH1 0x20 MSTORE KECCAK256 SWAP3 PUSH2 0x285B PUSH1 0xFF PUSH1 0x5 DUP7 ADD SLOAD PUSH1 0x10 SHR AND PUSH2 0x30EA JUMP JUMPDEST PUSH1 0xFF PUSH1 0x1 DUP6 ADD SLOAD PUSH1 0xA0 SHR AND PUSH1 0x2 DUP2 LT ISZERO PUSH2 0x554 JUMPI PUSH1 0x1 PUSH2 0x287E SWAP2 SWAP9 SWAP5 SWAP9 EQ PUSH2 0x312D JUMP JUMPDEST PUSH1 0x0 JUMPDEST DUP6 DUP2 LT PUSH2 0x293A JUMPI POP DUP6 PUSH1 0x0 MSTORE PUSH1 0x8 PUSH1 0x20 MSTORE PUSH1 0x40 PUSH1 0x0 KECCAK256 PUSH2 0xFFFF DUP9 AND PUSH1 0x0 MSTORE PUSH1 0x20 MSTORE PUSH2 0x28AF PUSH1 0x40 PUSH1 0x0 KECCAK256 PUSH2 0x328A JUMP JUMPDEST PUSH2 0xFFFF PUSH1 0x0 SWAP8 AND SWAP7 JUMPDEST DUP6 DUP2 LT PUSH2 0x28F5 JUMPI DUP8 DUP8 PUSH32 0x25742C04C8F0360E39ABB67701FDA4ACB202E054E9776C223FF2B53398C7B260 PUSH1 0x20 DUP10 DUP10 PUSH1 0x4 NUMBER SWAP2 ADD SSTORE PUSH1 0x40 MLOAD SWAP1 DUP2 MSTORE LOG3 STOP JUMPDEST PUSH1 0x1 SWAP1 DUP8 PUSH1 0x0 MSTORE PUSH1 0x8 PUSH1 0x20 MSTORE PUSH2 0x2934 PUSH1 0x40 DUP1 PUSH1 0x0 KECCAK256 PUSH1 0x0 SWAP1 DUP13 DUP3 MSTORE PUSH1 0x20 MSTORE KECCAK256 PUSH2 0x2922 PUSH2 0x182F DUP5 DUP12 DUP9 PUSH2 0x316B JUMP JUMPDEST SWAP1 PUSH2 0xFFFF PUSH2 0x1846 PUSH2 0x182F DUP7 DUP12 DUP12 PUSH2 0x316B JUMP JUMPDEST ADD PUSH2 0x28B8 JUMP JUMPDEST PUSH2 0x294E PUSH2 0x1879 PUSH2 0x182F DUP4 DUP10 DUP7 SWAP13 SWAP9 SWAP13 PUSH2 0x316B JUMP JUMPDEST DUP7 PUSH1 0x0 MSTORE PUSH1 0x7 PUSH1 0x20 MSTORE PUSH2 0x2972 PUSH1 0xFF PUSH1 0x5 PUSH1 0x40 DUP1 PUSH1 0x0 KECCAK256 PUSH2 0x18BA PUSH2 0x182F DUP8 DUP14 DUP11 PUSH2 0x316B JUMP JUMPDEST DUP7 PUSH1 0x0 MSTORE PUSH1 0x7 PUSH1 0x20 MSTORE PUSH1 0xFF PUSH1 0x1 PUSH1 0x40 DUP1 PUSH1 0x0 KECCAK256 PUSH2 0x2993 PUSH2 0x182F DUP7 DUP13 DUP10 PUSH2 0x316B JUMP JUMPDEST SWAP1 PUSH2 0xFFFF PUSH1 0x0 SWAP3 AND DUP3 MSTORE PUSH1 0x20 MSTORE KECCAK256 ADD SLOAD PUSH1 0xA0 SHR AND SWAP1 PUSH1 0x2 DUP3 LT ISZERO PUSH2 0x554 JUMPI PUSH2 0x29BD PUSH1 0x1 SWAP3 ISZERO PUSH2 0x321A JUMP JUMPDEST ADD SWAP7 SWAP3 SWAP7 PUSH2 0x2881 JUMP JUMPDEST CALLVALUE PUSH2 0x31F JUMPI PUSH1 0x40 CALLDATASIZE PUSH1 0x3 NOT ADD SLT PUSH2 0x31F JUMPI PUSH1 0x4 CALLDATALOAD PUSH2 0x29E2 PUSH2 0x2D5F JUMP JUMPDEST SWAP1 PUSH2 0x29EB PUSH2 0x406D JUMP JUMPDEST PUSH1 0x0 DUP2 DUP2 MSTORE PUSH1 0x7 PUSH1 0x20 SWAP1 DUP2 MSTORE PUSH1 0x40 DUP1 DUP4 KECCAK256 PUSH2 0xFFFF DUP7 AND DUP5 MSTORE SWAP1 SWAP2 MSTORE SWAP1 KECCAK256 PUSH1 0x1 DUP2 ADD SLOAD PUSH1 0x1 PUSH1 0x1 PUSH1 0xA0 SHL SUB AND CALLER SUB PUSH2 0x2AD6 JUMPI PUSH1 0x9 DUP2 ADD SWAP1 DUP2 SLOAD SWAP1 DUP2 ISZERO PUSH2 0x2AA3 JUMPI PUSH1 0x0 PUSH32 0x590FA2FAFACB7B76B58059EA8C0B2E9E7FE3F6A044B9E3A27F9D1A1F3AFF626D SWAP4 SSTORE PUSH2 0x2A7A DUP3 CALLER PUSH32 0x0 PUSH2 0x408F JUMP JUMPDEST SLOAD PUSH1 0x40 DUP1 MLOAD PUSH2 0xFFFF SWAP1 SWAP7 AND DUP7 MSTORE PUSH1 0x20 DUP7 ADD SWAP3 SWAP1 SWAP3 MSTORE PUSH1 0x1 PUSH1 0x1 PUSH1 0xA0 SHL SUB AND SWAP4 SWAP1 DUP2 SWAP1 DUP2 ADD PUSH2 0x7E7 JUMP JUMPDEST PUSH1 0x40 MLOAD PUSH3 0x461BCD PUSH1 0xE5 SHL DUP2 MSTORE PUSH1 0x20 PUSH1 0x4 DUP3 ADD MSTORE PUSH1 0xB PUSH1 0x24 DUP3 ADD MSTORE PUSH11 0x27379032B6B4B9B9B4B7B7 PUSH1 0xA9 SHL PUSH1 0x44 DUP3 ADD MSTORE PUSH1 0x64 SWAP1 REVERT JUMPDEST PUSH1 0x40 MLOAD PUSH3 0x461BCD PUSH1 0xE5 SHL DUP2 MSTORE PUSH1 0x20 PUSH1 0x4 DUP3 ADD MSTORE PUSH1 0x9 PUSH1 0x24 DUP3 ADD MSTORE PUSH9 0x2737BA1037BBB732B9 PUSH1 0xB9 SHL PUSH1 0x44 DUP3 ADD MSTORE PUSH1 0x64 SWAP1 REVERT JUMPDEST CALLVALUE PUSH2 0x31F JUMPI PUSH2 0x2B15 CALLDATASIZE PUSH2 0x2D70 JUMP JUMPDEST PUSH2 0x2B1D PUSH2 0x406D JUMP JUMPDEST PUSH1 0x40 DUP1 MLOAD PUSH1 0x20 DUP2 ADD DUP6 DUP2 MSTORE PUSH1 0xF0 DUP6 SWAP1 SHL PUSH1 0x1 PUSH1 0x1 PUSH1 0xF0 SHL SUB NOT AND SWAP3 DUP3 ADD SWAP3 SWAP1 SWAP3 MSTORE PUSH2 0x2B4B DUP2 PUSH1 0x42 DUP2 ADD PUSH2 0x782 JUMP JUMPDEST MLOAD SWAP1 KECCAK256 CALLER PUSH1 0x0 MSTORE PUSH1 0xB PUSH1 0x20 MSTORE PUSH1 0x40 PUSH1 0x0 KECCAK256 DUP2 PUSH1 0x0 MSTORE PUSH1 0x20 MSTORE DUP2 PUSH1 0x40 PUSH1 0x0 KECCAK256 SLOAD LT PUSH2 0x2C34 JUMPI PUSH32 0xEF37DAC52E652A2F78CC3DF2429066B4D48A100F62255B7343F6396B3C2EEF81 SWAP2 PUSH2 0x7E7 SWAP2 CALLER PUSH1 0x0 MSTORE PUSH1 0xB PUSH1 0x20 MSTORE PUSH1 0x40 PUSH1 0x0 KECCAK256 SWAP1 PUSH1 0x0 MSTORE PUSH1 0x20 MSTORE PUSH1 0x40 PUSH1 0x0 KECCAK256 PUSH2 0x2BBA DUP3 DUP3 SLOAD PUSH2 0x3063 JUMP JUMPDEST SWAP1 SSTORE DUP5 PUSH1 0x0 MSTORE PUSH1 0x7 PUSH1 0x20 MSTORE PUSH1 0x40 PUSH1 0x0 KECCAK256 PUSH2 0xFFFF DUP6 AND PUSH1 0x0 MSTORE PUSH1 0x20 MSTORE PUSH1 0x3 PUSH1 0x40 PUSH1 0x0 KECCAK256 ADD PUSH2 0x2BE8 DUP3 DUP3 SLOAD PUSH2 0x3063 JUMP JUMPDEST SWAP1 SSTORE PUSH2 0x2C15 DUP2 CALLER PUSH32 0x0 PUSH2 0x408F JUMP JUMPDEST PUSH1 0x40 MLOAD SWAP2 DUP3 SWAP2 CALLER SWAP6 DUP4 PUSH1 0x20 SWAP1 SWAP4 SWAP3 SWAP2 SWAP4 PUSH2 0xFFFF PUSH1 0x40 DUP3 ADD SWAP6 AND DUP2 MSTORE ADD MSTORE JUMP JUMPDEST PUSH1 0x40 MLOAD PUSH3 0x461BCD PUSH1 0xE5 SHL DUP2 MSTORE PUSH1 0x20 PUSH1 0x4 DUP3 ADD MSTORE PUSH1 0x17 PUSH1 0x24 DUP3 ADD MSTORE PUSH32 0x496E73756666696369656E742064656C65676174696F6E000000000000000000 PUSH1 0x44 DUP3 ADD MSTORE PUSH1 0x64 SWAP1 REVERT JUMPDEST CALLVALUE PUSH2 0x31F JUMPI PUSH1 0x0 CALLDATASIZE PUSH1 0x3 NOT ADD SLT PUSH2 0x31F JUMPI PUSH1 0x20 PUSH1 0x11 SLOAD PUSH1 0x40 MLOAD SWAP1 DUP2 MSTORE RETURN JUMPDEST CALLVALUE PUSH2 0x31F JUMPI PUSH1 0x20 CALLDATASIZE PUSH1 0x3 NOT ADD SLT PUSH2 0x31F JUMPI PUSH2 0x2CB0 PUSH2 0x3FFB JUMP JUMPDEST PUSH1 0x4 CALLDATALOAD PUSH1 0x12 SSTORE STOP JUMPDEST CALLVALUE PUSH2 0x31F JUMPI PUSH1 0x40 CALLDATASIZE PUSH1 0x3 NOT ADD SLT PUSH2 0x31F JUMPI PUSH1 0x60 PUSH1 0x40 PUSH2 0x2CD5 PUSH2 0x2D5F JUMP JUMPDEST PUSH1 0x4 CALLDATALOAD PUSH1 0x0 MSTORE PUSH1 0xC PUSH1 0x20 MSTORE DUP2 PUSH1 0x0 KECCAK256 PUSH2 0xFFFF PUSH1 0x0 SWAP3 AND DUP3 MSTORE PUSH1 0x20 MSTORE KECCAK256 DUP1 SLOAD SWAP1 PUSH1 0xFF PUSH1 0x2 PUSH1 0x1 DUP4 ADD SLOAD SWAP3 ADD SLOAD AND SWAP1 PUSH1 0x40 MLOAD SWAP3 DUP4 MSTORE PUSH1 0x20 DUP4 ADD MSTORE ISZERO ISZERO PUSH1 0x40 DUP3 ADD MSTORE RETURN JUMPDEST CALLVALUE PUSH2 0x31F JUMPI PUSH1 0x20 CALLDATASIZE PUSH1 0x3 NOT ADD SLT PUSH2 0x31F JUMPI PUSH2 0x2D2F PUSH2 0x3FFB JUMP JUMPDEST PUSH2 0x2D5D PUSH1 0x4 CALLDATALOAD ADDRESS CALLER PUSH32 0x0 PUSH2 0x4024 JUMP JUMPDEST STOP JUMPDEST PUSH1 0x24 CALLDATALOAD SWAP1 PUSH2 0xFFFF DUP3 AND DUP3 SUB PUSH2 0x31F JUMPI JUMP JUMPDEST PUSH1 0x60 SWAP1 PUSH1 0x3 NOT ADD SLT PUSH2 0x31F JUMPI PUSH1 0x4 CALLDATALOAD SWAP1 PUSH1 0x24 CALLDATALOAD PUSH2 0xFFFF DUP2 AND DUP2 SUB PUSH2 0x31F JUMPI SWAP1 PUSH1 0x44 CALLDATALOAD SWAP1 JUMP JUMPDEST SWAP2 DUP2 PUSH1 0x1F DUP5 ADD SLT ISZERO PUSH2 0x31F JUMPI DUP3 CALLDATALOAD SWAP2 PUSH1 0x1 PUSH1 0x1 PUSH1 0x40 SHL SUB DUP4 GT PUSH2 0x31F JUMPI PUSH1 0x20 DUP1 DUP6 ADD SWAP5 DUP5 PUSH1 0x5 SHL ADD ADD GT PUSH2 0x31F JUMPI JUMP JUMPDEST PUSH1 0x24 CALLDATALOAD SWAP1 PUSH1 0x1 PUSH1 0x1 PUSH1 0xA0 SHL SUB DUP3 AND DUP3 SUB PUSH2 0x31F JUMPI JUMP JUMPDEST PUSH1 0x4 CALLDATALOAD SWAP1 PUSH1 0x1 PUSH1 0x1 PUSH1 0xA0 SHL SUB DUP3 AND DUP3 SUB PUSH2 0x31F JUMPI JUMP JUMPDEST SWAP1 PUSH1 0x2 DUP2 LT ISZERO PUSH2 0x554 JUMPI PUSH1 0x0 MSTORE PUSH1 0x20 MSTORE PUSH1 0x40 PUSH1 0x0 KECCAK256 SWAP1 JUMP JUMPDEST SWAP1 PUSH1 0x1 DUP3 DUP2 SHR SWAP3 AND DUP1 ISZERO PUSH2 0x2E39 JUMPI JUMPDEST PUSH1 0x20 DUP4 LT EQ PUSH2 0x2E23 JUMPI JUMP JUMPDEST PUSH4 0x4E487B71 PUSH1 0xE0 SHL PUSH1 0x0 MSTORE PUSH1 0x22 PUSH1 0x4 MSTORE PUSH1 0x24 PUSH1 0x0 REVERT JUMPDEST SWAP2 PUSH1 0x7F AND SWAP2 PUSH2 0x2E18 JUMP JUMPDEST PUSH1 0x40 DUP2 ADD SWAP1 DUP2 LT PUSH1 0x1 PUSH1 0x1 PUSH1 0x40 SHL SUB DUP3 GT OR PUSH2 0xB7E JUMPI PUSH1 0x40 MSTORE JUMP JUMPDEST PUSH2 0x180 DUP2 ADD SWAP1 DUP2 LT PUSH1 0x1 PUSH1 0x1 PUSH1 0x40 SHL SUB DUP3 GT OR PUSH2 0xB7E JUMPI PUSH1 0x40 MSTORE JUMP JUMPDEST SWAP1 PUSH1 0x1F DUP1 NOT SWAP2 ADD AND DUP2 ADD SWAP1 DUP2 LT PUSH1 0x1 PUSH1 0x1 PUSH1 0x40 SHL SUB DUP3 GT OR PUSH2 0xB7E JUMPI PUSH1 0x40 MSTORE JUMP JUMPDEST SWAP1 PUSH1 0x40 MLOAD SWAP2 DUP3 PUSH1 0x0 DUP3 SLOAD SWAP3 PUSH2 0x2EAF DUP5 PUSH2 0x2E09 JUMP JUMPDEST DUP1 DUP5 MSTORE SWAP4 PUSH1 0x1 DUP2 AND SWAP1 DUP2 ISZERO PUSH2 0x2F1D JUMPI POP PUSH1 0x1 EQ PUSH2 0x2ED6 JUMPI JUMPDEST POP PUSH2 0x2ED4 SWAP3 POP SUB DUP4 PUSH2 0x2E7A JUMP JUMPDEST JUMP JUMPDEST SWAP1 POP PUSH1 0x0 SWAP3 SWAP2 SWAP3 MSTORE PUSH1 0x20 PUSH1 0x0 KECCAK256 SWAP1 PUSH1 0x0 SWAP2 JUMPDEST DUP2 DUP4 LT PUSH2 0x2F01 JUMPI POP POP SWAP1 PUSH1 0x20 PUSH2 0x2ED4 SWAP3 DUP3 ADD ADD CODESIZE PUSH2 0x2EC7 JUMP JUMPDEST PUSH1 0x20 SWAP2 SWAP4 POP DUP1 PUSH1 0x1 SWAP2 SLOAD DUP4 DUP6 DUP10 ADD ADD MSTORE ADD SWAP2 ADD SWAP1 SWAP2 DUP5 SWAP3 PUSH2 0x2EE8 JUMP JUMPDEST SWAP1 POP PUSH1 0x20 SWAP3 POP PUSH2 0x2ED4 SWAP5 SWAP2 POP PUSH1 0xFF NOT AND DUP3 DUP5 ADD MSTORE ISZERO ISZERO PUSH1 0x5 SHL DUP3 ADD ADD CODESIZE PUSH2 0x2EC7 JUMP JUMPDEST SWAP2 SWAP1 DUP3 MLOAD SWAP3 DUP4 DUP3 MSTORE PUSH1 0x0 JUMPDEST DUP5 DUP2 LT PUSH2 0x2F6B JUMPI POP POP DUP3 PUSH1 0x0 PUSH1 0x20 DUP1 SWAP5 SWAP6 DUP5 ADD ADD MSTORE PUSH1 0x1F DUP1 NOT SWAP2 ADD AND ADD ADD SWAP1 JUMP JUMPDEST DUP1 PUSH1 0x20 DUP1 SWAP3 DUP5 ADD ADD MLOAD DUP3 DUP3 DUP7 ADD ADD MSTORE ADD PUSH2 0x2F4A JUMP JUMPDEST SWAP1 PUSH1 0x2 DUP3 LT ISZERO PUSH2 0x554 JUMPI MSTORE JUMP JUMPDEST SWAP2 DUP2 PUSH1 0x1F DUP5 ADD SLT ISZERO PUSH2 0x31F JUMPI DUP3 CALLDATALOAD SWAP2 PUSH1 0x1 PUSH1 0x1 PUSH1 0x40 SHL SUB DUP4 GT PUSH2 0x31F JUMPI PUSH1 0x20 DUP4 DUP2 DUP7 ADD SWAP6 ADD ADD GT PUSH2 0x31F JUMPI JUMP JUMPDEST SWAP1 PUSH1 0x20 DUP1 DUP4 MLOAD SWAP3 DUP4 DUP2 MSTORE ADD SWAP3 ADD SWAP1 PUSH1 0x0 JUMPDEST DUP2 DUP2 LT PUSH2 0x2FD8 JUMPI POP POP POP SWAP1 JUMP JUMPDEST DUP3 MLOAD PUSH1 0x1 PUSH1 0x1 PUSH1 0xA0 SHL SUB AND DUP5 MSTORE PUSH1 0x20 SWAP4 DUP5 ADD SWAP4 SWAP1 SWAP3 ADD SWAP2 PUSH1 0x1 ADD PUSH2 0x2FCB JUMP JUMPDEST SWAP1 PUSH1 0x20 DUP1 DUP4 MLOAD SWAP3 DUP4 DUP2 MSTORE ADD SWAP3 ADD SWAP1 PUSH1 0x0 JUMPDEST DUP2 DUP2 LT PUSH2 0x3015 JUMPI POP POP POP SWAP1 JUMP JUMPDEST DUP3 MLOAD DUP5 MSTORE PUSH1 0x20 SWAP4 DUP5 ADD SWAP4 SWAP1 SWAP3 ADD SWAP2 PUSH1 0x1 ADD PUSH2 0x3008 JUMP JUMPDEST SWAP1 PUSH1 0x20 DUP1 DUP4 MLOAD SWAP3 DUP4 DUP2 MSTORE ADD SWAP3 ADD SWAP1 PUSH1 0x0 JUMPDEST DUP2 DUP2 LT PUSH2 0x3049 JUMPI POP POP POP SWAP1 JUMP JUMPDEST DUP3 MLOAD PUSH2 0xFFFF AND DUP5 MSTORE PUSH1 0x20 SWAP4 DUP5 ADD SWAP4 SWAP1 SWAP3 ADD SWAP2 PUSH1 0x1 ADD PUSH2 0x303C JUMP JUMPDEST SWAP2 SWAP1 DUP3 SUB SWAP2 DUP3 GT PUSH2 0xAA6 JUMPI JUMP JUMPDEST ISZERO PUSH2 0x3077 JUMPI JUMP JUMPDEST PUSH1 0x40 MLOAD PUSH3 0x461BCD PUSH1 0xE5 SHL DUP2 MSTORE PUSH1 0x20 PUSH1 0x4 DUP3 ADD MSTORE PUSH1 0xF PUSH1 0x24 DUP3 ADD MSTORE PUSH15 0x98CADCCEE8D040DAD2E6DAC2E8C6D PUSH1 0x8B SHL PUSH1 0x44 DUP3 ADD MSTORE PUSH1 0x64 SWAP1 REVERT JUMPDEST ISZERO PUSH2 0x30B5 JUMPI JUMP JUMPDEST PUSH1 0x40 MLOAD PUSH3 0x461BCD PUSH1 0xE5 SHL DUP2 MSTORE PUSH1 0x20 PUSH1 0x4 DUP3 ADD MSTORE PUSH1 0xD PUSH1 0x24 DUP3 ADD MSTORE PUSH13 0x456D7074792077656967687473 PUSH1 0x98 SHL PUSH1 0x44 DUP3 ADD MSTORE PUSH1 0x64 SWAP1 REVERT JUMPDEST ISZERO PUSH2 0x30F1 JUMPI JUMP JUMPDEST PUSH1 0x40 MLOAD PUSH3 0x461BCD PUSH1 0xE5 SHL DUP2 MSTORE PUSH1 0x20 PUSH1 0x4 DUP3 ADD MSTORE PUSH1 0x14 PUSH1 0x24 DUP3 ADD MSTORE PUSH20 0x56616C696461746F72206E6F7420616374697665 PUSH1 0x60 SHL PUSH1 0x44 DUP3 ADD MSTORE PUSH1 0x64 SWAP1 REVERT JUMPDEST ISZERO PUSH2 0x3134 JUMPI JUMP JUMPDEST PUSH1 0x40 MLOAD PUSH3 0x461BCD PUSH1 0xE5 SHL DUP2 MSTORE PUSH1 0x20 PUSH1 0x4 DUP3 ADD MSTORE PUSH1 0xF PUSH1 0x24 DUP3 ADD MSTORE PUSH15 0x2737BA1030903B30B634B230BA37B9 PUSH1 0x89 SHL PUSH1 0x44 DUP3 ADD MSTORE PUSH1 0x64 SWAP1 REVERT JUMPDEST SWAP2 SWAP1 DUP2 LT ISZERO PUSH2 0x317B JUMPI PUSH1 0x5 SHL ADD SWAP1 JUMP JUMPDEST PUSH4 0x4E487B71 PUSH1 0xE0 SHL PUSH1 0x0 MSTORE PUSH1 0x32 PUSH1 0x4 MSTORE PUSH1 0x24 PUSH1 0x0 REVERT JUMPDEST CALLDATALOAD PUSH2 0xFFFF DUP2 AND DUP2 SUB PUSH2 0x31F JUMPI SWAP1 JUMP JUMPDEST ISZERO PUSH2 0x31A7 JUMPI JUMP JUMPDEST PUSH1 0x40 MLOAD PUSH3 0x461BCD PUSH1 0xE5 SHL DUP2 MSTORE PUSH1 0x20 PUSH1 0x4 DUP3 ADD MSTORE PUSH1 0xB PUSH1 0x24 DUP3 ADD MSTORE PUSH11 0x125B9D985B1A5908155251 PUSH1 0xAA SHL PUSH1 0x44 DUP3 ADD MSTORE PUSH1 0x64 SWAP1 REVERT JUMPDEST ISZERO PUSH2 0x31E1 JUMPI JUMP JUMPDEST PUSH1 0x40 MLOAD PUSH3 0x461BCD PUSH1 0xE5 SHL DUP2 MSTORE PUSH1 0x20 PUSH1 0x4 DUP3 ADD MSTORE PUSH1 0x11 PUSH1 0x24 DUP3 ADD MSTORE PUSH17 0x546172676574206E6F7420616374697665 PUSH1 0x78 SHL PUSH1 0x44 DUP3 ADD MSTORE PUSH1 0x64 SWAP1 REVERT JUMPDEST ISZERO PUSH2 0x3221 JUMPI JUMP JUMPDEST PUSH1 0x40 MLOAD PUSH3 0x461BCD PUSH1 0xE5 SHL DUP2 MSTORE PUSH1 0x20 PUSH1 0x4 DUP3 ADD MSTORE PUSH1 0x16 PUSH1 0x24 DUP3 ADD MSTORE PUSH22 0x43616E206F6E6C7920776569676874206D696E657273 PUSH1 0x50 SHL PUSH1 0x44 DUP3 ADD MSTORE PUSH1 0x64 SWAP1 REVERT JUMPDEST SWAP1 PUSH2 0x1388 DUP3 MUL SWAP2 DUP1 DUP4 DIV PUSH2 0x1388 EQ SWAP1 ISZERO OR ISZERO PUSH2 0xAA6 JUMPI JUMP JUMPDEST DUP2 DUP2 MUL SWAP3 SWAP2 DUP2 ISZERO SWAP2 DUP5 DIV EQ OR ISZERO PUSH2 0xAA6 JUMPI JUMP JUMPDEST DUP1 SLOAD SWAP1 PUSH1 0x0 DUP2 SSTORE DUP2 PUSH2 0x329A JUMPI POP POP JUMP JUMPDEST PUSH1 0x0 MSTORE PUSH1 0x20 PUSH1 0x0 KECCAK256 SWAP1 DUP2 ADD SWAP1 JUMPDEST DUP2 DUP2 LT PUSH2 0x32B2 JUMPI POP POP JUMP JUMPDEST PUSH1 0x0 DUP2 SSTORE PUSH1 0x1 ADD PUSH2 0x32A7 JUMP JUMPDEST DUP1 SLOAD DUP3 LT ISZERO PUSH2 0x317B JUMPI PUSH1 0x0 MSTORE PUSH1 0x20 PUSH1 0x0 KECCAK256 ADD SWAP1 PUSH1 0x0 SWAP1 JUMP JUMPDEST DUP1 SLOAD PUSH9 0x10000000000000000 DUP2 LT ISZERO PUSH2 0xB7E JUMPI PUSH2 0x32F8 SWAP2 PUSH1 0x1 DUP3 ADD DUP2 SSTORE PUSH2 0x32BE JUMP JUMPDEST SWAP2 SWAP1 SWAP2 PUSH2 0x332B JUMPI DUP1 MLOAD DUP3 SLOAD PUSH1 0x20 SWAP1 SWAP3 ADD MLOAD PUSH4 0xFFFFFFFF NOT SWAP1 SWAP3 AND PUSH2 0xFFFF SWAP2 SWAP1 SWAP2 AND OR PUSH1 0x10 SWAP2 SWAP1 SWAP2 SHL PUSH4 0xFFFF0000 AND OR SWAP1 SSTORE JUMP JUMPDEST PUSH4 0x4E487B71 PUSH1 0xE0 SHL PUSH1 0x0 MSTORE PUSH1 0x0 PUSH1 0x4 MSTORE PUSH1 0x24 PUSH1 0x0 REVERT JUMPDEST ISZERO PUSH2 0x3348 JUMPI JUMP JUMPDEST PUSH1 0x40 MLOAD PUSH3 0x461BCD PUSH1 0xE5 SHL DUP2 MSTORE PUSH1 0x20 PUSH1 0x4 DUP3 ADD MSTORE PUSH1 0xA PUSH1 0x24 DUP3 ADD MSTORE PUSH10 0x4E6F7420616374697665 PUSH1 0xB0 SHL PUSH1 0x44 DUP3 ADD MSTORE PUSH1 0x64 SWAP1 REVERT JUMPDEST SWAP2 SWAP1 DUP3 ADD DUP1 SWAP3 GT PUSH2 0xAA6 JUMPI JUMP JUMPDEST DUP2 ISZERO PUSH2 0x3391 JUMPI DIV SWAP1 JUMP JUMPDEST PUSH4 0x4E487B71 PUSH1 0xE0 SHL PUSH1 0x0 MSTORE PUSH1 0x12 PUSH1 0x4 MSTORE PUSH1 0x24 PUSH1 0x0 REVERT JUMPDEST SWAP1 DUP1 PUSH1 0x20 SWAP4 SWAP3 DUP2 DUP5 MSTORE DUP5 DUP5 ADD CALLDATACOPY PUSH1 0x0 DUP3 DUP3 ADD DUP5 ADD MSTORE PUSH1 0x1F ADD PUSH1 0x1F NOT AND ADD ADD SWAP1 JUMP JUMPDEST ISZERO PUSH2 0x33CF JUMPI JUMP JUMPDEST PUSH1 0x40 MLOAD PUSH3 0x461BCD PUSH1 0xE5 SHL DUP2 MSTORE PUSH1 0x20 PUSH1 0x4 DUP3 ADD MSTORE PUSH1 0xE PUSH1 0x24 DUP3 ADD MSTORE PUSH14 0x139BDD081C9959DA5CDD195C9959 PUSH1 0x92 SHL PUSH1 0x44 DUP3 ADD MSTORE PUSH1 0x64 SWAP1 REVERT JUMPDEST ISZERO PUSH2 0x340C JUMPI JUMP JUMPDEST PUSH1 0x40 MLOAD PUSH3 0x461BCD PUSH1 0xE5 SHL DUP2 MSTORE PUSH1 0x20 PUSH1 0x4 DUP3 ADD MSTORE PUSH1 0x11 PUSH1 0x24 DUP3 ADD MSTORE PUSH17 0x5375626E6574206E6F7420616374697665 PUSH1 0x78 SHL PUSH1 0x44 DUP3 ADD MSTORE PUSH1 0x64 SWAP1 REVERT JUMPDEST PUSH1 0x0 NOT DUP2 EQ PUSH2 0xAA6 JUMPI PUSH1 0x1 ADD SWAP1 JUMP JUMPDEST SWAP1 PUSH1 0x0 SWAP1 JUMPDEST DUP1 DUP3 LT PUSH2 0x3466 JUMPI POP POP POP SWAP1 JUMP JUMPDEST SWAP1 SWAP2 SWAP3 DUP4 CALLDATALOAD SWAP1 PUSH2 0xFFFF DUP3 AND DUP3 SUB PUSH2 0x31F JUMPI PUSH1 0x20 DUP1 SWAP2 PUSH2 0xFFFF PUSH1 0x1 SWAP5 AND DUP2 MSTORE ADD SWAP5 ADD SWAP3 ADD SWAP1 PUSH2 0x3459 JUMP JUMPDEST ISZERO PUSH2 0x3496 JUMPI JUMP JUMPDEST PUSH1 0x40 MLOAD PUSH3 0x461BCD PUSH1 0xE5 SHL DUP2 MSTORE PUSH1 0x20 PUSH1 0x4 DUP3 ADD MSTORE PUSH1 0xE PUSH1 0x24 DUP3 ADD MSTORE PUSH14 0x139BDD08185D5D1A1BDC9A5E9959 PUSH1 0x92 SHL PUSH1 0x44 DUP3 ADD MSTORE PUSH1 0x64 SWAP1 REVERT JUMPDEST PUSH1 0x1 PUSH1 0x1 PUSH1 0x40 SHL SUB DUP2 GT PUSH2 0xB7E JUMPI PUSH1 0x5 SHL PUSH1 0x20 ADD SWAP1 JUMP JUMPDEST SWAP1 PUSH2 0x34ED DUP3 PUSH2 0x34CC JUMP JUMPDEST PUSH2 0x34FA PUSH1 0x40 MLOAD SWAP2 DUP3 PUSH2 0x2E7A JUMP JUMPDEST DUP3 DUP2 MSTORE DUP1 SWAP3 PUSH2 0x350B PUSH1 0x1F NOT SWAP2 PUSH2 0x34CC JUMP JUMPDEST ADD SWAP1 PUSH1 0x20 CALLDATASIZE SWAP2 ADD CALLDATACOPY JUMP JUMPDEST PUSH2 0xFFFF AND PUSH2 0xFFFF DUP2 EQ PUSH2 0xAA6 JUMPI PUSH1 0x1 ADD SWAP1 JUMP JUMPDEST DUP1 MLOAD DUP3 LT ISZERO PUSH2 0x317B JUMPI PUSH1 0x20 SWAP2 PUSH1 0x5 SHL ADD ADD SWAP1 JUMP JUMPDEST SWAP1 DUP2 PUSH1 0x0 MSTORE PUSH1 0x6 PUSH1 0x20 MSTORE PUSH1 0x40 PUSH1 0x0 KECCAK256 SWAP2 PUSH2 0x355C PUSH1 0xFF PUSH1 0xA DUP6 ADD SLOAD AND PUSH2 0x3405 JUMP JUMPDEST PUSH1 0x5 DUP4 ADD SLOAD PUSH2 0x356F PUSH1 0x4 DUP6 ADD SLOAD DUP3 PUSH2 0x337A JUMP JUMPDEST NUMBER LT PUSH2 0x3FCA JUMPI PUSH1 0x8 DUP5 ADD SLOAD ISZERO PUSH2 0x3F9A JUMPI PUSH1 0x5 SLOAD DUP1 ISZERO PUSH2 0x3F60 JUMPI PUSH2 0x35AE PUSH2 0x35A3 PUSH2 0x359B PUSH2 0x35B3 SWAP5 NUMBER PUSH2 0x3063 JUMP JUMPDEST PUSH1 0x4 SLOAD PUSH2 0x3277 JUMP JUMPDEST PUSH1 0x3 DUP8 ADD SLOAD SWAP1 PUSH2 0x3277 JUMP JUMPDEST PUSH2 0x3387 JUMP JUMPDEST PUSH1 0x40 MLOAD PUSH4 0x70A08231 PUSH1 0xE0 SHL DUP2 MSTORE ADDRESS PUSH1 0x4 DUP3 ADD MSTORE SWAP1 SWAP3 SWAP1 PUSH1 0x20 DUP2 PUSH1 0x24 DUP2 PUSH32 0x0 PUSH1 0x1 PUSH1 0x1 PUSH1 0xA0 SHL SUB AND GAS STATICCALL SWAP1 DUP2 ISZERO PUSH2 0x3F54 JUMPI PUSH1 0x0 SWAP2 PUSH2 0x3F22 JUMPI JUMPDEST POP DUP1 DUP5 GT PUSH2 0x3F1A JUMPI JUMPDEST POP DUP3 ISZERO PUSH2 0x3F0E JUMPI PUSH1 0x9 DUP5 ADD SLOAD SWAP3 PUSH2 0x3629 DUP5 PUSH2 0x34E3 JUMP JUMPDEST SWAP2 PUSH1 0x0 SWAP2 PUSH2 0x3636 DUP7 PUSH2 0x34E3 JUMP JUMPDEST SWAP7 DUP4 JUMPDEST DUP8 PUSH2 0xFFFF DUP3 AND LT ISZERO PUSH2 0x3812 JUMPI DUP7 PUSH1 0x0 MSTORE PUSH1 0x7 PUSH1 0x20 MSTORE PUSH1 0x40 DUP1 PUSH1 0x0 KECCAK256 PUSH1 0x0 SWAP1 PUSH2 0xFFFF DUP5 AND DUP3 MSTORE PUSH1 0x20 MSTORE KECCAK256 PUSH1 0xFF PUSH1 0x5 DUP3 ADD SLOAD PUSH1 0x10 SHR AND ISZERO DUP1 ISZERO PUSH2 0x37F4 JUMPI JUMPDEST PUSH2 0x37EA JUMPI PUSH2 0x368C PUSH1 0x2 DUP3 ADD SLOAD PUSH1 0x3 DUP4 ADD SLOAD SWAP1 PUSH2 0x337A JUMP JUMPDEST DUP1 ISZERO PUSH2 0x37DF JUMPI PUSH2 0x36B1 PUSH1 0x7 PUSH2 0x36A9 PUSH8 0xDE0B6B3A7640000 SWAP4 PUSH2 0x40CA JUMP JUMPDEST SWAP4 ADD SLOAD PUSH2 0x325F JUMP JUMPDEST DIV PUSH2 0x2710 ADD SWAP1 DUP2 PUSH2 0x2710 GT PUSH2 0xAA6 JUMPI PUSH2 0x2710 SWAP2 PUSH2 0x36CD SWAP2 PUSH2 0x3277 JUMP JUMPDEST DIV DUP8 PUSH1 0x0 MSTORE PUSH1 0x8 PUSH1 0x20 MSTORE PUSH1 0x40 DUP1 PUSH1 0x0 KECCAK256 PUSH1 0x0 SWAP1 PUSH2 0xFFFF DUP6 AND DUP3 MSTORE PUSH1 0x20 MSTORE KECCAK256 SWAP1 PUSH1 0x0 SWAP2 DUP3 SWAP1 DUP1 SLOAD SWAP2 JUMPDEST DUP3 DUP2 LT PUSH2 0x37B8 JUMPI POP DUP4 ISZERO PUSH2 0x37AB JUMPI SWAP3 SWAP2 SWAP1 PUSH1 0x0 SWAP4 DUP5 SWAP4 JUMPDEST DUP12 DUP4 DUP7 LT PUSH2 0x3738 JUMPI POP POP POP POP POP POP SWAP1 PUSH2 0x3733 SWAP2 PUSH2 0x372D PUSH2 0xFFFF DUP4 AND DUP13 PUSH2 0x3528 JUMP JUMPDEST MSTORE PUSH2 0x3515 JUMP JUMPDEST PUSH2 0x3639 JUMP JUMPDEST PUSH2 0x377D PUSH2 0x379A DUP8 DUP1 SWAP10 SWAP15 PUSH2 0x37A0 SWAP5 PUSH2 0x3794 PUSH2 0xFFFF PUSH2 0x3774 DUP10 PUSH2 0x35AE DUP15 SWAP16 SWAP15 DUP14 SWAP15 SWAP16 PUSH2 0x3768 PUSH1 0x1 SWAP15 SWAP16 SWAP2 DUP8 SWAP3 PUSH2 0x32BE JUMP JUMPDEST POP SLOAD PUSH1 0x10 SHR AND SWAP1 PUSH2 0x3277 JUMP JUMPDEST SWAP7 DUP8 SWAP6 DUP13 PUSH2 0x32BE JUMP JUMPDEST POP SLOAD AND PUSH2 0x4DB DUP6 PUSH2 0x378E DUP4 DUP7 PUSH2 0x3528 JUMP JUMPDEST MLOAD PUSH2 0x337A JUMP JUMPDEST MSTORE PUSH2 0x337A JUMP JUMPDEST SWAP13 PUSH2 0x337A JUMP JUMPDEST SWAP6 ADD SWAP4 SWAP3 SWAP2 SWAP1 PUSH2 0x370C JUMP JUMPDEST POP POP POP POP PUSH2 0x3733 SWAP1 PUSH2 0x3515 JUMP JUMPDEST SWAP4 PUSH2 0x37D8 PUSH1 0x1 SWAP2 PUSH2 0xFFFF PUSH2 0x37CC DUP9 DUP7 PUSH2 0x32BE JUMP JUMPDEST POP SLOAD PUSH1 0x10 SHR AND SWAP1 PUSH2 0x337A JUMP JUMPDEST SWAP5 ADD PUSH2 0x36F5 JUMP JUMPDEST POP POP PUSH2 0x3733 SWAP1 PUSH2 0x3515 JUMP JUMPDEST POP PUSH2 0x3733 SWAP1 PUSH2 0x3515 JUMP JUMPDEST POP PUSH1 0xFF PUSH1 0x1 DUP3 ADD SLOAD PUSH1 0xA0 SHR AND PUSH1 0x2 DUP2 LT ISZERO PUSH2 0x554 JUMPI PUSH1 0x1 EQ ISZERO PUSH2 0x3675 JUMP JUMPDEST POP SWAP4 SWAP3 SWAP2 SWAP7 POP SWAP4 SWAP5 POP PUSH2 0x2008 DUP5 MUL DUP5 DUP2 DIV PUSH2 0x2008 SUB PUSH2 0xAA6 JUMPI PUSH2 0x2710 SWAP1 DIV DUP2 ISZERO ISZERO SWAP1 DUP2 PUSH2 0x3DCB JUMPI JUMPDEST POP PUSH2 0x708 DUP6 MUL DUP6 DUP2 DIV PUSH2 0x708 SUB PUSH2 0xAA6 JUMPI PUSH2 0x2710 SWAP1 DIV PUSH1 0x0 SWAP1 PUSH1 0x0 PUSH1 0x9 DUP8 ADD SLOAD SWAP1 JUMPDEST DUP2 PUSH2 0xFFFF DUP3 AND LT PUSH2 0x3D18 JUMPI POP POP DUP2 PUSH2 0x3C1E JUMPI JUMPDEST POP POP PUSH2 0x38B1 JUMPI JUMPDEST POP POP PUSH32 0x8B62A28F277757EB2F6F2F71863CBB10E1CE66D8BCFA14B5EBCBA332AB867331 SWAP2 PUSH1 0x40 SWAP2 PUSH1 0x5 NUMBER SWAP2 ADD SSTORE DUP2 MLOAD SWAP1 NUMBER DUP3 MSTORE PUSH1 0x20 DUP3 ADD MSTORE LOG2 JUMP JUMPDEST SWAP2 SWAP4 SWAP3 PUSH1 0x0 SWAP6 SWAP2 SWAP6 JUMPDEST PUSH1 0x9 DUP7 ADD SLOAD PUSH2 0xFFFF DUP3 AND LT ISZERO PUSH2 0x3C0E JUMPI DUP5 PUSH1 0x0 MSTORE PUSH1 0x7 PUSH1 0x20 MSTORE PUSH1 0x40 DUP1 PUSH1 0x0 KECCAK256 PUSH1 0x0 SWAP1 PUSH2 0xFFFF DUP5 AND DUP3 MSTORE PUSH1 0x20 MSTORE KECCAK256 SWAP1 PUSH1 0xFF PUSH1 0x5 DUP4 ADD SLOAD PUSH1 0x10 SHR AND ISZERO DUP1 ISZERO PUSH2 0x3BF0 JUMPI JUMPDEST PUSH2 0x3BE6 JUMPI DUP6 PUSH1 0x0 MSTORE PUSH1 0x8 PUSH1 0x20 MSTORE PUSH1 0x40 DUP1 PUSH1 0x0 KECCAK256 PUSH1 0x0 SWAP1 PUSH2 0xFFFF DUP5 AND DUP3 MSTORE PUSH1 0x20 MSTORE KECCAK256 DUP1 SLOAD ISZERO PUSH2 0x3B36 JUMPI DUP1 SLOAD PUSH1 0x0 SWAP2 DUP3 JUMPDEST DUP3 DUP2 LT PUSH2 0x3B17 JUMPI POP PUSH1 0x0 SWAP3 DUP4 SWAP3 DUP5 SWAP3 JUMPDEST DUP2 DUP5 LT PUSH2 0x3A50 JUMPI POP PUSH1 0x0 SWAP3 POP POP DUP3 ISZERO SWAP1 POP PUSH2 0x3A48 JUMPI POP PUSH8 0xDE0B6B3A7640000 DUP3 MUL SWAP2 DUP1 DUP4 DIV PUSH8 0xDE0B6B3A7640000 EQ SWAP1 ISZERO OR ISZERO PUSH2 0xAA6 JUMPI PUSH2 0x397A SWAP2 PUSH2 0x3387 JUMP JUMPDEST PUSH1 0x7 DUP4 ADD SWAP1 DUP2 SLOAD PUSH1 0x46 DUP2 MUL SWAP1 DUP1 DUP3 DIV PUSH1 0x46 EQ SWAP1 ISZERO OR ISZERO PUSH2 0xAA6 JUMPI PUSH1 0x1E DUP3 MUL SWAP5 DUP3 DUP7 DIV PUSH1 0x1E EQ DUP4 ISZERO OR ISZERO PUSH2 0xAA6 JUMPI PUSH1 0x64 PUSH2 0x39B8 PUSH2 0x3A43 SWAP8 PUSH1 0x9 SWAP5 PUSH2 0x337A JUMP JUMPDEST DIV DUP1 SWAP5 SSTORE DUP10 PUSH32 0x41E0549644E0A71255B7ED60362E6A3B2A3D5B8B00A6A7CB1B205F14E2528D08 PUSH1 0x40 MLOAD DUP1 PUSH2 0x39FE DUP9 DUP11 DUP4 PUSH1 0x20 SWAP1 SWAP4 SWAP3 SWAP2 SWAP4 PUSH2 0xFFFF PUSH1 0x40 DUP3 ADD SWAP6 AND DUP2 MSTORE ADD MSTORE JUMP JUMPDEST SUB SWAP1 LOG2 ADD SLOAD PUSH1 0x40 MLOAD SWAP3 DUP4 MSTORE PUSH1 0x20 DUP4 ADD MSTORE PUSH1 0x40 DUP3 ADD MSTORE DUP7 PUSH32 0x70081BB37524D6436E9F431AF67096C6878E6C5DAF03FE827E65B73168DB6398 PUSH1 0x60 PUSH2 0xFFFF DUP6 AND SWAP4 LOG3 PUSH2 0x3515 JUMP JUMPDEST PUSH2 0x38BA JUMP JUMPDEST SWAP2 POP POP PUSH2 0x397A JUMP JUMPDEST SWAP1 SWAP2 SWAP3 SWAP4 SWAP5 PUSH2 0xFFFF PUSH2 0x3A62 DUP7 DUP5 PUSH2 0x32BE JUMP JUMPDEST POP SLOAD PUSH1 0x10 SHR AND DUP1 PUSH8 0xDE0B6B3A7640000 DUP2 MUL DIV PUSH8 0xDE0B6B3A7640000 EQ DUP2 ISZERO OR ISZERO PUSH2 0xAA6 JUMPI PUSH2 0x3AB7 DUP16 SWAP2 DUP7 PUSH8 0xDE0B6B3A7640000 PUSH2 0x3AA0 SWAP3 MUL PUSH2 0x3387 JUMP JUMPDEST SWAP2 PUSH2 0xFFFF PUSH2 0x3AAE DUP10 DUP8 PUSH2 0x32BE JUMP JUMPDEST POP SLOAD AND SWAP1 PUSH2 0x3528 JUMP JUMPDEST MLOAD SWAP1 PUSH8 0xDE0B6B3A7640000 DUP3 MUL SWAP2 DUP1 DUP4 DIV PUSH8 0xDE0B6B3A7640000 EQ SWAP1 ISZERO OR ISZERO PUSH2 0xAA6 JUMPI PUSH1 0x1 SWAP3 DUP2 PUSH2 0x3AEB DUP16 PUSH2 0x3B02 SWAP6 PUSH2 0x3387 JUMP JUMPDEST DUP1 DUP3 GT PUSH2 0x3B0C JUMPI POP PUSH2 0x3AFC SWAP2 PUSH2 0x337A JUMP JUMPDEST SWAP8 PUSH2 0x337A JUMP JUMPDEST SWAP5 ADD SWAP3 SWAP2 SWAP1 PUSH2 0x393A JUMP JUMPDEST SWAP1 POP PUSH2 0x3AFC SWAP2 PUSH2 0x337A JUMP JUMPDEST SWAP1 SWAP2 SWAP3 PUSH2 0x3B2D PUSH1 0x1 SWAP2 PUSH2 0xFFFF PUSH2 0x37CC DUP6 DUP8 PUSH2 0x32BE JUMP JUMPDEST SWAP4 SWAP3 SWAP2 ADD PUSH2 0x392A JUMP JUMPDEST POP PUSH1 0x7 DUP3 ADD DUP1 SLOAD PUSH1 0x5F DUP2 MUL SWAP1 DUP1 DUP3 DIV PUSH1 0x5F EQ SWAP1 ISZERO OR ISZERO PUSH2 0xAA6 JUMPI PUSH2 0x3A43 SWAP4 PUSH1 0x64 PUSH1 0x9 SWAP3 DIV DUP1 SWAP4 SSTORE DUP9 PUSH32 0x41E0549644E0A71255B7ED60362E6A3B2A3D5B8B00A6A7CB1B205F14E2528D08 PUSH1 0x40 MLOAD DUP1 PUSH2 0x3B9F DUP8 DUP10 DUP4 PUSH1 0x20 SWAP1 SWAP4 SWAP3 SWAP2 SWAP4 PUSH2 0xFFFF PUSH1 0x40 DUP3 ADD SWAP6 AND DUP2 MSTORE ADD MSTORE JUMP JUMPDEST SUB SWAP1 LOG2 ADD SLOAD PUSH1 0x40 MLOAD SWAP2 DUP3 MSTORE PUSH1 0x20 DUP3 ADD MSTORE PUSH1 0x0 PUSH1 0x40 DUP3 ADD MSTORE DUP7 PUSH32 0x70081BB37524D6436E9F431AF67096C6878E6C5DAF03FE827E65B73168DB6398 PUSH1 0x60 PUSH2 0xFFFF DUP6 AND SWAP4 LOG3 PUSH2 0x3515 JUMP JUMPDEST PUSH2 0x3A43 SWAP2 POP PUSH2 0x3515 JUMP JUMPDEST POP PUSH1 0xFF PUSH1 0x1 DUP4 ADD SLOAD PUSH1 0xA0 SHR AND PUSH1 0x2 DUP2 LT ISZERO PUSH2 0x554 JUMPI PUSH1 0x1 EQ ISZERO PUSH2 0x38FB JUMP JUMPDEST POP SWAP1 SWAP5 POP SWAP2 SWAP3 SWAP1 POP DUP2 PUSH1 0x40 PUSH2 0x3876 JUMP JUMPDEST SWAP6 SWAP3 PUSH1 0x0 SWAP9 SWAP5 SWAP2 SWAP9 SWAP8 SWAP6 SWAP3 SWAP8 JUMPDEST PUSH1 0x9 DUP5 ADD SLOAD PUSH2 0xFFFF DUP3 AND LT ISZERO PUSH2 0x3D08 JUMPI DUP7 PUSH1 0x0 MSTORE PUSH1 0x7 PUSH1 0x20 MSTORE PUSH1 0x40 DUP1 PUSH1 0x0 KECCAK256 PUSH1 0x0 SWAP1 PUSH2 0xFFFF DUP5 AND DUP3 MSTORE PUSH1 0x20 MSTORE KECCAK256 SWAP1 PUSH1 0xFF PUSH1 0x5 DUP4 ADD SLOAD PUSH1 0x10 SHR AND DUP1 PUSH2 0x3CEB JUMPI JUMPDEST PUSH2 0x3C7E JUMPI JUMPDEST PUSH2 0x3C79 SWAP2 POP PUSH2 0x3515 JUMP JUMPDEST PUSH2 0x3C2B JUMP JUMPDEST PUSH2 0x3C91 PUSH1 0x2 DUP4 ADD SLOAD PUSH1 0x3 DUP5 ADD SLOAD SWAP1 PUSH2 0x337A JUMP JUMPDEST SWAP2 PUSH8 0xDE0B6B3A7640000 PUSH2 0x3CA8 PUSH1 0x7 DUP4 ADD SLOAD PUSH2 0x325F JUMP JUMPDEST DIV PUSH2 0x2710 ADD DUP1 PUSH2 0x2710 GT PUSH2 0xAA6 JUMPI PUSH1 0x9 PUSH2 0x3CDA DUP15 PUSH2 0x35AE DUP15 PUSH2 0x2710 PUSH2 0x3CD3 PUSH2 0x3CE4 SWAP8 PUSH2 0x3C79 SWAP12 PUSH2 0x3277 JUMP JUMPDEST DIV SWAP1 PUSH2 0x3277 JUMP JUMPDEST SWAP3 ADD SWAP2 DUP3 SLOAD PUSH2 0x337A JUMP JUMPDEST SWAP1 SSTORE PUSH2 0x3C6F JUMP JUMPDEST POP PUSH1 0xFF PUSH1 0x1 DUP4 ADD SLOAD PUSH1 0xA0 SHR AND PUSH1 0x2 DUP2 LT ISZERO PUSH2 0x554 JUMPI PUSH1 0x1 EQ PUSH2 0x3C6A JUMP JUMPDEST POP SWAP3 SWAP6 POP SWAP3 SWAP7 POP SWAP3 SWAP5 CODESIZE DUP1 PUSH2 0x386F JUMP JUMPDEST DUP10 PUSH1 0x0 MSTORE PUSH1 0x7 PUSH1 0x20 MSTORE PUSH1 0x40 DUP1 PUSH1 0x0 KECCAK256 PUSH1 0x0 SWAP1 PUSH2 0xFFFF DUP5 AND DUP3 MSTORE PUSH1 0x20 MSTORE KECCAK256 PUSH1 0xFF PUSH1 0x5 DUP3 ADD SLOAD PUSH1 0x10 SHR AND DUP1 PUSH2 0x3DAE JUMPI JUMPDEST PUSH2 0x3D5A JUMPI JUMPDEST POP PUSH2 0x3D55 SWAP1 PUSH2 0x3515 JUMP JUMPDEST PUSH2 0x385C JUMP JUMPDEST PUSH8 0xDE0B6B3A7640000 PUSH2 0x3D7E PUSH1 0x7 PUSH2 0x36A9 PUSH1 0x2 DUP6 SWAP10 SWAP7 SWAP10 ADD SLOAD PUSH1 0x3 DUP7 ADD SLOAD SWAP1 PUSH2 0x337A JUMP JUMPDEST DIV PUSH2 0x2710 ADD SWAP2 DUP3 PUSH2 0x2710 GT PUSH2 0xAA6 JUMPI PUSH2 0x2710 PUSH2 0x3DA0 PUSH2 0x3D55 SWAP5 PUSH2 0x3DA7 SWAP5 PUSH2 0x3277 JUMP JUMPDEST DIV SWAP1 PUSH2 0x337A JUMP JUMPDEST SWAP4 SWAP1 PUSH2 0x3D4B JUMP JUMPDEST POP PUSH1 0xFF PUSH1 0x1 DUP3 ADD SLOAD PUSH1 0xA0 SHR AND PUSH1 0x2 DUP2 LT ISZERO PUSH2 0x554 JUMPI PUSH1 0x1 EQ PUSH2 0x3D46 JUMP JUMPDEST SWAP2 SWAP3 SWAP5 PUSH1 0x0 SWAP8 SWAP2 SWAP8 SWAP7 SWAP5 SWAP7 JUMPDEST PUSH1 0x9 DUP9 ADD SLOAD SWAP1 PUSH2 0xFFFF DUP2 AND SWAP2 DUP3 LT ISZERO PUSH2 0x3EFE JUMPI PUSH2 0x3DF4 DUP3 DUP10 PUSH2 0x3528 JUMP JUMPDEST MLOAD ISZERO ISZERO DUP1 PUSH2 0x3ED5 JUMPI JUMPDEST PUSH2 0x3E11 JUMPI JUMPDEST PUSH2 0x3E0C SWAP2 POP PUSH2 0x3515 JUMP JUMPDEST PUSH2 0x3DD7 JUMP JUMPDEST PUSH2 0x3E29 DUP7 PUSH2 0x35AE PUSH2 0x3E22 DUP6 DUP13 PUSH2 0x3528 JUMP JUMPDEST MLOAD DUP9 PUSH2 0x3277 JUMP JUMPDEST DUP8 PUSH1 0x0 MSTORE PUSH1 0x7 PUSH1 0x20 MSTORE PUSH1 0x9 PUSH1 0x40 DUP1 PUSH1 0x0 KECCAK256 PUSH1 0x0 SWAP1 DUP7 DUP3 MSTORE PUSH1 0x20 MSTORE KECCAK256 ADD PUSH2 0x3E50 DUP3 DUP3 SLOAD PUSH2 0x337A JUMP JUMPDEST SWAP1 SSTORE PUSH2 0x3E5C DUP4 DUP11 PUSH2 0x3528 JUMP JUMPDEST MLOAD PUSH8 0xDE0B6B3A7640000 DUP2 MUL SWAP1 DUP1 DUP3 DIV PUSH8 0xDE0B6B3A7640000 EQ SWAP1 ISZERO OR ISZERO PUSH2 0xAA6 JUMPI PUSH1 0x6 PUSH1 0x40 PUSH2 0x3E0C SWAP6 PUSH2 0x3E93 DUP12 PUSH2 0x3ECE SWAP6 PUSH2 0x3387 JUMP JUMPDEST DUP13 PUSH1 0x0 MSTORE PUSH1 0x7 PUSH1 0x20 MSTORE PUSH1 0x8 DUP4 DUP1 PUSH1 0x0 KECCAK256 PUSH1 0x0 SWAP1 DUP6 DUP3 MSTORE PUSH1 0x20 MSTORE KECCAK256 ADD SSTORE DUP12 PUSH1 0x0 MSTORE PUSH1 0x7 PUSH1 0x20 MSTORE DUP2 PUSH1 0x0 KECCAK256 PUSH1 0x0 SWAP2 DUP3 MSTORE PUSH1 0x20 MSTORE KECCAK256 ADD SWAP2 DUP3 SLOAD PUSH2 0x337A JUMP JUMPDEST SWAP1 SSTORE PUSH2 0x3E02 JUMP JUMPDEST POP DUP7 PUSH1 0x0 MSTORE PUSH1 0x7 PUSH1 0x20 MSTORE PUSH1 0xFF PUSH1 0x5 PUSH1 0x40 DUP1 PUSH1 0x0 KECCAK256 PUSH1 0x0 SWAP1 DUP7 DUP3 MSTORE PUSH1 0x20 MSTORE KECCAK256 ADD SLOAD PUSH1 0x10 SHR AND PUSH2 0x3DFD JUMP JUMPDEST POP POP SWAP5 SWAP3 SWAP2 POP SWAP6 SWAP5 SWAP3 SWAP5 CODESIZE PUSH2 0x383A JUMP JUMPDEST SWAP3 SWAP2 POP POP PUSH1 0x5 NUMBER SWAP2 ADD SSTORE JUMP JUMPDEST SWAP3 POP CODESIZE PUSH2 0x3613 JUMP JUMPDEST SWAP1 POP PUSH1 0x20 DUP2 RETURNDATASIZE PUSH1 0x20 GT PUSH2 0x3F4C JUMPI JUMPDEST DUP2 PUSH2 0x3F3D PUSH1 0x20 SWAP4 DUP4 PUSH2 0x2E7A JUMP JUMPDEST DUP2 ADD SUB SLT PUSH2 0x31F JUMPI MLOAD CODESIZE PUSH2 0x360A JUMP JUMPDEST RETURNDATASIZE SWAP2 POP PUSH2 0x3F30 JUMP JUMPDEST PUSH1 0x40 MLOAD RETURNDATASIZE PUSH1 0x0 DUP3 RETURNDATACOPY RETURNDATASIZE SWAP1 REVERT JUMPDEST PUSH1 0x40 MLOAD PUSH3 0x461BCD PUSH1 0xE5 SHL DUP2 MSTORE PUSH1 0x20 PUSH1 0x4 DUP3 ADD MSTORE PUSH1 0x12 PUSH1 0x24 DUP3 ADD MSTORE PUSH18 0x4E6F20656D697373696F6E20736861726573 PUSH1 0x70 SHL PUSH1 0x44 DUP3 ADD MSTORE PUSH1 0x64 SWAP1 REVERT JUMPDEST PUSH1 0x40 MLOAD PUSH3 0x461BCD PUSH1 0xE5 SHL DUP2 MSTORE PUSH1 0x20 PUSH1 0x4 DUP3 ADD MSTORE PUSH1 0x8 PUSH1 0x24 DUP3 ADD MSTORE PUSH8 0x4E6F206E6F646573 PUSH1 0xC0 SHL PUSH1 0x44 DUP3 ADD MSTORE PUSH1 0x64 SWAP1 REVERT JUMPDEST PUSH1 0x40 MLOAD PUSH3 0x461BCD PUSH1 0xE5 SHL DUP2 MSTORE PUSH1 0x20 PUSH1 0x4 DUP3 ADD MSTORE PUSH1 0x9 PUSH1 0x24 DUP3 ADD MSTORE PUSH9 0x546F6F206561726C79 PUSH1 0xB8 SHL PUSH1 0x44 DUP3 ADD MSTORE PUSH1 0x64 SWAP1 REVERT JUMPDEST PUSH1 0x0 SLOAD PUSH1 0x1 PUSH1 0x1 PUSH1 0xA0 SHL SUB AND CALLER SUB PUSH2 0x400F JUMPI JUMP JUMPDEST PUSH4 0x118CDAA7 PUSH1 0xE0 SHL PUSH1 0x0 MSTORE CALLER PUSH1 0x4 MSTORE PUSH1 0x24 PUSH1 0x0 REVERT JUMPDEST PUSH1 0x40 MLOAD PUSH4 0x23B872DD PUSH1 0xE0 SHL PUSH1 0x20 DUP3 ADD MSTORE PUSH1 0x1 PUSH1 0x1 PUSH1 0xA0 SHL SUB SWAP3 DUP4 AND PUSH1 0x24 DUP3 ADD MSTORE SWAP3 SWAP1 SWAP2 AND PUSH1 0x44 DUP4 ADD MSTORE PUSH1 0x64 DUP1 DUP4 ADD SWAP4 SWAP1 SWAP4 MSTORE SWAP2 DUP2 MSTORE PUSH2 0x2ED4 SWAP2 PUSH2 0x4068 PUSH1 0x84 DUP4 PUSH2 0x2E7A JUMP JUMPDEST PUSH2 0x4111 JUMP JUMPDEST PUSH1 0x2 PUSH1 0x1 SLOAD EQ PUSH2 0x407E JUMPI PUSH1 0x2 PUSH1 0x1 SSTORE JUMP JUMPDEST PUSH4 0x3EE5AEB5 PUSH1 0xE0 SHL PUSH1 0x0 MSTORE PUSH1 0x4 PUSH1 0x0 REVERT JUMPDEST PUSH1 0x40 MLOAD PUSH4 0xA9059CBB PUSH1 0xE0 SHL PUSH1 0x20 DUP3 ADD MSTORE PUSH1 0x1 PUSH1 0x1 PUSH1 0xA0 SHL SUB SWAP1 SWAP3 AND PUSH1 0x24 DUP4 ADD MSTORE PUSH1 0x44 DUP1 DUP4 ADD SWAP4 SWAP1 SWAP4 MSTORE SWAP2 DUP2 MSTORE PUSH2 0x2ED4 SWAP2 PUSH2 0x4068 PUSH1 0x64 DUP4 PUSH2 0x2E7A JUMP JUMPDEST DUP1 ISZERO PUSH2 0x410B JUMPI PUSH1 0x1 DUP2 ADD DUP1 DUP3 GT PUSH2 0xAA6 JUMPI PUSH1 0x1 SHR DUP2 JUMPDEST DUP3 DUP3 LT PUSH2 0x40EC JUMPI POP POP SWAP1 JUMP JUMPDEST SWAP1 SWAP2 POP PUSH2 0x4102 DUP3 PUSH2 0x40FD DUP2 DUP5 PUSH2 0x3387 JUMP JUMPDEST PUSH2 0x337A JUMP JUMPDEST PUSH1 0x1 SHR SWAP1 PUSH2 0x40E0 JUMP JUMPDEST POP PUSH1 0x0 SWAP1 JUMP JUMPDEST SWAP1 PUSH1 0x0 PUSH1 0x20 SWAP2 DUP3 DUP2 MLOAD SWAP2 ADD DUP3 DUP6 GAS CALL ISZERO PUSH2 0x3F54 JUMPI PUSH1 0x0 MLOAD RETURNDATASIZE PUSH2 0x4163 JUMPI POP PUSH1 0x1 PUSH1 0x1 PUSH1 0xA0 SHL SUB DUP2 AND EXTCODESIZE ISZERO JUMPDEST PUSH2 0x4142 JUMPI POP JUMP JUMPDEST PUSH4 0x5274AFE7 PUSH1 0xE0 SHL PUSH1 0x0 SWAP1 DUP2 MSTORE PUSH1 0x1 PUSH1 0x1 PUSH1 0xA0 SHL SUB SWAP2 SWAP1 SWAP2 AND PUSH1 0x4 MSTORE PUSH1 0x24 SWAP1 REVERT JUMPDEST PUSH1 0x1 EQ ISZERO PUSH2 0x413B JUMP INVALID LOG2 PUSH5 0x6970667358 0x22 SLT KECCAK256 0xC4 DUP13 XOR JUMPDEST SWAP14 PUSH30 0x5AD92942FA92B635FAEA2FBD35562EA85834C9D10B0DB35278264736F6C PUSH4 0x4300081C STOP CALLER "},"methodIdentifiers":{"TRUST_MULTIPLIER_BASE()":"f6ec03f1","TRUST_MULTIPLIER_MAX()":"ed23dcba","autoSlashInactive(uint256,uint16)":"3a05eaa9","claimEmission(uint256,uint16)":"1caa9070","coldkeyNodeType(uint256,address,uint8)":"43219f03","commitMinDelay()":"cc2d54c4","commitRevealWindow()":"1aefa1b6","commitWeights(uint256,bytes32)":"dfbeffff","createSubnet(string,uint256,uint256,uint256)":"f39e9f4b","delegate(uint256,uint16,uint256)":"f46e1e1f","delegations(address,bytes32)":"b53c39b4","deregisterNode(uint256,uint16)":"9e1611bf","emissionPerBlock()":"c95986a2","fundEmissionPool(uint256)":"13476085","getDelegation(address,uint256,uint16)":"5071b891","getMetagraph(uint256)":"fa613958","getNode(uint256,uint16)":"d2d98509","getSubnet(uint256)":"58ca7504","getSubnetCount()":"3d5316dd","getTrust(uint256,uint16)":"c0843eeb","getUidByHotkey(uint256,address)":"7339e881","getValidatorScore(uint256,uint16)":"c113c311","getWeights(uint256,uint16)":"fffc4bbf","hotkeyToUid(uint256,address)":"2b4b3753","isRegistered(uint256,address)":"b81f6e18","maxWeightAge()":"8272f0b8","nextNetuid()":"14511bf7","nodes(uint256,uint16)":"617078fb","owner()":"8da5cb5b","registerNode(uint256,address,uint8,uint256)":"75e6ee17","renounceOwnership()":"715018a6","revealWeights(uint256,uint16[],uint16[],bytes32)":"842443dc","runEpoch(uint256)":"e485c04c","setCommitMinDelay(uint256)":"1602ab29","setCommitRevealWindow(uint256)":"d19e2ce8","setEmissionPerBlock(uint256)":"710fe5cd","setMaxWeightAge(uint256)":"bddee43c","setSlashPercentage(uint256)":"393ebbf8","setSubnetRegistrationCost(uint256)":"46a655af","setWeights(uint256,uint16,uint16[],uint16[])":"2aaa86aa","setZkmlVerifier(address)":"a4ce91c6","slashNode(uint256,uint16,uint256,string)":"6b54b309","slashPercentage()":"bd58199a","subnetRegistrationCost()":"9e793787","subnets(uint256)":"475726f7","token()":"fc0c546a","totalEmissionShares()":"4a77ac98","transferOwnership(address)":"f2fde38b","undelegate(uint256,uint16,uint256)":"1ba60b70","updateSubnet(uint256,uint256,uint256,uint256,uint256)":"dec74f18","weightCommits(uint256,uint16)":"14d59888","zkmlVerifier()":"3c813394"}}}}}