{"src/SubnetRegistry.sol":{"SubnetRegistry":{"abi":[{"inputs":[{"internalType":"address","name":"_token","type":"address"},{"internalType":"uint256","name":"_subnetRegistrationCost","type":"uint256"},{"internalType":"uint256","name":"_emissionPerBlock","type":"uint256"}],"stateMutability":"nonpayable","type":"constructor"},{"inputs":[{"internalType":"address","name":"owner","type":"address"}],"name":"OwnableInvalidOwner","type":"error"},{"inputs":[{"internalType":"address","name":"account","type":"address"}],"name":"OwnableUnauthorizedAccount","type":"error"},{"inputs":[],"name":"ReentrancyGuardReentrantCall","type":"error"},{"inputs":[{"internalType":"address","name":"token","type":"address"}],"name":"SafeERC20FailedOperation","type":"error"},{"anonymous":false,"inputs":[{"indexed":true,"internalType":"uint256","name":"netuid","type":"uint256"},{"indexed":false,"internalType":"uint16","name":"uid","type":"uint16"},{"indexed":true,"internalType":"address","name":"coldkey","type":"address"},{"indexed":false,"internalType":"uint256","name":"delegatedStake","type":"uint256"}],"name":"DelegatedStakeWarning","type":"event"},{"anonymous":false,"inputs":[{"indexed":true,"internalType":"uint256","name":"netuid","type":"uint256"},{"indexed":false,"internalType":"uint16","name":"uid","type":"uint16"},{"indexed":true,"internalType":"address","name":"hotkey","type":"address"},{"indexed":false,"internalType":"uint256","name":"amount","type":"uint256"}],"name":"EmissionClaimed","type":"event"},{"anonymous":false,"inputs":[{"indexed":true,"internalType":"uint256","name":"netuid","type":"uint256"},{"indexed":false,"internalType":"uint256","name":"oldShare","type":"uint256"},{"indexed":false,"internalType":"uint256","name":"newShare","type":"uint256"}],"name":"EmissionShareUpdated","type":"event"},{"anonymous":false,"inputs":[{"indexed":true,"internalType":"uint256","name":"netuid","type":"uint256"},{"indexed":false,"internalType":"uint256","name":"blockNumber","type":"uint256"},{"indexed":false,"internalType":"uint256","name":"totalEmission","type":"uint256"}],"name":"EpochCompleted","type":"event"},{"anonymous":false,"inputs":[{"indexed":true,"internalType":"uint256","name":"netuid","type":"uint256"},{"indexed":false,"internalType":"uint16","name":"uid","type":"uint16"},{"indexed":true,"internalType":"address","name":"hotkey","type":"address"}],"name":"NodeDeregistered","type":"event"},{"anonymous":false,"inputs":[{"indexed":true,"internalType":"uint256","name":"netuid","type":"uint256"},{"indexed":false,"internalType":"uint16","name":"uid","type":"uint16"},{"indexed":true,"internalType":"address","name":"hotkey","type":"address"},{"indexed":true,"internalType":"address","name":"coldkey","type":"address"},{"indexed":false,"internalType":"enum SubnetRegistry.NodeType","name":"nodeType","type":"uint8"}],"name":"NodeRegistered","type":"event"},{"anonymous":false,"inputs":[{"indexed":true,"internalType":"uint256","name":"netuid","type":"uint256"},{"indexed":false,"internalType":"uint16","name":"uid","type":"uint16"},{"indexed":false,"internalType":"uint256","name":"amount","type":"uint256"},{"indexed":false,"internalType":"string","name":"reason","type":"string"}],"name":"NodeSlashed","type":"event"},{"anonymous":false,"inputs":[{"indexed":true,"internalType":"address","name":"previousOwner","type":"address"},{"indexed":true,"internalType":"address","name":"newOwner","type":"address"}],"name":"OwnershipTransferred","type":"event"},{"anonymous":false,"inputs":[{"indexed":true,"internalType":"address","name":"delegator","type":"address"},{"indexed":true,"internalType":"uint256","name":"netuid","type":"uint256"},{"indexed":false,"internalType":"uint16","name":"validatorUid","type":"uint16"},{"indexed":false,"internalType":"uint256","name":"amount","type":"uint256"}],"name":"StakeDelegated","type":"event"},{"anonymous":false,"inputs":[{"indexed":true,"internalType":"address","name":"delegator","type":"address"},{"indexed":true,"internalType":"uint256","name":"netuid","type":"uint256"},{"indexed":false,"internalType":"uint16","name":"validatorUid","type":"uint16"},{"indexed":false,"internalType":"uint256","name":"amount","type":"uint256"}],"name":"StakeUndelegated","type":"event"},{"anonymous":false,"inputs":[{"indexed":true,"internalType":"uint256","name":"netuid","type":"uint256"},{"indexed":false,"internalType":"string","name":"name","type":"string"},{"indexed":true,"internalType":"address","name":"owner","type":"address"}],"name":"SubnetCreated","type":"event"},{"anonymous":false,"inputs":[{"indexed":true,"internalType":"uint256","name":"netuid","type":"uint256"},{"indexed":false,"internalType":"string","name":"name","type":"string"}],"name":"SubnetUpdated","type":"event"},{"anonymous":false,"inputs":[{"indexed":true,"internalType":"uint256","name":"netuid","type":"uint256"},{"indexed":false,"internalType":"uint16","name":"uid","type":"uint16"},{"indexed":false,"internalType":"uint256","name":"newTrust","type":"uint256"}],"name":"TrustUpdated","type":"event"},{"anonymous":false,"inputs":[{"indexed":true,"internalType":"uint256","name":"netuid","type":"uint256"},{"indexed":true,"internalType":"uint16","name":"uid","type":"uint16"},{"indexed":false,"internalType":"uint256","name":"trust","type":"uint256"},{"indexed":false,"internalType":"uint256","name":"emission","type":"uint256"},{"indexed":false,"internalType":"uint256","name":"alignment","type":"uint256"}],"name":"ValidatorScored","type":"event"},{"anonymous":false,"inputs":[{"indexed":true,"internalType":"uint256","name":"netuid","type":"uint256"},{"indexed":true,"internalType":"uint16","name":"validatorUid","type":"uint16"},{"indexed":false,"internalType":"bytes32","name":"commitHash","type":"bytes32"}],"name":"WeightsCommitted","type":"event"},{"anonymous":false,"inputs":[{"indexed":true,"internalType":"uint256","name":"netuid","type":"uint256"},{"indexed":true,"internalType":"uint16","name":"validatorUid","type":"uint16"},{"indexed":false,"internalType":"uint256","name":"weightCount","type":"uint256"}],"name":"WeightsRevealed","type":"event"},{"anonymous":false,"inputs":[{"indexed":true,"internalType":"uint256","name":"netuid","type":"uint256"},{"indexed":true,"internalType":"uint16","name":"validatorUid","type":"uint16"},{"indexed":false,"internalType":"uint256","name":"weightCount","type":"uint256"}],"name":"WeightsSet","type":"event"},{"inputs":[],"name":"TRUST_MULTIPLIER_BASE","outputs":[{"internalType":"uint256","name":"","type":"uint256"}],"stateMutability":"view","type":"function"},{"inputs":[],"name":"TRUST_MULTIPLIER_MAX","outputs":[{"internalType":"uint256","name":"","type":"uint256"}],"stateMutability":"view","type":"function"},{"inputs":[{"internalType":"uint256","name":"netuid","type":"uint256"},{"internalType":"uint16","name":"validatorUid","type":"uint16"}],"name":"autoSlashInactive","outputs":[],"stateMutability":"nonpayable","type":"function"},{"inputs":[{"internalType":"uint256","name":"netuid","type":"uint256"},{"internalType":"uint16","name":"uid","type":"uint16"}],"name":"claimEmission","outputs":[],"stateMutability":"nonpayable","type":"function"},{"inputs":[{"internalType":"uint256","name":"","type":"uint256"},{"internalType":"address","name":"","type":"address"},{"internalType":"enum SubnetRegistry.NodeType","name":"","type":"uint8"}],"name":"coldkeyNodeType","outputs":[{"internalType":"bool","name":"","type":"bool"}],"stateMutability":"view","type":"function"},{"inputs":[],"name":"commitMinDelay","outputs":[{"internalType":"uint256","name":"","type":"uint256"}],"stateMutability":"view","type":"function"},{"inputs":[],"name":"commitRevealWindow","outputs":[{"internalType":"uint256","name":"","type":"uint256"}],"stateMutability":"view","type":"function"},{"inputs":[{"internalType":"uint256","name":"netuid","type":"uint256"},{"internalType":"bytes32","name":"commitHash","type":"bytes32"}],"name":"commitWeights","outputs":[],"stateMutability":"nonpayable","type":"function"},{"inputs":[{"internalType":"string","name":"name","type":"string"},{"internalType":"uint256","name":"maxNodes","type":"uint256"},{"internalType":"uint256","name":"minStake","type":"uint256"},{"internalType":"uint256","name":"tempo","type":"uint256"}],"name":"createSubnet","outputs":[{"internalType":"uint256","name":"netuid","type":"uint256"}],"stateMutability":"nonpayable","type":"function"},{"inputs":[{"internalType":"uint256","name":"netuid","type":"uint256"},{"internalType":"uint16","name":"validatorUid","type":"uint16"},{"internalType":"uint256","name":"amount","type":"uint256"}],"name":"delegate","outputs":[],"stateMutability":"nonpayable","type":"function"},{"inputs":[{"internalType":"address","name":"","type":"address"},{"internalType":"bytes32","name":"","type":"bytes32"}],"name":"delegations","outputs":[{"internalType":"uint256","name":"","type":"uint256"}],"stateMutability":"view","type":"function"},{"inputs":[{"internalType":"uint256","name":"netuid","type":"uint256"},{"internalType":"uint16","name":"uid","type":"uint16"}],"name":"deregisterNode","outputs":[],"stateMutability":"nonpayable","type":"function"},{"inputs":[],"name":"emissionPerBlock","outputs":[{"internalType":"uint256","name":"","type":"uint256"}],"stateMutability":"view","type":"function"},{"inputs":[{"internalType":"uint256","name":"amount","type":"uint256"}],"name":"fundEmissionPool","outputs":[],"stateMutability":"nonpayable","type":"function"},{"inputs":[{"internalType":"address","name":"delegator","type":"address"},{"internalType":"uint256","name":"netuid","type":"uint256"},{"internalType":"uint16","name":"validatorUid","type":"uint16"}],"name":"getDelegation","outputs":[{"internalType":"uint256","name":"","type":"uint256"}],"stateMutability":"view","type":"function"},{"inputs":[{"internalType":"uint256","name":"netuid","type":"uint256"}],"name":"getMetagraph","outputs":[{"internalType":"address[]","name":"hotkeys","type":"address[]"},{"internalType":"address[]","name":"coldkeys","type":"address[]"},{"internalType":"uint256[]","name":"stakes","type":"uint256[]"},{"internalType":"uint256[]","name":"ranks","type":"uint256[]"},{"internalType":"uint256[]","name":"incentives","type":"uint256[]"},{"internalType":"uint256[]","name":"emissions","type":"uint256[]"},{"internalType":"uint8[]","name":"nodeTypes","type":"uint8[]"},{"internalType":"bool[]","name":"activeFlags","type":"bool[]"}],"stateMutability":"view","type":"function"},{"inputs":[{"internalType":"uint256","name":"netuid","type":"uint256"},{"internalType":"uint16","name":"uid","type":"uint16"}],"name":"getNode","outputs":[{"internalType":"address","name":"hotkey","type":"address"},{"internalType":"address","name":"coldkey","type":"address"},{"internalType":"uint8","name":"nodeType","type":"uint8"},{"internalType":"uint256","name":"stake","type":"uint256"},{"internalType":"uint256","name":"delegatedStake","type":"uint256"},{"internalType":"uint256","name":"rank","type":"uint256"},{"internalType":"uint256","name":"incentive","type":"uint256"},{"internalType":"uint256","name":"emission","type":"uint256"},{"internalType":"uint256","name":"trust","type":"uint256"},{"internalType":"bool","name":"active","type":"bool"}],"stateMutability":"view","type":"function"},{"inputs":[{"internalType":"uint256","name":"netuid","type":"uint256"}],"name":"getSubnet","outputs":[{"internalType":"string","name":"name","type":"string"},{"internalType":"address","name":"subnetOwner","type":"address"},{"internalType":"uint256","name":"maxNodes","type":"uint256"},{"internalType":"uint256","name":"emissionShare","type":"uint256"},{"internalType":"uint256","name":"tempo","type":"uint256"},{"internalType":"uint256","name":"nodeCount","type":"uint256"},{"internalType":"bool","name":"active","type":"bool"}],"stateMutability":"view","type":"function"},{"inputs":[],"name":"getSubnetCount","outputs":[{"internalType":"uint256","name":"","type":"uint256"}],"stateMutability":"view","type":"function"},{"inputs":[{"internalType":"uint256","name":"netuid","type":"uint256"},{"internalType":"uint16","name":"uid","type":"uint16"}],"name":"getTrust","outputs":[{"internalType":"uint256","name":"","type":"uint256"}],"stateMutability":"view","type":"function"},{"inputs":[{"internalType":"uint256","name":"netuid","type":"uint256"},{"internalType":"address","name":"hotkey","type":"address"}],"name":"getUidByHotkey","outputs":[{"internalType":"uint16","name":"","type":"uint16"}],"stateMutability":"view","type":"function"},{"inputs":[{"internalType":"uint256","name":"netuid","type":"uint256"},{"internalType":"uint16","name":"uid","type":"uint16"}],"name":"getValidatorScore","outputs":[{"internalType":"uint256","name":"trust","type":"uint256"},{"internalType":"uint256","name":"rank","type":"uint256"},{"internalType":"uint256","name":"stake","type":"uint256"},{"internalType":"uint256","name":"delegatedStake","type":"uint256"},{"internalType":"uint256","name":"effectivePower","type":"uint256"},{"internalType":"uint256","name":"emission","type":"uint256"},{"internalType":"uint256","name":"incentive","type":"uint256"},{"internalType":"bool","name":"active","type":"bool"}],"stateMutability":"view","type":"function"},{"inputs":[{"internalType":"uint256","name":"netuid","type":"uint256"},{"internalType":"uint16","name":"validatorUid","type":"uint16"}],"name":"getWeights","outputs":[{"internalType":"uint16[]","name":"uids","type":"uint16[]"},{"internalType":"uint16[]","name":"weights","type":"uint16[]"}],"stateMutability":"view","type":"function"},{"inputs":[{"internalType":"uint256","name":"","type":"uint256"},{"internalType":"address","name":"","type":"address"}],"name":"hotkeyToUid","outputs":[{"internalType":"uint16","name":"","type":"uint16"}],"stateMutability":"view","type":"function"},{"inputs":[{"internalType":"uint256","name":"","type":"uint256"},{"internalType":"address","name":"","type":"address"}],"name":"isRegistered","outputs":[{"internalType":"bool","name":"","type":"bool"}],"stateMutability":"view","type":"function"},{"inputs":[],"name":"maxWeightAge","outputs":[{"internalType":"uint256","name":"","type":"uint256"}],"stateMutability":"view","type":"function"},{"inputs":[],"name":"nextNetuid","outputs":[{"internalType":"uint256","name":"","type":"uint256"}],"stateMutability":"view","type":"function"},{"inputs":[{"internalType":"uint256","name":"","type":"uint256"},{"internalType":"uint16","name":"","type":"uint16"}],"name":"nodes","outputs":[{"internalType":"address","name":"hotkey","type":"address"},{"internalType":"address","name":"coldkey","type":"address"},{"internalType":"enum SubnetRegistry.NodeType","name":"nodeType","type":"uint8"},{"internalType":"uint256","name":"stake","type":"uint256"},{"internalType":"uint256","name":"delegatedStake","type":"uint256"},{"internalType":"uint256","name":"lastUpdate","type":"uint256"},{"internalType":"uint16","name":"uid","type":"uint16"},{"internalType":"bool","name":"active","type":"bool"},{"internalType":"uint256","name":"incentive","type":"uint256"},{"internalType":"uint256","name":"trust","type":"uint256"},{"internalType":"uint256","name":"rank","type":"uint256"},{"internalType":"uint256","name":"emission","type":"uint256"}],"stateMutability":"view","type":"function"},{"inputs":[],"name":"owner","outputs":[{"internalType":"address","name":"","type":"address"}],"stateMutability":"view","type":"function"},{"inputs":[{"internalType":"uint256","name":"netuid","type":"uint256"},{"internalType":"address","name":"hotkey","type":"address"},{"internalType":"enum SubnetRegistry.NodeType","name":"nodeType","type":"uint8"},{"internalType":"uint256","name":"stakeAmount","type":"uint256"}],"name":"registerNode","outputs":[{"internalType":"uint16","name":"uid","type":"uint16"}],"stateMutability":"nonpayable","type":"function"},{"inputs":[],"name":"renounceOwnership","outputs":[],"stateMutability":"nonpayable","type":"function"},{"inputs":[{"internalType":"uint256","name":"netuid","type":"uint256"},{"internalType":"uint16[]","name":"uids","type":"uint16[]"},{"internalType":"uint16[]","name":"weights","type":"uint16[]"},{"internalType":"bytes32","name":"salt","type":"bytes32"}],"name":"revealWeights","outputs":[],"stateMutability":"nonpayable","type":"function"},{"inputs":[{"internalType":"uint256","name":"netuid","type":"uint256"}],"name":"runEpoch","outputs":[],"stateMutability":"nonpayable","type":"function"},{"inputs":[{"internalType":"uint256","name":"_blocks","type":"uint256"}],"name":"setCommitMinDelay","outputs":[],"stateMutability":"nonpayable","type":"function"},{"inputs":[{"internalType":"uint256","name":"_blocks","type":"uint256"}],"name":"setCommitRevealWindow","outputs":[],"stateMutability":"nonpayable","type":"function"},{"inputs":[{"internalType":"uint256","name":"amount","type":"uint256"}],"name":"setEmissionPerBlock","outputs":[],"stateMutability":"nonpayable","type":"function"},{"inputs":[{"internalType":"uint256","name":"_blocks","type":"uint256"}],"name":"setMaxWeightAge","outputs":[],"stateMutability":"nonpayable","type":"function"},{"inputs":[{"internalType":"uint256","name":"_basisPoints","type":"uint256"}],"name":"setSlashPercentage","outputs":[],"stateMutability":"nonpayable","type":"function"},{"inputs":[{"internalType":"uint256","name":"cost","type":"uint256"}],"name":"setSubnetRegistrationCost","outputs":[],"stateMutability":"nonpayable","type":"function"},{"inputs":[{"internalType":"uint256","name":"netuid","type":"uint256"},{"internalType":"uint16","name":"validatorUid","type":"uint16"},{"internalType":"uint16[]","name":"uids","type":"uint16[]"},{"internalType":"uint16[]","name":"weights","type":"uint16[]"}],"name":"setWeights","outputs":[],"stateMutability":"nonpayable","type":"function"},{"inputs":[{"internalType":"address","name":"_verifier","type":"address"}],"name":"setZkmlVerifier","outputs":[],"stateMutability":"nonpayable","type":"function"},{"inputs":[{"internalType":"uint256","name":"netuid","type":"uint256"},{"internalType":"uint16","name":"uid","type":"uint16"},{"internalType":"uint256","name":"basisPoints","type":"uint256"},{"internalType":"string","name":"reason","type":"string"}],"name":"slashNode","outputs":[],"stateMutability":"nonpayable","type":"function"},{"inputs":[],"name":"slashPercentage","outputs":[{"internalType":"uint256","name":"","type":"uint256"}],"stateMutability":"view","type":"function"},{"inputs":[],"name":"subnetRegistrationCost","outputs":[{"internalType":"uint256","name":"","type":"uint256"}],"stateMutability":"view","type":"function"},{"inputs":[{"internalType":"uint256","name":"","type":"uint256"}],"name":"subnets","outputs":[{"internalType":"string","name":"name","type":"string"},{"internalType":"address","name":"owner","type":"address"},{"internalType":"uint256","name":"maxNodes","type":"uint256"},{"internalType":"uint256","name":"emissionShare","type":"uint256"},{"internalType":"uint256","name":"tempo","type":"uint256"},{"internalType":"uint256","name":"lastEpochBlock","type":"uint256"},{"internalType":"uint256","name":"minStake","type":"uint256"},{"internalType":"uint256","name":"immunityPeriod","type":"uint256"},{"internalType":"uint256","name":"nodeCount","type":"uint256"},{"internalType":"uint256","name":"nextUid","type":"uint256"},{"internalType":"bool","name":"active","type":"bool"},{"internalType":"uint256","name":"createdAt","type":"uint256"}],"stateMutability":"view","type":"function"},{"inputs":[],"name":"token","outputs":[{"internalType":"contract IERC20","name":"","type":"address"}],"stateMutability":"view","type":"function"},{"inputs":[],"name":"totalEmissionShares","outputs":[{"internalType":"uint256","name":"","type":"uint256"}],"stateMutability":"view","type":"function"},{"inputs":[{"internalType":"address","name":"newOwner","type":"address"}],"name":"transferOwnership","outputs":[],"stateMutability":"nonpayable","type":"function"},{"inputs":[{"internalType":"uint256","name":"netuid","type":"uint256"},{"internalType":"uint16","name":"validatorUid","type":"uint16"},{"internalType":"uint256","name":"amount","type":"uint256"}],"name":"undelegate","outputs":[],"stateMutability":"nonpayable","type":"function"},{"inputs":[{"internalType":"uint256","name":"netuid","type":"uint256"},{"internalType":"uint256","name":"newShare","type":"uint256"}],"name":"updateEmissionShare","outputs":[],"stateMutability":"nonpayable","type":"function"},{"inputs":[{"internalType":"uint256","name":"netuid","type":"uint256"},{"internalType":"uint256","name":"maxNodes","type":"uint256"},{"internalType":"uint256","name":"minStake","type":"uint256"},{"internalType":"uint256","name":"tempo","type":"uint256"},{"internalType":"uint256","name":"immunityPeriod","type":"uint256"}],"name":"updateSubnet","outputs":[],"stateMutability":"nonpayable","type":"function"},{"inputs":[{"internalType":"uint256","name":"","type":"uint256"},{"internalType":"uint16","name":"","type":"uint16"}],"name":"weightCommits","outputs":[{"internalType":"bytes32","name":"commitHash","type":"bytes32"},{"internalType":"uint256","name":"commitBlock","type":"uint256"},{"internalType":"bool","name":"revealed","type":"bool"}],"stateMutability":"view","type":"function"},{"inputs":[],"name":"zkmlVerifier","outputs":[{"internalType":"address","name":"","type":"address"}],"stateMutability":"view","type":"function"}],"evm":{"bytecode":{"linkReferences":{},"object":"60a03461017457601f6144dd38819003918201601f19168301916001600160401b03831184841017610179578084926060946040528339810103126101745780516001600160a01b0381169190829003610174576040602082015191015191331561015e5760008054336001600160a01b03198216811783556040519290916001600160a01b0316907f8be0079c531659141344cd1fd0a4f28419497f9722a3daafe3b4186f6b6457e09080a36001805560016002556101f4600f55611c20601055610258601155600a601255811561012c575060805260035560045560405161434d908161019082396080518181816103450152818161073f01528181610ba70152818161159701528181611f6001528181612c0601528181612da101528181612ee901526137810152f35b62461bcd60e51b815260206004820152600d60248201526c24b73b30b634b2103a37b5b2b760991b6044820152606490fd5b631e4fbdf760e01b600052600060045260246000fd5b600080fd5b634e487b7160e01b600052604160045260246000fdfe6080604052600436101561001257600080fd5b60003560e01c80631347608514612ec657806314511bf7146126f857806314d5988814612e685780631602ab2914612e475780631aefa1b614612e295780631ba60b7014612cb75780631caa907014612b765780632aaa86aa1461295e5780632b4b375314612912578063393ebbf8146128b95780633a05eaa91461273f5780633c813394146127165780633d5316dd146126f857806343219f031461269757806346a655af14612676578063475726f7146125a95780634a77ac981461258b5780635071b8911461250657806358ca750414612474578063617078fb146123975780636b54b30914612194578063710fe5cd14612173578063715018a61461211a5780637339e8811461209f57806375e6ee1714611c0e5780638272f0b814611bf0578063842443dc1461178d5780638a52cc1c146116825780638da5cb5b146116595780639e1611bf146113ee5780639e793787146113d0578063a4ce91c61461138d578063b53c39b414611345578063b81f6e18146112f8578063bd58199a146112da578063bddee43c146112b9578063c0843eeb14611272578063c113c3111461117d578063c95986a21461115f578063cc2d54c414611141578063d19e2ce814611120578063d2d9850914611057578063dec74f1814610ed1578063dfbeffff14610d59578063e485c04c14610d2f578063ed23dcba14610d12578063f2fde38b14610c89578063f39e9f4b14610835578063f46e1e1f146106a3578063f6ec03f114610686578063fa61395814610374578063fc0c546a1461032f5763fffc4bbf1461026357600080fd5b3461032a57604036600319011261032a57604061027e612f0f565b60043560005260086020528160002061ffff6000921682526020522080546102a581613693565b906102af81613693565b9260005b8281106102e8576102d6846102e4876040519384936040855260408501906131db565b9083820360208501526131db565b0390f35b8061ffff6102f86001938561346e565b50541661030582876136d8565b5261ffff610313828561346e565b505460101c1661032382886136d8565b52016102b3565b600080fd5b3461032a57600036600319011261032a576040517f00000000000000000000000000000000000000000000000000000000000000006001600160a01b03168152602090f35b3461032a57602036600319011261032a57600435806000526006602052604060002060088101546103a481613693565b906103ae81613693565b6103b782613693565b926103c183613693565b906103cb84613693565b6103d485613693565b926103de8661367c565b96604051976103ed908961302a565b8688526103f98761367c565b602089019a90601f1901368c3761040f8861367c565b9a6040519b61041e908d61302a565b888c5261042a8961367c565b60208d019190601f19013683378960009c8d809c60098e93015461ffff81945b1610918261067c575b5050156105835784600052600760205260408c8160002061ffff6000921682526020522060ff600582015460101c1615610575579d60ff60029f8c6105158f9260098f918f8f8f8a956104b08760018060a01b03875416926136d8565b526001840154986001600160a01b038a16906104cd9088906136d8565b526002866104e66104ec9287015460038801549061352a565b926136d8565b526104fc856008850154926136d8565b5261050c846006840154926136d8565b520154926136d8565b5260a01c169e8f101561055f578f61ffff9f918f6105478261054d9461055396610541836001966136d8565b526136d8565b526135f5565b9c6136c5565b9b82819f83908f61044a565b634e487b7160e01b600052602160045260246000fd5b5061055361ffff9e9c6136c5565b5050979a509750509089949291979397604051998a996101008b526101008b016105ac9161316a565b8a810360208c01526105bd9161316a565b89810360408b01526105ce916131a7565b88810360608a01526105df916131a7565b87810360808901526105f0916131a7565b86810360a0880152610601916131a7565b9085820360c08701525190818152602001929060005b8181106106605750505060209084830360e0860152519182815201919060005b818110610645575050500390f35b82511515845285945060209384019390920191600101610637565b825160ff16855287965060209485019490920191600101610617565b109050828f610453565b3461032a57600036600319011261032a5760206040516127108152f35b3461032a576106b136612f20565b6106b961421d565b80156107fb5782600052600760205260408060002060009061ffff85168252602052206106ef60ff600583015460101c1661329a565b60ff600182015460a01c1691600283101561055f5760036107f29261073760017f027aaa6a9479088edb91e883282880ac91e93b04a07c8a730242e0ed59c5459896146132dd565b6107638330337f00000000000000000000000000000000000000000000000000000000000000006141d4565b604080516020810189815260f089901b6001600160f01b0319169282019290925261079b81604281015b03601f19810183528261302a565b51902033600052600b60205260406000209060005260205260406000206107c384825461352a565b9055016107d182825461352a565b90556040519182913395836020909392919361ffff60408201951681520152565b0390a360018055005b60405162461bcd60e51b81526020600482015260126024820152710416d6f756e74206d757374206265203e20360741b6044820152606490fd5b3461032a57608036600319011261032a576004356001600160401b03811161032a5761086590369060040161313d565b6064359060243561087461421d565b81151580610c7e575b15610c4a5780151580610c3e575b15610c06578215610bd15760035480610b9f575b50600254926108ad846135f5565b600255604051916108bd8361300e565b6001600160401b038411610b89576040516108e2601f8601601f19166020018261302a565b848152368588011161032a5784876020830137600060208683010152835233602084015260408301526103e8606083015260808201524360a082015260443560c0820152611c2060e08201526000610100820152600061012082015260016101408201524261016082015282600052600660205260406000209080518051906001600160401b038211610b89576109798454612fb9565b601f8111610b41575b50602090601f8311600114610ad2579180600b949261016094600092610ac7575b50508160011b916000199060031b1c19161784555b60208101516001850180546001600160a01b039092166001600160a01b031990921691909117905560408101516002850155606081015160038501556080810151600485015560a0810151600585015560c0810151600685015560e0810151600785015561010081015160088501556101208101516009850155610140810151600a8501805460ff191691151560ff1691909117905501519101556005546103e88101809111610ab1577faa2647b7670da77b5fc5f9e4056c00263527212d34d09e44efabd660c88c347a610aa26020958593600555604051918291888352339689840191613557565b0390a360018055604051908152f35b634e487b7160e01b600052601160045260246000fd5b0151905089806109a3565b9084600052806000209160005b601f1985168110610b29575092600b94926001926101609583601f19811610610b10575b505050811b0184556109b8565b015160001960f88460031b161c19169055898080610b03565b91926020600181928685015181550194019201610adf565b846000526020600020601f840160051c81019160208510610b7f575b601f0160051c01905b818110610b735750610982565b60008155600101610b66565b9091508190610b5d565b634e487b7160e01b600052604160045260246000fd5b610bcb9030337f00000000000000000000000000000000000000000000000000000000000000006141d4565b8461089f565b60405162461bcd60e51b815260206004820152600d60248201526c496e76616c69642074656d706f60981b6044820152606490fd5b60405162461bcd60e51b815260206004820152601060248201526f496e76616c6964206d61784e6f64657360801b6044820152606490fd5b5061100081111561088b565b60405162461bcd60e51b815260206004820152600c60248201526b496e76616c6964206e616d6560a01b6044820152606490fd5b50604082111561087d565b3461032a57602036600319011261032a57610ca2612f8b565b610caa6141ab565b6001600160a01b03168015610cfc57600080546001600160a01b03198116831782556001600160a01b0316907f8be0079c531659141344cd1fd0a4f28419497f9722a3daafe3b4186f6b6457e09080a3005b631e4fbdf760e01b600052600060045260246000fd5b3461032a57600036600319011261032a576020604051613a988152f35b3461032a57602036600319011261032a57610d4861421d565b610d536004356136ec565b60018055005b3461032a57604036600319011261032a5760043560243590806000526009602052604060002060018060a01b033316600052602052610d9f60ff60406000205416613578565b80600052600a602052604060002060018060a01b03331660005260205261ffff6040600020541691816000526007602052604060002061ffff841660005260205260ff60016040600020015460a01c16600281101561055f576001610e0491146132dd565b816000526007602052604060002061ffff8416600052602052610e3460ff60056040600020015460101c166134f1565b60405160608101918183106001600160401b03841117610b8957610ec86020927f9d7068cbd38a9652b8b283a496928bcf42dd01fb68865e13f7f279256529175d94604052828152600284820143815260408301906000825288600052600c875260408060002060009061ffff8d1682528952209351845551600184015551151591019060ff801983541691151516179055565b604051908152a3005b3461032a5760a036600319011261032a576004358060005260066020526040600020610f0360ff600a830154166135b5565b60018101546001600160a01b031633148015611043575b610f239061363f565b60243560028201556044356006820155606435600482015560843560078201556040519060208252600090805490610f5a82612fb9565b918260208601526001811690816000146110005750600114610fa0575b847f1f24371ed79af1971a700f92176a2cb13437ef4dbd2c6c6b9f2ad8f5fc3e8f9485850386a2005b600090815260208120939250905b808210610fe557509091508101604001817f1f24371ed79af1971a700f92176a2cb13437ef4dbd2c6c6b9f2ad8f5fc3e8f94610f77565b91926001816020925460408588010152019101909291610fae565b859450604092507f1f24371ed79af1971a700f92176a2cb13437ef4dbd2c6c6b9f2ad8f5fc3e8f949593915060ff191682840152151560051b8201019192610f77565b506000546001600160a01b03163314610f1a565b3461032a57604036600319011261032a576040611072612f0f565b60043560005260076020528160002061ffff6000921682526020522060018060a01b03815416600182015460ff8160a01c1692600284101561055f57610140936002820154600383015460088401549060068501549260098601549460ff6005600789015498015460101c1697604051998a5260018060a01b031660208a015260408901526060880152608087015260a086015260c085015260e08401526101008301521515610120820152f35b3461032a57602036600319011261032a576111396141ab565b600435601155005b3461032a57600036600319011261032a576020601254604051908152f35b3461032a57600036600319011261032a576020600454604051908152f35b3461032a57604036600319011261032a576040611198612f0f565b60043560005260076020528160002061ffff6000921682526020522060ff600182015460a01c16600281101561055f5760016111d491146132dd565b600281015460038201546111f06111eb828461352a565b61427a565b92600781015492670de0b6b3a76400006112098561340f565b04612710018061271011610ab1576112276127109161010097613427565b0460088301549360098401549260ff6005600687015496015460101c1695604051978852602088015260408701526060860152608085015260a084015260c0830152151560e0820152f35b3461032a57604036600319011261032a5761128b612f0f565b600435600052600760205261ffff604060002091166000526020526020600760406000200154604051908152f35b3461032a57602036600319011261032a576112d26141ab565b600435601055005b3461032a57600036600319011261032a576020600f54604051908152f35b3461032a57604036600319011261032a57611311612f75565b600435600052600960205260406000209060018060a01b0316600052602052602060ff604060002054166040519015158152f35b3461032a57604036600319011261032a576001600160a01b03611366612f8b565b16600052600b60205260406000206024356000526020526020604060002054604051908152f35b3461032a57602036600319011261032a576113a6612f8b565b6113ae6141ab565b600e80546001600160a01b0319166001600160a01b0392909216919091179055005b3461032a57600036600319011261032a576020600354604051908152f35b3461032a57604036600319011261032a5760043561140a612f0f565b9061141361421d565b80600052600760205260408060002060009061ffff85168252602052206005810180549061144660ff8360101c166134f1565b600183019160018060a01b0383541633148015611645575b6114679061363f565b61148760048501548660005260066020526007604060002001549061352a565b431061160e5762ff000019169055600083815260096020908152604080832085546001600160a01b039081168552908352818420805460ff19169055868452600d8352818420855491821685529092529091206114ea9160a01c60ff1690612fa1565b60ff1981541690558260005260066020526008604060002001918254918215610ab1577f11626064be2e2665fe1975c8cef9b2cba9565936c2602568b09c197bfafc943d936020936000190190556003820154806115c2575b5060028201600081548161155d600987019283549061352a565b93555580611585575b50505460405161ffff90951685526001600160a01b031693a360018055005b90546115bb91906001600160a01b03167f000000000000000000000000000000000000000000000000000000000000000061423f565b8580611566565b81546040805161ffff8a16815260208101939093526001600160a01b039091169187917f06b1f0451f7c7b7672999772380e5b9eaae8c9bf6d5f97392cfbf377606292bc91a386611543565b60405162461bcd60e51b815260206004820152600f60248201526e125b5b5d5b9a5d1e481c195c9a5bd9608a1b6044820152606490fd5b506000546001600160a01b0316331461145e565b3461032a57600036600319011261032a576000546040516001600160a01b039091168152602090f35b3461032a57604036600319011261032a5760043560243581600052600660205260406000206116b760ff600a830154166135b5565b60018101546001600160a01b031633148015611779575b6116d79061363f565b8115158061176d575b15611738577ff6701d6527463c73031f5ea9cef1c2e4abd5e75e5fbd8cad202d26eb7fd234ef9160036040920190808254926117278261172286600554613213565b61352a565b6005555582519182526020820152a2005b60405162461bcd60e51b815260206004820152600d60248201526c496e76616c696420736861726560981b6044820152606490fd5b506127108211156116e0565b506000546001600160a01b031633146116ce565b3461032a57608036600319011261032a576004356024356001600160401b03811161032a576117c0903690600401612f45565b6044929192356001600160401b03811161032a576117e2903690600401612f45565b6117f0818496939614613220565b6117fb83151561325e565b60008481526009602090815260408083203384529091529020546118219060ff16613578565b83600052600a602052604060002060018060a01b03331660005260205261ffff604060002054169484600052600760205260408060002060009061ffff89168252602052209260ff600185015460a01c16600281101561055f57600161188791146132dd565b61189a60ff600586015460101c166134f1565b85600052600c60205260408060002060009061ffff8a168252602052208054908115611bb957600281019182549160ff8316611b8157600101546118e06012548261352a565b4310611b46576011546118f29161352a565b4311611b09578760405161192a60208261191a61191383830180978c613604565b8c8c613604565b606435815203808452018261302a565b51902003611ad45760ff1916600117905560005b858110611a185750856000526008602052604060002061ffff881660005260205261196c604060002061343a565b61ffff87169260005b8681106119b25788887ffba62aad89c6c437bf733319e2bb0ee93cb42499851f7a0b45088b25f3a2c49360208a8a600443910155604051908152a3005b600190886000526008602052611a12604080600020600090898252602052206119e46119df848c8961331b565b613341565b9061ffff6119f66119df86898c61331b565b8160405194611a0486612ff3565b168452166020830152613486565b01611975565b611a46611a296119df83898661331b565b88600052600660205261ffff600960406000200154911610613350565b866000526007602052611a8360ff6005604080600020611a6a6119df878d8a61331b565b9061ffff60009216825260205220015460101c1661338a565b86600052600760205260ff6001604080600020611aa46119df868c8961331b565b9061ffff60009216825260205220015460a01c1690600282101561055f57611ace600192156133ca565b0161193e565b60405162461bcd60e51b815260206004820152600d60248201526c090c2e6d040dad2e6dac2e8c6d609b1b6044820152606490fd5b60405162461bcd60e51b815260206004820152601560248201527414995d99585b081dda5b991bddc8195e1c1a5c9959605a1b6044820152606490fd5b60405162461bcd60e51b8152602060048201526013602482015272151bdbc819585c9b1e481d1bc81c995d99585b606a1b6044820152606490fd5b60405162461bcd60e51b815260206004820152601060248201526f105b1c9958591e481c995d99585b195960821b6044820152606490fd5b60405162461bcd60e51b815260206004820152600f60248201526e139bc818dbdb5b5a5d08199bdd5b99608a1b6044820152606490fd5b3461032a57600036600319011261032a576020601054604051908152f35b3461032a57608036600319011261032a57611c27612f75565b6002604435101561032a5760643590611c3e61421d565b6004356000526006602052604060002090611c5f60ff600a840154166135b5565b6004356000526009602052604060002060018060a01b03821660005260205260ff60406000205416612065576008820154600283015411156120325760068201548310611ff857600091604435611fed5760ff611cd660015b6004358652600d602090815260408088203389529091528620612fa1565b5416611f89576004358352600d602090815260408085203386529091528320611d029060443590612fa1565b805460ff1916600117905583611f58575b6009810192835493611d24856135f5565b9055604051611d328161300e565b6001600160a01b0384811682523360208084019182526044356040808601918252606086019a8b526000608087018190524360a0880190815261ffff8c1660c08901818152600160e08b018181526101008c018690526706f05b59d3b200006101208d01526101408c018690526101608c018690526004358652600789528686209386529290975293909220885181549089166001600160a01b031991821617825596519581018054969098169590961694909417909555905190999395509391929091600285101561055f576020996040966009946101609460009860018901549060ff60a01b9060a01b169060ff60a01b19161760018901555160028801556080840151600388015551600487015561ffff80600588019351161661ffff1983541617825551151562ff000082549160101b169062ff0000191617905561010081015160068501556101208101516007850155610140810151600885015501519101556004358152600a865281812060018060a01b0385168252865281812061ffff8087161661ffff1982541617905560043581526009865281812060018060a01b0385168252865220600160ff198254161790556008611ef7818301546135f5565b91015560405161ffff83168152611f12848201604435613130565b33916001600160a01b031690600435907fd6347f2c1cbfc00c2ef5d4dfce146b393cb3305376a2999571521d291def055590604090a46001805561ffff60405191168152f35b611f848430337f00000000000000000000000000000000000000000000000000000000000000006141d4565b611d13565b60405162461bcd60e51b815260206004820152603660248201527f53656c662d766f74653a20636f6c646b657920616c72656164792072656769736044820152757465726564206173206f70706f73697465207479706560501b6064820152608490fd5b60ff611cd684611cb8565b60405162461bcd60e51b8152602060048201526012602482015271496e73756666696369656e74207374616b6560701b6044820152606490fd5b60405162461bcd60e51b815260206004820152600b60248201526a14dd589b995d08199d5b1b60aa1b6044820152606490fd5b60405162461bcd60e51b8152602060048201526012602482015271105b1c9958591e481c9959da5cdd195c995960721b6044820152606490fd5b3461032a57604036600319011261032a576004356120bb612f75565b90806000526009602052604060002060018060a01b0383166000526020526120ea60ff60406000205416613578565b600052600a60205260406000209060018060a01b0316600052602052602061ffff60406000205416604051908152f35b3461032a57600036600319011261032a576121336141ab565b600080546001600160a01b0319811682556001600160a01b03167f8be0079c531659141344cd1fd0a4f28419497f9722a3daafe3b4186f6b6457e08280a3005b3461032a57602036600319011261032a5761218c6141ab565b600480359055005b3461032a57608036600319011261032a576004356121b0612f0f565b6044356064356001600160401b03811161032a576121d290369060040161313d565b929060018060a01b036000541633148015612375575b156123305782151580612324575b156122df57846000526007602052604060002061ffff831660005260205260406000209060ff600583015460101c16156122a8577fb690d999d54e9332494c15c985df21327bfff85f3125d47be78b06ca862b419b9461ffff94600261229b940161271061226682549384613427565b04918083116122a0575b8261227a91613213565b90556040519586951685526020850152606060408501526060840191613557565b0390a2005b915081612270565b60405162461bcd60e51b815260206004820152600f60248201526e4e6f6465206e6f742061637469766560881b6044820152606490fd5b60405162461bcd60e51b815260206004820152601860248201527f496e76616c696420736c6173682070657263656e7461676500000000000000006044820152606490fd5b506127108311156121f6565b60405162461bcd60e51b815260206004820152601760248201527f4e6f7420617574686f72697a656420746f20736c6173680000000000000000006044820152606490fd5b5084600052600660205260018060a01b036001604060002001541633146121e8565b3461032a57604036600319011261032a5761018060406123b5612f0f565b60043560005260076020528160002061ffff6000921682526020522060018060a01b03815416906001810154906002810154600382015460ff6004840154600585015490600686015493600787015495612436600960088a0154990154996040519b8c5260018060a01b03811660208d01528660408d019160a01c16613130565b60608a0152608089015260a088015261ffff811660c088015260101c16151560e0860152610100850152610120840152610140830152610160820152f35b3461032a57602036600319011261032a5760043560005260066020526124e1604060002060018060a01b03600182015416600282015491600381015460048201546008830154916124cc60ff600a860154169461304b565b9560405197889760e0895260e08901906130ef565b95602088015260408701526060860152608085015260a0840152151560c08301520390f35b3461032a57606036600319011261032a5761251f612f8b565b60443561ffff8116810361032a5760405161255b8161078d6020820194602435869091602292825261ffff60f01b9060f01b1660208201520190565b5190209060018060a01b0316600052600b6020526040600020906000526020526020604060002054604051908152f35b3461032a57600036600319011261032a576020600554604051908152f35b3461032a57602036600319011261032a57600435600052600660205260406000206101806125d68261304b565b9160018060a01b03600182015416906002810154906003810154600482015460058301546006840154600785015491600886015493600987015495600b60ff600a8a015416980154986126346040519d8d8f9e8f90815201906130ef565b9a60208d015260408c015260608b015260808a015260a089015260c088015260e087015261010086015261012085015215156101408401526101608301520390f35b3461032a57602036600319011261032a5761268f6141ab565b600435600355005b3461032a57606036600319011261032a576126b0612f75565b604435600281101561032a576126ec60ff91602093600435600052600d855260406000209060018060a01b031660005284526040600020612fa1565b54166040519015158152f35b3461032a57600036600319011261032a576020600254604051908152f35b3461032a57600036600319011261032a57600e546040516001600160a01b039091168152602090f35b3461032a57604036600319011261032a5760043561275b612f0f565b81600052600760205260408060002060009061ffff841682526020522061278b60ff600583015460101c166134f1565b60ff600182015460a01c16600281101561055f5760016127ab91146132dd565b6127bc60048201546010549061352a565b43111561287e57600281018054916064830283810460641484151715610ab157612710900491838311612876575b6127f78360079495613213565b90550191825491605083029280840460501490151715610ab1577fb690d999d54e9332494c15c985df21327bfff85f3125d47be78b06ca862b419b93606460a09404905561ffff60405192168252602082015260606040820152601260608201527124b730b1ba34bb32903b30b634b230ba37b960711b6080820152a2005b8392506127ea565b60405162461bcd60e51b815260206004820152601360248201527256616c696461746f722069732061637469766560681b6044820152606490fd5b3461032a57602036600319011261032a576004356128d56141ab565b61138881116128e357600f55005b60405162461bcd60e51b81526020600482015260076024820152664d61782035302560c81b6044820152606490fd5b3461032a57604036600319011261032a5761292b612f75565b600435600052600a60205260406000209060018060a01b0316600052602052602061ffff60406000205416604051908152f35b3461032a57608036600319011261032a5760043561297a612f0f565b906044356001600160401b03811161032a5761299a903690600401612f45565b906064356001600160401b03811161032a576129ba903690600401612f45565b94906129c46141ab565b6129cf868514613220565b6129da84151561325e565b84600052600760205260408060002060009061ffff851682526020522092612a0b60ff600586015460101c1661329a565b60ff600185015460a01c16600281101561055f576001612a2e91989498146132dd565b60005b858110612aea5750856000526008602052604060002061ffff8816600052602052612a5f604060002061343a565b61ffff60009716965b858110612aa55787877f25742c04c8f0360e39abb67701fda4acb202e054e9776c223ff2b53398c7b26060208989600443910155604051908152a3005b600190876000526008602052612ae46040806000206000908c825260205220612ad26119df848b8861331b565b9061ffff6119f66119df868b8b61331b565b01612a68565b612afe611a296119df8389869c989c61331b565b866000526007602052612b2260ff6005604080600020611a6a6119df878d8a61331b565b86600052600760205260ff6001604080600020612b436119df868c8961331b565b9061ffff60009216825260205220015460a01c1690600282101561055f57612b6d600192156133ca565b01969296612a31565b3461032a57604036600319011261032a57600435612b92612f0f565b90612b9b61421d565b600081815260076020908152604080832061ffff86168452909152902060018101546001600160a01b03163303612c865760098101908154908115612c535760007f590fa2fafacb7b76b58059ea8c0b2e9e7fe3f6a044b9e3a27f9d1a1f3aff626d9355612c2a82337f000000000000000000000000000000000000000000000000000000000000000061423f565b546040805161ffff909616865260208601929092526001600160a01b03169390819081016107f2565b60405162461bcd60e51b815260206004820152600b60248201526a27379032b6b4b9b9b4b7b760a91b6044820152606490fd5b60405162461bcd60e51b81526020600482015260096024820152682737ba1037bbb732b960b91b6044820152606490fd5b3461032a57612cc536612f20565b612ccd61421d565b604080516020810185815260f085901b6001600160f01b03191692820192909252612cfb816042810161078d565b51902033600052600b6020526040600020816000526020528160406000205410612de4577fef37dac52e652a2f78cc3df2429066b4d48a100f62255b7343f6396b3c2eef81916107f29133600052600b6020526040600020906000526020526040600020612d6a828254613213565b9055846000526007602052604060002061ffff85166000526020526003604060002001612d98828254613213565b9055612dc581337f000000000000000000000000000000000000000000000000000000000000000061423f565b6040519182913395836020909392919361ffff60408201951681520152565b60405162461bcd60e51b815260206004820152601760248201527f496e73756666696369656e742064656c65676174696f6e0000000000000000006044820152606490fd5b3461032a57600036600319011261032a576020601154604051908152f35b3461032a57602036600319011261032a57612e606141ab565b600435601255005b3461032a57604036600319011261032a5760606040612e85612f0f565b600435600052600c6020528160002061ffff6000921682526020522080549060ff600260018301549201541690604051928352602083015215156040820152f35b3461032a57602036600319011261032a57612edf6141ab565b612f0d60043530337f00000000000000000000000000000000000000000000000000000000000000006141d4565b005b6024359061ffff8216820361032a57565b606090600319011261032a576004359060243561ffff8116810361032a579060443590565b9181601f8401121561032a578235916001600160401b03831161032a576020808501948460051b01011161032a57565b602435906001600160a01b038216820361032a57565b600435906001600160a01b038216820361032a57565b90600281101561055f57600052602052604060002090565b90600182811c92168015612fe9575b6020831014612fd357565b634e487b7160e01b600052602260045260246000fd5b91607f1691612fc8565b604081019081106001600160401b03821117610b8957604052565b61018081019081106001600160401b03821117610b8957604052565b90601f801991011681019081106001600160401b03821117610b8957604052565b906040519182600082549261305f84612fb9565b80845293600181169081156130cd5750600114613086575b506130849250038361302a565b565b90506000929192526020600020906000915b8183106130b15750509060206130849282010138613077565b6020919350806001915483858901015201910190918492613098565b90506020925061308494915060ff191682840152151560051b82010138613077565b919082519283825260005b84811061311b575050826000602080949584010152601f8019910116010190565b806020809284010151828286010152016130fa565b90600282101561055f5752565b9181601f8401121561032a578235916001600160401b03831161032a576020838186019501011161032a57565b906020808351928381520192019060005b8181106131885750505090565b82516001600160a01b031684526020938401939092019160010161317b565b906020808351928381520192019060005b8181106131c55750505090565b82518452602093840193909201916001016131b8565b906020808351928381520192019060005b8181106131f95750505090565b825161ffff168452602093840193909201916001016131ec565b91908203918211610ab157565b1561322757565b60405162461bcd60e51b815260206004820152600f60248201526e098cadccee8d040dad2e6dac2e8c6d608b1b6044820152606490fd5b1561326557565b60405162461bcd60e51b815260206004820152600d60248201526c456d707479207765696768747360981b6044820152606490fd5b156132a157565b60405162461bcd60e51b815260206004820152601460248201527356616c696461746f72206e6f742061637469766560601b6044820152606490fd5b156132e457565b60405162461bcd60e51b815260206004820152600f60248201526e2737ba1030903b30b634b230ba37b960891b6044820152606490fd5b919081101561332b5760051b0190565b634e487b7160e01b600052603260045260246000fd5b3561ffff8116810361032a5790565b1561335757565b60405162461bcd60e51b815260206004820152600b60248201526a125b9d985b1a590815525160aa1b6044820152606490fd5b1561339157565b60405162461bcd60e51b8152602060048201526011602482015270546172676574206e6f742061637469766560781b6044820152606490fd5b156133d157565b60405162461bcd60e51b815260206004820152601660248201527543616e206f6e6c7920776569676874206d696e65727360501b6044820152606490fd5b906113888202918083046113881490151715610ab157565b81810292918115918404141715610ab157565b805490600081558161344a575050565b6000526020600020908101905b818110613462575050565b60008155600101613457565b805482101561332b5760005260206000200190600090565b805468010000000000000000811015610b89576134a89160018201815561346e565b9190916134db578051825460209092015163ffffffff1990921661ffff919091161760109190911b63ffff000016179055565b634e487b7160e01b600052600060045260246000fd5b156134f857565b60405162461bcd60e51b815260206004820152600a6024820152694e6f742061637469766560b01b6044820152606490fd5b91908201809211610ab157565b8115613541570490565b634e487b7160e01b600052601260045260246000fd5b908060209392818452848401376000828201840152601f01601f1916010190565b1561357f57565b60405162461bcd60e51b815260206004820152600e60248201526d139bdd081c9959da5cdd195c995960921b6044820152606490fd5b156135bc57565b60405162461bcd60e51b81526020600482015260116024820152705375626e6574206e6f742061637469766560781b6044820152606490fd5b6000198114610ab15760010190565b906000905b8082106136165750505090565b90919283359061ffff8216820361032a576020809161ffff600194168152019401920190613609565b1561364657565b60405162461bcd60e51b815260206004820152600e60248201526d139bdd08185d5d1a1bdc9a5e995960921b6044820152606490fd5b6001600160401b038111610b895760051b60200190565b9061369d8261367c565b6136aa604051918261302a565b82815280926136bb601f199161367c565b0190602036910137565b61ffff1661ffff8114610ab15760010190565b805182101561332b5760209160051b010190565b9081600052600660205260406000209161370c60ff600a850154166135b5565b600583015461371f60048501548261352a565b431061417a5760088401541561414a5760055480156141105761375e61375361374b6137639443613213565b600454613427565b600387015490613427565b613537565b6040516370a0823160e01b81523060048201529092906020816024817f00000000000000000000000000000000000000000000000000000000000000006001600160a01b03165afa908115614104576000916140d2575b508084116140ca575b5082156140be576009840154926137d984613693565b916000916137e686613693565b96835b8761ffff821610156139c25786600052600760205260408060002060009061ffff841682526020522060ff600582015460101c161580156139a4575b61399a5761383c600282015460038301549061352a565b801561398f576138616007613859670de0b6b3a76400009361427a565b93015461340f565b0461271001908161271011610ab1576127109161387d91613427565b0487600052600860205260408060002060009061ffff85168252602052209060009182908054915b8281106139685750831561395b5792919060009384935b8b8386106138e857505050505050906138e3916138dd61ffff83168c6136d8565b526136c5565b6137e9565b61392d61394a8780999e6139509461394461ffff6139248961375e8e9f9e8d9e9f61391860019e9f91879261346e565b505460101c1690613427565b9687958c61346e565b5054166104e68561393e83866136d8565b5161352a565b5261352a565b9c61352a565b9501939291906138bc565b505050506138e3906136c5565b9361398860019161ffff61397c888661346e565b505460101c169061352a565b94016138a5565b50506138e3906136c5565b506138e3906136c5565b5060ff600182015460a01c16600281101561055f5760011415613825565b509392919650939450612008840284810461200803610ab15761271090048115159081613f7b575b50610708850285810461070803610ab157612710900460009060006009870154905b8161ffff821610613ec857505081613dce575b5050613a61575b50507f8b62a28f277757eb2f6f2f71863cbb10e1ce66d8bcfa14b5ebcba332ab867331916040916005439101558151904382526020820152a2565b91939260009591955b600986015461ffff82161015613dbe5784600052600760205260408060002060009061ffff84168252602052209060ff600583015460101c16158015613da0575b613d965785600052600860205260408060002060009061ffff8416825260205220805415613ce6578054600091825b828110613cc75750600092839284925b818410613c005750600092505082159050613bf85750670de0b6b3a7640000820291808304670de0b6b3a76400001490151715610ab157613b2a91613537565b60078301908154604681029080820460461490151715610ab157601e820294828604601e1483151715610ab1576064613b68613bf39760099461352a565b04809455897f41e0549644e0a71255b7ed60362e6a3b2a3d5b8b00a6a7cb1b205f14e2528d0860405180613bae888a836020909392919361ffff60408201951681520152565b0390a2015460405192835260208301526040820152867f70081bb37524d6436e9f431af67096c6878e6c5daf03fe827e65b73168db6398606061ffff851693a36136c5565b613a6a565b915050613b2a565b909192939461ffff613c12868461346e565b505460101c1680670de0b6b3a7640000810204670de0b6b3a76400001481151715610ab157613c678f9186670de0b6b3a7640000613c509202613537565b9161ffff613c5e898761346e565b505416906136d8565b5190670de0b6b3a7640000820291808304670de0b6b3a76400001490151715610ab15760019281613c9b8f613cb295613537565b808211613cbc5750613cac9161352a565b9761352a565b9401929190613aea565b9050613cac9161352a565b909192613cdd60019161ffff61397c858761346e565b93929101613ada565b50600782018054605f810290808204605f1490151715610ab157613bf393606460099204809355887f41e0549644e0a71255b7ed60362e6a3b2a3d5b8b00a6a7cb1b205f14e2528d0860405180613d4f8789836020909392919361ffff60408201951681520152565b0390a20154604051918252602082015260006040820152867f70081bb37524d6436e9f431af67096c6878e6c5daf03fe827e65b73168db6398606061ffff851693a36136c5565b613bf391506136c5565b5060ff600183015460a01c16600281101561055f5760011415613aab565b5090945091929050816040613a26565b9592600098949198979592975b600984015461ffff82161015613eb85786600052600760205260408060002060009061ffff84168252602052209060ff600583015460101c1680613e9b575b613e2e575b613e2991506136c5565b613ddb565b613e41600283015460038401549061352a565b91670de0b6b3a7640000613e58600783015461340f565b04612710018061271011610ab1576009613e8a8e61375e8e612710613e83613e9497613e299b613427565b0490613427565b920191825461352a565b9055613e1f565b5060ff600183015460a01c16600281101561055f57600114613e1a565b5092955092965092943880613a1f565b89600052600760205260408060002060009061ffff841682526020522060ff600582015460101c1680613f5e575b613f0a575b50613f05906136c5565b613a0c565b670de0b6b3a7640000613f2e6007613859600285999699015460038601549061352a565b0461271001918261271011610ab157612710613f50613f0594613f5794613427565b049061352a565b9390613efb565b5060ff600182015460a01c16600281101561055f57600114613ef6565b91929460009791979694965b60098801549061ffff8116918210156140ae57613fa482896136d8565b51151580614085575b613fc1575b613fbc91506136c5565b613f87565b613fd98661375e613fd2858c6136d8565b5188613427565b8760005260076020526009604080600020600090868252602052200161400082825461352a565b905561400c838a6136d8565b51670de0b6b3a7640000810290808204670de0b6b3a76400001490151715610ab15760066040613fbc956140438b61407e95613537565b8c6000526007602052600883806000206000908582526020522001558b6000526007602052816000206000918252602052200191825461352a565b9055613fb2565b5086600052600760205260ff600560408060002060009086825260205220015460101c16613fad565b50509492915095949294386139ea565b92915050600543910155565b9250386137c3565b90506020813d6020116140fc575b816140ed6020938361302a565b8101031261032a5751386137ba565b3d91506140e0565b6040513d6000823e3d90fd5b60405162461bcd60e51b81526020600482015260126024820152714e6f20656d697373696f6e2073686172657360701b6044820152606490fd5b60405162461bcd60e51b81526020600482015260086024820152674e6f206e6f64657360c01b6044820152606490fd5b60405162461bcd60e51b8152602060048201526009602482015268546f6f206561726c7960b81b6044820152606490fd5b6000546001600160a01b031633036141bf57565b63118cdaa760e01b6000523360045260246000fd5b6040516323b872dd60e01b60208201526001600160a01b0392831660248201529290911660448301526064808301939093529181526130849161421860848361302a565b6142bc565b60026001541461422e576002600155565b633ee5aeb560e01b60005260046000fd5b60405163a9059cbb60e01b60208201526001600160a01b0390921660248301526044808301939093529181526130849161421860648361302a565b80156142b65760018101808211610ab15760011c815b82821061429c57505090565b9091506142ad826117228184613537565b60011c90614290565b50600090565b906000602091828151910182855af115614104576000513d61430e57506001600160a01b0381163b155b6142ed5750565b635274afe760e01b60009081526001600160a01b0391909116600452602490fd5b600114156142e656fea2646970667358221220a7e255eb534b885e0e3044b1f0de01585f66220a438f9c5a431b8485007c922e64736f6c634300081c0033","opcodes":"PUSH1 0xA0 CALLVALUE PUSH2 0x174 JUMPI PUSH1 0x1F PUSH2 0x44DD CODESIZE DUP2 SWAP1 SUB SWAP2 DUP3 ADD PUSH1 0x1F NOT AND DUP4 ADD SWAP2 PUSH1 0x1 PUSH1 0x1 PUSH1 0x40 SHL SUB DUP4 GT DUP5 DUP5 LT OR PUSH2 0x179 JUMPI DUP1 DUP5 SWAP3 PUSH1 0x60 SWAP5 PUSH1 0x40 MSTORE DUP4 CODECOPY DUP2 ADD SUB SLT PUSH2 0x174 JUMPI DUP1 MLOAD PUSH1 0x1 PUSH1 0x1 PUSH1 0xA0 SHL SUB DUP2 AND SWAP2 SWAP1 DUP3 SWAP1 SUB PUSH2 0x174 JUMPI PUSH1 0x40 PUSH1 0x20 DUP3 ADD MLOAD SWAP2 ADD MLOAD SWAP2 CALLER ISZERO PUSH2 0x15E JUMPI PUSH1 0x0 DUP1 SLOAD CALLER PUSH1 0x1 PUSH1 0x1 PUSH1 0xA0 SHL SUB NOT DUP3 AND DUP2 OR DUP4 SSTORE PUSH1 0x40 MLOAD SWAP3 SWAP1 SWAP2 PUSH1 0x1 PUSH1 0x1 PUSH1 0xA0 SHL SUB AND SWAP1 PUSH32 0x8BE0079C531659141344CD1FD0A4F28419497F9722A3DAAFE3B4186F6B6457E0 SWAP1 DUP1 LOG3 PUSH1 0x1 DUP1 SSTORE PUSH1 0x1 PUSH1 0x2 SSTORE PUSH2 0x1F4 PUSH1 0xF SSTORE PUSH2 0x1C20 PUSH1 0x10 SSTORE PUSH2 0x258 PUSH1 0x11 SSTORE PUSH1 0xA PUSH1 0x12 SSTORE DUP2 ISZERO PUSH2 0x12C JUMPI POP PUSH1 0x80 MSTORE PUSH1 0x3 SSTORE PUSH1 0x4 SSTORE PUSH1 0x40 MLOAD PUSH2 0x434D SWAP1 DUP2 PUSH2 0x190 DUP3 CODECOPY PUSH1 0x80 MLOAD DUP2 DUP2 DUP2 PUSH2 0x345 ADD MSTORE DUP2 DUP2 PUSH2 0x73F ADD MSTORE DUP2 DUP2 PUSH2 0xBA7 ADD MSTORE DUP2 DUP2 PUSH2 0x1597 ADD MSTORE DUP2 DUP2 PUSH2 0x1F60 ADD MSTORE DUP2 DUP2 PUSH2 0x2C06 ADD MSTORE DUP2 DUP2 PUSH2 0x2DA1 ADD MSTORE DUP2 DUP2 PUSH2 0x2EE9 ADD MSTORE PUSH2 0x3781 ADD MSTORE RETURN JUMPDEST PUSH3 0x461BCD PUSH1 0xE5 SHL DUP2 MSTORE PUSH1 0x20 PUSH1 0x4 DUP3 ADD MSTORE PUSH1 0xD PUSH1 0x24 DUP3 ADD MSTORE PUSH13 0x24B73B30B634B2103A37B5B2B7 PUSH1 0x99 SHL PUSH1 0x44 DUP3 ADD MSTORE PUSH1 0x64 SWAP1 REVERT JUMPDEST PUSH4 0x1E4FBDF7 PUSH1 0xE0 SHL PUSH1 0x0 MSTORE PUSH1 0x0 PUSH1 0x4 MSTORE PUSH1 0x24 PUSH1 0x0 REVERT JUMPDEST PUSH1 0x0 DUP1 REVERT JUMPDEST PUSH4 0x4E487B71 PUSH1 0xE0 SHL PUSH1 0x0 MSTORE PUSH1 0x41 PUSH1 0x4 MSTORE PUSH1 0x24 PUSH1 0x0 REVERT INVALID PUSH1 0x80 PUSH1 0x40 MSTORE PUSH1 0x4 CALLDATASIZE LT ISZERO PUSH2 0x12 JUMPI PUSH1 0x0 DUP1 REVERT JUMPDEST PUSH1 0x0 CALLDATALOAD PUSH1 0xE0 SHR DUP1 PUSH4 0x13476085 EQ PUSH2 0x2EC6 JUMPI DUP1 PUSH4 0x14511BF7 EQ PUSH2 0x26F8 JUMPI DUP1 PUSH4 0x14D59888 EQ PUSH2 0x2E68 JUMPI DUP1 PUSH4 0x1602AB29 EQ PUSH2 0x2E47 JUMPI DUP1 PUSH4 0x1AEFA1B6 EQ PUSH2 0x2E29 JUMPI DUP1 PUSH4 0x1BA60B70 EQ PUSH2 0x2CB7 JUMPI DUP1 PUSH4 0x1CAA9070 EQ PUSH2 0x2B76 JUMPI DUP1 PUSH4 0x2AAA86AA EQ PUSH2 0x295E JUMPI DUP1 PUSH4 0x2B4B3753 EQ PUSH2 0x2912 JUMPI DUP1 PUSH4 0x393EBBF8 EQ PUSH2 0x28B9 JUMPI DUP1 PUSH4 0x3A05EAA9 EQ PUSH2 0x273F JUMPI DUP1 PUSH4 0x3C813394 EQ PUSH2 0x2716 JUMPI DUP1 PUSH4 0x3D5316DD EQ PUSH2 0x26F8 JUMPI DUP1 PUSH4 0x43219F03 EQ PUSH2 0x2697 JUMPI DUP1 PUSH4 0x46A655AF EQ PUSH2 0x2676 JUMPI DUP1 PUSH4 0x475726F7 EQ PUSH2 0x25A9 JUMPI DUP1 PUSH4 0x4A77AC98 EQ PUSH2 0x258B JUMPI DUP1 PUSH4 0x5071B891 EQ PUSH2 0x2506 JUMPI DUP1 PUSH4 0x58CA7504 EQ PUSH2 0x2474 JUMPI DUP1 PUSH4 0x617078FB EQ PUSH2 0x2397 JUMPI DUP1 PUSH4 0x6B54B309 EQ PUSH2 0x2194 JUMPI DUP1 PUSH4 0x710FE5CD EQ PUSH2 0x2173 JUMPI DUP1 PUSH4 0x715018A6 EQ PUSH2 0x211A JUMPI DUP1 PUSH4 0x7339E881 EQ PUSH2 0x209F JUMPI DUP1 PUSH4 0x75E6EE17 EQ PUSH2 0x1C0E JUMPI DUP1 PUSH4 0x8272F0B8 EQ PUSH2 0x1BF0 JUMPI DUP1 PUSH4 0x842443DC EQ PUSH2 0x178D JUMPI DUP1 PUSH4 0x8A52CC1C EQ PUSH2 0x1682 JUMPI DUP1 PUSH4 0x8DA5CB5B EQ PUSH2 0x1659 JUMPI DUP1 PUSH4 0x9E1611BF EQ PUSH2 0x13EE JUMPI DUP1 PUSH4 0x9E793787 EQ PUSH2 0x13D0 JUMPI DUP1 PUSH4 0xA4CE91C6 EQ PUSH2 0x138D JUMPI DUP1 PUSH4 0xB53C39B4 EQ PUSH2 0x1345 JUMPI DUP1 PUSH4 0xB81F6E18 EQ PUSH2 0x12F8 JUMPI DUP1 PUSH4 0xBD58199A EQ PUSH2 0x12DA JUMPI DUP1 PUSH4 0xBDDEE43C EQ PUSH2 0x12B9 JUMPI DUP1 PUSH4 0xC0843EEB EQ PUSH2 0x1272 JUMPI DUP1 PUSH4 0xC113C311 EQ PUSH2 0x117D JUMPI DUP1 PUSH4 0xC95986A2 EQ PUSH2 0x115F JUMPI DUP1 PUSH4 0xCC2D54C4 EQ PUSH2 0x1141 JUMPI DUP1 PUSH4 0xD19E2CE8 EQ PUSH2 0x1120 JUMPI DUP1 PUSH4 0xD2D98509 EQ PUSH2 0x1057 JUMPI DUP1 PUSH4 0xDEC74F18 EQ PUSH2 0xED1 JUMPI DUP1 PUSH4 0xDFBEFFFF EQ PUSH2 0xD59 JUMPI DUP1 PUSH4 0xE485C04C EQ PUSH2 0xD2F JUMPI DUP1 PUSH4 0xED23DCBA EQ PUSH2 0xD12 JUMPI DUP1 PUSH4 0xF2FDE38B EQ PUSH2 0xC89 JUMPI DUP1 PUSH4 0xF39E9F4B EQ PUSH2 0x835 JUMPI DUP1 PUSH4 0xF46E1E1F EQ PUSH2 0x6A3 JUMPI DUP1 PUSH4 0xF6EC03F1 EQ PUSH2 0x686 JUMPI DUP1 PUSH4 0xFA613958 EQ PUSH2 0x374 JUMPI DUP1 PUSH4 0xFC0C546A EQ PUSH2 0x32F JUMPI PUSH4 0xFFFC4BBF EQ PUSH2 0x263 JUMPI PUSH1 0x0 DUP1 REVERT JUMPDEST CALLVALUE PUSH2 0x32A JUMPI PUSH1 0x40 CALLDATASIZE PUSH1 0x3 NOT ADD SLT PUSH2 0x32A JUMPI PUSH1 0x40 PUSH2 0x27E PUSH2 0x2F0F JUMP JUMPDEST PUSH1 0x4 CALLDATALOAD PUSH1 0x0 MSTORE PUSH1 0x8 PUSH1 0x20 MSTORE DUP2 PUSH1 0x0 KECCAK256 PUSH2 0xFFFF PUSH1 0x0 SWAP3 AND DUP3 MSTORE PUSH1 0x20 MSTORE KECCAK256 DUP1 SLOAD PUSH2 0x2A5 DUP2 PUSH2 0x3693 JUMP JUMPDEST SWAP1 PUSH2 0x2AF DUP2 PUSH2 0x3693 JUMP JUMPDEST SWAP3 PUSH1 0x0 JUMPDEST DUP3 DUP2 LT PUSH2 0x2E8 JUMPI PUSH2 0x2D6 DUP5 PUSH2 0x2E4 DUP8 PUSH1 0x40 MLOAD SWAP4 DUP5 SWAP4 PUSH1 0x40 DUP6 MSTORE PUSH1 0x40 DUP6 ADD SWAP1 PUSH2 0x31DB JUMP JUMPDEST SWAP1 DUP4 DUP3 SUB PUSH1 0x20 DUP6 ADD MSTORE PUSH2 0x31DB JUMP JUMPDEST SUB SWAP1 RETURN JUMPDEST DUP1 PUSH2 0xFFFF PUSH2 0x2F8 PUSH1 0x1 SWAP4 DUP6 PUSH2 0x346E JUMP JUMPDEST POP SLOAD AND PUSH2 0x305 DUP3 DUP8 PUSH2 0x36D8 JUMP JUMPDEST MSTORE PUSH2 0xFFFF PUSH2 0x313 DUP3 DUP6 PUSH2 0x346E JUMP JUMPDEST POP SLOAD PUSH1 0x10 SHR AND PUSH2 0x323 DUP3 DUP9 PUSH2 0x36D8 JUMP JUMPDEST MSTORE ADD PUSH2 0x2B3 JUMP JUMPDEST PUSH1 0x0 DUP1 REVERT JUMPDEST CALLVALUE PUSH2 0x32A JUMPI PUSH1 0x0 CALLDATASIZE PUSH1 0x3 NOT ADD SLT PUSH2 0x32A JUMPI PUSH1 0x40 MLOAD PUSH32 0x0 PUSH1 0x1 PUSH1 0x1 PUSH1 0xA0 SHL SUB AND DUP2 MSTORE PUSH1 0x20 SWAP1 RETURN JUMPDEST CALLVALUE PUSH2 0x32A JUMPI PUSH1 0x20 CALLDATASIZE PUSH1 0x3 NOT ADD SLT PUSH2 0x32A JUMPI PUSH1 0x4 CALLDATALOAD DUP1 PUSH1 0x0 MSTORE PUSH1 0x6 PUSH1 0x20 MSTORE PUSH1 0x40 PUSH1 0x0 KECCAK256 PUSH1 0x8 DUP2 ADD SLOAD PUSH2 0x3A4 DUP2 PUSH2 0x3693 JUMP JUMPDEST SWAP1 PUSH2 0x3AE DUP2 PUSH2 0x3693 JUMP JUMPDEST PUSH2 0x3B7 DUP3 PUSH2 0x3693 JUMP JUMPDEST SWAP3 PUSH2 0x3C1 DUP4 PUSH2 0x3693 JUMP JUMPDEST SWAP1 PUSH2 0x3CB DUP5 PUSH2 0x3693 JUMP JUMPDEST PUSH2 0x3D4 DUP6 PUSH2 0x3693 JUMP JUMPDEST SWAP3 PUSH2 0x3DE DUP7 PUSH2 0x367C JUMP JUMPDEST SWAP7 PUSH1 0x40 MLOAD SWAP8 PUSH2 0x3ED SWAP1 DUP10 PUSH2 0x302A JUMP JUMPDEST DUP7 DUP9 MSTORE PUSH2 0x3F9 DUP8 PUSH2 0x367C JUMP JUMPDEST PUSH1 0x20 DUP10 ADD SWAP11 SWAP1 PUSH1 0x1F NOT ADD CALLDATASIZE DUP13 CALLDATACOPY PUSH2 0x40F DUP9 PUSH2 0x367C JUMP JUMPDEST SWAP11 PUSH1 0x40 MLOAD SWAP12 PUSH2 0x41E SWAP1 DUP14 PUSH2 0x302A JUMP JUMPDEST DUP9 DUP13 MSTORE PUSH2 0x42A DUP10 PUSH2 0x367C JUMP JUMPDEST PUSH1 0x20 DUP14 ADD SWAP2 SWAP1 PUSH1 0x1F NOT ADD CALLDATASIZE DUP4 CALLDATACOPY DUP10 PUSH1 0x0 SWAP13 DUP14 DUP1 SWAP13 PUSH1 0x9 DUP15 SWAP4 ADD SLOAD PUSH2 0xFFFF DUP2 SWAP5 JUMPDEST AND LT SWAP2 DUP3 PUSH2 0x67C JUMPI JUMPDEST POP POP ISZERO PUSH2 0x583 JUMPI DUP5 PUSH1 0x0 MSTORE PUSH1 0x7 PUSH1 0x20 MSTORE PUSH1 0x40 DUP13 DUP2 PUSH1 0x0 KECCAK256 PUSH2 0xFFFF PUSH1 0x0 SWAP3 AND DUP3 MSTORE PUSH1 0x20 MSTORE KECCAK256 PUSH1 0xFF PUSH1 0x5 DUP3 ADD SLOAD PUSH1 0x10 SHR AND ISZERO PUSH2 0x575 JUMPI SWAP14 PUSH1 0xFF PUSH1 0x2 SWAP16 DUP13 PUSH2 0x515 DUP16 SWAP3 PUSH1 0x9 DUP16 SWAP2 DUP16 DUP16 DUP16 DUP11 SWAP6 PUSH2 0x4B0 DUP8 PUSH1 0x1 DUP1 PUSH1 0xA0 SHL SUB DUP8 SLOAD AND SWAP3 PUSH2 0x36D8 JUMP JUMPDEST MSTORE PUSH1 0x1 DUP5 ADD SLOAD SWAP9 PUSH1 0x1 PUSH1 0x1 PUSH1 0xA0 SHL SUB DUP11 AND SWAP1 PUSH2 0x4CD SWAP1 DUP9 SWAP1 PUSH2 0x36D8 JUMP JUMPDEST MSTORE PUSH1 0x2 DUP7 PUSH2 0x4E6 PUSH2 0x4EC SWAP3 DUP8 ADD SLOAD PUSH1 0x3 DUP9 ADD SLOAD SWAP1 PUSH2 0x352A JUMP JUMPDEST SWAP3 PUSH2 0x36D8 JUMP JUMPDEST MSTORE PUSH2 0x4FC DUP6 PUSH1 0x8 DUP6 ADD SLOAD SWAP3 PUSH2 0x36D8 JUMP JUMPDEST MSTORE PUSH2 0x50C DUP5 PUSH1 0x6 DUP5 ADD SLOAD SWAP3 PUSH2 0x36D8 JUMP JUMPDEST MSTORE ADD SLOAD SWAP3 PUSH2 0x36D8 JUMP JUMPDEST MSTORE PUSH1 0xA0 SHR AND SWAP15 DUP16 LT ISZERO PUSH2 0x55F JUMPI DUP16 PUSH2 0xFFFF SWAP16 SWAP2 DUP16 PUSH2 0x547 DUP3 PUSH2 0x54D SWAP5 PUSH2 0x553 SWAP7 PUSH2 0x541 DUP4 PUSH1 0x1 SWAP7 PUSH2 0x36D8 JUMP JUMPDEST MSTORE PUSH2 0x36D8 JUMP JUMPDEST MSTORE PUSH2 0x35F5 JUMP JUMPDEST SWAP13 PUSH2 0x36C5 JUMP JUMPDEST SWAP12 DUP3 DUP2 SWAP16 DUP4 SWAP1 DUP16 PUSH2 0x44A JUMP JUMPDEST PUSH4 0x4E487B71 PUSH1 0xE0 SHL PUSH1 0x0 MSTORE PUSH1 0x21 PUSH1 0x4 MSTORE PUSH1 0x24 PUSH1 0x0 REVERT JUMPDEST POP PUSH2 0x553 PUSH2 0xFFFF SWAP15 SWAP13 PUSH2 0x36C5 JUMP JUMPDEST POP POP SWAP8 SWAP11 POP SWAP8 POP POP SWAP1 DUP10 SWAP5 SWAP3 SWAP2 SWAP8 SWAP4 SWAP8 PUSH1 0x40 MLOAD SWAP10 DUP11 SWAP10 PUSH2 0x100 DUP12 MSTORE PUSH2 0x100 DUP12 ADD PUSH2 0x5AC SWAP2 PUSH2 0x316A JUMP JUMPDEST DUP11 DUP2 SUB PUSH1 0x20 DUP13 ADD MSTORE PUSH2 0x5BD SWAP2 PUSH2 0x316A JUMP JUMPDEST DUP10 DUP2 SUB PUSH1 0x40 DUP12 ADD MSTORE PUSH2 0x5CE SWAP2 PUSH2 0x31A7 JUMP JUMPDEST DUP9 DUP2 SUB PUSH1 0x60 DUP11 ADD MSTORE PUSH2 0x5DF SWAP2 PUSH2 0x31A7 JUMP JUMPDEST DUP8 DUP2 SUB PUSH1 0x80 DUP10 ADD MSTORE PUSH2 0x5F0 SWAP2 PUSH2 0x31A7 JUMP JUMPDEST DUP7 DUP2 SUB PUSH1 0xA0 DUP9 ADD MSTORE PUSH2 0x601 SWAP2 PUSH2 0x31A7 JUMP JUMPDEST SWAP1 DUP6 DUP3 SUB PUSH1 0xC0 DUP8 ADD MSTORE MLOAD SWAP1 DUP2 DUP2 MSTORE PUSH1 0x20 ADD SWAP3 SWAP1 PUSH1 0x0 JUMPDEST DUP2 DUP2 LT PUSH2 0x660 JUMPI POP POP POP PUSH1 0x20 SWAP1 DUP5 DUP4 SUB PUSH1 0xE0 DUP7 ADD MSTORE MLOAD SWAP2 DUP3 DUP2 MSTORE ADD SWAP2 SWAP1 PUSH1 0x0 JUMPDEST DUP2 DUP2 LT PUSH2 0x645 JUMPI POP POP POP SUB SWAP1 RETURN JUMPDEST DUP3 MLOAD ISZERO ISZERO DUP5 MSTORE DUP6 SWAP5 POP PUSH1 0x20 SWAP4 DUP5 ADD SWAP4 SWAP1 SWAP3 ADD SWAP2 PUSH1 0x1 ADD PUSH2 0x637 JUMP JUMPDEST DUP3 MLOAD PUSH1 0xFF AND DUP6 MSTORE DUP8 SWAP7 POP PUSH1 0x20 SWAP5 DUP6 ADD SWAP5 SWAP1 SWAP3 ADD SWAP2 PUSH1 0x1 ADD PUSH2 0x617 JUMP JUMPDEST LT SWAP1 POP DUP3 DUP16 PUSH2 0x453 JUMP JUMPDEST CALLVALUE PUSH2 0x32A JUMPI PUSH1 0x0 CALLDATASIZE PUSH1 0x3 NOT ADD SLT PUSH2 0x32A JUMPI PUSH1 0x20 PUSH1 0x40 MLOAD PUSH2 0x2710 DUP2 MSTORE RETURN JUMPDEST CALLVALUE PUSH2 0x32A JUMPI PUSH2 0x6B1 CALLDATASIZE PUSH2 0x2F20 JUMP JUMPDEST PUSH2 0x6B9 PUSH2 0x421D JUMP JUMPDEST DUP1 ISZERO PUSH2 0x7FB JUMPI DUP3 PUSH1 0x0 MSTORE PUSH1 0x7 PUSH1 0x20 MSTORE PUSH1 0x40 DUP1 PUSH1 0x0 KECCAK256 PUSH1 0x0 SWAP1 PUSH2 0xFFFF DUP6 AND DUP3 MSTORE PUSH1 0x20 MSTORE KECCAK256 PUSH2 0x6EF PUSH1 0xFF PUSH1 0x5 DUP4 ADD SLOAD PUSH1 0x10 SHR AND PUSH2 0x329A JUMP JUMPDEST PUSH1 0xFF PUSH1 0x1 DUP3 ADD SLOAD PUSH1 0xA0 SHR AND SWAP2 PUSH1 0x2 DUP4 LT ISZERO PUSH2 0x55F JUMPI PUSH1 0x3 PUSH2 0x7F2 SWAP3 PUSH2 0x737 PUSH1 0x1 PUSH32 0x27AAA6A9479088EDB91E883282880AC91E93B04A07C8A730242E0ED59C54598 SWAP7 EQ PUSH2 0x32DD JUMP JUMPDEST PUSH2 0x763 DUP4 ADDRESS CALLER PUSH32 0x0 PUSH2 0x41D4 JUMP JUMPDEST PUSH1 0x40 DUP1 MLOAD PUSH1 0x20 DUP2 ADD DUP10 DUP2 MSTORE PUSH1 0xF0 DUP10 SWAP1 SHL PUSH1 0x1 PUSH1 0x1 PUSH1 0xF0 SHL SUB NOT AND SWAP3 DUP3 ADD SWAP3 SWAP1 SWAP3 MSTORE PUSH2 0x79B DUP2 PUSH1 0x42 DUP2 ADD JUMPDEST SUB PUSH1 0x1F NOT DUP2 ADD DUP4 MSTORE DUP3 PUSH2 0x302A JUMP JUMPDEST MLOAD SWAP1 KECCAK256 CALLER PUSH1 0x0 MSTORE PUSH1 0xB PUSH1 0x20 MSTORE PUSH1 0x40 PUSH1 0x0 KECCAK256 SWAP1 PUSH1 0x0 MSTORE PUSH1 0x20 MSTORE PUSH1 0x40 PUSH1 0x0 KECCAK256 PUSH2 0x7C3 DUP5 DUP3 SLOAD PUSH2 0x352A JUMP JUMPDEST SWAP1 SSTORE ADD PUSH2 0x7D1 DUP3 DUP3 SLOAD PUSH2 0x352A JUMP JUMPDEST SWAP1 SSTORE PUSH1 0x40 MLOAD SWAP2 DUP3 SWAP2 CALLER SWAP6 DUP4 PUSH1 0x20 SWAP1 SWAP4 SWAP3 SWAP2 SWAP4 PUSH2 0xFFFF PUSH1 0x40 DUP3 ADD SWAP6 AND DUP2 MSTORE ADD MSTORE JUMP JUMPDEST SUB SWAP1 LOG3 PUSH1 0x1 DUP1 SSTORE STOP JUMPDEST PUSH1 0x40 MLOAD PUSH3 0x461BCD PUSH1 0xE5 SHL DUP2 MSTORE PUSH1 0x20 PUSH1 0x4 DUP3 ADD MSTORE PUSH1 0x12 PUSH1 0x24 DUP3 ADD MSTORE PUSH18 0x416D6F756E74206D757374206265203E203 PUSH1 0x74 SHL PUSH1 0x44 DUP3 ADD MSTORE PUSH1 0x64 SWAP1 REVERT JUMPDEST CALLVALUE PUSH2 0x32A JUMPI PUSH1 0x80 CALLDATASIZE PUSH1 0x3 NOT ADD SLT PUSH2 0x32A JUMPI PUSH1 0x4 CALLDATALOAD PUSH1 0x1 PUSH1 0x1 PUSH1 0x40 SHL SUB DUP2 GT PUSH2 0x32A JUMPI PUSH2 0x865 SWAP1 CALLDATASIZE SWAP1 PUSH1 0x4 ADD PUSH2 0x313D JUMP JUMPDEST PUSH1 0x64 CALLDATALOAD SWAP1 PUSH1 0x24 CALLDATALOAD PUSH2 0x874 PUSH2 0x421D JUMP JUMPDEST DUP2 ISZERO ISZERO DUP1 PUSH2 0xC7E JUMPI JUMPDEST ISZERO PUSH2 0xC4A JUMPI DUP1 ISZERO ISZERO DUP1 PUSH2 0xC3E JUMPI JUMPDEST ISZERO PUSH2 0xC06 JUMPI DUP3 ISZERO PUSH2 0xBD1 JUMPI PUSH1 0x3 SLOAD DUP1 PUSH2 0xB9F JUMPI JUMPDEST POP PUSH1 0x2 SLOAD SWAP3 PUSH2 0x8AD DUP5 PUSH2 0x35F5 JUMP JUMPDEST PUSH1 0x2 SSTORE PUSH1 0x40 MLOAD SWAP2 PUSH2 0x8BD DUP4 PUSH2 0x300E JUMP JUMPDEST PUSH1 0x1 PUSH1 0x1 PUSH1 0x40 SHL SUB DUP5 GT PUSH2 0xB89 JUMPI PUSH1 0x40 MLOAD PUSH2 0x8E2 PUSH1 0x1F DUP7 ADD PUSH1 0x1F NOT AND PUSH1 0x20 ADD DUP3 PUSH2 0x302A JUMP JUMPDEST DUP5 DUP2 MSTORE CALLDATASIZE DUP6 DUP9 ADD GT PUSH2 0x32A JUMPI DUP5 DUP8 PUSH1 0x20 DUP4 ADD CALLDATACOPY PUSH1 0x0 PUSH1 0x20 DUP7 DUP4 ADD ADD MSTORE DUP4 MSTORE CALLER PUSH1 0x20 DUP5 ADD MSTORE PUSH1 0x40 DUP4 ADD MSTORE PUSH2 0x3E8 PUSH1 0x60 DUP4 ADD MSTORE PUSH1 0x80 DUP3 ADD MSTORE NUMBER PUSH1 0xA0 DUP3 ADD MSTORE PUSH1 0x44 CALLDATALOAD PUSH1 0xC0 DUP3 ADD MSTORE PUSH2 0x1C20 PUSH1 0xE0 DUP3 ADD MSTORE PUSH1 0x0 PUSH2 0x100 DUP3 ADD MSTORE PUSH1 0x0 PUSH2 0x120 DUP3 ADD MSTORE PUSH1 0x1 PUSH2 0x140 DUP3 ADD MSTORE TIMESTAMP PUSH2 0x160 DUP3 ADD MSTORE DUP3 PUSH1 0x0 MSTORE PUSH1 0x6 PUSH1 0x20 MSTORE PUSH1 0x40 PUSH1 0x0 KECCAK256 SWAP1 DUP1 MLOAD DUP1 MLOAD SWAP1 PUSH1 0x1 PUSH1 0x1 PUSH1 0x40 SHL SUB DUP3 GT PUSH2 0xB89 JUMPI PUSH2 0x979 DUP5 SLOAD PUSH2 0x2FB9 JUMP JUMPDEST PUSH1 0x1F DUP2 GT PUSH2 0xB41 JUMPI JUMPDEST POP PUSH1 0x20 SWAP1 PUSH1 0x1F DUP4 GT PUSH1 0x1 EQ PUSH2 0xAD2 JUMPI SWAP2 DUP1 PUSH1 0xB SWAP5 SWAP3 PUSH2 0x160 SWAP5 PUSH1 0x0 SWAP3 PUSH2 0xAC7 JUMPI JUMPDEST POP POP DUP2 PUSH1 0x1 SHL SWAP2 PUSH1 0x0 NOT SWAP1 PUSH1 0x3 SHL SHR NOT AND OR DUP5 SSTORE JUMPDEST PUSH1 0x20 DUP2 ADD MLOAD PUSH1 0x1 DUP6 ADD DUP1 SLOAD PUSH1 0x1 PUSH1 0x1 PUSH1 0xA0 SHL SUB SWAP1 SWAP3 AND PUSH1 0x1 PUSH1 0x1 PUSH1 0xA0 SHL SUB NOT SWAP1 SWAP3 AND SWAP2 SWAP1 SWAP2 OR SWAP1 SSTORE PUSH1 0x40 DUP2 ADD MLOAD PUSH1 0x2 DUP6 ADD SSTORE PUSH1 0x60 DUP2 ADD MLOAD PUSH1 0x3 DUP6 ADD SSTORE PUSH1 0x80 DUP2 ADD MLOAD PUSH1 0x4 DUP6 ADD SSTORE PUSH1 0xA0 DUP2 ADD MLOAD PUSH1 0x5 DUP6 ADD SSTORE PUSH1 0xC0 DUP2 ADD MLOAD PUSH1 0x6 DUP6 ADD SSTORE PUSH1 0xE0 DUP2 ADD MLOAD PUSH1 0x7 DUP6 ADD SSTORE PUSH2 0x100 DUP2 ADD MLOAD PUSH1 0x8 DUP6 ADD SSTORE PUSH2 0x120 DUP2 ADD MLOAD PUSH1 0x9 DUP6 ADD SSTORE PUSH2 0x140 DUP2 ADD MLOAD PUSH1 0xA DUP6 ADD DUP1 SLOAD PUSH1 0xFF NOT AND SWAP2 ISZERO ISZERO PUSH1 0xFF AND SWAP2 SWAP1 SWAP2 OR SWAP1 SSTORE ADD MLOAD SWAP2 ADD SSTORE PUSH1 0x5 SLOAD PUSH2 0x3E8 DUP2 ADD DUP1 SWAP2 GT PUSH2 0xAB1 JUMPI PUSH32 0xAA2647B7670DA77B5FC5F9E4056C00263527212D34D09E44EFABD660C88C347A PUSH2 0xAA2 PUSH1 0x20 SWAP6 DUP6 SWAP4 PUSH1 0x5 SSTORE PUSH1 0x40 MLOAD SWAP2 DUP3 SWAP2 DUP9 DUP4 MSTORE CALLER SWAP7 DUP10 DUP5 ADD SWAP2 PUSH2 0x3557 JUMP JUMPDEST SUB SWAP1 LOG3 PUSH1 0x1 DUP1 SSTORE PUSH1 0x40 MLOAD SWAP1 DUP2 MSTORE RETURN JUMPDEST PUSH4 0x4E487B71 PUSH1 0xE0 SHL PUSH1 0x0 MSTORE PUSH1 0x11 PUSH1 0x4 MSTORE PUSH1 0x24 PUSH1 0x0 REVERT JUMPDEST ADD MLOAD SWAP1 POP DUP10 DUP1 PUSH2 0x9A3 JUMP JUMPDEST SWAP1 DUP5 PUSH1 0x0 MSTORE DUP1 PUSH1 0x0 KECCAK256 SWAP2 PUSH1 0x0 JUMPDEST PUSH1 0x1F NOT DUP6 AND DUP2 LT PUSH2 0xB29 JUMPI POP SWAP3 PUSH1 0xB SWAP5 SWAP3 PUSH1 0x1 SWAP3 PUSH2 0x160 SWAP6 DUP4 PUSH1 0x1F NOT DUP2 AND LT PUSH2 0xB10 JUMPI JUMPDEST POP POP POP DUP2 SHL ADD DUP5 SSTORE PUSH2 0x9B8 JUMP JUMPDEST ADD MLOAD PUSH1 0x0 NOT PUSH1 0xF8 DUP5 PUSH1 0x3 SHL AND SHR NOT AND SWAP1 SSTORE DUP10 DUP1 DUP1 PUSH2 0xB03 JUMP JUMPDEST SWAP2 SWAP3 PUSH1 0x20 PUSH1 0x1 DUP2 SWAP3 DUP7 DUP6 ADD MLOAD DUP2 SSTORE ADD SWAP5 ADD SWAP3 ADD PUSH2 0xADF JUMP JUMPDEST DUP5 PUSH1 0x0 MSTORE PUSH1 0x20 PUSH1 0x0 KECCAK256 PUSH1 0x1F DUP5 ADD PUSH1 0x5 SHR DUP2 ADD SWAP2 PUSH1 0x20 DUP6 LT PUSH2 0xB7F JUMPI JUMPDEST PUSH1 0x1F ADD PUSH1 0x5 SHR ADD SWAP1 JUMPDEST DUP2 DUP2 LT PUSH2 0xB73 JUMPI POP PUSH2 0x982 JUMP JUMPDEST PUSH1 0x0 DUP2 SSTORE PUSH1 0x1 ADD PUSH2 0xB66 JUMP JUMPDEST SWAP1 SWAP2 POP DUP2 SWAP1 PUSH2 0xB5D JUMP JUMPDEST PUSH4 0x4E487B71 PUSH1 0xE0 SHL PUSH1 0x0 MSTORE PUSH1 0x41 PUSH1 0x4 MSTORE PUSH1 0x24 PUSH1 0x0 REVERT JUMPDEST PUSH2 0xBCB SWAP1 ADDRESS CALLER PUSH32 0x0 PUSH2 0x41D4 JUMP JUMPDEST DUP5 PUSH2 0x89F JUMP JUMPDEST PUSH1 0x40 MLOAD PUSH3 0x461BCD PUSH1 0xE5 SHL DUP2 MSTORE PUSH1 0x20 PUSH1 0x4 DUP3 ADD MSTORE PUSH1 0xD PUSH1 0x24 DUP3 ADD MSTORE PUSH13 0x496E76616C69642074656D706F PUSH1 0x98 SHL PUSH1 0x44 DUP3 ADD MSTORE PUSH1 0x64 SWAP1 REVERT JUMPDEST PUSH1 0x40 MLOAD PUSH3 0x461BCD PUSH1 0xE5 SHL DUP2 MSTORE PUSH1 0x20 PUSH1 0x4 DUP3 ADD MSTORE PUSH1 0x10 PUSH1 0x24 DUP3 ADD MSTORE PUSH16 0x496E76616C6964206D61784E6F646573 PUSH1 0x80 SHL PUSH1 0x44 DUP3 ADD MSTORE PUSH1 0x64 SWAP1 REVERT JUMPDEST POP PUSH2 0x1000 DUP2 GT ISZERO PUSH2 0x88B JUMP JUMPDEST PUSH1 0x40 MLOAD PUSH3 0x461BCD PUSH1 0xE5 SHL DUP2 MSTORE PUSH1 0x20 PUSH1 0x4 DUP3 ADD MSTORE PUSH1 0xC PUSH1 0x24 DUP3 ADD MSTORE PUSH12 0x496E76616C6964206E616D65 PUSH1 0xA0 SHL PUSH1 0x44 DUP3 ADD MSTORE PUSH1 0x64 SWAP1 REVERT JUMPDEST POP PUSH1 0x40 DUP3 GT ISZERO PUSH2 0x87D JUMP JUMPDEST CALLVALUE PUSH2 0x32A JUMPI PUSH1 0x20 CALLDATASIZE PUSH1 0x3 NOT ADD SLT PUSH2 0x32A JUMPI PUSH2 0xCA2 PUSH2 0x2F8B JUMP JUMPDEST PUSH2 0xCAA PUSH2 0x41AB JUMP JUMPDEST PUSH1 0x1 PUSH1 0x1 PUSH1 0xA0 SHL SUB AND DUP1 ISZERO PUSH2 0xCFC JUMPI PUSH1 0x0 DUP1 SLOAD PUSH1 0x1 PUSH1 0x1 PUSH1 0xA0 SHL SUB NOT DUP2 AND DUP4 OR DUP3 SSTORE PUSH1 0x1 PUSH1 0x1 PUSH1 0xA0 SHL SUB AND SWAP1 PUSH32 0x8BE0079C531659141344CD1FD0A4F28419497F9722A3DAAFE3B4186F6B6457E0 SWAP1 DUP1 LOG3 STOP JUMPDEST PUSH4 0x1E4FBDF7 PUSH1 0xE0 SHL PUSH1 0x0 MSTORE PUSH1 0x0 PUSH1 0x4 MSTORE PUSH1 0x24 PUSH1 0x0 REVERT JUMPDEST CALLVALUE PUSH2 0x32A JUMPI PUSH1 0x0 CALLDATASIZE PUSH1 0x3 NOT ADD SLT PUSH2 0x32A JUMPI PUSH1 0x20 PUSH1 0x40 MLOAD PUSH2 0x3A98 DUP2 MSTORE RETURN JUMPDEST CALLVALUE PUSH2 0x32A JUMPI PUSH1 0x20 CALLDATASIZE PUSH1 0x3 NOT ADD SLT PUSH2 0x32A JUMPI PUSH2 0xD48 PUSH2 0x421D JUMP JUMPDEST PUSH2 0xD53 PUSH1 0x4 CALLDATALOAD PUSH2 0x36EC JUMP JUMPDEST PUSH1 0x1 DUP1 SSTORE STOP JUMPDEST CALLVALUE PUSH2 0x32A JUMPI PUSH1 0x40 CALLDATASIZE PUSH1 0x3 NOT ADD SLT PUSH2 0x32A JUMPI PUSH1 0x4 CALLDATALOAD PUSH1 0x24 CALLDATALOAD SWAP1 DUP1 PUSH1 0x0 MSTORE PUSH1 0x9 PUSH1 0x20 MSTORE PUSH1 0x40 PUSH1 0x0 KECCAK256 PUSH1 0x1 DUP1 PUSH1 0xA0 SHL SUB CALLER AND PUSH1 0x0 MSTORE PUSH1 0x20 MSTORE PUSH2 0xD9F PUSH1 0xFF PUSH1 0x40 PUSH1 0x0 KECCAK256 SLOAD AND PUSH2 0x3578 JUMP JUMPDEST DUP1 PUSH1 0x0 MSTORE PUSH1 0xA PUSH1 0x20 MSTORE PUSH1 0x40 PUSH1 0x0 KECCAK256 PUSH1 0x1 DUP1 PUSH1 0xA0 SHL SUB CALLER AND PUSH1 0x0 MSTORE PUSH1 0x20 MSTORE PUSH2 0xFFFF PUSH1 0x40 PUSH1 0x0 KECCAK256 SLOAD AND SWAP2 DUP2 PUSH1 0x0 MSTORE PUSH1 0x7 PUSH1 0x20 MSTORE PUSH1 0x40 PUSH1 0x0 KECCAK256 PUSH2 0xFFFF DUP5 AND PUSH1 0x0 MSTORE PUSH1 0x20 MSTORE PUSH1 0xFF PUSH1 0x1 PUSH1 0x40 PUSH1 0x0 KECCAK256 ADD SLOAD PUSH1 0xA0 SHR AND PUSH1 0x2 DUP2 LT ISZERO PUSH2 0x55F JUMPI PUSH1 0x1 PUSH2 0xE04 SWAP2 EQ PUSH2 0x32DD JUMP JUMPDEST DUP2 PUSH1 0x0 MSTORE PUSH1 0x7 PUSH1 0x20 MSTORE PUSH1 0x40 PUSH1 0x0 KECCAK256 PUSH2 0xFFFF DUP5 AND PUSH1 0x0 MSTORE PUSH1 0x20 MSTORE PUSH2 0xE34 PUSH1 0xFF PUSH1 0x5 PUSH1 0x40 PUSH1 0x0 KECCAK256 ADD SLOAD PUSH1 0x10 SHR AND PUSH2 0x34F1 JUMP JUMPDEST PUSH1 0x40 MLOAD PUSH1 0x60 DUP2 ADD SWAP2 DUP2 DUP4 LT PUSH1 0x1 PUSH1 0x1 PUSH1 0x40 SHL SUB DUP5 GT OR PUSH2 0xB89 JUMPI PUSH2 0xEC8 PUSH1 0x20 SWAP3 PUSH32 0x9D7068CBD38A9652B8B283A496928BCF42DD01FB68865E13F7F279256529175D SWAP5 PUSH1 0x40 MSTORE DUP3 DUP2 MSTORE PUSH1 0x2 DUP5 DUP3 ADD NUMBER DUP2 MSTORE PUSH1 0x40 DUP4 ADD SWAP1 PUSH1 0x0 DUP3 MSTORE DUP9 PUSH1 0x0 MSTORE PUSH1 0xC DUP8 MSTORE PUSH1 0x40 DUP1 PUSH1 0x0 KECCAK256 PUSH1 0x0 SWAP1 PUSH2 0xFFFF DUP14 AND DUP3 MSTORE DUP10 MSTORE KECCAK256 SWAP4 MLOAD DUP5 SSTORE MLOAD PUSH1 0x1 DUP5 ADD SSTORE MLOAD ISZERO ISZERO SWAP2 ADD SWAP1 PUSH1 0xFF DUP1 NOT DUP4 SLOAD AND SWAP2 ISZERO ISZERO AND OR SWAP1 SSTORE JUMP JUMPDEST PUSH1 0x40 MLOAD SWAP1 DUP2 MSTORE LOG3 STOP JUMPDEST CALLVALUE PUSH2 0x32A JUMPI PUSH1 0xA0 CALLDATASIZE PUSH1 0x3 NOT ADD SLT PUSH2 0x32A JUMPI PUSH1 0x4 CALLDATALOAD DUP1 PUSH1 0x0 MSTORE PUSH1 0x6 PUSH1 0x20 MSTORE PUSH1 0x40 PUSH1 0x0 KECCAK256 PUSH2 0xF03 PUSH1 0xFF PUSH1 0xA DUP4 ADD SLOAD AND PUSH2 0x35B5 JUMP JUMPDEST PUSH1 0x1 DUP2 ADD SLOAD PUSH1 0x1 PUSH1 0x1 PUSH1 0xA0 SHL SUB AND CALLER EQ DUP1 ISZERO PUSH2 0x1043 JUMPI JUMPDEST PUSH2 0xF23 SWAP1 PUSH2 0x363F JUMP JUMPDEST PUSH1 0x24 CALLDATALOAD PUSH1 0x2 DUP3 ADD SSTORE PUSH1 0x44 CALLDATALOAD PUSH1 0x6 DUP3 ADD SSTORE PUSH1 0x64 CALLDATALOAD PUSH1 0x4 DUP3 ADD SSTORE PUSH1 0x84 CALLDATALOAD PUSH1 0x7 DUP3 ADD SSTORE PUSH1 0x40 MLOAD SWAP1 PUSH1 0x20 DUP3 MSTORE PUSH1 0x0 SWAP1 DUP1 SLOAD SWAP1 PUSH2 0xF5A DUP3 PUSH2 0x2FB9 JUMP JUMPDEST SWAP2 DUP3 PUSH1 0x20 DUP7 ADD MSTORE PUSH1 0x1 DUP2 AND SWAP1 DUP2 PUSH1 0x0 EQ PUSH2 0x1000 JUMPI POP PUSH1 0x1 EQ PUSH2 0xFA0 JUMPI JUMPDEST DUP5 PUSH32 0x1F24371ED79AF1971A700F92176A2CB13437EF4DBD2C6C6B9F2AD8F5FC3E8F94 DUP6 DUP6 SUB DUP7 LOG2 STOP JUMPDEST PUSH1 0x0 SWAP1 DUP2 MSTORE PUSH1 0x20 DUP2 KECCAK256 SWAP4 SWAP3 POP SWAP1 JUMPDEST DUP1 DUP3 LT PUSH2 0xFE5 JUMPI POP SWAP1 SWAP2 POP DUP2 ADD PUSH1 0x40 ADD DUP2 PUSH32 0x1F24371ED79AF1971A700F92176A2CB13437EF4DBD2C6C6B9F2AD8F5FC3E8F94 PUSH2 0xF77 JUMP JUMPDEST SWAP2 SWAP3 PUSH1 0x1 DUP2 PUSH1 0x20 SWAP3 SLOAD PUSH1 0x40 DUP6 DUP9 ADD ADD MSTORE ADD SWAP2 ADD SWAP1 SWAP3 SWAP2 PUSH2 0xFAE JUMP JUMPDEST DUP6 SWAP5 POP PUSH1 0x40 SWAP3 POP PUSH32 0x1F24371ED79AF1971A700F92176A2CB13437EF4DBD2C6C6B9F2AD8F5FC3E8F94 SWAP6 SWAP4 SWAP2 POP PUSH1 0xFF NOT AND DUP3 DUP5 ADD MSTORE ISZERO ISZERO PUSH1 0x5 SHL DUP3 ADD ADD SWAP2 SWAP3 PUSH2 0xF77 JUMP JUMPDEST POP PUSH1 0x0 SLOAD PUSH1 0x1 PUSH1 0x1 PUSH1 0xA0 SHL SUB AND CALLER EQ PUSH2 0xF1A JUMP JUMPDEST CALLVALUE PUSH2 0x32A JUMPI PUSH1 0x40 CALLDATASIZE PUSH1 0x3 NOT ADD SLT PUSH2 0x32A JUMPI PUSH1 0x40 PUSH2 0x1072 PUSH2 0x2F0F JUMP JUMPDEST PUSH1 0x4 CALLDATALOAD PUSH1 0x0 MSTORE PUSH1 0x7 PUSH1 0x20 MSTORE DUP2 PUSH1 0x0 KECCAK256 PUSH2 0xFFFF PUSH1 0x0 SWAP3 AND DUP3 MSTORE PUSH1 0x20 MSTORE KECCAK256 PUSH1 0x1 DUP1 PUSH1 0xA0 SHL SUB DUP2 SLOAD AND PUSH1 0x1 DUP3 ADD SLOAD PUSH1 0xFF DUP2 PUSH1 0xA0 SHR AND SWAP3 PUSH1 0x2 DUP5 LT ISZERO PUSH2 0x55F JUMPI PUSH2 0x140 SWAP4 PUSH1 0x2 DUP3 ADD SLOAD PUSH1 0x3 DUP4 ADD SLOAD PUSH1 0x8 DUP5 ADD SLOAD SWAP1 PUSH1 0x6 DUP6 ADD SLOAD SWAP3 PUSH1 0x9 DUP7 ADD SLOAD SWAP5 PUSH1 0xFF PUSH1 0x5 PUSH1 0x7 DUP10 ADD SLOAD SWAP9 ADD SLOAD PUSH1 0x10 SHR AND SWAP8 PUSH1 0x40 MLOAD SWAP10 DUP11 MSTORE PUSH1 0x1 DUP1 PUSH1 0xA0 SHL SUB AND PUSH1 0x20 DUP11 ADD MSTORE PUSH1 0x40 DUP10 ADD MSTORE PUSH1 0x60 DUP9 ADD MSTORE PUSH1 0x80 DUP8 ADD MSTORE PUSH1 0xA0 DUP7 ADD MSTORE PUSH1 0xC0 DUP6 ADD MSTORE PUSH1 0xE0 DUP5 ADD MSTORE PUSH2 0x100 DUP4 ADD MSTORE ISZERO ISZERO PUSH2 0x120 DUP3 ADD MSTORE RETURN JUMPDEST CALLVALUE PUSH2 0x32A JUMPI PUSH1 0x20 CALLDATASIZE PUSH1 0x3 NOT ADD SLT PUSH2 0x32A JUMPI PUSH2 0x1139 PUSH2 0x41AB JUMP JUMPDEST PUSH1 0x4 CALLDATALOAD PUSH1 0x11 SSTORE STOP JUMPDEST CALLVALUE PUSH2 0x32A JUMPI PUSH1 0x0 CALLDATASIZE PUSH1 0x3 NOT ADD SLT PUSH2 0x32A JUMPI PUSH1 0x20 PUSH1 0x12 SLOAD PUSH1 0x40 MLOAD SWAP1 DUP2 MSTORE RETURN JUMPDEST CALLVALUE PUSH2 0x32A JUMPI PUSH1 0x0 CALLDATASIZE PUSH1 0x3 NOT ADD SLT PUSH2 0x32A JUMPI PUSH1 0x20 PUSH1 0x4 SLOAD PUSH1 0x40 MLOAD SWAP1 DUP2 MSTORE RETURN JUMPDEST CALLVALUE PUSH2 0x32A JUMPI PUSH1 0x40 CALLDATASIZE PUSH1 0x3 NOT ADD SLT PUSH2 0x32A JUMPI PUSH1 0x40 PUSH2 0x1198 PUSH2 0x2F0F JUMP JUMPDEST PUSH1 0x4 CALLDATALOAD PUSH1 0x0 MSTORE PUSH1 0x7 PUSH1 0x20 MSTORE DUP2 PUSH1 0x0 KECCAK256 PUSH2 0xFFFF PUSH1 0x0 SWAP3 AND DUP3 MSTORE PUSH1 0x20 MSTORE KECCAK256 PUSH1 0xFF PUSH1 0x1 DUP3 ADD SLOAD PUSH1 0xA0 SHR AND PUSH1 0x2 DUP2 LT ISZERO PUSH2 0x55F JUMPI PUSH1 0x1 PUSH2 0x11D4 SWAP2 EQ PUSH2 0x32DD JUMP JUMPDEST PUSH1 0x2 DUP2 ADD SLOAD PUSH1 0x3 DUP3 ADD SLOAD PUSH2 0x11F0 PUSH2 0x11EB DUP3 DUP5 PUSH2 0x352A JUMP JUMPDEST PUSH2 0x427A JUMP JUMPDEST SWAP3 PUSH1 0x7 DUP2 ADD SLOAD SWAP3 PUSH8 0xDE0B6B3A7640000 PUSH2 0x1209 DUP6 PUSH2 0x340F JUMP JUMPDEST DIV PUSH2 0x2710 ADD DUP1 PUSH2 0x2710 GT PUSH2 0xAB1 JUMPI PUSH2 0x1227 PUSH2 0x2710 SWAP2 PUSH2 0x100 SWAP8 PUSH2 0x3427 JUMP JUMPDEST DIV PUSH1 0x8 DUP4 ADD SLOAD SWAP4 PUSH1 0x9 DUP5 ADD SLOAD SWAP3 PUSH1 0xFF PUSH1 0x5 PUSH1 0x6 DUP8 ADD SLOAD SWAP7 ADD SLOAD PUSH1 0x10 SHR AND SWAP6 PUSH1 0x40 MLOAD SWAP8 DUP9 MSTORE PUSH1 0x20 DUP9 ADD MSTORE PUSH1 0x40 DUP8 ADD MSTORE PUSH1 0x60 DUP7 ADD MSTORE PUSH1 0x80 DUP6 ADD MSTORE PUSH1 0xA0 DUP5 ADD MSTORE PUSH1 0xC0 DUP4 ADD MSTORE ISZERO ISZERO PUSH1 0xE0 DUP3 ADD MSTORE RETURN JUMPDEST CALLVALUE PUSH2 0x32A JUMPI PUSH1 0x40 CALLDATASIZE PUSH1 0x3 NOT ADD SLT PUSH2 0x32A JUMPI PUSH2 0x128B PUSH2 0x2F0F JUMP JUMPDEST PUSH1 0x4 CALLDATALOAD PUSH1 0x0 MSTORE PUSH1 0x7 PUSH1 0x20 MSTORE PUSH2 0xFFFF PUSH1 0x40 PUSH1 0x0 KECCAK256 SWAP2 AND PUSH1 0x0 MSTORE PUSH1 0x20 MSTORE PUSH1 0x20 PUSH1 0x7 PUSH1 0x40 PUSH1 0x0 KECCAK256 ADD SLOAD PUSH1 0x40 MLOAD SWAP1 DUP2 MSTORE RETURN JUMPDEST CALLVALUE PUSH2 0x32A JUMPI PUSH1 0x20 CALLDATASIZE PUSH1 0x3 NOT ADD SLT PUSH2 0x32A JUMPI PUSH2 0x12D2 PUSH2 0x41AB JUMP JUMPDEST PUSH1 0x4 CALLDATALOAD PUSH1 0x10 SSTORE STOP JUMPDEST CALLVALUE PUSH2 0x32A JUMPI PUSH1 0x0 CALLDATASIZE PUSH1 0x3 NOT ADD SLT PUSH2 0x32A JUMPI PUSH1 0x20 PUSH1 0xF SLOAD PUSH1 0x40 MLOAD SWAP1 DUP2 MSTORE RETURN JUMPDEST CALLVALUE PUSH2 0x32A JUMPI PUSH1 0x40 CALLDATASIZE PUSH1 0x3 NOT ADD SLT PUSH2 0x32A JUMPI PUSH2 0x1311 PUSH2 0x2F75 JUMP JUMPDEST PUSH1 0x4 CALLDATALOAD PUSH1 0x0 MSTORE PUSH1 0x9 PUSH1 0x20 MSTORE PUSH1 0x40 PUSH1 0x0 KECCAK256 SWAP1 PUSH1 0x1 DUP1 PUSH1 0xA0 SHL SUB AND PUSH1 0x0 MSTORE PUSH1 0x20 MSTORE PUSH1 0x20 PUSH1 0xFF PUSH1 0x40 PUSH1 0x0 KECCAK256 SLOAD AND PUSH1 0x40 MLOAD SWAP1 ISZERO ISZERO DUP2 MSTORE RETURN JUMPDEST CALLVALUE PUSH2 0x32A JUMPI PUSH1 0x40 CALLDATASIZE PUSH1 0x3 NOT ADD SLT PUSH2 0x32A JUMPI PUSH1 0x1 PUSH1 0x1 PUSH1 0xA0 SHL SUB PUSH2 0x1366 PUSH2 0x2F8B JUMP JUMPDEST AND PUSH1 0x0 MSTORE PUSH1 0xB PUSH1 0x20 MSTORE PUSH1 0x40 PUSH1 0x0 KECCAK256 PUSH1 0x24 CALLDATALOAD PUSH1 0x0 MSTORE PUSH1 0x20 MSTORE PUSH1 0x20 PUSH1 0x40 PUSH1 0x0 KECCAK256 SLOAD PUSH1 0x40 MLOAD SWAP1 DUP2 MSTORE RETURN JUMPDEST CALLVALUE PUSH2 0x32A JUMPI PUSH1 0x20 CALLDATASIZE PUSH1 0x3 NOT ADD SLT PUSH2 0x32A JUMPI PUSH2 0x13A6 PUSH2 0x2F8B JUMP JUMPDEST PUSH2 0x13AE PUSH2 0x41AB JUMP JUMPDEST PUSH1 0xE DUP1 SLOAD PUSH1 0x1 PUSH1 0x1 PUSH1 0xA0 SHL SUB NOT AND PUSH1 0x1 PUSH1 0x1 PUSH1 0xA0 SHL SUB SWAP3 SWAP1 SWAP3 AND SWAP2 SWAP1 SWAP2 OR SWAP1 SSTORE STOP JUMPDEST CALLVALUE PUSH2 0x32A JUMPI PUSH1 0x0 CALLDATASIZE PUSH1 0x3 NOT ADD SLT PUSH2 0x32A JUMPI PUSH1 0x20 PUSH1 0x3 SLOAD PUSH1 0x40 MLOAD SWAP1 DUP2 MSTORE RETURN JUMPDEST CALLVALUE PUSH2 0x32A JUMPI PUSH1 0x40 CALLDATASIZE PUSH1 0x3 NOT ADD SLT PUSH2 0x32A JUMPI PUSH1 0x4 CALLDATALOAD PUSH2 0x140A PUSH2 0x2F0F JUMP JUMPDEST SWAP1 PUSH2 0x1413 PUSH2 0x421D JUMP JUMPDEST DUP1 PUSH1 0x0 MSTORE PUSH1 0x7 PUSH1 0x20 MSTORE PUSH1 0x40 DUP1 PUSH1 0x0 KECCAK256 PUSH1 0x0 SWAP1 PUSH2 0xFFFF DUP6 AND DUP3 MSTORE PUSH1 0x20 MSTORE KECCAK256 PUSH1 0x5 DUP2 ADD DUP1 SLOAD SWAP1 PUSH2 0x1446 PUSH1 0xFF DUP4 PUSH1 0x10 SHR AND PUSH2 0x34F1 JUMP JUMPDEST PUSH1 0x1 DUP4 ADD SWAP2 PUSH1 0x1 DUP1 PUSH1 0xA0 SHL SUB DUP4 SLOAD AND CALLER EQ DUP1 ISZERO PUSH2 0x1645 JUMPI JUMPDEST PUSH2 0x1467 SWAP1 PUSH2 0x363F JUMP JUMPDEST PUSH2 0x1487 PUSH1 0x4 DUP6 ADD SLOAD DUP7 PUSH1 0x0 MSTORE PUSH1 0x6 PUSH1 0x20 MSTORE PUSH1 0x7 PUSH1 0x40 PUSH1 0x0 KECCAK256 ADD SLOAD SWAP1 PUSH2 0x352A JUMP JUMPDEST NUMBER LT PUSH2 0x160E JUMPI PUSH3 0xFF0000 NOT AND SWAP1 SSTORE PUSH1 0x0 DUP4 DUP2 MSTORE PUSH1 0x9 PUSH1 0x20 SWAP1 DUP2 MSTORE PUSH1 0x40 DUP1 DUP4 KECCAK256 DUP6 SLOAD PUSH1 0x1 PUSH1 0x1 PUSH1 0xA0 SHL SUB SWAP1 DUP2 AND DUP6 MSTORE SWAP1 DUP4 MSTORE DUP2 DUP5 KECCAK256 DUP1 SLOAD PUSH1 0xFF NOT AND SWAP1 SSTORE DUP7 DUP5 MSTORE PUSH1 0xD DUP4 MSTORE DUP2 DUP5 KECCAK256 DUP6 SLOAD SWAP2 DUP3 AND DUP6 MSTORE SWAP1 SWAP3 MSTORE SWAP1 SWAP2 KECCAK256 PUSH2 0x14EA SWAP2 PUSH1 0xA0 SHR PUSH1 0xFF AND SWAP1 PUSH2 0x2FA1 JUMP JUMPDEST PUSH1 0xFF NOT DUP2 SLOAD AND SWAP1 SSTORE DUP3 PUSH1 0x0 MSTORE PUSH1 0x6 PUSH1 0x20 MSTORE PUSH1 0x8 PUSH1 0x40 PUSH1 0x0 KECCAK256 ADD SWAP2 DUP3 SLOAD SWAP2 DUP3 ISZERO PUSH2 0xAB1 JUMPI PUSH32 0x11626064BE2E2665FE1975C8CEF9B2CBA9565936C2602568B09C197BFAFC943D SWAP4 PUSH1 0x20 SWAP4 PUSH1 0x0 NOT ADD SWAP1 SSTORE PUSH1 0x3 DUP3 ADD SLOAD DUP1 PUSH2 0x15C2 JUMPI JUMPDEST POP PUSH1 0x2 DUP3 ADD PUSH1 0x0 DUP2 SLOAD DUP2 PUSH2 0x155D PUSH1 0x9 DUP8 ADD SWAP3 DUP4 SLOAD SWAP1 PUSH2 0x352A JUMP JUMPDEST SWAP4 SSTORE SSTORE DUP1 PUSH2 0x1585 JUMPI JUMPDEST POP POP SLOAD PUSH1 0x40 MLOAD PUSH2 0xFFFF SWAP1 SWAP6 AND DUP6 MSTORE PUSH1 0x1 PUSH1 0x1 PUSH1 0xA0 SHL SUB AND SWAP4 LOG3 PUSH1 0x1 DUP1 SSTORE STOP JUMPDEST SWAP1 SLOAD PUSH2 0x15BB SWAP2 SWAP1 PUSH1 0x1 PUSH1 0x1 PUSH1 0xA0 SHL SUB AND PUSH32 0x0 PUSH2 0x423F JUMP JUMPDEST DUP6 DUP1 PUSH2 0x1566 JUMP JUMPDEST DUP2 SLOAD PUSH1 0x40 DUP1 MLOAD PUSH2 0xFFFF DUP11 AND DUP2 MSTORE PUSH1 0x20 DUP2 ADD SWAP4 SWAP1 SWAP4 MSTORE PUSH1 0x1 PUSH1 0x1 PUSH1 0xA0 SHL SUB SWAP1 SWAP2 AND SWAP2 DUP8 SWAP2 PUSH32 0x6B1F0451F7C7B7672999772380E5B9EAAE8C9BF6D5F97392CFBF377606292BC SWAP2 LOG3 DUP7 PUSH2 0x1543 JUMP JUMPDEST PUSH1 0x40 MLOAD PUSH3 0x461BCD PUSH1 0xE5 SHL DUP2 MSTORE PUSH1 0x20 PUSH1 0x4 DUP3 ADD MSTORE PUSH1 0xF PUSH1 0x24 DUP3 ADD MSTORE PUSH15 0x125B5B5D5B9A5D1E481C195C9A5BD9 PUSH1 0x8A SHL PUSH1 0x44 DUP3 ADD MSTORE PUSH1 0x64 SWAP1 REVERT JUMPDEST POP PUSH1 0x0 SLOAD PUSH1 0x1 PUSH1 0x1 PUSH1 0xA0 SHL SUB AND CALLER EQ PUSH2 0x145E JUMP JUMPDEST CALLVALUE PUSH2 0x32A JUMPI PUSH1 0x0 CALLDATASIZE PUSH1 0x3 NOT ADD SLT PUSH2 0x32A JUMPI PUSH1 0x0 SLOAD PUSH1 0x40 MLOAD PUSH1 0x1 PUSH1 0x1 PUSH1 0xA0 SHL SUB SWAP1 SWAP2 AND DUP2 MSTORE PUSH1 0x20 SWAP1 RETURN JUMPDEST CALLVALUE PUSH2 0x32A JUMPI PUSH1 0x40 CALLDATASIZE PUSH1 0x3 NOT ADD SLT PUSH2 0x32A JUMPI PUSH1 0x4 CALLDATALOAD PUSH1 0x24 CALLDATALOAD DUP2 PUSH1 0x0 MSTORE PUSH1 0x6 PUSH1 0x20 MSTORE PUSH1 0x40 PUSH1 0x0 KECCAK256 PUSH2 0x16B7 PUSH1 0xFF PUSH1 0xA DUP4 ADD SLOAD AND PUSH2 0x35B5 JUMP JUMPDEST PUSH1 0x1 DUP2 ADD SLOAD PUSH1 0x1 PUSH1 0x1 PUSH1 0xA0 SHL SUB AND CALLER EQ DUP1 ISZERO PUSH2 0x1779 JUMPI JUMPDEST PUSH2 0x16D7 SWAP1 PUSH2 0x363F JUMP JUMPDEST DUP2 ISZERO ISZERO DUP1 PUSH2 0x176D JUMPI JUMPDEST ISZERO PUSH2 0x1738 JUMPI PUSH32 0xF6701D6527463C73031F5EA9CEF1C2E4ABD5E75E5FBD8CAD202D26EB7FD234EF SWAP2 PUSH1 0x3 PUSH1 0x40 SWAP3 ADD SWAP1 DUP1 DUP3 SLOAD SWAP3 PUSH2 0x1727 DUP3 PUSH2 0x1722 DUP7 PUSH1 0x5 SLOAD PUSH2 0x3213 JUMP JUMPDEST PUSH2 0x352A JUMP JUMPDEST PUSH1 0x5 SSTORE SSTORE DUP3 MLOAD SWAP2 DUP3 MSTORE PUSH1 0x20 DUP3 ADD MSTORE LOG2 STOP JUMPDEST PUSH1 0x40 MLOAD PUSH3 0x461BCD PUSH1 0xE5 SHL DUP2 MSTORE PUSH1 0x20 PUSH1 0x4 DUP3 ADD MSTORE PUSH1 0xD PUSH1 0x24 DUP3 ADD MSTORE PUSH13 0x496E76616C6964207368617265 PUSH1 0x98 SHL PUSH1 0x44 DUP3 ADD MSTORE PUSH1 0x64 SWAP1 REVERT JUMPDEST POP PUSH2 0x2710 DUP3 GT ISZERO PUSH2 0x16E0 JUMP JUMPDEST POP PUSH1 0x0 SLOAD PUSH1 0x1 PUSH1 0x1 PUSH1 0xA0 SHL SUB AND CALLER EQ PUSH2 0x16CE JUMP JUMPDEST CALLVALUE PUSH2 0x32A JUMPI PUSH1 0x80 CALLDATASIZE PUSH1 0x3 NOT ADD SLT PUSH2 0x32A JUMPI PUSH1 0x4 CALLDATALOAD PUSH1 0x24 CALLDATALOAD PUSH1 0x1 PUSH1 0x1 PUSH1 0x40 SHL SUB DUP2 GT PUSH2 0x32A JUMPI PUSH2 0x17C0 SWAP1 CALLDATASIZE SWAP1 PUSH1 0x4 ADD PUSH2 0x2F45 JUMP JUMPDEST PUSH1 0x44 SWAP3 SWAP2 SWAP3 CALLDATALOAD PUSH1 0x1 PUSH1 0x1 PUSH1 0x40 SHL SUB DUP2 GT PUSH2 0x32A JUMPI PUSH2 0x17E2 SWAP1 CALLDATASIZE SWAP1 PUSH1 0x4 ADD PUSH2 0x2F45 JUMP JUMPDEST PUSH2 0x17F0 DUP2 DUP5 SWAP7 SWAP4 SWAP7 EQ PUSH2 0x3220 JUMP JUMPDEST PUSH2 0x17FB DUP4 ISZERO ISZERO PUSH2 0x325E JUMP JUMPDEST PUSH1 0x0 DUP5 DUP2 MSTORE PUSH1 0x9 PUSH1 0x20 SWAP1 DUP2 MSTORE PUSH1 0x40 DUP1 DUP4 KECCAK256 CALLER DUP5 MSTORE SWAP1 SWAP2 MSTORE SWAP1 KECCAK256 SLOAD PUSH2 0x1821 SWAP1 PUSH1 0xFF AND PUSH2 0x3578 JUMP JUMPDEST DUP4 PUSH1 0x0 MSTORE PUSH1 0xA PUSH1 0x20 MSTORE PUSH1 0x40 PUSH1 0x0 KECCAK256 PUSH1 0x1 DUP1 PUSH1 0xA0 SHL SUB CALLER AND PUSH1 0x0 MSTORE PUSH1 0x20 MSTORE PUSH2 0xFFFF PUSH1 0x40 PUSH1 0x0 KECCAK256 SLOAD AND SWAP5 DUP5 PUSH1 0x0 MSTORE PUSH1 0x7 PUSH1 0x20 MSTORE PUSH1 0x40 DUP1 PUSH1 0x0 KECCAK256 PUSH1 0x0 SWAP1 PUSH2 0xFFFF DUP10 AND DUP3 MSTORE PUSH1 0x20 MSTORE KECCAK256 SWAP3 PUSH1 0xFF PUSH1 0x1 DUP6 ADD SLOAD PUSH1 0xA0 SHR AND PUSH1 0x2 DUP2 LT ISZERO PUSH2 0x55F JUMPI PUSH1 0x1 PUSH2 0x1887 SWAP2 EQ PUSH2 0x32DD JUMP JUMPDEST PUSH2 0x189A PUSH1 0xFF PUSH1 0x5 DUP7 ADD SLOAD PUSH1 0x10 SHR AND PUSH2 0x34F1 JUMP JUMPDEST DUP6 PUSH1 0x0 MSTORE PUSH1 0xC PUSH1 0x20 MSTORE PUSH1 0x40 DUP1 PUSH1 0x0 KECCAK256 PUSH1 0x0 SWAP1 PUSH2 0xFFFF DUP11 AND DUP3 MSTORE PUSH1 0x20 MSTORE KECCAK256 DUP1 SLOAD SWAP1 DUP2 ISZERO PUSH2 0x1BB9 JUMPI PUSH1 0x2 DUP2 ADD SWAP2 DUP3 SLOAD SWAP2 PUSH1 0xFF DUP4 AND PUSH2 0x1B81 JUMPI PUSH1 0x1 ADD SLOAD PUSH2 0x18E0 PUSH1 0x12 SLOAD DUP3 PUSH2 0x352A JUMP JUMPDEST NUMBER LT PUSH2 0x1B46 JUMPI PUSH1 0x11 SLOAD PUSH2 0x18F2 SWAP2 PUSH2 0x352A JUMP JUMPDEST NUMBER GT PUSH2 0x1B09 JUMPI DUP8 PUSH1 0x40 MLOAD PUSH2 0x192A PUSH1 0x20 DUP3 PUSH2 0x191A PUSH2 0x1913 DUP4 DUP4 ADD DUP1 SWAP8 DUP13 PUSH2 0x3604 JUMP JUMPDEST DUP13 DUP13 PUSH2 0x3604 JUMP JUMPDEST PUSH1 0x64 CALLDATALOAD DUP2 MSTORE SUB DUP1 DUP5 MSTORE ADD DUP3 PUSH2 0x302A JUMP JUMPDEST MLOAD SWAP1 KECCAK256 SUB PUSH2 0x1AD4 JUMPI PUSH1 0xFF NOT AND PUSH1 0x1 OR SWAP1 SSTORE PUSH1 0x0 JUMPDEST DUP6 DUP2 LT PUSH2 0x1A18 JUMPI POP DUP6 PUSH1 0x0 MSTORE PUSH1 0x8 PUSH1 0x20 MSTORE PUSH1 0x40 PUSH1 0x0 KECCAK256 PUSH2 0xFFFF DUP9 AND PUSH1 0x0 MSTORE PUSH1 0x20 MSTORE PUSH2 0x196C PUSH1 0x40 PUSH1 0x0 KECCAK256 PUSH2 0x343A JUMP JUMPDEST PUSH2 0xFFFF DUP8 AND SWAP3 PUSH1 0x0 JUMPDEST DUP7 DUP2 LT PUSH2 0x19B2 JUMPI DUP9 DUP9 PUSH32 0xFBA62AAD89C6C437BF733319E2BB0EE93CB42499851F7A0B45088B25F3A2C493 PUSH1 0x20 DUP11 DUP11 PUSH1 0x4 NUMBER SWAP2 ADD SSTORE PUSH1 0x40 MLOAD SWAP1 DUP2 MSTORE LOG3 STOP JUMPDEST PUSH1 0x1 SWAP1 DUP9 PUSH1 0x0 MSTORE PUSH1 0x8 PUSH1 0x20 MSTORE PUSH2 0x1A12 PUSH1 0x40 DUP1 PUSH1 0x0 KECCAK256 PUSH1 0x0 SWAP1 DUP10 DUP3 MSTORE PUSH1 0x20 MSTORE KECCAK256 PUSH2 0x19E4 PUSH2 0x19DF DUP5 DUP13 DUP10 PUSH2 0x331B JUMP JUMPDEST PUSH2 0x3341 JUMP JUMPDEST SWAP1 PUSH2 0xFFFF PUSH2 0x19F6 PUSH2 0x19DF DUP7 DUP10 DUP13 PUSH2 0x331B JUMP JUMPDEST DUP2 PUSH1 0x40 MLOAD SWAP5 PUSH2 0x1A04 DUP7 PUSH2 0x2FF3 JUMP JUMPDEST AND DUP5 MSTORE AND PUSH1 0x20 DUP4 ADD MSTORE PUSH2 0x3486 JUMP JUMPDEST ADD PUSH2 0x1975 JUMP JUMPDEST PUSH2 0x1A46 PUSH2 0x1A29 PUSH2 0x19DF DUP4 DUP10 DUP7 PUSH2 0x331B JUMP JUMPDEST DUP9 PUSH1 0x0 MSTORE PUSH1 0x6 PUSH1 0x20 MSTORE PUSH2 0xFFFF PUSH1 0x9 PUSH1 0x40 PUSH1 0x0 KECCAK256 ADD SLOAD SWAP2 AND LT PUSH2 0x3350 JUMP JUMPDEST DUP7 PUSH1 0x0 MSTORE PUSH1 0x7 PUSH1 0x20 MSTORE PUSH2 0x1A83 PUSH1 0xFF PUSH1 0x5 PUSH1 0x40 DUP1 PUSH1 0x0 KECCAK256 PUSH2 0x1A6A PUSH2 0x19DF DUP8 DUP14 DUP11 PUSH2 0x331B JUMP JUMPDEST SWAP1 PUSH2 0xFFFF PUSH1 0x0 SWAP3 AND DUP3 MSTORE PUSH1 0x20 MSTORE KECCAK256 ADD SLOAD PUSH1 0x10 SHR AND PUSH2 0x338A JUMP JUMPDEST DUP7 PUSH1 0x0 MSTORE PUSH1 0x7 PUSH1 0x20 MSTORE PUSH1 0xFF PUSH1 0x1 PUSH1 0x40 DUP1 PUSH1 0x0 KECCAK256 PUSH2 0x1AA4 PUSH2 0x19DF DUP7 DUP13 DUP10 PUSH2 0x331B JUMP JUMPDEST SWAP1 PUSH2 0xFFFF PUSH1 0x0 SWAP3 AND DUP3 MSTORE PUSH1 0x20 MSTORE KECCAK256 ADD SLOAD PUSH1 0xA0 SHR AND SWAP1 PUSH1 0x2 DUP3 LT ISZERO PUSH2 0x55F JUMPI PUSH2 0x1ACE PUSH1 0x1 SWAP3 ISZERO PUSH2 0x33CA JUMP JUMPDEST ADD PUSH2 0x193E JUMP JUMPDEST PUSH1 0x40 MLOAD PUSH3 0x461BCD PUSH1 0xE5 SHL DUP2 MSTORE PUSH1 0x20 PUSH1 0x4 DUP3 ADD MSTORE PUSH1 0xD PUSH1 0x24 DUP3 ADD MSTORE PUSH13 0x90C2E6D040DAD2E6DAC2E8C6D PUSH1 0x9B SHL PUSH1 0x44 DUP3 ADD MSTORE PUSH1 0x64 SWAP1 REVERT JUMPDEST PUSH1 0x40 MLOAD PUSH3 0x461BCD PUSH1 0xE5 SHL DUP2 MSTORE PUSH1 0x20 PUSH1 0x4 DUP3 ADD MSTORE PUSH1 0x15 PUSH1 0x24 DUP3 ADD MSTORE PUSH21 0x14995D99585B081DDA5B991BDDC8195E1C1A5C9959 PUSH1 0x5A SHL PUSH1 0x44 DUP3 ADD MSTORE PUSH1 0x64 SWAP1 REVERT JUMPDEST PUSH1 0x40 MLOAD PUSH3 0x461BCD PUSH1 0xE5 SHL DUP2 MSTORE PUSH1 0x20 PUSH1 0x4 DUP3 ADD MSTORE PUSH1 0x13 PUSH1 0x24 DUP3 ADD MSTORE PUSH19 0x151BDBC819585C9B1E481D1BC81C995D99585B PUSH1 0x6A SHL PUSH1 0x44 DUP3 ADD MSTORE PUSH1 0x64 SWAP1 REVERT JUMPDEST PUSH1 0x40 MLOAD PUSH3 0x461BCD PUSH1 0xE5 SHL DUP2 MSTORE PUSH1 0x20 PUSH1 0x4 DUP3 ADD MSTORE PUSH1 0x10 PUSH1 0x24 DUP3 ADD MSTORE PUSH16 0x105B1C9958591E481C995D99585B1959 PUSH1 0x82 SHL PUSH1 0x44 DUP3 ADD MSTORE PUSH1 0x64 SWAP1 REVERT JUMPDEST PUSH1 0x40 MLOAD PUSH3 0x461BCD PUSH1 0xE5 SHL DUP2 MSTORE PUSH1 0x20 PUSH1 0x4 DUP3 ADD MSTORE PUSH1 0xF PUSH1 0x24 DUP3 ADD MSTORE PUSH15 0x139BC818DBDB5B5A5D08199BDD5B99 PUSH1 0x8A SHL PUSH1 0x44 DUP3 ADD MSTORE PUSH1 0x64 SWAP1 REVERT JUMPDEST CALLVALUE PUSH2 0x32A JUMPI PUSH1 0x0 CALLDATASIZE PUSH1 0x3 NOT ADD SLT PUSH2 0x32A JUMPI PUSH1 0x20 PUSH1 0x10 SLOAD PUSH1 0x40 MLOAD SWAP1 DUP2 MSTORE RETURN JUMPDEST CALLVALUE PUSH2 0x32A JUMPI PUSH1 0x80 CALLDATASIZE PUSH1 0x3 NOT ADD SLT PUSH2 0x32A JUMPI PUSH2 0x1C27 PUSH2 0x2F75 JUMP JUMPDEST PUSH1 0x2 PUSH1 0x44 CALLDATALOAD LT ISZERO PUSH2 0x32A JUMPI PUSH1 0x64 CALLDATALOAD SWAP1 PUSH2 0x1C3E PUSH2 0x421D JUMP JUMPDEST PUSH1 0x4 CALLDATALOAD PUSH1 0x0 MSTORE PUSH1 0x6 PUSH1 0x20 MSTORE PUSH1 0x40 PUSH1 0x0 KECCAK256 SWAP1 PUSH2 0x1C5F PUSH1 0xFF PUSH1 0xA DUP5 ADD SLOAD AND PUSH2 0x35B5 JUMP JUMPDEST PUSH1 0x4 CALLDATALOAD PUSH1 0x0 MSTORE PUSH1 0x9 PUSH1 0x20 MSTORE PUSH1 0x40 PUSH1 0x0 KECCAK256 PUSH1 0x1 DUP1 PUSH1 0xA0 SHL SUB DUP3 AND PUSH1 0x0 MSTORE PUSH1 0x20 MSTORE PUSH1 0xFF PUSH1 0x40 PUSH1 0x0 KECCAK256 SLOAD AND PUSH2 0x2065 JUMPI PUSH1 0x8 DUP3 ADD SLOAD PUSH1 0x2 DUP4 ADD SLOAD GT ISZERO PUSH2 0x2032 JUMPI PUSH1 0x6 DUP3 ADD SLOAD DUP4 LT PUSH2 0x1FF8 JUMPI PUSH1 0x0 SWAP2 PUSH1 0x44 CALLDATALOAD PUSH2 0x1FED JUMPI PUSH1 0xFF PUSH2 0x1CD6 PUSH1 0x1 JUMPDEST PUSH1 0x4 CALLDATALOAD DUP7 MSTORE PUSH1 0xD PUSH1 0x20 SWAP1 DUP2 MSTORE PUSH1 0x40 DUP1 DUP9 KECCAK256 CALLER DUP10 MSTORE SWAP1 SWAP2 MSTORE DUP7 KECCAK256 PUSH2 0x2FA1 JUMP JUMPDEST SLOAD AND PUSH2 0x1F89 JUMPI PUSH1 0x4 CALLDATALOAD DUP4 MSTORE PUSH1 0xD PUSH1 0x20 SWAP1 DUP2 MSTORE PUSH1 0x40 DUP1 DUP6 KECCAK256 CALLER DUP7 MSTORE SWAP1 SWAP2 MSTORE DUP4 KECCAK256 PUSH2 0x1D02 SWAP1 PUSH1 0x44 CALLDATALOAD SWAP1 PUSH2 0x2FA1 JUMP JUMPDEST DUP1 SLOAD PUSH1 0xFF NOT AND PUSH1 0x1 OR SWAP1 SSTORE DUP4 PUSH2 0x1F58 JUMPI JUMPDEST PUSH1 0x9 DUP2 ADD SWAP3 DUP4 SLOAD SWAP4 PUSH2 0x1D24 DUP6 PUSH2 0x35F5 JUMP JUMPDEST SWAP1 SSTORE PUSH1 0x40 MLOAD PUSH2 0x1D32 DUP2 PUSH2 0x300E JUMP JUMPDEST PUSH1 0x1 PUSH1 0x1 PUSH1 0xA0 SHL SUB DUP5 DUP2 AND DUP3 MSTORE CALLER PUSH1 0x20 DUP1 DUP5 ADD SWAP2 DUP3 MSTORE PUSH1 0x44 CALLDATALOAD PUSH1 0x40 DUP1 DUP7 ADD SWAP2 DUP3 MSTORE PUSH1 0x60 DUP7 ADD SWAP11 DUP12 MSTORE PUSH1 0x0 PUSH1 0x80 DUP8 ADD DUP2 SWAP1 MSTORE NUMBER PUSH1 0xA0 DUP9 ADD SWAP1 DUP2 MSTORE PUSH2 0xFFFF DUP13 AND PUSH1 0xC0 DUP10 ADD DUP2 DUP2 MSTORE PUSH1 0x1 PUSH1 0xE0 DUP12 ADD DUP2 DUP2 MSTORE PUSH2 0x100 DUP13 ADD DUP7 SWAP1 MSTORE PUSH8 0x6F05B59D3B20000 PUSH2 0x120 DUP14 ADD MSTORE PUSH2 0x140 DUP13 ADD DUP7 SWAP1 MSTORE PUSH2 0x160 DUP13 ADD DUP7 SWAP1 MSTORE PUSH1 0x4 CALLDATALOAD DUP7 MSTORE PUSH1 0x7 DUP10 MSTORE DUP7 DUP7 KECCAK256 SWAP4 DUP7 MSTORE SWAP3 SWAP1 SWAP8 MSTORE SWAP4 SWAP1 SWAP3 KECCAK256 DUP9 MLOAD DUP2 SLOAD SWAP1 DUP10 AND PUSH1 0x1 PUSH1 0x1 PUSH1 0xA0 SHL SUB NOT SWAP2 DUP3 AND OR DUP3 SSTORE SWAP7 MLOAD SWAP6 DUP2 ADD DUP1 SLOAD SWAP7 SWAP1 SWAP9 AND SWAP6 SWAP1 SWAP7 AND SWAP5 SWAP1 SWAP5 OR SWAP1 SWAP6 SSTORE SWAP1 MLOAD SWAP1 SWAP10 SWAP4 SWAP6 POP SWAP4 SWAP2 SWAP3 SWAP1 SWAP2 PUSH1 0x2 DUP6 LT ISZERO PUSH2 0x55F JUMPI PUSH1 0x20 SWAP10 PUSH1 0x40 SWAP7 PUSH1 0x9 SWAP5 PUSH2 0x160 SWAP5 PUSH1 0x0 SWAP9 PUSH1 0x1 DUP10 ADD SLOAD SWAP1 PUSH1 0xFF PUSH1 0xA0 SHL SWAP1 PUSH1 0xA0 SHL AND SWAP1 PUSH1 0xFF PUSH1 0xA0 SHL NOT AND OR PUSH1 0x1 DUP10 ADD SSTORE MLOAD PUSH1 0x2 DUP9 ADD SSTORE PUSH1 0x80 DUP5 ADD MLOAD PUSH1 0x3 DUP9 ADD SSTORE MLOAD PUSH1 0x4 DUP8 ADD SSTORE PUSH2 0xFFFF DUP1 PUSH1 0x5 DUP9 ADD SWAP4 MLOAD AND AND PUSH2 0xFFFF NOT DUP4 SLOAD AND OR DUP3 SSTORE MLOAD ISZERO ISZERO PUSH3 0xFF0000 DUP3 SLOAD SWAP2 PUSH1 0x10 SHL AND SWAP1 PUSH3 0xFF0000 NOT AND OR SWAP1 SSTORE PUSH2 0x100 DUP2 ADD MLOAD PUSH1 0x6 DUP6 ADD SSTORE PUSH2 0x120 DUP2 ADD MLOAD PUSH1 0x7 DUP6 ADD SSTORE PUSH2 0x140 DUP2 ADD MLOAD PUSH1 0x8 DUP6 ADD SSTORE ADD MLOAD SWAP2 ADD SSTORE PUSH1 0x4 CALLDATALOAD DUP2 MSTORE PUSH1 0xA DUP7 MSTORE DUP2 DUP2 KECCAK256 PUSH1 0x1 DUP1 PUSH1 0xA0 SHL SUB DUP6 AND DUP3 MSTORE DUP7 MSTORE DUP2 DUP2 KECCAK256 PUSH2 0xFFFF DUP1 DUP8 AND AND PUSH2 0xFFFF NOT DUP3 SLOAD AND OR SWAP1 SSTORE PUSH1 0x4 CALLDATALOAD DUP2 MSTORE PUSH1 0x9 DUP7 MSTORE DUP2 DUP2 KECCAK256 PUSH1 0x1 DUP1 PUSH1 0xA0 SHL SUB DUP6 AND DUP3 MSTORE DUP7 MSTORE KECCAK256 PUSH1 0x1 PUSH1 0xFF NOT DUP3 SLOAD AND OR SWAP1 SSTORE PUSH1 0x8 PUSH2 0x1EF7 DUP2 DUP4 ADD SLOAD PUSH2 0x35F5 JUMP JUMPDEST SWAP2 ADD SSTORE PUSH1 0x40 MLOAD PUSH2 0xFFFF DUP4 AND DUP2 MSTORE PUSH2 0x1F12 DUP5 DUP3 ADD PUSH1 0x44 CALLDATALOAD PUSH2 0x3130 JUMP JUMPDEST CALLER SWAP2 PUSH1 0x1 PUSH1 0x1 PUSH1 0xA0 SHL SUB AND SWAP1 PUSH1 0x4 CALLDATALOAD SWAP1 PUSH32 0xD6347F2C1CBFC00C2EF5D4DFCE146B393CB3305376A2999571521D291DEF0555 SWAP1 PUSH1 0x40 SWAP1 LOG4 PUSH1 0x1 DUP1 SSTORE PUSH2 0xFFFF PUSH1 0x40 MLOAD SWAP2 AND DUP2 MSTORE RETURN JUMPDEST PUSH2 0x1F84 DUP5 ADDRESS CALLER PUSH32 0x0 PUSH2 0x41D4 JUMP JUMPDEST PUSH2 0x1D13 JUMP JUMPDEST PUSH1 0x40 MLOAD PUSH3 0x461BCD PUSH1 0xE5 SHL DUP2 MSTORE PUSH1 0x20 PUSH1 0x4 DUP3 ADD MSTORE PUSH1 0x36 PUSH1 0x24 DUP3 ADD MSTORE PUSH32 0x53656C662D766F74653A20636F6C646B657920616C7265616479207265676973 PUSH1 0x44 DUP3 ADD MSTORE PUSH22 0x7465726564206173206F70706F736974652074797065 PUSH1 0x50 SHL PUSH1 0x64 DUP3 ADD MSTORE PUSH1 0x84 SWAP1 REVERT JUMPDEST PUSH1 0xFF PUSH2 0x1CD6 DUP5 PUSH2 0x1CB8 JUMP JUMPDEST PUSH1 0x40 MLOAD PUSH3 0x461BCD PUSH1 0xE5 SHL DUP2 MSTORE PUSH1 0x20 PUSH1 0x4 DUP3 ADD MSTORE PUSH1 0x12 PUSH1 0x24 DUP3 ADD MSTORE PUSH18 0x496E73756666696369656E74207374616B65 PUSH1 0x70 SHL PUSH1 0x44 DUP3 ADD MSTORE PUSH1 0x64 SWAP1 REVERT JUMPDEST PUSH1 0x40 MLOAD PUSH3 0x461BCD PUSH1 0xE5 SHL DUP2 MSTORE PUSH1 0x20 PUSH1 0x4 DUP3 ADD MSTORE PUSH1 0xB PUSH1 0x24 DUP3 ADD MSTORE PUSH11 0x14DD589B995D08199D5B1B PUSH1 0xAA SHL PUSH1 0x44 DUP3 ADD MSTORE PUSH1 0x64 SWAP1 REVERT JUMPDEST PUSH1 0x40 MLOAD PUSH3 0x461BCD PUSH1 0xE5 SHL DUP2 MSTORE PUSH1 0x20 PUSH1 0x4 DUP3 ADD MSTORE PUSH1 0x12 PUSH1 0x24 DUP3 ADD MSTORE PUSH18 0x105B1C9958591E481C9959DA5CDD195C9959 PUSH1 0x72 SHL PUSH1 0x44 DUP3 ADD MSTORE PUSH1 0x64 SWAP1 REVERT JUMPDEST CALLVALUE PUSH2 0x32A JUMPI PUSH1 0x40 CALLDATASIZE PUSH1 0x3 NOT ADD SLT PUSH2 0x32A JUMPI PUSH1 0x4 CALLDATALOAD PUSH2 0x20BB PUSH2 0x2F75 JUMP JUMPDEST SWAP1 DUP1 PUSH1 0x0 MSTORE PUSH1 0x9 PUSH1 0x20 MSTORE PUSH1 0x40 PUSH1 0x0 KECCAK256 PUSH1 0x1 DUP1 PUSH1 0xA0 SHL SUB DUP4 AND PUSH1 0x0 MSTORE PUSH1 0x20 MSTORE PUSH2 0x20EA PUSH1 0xFF PUSH1 0x40 PUSH1 0x0 KECCAK256 SLOAD AND PUSH2 0x3578 JUMP JUMPDEST PUSH1 0x0 MSTORE PUSH1 0xA PUSH1 0x20 MSTORE PUSH1 0x40 PUSH1 0x0 KECCAK256 SWAP1 PUSH1 0x1 DUP1 PUSH1 0xA0 SHL SUB AND PUSH1 0x0 MSTORE PUSH1 0x20 MSTORE PUSH1 0x20 PUSH2 0xFFFF PUSH1 0x40 PUSH1 0x0 KECCAK256 SLOAD AND PUSH1 0x40 MLOAD SWAP1 DUP2 MSTORE RETURN JUMPDEST CALLVALUE PUSH2 0x32A JUMPI PUSH1 0x0 CALLDATASIZE PUSH1 0x3 NOT ADD SLT PUSH2 0x32A JUMPI PUSH2 0x2133 PUSH2 0x41AB JUMP JUMPDEST PUSH1 0x0 DUP1 SLOAD PUSH1 0x1 PUSH1 0x1 PUSH1 0xA0 SHL SUB NOT DUP2 AND DUP3 SSTORE PUSH1 0x1 PUSH1 0x1 PUSH1 0xA0 SHL SUB AND PUSH32 0x8BE0079C531659141344CD1FD0A4F28419497F9722A3DAAFE3B4186F6B6457E0 DUP3 DUP1 LOG3 STOP JUMPDEST CALLVALUE PUSH2 0x32A JUMPI PUSH1 0x20 CALLDATASIZE PUSH1 0x3 NOT ADD SLT PUSH2 0x32A JUMPI PUSH2 0x218C PUSH2 0x41AB JUMP JUMPDEST PUSH1 0x4 DUP1 CALLDATALOAD SWAP1 SSTORE STOP JUMPDEST CALLVALUE PUSH2 0x32A JUMPI PUSH1 0x80 CALLDATASIZE PUSH1 0x3 NOT ADD SLT PUSH2 0x32A JUMPI PUSH1 0x4 CALLDATALOAD PUSH2 0x21B0 PUSH2 0x2F0F JUMP JUMPDEST PUSH1 0x44 CALLDATALOAD PUSH1 0x64 CALLDATALOAD PUSH1 0x1 PUSH1 0x1 PUSH1 0x40 SHL SUB DUP2 GT PUSH2 0x32A JUMPI PUSH2 0x21D2 SWAP1 CALLDATASIZE SWAP1 PUSH1 0x4 ADD PUSH2 0x313D JUMP JUMPDEST SWAP3 SWAP1 PUSH1 0x1 DUP1 PUSH1 0xA0 SHL SUB PUSH1 0x0 SLOAD AND CALLER EQ DUP1 ISZERO PUSH2 0x2375 JUMPI JUMPDEST ISZERO PUSH2 0x2330 JUMPI DUP3 ISZERO ISZERO DUP1 PUSH2 0x2324 JUMPI JUMPDEST ISZERO PUSH2 0x22DF JUMPI DUP5 PUSH1 0x0 MSTORE PUSH1 0x7 PUSH1 0x20 MSTORE PUSH1 0x40 PUSH1 0x0 KECCAK256 PUSH2 0xFFFF DUP4 AND PUSH1 0x0 MSTORE PUSH1 0x20 MSTORE PUSH1 0x40 PUSH1 0x0 KECCAK256 SWAP1 PUSH1 0xFF PUSH1 0x5 DUP4 ADD SLOAD PUSH1 0x10 SHR AND ISZERO PUSH2 0x22A8 JUMPI PUSH32 0xB690D999D54E9332494C15C985DF21327BFFF85F3125D47BE78B06CA862B419B SWAP5 PUSH2 0xFFFF SWAP5 PUSH1 0x2 PUSH2 0x229B SWAP5 ADD PUSH2 0x2710 PUSH2 0x2266 DUP3 SLOAD SWAP4 DUP5 PUSH2 0x3427 JUMP JUMPDEST DIV SWAP2 DUP1 DUP4 GT PUSH2 0x22A0 JUMPI JUMPDEST DUP3 PUSH2 0x227A SWAP2 PUSH2 0x3213 JUMP JUMPDEST SWAP1 SSTORE PUSH1 0x40 MLOAD SWAP6 DUP7 SWAP6 AND DUP6 MSTORE PUSH1 0x20 DUP6 ADD MSTORE PUSH1 0x60 PUSH1 0x40 DUP6 ADD MSTORE PUSH1 0x60 DUP5 ADD SWAP2 PUSH2 0x3557 JUMP JUMPDEST SUB SWAP1 LOG2 STOP JUMPDEST SWAP2 POP DUP2 PUSH2 0x2270 JUMP JUMPDEST PUSH1 0x40 MLOAD PUSH3 0x461BCD PUSH1 0xE5 SHL DUP2 MSTORE PUSH1 0x20 PUSH1 0x4 DUP3 ADD MSTORE PUSH1 0xF PUSH1 0x24 DUP3 ADD MSTORE PUSH15 0x4E6F6465206E6F7420616374697665 PUSH1 0x88 SHL PUSH1 0x44 DUP3 ADD MSTORE PUSH1 0x64 SWAP1 REVERT JUMPDEST PUSH1 0x40 MLOAD PUSH3 0x461BCD PUSH1 0xE5 SHL DUP2 MSTORE PUSH1 0x20 PUSH1 0x4 DUP3 ADD MSTORE PUSH1 0x18 PUSH1 0x24 DUP3 ADD MSTORE PUSH32 0x496E76616C696420736C6173682070657263656E746167650000000000000000 PUSH1 0x44 DUP3 ADD MSTORE PUSH1 0x64 SWAP1 REVERT JUMPDEST POP PUSH2 0x2710 DUP4 GT ISZERO PUSH2 0x21F6 JUMP JUMPDEST PUSH1 0x40 MLOAD PUSH3 0x461BCD PUSH1 0xE5 SHL DUP2 MSTORE PUSH1 0x20 PUSH1 0x4 DUP3 ADD MSTORE PUSH1 0x17 PUSH1 0x24 DUP3 ADD MSTORE PUSH32 0x4E6F7420617574686F72697A656420746F20736C617368000000000000000000 PUSH1 0x44 DUP3 ADD MSTORE PUSH1 0x64 SWAP1 REVERT JUMPDEST POP DUP5 PUSH1 0x0 MSTORE PUSH1 0x6 PUSH1 0x20 MSTORE PUSH1 0x1 DUP1 PUSH1 0xA0 SHL SUB PUSH1 0x1 PUSH1 0x40 PUSH1 0x0 KECCAK256 ADD SLOAD AND CALLER EQ PUSH2 0x21E8 JUMP JUMPDEST CALLVALUE PUSH2 0x32A JUMPI PUSH1 0x40 CALLDATASIZE PUSH1 0x3 NOT ADD SLT PUSH2 0x32A JUMPI PUSH2 0x180 PUSH1 0x40 PUSH2 0x23B5 PUSH2 0x2F0F JUMP JUMPDEST PUSH1 0x4 CALLDATALOAD PUSH1 0x0 MSTORE PUSH1 0x7 PUSH1 0x20 MSTORE DUP2 PUSH1 0x0 KECCAK256 PUSH2 0xFFFF PUSH1 0x0 SWAP3 AND DUP3 MSTORE PUSH1 0x20 MSTORE KECCAK256 PUSH1 0x1 DUP1 PUSH1 0xA0 SHL SUB DUP2 SLOAD AND SWAP1 PUSH1 0x1 DUP2 ADD SLOAD SWAP1 PUSH1 0x2 DUP2 ADD SLOAD PUSH1 0x3 DUP3 ADD SLOAD PUSH1 0xFF PUSH1 0x4 DUP5 ADD SLOAD PUSH1 0x5 DUP6 ADD SLOAD SWAP1 PUSH1 0x6 DUP7 ADD SLOAD SWAP4 PUSH1 0x7 DUP8 ADD SLOAD SWAP6 PUSH2 0x2436 PUSH1 0x9 PUSH1 0x8 DUP11 ADD SLOAD SWAP10 ADD SLOAD SWAP10 PUSH1 0x40 MLOAD SWAP12 DUP13 MSTORE PUSH1 0x1 DUP1 PUSH1 0xA0 SHL SUB DUP2 AND PUSH1 0x20 DUP14 ADD MSTORE DUP7 PUSH1 0x40 DUP14 ADD SWAP2 PUSH1 0xA0 SHR AND PUSH2 0x3130 JUMP JUMPDEST PUSH1 0x60 DUP11 ADD MSTORE PUSH1 0x80 DUP10 ADD MSTORE PUSH1 0xA0 DUP9 ADD MSTORE PUSH2 0xFFFF DUP2 AND PUSH1 0xC0 DUP9 ADD MSTORE PUSH1 0x10 SHR AND ISZERO ISZERO PUSH1 0xE0 DUP7 ADD MSTORE PUSH2 0x100 DUP6 ADD MSTORE PUSH2 0x120 DUP5 ADD MSTORE PUSH2 0x140 DUP4 ADD MSTORE PUSH2 0x160 DUP3 ADD MSTORE RETURN JUMPDEST CALLVALUE PUSH2 0x32A JUMPI PUSH1 0x20 CALLDATASIZE PUSH1 0x3 NOT ADD SLT PUSH2 0x32A JUMPI PUSH1 0x4 CALLDATALOAD PUSH1 0x0 MSTORE PUSH1 0x6 PUSH1 0x20 MSTORE PUSH2 0x24E1 PUSH1 0x40 PUSH1 0x0 KECCAK256 PUSH1 0x1 DUP1 PUSH1 0xA0 SHL SUB PUSH1 0x1 DUP3 ADD SLOAD AND PUSH1 0x2 DUP3 ADD SLOAD SWAP2 PUSH1 0x3 DUP2 ADD SLOAD PUSH1 0x4 DUP3 ADD SLOAD PUSH1 0x8 DUP4 ADD SLOAD SWAP2 PUSH2 0x24CC PUSH1 0xFF PUSH1 0xA DUP7 ADD SLOAD AND SWAP5 PUSH2 0x304B JUMP JUMPDEST SWAP6 PUSH1 0x40 MLOAD SWAP8 DUP9 SWAP8 PUSH1 0xE0 DUP10 MSTORE PUSH1 0xE0 DUP10 ADD SWAP1 PUSH2 0x30EF JUMP JUMPDEST SWAP6 PUSH1 0x20 DUP9 ADD MSTORE PUSH1 0x40 DUP8 ADD MSTORE PUSH1 0x60 DUP7 ADD MSTORE PUSH1 0x80 DUP6 ADD MSTORE PUSH1 0xA0 DUP5 ADD MSTORE ISZERO ISZERO PUSH1 0xC0 DUP4 ADD MSTORE SUB SWAP1 RETURN JUMPDEST CALLVALUE PUSH2 0x32A JUMPI PUSH1 0x60 CALLDATASIZE PUSH1 0x3 NOT ADD SLT PUSH2 0x32A JUMPI PUSH2 0x251F PUSH2 0x2F8B JUMP JUMPDEST PUSH1 0x44 CALLDATALOAD PUSH2 0xFFFF DUP2 AND DUP2 SUB PUSH2 0x32A JUMPI PUSH1 0x40 MLOAD PUSH2 0x255B DUP2 PUSH2 0x78D PUSH1 0x20 DUP3 ADD SWAP5 PUSH1 0x24 CALLDATALOAD DUP7 SWAP1 SWAP2 PUSH1 0x22 SWAP3 DUP3 MSTORE PUSH2 0xFFFF PUSH1 0xF0 SHL SWAP1 PUSH1 0xF0 SHL AND PUSH1 0x20 DUP3 ADD MSTORE ADD SWAP1 JUMP JUMPDEST MLOAD SWAP1 KECCAK256 SWAP1 PUSH1 0x1 DUP1 PUSH1 0xA0 SHL SUB AND PUSH1 0x0 MSTORE PUSH1 0xB PUSH1 0x20 MSTORE PUSH1 0x40 PUSH1 0x0 KECCAK256 SWAP1 PUSH1 0x0 MSTORE PUSH1 0x20 MSTORE PUSH1 0x20 PUSH1 0x40 PUSH1 0x0 KECCAK256 SLOAD PUSH1 0x40 MLOAD SWAP1 DUP2 MSTORE RETURN JUMPDEST CALLVALUE PUSH2 0x32A JUMPI PUSH1 0x0 CALLDATASIZE PUSH1 0x3 NOT ADD SLT PUSH2 0x32A JUMPI PUSH1 0x20 PUSH1 0x5 SLOAD PUSH1 0x40 MLOAD SWAP1 DUP2 MSTORE RETURN JUMPDEST CALLVALUE PUSH2 0x32A JUMPI PUSH1 0x20 CALLDATASIZE PUSH1 0x3 NOT ADD SLT PUSH2 0x32A JUMPI PUSH1 0x4 CALLDATALOAD PUSH1 0x0 MSTORE PUSH1 0x6 PUSH1 0x20 MSTORE PUSH1 0x40 PUSH1 0x0 KECCAK256 PUSH2 0x180 PUSH2 0x25D6 DUP3 PUSH2 0x304B JUMP JUMPDEST SWAP2 PUSH1 0x1 DUP1 PUSH1 0xA0 SHL SUB PUSH1 0x1 DUP3 ADD SLOAD AND SWAP1 PUSH1 0x2 DUP2 ADD SLOAD SWAP1 PUSH1 0x3 DUP2 ADD SLOAD PUSH1 0x4 DUP3 ADD SLOAD PUSH1 0x5 DUP4 ADD SLOAD PUSH1 0x6 DUP5 ADD SLOAD PUSH1 0x7 DUP6 ADD SLOAD SWAP2 PUSH1 0x8 DUP7 ADD SLOAD SWAP4 PUSH1 0x9 DUP8 ADD SLOAD SWAP6 PUSH1 0xB PUSH1 0xFF PUSH1 0xA DUP11 ADD SLOAD AND SWAP9 ADD SLOAD SWAP9 PUSH2 0x2634 PUSH1 0x40 MLOAD SWAP14 DUP14 DUP16 SWAP15 DUP16 SWAP1 DUP2 MSTORE ADD SWAP1 PUSH2 0x30EF JUMP JUMPDEST SWAP11 PUSH1 0x20 DUP14 ADD MSTORE PUSH1 0x40 DUP13 ADD MSTORE PUSH1 0x60 DUP12 ADD MSTORE PUSH1 0x80 DUP11 ADD MSTORE PUSH1 0xA0 DUP10 ADD MSTORE PUSH1 0xC0 DUP9 ADD MSTORE PUSH1 0xE0 DUP8 ADD MSTORE PUSH2 0x100 DUP7 ADD MSTORE PUSH2 0x120 DUP6 ADD MSTORE ISZERO ISZERO PUSH2 0x140 DUP5 ADD MSTORE PUSH2 0x160 DUP4 ADD MSTORE SUB SWAP1 RETURN JUMPDEST CALLVALUE PUSH2 0x32A JUMPI PUSH1 0x20 CALLDATASIZE PUSH1 0x3 NOT ADD SLT PUSH2 0x32A JUMPI PUSH2 0x268F PUSH2 0x41AB JUMP JUMPDEST PUSH1 0x4 CALLDATALOAD PUSH1 0x3 SSTORE STOP JUMPDEST CALLVALUE PUSH2 0x32A JUMPI PUSH1 0x60 CALLDATASIZE PUSH1 0x3 NOT ADD SLT PUSH2 0x32A JUMPI PUSH2 0x26B0 PUSH2 0x2F75 JUMP JUMPDEST PUSH1 0x44 CALLDATALOAD PUSH1 0x2 DUP2 LT ISZERO PUSH2 0x32A JUMPI PUSH2 0x26EC PUSH1 0xFF SWAP2 PUSH1 0x20 SWAP4 PUSH1 0x4 CALLDATALOAD PUSH1 0x0 MSTORE PUSH1 0xD DUP6 MSTORE PUSH1 0x40 PUSH1 0x0 KECCAK256 SWAP1 PUSH1 0x1 DUP1 PUSH1 0xA0 SHL SUB AND PUSH1 0x0 MSTORE DUP5 MSTORE PUSH1 0x40 PUSH1 0x0 KECCAK256 PUSH2 0x2FA1 JUMP JUMPDEST SLOAD AND PUSH1 0x40 MLOAD SWAP1 ISZERO ISZERO DUP2 MSTORE RETURN JUMPDEST CALLVALUE PUSH2 0x32A JUMPI PUSH1 0x0 CALLDATASIZE PUSH1 0x3 NOT ADD SLT PUSH2 0x32A JUMPI PUSH1 0x20 PUSH1 0x2 SLOAD PUSH1 0x40 MLOAD SWAP1 DUP2 MSTORE RETURN JUMPDEST CALLVALUE PUSH2 0x32A JUMPI PUSH1 0x0 CALLDATASIZE PUSH1 0x3 NOT ADD SLT PUSH2 0x32A JUMPI PUSH1 0xE SLOAD PUSH1 0x40 MLOAD PUSH1 0x1 PUSH1 0x1 PUSH1 0xA0 SHL SUB SWAP1 SWAP2 AND DUP2 MSTORE PUSH1 0x20 SWAP1 RETURN JUMPDEST CALLVALUE PUSH2 0x32A JUMPI PUSH1 0x40 CALLDATASIZE PUSH1 0x3 NOT ADD SLT PUSH2 0x32A JUMPI PUSH1 0x4 CALLDATALOAD PUSH2 0x275B PUSH2 0x2F0F JUMP JUMPDEST DUP2 PUSH1 0x0 MSTORE PUSH1 0x7 PUSH1 0x20 MSTORE PUSH1 0x40 DUP1 PUSH1 0x0 KECCAK256 PUSH1 0x0 SWAP1 PUSH2 0xFFFF DUP5 AND DUP3 MSTORE PUSH1 0x20 MSTORE KECCAK256 PUSH2 0x278B PUSH1 0xFF PUSH1 0x5 DUP4 ADD SLOAD PUSH1 0x10 SHR AND PUSH2 0x34F1 JUMP JUMPDEST PUSH1 0xFF PUSH1 0x1 DUP3 ADD SLOAD PUSH1 0xA0 SHR AND PUSH1 0x2 DUP2 LT ISZERO PUSH2 0x55F JUMPI PUSH1 0x1 PUSH2 0x27AB SWAP2 EQ PUSH2 0x32DD JUMP JUMPDEST PUSH2 0x27BC PUSH1 0x4 DUP3 ADD SLOAD PUSH1 0x10 SLOAD SWAP1 PUSH2 0x352A JUMP JUMPDEST NUMBER GT ISZERO PUSH2 0x287E JUMPI PUSH1 0x2 DUP2 ADD DUP1 SLOAD SWAP2 PUSH1 0x64 DUP4 MUL DUP4 DUP2 DIV PUSH1 0x64 EQ DUP5 ISZERO OR ISZERO PUSH2 0xAB1 JUMPI PUSH2 0x2710 SWAP1 DIV SWAP2 DUP4 DUP4 GT PUSH2 0x2876 JUMPI JUMPDEST PUSH2 0x27F7 DUP4 PUSH1 0x7 SWAP5 SWAP6 PUSH2 0x3213 JUMP JUMPDEST SWAP1 SSTORE ADD SWAP2 DUP3 SLOAD SWAP2 PUSH1 0x50 DUP4 MUL SWAP3 DUP1 DUP5 DIV PUSH1 0x50 EQ SWAP1 ISZERO OR ISZERO PUSH2 0xAB1 JUMPI PUSH32 0xB690D999D54E9332494C15C985DF21327BFFF85F3125D47BE78B06CA862B419B SWAP4 PUSH1 0x64 PUSH1 0xA0 SWAP5 DIV SWAP1 SSTORE PUSH2 0xFFFF PUSH1 0x40 MLOAD SWAP3 AND DUP3 MSTORE PUSH1 0x20 DUP3 ADD MSTORE PUSH1 0x60 PUSH1 0x40 DUP3 ADD MSTORE PUSH1 0x12 PUSH1 0x60 DUP3 ADD MSTORE PUSH18 0x24B730B1BA34BB32903B30B634B230BA37B9 PUSH1 0x71 SHL PUSH1 0x80 DUP3 ADD MSTORE LOG2 STOP JUMPDEST DUP4 SWAP3 POP PUSH2 0x27EA JUMP JUMPDEST PUSH1 0x40 MLOAD PUSH3 0x461BCD PUSH1 0xE5 SHL DUP2 MSTORE PUSH1 0x20 PUSH1 0x4 DUP3 ADD MSTORE PUSH1 0x13 PUSH1 0x24 DUP3 ADD MSTORE PUSH19 0x56616C696461746F7220697320616374697665 PUSH1 0x68 SHL PUSH1 0x44 DUP3 ADD MSTORE PUSH1 0x64 SWAP1 REVERT JUMPDEST CALLVALUE PUSH2 0x32A JUMPI PUSH1 0x20 CALLDATASIZE PUSH1 0x3 NOT ADD SLT PUSH2 0x32A JUMPI PUSH1 0x4 CALLDATALOAD PUSH2 0x28D5 PUSH2 0x41AB JUMP JUMPDEST PUSH2 0x1388 DUP2 GT PUSH2 0x28E3 JUMPI PUSH1 0xF SSTORE STOP JUMPDEST PUSH1 0x40 MLOAD PUSH3 0x461BCD PUSH1 0xE5 SHL DUP2 MSTORE PUSH1 0x20 PUSH1 0x4 DUP3 ADD MSTORE PUSH1 0x7 PUSH1 0x24 DUP3 ADD MSTORE PUSH7 0x4D617820353025 PUSH1 0xC8 SHL PUSH1 0x44 DUP3 ADD MSTORE PUSH1 0x64 SWAP1 REVERT JUMPDEST CALLVALUE PUSH2 0x32A JUMPI PUSH1 0x40 CALLDATASIZE PUSH1 0x3 NOT ADD SLT PUSH2 0x32A JUMPI PUSH2 0x292B PUSH2 0x2F75 JUMP JUMPDEST PUSH1 0x4 CALLDATALOAD PUSH1 0x0 MSTORE PUSH1 0xA PUSH1 0x20 MSTORE PUSH1 0x40 PUSH1 0x0 KECCAK256 SWAP1 PUSH1 0x1 DUP1 PUSH1 0xA0 SHL SUB AND PUSH1 0x0 MSTORE PUSH1 0x20 MSTORE PUSH1 0x20 PUSH2 0xFFFF PUSH1 0x40 PUSH1 0x0 KECCAK256 SLOAD AND PUSH1 0x40 MLOAD SWAP1 DUP2 MSTORE RETURN JUMPDEST CALLVALUE PUSH2 0x32A JUMPI PUSH1 0x80 CALLDATASIZE PUSH1 0x3 NOT ADD SLT PUSH2 0x32A JUMPI PUSH1 0x4 CALLDATALOAD PUSH2 0x297A PUSH2 0x2F0F JUMP JUMPDEST SWAP1 PUSH1 0x44 CALLDATALOAD PUSH1 0x1 PUSH1 0x1 PUSH1 0x40 SHL SUB DUP2 GT PUSH2 0x32A JUMPI PUSH2 0x299A SWAP1 CALLDATASIZE SWAP1 PUSH1 0x4 ADD PUSH2 0x2F45 JUMP JUMPDEST SWAP1 PUSH1 0x64 CALLDATALOAD PUSH1 0x1 PUSH1 0x1 PUSH1 0x40 SHL SUB DUP2 GT PUSH2 0x32A JUMPI PUSH2 0x29BA SWAP1 CALLDATASIZE SWAP1 PUSH1 0x4 ADD PUSH2 0x2F45 JUMP JUMPDEST SWAP5 SWAP1 PUSH2 0x29C4 PUSH2 0x41AB JUMP JUMPDEST PUSH2 0x29CF DUP7 DUP6 EQ PUSH2 0x3220 JUMP JUMPDEST PUSH2 0x29DA DUP5 ISZERO ISZERO PUSH2 0x325E JUMP JUMPDEST DUP5 PUSH1 0x0 MSTORE PUSH1 0x7 PUSH1 0x20 MSTORE PUSH1 0x40 DUP1 PUSH1 0x0 KECCAK256 PUSH1 0x0 SWAP1 PUSH2 0xFFFF DUP6 AND DUP3 MSTORE PUSH1 0x20 MSTORE KECCAK256 SWAP3 PUSH2 0x2A0B PUSH1 0xFF PUSH1 0x5 DUP7 ADD SLOAD PUSH1 0x10 SHR AND PUSH2 0x329A JUMP JUMPDEST PUSH1 0xFF PUSH1 0x1 DUP6 ADD SLOAD PUSH1 0xA0 SHR AND PUSH1 0x2 DUP2 LT ISZERO PUSH2 0x55F JUMPI PUSH1 0x1 PUSH2 0x2A2E SWAP2 SWAP9 SWAP5 SWAP9 EQ PUSH2 0x32DD JUMP JUMPDEST PUSH1 0x0 JUMPDEST DUP6 DUP2 LT PUSH2 0x2AEA JUMPI POP DUP6 PUSH1 0x0 MSTORE PUSH1 0x8 PUSH1 0x20 MSTORE PUSH1 0x40 PUSH1 0x0 KECCAK256 PUSH2 0xFFFF DUP9 AND PUSH1 0x0 MSTORE PUSH1 0x20 MSTORE PUSH2 0x2A5F PUSH1 0x40 PUSH1 0x0 KECCAK256 PUSH2 0x343A JUMP JUMPDEST PUSH2 0xFFFF PUSH1 0x0 SWAP8 AND SWAP7 JUMPDEST DUP6 DUP2 LT PUSH2 0x2AA5 JUMPI DUP8 DUP8 PUSH32 0x25742C04C8F0360E39ABB67701FDA4ACB202E054E9776C223FF2B53398C7B260 PUSH1 0x20 DUP10 DUP10 PUSH1 0x4 NUMBER SWAP2 ADD SSTORE PUSH1 0x40 MLOAD SWAP1 DUP2 MSTORE LOG3 STOP JUMPDEST PUSH1 0x1 SWAP1 DUP8 PUSH1 0x0 MSTORE PUSH1 0x8 PUSH1 0x20 MSTORE PUSH2 0x2AE4 PUSH1 0x40 DUP1 PUSH1 0x0 KECCAK256 PUSH1 0x0 SWAP1 DUP13 DUP3 MSTORE PUSH1 0x20 MSTORE KECCAK256 PUSH2 0x2AD2 PUSH2 0x19DF DUP5 DUP12 DUP9 PUSH2 0x331B JUMP JUMPDEST SWAP1 PUSH2 0xFFFF PUSH2 0x19F6 PUSH2 0x19DF DUP7 DUP12 DUP12 PUSH2 0x331B JUMP JUMPDEST ADD PUSH2 0x2A68 JUMP JUMPDEST PUSH2 0x2AFE PUSH2 0x1A29 PUSH2 0x19DF DUP4 DUP10 DUP7 SWAP13 SWAP9 SWAP13 PUSH2 0x331B JUMP JUMPDEST DUP7 PUSH1 0x0 MSTORE PUSH1 0x7 PUSH1 0x20 MSTORE PUSH2 0x2B22 PUSH1 0xFF PUSH1 0x5 PUSH1 0x40 DUP1 PUSH1 0x0 KECCAK256 PUSH2 0x1A6A PUSH2 0x19DF DUP8 DUP14 DUP11 PUSH2 0x331B JUMP JUMPDEST DUP7 PUSH1 0x0 MSTORE PUSH1 0x7 PUSH1 0x20 MSTORE PUSH1 0xFF PUSH1 0x1 PUSH1 0x40 DUP1 PUSH1 0x0 KECCAK256 PUSH2 0x2B43 PUSH2 0x19DF DUP7 DUP13 DUP10 PUSH2 0x331B JUMP JUMPDEST SWAP1 PUSH2 0xFFFF PUSH1 0x0 SWAP3 AND DUP3 MSTORE PUSH1 0x20 MSTORE KECCAK256 ADD SLOAD PUSH1 0xA0 SHR AND SWAP1 PUSH1 0x2 DUP3 LT ISZERO PUSH2 0x55F JUMPI PUSH2 0x2B6D PUSH1 0x1 SWAP3 ISZERO PUSH2 0x33CA JUMP JUMPDEST ADD SWAP7 SWAP3 SWAP7 PUSH2 0x2A31 JUMP JUMPDEST CALLVALUE PUSH2 0x32A JUMPI PUSH1 0x40 CALLDATASIZE PUSH1 0x3 NOT ADD SLT PUSH2 0x32A JUMPI PUSH1 0x4 CALLDATALOAD PUSH2 0x2B92 PUSH2 0x2F0F JUMP JUMPDEST SWAP1 PUSH2 0x2B9B PUSH2 0x421D JUMP JUMPDEST PUSH1 0x0 DUP2 DUP2 MSTORE PUSH1 0x7 PUSH1 0x20 SWAP1 DUP2 MSTORE PUSH1 0x40 DUP1 DUP4 KECCAK256 PUSH2 0xFFFF DUP7 AND DUP5 MSTORE SWAP1 SWAP2 MSTORE SWAP1 KECCAK256 PUSH1 0x1 DUP2 ADD SLOAD PUSH1 0x1 PUSH1 0x1 PUSH1 0xA0 SHL SUB AND CALLER SUB PUSH2 0x2C86 JUMPI PUSH1 0x9 DUP2 ADD SWAP1 DUP2 SLOAD SWAP1 DUP2 ISZERO PUSH2 0x2C53 JUMPI PUSH1 0x0 PUSH32 0x590FA2FAFACB7B76B58059EA8C0B2E9E7FE3F6A044B9E3A27F9D1A1F3AFF626D SWAP4 SSTORE PUSH2 0x2C2A DUP3 CALLER PUSH32 0x0 PUSH2 0x423F JUMP JUMPDEST SLOAD PUSH1 0x40 DUP1 MLOAD PUSH2 0xFFFF SWAP1 SWAP7 AND DUP7 MSTORE PUSH1 0x20 DUP7 ADD SWAP3 SWAP1 SWAP3 MSTORE PUSH1 0x1 PUSH1 0x1 PUSH1 0xA0 SHL SUB AND SWAP4 SWAP1 DUP2 SWAP1 DUP2 ADD PUSH2 0x7F2 JUMP JUMPDEST PUSH1 0x40 MLOAD PUSH3 0x461BCD PUSH1 0xE5 SHL DUP2 MSTORE PUSH1 0x20 PUSH1 0x4 DUP3 ADD MSTORE PUSH1 0xB PUSH1 0x24 DUP3 ADD MSTORE PUSH11 0x27379032B6B4B9B9B4B7B7 PUSH1 0xA9 SHL PUSH1 0x44 DUP3 ADD MSTORE PUSH1 0x64 SWAP1 REVERT JUMPDEST PUSH1 0x40 MLOAD PUSH3 0x461BCD PUSH1 0xE5 SHL DUP2 MSTORE PUSH1 0x20 PUSH1 0x4 DUP3 ADD MSTORE PUSH1 0x9 PUSH1 0x24 DUP3 ADD MSTORE PUSH9 0x2737BA1037BBB732B9 PUSH1 0xB9 SHL PUSH1 0x44 DUP3 ADD MSTORE PUSH1 0x64 SWAP1 REVERT JUMPDEST CALLVALUE PUSH2 0x32A JUMPI PUSH2 0x2CC5 CALLDATASIZE PUSH2 0x2F20 JUMP JUMPDEST PUSH2 0x2CCD PUSH2 0x421D JUMP JUMPDEST PUSH1 0x40 DUP1 MLOAD PUSH1 0x20 DUP2 ADD DUP6 DUP2 MSTORE PUSH1 0xF0 DUP6 SWAP1 SHL PUSH1 0x1 PUSH1 0x1 PUSH1 0xF0 SHL SUB NOT AND SWAP3 DUP3 ADD SWAP3 SWAP1 SWAP3 MSTORE PUSH2 0x2CFB DUP2 PUSH1 0x42 DUP2 ADD PUSH2 0x78D JUMP JUMPDEST MLOAD SWAP1 KECCAK256 CALLER PUSH1 0x0 MSTORE PUSH1 0xB PUSH1 0x20 MSTORE PUSH1 0x40 PUSH1 0x0 KECCAK256 DUP2 PUSH1 0x0 MSTORE PUSH1 0x20 MSTORE DUP2 PUSH1 0x40 PUSH1 0x0 KECCAK256 SLOAD LT PUSH2 0x2DE4 JUMPI PUSH32 0xEF37DAC52E652A2F78CC3DF2429066B4D48A100F62255B7343F6396B3C2EEF81 SWAP2 PUSH2 0x7F2 SWAP2 CALLER PUSH1 0x0 MSTORE PUSH1 0xB PUSH1 0x20 MSTORE PUSH1 0x40 PUSH1 0x0 KECCAK256 SWAP1 PUSH1 0x0 MSTORE PUSH1 0x20 MSTORE PUSH1 0x40 PUSH1 0x0 KECCAK256 PUSH2 0x2D6A DUP3 DUP3 SLOAD PUSH2 0x3213 JUMP JUMPDEST SWAP1 SSTORE DUP5 PUSH1 0x0 MSTORE PUSH1 0x7 PUSH1 0x20 MSTORE PUSH1 0x40 PUSH1 0x0 KECCAK256 PUSH2 0xFFFF DUP6 AND PUSH1 0x0 MSTORE PUSH1 0x20 MSTORE PUSH1 0x3 PUSH1 0x40 PUSH1 0x0 KECCAK256 ADD PUSH2 0x2D98 DUP3 DUP3 SLOAD PUSH2 0x3213 JUMP JUMPDEST SWAP1 SSTORE PUSH2 0x2DC5 DUP2 CALLER PUSH32 0x0 PUSH2 0x423F JUMP JUMPDEST PUSH1 0x40 MLOAD SWAP2 DUP3 SWAP2 CALLER SWAP6 DUP4 PUSH1 0x20 SWAP1 SWAP4 SWAP3 SWAP2 SWAP4 PUSH2 0xFFFF PUSH1 0x40 DUP3 ADD SWAP6 AND DUP2 MSTORE ADD MSTORE JUMP JUMPDEST PUSH1 0x40 MLOAD PUSH3 0x461BCD PUSH1 0xE5 SHL DUP2 MSTORE PUSH1 0x20 PUSH1 0x4 DUP3 ADD MSTORE PUSH1 0x17 PUSH1 0x24 DUP3 ADD MSTORE PUSH32 0x496E73756666696369656E742064656C65676174696F6E000000000000000000 PUSH1 0x44 DUP3 ADD MSTORE PUSH1 0x64 SWAP1 REVERT JUMPDEST CALLVALUE PUSH2 0x32A JUMPI PUSH1 0x0 CALLDATASIZE PUSH1 0x3 NOT ADD SLT PUSH2 0x32A JUMPI PUSH1 0x20 PUSH1 0x11 SLOAD PUSH1 0x40 MLOAD SWAP1 DUP2 MSTORE RETURN JUMPDEST CALLVALUE PUSH2 0x32A JUMPI PUSH1 0x20 CALLDATASIZE PUSH1 0x3 NOT ADD SLT PUSH2 0x32A JUMPI PUSH2 0x2E60 PUSH2 0x41AB JUMP JUMPDEST PUSH1 0x4 CALLDATALOAD PUSH1 0x12 SSTORE STOP JUMPDEST CALLVALUE PUSH2 0x32A JUMPI PUSH1 0x40 CALLDATASIZE PUSH1 0x3 NOT ADD SLT PUSH2 0x32A JUMPI PUSH1 0x60 PUSH1 0x40 PUSH2 0x2E85 PUSH2 0x2F0F JUMP JUMPDEST PUSH1 0x4 CALLDATALOAD PUSH1 0x0 MSTORE PUSH1 0xC PUSH1 0x20 MSTORE DUP2 PUSH1 0x0 KECCAK256 PUSH2 0xFFFF PUSH1 0x0 SWAP3 AND DUP3 MSTORE PUSH1 0x20 MSTORE KECCAK256 DUP1 SLOAD SWAP1 PUSH1 0xFF PUSH1 0x2 PUSH1 0x1 DUP4 ADD SLOAD SWAP3 ADD SLOAD AND SWAP1 PUSH1 0x40 MLOAD SWAP3 DUP4 MSTORE PUSH1 0x20 DUP4 ADD MSTORE ISZERO ISZERO PUSH1 0x40 DUP3 ADD MSTORE RETURN JUMPDEST CALLVALUE PUSH2 0x32A JUMPI PUSH1 0x20 CALLDATASIZE PUSH1 0x3 NOT ADD SLT PUSH2 0x32A JUMPI PUSH2 0x2EDF PUSH2 0x41AB JUMP JUMPDEST PUSH2 0x2F0D PUSH1 0x4 CALLDATALOAD ADDRESS CALLER PUSH32 0x0 PUSH2 0x41D4 JUMP JUMPDEST STOP JUMPDEST PUSH1 0x24 CALLDATALOAD SWAP1 PUSH2 0xFFFF DUP3 AND DUP3 SUB PUSH2 0x32A JUMPI JUMP JUMPDEST PUSH1 0x60 SWAP1 PUSH1 0x3 NOT ADD SLT PUSH2 0x32A JUMPI PUSH1 0x4 CALLDATALOAD SWAP1 PUSH1 0x24 CALLDATALOAD PUSH2 0xFFFF DUP2 AND DUP2 SUB PUSH2 0x32A JUMPI SWAP1 PUSH1 0x44 CALLDATALOAD SWAP1 JUMP JUMPDEST SWAP2 DUP2 PUSH1 0x1F DUP5 ADD SLT ISZERO PUSH2 0x32A JUMPI DUP3 CALLDATALOAD SWAP2 PUSH1 0x1 PUSH1 0x1 PUSH1 0x40 SHL SUB DUP4 GT PUSH2 0x32A JUMPI PUSH1 0x20 DUP1 DUP6 ADD SWAP5 DUP5 PUSH1 0x5 SHL ADD ADD GT PUSH2 0x32A JUMPI JUMP JUMPDEST PUSH1 0x24 CALLDATALOAD SWAP1 PUSH1 0x1 PUSH1 0x1 PUSH1 0xA0 SHL SUB DUP3 AND DUP3 SUB PUSH2 0x32A JUMPI JUMP JUMPDEST PUSH1 0x4 CALLDATALOAD SWAP1 PUSH1 0x1 PUSH1 0x1 PUSH1 0xA0 SHL SUB DUP3 AND DUP3 SUB PUSH2 0x32A JUMPI JUMP JUMPDEST SWAP1 PUSH1 0x2 DUP2 LT ISZERO PUSH2 0x55F JUMPI PUSH1 0x0 MSTORE PUSH1 0x20 MSTORE PUSH1 0x40 PUSH1 0x0 KECCAK256 SWAP1 JUMP JUMPDEST SWAP1 PUSH1 0x1 DUP3 DUP2 SHR SWAP3 AND DUP1 ISZERO PUSH2 0x2FE9 JUMPI JUMPDEST PUSH1 0x20 DUP4 LT EQ PUSH2 0x2FD3 JUMPI JUMP JUMPDEST PUSH4 0x4E487B71 PUSH1 0xE0 SHL PUSH1 0x0 MSTORE PUSH1 0x22 PUSH1 0x4 MSTORE PUSH1 0x24 PUSH1 0x0 REVERT JUMPDEST SWAP2 PUSH1 0x7F AND SWAP2 PUSH2 0x2FC8 JUMP JUMPDEST PUSH1 0x40 DUP2 ADD SWAP1 DUP2 LT PUSH1 0x1 PUSH1 0x1 PUSH1 0x40 SHL SUB DUP3 GT OR PUSH2 0xB89 JUMPI PUSH1 0x40 MSTORE JUMP JUMPDEST PUSH2 0x180 DUP2 ADD SWAP1 DUP2 LT PUSH1 0x1 PUSH1 0x1 PUSH1 0x40 SHL SUB DUP3 GT OR PUSH2 0xB89 JUMPI PUSH1 0x40 MSTORE JUMP JUMPDEST SWAP1 PUSH1 0x1F DUP1 NOT SWAP2 ADD AND DUP2 ADD SWAP1 DUP2 LT PUSH1 0x1 PUSH1 0x1 PUSH1 0x40 SHL SUB DUP3 GT OR PUSH2 0xB89 JUMPI PUSH1 0x40 MSTORE JUMP JUMPDEST SWAP1 PUSH1 0x40 MLOAD SWAP2 DUP3 PUSH1 0x0 DUP3 SLOAD SWAP3 PUSH2 0x305F DUP5 PUSH2 0x2FB9 JUMP JUMPDEST DUP1 DUP5 MSTORE SWAP4 PUSH1 0x1 DUP2 AND SWAP1 DUP2 ISZERO PUSH2 0x30CD JUMPI POP PUSH1 0x1 EQ PUSH2 0x3086 JUMPI JUMPDEST POP PUSH2 0x3084 SWAP3 POP SUB DUP4 PUSH2 0x302A JUMP JUMPDEST JUMP JUMPDEST SWAP1 POP PUSH1 0x0 SWAP3 SWAP2 SWAP3 MSTORE PUSH1 0x20 PUSH1 0x0 KECCAK256 SWAP1 PUSH1 0x0 SWAP2 JUMPDEST DUP2 DUP4 LT PUSH2 0x30B1 JUMPI POP POP SWAP1 PUSH1 0x20 PUSH2 0x3084 SWAP3 DUP3 ADD ADD CODESIZE PUSH2 0x3077 JUMP JUMPDEST PUSH1 0x20 SWAP2 SWAP4 POP DUP1 PUSH1 0x1 SWAP2 SLOAD DUP4 DUP6 DUP10 ADD ADD MSTORE ADD SWAP2 ADD SWAP1 SWAP2 DUP5 SWAP3 PUSH2 0x3098 JUMP JUMPDEST SWAP1 POP PUSH1 0x20 SWAP3 POP PUSH2 0x3084 SWAP5 SWAP2 POP PUSH1 0xFF NOT AND DUP3 DUP5 ADD MSTORE ISZERO ISZERO PUSH1 0x5 SHL DUP3 ADD ADD CODESIZE PUSH2 0x3077 JUMP JUMPDEST SWAP2 SWAP1 DUP3 MLOAD SWAP3 DUP4 DUP3 MSTORE PUSH1 0x0 JUMPDEST DUP5 DUP2 LT PUSH2 0x311B JUMPI POP POP DUP3 PUSH1 0x0 PUSH1 0x20 DUP1 SWAP5 SWAP6 DUP5 ADD ADD MSTORE PUSH1 0x1F DUP1 NOT SWAP2 ADD AND ADD ADD SWAP1 JUMP JUMPDEST DUP1 PUSH1 0x20 DUP1 SWAP3 DUP5 ADD ADD MLOAD DUP3 DUP3 DUP7 ADD ADD MSTORE ADD PUSH2 0x30FA JUMP JUMPDEST SWAP1 PUSH1 0x2 DUP3 LT ISZERO PUSH2 0x55F JUMPI MSTORE JUMP JUMPDEST SWAP2 DUP2 PUSH1 0x1F DUP5 ADD SLT ISZERO PUSH2 0x32A JUMPI DUP3 CALLDATALOAD SWAP2 PUSH1 0x1 PUSH1 0x1 PUSH1 0x40 SHL SUB DUP4 GT PUSH2 0x32A JUMPI PUSH1 0x20 DUP4 DUP2 DUP7 ADD SWAP6 ADD ADD GT PUSH2 0x32A JUMPI JUMP JUMPDEST SWAP1 PUSH1 0x20 DUP1 DUP4 MLOAD SWAP3 DUP4 DUP2 MSTORE ADD SWAP3 ADD SWAP1 PUSH1 0x0 JUMPDEST DUP2 DUP2 LT PUSH2 0x3188 JUMPI POP POP POP SWAP1 JUMP JUMPDEST DUP3 MLOAD PUSH1 0x1 PUSH1 0x1 PUSH1 0xA0 SHL SUB AND DUP5 MSTORE PUSH1 0x20 SWAP4 DUP5 ADD SWAP4 SWAP1 SWAP3 ADD SWAP2 PUSH1 0x1 ADD PUSH2 0x317B JUMP JUMPDEST SWAP1 PUSH1 0x20 DUP1 DUP4 MLOAD SWAP3 DUP4 DUP2 MSTORE ADD SWAP3 ADD SWAP1 PUSH1 0x0 JUMPDEST DUP2 DUP2 LT PUSH2 0x31C5 JUMPI POP POP POP SWAP1 JUMP JUMPDEST DUP3 MLOAD DUP5 MSTORE PUSH1 0x20 SWAP4 DUP5 ADD SWAP4 SWAP1 SWAP3 ADD SWAP2 PUSH1 0x1 ADD PUSH2 0x31B8 JUMP JUMPDEST SWAP1 PUSH1 0x20 DUP1 DUP4 MLOAD SWAP3 DUP4 DUP2 MSTORE ADD SWAP3 ADD SWAP1 PUSH1 0x0 JUMPDEST DUP2 DUP2 LT PUSH2 0x31F9 JUMPI POP POP POP SWAP1 JUMP JUMPDEST DUP3 MLOAD PUSH2 0xFFFF AND DUP5 MSTORE PUSH1 0x20 SWAP4 DUP5 ADD SWAP4 SWAP1 SWAP3 ADD SWAP2 PUSH1 0x1 ADD PUSH2 0x31EC JUMP JUMPDEST SWAP2 SWAP1 DUP3 SUB SWAP2 DUP3 GT PUSH2 0xAB1 JUMPI JUMP JUMPDEST ISZERO PUSH2 0x3227 JUMPI JUMP JUMPDEST PUSH1 0x40 MLOAD PUSH3 0x461BCD PUSH1 0xE5 SHL DUP2 MSTORE PUSH1 0x20 PUSH1 0x4 DUP3 ADD MSTORE PUSH1 0xF PUSH1 0x24 DUP3 ADD MSTORE PUSH15 0x98CADCCEE8D040DAD2E6DAC2E8C6D PUSH1 0x8B SHL PUSH1 0x44 DUP3 ADD MSTORE PUSH1 0x64 SWAP1 REVERT JUMPDEST ISZERO PUSH2 0x3265 JUMPI JUMP JUMPDEST PUSH1 0x40 MLOAD PUSH3 0x461BCD PUSH1 0xE5 SHL DUP2 MSTORE PUSH1 0x20 PUSH1 0x4 DUP3 ADD MSTORE PUSH1 0xD PUSH1 0x24 DUP3 ADD MSTORE PUSH13 0x456D7074792077656967687473 PUSH1 0x98 SHL PUSH1 0x44 DUP3 ADD MSTORE PUSH1 0x64 SWAP1 REVERT JUMPDEST ISZERO PUSH2 0x32A1 JUMPI JUMP JUMPDEST PUSH1 0x40 MLOAD PUSH3 0x461BCD PUSH1 0xE5 SHL DUP2 MSTORE PUSH1 0x20 PUSH1 0x4 DUP3 ADD MSTORE PUSH1 0x14 PUSH1 0x24 DUP3 ADD MSTORE PUSH20 0x56616C696461746F72206E6F7420616374697665 PUSH1 0x60 SHL PUSH1 0x44 DUP3 ADD MSTORE PUSH1 0x64 SWAP1 REVERT JUMPDEST ISZERO PUSH2 0x32E4 JUMPI JUMP JUMPDEST PUSH1 0x40 MLOAD PUSH3 0x461BCD PUSH1 0xE5 SHL DUP2 MSTORE PUSH1 0x20 PUSH1 0x4 DUP3 ADD MSTORE PUSH1 0xF PUSH1 0x24 DUP3 ADD MSTORE PUSH15 0x2737BA1030903B30B634B230BA37B9 PUSH1 0x89 SHL PUSH1 0x44 DUP3 ADD MSTORE PUSH1 0x64 SWAP1 REVERT JUMPDEST SWAP2 SWAP1 DUP2 LT ISZERO PUSH2 0x332B JUMPI PUSH1 0x5 SHL ADD SWAP1 JUMP JUMPDEST PUSH4 0x4E487B71 PUSH1 0xE0 SHL PUSH1 0x0 MSTORE PUSH1 0x32 PUSH1 0x4 MSTORE PUSH1 0x24 PUSH1 0x0 REVERT JUMPDEST CALLDATALOAD PUSH2 0xFFFF DUP2 AND DUP2 SUB PUSH2 0x32A JUMPI SWAP1 JUMP JUMPDEST ISZERO PUSH2 0x3357 JUMPI JUMP JUMPDEST PUSH1 0x40 MLOAD PUSH3 0x461BCD PUSH1 0xE5 SHL DUP2 MSTORE PUSH1 0x20 PUSH1 0x4 DUP3 ADD MSTORE PUSH1 0xB PUSH1 0x24 DUP3 ADD MSTORE PUSH11 0x125B9D985B1A5908155251 PUSH1 0xAA SHL PUSH1 0x44 DUP3 ADD MSTORE PUSH1 0x64 SWAP1 REVERT JUMPDEST ISZERO PUSH2 0x3391 JUMPI JUMP JUMPDEST PUSH1 0x40 MLOAD PUSH3 0x461BCD PUSH1 0xE5 SHL DUP2 MSTORE PUSH1 0x20 PUSH1 0x4 DUP3 ADD MSTORE PUSH1 0x11 PUSH1 0x24 DUP3 ADD MSTORE PUSH17 0x546172676574206E6F7420616374697665 PUSH1 0x78 SHL PUSH1 0x44 DUP3 ADD MSTORE PUSH1 0x64 SWAP1 REVERT JUMPDEST ISZERO PUSH2 0x33D1 JUMPI JUMP JUMPDEST PUSH1 0x40 MLOAD PUSH3 0x461BCD PUSH1 0xE5 SHL DUP2 MSTORE PUSH1 0x20 PUSH1 0x4 DUP3 ADD MSTORE PUSH1 0x16 PUSH1 0x24 DUP3 ADD MSTORE PUSH22 0x43616E206F6E6C7920776569676874206D696E657273 PUSH1 0x50 SHL PUSH1 0x44 DUP3 ADD MSTORE PUSH1 0x64 SWAP1 REVERT JUMPDEST SWAP1 PUSH2 0x1388 DUP3 MUL SWAP2 DUP1 DUP4 DIV PUSH2 0x1388 EQ SWAP1 ISZERO OR ISZERO PUSH2 0xAB1 JUMPI JUMP JUMPDEST DUP2 DUP2 MUL SWAP3 SWAP2 DUP2 ISZERO SWAP2 DUP5 DIV EQ OR ISZERO PUSH2 0xAB1 JUMPI JUMP JUMPDEST DUP1 SLOAD SWAP1 PUSH1 0x0 DUP2 SSTORE DUP2 PUSH2 0x344A JUMPI POP POP JUMP JUMPDEST PUSH1 0x0 MSTORE PUSH1 0x20 PUSH1 0x0 KECCAK256 SWAP1 DUP2 ADD SWAP1 JUMPDEST DUP2 DUP2 LT PUSH2 0x3462 JUMPI POP POP JUMP JUMPDEST PUSH1 0x0 DUP2 SSTORE PUSH1 0x1 ADD PUSH2 0x3457 JUMP JUMPDEST DUP1 SLOAD DUP3 LT ISZERO PUSH2 0x332B JUMPI PUSH1 0x0 MSTORE PUSH1 0x20 PUSH1 0x0 KECCAK256 ADD SWAP1 PUSH1 0x0 SWAP1 JUMP JUMPDEST DUP1 SLOAD PUSH9 0x10000000000000000 DUP2 LT ISZERO PUSH2 0xB89 JUMPI PUSH2 0x34A8 SWAP2 PUSH1 0x1 DUP3 ADD DUP2 SSTORE PUSH2 0x346E JUMP JUMPDEST SWAP2 SWAP1 SWAP2 PUSH2 0x34DB JUMPI DUP1 MLOAD DUP3 SLOAD PUSH1 0x20 SWAP1 SWAP3 ADD MLOAD PUSH4 0xFFFFFFFF NOT SWAP1 SWAP3 AND PUSH2 0xFFFF SWAP2 SWAP1 SWAP2 AND OR PUSH1 0x10 SWAP2 SWAP1 SWAP2 SHL PUSH4 0xFFFF0000 AND OR SWAP1 SSTORE JUMP JUMPDEST PUSH4 0x4E487B71 PUSH1 0xE0 SHL PUSH1 0x0 MSTORE PUSH1 0x0 PUSH1 0x4 MSTORE PUSH1 0x24 PUSH1 0x0 REVERT JUMPDEST ISZERO PUSH2 0x34F8 JUMPI JUMP JUMPDEST PUSH1 0x40 MLOAD PUSH3 0x461BCD PUSH1 0xE5 SHL DUP2 MSTORE PUSH1 0x20 PUSH1 0x4 DUP3 ADD MSTORE PUSH1 0xA PUSH1 0x24 DUP3 ADD MSTORE PUSH10 0x4E6F7420616374697665 PUSH1 0xB0 SHL PUSH1 0x44 DUP3 ADD MSTORE PUSH1 0x64 SWAP1 REVERT JUMPDEST SWAP2 SWAP1 DUP3 ADD DUP1 SWAP3 GT PUSH2 0xAB1 JUMPI JUMP JUMPDEST DUP2 ISZERO PUSH2 0x3541 JUMPI DIV SWAP1 JUMP JUMPDEST PUSH4 0x4E487B71 PUSH1 0xE0 SHL PUSH1 0x0 MSTORE PUSH1 0x12 PUSH1 0x4 MSTORE PUSH1 0x24 PUSH1 0x0 REVERT JUMPDEST SWAP1 DUP1 PUSH1 0x20 SWAP4 SWAP3 DUP2 DUP5 MSTORE DUP5 DUP5 ADD CALLDATACOPY PUSH1 0x0 DUP3 DUP3 ADD DUP5 ADD MSTORE PUSH1 0x1F ADD PUSH1 0x1F NOT AND ADD ADD SWAP1 JUMP JUMPDEST ISZERO PUSH2 0x357F JUMPI JUMP JUMPDEST PUSH1 0x40 MLOAD PUSH3 0x461BCD PUSH1 0xE5 SHL DUP2 MSTORE PUSH1 0x20 PUSH1 0x4 DUP3 ADD MSTORE PUSH1 0xE PUSH1 0x24 DUP3 ADD MSTORE PUSH14 0x139BDD081C9959DA5CDD195C9959 PUSH1 0x92 SHL PUSH1 0x44 DUP3 ADD MSTORE PUSH1 0x64 SWAP1 REVERT JUMPDEST ISZERO PUSH2 0x35BC JUMPI JUMP JUMPDEST PUSH1 0x40 MLOAD PUSH3 0x461BCD PUSH1 0xE5 SHL DUP2 MSTORE PUSH1 0x20 PUSH1 0x4 DUP3 ADD MSTORE PUSH1 0x11 PUSH1 0x24 DUP3 ADD MSTORE PUSH17 0x5375626E6574206E6F7420616374697665 PUSH1 0x78 SHL PUSH1 0x44 DUP3 ADD MSTORE PUSH1 0x64 SWAP1 REVERT JUMPDEST PUSH1 0x0 NOT DUP2 EQ PUSH2 0xAB1 JUMPI PUSH1 0x1 ADD SWAP1 JUMP JUMPDEST SWAP1 PUSH1 0x0 SWAP1 JUMPDEST DUP1 DUP3 LT PUSH2 0x3616 JUMPI POP POP POP SWAP1 JUMP JUMPDEST SWAP1 SWAP2 SWAP3 DUP4 CALLDATALOAD SWAP1 PUSH2 0xFFFF DUP3 AND DUP3 SUB PUSH2 0x32A JUMPI PUSH1 0x20 DUP1 SWAP2 PUSH2 0xFFFF PUSH1 0x1 SWAP5 AND DUP2 MSTORE ADD SWAP5 ADD SWAP3 ADD SWAP1 PUSH2 0x3609 JUMP JUMPDEST ISZERO PUSH2 0x3646 JUMPI JUMP JUMPDEST PUSH1 0x40 MLOAD PUSH3 0x461BCD PUSH1 0xE5 SHL DUP2 MSTORE PUSH1 0x20 PUSH1 0x4 DUP3 ADD MSTORE PUSH1 0xE PUSH1 0x24 DUP3 ADD MSTORE PUSH14 0x139BDD08185D5D1A1BDC9A5E9959 PUSH1 0x92 SHL PUSH1 0x44 DUP3 ADD MSTORE PUSH1 0x64 SWAP1 REVERT JUMPDEST PUSH1 0x1 PUSH1 0x1 PUSH1 0x40 SHL SUB DUP2 GT PUSH2 0xB89 JUMPI PUSH1 0x5 SHL PUSH1 0x20 ADD SWAP1 JUMP JUMPDEST SWAP1 PUSH2 0x369D DUP3 PUSH2 0x367C JUMP JUMPDEST PUSH2 0x36AA PUSH1 0x40 MLOAD SWAP2 DUP3 PUSH2 0x302A JUMP JUMPDEST DUP3 DUP2 MSTORE DUP1 SWAP3 PUSH2 0x36BB PUSH1 0x1F NOT SWAP2 PUSH2 0x367C JUMP JUMPDEST ADD SWAP1 PUSH1 0x20 CALLDATASIZE SWAP2 ADD CALLDATACOPY JUMP JUMPDEST PUSH2 0xFFFF AND PUSH2 0xFFFF DUP2 EQ PUSH2 0xAB1 JUMPI PUSH1 0x1 ADD SWAP1 JUMP JUMPDEST DUP1 MLOAD DUP3 LT ISZERO PUSH2 0x332B JUMPI PUSH1 0x20 SWAP2 PUSH1 0x5 SHL ADD ADD SWAP1 JUMP JUMPDEST SWAP1 DUP2 PUSH1 0x0 MSTORE PUSH1 0x6 PUSH1 0x20 MSTORE PUSH1 0x40 PUSH1 0x0 KECCAK256 SWAP2 PUSH2 0x370C PUSH1 0xFF PUSH1 0xA DUP6 ADD SLOAD AND PUSH2 0x35B5 JUMP JUMPDEST PUSH1 0x5 DUP4 ADD SLOAD PUSH2 0x371F PUSH1 0x4 DUP6 ADD SLOAD DUP3 PUSH2 0x352A JUMP JUMPDEST NUMBER LT PUSH2 0x417A JUMPI PUSH1 0x8 DUP5 ADD SLOAD ISZERO PUSH2 0x414A JUMPI PUSH1 0x5 SLOAD DUP1 ISZERO PUSH2 0x4110 JUMPI PUSH2 0x375E PUSH2 0x3753 PUSH2 0x374B PUSH2 0x3763 SWAP5 NUMBER PUSH2 0x3213 JUMP JUMPDEST PUSH1 0x4 SLOAD PUSH2 0x3427 JUMP JUMPDEST PUSH1 0x3 DUP8 ADD SLOAD SWAP1 PUSH2 0x3427 JUMP JUMPDEST PUSH2 0x3537 JUMP JUMPDEST PUSH1 0x40 MLOAD PUSH4 0x70A08231 PUSH1 0xE0 SHL DUP2 MSTORE ADDRESS PUSH1 0x4 DUP3 ADD MSTORE SWAP1 SWAP3 SWAP1 PUSH1 0x20 DUP2 PUSH1 0x24 DUP2 PUSH32 0x0 PUSH1 0x1 PUSH1 0x1 PUSH1 0xA0 SHL SUB AND GAS STATICCALL SWAP1 DUP2 ISZERO PUSH2 0x4104 JUMPI PUSH1 0x0 SWAP2 PUSH2 0x40D2 JUMPI JUMPDEST POP DUP1 DUP5 GT PUSH2 0x40CA JUMPI JUMPDEST POP DUP3 ISZERO PUSH2 0x40BE JUMPI PUSH1 0x9 DUP5 ADD SLOAD SWAP3 PUSH2 0x37D9 DUP5 PUSH2 0x3693 JUMP JUMPDEST SWAP2 PUSH1 0x0 SWAP2 PUSH2 0x37E6 DUP7 PUSH2 0x3693 JUMP JUMPDEST SWAP7 DUP4 JUMPDEST DUP8 PUSH2 0xFFFF DUP3 AND LT ISZERO PUSH2 0x39C2 JUMPI DUP7 PUSH1 0x0 MSTORE PUSH1 0x7 PUSH1 0x20 MSTORE PUSH1 0x40 DUP1 PUSH1 0x0 KECCAK256 PUSH1 0x0 SWAP1 PUSH2 0xFFFF DUP5 AND DUP3 MSTORE PUSH1 0x20 MSTORE KECCAK256 PUSH1 0xFF PUSH1 0x5 DUP3 ADD SLOAD PUSH1 0x10 SHR AND ISZERO DUP1 ISZERO PUSH2 0x39A4 JUMPI JUMPDEST PUSH2 0x399A JUMPI PUSH2 0x383C PUSH1 0x2 DUP3 ADD SLOAD PUSH1 0x3 DUP4 ADD SLOAD SWAP1 PUSH2 0x352A JUMP JUMPDEST DUP1 ISZERO PUSH2 0x398F JUMPI PUSH2 0x3861 PUSH1 0x7 PUSH2 0x3859 PUSH8 0xDE0B6B3A7640000 SWAP4 PUSH2 0x427A JUMP JUMPDEST SWAP4 ADD SLOAD PUSH2 0x340F JUMP JUMPDEST DIV PUSH2 0x2710 ADD SWAP1 DUP2 PUSH2 0x2710 GT PUSH2 0xAB1 JUMPI PUSH2 0x2710 SWAP2 PUSH2 0x387D SWAP2 PUSH2 0x3427 JUMP JUMPDEST DIV DUP8 PUSH1 0x0 MSTORE PUSH1 0x8 PUSH1 0x20 MSTORE PUSH1 0x40 DUP1 PUSH1 0x0 KECCAK256 PUSH1 0x0 SWAP1 PUSH2 0xFFFF DUP6 AND DUP3 MSTORE PUSH1 0x20 MSTORE KECCAK256 SWAP1 PUSH1 0x0 SWAP2 DUP3 SWAP1 DUP1 SLOAD SWAP2 JUMPDEST DUP3 DUP2 LT PUSH2 0x3968 JUMPI POP DUP4 ISZERO PUSH2 0x395B JUMPI SWAP3 SWAP2 SWAP1 PUSH1 0x0 SWAP4 DUP5 SWAP4 JUMPDEST DUP12 DUP4 DUP7 LT PUSH2 0x38E8 JUMPI POP POP POP POP POP POP SWAP1 PUSH2 0x38E3 SWAP2 PUSH2 0x38DD PUSH2 0xFFFF DUP4 AND DUP13 PUSH2 0x36D8 JUMP JUMPDEST MSTORE PUSH2 0x36C5 JUMP JUMPDEST PUSH2 0x37E9 JUMP JUMPDEST PUSH2 0x392D PUSH2 0x394A DUP8 DUP1 SWAP10 SWAP15 PUSH2 0x3950 SWAP5 PUSH2 0x3944 PUSH2 0xFFFF PUSH2 0x3924 DUP10 PUSH2 0x375E DUP15 SWAP16 SWAP15 DUP14 SWAP15 SWAP16 PUSH2 0x3918 PUSH1 0x1 SWAP15 SWAP16 SWAP2 DUP8 SWAP3 PUSH2 0x346E JUMP JUMPDEST POP SLOAD PUSH1 0x10 SHR AND SWAP1 PUSH2 0x3427 JUMP JUMPDEST SWAP7 DUP8 SWAP6 DUP13 PUSH2 0x346E JUMP JUMPDEST POP SLOAD AND PUSH2 0x4E6 DUP6 PUSH2 0x393E DUP4 DUP7 PUSH2 0x36D8 JUMP JUMPDEST MLOAD PUSH2 0x352A JUMP JUMPDEST MSTORE PUSH2 0x352A JUMP JUMPDEST SWAP13 PUSH2 0x352A JUMP JUMPDEST SWAP6 ADD SWAP4 SWAP3 SWAP2 SWAP1 PUSH2 0x38BC JUMP JUMPDEST POP POP POP POP PUSH2 0x38E3 SWAP1 PUSH2 0x36C5 JUMP JUMPDEST SWAP4 PUSH2 0x3988 PUSH1 0x1 SWAP2 PUSH2 0xFFFF PUSH2 0x397C DUP9 DUP7 PUSH2 0x346E JUMP JUMPDEST POP SLOAD PUSH1 0x10 SHR AND SWAP1 PUSH2 0x352A JUMP JUMPDEST SWAP5 ADD PUSH2 0x38A5 JUMP JUMPDEST POP POP PUSH2 0x38E3 SWAP1 PUSH2 0x36C5 JUMP JUMPDEST POP PUSH2 0x38E3 SWAP1 PUSH2 0x36C5 JUMP JUMPDEST POP PUSH1 0xFF PUSH1 0x1 DUP3 ADD SLOAD PUSH1 0xA0 SHR AND PUSH1 0x2 DUP2 LT ISZERO PUSH2 0x55F JUMPI PUSH1 0x1 EQ ISZERO PUSH2 0x3825 JUMP JUMPDEST POP SWAP4 SWAP3 SWAP2 SWAP7 POP SWAP4 SWAP5 POP PUSH2 0x2008 DUP5 MUL DUP5 DUP2 DIV PUSH2 0x2008 SUB PUSH2 0xAB1 JUMPI PUSH2 0x2710 SWAP1 DIV DUP2 ISZERO ISZERO SWAP1 DUP2 PUSH2 0x3F7B JUMPI JUMPDEST POP PUSH2 0x708 DUP6 MUL DUP6 DUP2 DIV PUSH2 0x708 SUB PUSH2 0xAB1 JUMPI PUSH2 0x2710 SWAP1 DIV PUSH1 0x0 SWAP1 PUSH1 0x0 PUSH1 0x9 DUP8 ADD SLOAD SWAP1 JUMPDEST DUP2 PUSH2 0xFFFF DUP3 AND LT PUSH2 0x3EC8 JUMPI POP POP DUP2 PUSH2 0x3DCE JUMPI JUMPDEST POP POP PUSH2 0x3A61 JUMPI JUMPDEST POP POP PUSH32 0x8B62A28F277757EB2F6F2F71863CBB10E1CE66D8BCFA14B5EBCBA332AB867331 SWAP2 PUSH1 0x40 SWAP2 PUSH1 0x5 NUMBER SWAP2 ADD SSTORE DUP2 MLOAD SWAP1 NUMBER DUP3 MSTORE PUSH1 0x20 DUP3 ADD MSTORE LOG2 JUMP JUMPDEST SWAP2 SWAP4 SWAP3 PUSH1 0x0 SWAP6 SWAP2 SWAP6 JUMPDEST PUSH1 0x9 DUP7 ADD SLOAD PUSH2 0xFFFF DUP3 AND LT ISZERO PUSH2 0x3DBE JUMPI DUP5 PUSH1 0x0 MSTORE PUSH1 0x7 PUSH1 0x20 MSTORE PUSH1 0x40 DUP1 PUSH1 0x0 KECCAK256 PUSH1 0x0 SWAP1 PUSH2 0xFFFF DUP5 AND DUP3 MSTORE PUSH1 0x20 MSTORE KECCAK256 SWAP1 PUSH1 0xFF PUSH1 0x5 DUP4 ADD SLOAD PUSH1 0x10 SHR AND ISZERO DUP1 ISZERO PUSH2 0x3DA0 JUMPI JUMPDEST PUSH2 0x3D96 JUMPI DUP6 PUSH1 0x0 MSTORE PUSH1 0x8 PUSH1 0x20 MSTORE PUSH1 0x40 DUP1 PUSH1 0x0 KECCAK256 PUSH1 0x0 SWAP1 PUSH2 0xFFFF DUP5 AND DUP3 MSTORE PUSH1 0x20 MSTORE KECCAK256 DUP1 SLOAD ISZERO PUSH2 0x3CE6 JUMPI DUP1 SLOAD PUSH1 0x0 SWAP2 DUP3 JUMPDEST DUP3 DUP2 LT PUSH2 0x3CC7 JUMPI POP PUSH1 0x0 SWAP3 DUP4 SWAP3 DUP5 SWAP3 JUMPDEST DUP2 DUP5 LT PUSH2 0x3C00 JUMPI POP PUSH1 0x0 SWAP3 POP POP DUP3 ISZERO SWAP1 POP PUSH2 0x3BF8 JUMPI POP PUSH8 0xDE0B6B3A7640000 DUP3 MUL SWAP2 DUP1 DUP4 DIV PUSH8 0xDE0B6B3A7640000 EQ SWAP1 ISZERO OR ISZERO PUSH2 0xAB1 JUMPI PUSH2 0x3B2A SWAP2 PUSH2 0x3537 JUMP JUMPDEST PUSH1 0x7 DUP4 ADD SWAP1 DUP2 SLOAD PUSH1 0x46 DUP2 MUL SWAP1 DUP1 DUP3 DIV PUSH1 0x46 EQ SWAP1 ISZERO OR ISZERO PUSH2 0xAB1 JUMPI PUSH1 0x1E DUP3 MUL SWAP5 DUP3 DUP7 DIV PUSH1 0x1E EQ DUP4 ISZERO OR ISZERO PUSH2 0xAB1 JUMPI PUSH1 0x64 PUSH2 0x3B68 PUSH2 0x3BF3 SWAP8 PUSH1 0x9 SWAP5 PUSH2 0x352A JUMP JUMPDEST DIV DUP1 SWAP5 SSTORE DUP10 PUSH32 0x41E0549644E0A71255B7ED60362E6A3B2A3D5B8B00A6A7CB1B205F14E2528D08 PUSH1 0x40 MLOAD DUP1 PUSH2 0x3BAE DUP9 DUP11 DUP4 PUSH1 0x20 SWAP1 SWAP4 SWAP3 SWAP2 SWAP4 PUSH2 0xFFFF PUSH1 0x40 DUP3 ADD SWAP6 AND DUP2 MSTORE ADD MSTORE JUMP JUMPDEST SUB SWAP1 LOG2 ADD SLOAD PUSH1 0x40 MLOAD SWAP3 DUP4 MSTORE PUSH1 0x20 DUP4 ADD MSTORE PUSH1 0x40 DUP3 ADD MSTORE DUP7 PUSH32 0x70081BB37524D6436E9F431AF67096C6878E6C5DAF03FE827E65B73168DB6398 PUSH1 0x60 PUSH2 0xFFFF DUP6 AND SWAP4 LOG3 PUSH2 0x36C5 JUMP JUMPDEST PUSH2 0x3A6A JUMP JUMPDEST SWAP2 POP POP PUSH2 0x3B2A JUMP JUMPDEST SWAP1 SWAP2 SWAP3 SWAP4 SWAP5 PUSH2 0xFFFF PUSH2 0x3C12 DUP7 DUP5 PUSH2 0x346E JUMP JUMPDEST POP SLOAD PUSH1 0x10 SHR AND DUP1 PUSH8 0xDE0B6B3A7640000 DUP2 MUL DIV PUSH8 0xDE0B6B3A7640000 EQ DUP2 ISZERO OR ISZERO PUSH2 0xAB1 JUMPI PUSH2 0x3C67 DUP16 SWAP2 DUP7 PUSH8 0xDE0B6B3A7640000 PUSH2 0x3C50 SWAP3 MUL PUSH2 0x3537 JUMP JUMPDEST SWAP2 PUSH2 0xFFFF PUSH2 0x3C5E DUP10 DUP8 PUSH2 0x346E JUMP JUMPDEST POP SLOAD AND SWAP1 PUSH2 0x36D8 JUMP JUMPDEST MLOAD SWAP1 PUSH8 0xDE0B6B3A7640000 DUP3 MUL SWAP2 DUP1 DUP4 DIV PUSH8 0xDE0B6B3A7640000 EQ SWAP1 ISZERO OR ISZERO PUSH2 0xAB1 JUMPI PUSH1 0x1 SWAP3 DUP2 PUSH2 0x3C9B DUP16 PUSH2 0x3CB2 SWAP6 PUSH2 0x3537 JUMP JUMPDEST DUP1 DUP3 GT PUSH2 0x3CBC JUMPI POP PUSH2 0x3CAC SWAP2 PUSH2 0x352A JUMP JUMPDEST SWAP8 PUSH2 0x352A JUMP JUMPDEST SWAP5 ADD SWAP3 SWAP2 SWAP1 PUSH2 0x3AEA JUMP JUMPDEST SWAP1 POP PUSH2 0x3CAC SWAP2 PUSH2 0x352A JUMP JUMPDEST SWAP1 SWAP2 SWAP3 PUSH2 0x3CDD PUSH1 0x1 SWAP2 PUSH2 0xFFFF PUSH2 0x397C DUP6 DUP8 PUSH2 0x346E JUMP JUMPDEST SWAP4 SWAP3 SWAP2 ADD PUSH2 0x3ADA JUMP JUMPDEST POP PUSH1 0x7 DUP3 ADD DUP1 SLOAD PUSH1 0x5F DUP2 MUL SWAP1 DUP1 DUP3 DIV PUSH1 0x5F EQ SWAP1 ISZERO OR ISZERO PUSH2 0xAB1 JUMPI PUSH2 0x3BF3 SWAP4 PUSH1 0x64 PUSH1 0x9 SWAP3 DIV DUP1 SWAP4 SSTORE DUP9 PUSH32 0x41E0549644E0A71255B7ED60362E6A3B2A3D5B8B00A6A7CB1B205F14E2528D08 PUSH1 0x40 MLOAD DUP1 PUSH2 0x3D4F DUP8 DUP10 DUP4 PUSH1 0x20 SWAP1 SWAP4 SWAP3 SWAP2 SWAP4 PUSH2 0xFFFF PUSH1 0x40 DUP3 ADD SWAP6 AND DUP2 MSTORE ADD MSTORE JUMP JUMPDEST SUB SWAP1 LOG2 ADD SLOAD PUSH1 0x40 MLOAD SWAP2 DUP3 MSTORE PUSH1 0x20 DUP3 ADD MSTORE PUSH1 0x0 PUSH1 0x40 DUP3 ADD MSTORE DUP7 PUSH32 0x70081BB37524D6436E9F431AF67096C6878E6C5DAF03FE827E65B73168DB6398 PUSH1 0x60 PUSH2 0xFFFF DUP6 AND SWAP4 LOG3 PUSH2 0x36C5 JUMP JUMPDEST PUSH2 0x3BF3 SWAP2 POP PUSH2 0x36C5 JUMP JUMPDEST POP PUSH1 0xFF PUSH1 0x1 DUP4 ADD SLOAD PUSH1 0xA0 SHR AND PUSH1 0x2 DUP2 LT ISZERO PUSH2 0x55F JUMPI PUSH1 0x1 EQ ISZERO PUSH2 0x3AAB JUMP JUMPDEST POP SWAP1 SWAP5 POP SWAP2 SWAP3 SWAP1 POP DUP2 PUSH1 0x40 PUSH2 0x3A26 JUMP JUMPDEST SWAP6 SWAP3 PUSH1 0x0 SWAP9 SWAP5 SWAP2 SWAP9 SWAP8 SWAP6 SWAP3 SWAP8 JUMPDEST PUSH1 0x9 DUP5 ADD SLOAD PUSH2 0xFFFF DUP3 AND LT ISZERO PUSH2 0x3EB8 JUMPI DUP7 PUSH1 0x0 MSTORE PUSH1 0x7 PUSH1 0x20 MSTORE PUSH1 0x40 DUP1 PUSH1 0x0 KECCAK256 PUSH1 0x0 SWAP1 PUSH2 0xFFFF DUP5 AND DUP3 MSTORE PUSH1 0x20 MSTORE KECCAK256 SWAP1 PUSH1 0xFF PUSH1 0x5 DUP4 ADD SLOAD PUSH1 0x10 SHR AND DUP1 PUSH2 0x3E9B JUMPI JUMPDEST PUSH2 0x3E2E JUMPI JUMPDEST PUSH2 0x3E29 SWAP2 POP PUSH2 0x36C5 JUMP JUMPDEST PUSH2 0x3DDB JUMP JUMPDEST PUSH2 0x3E41 PUSH1 0x2 DUP4 ADD SLOAD PUSH1 0x3 DUP5 ADD SLOAD SWAP1 PUSH2 0x352A JUMP JUMPDEST SWAP2 PUSH8 0xDE0B6B3A7640000 PUSH2 0x3E58 PUSH1 0x7 DUP4 ADD SLOAD PUSH2 0x340F JUMP JUMPDEST DIV PUSH2 0x2710 ADD DUP1 PUSH2 0x2710 GT PUSH2 0xAB1 JUMPI PUSH1 0x9 PUSH2 0x3E8A DUP15 PUSH2 0x375E DUP15 PUSH2 0x2710 PUSH2 0x3E83 PUSH2 0x3E94 SWAP8 PUSH2 0x3E29 SWAP12 PUSH2 0x3427 JUMP JUMPDEST DIV SWAP1 PUSH2 0x3427 JUMP JUMPDEST SWAP3 ADD SWAP2 DUP3 SLOAD PUSH2 0x352A JUMP JUMPDEST SWAP1 SSTORE PUSH2 0x3E1F JUMP JUMPDEST POP PUSH1 0xFF PUSH1 0x1 DUP4 ADD SLOAD PUSH1 0xA0 SHR AND PUSH1 0x2 DUP2 LT ISZERO PUSH2 0x55F JUMPI PUSH1 0x1 EQ PUSH2 0x3E1A JUMP JUMPDEST POP SWAP3 SWAP6 POP SWAP3 SWAP7 POP SWAP3 SWAP5 CODESIZE DUP1 PUSH2 0x3A1F JUMP JUMPDEST DUP10 PUSH1 0x0 MSTORE PUSH1 0x7 PUSH1 0x20 MSTORE PUSH1 0x40 DUP1 PUSH1 0x0 KECCAK256 PUSH1 0x0 SWAP1 PUSH2 0xFFFF DUP5 AND DUP3 MSTORE PUSH1 0x20 MSTORE KECCAK256 PUSH1 0xFF PUSH1 0x5 DUP3 ADD SLOAD PUSH1 0x10 SHR AND DUP1 PUSH2 0x3F5E JUMPI JUMPDEST PUSH2 0x3F0A JUMPI JUMPDEST POP PUSH2 0x3F05 SWAP1 PUSH2 0x36C5 JUMP JUMPDEST PUSH2 0x3A0C JUMP JUMPDEST PUSH8 0xDE0B6B3A7640000 PUSH2 0x3F2E PUSH1 0x7 PUSH2 0x3859 PUSH1 0x2 DUP6 SWAP10 SWAP7 SWAP10 ADD SLOAD PUSH1 0x3 DUP7 ADD SLOAD SWAP1 PUSH2 0x352A JUMP JUMPDEST DIV PUSH2 0x2710 ADD SWAP2 DUP3 PUSH2 0x2710 GT PUSH2 0xAB1 JUMPI PUSH2 0x2710 PUSH2 0x3F50 PUSH2 0x3F05 SWAP5 PUSH2 0x3F57 SWAP5 PUSH2 0x3427 JUMP JUMPDEST DIV SWAP1 PUSH2 0x352A JUMP JUMPDEST SWAP4 SWAP1 PUSH2 0x3EFB JUMP JUMPDEST POP PUSH1 0xFF PUSH1 0x1 DUP3 ADD SLOAD PUSH1 0xA0 SHR AND PUSH1 0x2 DUP2 LT ISZERO PUSH2 0x55F JUMPI PUSH1 0x1 EQ PUSH2 0x3EF6 JUMP JUMPDEST SWAP2 SWAP3 SWAP5 PUSH1 0x0 SWAP8 SWAP2 SWAP8 SWAP7 SWAP5 SWAP7 JUMPDEST PUSH1 0x9 DUP9 ADD SLOAD SWAP1 PUSH2 0xFFFF DUP2 AND SWAP2 DUP3 LT ISZERO PUSH2 0x40AE JUMPI PUSH2 0x3FA4 DUP3 DUP10 PUSH2 0x36D8 JUMP JUMPDEST MLOAD ISZERO ISZERO DUP1 PUSH2 0x4085 JUMPI JUMPDEST PUSH2 0x3FC1 JUMPI JUMPDEST PUSH2 0x3FBC SWAP2 POP PUSH2 0x36C5 JUMP JUMPDEST PUSH2 0x3F87 JUMP JUMPDEST PUSH2 0x3FD9 DUP7 PUSH2 0x375E PUSH2 0x3FD2 DUP6 DUP13 PUSH2 0x36D8 JUMP JUMPDEST MLOAD DUP9 PUSH2 0x3427 JUMP JUMPDEST DUP8 PUSH1 0x0 MSTORE PUSH1 0x7 PUSH1 0x20 MSTORE PUSH1 0x9 PUSH1 0x40 DUP1 PUSH1 0x0 KECCAK256 PUSH1 0x0 SWAP1 DUP7 DUP3 MSTORE PUSH1 0x20 MSTORE KECCAK256 ADD PUSH2 0x4000 DUP3 DUP3 SLOAD PUSH2 0x352A JUMP JUMPDEST SWAP1 SSTORE PUSH2 0x400C DUP4 DUP11 PUSH2 0x36D8 JUMP JUMPDEST MLOAD PUSH8 0xDE0B6B3A7640000 DUP2 MUL SWAP1 DUP1 DUP3 DIV PUSH8 0xDE0B6B3A7640000 EQ SWAP1 ISZERO OR ISZERO PUSH2 0xAB1 JUMPI PUSH1 0x6 PUSH1 0x40 PUSH2 0x3FBC SWAP6 PUSH2 0x4043 DUP12 PUSH2 0x407E SWAP6 PUSH2 0x3537 JUMP JUMPDEST DUP13 PUSH1 0x0 MSTORE PUSH1 0x7 PUSH1 0x20 MSTORE PUSH1 0x8 DUP4 DUP1 PUSH1 0x0 KECCAK256 PUSH1 0x0 SWAP1 DUP6 DUP3 MSTORE PUSH1 0x20 MSTORE KECCAK256 ADD SSTORE DUP12 PUSH1 0x0 MSTORE PUSH1 0x7 PUSH1 0x20 MSTORE DUP2 PUSH1 0x0 KECCAK256 PUSH1 0x0 SWAP2 DUP3 MSTORE PUSH1 0x20 MSTORE KECCAK256 ADD SWAP2 DUP3 SLOAD PUSH2 0x352A JUMP JUMPDEST SWAP1 SSTORE PUSH2 0x3FB2 JUMP JUMPDEST POP DUP7 PUSH1 0x0 MSTORE PUSH1 0x7 PUSH1 0x20 MSTORE PUSH1 0xFF PUSH1 0x5 PUSH1 0x40 DUP1 PUSH1 0x0 KECCAK256 PUSH1 0x0 SWAP1 DUP7 DUP3 MSTORE PUSH1 0x20 MSTORE KECCAK256 ADD SLOAD PUSH1 0x10 SHR AND PUSH2 0x3FAD JUMP JUMPDEST POP POP SWAP5 SWAP3 SWAP2 POP SWAP6 SWAP5 SWAP3 SWAP5 CODESIZE PUSH2 0x39EA JUMP JUMPDEST SWAP3 SWAP2 POP POP PUSH1 0x5 NUMBER SWAP2 ADD SSTORE JUMP JUMPDEST SWAP3 POP CODESIZE PUSH2 0x37C3 JUMP JUMPDEST SWAP1 POP PUSH1 0x20 DUP2 RETURNDATASIZE PUSH1 0x20 GT PUSH2 0x40FC JUMPI JUMPDEST DUP2 PUSH2 0x40ED PUSH1 0x20 SWAP4 DUP4 PUSH2 0x302A JUMP JUMPDEST DUP2 ADD SUB SLT PUSH2 0x32A JUMPI MLOAD CODESIZE PUSH2 0x37BA JUMP JUMPDEST RETURNDATASIZE SWAP2 POP PUSH2 0x40E0 JUMP JUMPDEST PUSH1 0x40 MLOAD RETURNDATASIZE PUSH1 0x0 DUP3 RETURNDATACOPY RETURNDATASIZE SWAP1 REVERT JUMPDEST PUSH1 0x40 MLOAD PUSH3 0x461BCD PUSH1 0xE5 SHL DUP2 MSTORE PUSH1 0x20 PUSH1 0x4 DUP3 ADD MSTORE PUSH1 0x12 PUSH1 0x24 DUP3 ADD MSTORE PUSH18 0x4E6F20656D697373696F6E20736861726573 PUSH1 0x70 SHL PUSH1 0x44 DUP3 ADD MSTORE PUSH1 0x64 SWAP1 REVERT JUMPDEST PUSH1 0x40 MLOAD PUSH3 0x461BCD PUSH1 0xE5 SHL DUP2 MSTORE PUSH1 0x20 PUSH1 0x4 DUP3 ADD MSTORE PUSH1 0x8 PUSH1 0x24 DUP3 ADD MSTORE PUSH8 0x4E6F206E6F646573 PUSH1 0xC0 SHL PUSH1 0x44 DUP3 ADD MSTORE PUSH1 0x64 SWAP1 REVERT JUMPDEST PUSH1 0x40 MLOAD PUSH3 0x461BCD PUSH1 0xE5 SHL DUP2 MSTORE PUSH1 0x20 PUSH1 0x4 DUP3 ADD MSTORE PUSH1 0x9 PUSH1 0x24 DUP3 ADD MSTORE PUSH9 0x546F6F206561726C79 PUSH1 0xB8 SHL PUSH1 0x44 DUP3 ADD MSTORE PUSH1 0x64 SWAP1 REVERT JUMPDEST PUSH1 0x0 SLOAD PUSH1 0x1 PUSH1 0x1 PUSH1 0xA0 SHL SUB AND CALLER SUB PUSH2 0x41BF JUMPI JUMP JUMPDEST PUSH4 0x118CDAA7 PUSH1 0xE0 SHL PUSH1 0x0 MSTORE CALLER PUSH1 0x4 MSTORE PUSH1 0x24 PUSH1 0x0 REVERT JUMPDEST PUSH1 0x40 MLOAD PUSH4 0x23B872DD PUSH1 0xE0 SHL PUSH1 0x20 DUP3 ADD MSTORE PUSH1 0x1 PUSH1 0x1 PUSH1 0xA0 SHL SUB SWAP3 DUP4 AND PUSH1 0x24 DUP3 ADD MSTORE SWAP3 SWAP1 SWAP2 AND PUSH1 0x44 DUP4 ADD MSTORE PUSH1 0x64 DUP1 DUP4 ADD SWAP4 SWAP1 SWAP4 MSTORE SWAP2 DUP2 MSTORE PUSH2 0x3084 SWAP2 PUSH2 0x4218 PUSH1 0x84 DUP4 PUSH2 0x302A JUMP JUMPDEST PUSH2 0x42BC JUMP JUMPDEST PUSH1 0x2 PUSH1 0x1 SLOAD EQ PUSH2 0x422E JUMPI PUSH1 0x2 PUSH1 0x1 SSTORE JUMP JUMPDEST PUSH4 0x3EE5AEB5 PUSH1 0xE0 SHL PUSH1 0x0 MSTORE PUSH1 0x4 PUSH1 0x0 REVERT JUMPDEST PUSH1 0x40 MLOAD PUSH4 0xA9059CBB PUSH1 0xE0 SHL PUSH1 0x20 DUP3 ADD MSTORE PUSH1 0x1 PUSH1 0x1 PUSH1 0xA0 SHL SUB SWAP1 SWAP3 AND PUSH1 0x24 DUP4 ADD MSTORE PUSH1 0x44 DUP1 DUP4 ADD SWAP4 SWAP1 SWAP4 MSTORE SWAP2 DUP2 MSTORE PUSH2 0x3084 SWAP2 PUSH2 0x4218 PUSH1 0x64 DUP4 PUSH2 0x302A JUMP JUMPDEST DUP1 ISZERO PUSH2 0x42B6 JUMPI PUSH1 0x1 DUP2 ADD DUP1 DUP3 GT PUSH2 0xAB1 JUMPI PUSH1 0x1 SHR DUP2 JUMPDEST DUP3 DUP3 LT PUSH2 0x429C JUMPI POP POP SWAP1 JUMP JUMPDEST SWAP1 SWAP2 POP PUSH2 0x42AD DUP3 PUSH2 0x1722 DUP2 DUP5 PUSH2 0x3537 JUMP JUMPDEST PUSH1 0x1 SHR SWAP1 PUSH2 0x4290 JUMP JUMPDEST POP PUSH1 0x0 SWAP1 JUMP JUMPDEST SWAP1 PUSH1 0x0 PUSH1 0x20 SWAP2 DUP3 DUP2 MLOAD SWAP2 ADD DUP3 DUP6 GAS CALL ISZERO PUSH2 0x4104 JUMPI PUSH1 0x0 MLOAD RETURNDATASIZE PUSH2 0x430E JUMPI POP PUSH1 0x1 PUSH1 0x1 PUSH1 0xA0 SHL SUB DUP2 AND EXTCODESIZE ISZERO JUMPDEST PUSH2 0x42ED JUMPI POP JUMP JUMPDEST PUSH4 0x5274AFE7 PUSH1 0xE0 SHL PUSH1 0x0 SWAP1 DUP2 MSTORE PUSH1 0x1 PUSH1 0x1 PUSH1 0xA0 SHL SUB SWAP2 SWAP1 SWAP2 AND PUSH1 0x4 MSTORE PUSH1 0x24 SWAP1 REVERT JUMPDEST PUSH1 0x1 EQ ISZERO PUSH2 0x42E6 JUMP INVALID LOG2 PUSH5 0x6970667358 0x22 SLT KECCAK256 0xA7 0xE2 SSTORE 0xEB MSTORE8 0x4B DUP9 MCOPY 0xE ADDRESS PREVRANDAO 0xB1 CREATE 0xDE ADD PC PUSH0 PUSH7 0x220A438F9C5A43 SHL DUP5 DUP6 STOP PUSH29 0x922E64736F6C634300081C003300000000000000000000000000000000 "},"methodIdentifiers":{"TRUST_MULTIPLIER_BASE()":"f6ec03f1","TRUST_MULTIPLIER_MAX()":"ed23dcba","autoSlashInactive(uint256,uint16)":"3a05eaa9","claimEmission(uint256,uint16)":"1caa9070","coldkeyNodeType(uint256,address,uint8)":"43219f03","commitMinDelay()":"cc2d54c4","commitRevealWindow()":"1aefa1b6","commitWeights(uint256,bytes32)":"dfbeffff","createSubnet(string,uint256,uint256,uint256)":"f39e9f4b","delegate(uint256,uint16,uint256)":"f46e1e1f","delegations(address,bytes32)":"b53c39b4","deregisterNode(uint256,uint16)":"9e1611bf","emissionPerBlock()":"c95986a2","fundEmissionPool(uint256)":"13476085","getDelegation(address,uint256,uint16)":"5071b891","getMetagraph(uint256)":"fa613958","getNode(uint256,uint16)":"d2d98509","getSubnet(uint256)":"58ca7504","getSubnetCount()":"3d5316dd","getTrust(uint256,uint16)":"c0843eeb","getUidByHotkey(uint256,address)":"7339e881","getValidatorScore(uint256,uint16)":"c113c311","getWeights(uint256,uint16)":"fffc4bbf","hotkeyToUid(uint256,address)":"2b4b3753","isRegistered(uint256,address)":"b81f6e18","maxWeightAge()":"8272f0b8","nextNetuid()":"14511bf7","nodes(uint256,uint16)":"617078fb","owner()":"8da5cb5b","registerNode(uint256,address,uint8,uint256)":"75e6ee17","renounceOwnership()":"715018a6","revealWeights(uint256,uint16[],uint16[],bytes32)":"842443dc","runEpoch(uint256)":"e485c04c","setCommitMinDelay(uint256)":"1602ab29","setCommitRevealWindow(uint256)":"d19e2ce8","setEmissionPerBlock(uint256)":"710fe5cd","setMaxWeightAge(uint256)":"bddee43c","setSlashPercentage(uint256)":"393ebbf8","setSubnetRegistrationCost(uint256)":"46a655af","setWeights(uint256,uint16,uint16[],uint16[])":"2aaa86aa","setZkmlVerifier(address)":"a4ce91c6","slashNode(uint256,uint16,uint256,string)":"6b54b309","slashPercentage()":"bd58199a","subnetRegistrationCost()":"9e793787","subnets(uint256)":"475726f7","token()":"fc0c546a","totalEmissionShares()":"4a77ac98","transferOwnership(address)":"f2fde38b","undelegate(uint256,uint16,uint256)":"1ba60b70","updateEmissionShare(uint256,uint256)":"8a52cc1c","updateSubnet(uint256,uint256,uint256,uint256,uint256)":"dec74f18","weightCommits(uint256,uint16)":"14d59888","zkmlVerifier()":"3c813394"}}}}}