{
  "_format": "hh-sol-artifact-1",
  "contractName": "ExampleGame",
  "sourceName": "src/templates/ExampleGame.sol",
  "abi": [
    {
      "inputs": [
        {
          "internalType": "address",
          "name": "_aiOracle",
          "type": "address"
        },
        {
          "internalType": "bytes32",
          "name": "_modelHash",
          "type": "bytes32"
        }
      ],
      "stateMutability": "nonpayable",
      "type": "constructor"
    },
    {
      "anonymous": false,
      "inputs": [
        {
          "indexed": true,
          "internalType": "address",
          "name": "player",
          "type": "address"
        },
        {
          "indexed": false,
          "internalType": "uint256",
          "name": "score",
          "type": "uint256"
        },
        {
          "indexed": true,
          "internalType": "bytes32",
          "name": "requestId",
          "type": "bytes32"
        }
      ],
      "name": "GameCompleted",
      "type": "event"
    },
    {
      "anonymous": false,
      "inputs": [
        {
          "indexed": true,
          "internalType": "address",
          "name": "player",
          "type": "address"
        },
        {
          "indexed": true,
          "internalType": "bytes32",
          "name": "requestId",
          "type": "bytes32"
        }
      ],
      "name": "GameFailed",
      "type": "event"
    },
    {
      "anonymous": false,
      "inputs": [
        {
          "indexed": true,
          "internalType": "address",
          "name": "player",
          "type": "address"
        },
        {
          "indexed": true,
          "internalType": "bytes32",
          "name": "requestId",
          "type": "bytes32"
        }
      ],
      "name": "GameRequested",
      "type": "event"
    },
    {
      "inputs": [],
      "name": "aiOracle",
      "outputs": [
        {
          "internalType": "contract AIOracle",
          "name": "",
          "type": "address"
        }
      ],
      "stateMutability": "view",
      "type": "function"
    },
    {
      "inputs": [
        {
          "internalType": "bytes32",
          "name": "requestId",
          "type": "bytes32"
        }
      ],
      "name": "claimResult",
      "outputs": [],
      "stateMutability": "nonpayable",
      "type": "function"
    },
    {
      "inputs": [],
      "name": "gameModelHash",
      "outputs": [
        {
          "internalType": "bytes32",
          "name": "",
          "type": "bytes32"
        }
      ],
      "stateMutability": "view",
      "type": "function"
    },
    {
      "inputs": [
        {
          "internalType": "bytes32",
          "name": "requestId",
          "type": "bytes32"
        }
      ],
      "name": "getGameStatus",
      "outputs": [
        {
          "internalType": "address",
          "name": "player",
          "type": "address"
        },
        {
          "internalType": "bool",
          "name": "completed",
          "type": "bool"
        }
      ],
      "stateMutability": "view",
      "type": "function"
    },
    {
      "inputs": [
        {
          "internalType": "address",
          "name": "player",
          "type": "address"
        }
      ],
      "name": "getScore",
      "outputs": [
        {
          "internalType": "uint256",
          "name": "",
          "type": "uint256"
        }
      ],
      "stateMutability": "view",
      "type": "function"
    },
    {
      "inputs": [
        {
          "internalType": "bytes32",
          "name": "",
          "type": "bytes32"
        }
      ],
      "name": "pendingGames",
      "outputs": [
        {
          "internalType": "address",
          "name": "",
          "type": "address"
        }
      ],
      "stateMutability": "view",
      "type": "function"
    },
    {
      "inputs": [
        {
          "internalType": "bytes",
          "name": "playerMove",
          "type": "bytes"
        }
      ],
      "name": "play",
      "outputs": [
        {
          "internalType": "bytes32",
          "name": "",
          "type": "bytes32"
        }
      ],
      "stateMutability": "payable",
      "type": "function"
    },
    {
      "inputs": [
        {
          "internalType": "address",
          "name": "",
          "type": "address"
        }
      ],
      "name": "scores",
      "outputs": [
        {
          "internalType": "uint256",
          "name": "",
          "type": "uint256"
        }
      ],
      "stateMutability": "view",
      "type": "function"
    },
    {
      "inputs": [],
      "name": "totalGames",
      "outputs": [
        {
          "internalType": "uint256",
          "name": "",
          "type": "uint256"
        }
      ],
      "stateMutability": "view",
      "type": "function"
    },
    {
      "inputs": [
        {
          "internalType": "bytes32",
          "name": "newModelHash",
          "type": "bytes32"
        }
      ],
      "name": "updateModel",
      "outputs": [],
      "stateMutability": "nonpayable",
      "type": "function"
    }
  ],
  "bytecode": "0x608034607857601f6107a838819003918201601f19168301916001600160401b03831184841017607d57808492604094855283398101031260785780516001600160a01b038116919082900360785760200151600080546001600160a01b03191690921790915560015560405161071490816100948239f35b600080fd5b634e487b7160e01b600052604160045260246000fdfe608080604052600436101561001357600080fd5b60003560e01c908163146c638d1461054f57508063226e522714610360578063242cd2ca146103475780632c4e591b1461032957806331b221cd1461030057806376dd110f1461008d578063a11ae76b146102cc578063c386cfe2146102ae578063cf0d56f4146100d05763d47875d01461008d57600080fd5b346100cb5760203660031901126100cb576004356001600160a01b038116908190036100cb5760005260026020526020604060002054604051908152f35b600080fd5b346100cb5760203660031901126100cb576004356000818152600360205260409020546001600160a01b03168015610277573381036102425760008054604051632b7531e160e21b8152600481018590529190829060249082906001600160a01b03165afa801561023657600091600091610211575b50156101d757610155906106ba565b81600052600260205260406000208054918083018093116101c1577fa8746280378f2628365c975fe01ab2d4d260003d0c3a5ab9433f4e787ce280679260209255846000526003825260406000206bffffffffffffffffffffffff60a01b8154169055604051908152a3005b634e487b7160e01b600052601160045260246000fd5b60405162461bcd60e51b815260206004820152601260248201527111d85b59481b9bdd0818dbdb5c1b195d195960721b6044820152606490fd5b905061023091503d806000833e61022881836105db565b810190610636565b84610146565b6040513d6000823e3d90fd5b60405162461bcd60e51b815260206004820152600d60248201526c4e6f7420796f75722067616d6560981b6044820152606490fd5b60405162461bcd60e51b815260206004820152600f60248201526e155b9adb9bdddb881c995c5d595cdd608a1b6044820152606490fd5b346100cb5760003660031901126100cb576020600154604051908152f35b346100cb5760203660031901126100cb576004356000526003602052602060018060a01b0360406000205416604051908152f35b346100cb5760003660031901126100cb576000546040516001600160a01b039091168152602090f35b346100cb5760003660031901126100cb576020600454604051908152f35b346100cb5760203660031901126100cb57600435600155005b60203660031901126100cb5760043567ffffffffffffffff81116100cb57366023820112156100cb57806004013567ffffffffffffffff81116100cb5736602482840101116100cb5766038d7ea4c6800034106105115761045260209161040f60c0604051838194602488840199338b52608060408601528260a086015201848401376000838284010152436060830152426080830152601f801991011681010301601f1981018352826105db565b60018060a01b036000541690608460015460405196879586948593630c4544a760e21b855260048501526060602485015251809281606486015285850190610613565b60006044830152601f01601f1916810103019134905af1908115610236576000916104dc575b50600081815260036020526040902080546001600160a01b031916331790556004549060001982146101c1576001602092016004556040519080337f341c593e0cefc3a29826c9a8e347a3a42699e66aa7e010bc99d34e97b479f481600080a38152f35b906020823d602011610509575b816104f6602093836105db565b8101031261050657505181610478565b80fd5b3d91506104e9565b60405162461bcd60e51b8152602060048201526016602482015275135a5b9a5b5d5b481cdd185ad9481c995c5d5a5c995960521b6044820152606490fd5b346100cb5760203660031901126100cb57600480356000818152600360205260408120548154632b7531e160e21b8652938501929092526001600160a01b0391821692909184916024918391165afa8015610236576040926000916105be575b50825191825215156020820152f35b6105d391503d806000833e61022881836105db565b9050836105af565b90601f8019910116810190811067ffffffffffffffff8211176105fd57604052565b634e487b7160e01b600052604160045260246000fd5b60005b8381106106265750506000910152565b8181015183820152602001610616565b91906040838203126100cb57825167ffffffffffffffff81116100cb5783019080601f830112156100cb5781519167ffffffffffffffff83116105fd576040519161068b601f8501601f1916602001846105db565b838352602084830101116100cb576020926106ab91848085019101610613565b92015180151581036100cb5790565b8051602081106106d75781602091810103126100cb576020015190565b5050600a9056fea2646970667358221220187d308e6034a875df3bb2c4b88e876ecb68eb31e9e852675fd614f6e23002ed64736f6c634300081c0033",
  "linkReferences": {},
  "deployedLinkReferences": {}
}