{
  "_format": "hh-sol-artifact-1",
  "contractName": "MDTVesting",
  "sourceName": "src/MDTVesting.sol",
  "abi": [
    {
      "inputs": [
        {
          "internalType": "address",
          "name": "_token",
          "type": "address"
        }
      ],
      "stateMutability": "nonpayable",
      "type": "constructor"
    },
    {
      "inputs": [
        {
          "internalType": "address",
          "name": "owner",
          "type": "address"
        }
      ],
      "name": "OwnableInvalidOwner",
      "type": "error"
    },
    {
      "inputs": [
        {
          "internalType": "address",
          "name": "account",
          "type": "address"
        }
      ],
      "name": "OwnableUnauthorizedAccount",
      "type": "error"
    },
    {
      "inputs": [],
      "name": "ReentrancyGuardReentrantCall",
      "type": "error"
    },
    {
      "inputs": [
        {
          "internalType": "address",
          "name": "token",
          "type": "address"
        }
      ],
      "name": "SafeERC20FailedOperation",
      "type": "error"
    },
    {
      "anonymous": false,
      "inputs": [
        {
          "indexed": true,
          "internalType": "address",
          "name": "previousOwner",
          "type": "address"
        },
        {
          "indexed": true,
          "internalType": "address",
          "name": "newOwner",
          "type": "address"
        }
      ],
      "name": "OwnershipTransferred",
      "type": "event"
    },
    {
      "anonymous": false,
      "inputs": [
        {
          "indexed": false,
          "internalType": "uint256",
          "name": "timestamp",
          "type": "uint256"
        }
      ],
      "name": "TGESet",
      "type": "event"
    },
    {
      "anonymous": false,
      "inputs": [
        {
          "indexed": true,
          "internalType": "address",
          "name": "beneficiary",
          "type": "address"
        },
        {
          "indexed": false,
          "internalType": "uint256",
          "name": "amount",
          "type": "uint256"
        }
      ],
      "name": "TokensClaimed",
      "type": "event"
    },
    {
      "anonymous": false,
      "inputs": [
        {
          "indexed": true,
          "internalType": "address",
          "name": "beneficiary",
          "type": "address"
        },
        {
          "indexed": false,
          "internalType": "uint256",
          "name": "amount",
          "type": "uint256"
        },
        {
          "indexed": false,
          "internalType": "enum MDTVesting.Category",
          "name": "category",
          "type": "uint8"
        }
      ],
      "name": "VestingCreated",
      "type": "event"
    },
    {
      "anonymous": false,
      "inputs": [
        {
          "indexed": true,
          "internalType": "address",
          "name": "beneficiary",
          "type": "address"
        },
        {
          "indexed": false,
          "internalType": "uint256",
          "name": "index",
          "type": "uint256"
        },
        {
          "indexed": false,
          "internalType": "uint256",
          "name": "remaining",
          "type": "uint256"
        }
      ],
      "name": "VestingRevoked",
      "type": "event"
    },
    {
      "inputs": [],
      "name": "claim",
      "outputs": [],
      "stateMutability": "nonpayable",
      "type": "function"
    },
    {
      "inputs": [
        {
          "internalType": "address",
          "name": "beneficiary",
          "type": "address"
        }
      ],
      "name": "claimable",
      "outputs": [
        {
          "internalType": "uint256",
          "name": "",
          "type": "uint256"
        }
      ],
      "stateMutability": "view",
      "type": "function"
    },
    {
      "inputs": [
        {
          "internalType": "address",
          "name": "beneficiary",
          "type": "address"
        },
        {
          "internalType": "uint256",
          "name": "amount",
          "type": "uint256"
        }
      ],
      "name": "createIDOVesting",
      "outputs": [],
      "stateMutability": "nonpayable",
      "type": "function"
    },
    {
      "inputs": [
        {
          "internalType": "address",
          "name": "beneficiary",
          "type": "address"
        },
        {
          "internalType": "uint256",
          "name": "amount",
          "type": "uint256"
        }
      ],
      "name": "createPrivateSaleVesting",
      "outputs": [],
      "stateMutability": "nonpayable",
      "type": "function"
    },
    {
      "inputs": [
        {
          "internalType": "address",
          "name": "beneficiary",
          "type": "address"
        },
        {
          "internalType": "uint256",
          "name": "amount",
          "type": "uint256"
        }
      ],
      "name": "createTeamVesting",
      "outputs": [],
      "stateMutability": "nonpayable",
      "type": "function"
    },
    {
      "inputs": [],
      "name": "emergencyWithdraw",
      "outputs": [],
      "stateMutability": "nonpayable",
      "type": "function"
    },
    {
      "inputs": [
        {
          "internalType": "address",
          "name": "beneficiary",
          "type": "address"
        }
      ],
      "name": "getVestingInfo",
      "outputs": [
        {
          "internalType": "uint256",
          "name": "scheduleCount",
          "type": "uint256"
        },
        {
          "internalType": "uint256",
          "name": "totalVested",
          "type": "uint256"
        },
        {
          "internalType": "uint256",
          "name": "totalClaimable",
          "type": "uint256"
        },
        {
          "internalType": "uint256",
          "name": "totalClaimed_",
          "type": "uint256"
        }
      ],
      "stateMutability": "view",
      "type": "function"
    },
    {
      "inputs": [],
      "name": "owner",
      "outputs": [
        {
          "internalType": "address",
          "name": "",
          "type": "address"
        }
      ],
      "stateMutability": "view",
      "type": "function"
    },
    {
      "inputs": [],
      "name": "renounceOwnership",
      "outputs": [],
      "stateMutability": "nonpayable",
      "type": "function"
    },
    {
      "inputs": [
        {
          "internalType": "address",
          "name": "beneficiary",
          "type": "address"
        },
        {
          "internalType": "uint256",
          "name": "index",
          "type": "uint256"
        }
      ],
      "name": "revoke",
      "outputs": [],
      "stateMutability": "nonpayable",
      "type": "function"
    },
    {
      "inputs": [
        {
          "internalType": "uint256",
          "name": "_timestamp",
          "type": "uint256"
        }
      ],
      "name": "setTGE",
      "outputs": [],
      "stateMutability": "nonpayable",
      "type": "function"
    },
    {
      "inputs": [],
      "name": "tgeTimestamp",
      "outputs": [
        {
          "internalType": "uint256",
          "name": "",
          "type": "uint256"
        }
      ],
      "stateMutability": "view",
      "type": "function"
    },
    {
      "inputs": [],
      "name": "token",
      "outputs": [
        {
          "internalType": "contract IERC20",
          "name": "",
          "type": "address"
        }
      ],
      "stateMutability": "view",
      "type": "function"
    },
    {
      "inputs": [],
      "name": "totalAllocated",
      "outputs": [
        {
          "internalType": "uint256",
          "name": "",
          "type": "uint256"
        }
      ],
      "stateMutability": "view",
      "type": "function"
    },
    {
      "inputs": [],
      "name": "totalClaimed",
      "outputs": [
        {
          "internalType": "uint256",
          "name": "",
          "type": "uint256"
        }
      ],
      "stateMutability": "view",
      "type": "function"
    },
    {
      "inputs": [
        {
          "internalType": "address",
          "name": "newOwner",
          "type": "address"
        }
      ],
      "name": "transferOwnership",
      "outputs": [],
      "stateMutability": "nonpayable",
      "type": "function"
    },
    {
      "inputs": [
        {
          "internalType": "address",
          "name": "beneficiary",
          "type": "address"
        },
        {
          "internalType": "uint256",
          "name": "index",
          "type": "uint256"
        }
      ],
      "name": "vestedAmount",
      "outputs": [
        {
          "internalType": "uint256",
          "name": "",
          "type": "uint256"
        }
      ],
      "stateMutability": "view",
      "type": "function"
    },
    {
      "inputs": [
        {
          "internalType": "address",
          "name": "",
          "type": "address"
        },
        {
          "internalType": "uint256",
          "name": "",
          "type": "uint256"
        }
      ],
      "name": "vestingSchedules",
      "outputs": [
        {
          "internalType": "uint256",
          "name": "totalAmount",
          "type": "uint256"
        },
        {
          "internalType": "uint256",
          "name": "claimedAmount",
          "type": "uint256"
        },
        {
          "internalType": "uint256",
          "name": "startTime",
          "type": "uint256"
        },
        {
          "internalType": "uint256",
          "name": "cliffDuration",
          "type": "uint256"
        },
        {
          "internalType": "uint256",
          "name": "vestingDuration",
          "type": "uint256"
        },
        {
          "internalType": "uint8",
          "name": "tgePercent",
          "type": "uint8"
        },
        {
          "internalType": "bool",
          "name": "revocable",
          "type": "bool"
        },
        {
          "internalType": "bool",
          "name": "revoked",
          "type": "bool"
        }
      ],
      "stateMutability": "view",
      "type": "function"
    }
  ],
  "bytecode": "0x60a03461013257601f61150a38819003918201601f19168301916001600160401b038311848410176101375780849260209460405283398101031261013257516001600160a01b0381169081900361013257331561011c5760008054336001600160a01b03198216811783556040519290916001600160a01b0316907f8be0079c531659141344cd1fd0a4f28419497f9722a3daafe3b4186f6b6457e09080a36001805581156100da57506080526040516113bc908161014e82396080518181816101c70152818161044f0152818161085c0152610eea0152f35b62461bcd60e51b815260206004820152601560248201527f496e76616c696420746f6b656e206164647265737300000000000000000000006044820152606490fd5b631e4fbdf760e01b600052600060045260246000fd5b600080fd5b634e487b7160e01b600052604160045260246000fdfe6080604052600436101561001257600080fd5b60003560e01c806317cf5391146110f2578063402914f51461105057806345626bd614610fa757806345f7f24914610f895780634e71d92d14610e21578063715018a614610dc857806388d9e6f414610bca5780638da5cb5b14610ba1578063a4317ef414610b83578063ce5b45c314610984578063d54ad2a114610966578063db2e21bc1461082e578063dbf403af14610519578063eac449d914610355578063f2fde38b146102cc578063fb897ce4146101f6578063fc0c546a146101b15763ff1a318d146100e257600080fd5b346101ac5760203660031901126101ac576004356100fe61135d565b60025461017557801561013c576020817f9f5b1d2626fe1a57b989b4566912279df2387b8a481a7297f0a11373c230073c92600255604051908152a1005b60405162461bcd60e51b81526020600482015260116024820152700496e76616c69642074696d657374616d7607c1b6044820152606490fd5b60405162461bcd60e51b815260206004820152600f60248201526e1511d148185b1c9958591e481cd95d608a1b6044820152606490fd5b600080fd5b346101ac5760003660031901126101ac576040517f00000000000000000000000000000000000000000000000000000000000000006001600160a01b03168152602090f35b346101ac5760203660031901126101ac5761020f611121565b6001600160a01b038116600081815260036020526040812054909290918391829190825b8581106102585750505092608093604051938452602084015260408301526060820152f35b82600052600360205261026f816040600020611137565b5060ff600582015460101c161561028a575b50600101610233565b936102c5906102bf8397996102b960016102af6102a882988a6111ac565b809661119f565b9901548094611169565b9061119f565b9861119f565b9490610281565b346101ac5760203660031901126101ac576102e5611121565b6102ed61135d565b6001600160a01b0316801561033f57600080546001600160a01b03198116831782556001600160a01b0316907f8be0079c531659141344cd1fd0a4f28419497f9722a3daafe3b4186f6b6457e09080a3005b631e4fbdf760e01b600052600060045260246000fd5b346101ac5760403660031901126101ac5761036e611121565b60243561037961135d565b6001600160a01b0382166000818152600360205260409020549092908210156104e4578260005260036020526103b3826040600020611137565b50916005830180549060ff8260081c16156104af5760ff8260101c16610478576201000061040f7febe4c59724de32494ac2dc26d066e582e9737a6abe9f796bfb8a43f9fde516f796610408866040986111ac565b9054611169565b9262ff0000191617905561042581600454611169565b6004558061043b575b82519182526020820152a2005b6000546104739082906001600160a01b03167f00000000000000000000000000000000000000000000000000000000000000006112cc565b61042e565b60405162461bcd60e51b815260206004820152600f60248201526e105b1c9958591e481c995d9bdad959608a1b6044820152606490fd5b60405162461bcd60e51b815260206004820152600d60248201526c4e6f74207265766f6361626c6560981b6044820152606490fd5b60405162461bcd60e51b815260206004820152600d60248201526c092dcecc2d8d2c840d2dcc8caf609b1b6044820152606490fd5b346101ac5760403660031901126101ac57610532611121565b60243561053d61135d565b6001600160a01b0390911690600082156107f35781156107b957600254801561078657838252600360205260408220805490835b8281106106b85750505083825260036020526040822060405161059381611277565b84815260208101908482526040810193845260608101858152608082019062ed4e00825260a08301956019875260c084019488865260e0850196898852805490600160401b8210156106a457906105ef91600182018155611137565b959095610690575185555160018501555160028401555160038301555160048201559251600590930180549151925162ffffff1990921660ff949094169390931791151560081b61ff00169190911790151560101b62ff0000161790557ff8b9db65a8f6306efa84d087b9e9b6d62134e17921af16f14150254acc216b439160409161067d8260045461119f565b60045582519182525060026020820152a2005b634e487b7160e01b8a5260048a905260248afd5b634e487b7160e01b8b52604160045260248bfd5b60ff60056106c68385611137565b50015460101c161580610770575b80610756575b8061073b575b6106ec57600101610571565b60405162461bcd60e51b815260206004820152602160248201527f4475706c69636174652076657374696e67207363686564756c652065786973746044820152607360f81b6064820152608490fd5b50601960ff600561074c8486611137565b50015416146106e0565b5062ed4e0060046107678385611137565b500154146106da565b50600361077d8284611137565b500154156106d4565b60405162461bcd60e51b815260206004820152600b60248201526a1511d1481b9bdd081cd95d60aa1b6044820152606490fd5b60405162461bcd60e51b81526020600482015260126024820152710416d6f756e74206d757374206265203e20360741b6044820152606490fd5b60405162461bcd60e51b8152602060048201526013602482015272496e76616c69642062656e656669636961727960681b6044820152606490fd5b346101ac5760003660031901126101ac5761084761135d565b6040516370a0823160e01b81523060048201527f00000000000000000000000000000000000000000000000000000000000000006020826024816001600160a01b0385165afa91821561095a57600092610926575b506004546005548082111561091c576108b491611169565b915b828111156108df576108dd926108cb91611169565b9060018060a01b0360005416906112cc565b005b60405162461bcd60e51b81526020600482015260156024820152744e6f20756e636f6d6d697474656420746f6b656e7360581b6044820152606490fd5b50506000916108b6565b9091506020813d602011610952575b81610942602093836112aa565b810103126101ac5751908261089c565b3d9150610935565b6040513d6000823e3d90fd5b346101ac5760003660031901126101ac576020600554604051908152f35b346101ac5760403660031901126101ac5761099d611121565b6024356109a861135d565b6001600160a01b0390911690600082156107f35781156107b957600254801561078657838252600360205260408220805490835b828110610b00575050508382526003602052604082206040516109fe81611277565b848152602081019084825260408101938452606081016301e1338081526080820190630784ce00825260a083019587875260c08401946001865260e0850196898852805490600160401b8210156106a45790610a5f91600182018155611137565b959095610690575185555160018501555160028401555160038301555160048201559251600590930180549151925162ffffff1990921660ff949094169390931791151560081b61ff00169190911790151560101b62ff0000161790557ff8b9db65a8f6306efa84d087b9e9b6d62134e17921af16f14150254acc216b4391604091610aed8260045461119f565b60045582519182525060006020820152a2005b60ff6005610b0e8385611137565b50015460101c161580610b68575b80610b4d575b80610b34575b6106ec576001016109dc565b5060ff6005610b438385611137565b5001541615610b28565b50630784ce006004610b5f8385611137565b50015414610b22565b506301e133806003610b7a8385611137565b50015414610b1c565b346101ac5760003660031901126101ac576020600254604051908152f35b346101ac5760003660031901126101ac576000546040516001600160a01b039091168152602090f35b346101ac5760403660031901126101ac57610be3611121565b602435610bee61135d565b6001600160a01b0390911690600082156107f35781156107b957600254801561078657838252600360205260408220805490835b828110610d4557505050838252600360205260408220604051610c4481611277565b848152602081019084825260408101938452606081016301e13380815260808201906303c26700825260a083019587875260c084019488865260e0850196898852805490600160401b8210156106a45790610ca491600182018155611137565b959095610690575185555160018501555160028401555160038301555160048201559251600590930180549151925162ffffff1990921660ff949094169390931791151560081b61ff00169190911790151560101b62ff0000161790557ff8b9db65a8f6306efa84d087b9e9b6d62134e17921af16f14150254acc216b4391604091610d328260045461119f565b60045582519182525060016020820152a2005b60ff6005610d538385611137565b50015460101c161580610dad575b80610d92575b80610d79575b6106ec57600101610c22565b5060ff6005610d888385611137565b5001541615610d6d565b506303c267006004610da48385611137565b50015414610d67565b506301e133806003610dbf8385611137565b50015414610d61565b346101ac5760003660031901126101ac57610de161135d565b600080546001600160a01b0319811682556001600160a01b03167f8be0079c531659141344cd1fd0a4f28419497f9722a3daafe3b4186f6b6457e08280a3005b346101ac5760003660031901126101ac57600260015414610f785760026001556000805b336000526003602052604060002054811015610ecd57336000526003602052610e72816040600020611137565b5060ff600582015460101c1615610e8d575b50600101610e45565b6001610e9983336111ac565b910190610ea7825482611169565b9182610eb5575b5050610e84565b559091600191610ec49161119f565b91908380610eae565b508015610f4057610ee08160055461119f565b600555610f0e81337f00000000000000000000000000000000000000000000000000000000000000006112cc565b6040519081527f896e034966eaaf1adc54acc0f257056febbd300c9e47182cf761982cf1f5e43060203392a260018055005b60405162461bcd60e51b815260206004820152601060248201526f4e6f7468696e6720746f20636c61696d60801b6044820152606490fd5b633ee5aeb560e01b60005260046000fd5b346101ac5760003660031901126101ac576020600454604051908152f35b346101ac5760403660031901126101ac57610fc0611121565b6001600160a01b03166000908152600360205260409020805460243591908210156101ac5761010091610ff291611137565b5060ff81549160018101549060028101546003820154906005600484015493015493604051968752602087015260408601526060850152608084015281811660a0840152818160081c16151560c084015260101c16151560e0820152f35b346101ac5760203660031901126101ac57611069611121565b6000906001600160a01b03811690825b8260005260036020526040600020548110156110e7578260005260036020526110a6816040600020611137565b5060ff600582015460101c16156110c1575b50600101611079565b81946102b96110e09260016110d78196886111ac565b91015490611169565b93906110b8565b602084604051908152f35b346101ac5760403660031901126101ac576020611119611110611121565b602435906111ac565b604051908152f35b600435906001600160a01b03821682036101ac57565b8054821015611153576000526006602060002091020190600090565b634e487b7160e01b600052603260045260246000fd5b9190820391821161117657565b634e487b7160e01b600052601160045260246000fd5b8181029291811591840414171561117657565b9190820180921161117657565b6001600160a01b031660009081526003602052604090206111cd9190611137565b50600581015460ff8160101c1661126f576002820154804210611267576111f49042611169565b90606461120660ff855493168361118c565b04916112128383611169565b9060038501549081811061125e5760049161122c91611169565b940154918215611256578285101561125657506112539361124c9161118c565b049061119f565b90565b935050505090565b50505050905090565b505050600090565b506001015490565b610100810190811067ffffffffffffffff82111761129457604052565b634e487b7160e01b600052604160045260246000fd5b90601f8019910116810190811067ffffffffffffffff82111761129457604052565b60405163a9059cbb60e01b60208281019182526001600160a01b039094166024830152604480830195909552938152909260009161130b6064826112aa565b519082855af11561095a576000513d61135457506001600160a01b0381163b155b6113335750565b635274afe760e01b60009081526001600160a01b0391909116600452602490fd5b6001141561132c565b6000546001600160a01b0316330361137157565b63118cdaa760e01b6000523360045260246000fdfea2646970667358221220f1d0a60bc052ab8e4a2ecafffa9374955432fcdb8ccb8b205df1007a2af17cec64736f6c634300081c0033",
  "linkReferences": {},
  "deployedLinkReferences": {}
}