{
  "_format": "hh-sol-artifact-1",
  "contractName": "AIOracle",
  "sourceName": "src/templates/AIOracle.sol",
  "abi": [
    {
      "inputs": [],
      "stateMutability": "nonpayable",
      "type": "constructor"
    },
    {
      "inputs": [
        {
          "internalType": "address",
          "name": "owner",
          "type": "address"
        }
      ],
      "name": "OwnableInvalidOwner",
      "type": "error"
    },
    {
      "inputs": [
        {
          "internalType": "address",
          "name": "account",
          "type": "address"
        }
      ],
      "name": "OwnableUnauthorizedAccount",
      "type": "error"
    },
    {
      "inputs": [],
      "name": "ReentrancyGuardReentrantCall",
      "type": "error"
    },
    {
      "anonymous": false,
      "inputs": [
        {
          "indexed": true,
          "internalType": "bytes32",
          "name": "requestId",
          "type": "bytes32"
        }
      ],
      "name": "AIRequestCancelled",
      "type": "event"
    },
    {
      "anonymous": false,
      "inputs": [
        {
          "indexed": true,
          "internalType": "bytes32",
          "name": "requestId",
          "type": "bytes32"
        },
        {
          "indexed": true,
          "internalType": "address",
          "name": "requester",
          "type": "address"
        },
        {
          "indexed": false,
          "internalType": "bytes32",
          "name": "modelHash",
          "type": "bytes32"
        },
        {
          "indexed": false,
          "internalType": "uint256",
          "name": "reward",
          "type": "uint256"
        }
      ],
      "name": "AIRequestCreated",
      "type": "event"
    },
    {
      "anonymous": false,
      "inputs": [
        {
          "indexed": true,
          "internalType": "bytes32",
          "name": "requestId",
          "type": "bytes32"
        }
      ],
      "name": "AIRequestExpired",
      "type": "event"
    },
    {
      "anonymous": false,
      "inputs": [
        {
          "indexed": true,
          "internalType": "bytes32",
          "name": "requestId",
          "type": "bytes32"
        },
        {
          "indexed": true,
          "internalType": "address",
          "name": "fulfiller",
          "type": "address"
        },
        {
          "indexed": false,
          "internalType": "bytes32",
          "name": "proofHash",
          "type": "bytes32"
        }
      ],
      "name": "AIRequestFulfilled",
      "type": "event"
    },
    {
      "anonymous": false,
      "inputs": [
        {
          "indexed": true,
          "internalType": "bytes32",
          "name": "modelHash",
          "type": "bytes32"
        }
      ],
      "name": "ModelApproved",
      "type": "event"
    },
    {
      "anonymous": false,
      "inputs": [
        {
          "indexed": true,
          "internalType": "bytes32",
          "name": "modelHash",
          "type": "bytes32"
        }
      ],
      "name": "ModelRevoked",
      "type": "event"
    },
    {
      "anonymous": false,
      "inputs": [
        {
          "indexed": true,
          "internalType": "address",
          "name": "previousOwner",
          "type": "address"
        },
        {
          "indexed": true,
          "internalType": "address",
          "name": "newOwner",
          "type": "address"
        }
      ],
      "name": "OwnershipTransferred",
      "type": "event"
    },
    {
      "inputs": [],
      "name": "accumulatedFees",
      "outputs": [
        {
          "internalType": "uint256",
          "name": "",
          "type": "uint256"
        }
      ],
      "stateMutability": "view",
      "type": "function"
    },
    {
      "inputs": [
        {
          "internalType": "bytes32",
          "name": "modelHash",
          "type": "bytes32"
        }
      ],
      "name": "approveModel",
      "outputs": [],
      "stateMutability": "nonpayable",
      "type": "function"
    },
    {
      "inputs": [
        {
          "internalType": "bytes32",
          "name": "",
          "type": "bytes32"
        }
      ],
      "name": "approvedModels",
      "outputs": [
        {
          "internalType": "bool",
          "name": "",
          "type": "bool"
        }
      ],
      "stateMutability": "view",
      "type": "function"
    },
    {
      "inputs": [
        {
          "internalType": "bytes32",
          "name": "requestId",
          "type": "bytes32"
        }
      ],
      "name": "cancelRequest",
      "outputs": [],
      "stateMutability": "nonpayable",
      "type": "function"
    },
    {
      "inputs": [],
      "name": "defaultTimeout",
      "outputs": [
        {
          "internalType": "uint256",
          "name": "",
          "type": "uint256"
        }
      ],
      "stateMutability": "view",
      "type": "function"
    },
    {
      "inputs": [
        {
          "internalType": "bytes32",
          "name": "requestId",
          "type": "bytes32"
        },
        {
          "internalType": "bytes",
          "name": "result",
          "type": "bytes"
        },
        {
          "internalType": "bytes32",
          "name": "proofHash",
          "type": "bytes32"
        }
      ],
      "name": "fulfillRequest",
      "outputs": [],
      "stateMutability": "nonpayable",
      "type": "function"
    },
    {
      "inputs": [
        {
          "internalType": "bytes32",
          "name": "requestId",
          "type": "bytes32"
        }
      ],
      "name": "getRequest",
      "outputs": [
        {
          "components": [
            {
              "internalType": "address",
              "name": "requester",
              "type": "address"
            },
            {
              "internalType": "bytes32",
              "name": "modelHash",
              "type": "bytes32"
            },
            {
              "internalType": "bytes",
              "name": "inputData",
              "type": "bytes"
            },
            {
              "internalType": "uint256",
              "name": "reward",
              "type": "uint256"
            },
            {
              "internalType": "uint256",
              "name": "createdAt",
              "type": "uint256"
            },
            {
              "internalType": "uint256",
              "name": "deadline",
              "type": "uint256"
            },
            {
              "internalType": "enum AIOracle.RequestStatus",
              "name": "status",
              "type": "uint8"
            },
            {
              "internalType": "bytes",
              "name": "result",
              "type": "bytes"
            },
            {
              "internalType": "address",
              "name": "fulfiller",
              "type": "address"
            },
            {
              "internalType": "bytes32",
              "name": "proofHash",
              "type": "bytes32"
            }
          ],
          "internalType": "struct AIOracle.AIRequest",
          "name": "",
          "type": "tuple"
        }
      ],
      "stateMutability": "view",
      "type": "function"
    },
    {
      "inputs": [
        {
          "internalType": "bytes32",
          "name": "requestId",
          "type": "bytes32"
        }
      ],
      "name": "getResult",
      "outputs": [
        {
          "internalType": "bytes",
          "name": "result",
          "type": "bytes"
        },
        {
          "internalType": "bool",
          "name": "completed",
          "type": "bool"
        }
      ],
      "stateMutability": "view",
      "type": "function"
    },
    {
      "inputs": [
        {
          "internalType": "address",
          "name": "user",
          "type": "address"
        }
      ],
      "name": "getUserRequests",
      "outputs": [
        {
          "internalType": "bytes32[]",
          "name": "",
          "type": "bytes32[]"
        }
      ],
      "stateMutability": "view",
      "type": "function"
    },
    {
      "inputs": [
        {
          "internalType": "bytes32",
          "name": "modelHash",
          "type": "bytes32"
        }
      ],
      "name": "isModelApproved",
      "outputs": [
        {
          "internalType": "bool",
          "name": "",
          "type": "bool"
        }
      ],
      "stateMutability": "view",
      "type": "function"
    },
    {
      "inputs": [
        {
          "internalType": "bytes32",
          "name": "requestId",
          "type": "bytes32"
        }
      ],
      "name": "markExpired",
      "outputs": [],
      "stateMutability": "nonpayable",
      "type": "function"
    },
    {
      "inputs": [],
      "name": "minFulfillerStake",
      "outputs": [
        {
          "internalType": "uint256",
          "name": "",
          "type": "uint256"
        }
      ],
      "stateMutability": "view",
      "type": "function"
    },
    {
      "inputs": [],
      "name": "owner",
      "outputs": [
        {
          "internalType": "address",
          "name": "",
          "type": "address"
        }
      ],
      "stateMutability": "view",
      "type": "function"
    },
    {
      "inputs": [],
      "name": "protocolFeeBps",
      "outputs": [
        {
          "internalType": "uint256",
          "name": "",
          "type": "uint256"
        }
      ],
      "stateMutability": "view",
      "type": "function"
    },
    {
      "inputs": [
        {
          "internalType": "address",
          "name": "fulfiller",
          "type": "address"
        }
      ],
      "name": "registerFulfiller",
      "outputs": [],
      "stateMutability": "nonpayable",
      "type": "function"
    },
    {
      "inputs": [
        {
          "internalType": "address",
          "name": "",
          "type": "address"
        }
      ],
      "name": "registeredFulfillers",
      "outputs": [
        {
          "internalType": "bool",
          "name": "",
          "type": "bool"
        }
      ],
      "stateMutability": "view",
      "type": "function"
    },
    {
      "inputs": [],
      "name": "renounceOwnership",
      "outputs": [],
      "stateMutability": "nonpayable",
      "type": "function"
    },
    {
      "inputs": [
        {
          "internalType": "bytes32",
          "name": "modelHash",
          "type": "bytes32"
        },
        {
          "internalType": "bytes",
          "name": "inputData",
          "type": "bytes"
        },
        {
          "internalType": "uint256",
          "name": "timeout",
          "type": "uint256"
        }
      ],
      "name": "requestAI",
      "outputs": [
        {
          "internalType": "bytes32",
          "name": "",
          "type": "bytes32"
        }
      ],
      "stateMutability": "payable",
      "type": "function"
    },
    {
      "inputs": [],
      "name": "requestCount",
      "outputs": [
        {
          "internalType": "uint256",
          "name": "",
          "type": "uint256"
        }
      ],
      "stateMutability": "view",
      "type": "function"
    },
    {
      "inputs": [
        {
          "internalType": "bytes32",
          "name": "",
          "type": "bytes32"
        }
      ],
      "name": "requests",
      "outputs": [
        {
          "internalType": "address",
          "name": "requester",
          "type": "address"
        },
        {
          "internalType": "bytes32",
          "name": "modelHash",
          "type": "bytes32"
        },
        {
          "internalType": "bytes",
          "name": "inputData",
          "type": "bytes"
        },
        {
          "internalType": "uint256",
          "name": "reward",
          "type": "uint256"
        },
        {
          "internalType": "uint256",
          "name": "createdAt",
          "type": "uint256"
        },
        {
          "internalType": "uint256",
          "name": "deadline",
          "type": "uint256"
        },
        {
          "internalType": "enum AIOracle.RequestStatus",
          "name": "status",
          "type": "uint8"
        },
        {
          "internalType": "bytes",
          "name": "result",
          "type": "bytes"
        },
        {
          "internalType": "address",
          "name": "fulfiller",
          "type": "address"
        },
        {
          "internalType": "bytes32",
          "name": "proofHash",
          "type": "bytes32"
        }
      ],
      "stateMutability": "view",
      "type": "function"
    },
    {
      "inputs": [
        {
          "internalType": "address",
          "name": "fulfiller",
          "type": "address"
        }
      ],
      "name": "revokeFulfiller",
      "outputs": [],
      "stateMutability": "nonpayable",
      "type": "function"
    },
    {
      "inputs": [
        {
          "internalType": "bytes32",
          "name": "modelHash",
          "type": "bytes32"
        }
      ],
      "name": "revokeModel",
      "outputs": [],
      "stateMutability": "nonpayable",
      "type": "function"
    },
    {
      "inputs": [
        {
          "internalType": "uint256",
          "name": "_timeout",
          "type": "uint256"
        }
      ],
      "name": "setDefaultTimeout",
      "outputs": [],
      "stateMutability": "nonpayable",
      "type": "function"
    },
    {
      "inputs": [
        {
          "internalType": "uint256",
          "name": "_feeBps",
          "type": "uint256"
        }
      ],
      "name": "setProtocolFee",
      "outputs": [],
      "stateMutability": "nonpayable",
      "type": "function"
    },
    {
      "inputs": [
        {
          "internalType": "address",
          "name": "_verifier",
          "type": "address"
        }
      ],
      "name": "setZkMLVerifier",
      "outputs": [],
      "stateMutability": "nonpayable",
      "type": "function"
    },
    {
      "inputs": [
        {
          "internalType": "address",
          "name": "newOwner",
          "type": "address"
        }
      ],
      "name": "transferOwnership",
      "outputs": [],
      "stateMutability": "nonpayable",
      "type": "function"
    },
    {
      "inputs": [
        {
          "internalType": "address",
          "name": "",
          "type": "address"
        },
        {
          "internalType": "uint256",
          "name": "",
          "type": "uint256"
        }
      ],
      "name": "userRequests",
      "outputs": [
        {
          "internalType": "bytes32",
          "name": "",
          "type": "bytes32"
        }
      ],
      "stateMutability": "view",
      "type": "function"
    },
    {
      "inputs": [],
      "name": "withdrawFees",
      "outputs": [],
      "stateMutability": "nonpayable",
      "type": "function"
    },
    {
      "inputs": [],
      "name": "zkmlVerifier",
      "outputs": [
        {
          "internalType": "address",
          "name": "",
          "type": "address"
        }
      ],
      "stateMutability": "view",
      "type": "function"
    }
  ],
  "bytecode": "0x608080604052346083573315606d5760008054336001600160a01b0319821681178355916001600160a01b03909116907f8be0079c531659141344cd1fd0a4f28419497f9722a3daafe3b4186f6b6457e09080a3600180556064600755606460085561189790816100898239f35b631e4fbdf760e01b600052600060045260246000fd5b600080fdfe6080604052600436101561001257600080fd5b60003560e01c8063066655ef1461155d57806309f3f5661461153f57806321c39b3614611521578063263cb6b6146114c85780632b9b4ada146114895780632c6c5866146114155780633115129c14610ebe57806335659fb814610ea05780633c81339414610e77578063476343ee14610e2f5780634b7716e314610dd35780634b9f24d8146103a65780635012554614610ceb578063587f5ed714610ccd5780635badbe4c14610caf5780635fc76a0b14610c6d578063715018a614610c14578063717909b914610bbb578063787dce3d14610b5d57806382ae0f971461072957806387e0aeb2146106385780638da5cb5b1461060f5780639d86698514610539578063add4c784146104d6578063b337cf741461041c578063d8be38b6146103d7578063da185c92146103a6578063f2fde38b1461031d5763fb1e61ca1461015b57600080fd5b3461031857602036600319011261031857600061012060405161017d8161164c565b828152826020820152606060408201528260608201528260808201528260a08201528260c0820152606060e0820152826101008201520152600435600052600260205260406000206040516101d18161164c565b81546001600160a01b031681526001820154602082019081526101f66002840161168b565b9060408301918252600384015491606084019283526004850154926080850193845260058601549560a0860196875260ff6006820154169260c0870160048510156103025760209888976102b56102d3946102e6988552600961025b6007890161168b565b9760e08d0198895261010060018060a01b036008830154169d019c8d520154996101208d019a8b526040518e819f9e829f835260018060a01b039051169101525160408d01525161014060608d01526101608c019061172f565b955160808b01525160a08a01525160c08901525160e0880190611770565b51858203601f190161010087015261172f565b91516001600160a01b0316610120840152516101408301520390f35b634e487b7160e01b600052602160045260246000fd5b600080fd5b34610318576020366003190112610318576103366115a0565b61033e611816565b6001600160a01b0316801561039057600080546001600160a01b03198116831782556001600160a01b0316907f8be0079c531659141344cd1fd0a4f28419497f9722a3daafe3b4186f6b6457e09080a3005b631e4fbdf760e01b600052600060045260246000fd5b34610318576020366003190112610318576004356000526004602052602060ff604060002054166040519015158152f35b34610318576020366003190112610318576103f06115a0565b6103f8611816565b6001600160a01b03166000908152600660205260409020805460ff19166001179055005b34610318576020366003190112610318576001600160a01b0361043d6115a0565b16600052600360205260406000206040518060208354918281520190819360005260206000209060005b8181106104c0575050508161047d910382611669565b6040519182916020830190602084525180915260408301919060005b8181106104a7575050500390f35b8251845285945060209384019390920191600101610499565b8254845260209093019260019283019201610467565b34610318576020366003190112610318576004356000526002602052604060002060ff600682015416600481101561030257610517600761052e930161168b565b90600160405193849360408552604085019061172f565b911460208301520390f35b34610318576020366003190112610318576004356000526002602052604060002060018060a01b038154166001820154916105766002820161168b565b6105fe600383015460048401546105f1600586015460ff600688015416906105a06007890161168b565b936105d7600960018060a01b0360088c0154169a0154986040519c8d9c8d5260208d015261014060408d01526101408c019061172f565b9560608b015260808a015260a089015260c0880190611770565b85820360e087015261172f565b916101008401526101208301520390f35b34610318576000366003190112610318576000546040516001600160a01b039091168152602090f35b346103185760203660031901126103185760043580600052600260205260406000206006810160ff81541660048110156103025761067690156117dc565b60058201544311156106f257805460ff191660021790558054600390910154600091829182918291906001600160a01b03168282156106e9575bf1156106dd577f6fe0249982ec39ff41cbe0301e6c114eca4ebb1720320066b62d957f1163cbaa600080a2005b6040513d6000823e3d90fd5b506108fc6106b0565b60405162461bcd60e51b815260206004820152600f60248201526e139bdd08195e1c1a5c9959081e595d608a1b6044820152606490fd5b346103185760603660031901126103185760043560243567ffffffffffffffff81116103185761075d9036906004016115e4565b604435929161076a61183f565b8260005260026020526040600020916006830160ff81541660048110156103025761079590156117dc565b60058401544311610b26578115610af25733600052600660205260ff6040600020541615610aad57600b546001600160a01b031680151580610aa4575b610989575b50805460ff19166001179055600783019167ffffffffffffffff82116109735761080b826108058554611612565b8561178a565b600090601f831160011461090d579180610841926003969594600092610902575b50508160011b916000199060031b1c19161790565b90555b600881810180546001600160a01b0319163317905560098201859055910154905480820290821583830490911417156108ec57612710900490818103908082116108ec5760008093928193928361089e849560095461177d565b6009558391146108e3575b3390f1156106dd576040519182527fb68acaadc409e87420a9dda716aca513f181d79ba21500902a72b44122acc5a460203393a360018055005b506108fc6108a9565b634e487b7160e01b600052601160045260246000fd5b01359050888061082c565b8382526020822091601f198416815b81811061095b575091600193918560039897969410610943575b505050811b019055610844565b013560001983881b60f8161c19169055878080610936565b9193602060018192878701358155019501920161091c565b634e487b7160e01b600052604160045260246000fd5b6040610a02916001870154908251918a6020840152602083526109ac8484611669565b6000845180968195829463e2dd674560e01b84526004840152608060248401528a60848401528a8c60a48501378360a48c8501015260a4601f19601f8d011684016003198286830301016044860152019061172f565b6002606483015203925af19081156106dd57600091610a62575b5015610a2857866107d7565b60405162461bcd60e51b815260206004820152601260248201527124b73b30b634b2103d35a6a610383937b7b360711b6044820152606490fd5b6040813d604011610a9c575b81610a7b60409383611669565b81010312610a985751908115158203610a95575087610a1c565b80fd5b5080fd5b3d9150610a6e565b508615156107d2565b60405162461bcd60e51b815260206004820152601860248201527f4e6f7420726567697374657265642066756c66696c6c657200000000000000006044820152606490fd5b60405162461bcd60e51b815260206004820152600c60248201526b115b5c1d1e481c995cdd5b1d60a21b6044820152606490fd5b60405162461bcd60e51b815260206004820152600f60248201526e14995c5d595cdd08195e1c1a5c9959608a1b6044820152606490fd5b3461031857602036600319011261031857600435610b79611816565b6103e88111610b8757600855005b60405162461bcd60e51b815260206004820152600c60248201526b08ccaca40e8dede40d0d2ced60a31b6044820152606490fd5b3461031857602036600319011261031857600435610bd7611816565b806000526004602052604060002060ff1981541690557f0ce0cd684ed1c15a1013dab20bed811fa182d3e28342b5be924d2cef7a103bb1600080a2005b3461031857600036600319011261031857610c2d611816565b600080546001600160a01b0319811682556001600160a01b03167f8be0079c531659141344cd1fd0a4f28419497f9722a3daafe3b4186f6b6457e08280a3005b3461031857602036600319011261031857610c866115a0565b610c8e611816565b6001600160a01b03166000908152600660205260409020805460ff19169055005b34610318576000366003190112610318576020600a54604051908152f35b34610318576000366003190112610318576020600954604051908152f35b3461031857602036600319011261031857600435610d0761183f565b600081815260026020526040902080546001600160a01b03163303610d9e57600681019060ff82541690600482101561030257600080806003819487610d4e8a98156117dc565b805460ff1916831790550154818115610d95575b3390f1156106dd577f1f29b89ae1587d701cb5136665b2e833ac2fc99ddb4481e1083ade509bcfeac1600080a260018055005b506108fc610d62565b60405162461bcd60e51b815260206004820152600d60248201526c2737ba103932b8bab2b9ba32b960991b6044820152606490fd5b3461031857602036600319011261031857600435610def611816565b8060005260046020526040600020600160ff198254161790557f6d29aa35cc15482f5e65960776a66652041832392a7d89e3f1488b4e40d15284600080a2005b3461031857600036600319011261031857610e48611816565b60008080806009548160095560018060a01b03825416828215610e6e575bf1156106dd57005b506108fc610e66565b3461031857600036600319011261031857600b546040516001600160a01b039091168152602090f35b34610318576000366003190112610318576020600854604051908152f35b60603660031901126103185760043560243567ffffffffffffffff811161031857610eed9036906004016115e4565b9160443591610efa61183f565b34156113dd5781600052600460205260ff6040600020541680156113c9575b1561138f57831561135c57612710841161132557600a5460001981146108ec5760018101600a5560405160208101913360601b8352846034830152426054830152607482015260748152610f6e609482611669565b51902092801561131957610f83905b4361177d565b9060209460405191610f958784611669565b60008352601f198701368885013760405192610fb08461164c565b3384528784019286845267ffffffffffffffff81116109735760405192610fe0601f8301601f19168b0185611669565b818452368282011161031857816000928b9283870137840101526040840191825260608401943486526080850142815260a0860191825260c08601966000885260e0870193845261010087019460008652610120880196600088528b60005260028d5260406000209860018060a01b039060018060a01b03905116166bffffffffffffffffffffffff60a01b8a5416178955516001890155600288019051805167ffffffffffffffff81116109735761109d816108058554611612565b8d80601f83116001146112b0575081906110cd936000926112a55750508160011b916000199060031b1c19161790565b90555b5160038701555160048601555160058501556006840194519460048610156103025760009560ff8019835416911617905560078401905180519067ffffffffffffffff821161129157611127826108058554611612565b8990601f831160011461122957918061115b926009979695948a9261121e5750508160011b916000199060031b1c19161790565b90555b516008840180546001600160a01b0319166001600160a01b03929092169190911790555191015533815260038452604081208054906801000000000000000082101561120a57906111b4916001820181556115b6565b81929154915060031b9084821b91600019901b19161790556040519081523483820152817f73379e0eb0a8c43416b93a5ad73c8f23ed1b510614ad484efdad08b000e357a960403393a360018055604051908152f35b634e487b7160e01b83526041600452602483fd5b015190508c8061082c565b8388528a88209190601f198416895b8d82821061127b5750509160019391856009999897969410611262575b505050811b01905561115e565b015160001960f88460031b161c191690558b8080611255565b6001859682939686015181550195019301611238565b634e487b7160e01b87526041600452602487fd5b015190508f8061082c565b9192601f1984168560005283600020936000905b8282106113015750509084600195949392106112e8575b505050811b0190556110d0565b015160001960f88460031b161c191690558e80806112db565b806001869782949787015181550196019401906112c4565b50610f83600754610f7d565b60405162461bcd60e51b815260206004820152600f60248201526e496e70757420746f6f206c6172676560881b6044820152606490fd5b60405162461bcd60e51b815260206004820152600b60248201526a115b5c1d1e481a5b9c1d5d60aa1b6044820152606490fd5b60405162461bcd60e51b8152602060048201526012602482015271135bd9195b081b9bdd08185c1c1c9bdd995960721b6044820152606490fd5b506000546001600160a01b03163314610f19565b60405162461bcd60e51b815260206004820152601060248201526f14185e5b595b9d081c995c5d5a5c995960821b6044820152606490fd5b3461031857602036600319011261031857600435611431611816565b600a8110158061147d575b1561144657600755005b60405162461bcd60e51b815260206004820152600f60248201526e125b9d985b1a59081d1a5b595bdd5d608a1b6044820152606490fd5b5061271081111561143c565b34610318576020366003190112610318576001600160a01b036114aa6115a0565b166000526006602052602060ff604060002054166040519015158152f35b34610318576040366003190112610318576114e16115a0565b6001600160a01b031660009081526003602052604090208054602435919082101561031857602091611512916115b6565b90549060031b1c604051908152f35b34610318576000366003190112610318576020600554604051908152f35b34610318576000366003190112610318576020600754604051908152f35b34610318576020366003190112610318576115766115a0565b61157e611816565b600b80546001600160a01b0319166001600160a01b0392909216919091179055005b600435906001600160a01b038216820361031857565b80548210156115ce5760005260206000200190600090565b634e487b7160e01b600052603260045260246000fd5b9181601f840112156103185782359167ffffffffffffffff8311610318576020838186019501011161031857565b90600182811c92168015611642575b602083101461162c57565b634e487b7160e01b600052602260045260246000fd5b91607f1691611621565b610140810190811067ffffffffffffffff82111761097357604052565b90601f8019910116810190811067ffffffffffffffff82111761097357604052565b906040519182600082549261169f84611612565b808452936001811690811561170d57506001146116c6575b506116c492500383611669565b565b90506000929192526020600020906000915b8183106116f15750509060206116c492820101386116b7565b60209193508060019154838589010152019101909184926116d8565b9050602092506116c494915060ff191682840152151560051b820101386116b7565b919082519283825260005b84811061175b575050826000602080949584010152601f8019910116010190565b8060208092840101518282860101520161173a565b9060048210156103025752565b919082018092116108ec57565b601f821161179757505050565b6000526020600020906020601f840160051c830193106117d2575b601f0160051c01905b8181106117c6575050565b600081556001016117bb565b90915081906117b2565b156117e357565b60405162461bcd60e51b815260206004820152600b60248201526a4e6f742070656e64696e6760a81b6044820152606490fd5b6000546001600160a01b0316330361182a57565b63118cdaa760e01b6000523360045260246000fd5b600260015414611850576002600155565b633ee5aeb560e01b60005260046000fdfea264697066735822122050b068680a12c56455e840a634252d5b3ec36f28a824faf821f2c838205afbe664736f6c634300081c0033",
  "linkReferences": {},
  "deployedLinkReferences": {}
}