{
  "_format": "hh-sol-artifact-1",
  "contractName": "AIOracle",
  "sourceName": "src/templates/AIOracle.sol",
  "abi": [
    {
      "inputs": [],
      "stateMutability": "nonpayable",
      "type": "constructor"
    },
    {
      "inputs": [
        {
          "internalType": "address",
          "name": "owner",
          "type": "address"
        }
      ],
      "name": "OwnableInvalidOwner",
      "type": "error"
    },
    {
      "inputs": [
        {
          "internalType": "address",
          "name": "account",
          "type": "address"
        }
      ],
      "name": "OwnableUnauthorizedAccount",
      "type": "error"
    },
    {
      "inputs": [],
      "name": "ReentrancyGuardReentrantCall",
      "type": "error"
    },
    {
      "anonymous": false,
      "inputs": [
        {
          "indexed": true,
          "internalType": "bytes32",
          "name": "requestId",
          "type": "bytes32"
        }
      ],
      "name": "AIRequestCancelled",
      "type": "event"
    },
    {
      "anonymous": false,
      "inputs": [
        {
          "indexed": true,
          "internalType": "bytes32",
          "name": "requestId",
          "type": "bytes32"
        },
        {
          "indexed": true,
          "internalType": "address",
          "name": "requester",
          "type": "address"
        },
        {
          "indexed": false,
          "internalType": "bytes32",
          "name": "modelHash",
          "type": "bytes32"
        },
        {
          "indexed": false,
          "internalType": "uint256",
          "name": "reward",
          "type": "uint256"
        }
      ],
      "name": "AIRequestCreated",
      "type": "event"
    },
    {
      "anonymous": false,
      "inputs": [
        {
          "indexed": true,
          "internalType": "bytes32",
          "name": "requestId",
          "type": "bytes32"
        }
      ],
      "name": "AIRequestExpired",
      "type": "event"
    },
    {
      "anonymous": false,
      "inputs": [
        {
          "indexed": true,
          "internalType": "bytes32",
          "name": "requestId",
          "type": "bytes32"
        },
        {
          "indexed": true,
          "internalType": "address",
          "name": "fulfiller",
          "type": "address"
        },
        {
          "indexed": false,
          "internalType": "bytes32",
          "name": "proofHash",
          "type": "bytes32"
        }
      ],
      "name": "AIRequestFulfilled",
      "type": "event"
    },
    {
      "anonymous": false,
      "inputs": [
        {
          "indexed": true,
          "internalType": "bytes32",
          "name": "modelHash",
          "type": "bytes32"
        }
      ],
      "name": "ModelApproved",
      "type": "event"
    },
    {
      "anonymous": false,
      "inputs": [
        {
          "indexed": true,
          "internalType": "bytes32",
          "name": "modelHash",
          "type": "bytes32"
        }
      ],
      "name": "ModelRevoked",
      "type": "event"
    },
    {
      "anonymous": false,
      "inputs": [
        {
          "indexed": true,
          "internalType": "address",
          "name": "previousOwner",
          "type": "address"
        },
        {
          "indexed": true,
          "internalType": "address",
          "name": "newOwner",
          "type": "address"
        }
      ],
      "name": "OwnershipTransferred",
      "type": "event"
    },
    {
      "inputs": [],
      "name": "accumulatedFees",
      "outputs": [
        {
          "internalType": "uint256",
          "name": "",
          "type": "uint256"
        }
      ],
      "stateMutability": "view",
      "type": "function"
    },
    {
      "inputs": [
        {
          "internalType": "bytes32",
          "name": "modelHash",
          "type": "bytes32"
        }
      ],
      "name": "approveModel",
      "outputs": [],
      "stateMutability": "nonpayable",
      "type": "function"
    },
    {
      "inputs": [
        {
          "internalType": "bytes32",
          "name": "",
          "type": "bytes32"
        }
      ],
      "name": "approvedModels",
      "outputs": [
        {
          "internalType": "bool",
          "name": "",
          "type": "bool"
        }
      ],
      "stateMutability": "view",
      "type": "function"
    },
    {
      "inputs": [
        {
          "internalType": "bytes32",
          "name": "requestId",
          "type": "bytes32"
        }
      ],
      "name": "cancelRequest",
      "outputs": [],
      "stateMutability": "nonpayable",
      "type": "function"
    },
    {
      "inputs": [],
      "name": "defaultTimeout",
      "outputs": [
        {
          "internalType": "uint256",
          "name": "",
          "type": "uint256"
        }
      ],
      "stateMutability": "view",
      "type": "function"
    },
    {
      "inputs": [
        {
          "internalType": "bytes32",
          "name": "requestId",
          "type": "bytes32"
        },
        {
          "internalType": "bytes",
          "name": "result",
          "type": "bytes"
        },
        {
          "internalType": "bytes32",
          "name": "proofHash",
          "type": "bytes32"
        }
      ],
      "name": "fulfillRequest",
      "outputs": [],
      "stateMutability": "nonpayable",
      "type": "function"
    },
    {
      "inputs": [
        {
          "internalType": "bytes32",
          "name": "requestId",
          "type": "bytes32"
        }
      ],
      "name": "getRequest",
      "outputs": [
        {
          "components": [
            {
              "internalType": "address",
              "name": "requester",
              "type": "address"
            },
            {
              "internalType": "bytes32",
              "name": "modelHash",
              "type": "bytes32"
            },
            {
              "internalType": "bytes",
              "name": "inputData",
              "type": "bytes"
            },
            {
              "internalType": "uint256",
              "name": "reward",
              "type": "uint256"
            },
            {
              "internalType": "uint256",
              "name": "createdAt",
              "type": "uint256"
            },
            {
              "internalType": "uint256",
              "name": "deadline",
              "type": "uint256"
            },
            {
              "internalType": "enum AIOracle.RequestStatus",
              "name": "status",
              "type": "uint8"
            },
            {
              "internalType": "bytes",
              "name": "result",
              "type": "bytes"
            },
            {
              "internalType": "address",
              "name": "fulfiller",
              "type": "address"
            },
            {
              "internalType": "bytes32",
              "name": "proofHash",
              "type": "bytes32"
            }
          ],
          "internalType": "struct AIOracle.AIRequest",
          "name": "",
          "type": "tuple"
        }
      ],
      "stateMutability": "view",
      "type": "function"
    },
    {
      "inputs": [
        {
          "internalType": "bytes32",
          "name": "requestId",
          "type": "bytes32"
        }
      ],
      "name": "getResult",
      "outputs": [
        {
          "internalType": "bytes",
          "name": "result",
          "type": "bytes"
        },
        {
          "internalType": "bool",
          "name": "completed",
          "type": "bool"
        }
      ],
      "stateMutability": "view",
      "type": "function"
    },
    {
      "inputs": [
        {
          "internalType": "address",
          "name": "user",
          "type": "address"
        }
      ],
      "name": "getUserRequests",
      "outputs": [
        {
          "internalType": "bytes32[]",
          "name": "",
          "type": "bytes32[]"
        }
      ],
      "stateMutability": "view",
      "type": "function"
    },
    {
      "inputs": [
        {
          "internalType": "bytes32",
          "name": "modelHash",
          "type": "bytes32"
        }
      ],
      "name": "isModelApproved",
      "outputs": [
        {
          "internalType": "bool",
          "name": "",
          "type": "bool"
        }
      ],
      "stateMutability": "view",
      "type": "function"
    },
    {
      "inputs": [
        {
          "internalType": "bytes32",
          "name": "requestId",
          "type": "bytes32"
        }
      ],
      "name": "markExpired",
      "outputs": [],
      "stateMutability": "nonpayable",
      "type": "function"
    },
    {
      "inputs": [],
      "name": "minFulfillerStake",
      "outputs": [
        {
          "internalType": "uint256",
          "name": "",
          "type": "uint256"
        }
      ],
      "stateMutability": "view",
      "type": "function"
    },
    {
      "inputs": [],
      "name": "owner",
      "outputs": [
        {
          "internalType": "address",
          "name": "",
          "type": "address"
        }
      ],
      "stateMutability": "view",
      "type": "function"
    },
    {
      "inputs": [],
      "name": "protocolFeeBps",
      "outputs": [
        {
          "internalType": "uint256",
          "name": "",
          "type": "uint256"
        }
      ],
      "stateMutability": "view",
      "type": "function"
    },
    {
      "inputs": [
        {
          "internalType": "address",
          "name": "fulfiller",
          "type": "address"
        }
      ],
      "name": "registerFulfiller",
      "outputs": [],
      "stateMutability": "nonpayable",
      "type": "function"
    },
    {
      "inputs": [
        {
          "internalType": "address",
          "name": "",
          "type": "address"
        }
      ],
      "name": "registeredFulfillers",
      "outputs": [
        {
          "internalType": "bool",
          "name": "",
          "type": "bool"
        }
      ],
      "stateMutability": "view",
      "type": "function"
    },
    {
      "inputs": [],
      "name": "renounceOwnership",
      "outputs": [],
      "stateMutability": "nonpayable",
      "type": "function"
    },
    {
      "inputs": [
        {
          "internalType": "bytes32",
          "name": "modelHash",
          "type": "bytes32"
        },
        {
          "internalType": "bytes",
          "name": "inputData",
          "type": "bytes"
        },
        {
          "internalType": "uint256",
          "name": "timeout",
          "type": "uint256"
        }
      ],
      "name": "requestAI",
      "outputs": [
        {
          "internalType": "bytes32",
          "name": "",
          "type": "bytes32"
        }
      ],
      "stateMutability": "payable",
      "type": "function"
    },
    {
      "inputs": [],
      "name": "requestCount",
      "outputs": [
        {
          "internalType": "uint256",
          "name": "",
          "type": "uint256"
        }
      ],
      "stateMutability": "view",
      "type": "function"
    },
    {
      "inputs": [
        {
          "internalType": "bytes32",
          "name": "",
          "type": "bytes32"
        }
      ],
      "name": "requests",
      "outputs": [
        {
          "internalType": "address",
          "name": "requester",
          "type": "address"
        },
        {
          "internalType": "bytes32",
          "name": "modelHash",
          "type": "bytes32"
        },
        {
          "internalType": "bytes",
          "name": "inputData",
          "type": "bytes"
        },
        {
          "internalType": "uint256",
          "name": "reward",
          "type": "uint256"
        },
        {
          "internalType": "uint256",
          "name": "createdAt",
          "type": "uint256"
        },
        {
          "internalType": "uint256",
          "name": "deadline",
          "type": "uint256"
        },
        {
          "internalType": "enum AIOracle.RequestStatus",
          "name": "status",
          "type": "uint8"
        },
        {
          "internalType": "bytes",
          "name": "result",
          "type": "bytes"
        },
        {
          "internalType": "address",
          "name": "fulfiller",
          "type": "address"
        },
        {
          "internalType": "bytes32",
          "name": "proofHash",
          "type": "bytes32"
        }
      ],
      "stateMutability": "view",
      "type": "function"
    },
    {
      "inputs": [
        {
          "internalType": "address",
          "name": "fulfiller",
          "type": "address"
        }
      ],
      "name": "revokeFulfiller",
      "outputs": [],
      "stateMutability": "nonpayable",
      "type": "function"
    },
    {
      "inputs": [
        {
          "internalType": "bytes32",
          "name": "modelHash",
          "type": "bytes32"
        }
      ],
      "name": "revokeModel",
      "outputs": [],
      "stateMutability": "nonpayable",
      "type": "function"
    },
    {
      "inputs": [
        {
          "internalType": "uint256",
          "name": "_timeout",
          "type": "uint256"
        }
      ],
      "name": "setDefaultTimeout",
      "outputs": [],
      "stateMutability": "nonpayable",
      "type": "function"
    },
    {
      "inputs": [
        {
          "internalType": "uint256",
          "name": "_feeBps",
          "type": "uint256"
        }
      ],
      "name": "setProtocolFee",
      "outputs": [],
      "stateMutability": "nonpayable",
      "type": "function"
    },
    {
      "inputs": [
        {
          "internalType": "address",
          "name": "_verifier",
          "type": "address"
        }
      ],
      "name": "setZkMLVerifier",
      "outputs": [],
      "stateMutability": "nonpayable",
      "type": "function"
    },
    {
      "inputs": [
        {
          "internalType": "address",
          "name": "newOwner",
          "type": "address"
        }
      ],
      "name": "transferOwnership",
      "outputs": [],
      "stateMutability": "nonpayable",
      "type": "function"
    },
    {
      "inputs": [
        {
          "internalType": "address",
          "name": "",
          "type": "address"
        },
        {
          "internalType": "uint256",
          "name": "",
          "type": "uint256"
        }
      ],
      "name": "userRequests",
      "outputs": [
        {
          "internalType": "bytes32",
          "name": "",
          "type": "bytes32"
        }
      ],
      "stateMutability": "view",
      "type": "function"
    },
    {
      "inputs": [],
      "name": "withdrawFees",
      "outputs": [],
      "stateMutability": "nonpayable",
      "type": "function"
    },
    {
      "inputs": [],
      "name": "zkmlVerifier",
      "outputs": [
        {
          "internalType": "address",
          "name": "",
          "type": "address"
        }
      ],
      "stateMutability": "view",
      "type": "function"
    }
  ],
  "bytecode": "0x608080604052346083573315606d5760008054336001600160a01b0319821681178355916001600160a01b03909116907f8be0079c531659141344cd1fd0a4f28419497f9722a3daafe3b4186f6b6457e09080a3600180556064600755606460085561199d90816100898239f35b631e4fbdf760e01b600052600060045260246000fd5b600080fdfe6080604052600436101561001257600080fd5b60003560e01c8063066655ef146115db57806309f3f566146115bd57806321c39b361461159f578063263cb6b6146115465780632b9b4ada146115075780632c6c5866146114935780633115129c14610f4b57806335659fb814610f2d5780633c81339414610f04578063476343ee14610e8c5780634b7716e314610e305780634b9f24d8146103a65780635012554614610d56578063587f5ed714610d385780635badbe4c14610d1a5780635fc76a0b14610cd8578063715018a614610c7f578063717909b914610c26578063787dce3d14610bc857806382ae0f971461071b57806387e0aeb2146106385780638da5cb5b1461060f5780639d86698514610539578063add4c784146104d6578063b337cf741461041c578063d8be38b6146103d7578063da185c92146103a6578063f2fde38b1461031d5763fb1e61ca1461015b57600080fd5b3461031857602036600319011261031857600061012060405161017d816116ca565b828152826020820152606060408201528260608201528260808201528260a08201528260c0820152606060e0820152826101008201520152600435600052600260205260406000206040516101d1816116ca565b81546001600160a01b031681526001820154602082019081526101f660028401611709565b9060408301918252600384015491606084019283526004850154926080850193845260058601549560a0860196875260ff6006820154169260c0870160048510156103025760209888976102b56102d3946102e6988552600961025b60078901611709565b9760e08d0198895261010060018060a01b036008830154169d019c8d520154996101208d019a8b526040518e819f9e829f835260018060a01b039051169101525160408d01525161014060608d01526101608c01906117ad565b955160808b01525160a08a01525160c08901525160e08801906117ee565b51858203601f19016101008701526117ad565b91516001600160a01b0316610120840152516101408301520390f35b634e487b7160e01b600052602160045260246000fd5b600080fd5b346103185760203660031901126103185761033661161e565b61033e61191c565b6001600160a01b0316801561039057600080546001600160a01b03198116831782556001600160a01b0316907f8be0079c531659141344cd1fd0a4f28419497f9722a3daafe3b4186f6b6457e09080a3005b631e4fbdf760e01b600052600060045260246000fd5b34610318576020366003190112610318576004356000526004602052602060ff604060002054166040519015158152f35b34610318576020366003190112610318576103f061161e565b6103f861191c565b6001600160a01b03166000908152600660205260409020805460ff19166001179055005b34610318576020366003190112610318576001600160a01b0361043d61161e565b16600052600360205260406000206040518060208354918281520190819360005260206000209060005b8181106104c0575050508161047d9103826116e7565b6040519182916020830190602084525180915260408301919060005b8181106104a7575050500390f35b8251845285945060209384019390920191600101610499565b8254845260209093019260019283019201610467565b34610318576020366003190112610318576004356000526002602052604060002060ff600682015416600481101561030257610517600761052e9301611709565b9060016040519384936040855260408501906117ad565b911460208301520390f35b34610318576020366003190112610318576004356000526002602052604060002060018060a01b0381541660018201549161057660028201611709565b6105fe600383015460048401546105f1600586015460ff600688015416906105a060078901611709565b936105d7600960018060a01b0360088c0154169a0154986040519c8d9c8d5260208d015261014060408d01526101408c01906117ad565b9560608b015260808a015260a089015260c08801906117ee565b85820360e08701526117ad565b916101008401526101208301520390f35b34610318576000366003190112610318576000546040516001600160a01b039091168152602090f35b34610318576020366003190112610318576004358060005260026020526040600020600681019060ff82541660048110156103025761067790156118a6565b60058101544311156106e457815460ff191660021790915580546003909101546106bd916000918291829182916001600160a01b03165af16106b7611876565b506118e0565b7f6fe0249982ec39ff41cbe0301e6c114eca4ebb1720320066b62d957f1163cbaa600080a2005b60405162461bcd60e51b815260206004820152600f60248201526e139bdd08195e1c1a5c9959081e595d608a1b6044820152606490fd5b346103185760603660031901126103185760043560243567ffffffffffffffff81116103185761074f903690600401611662565b604435929161075c611945565b8260005260026020526040600020916006830160ff81541660048110156103025761078790156118a6565b60058401544311610b91578115610b5d5733600052600660205260ff6040600020541615610b1857600b546001600160a01b03168061099a575b50805460ff19166001179055600783019167ffffffffffffffff8211610984576107f5826107ef8554611690565b85611824565b600090601f831160011461091e57918061082b926003969594600092610913575b50508160011b916000199060031b1c19161790565b90555b600881810180546001600160a01b0319163317905560098201859055910154905480820290821583830490911417156108fd5761271090048082039182116108fd57600080809361088282946009546117fb565b600955335af1610890611876565b50156108c8576040519182527fb68acaadc409e87420a9dda716aca513f181d79ba21500902a72b44122acc5a460203393a360018055005b60405162461bcd60e51b815260206004820152600d60248201526c14185e5bdd5d0819985a5b1959609a1b6044820152606490fd5b634e487b7160e01b600052601160045260246000fd5b013590508880610816565b8382526020822091601f198416815b81811061096c575091600193918560039897969410610954575b505050811b01905561082e565b013560001983881b60f8161c19169055878080610947565b9193602060018192878701358155019501920161092d565b634e487b7160e01b600052604160045260246000fd5b8615610ac7576040610a19916001870154908251918a6020840152602083526109c384846116e7565b6000845180968195829463e2dd674560e01b84526004840152608060248401528a60848401528a8c60a48501378360a48c8501015260a4601f19601f8d01168401600319828683030101604486015201906117ad565b6002606483015203925af1908115610abb57600091610a79575b5015610a3f57866107c1565b60405162461bcd60e51b815260206004820152601260248201527124b73b30b634b2103d35a6a610383937b7b360711b6044820152606490fd5b6040813d604011610ab3575b81610a92604093836116e7565b81010312610aaf5751908115158203610aac575087610a33565b80fd5b5080fd5b3d9150610a85565b6040513d6000823e3d90fd5b60405162461bcd60e51b815260206004820152602360248201527f50726f6f66207265717569726564207768656e207665726966696572206973206044820152621cd95d60ea1b6064820152608490fd5b60405162461bcd60e51b815260206004820152601860248201527f4e6f7420726567697374657265642066756c66696c6c657200000000000000006044820152606490fd5b60405162461bcd60e51b815260206004820152600c60248201526b115b5c1d1e481c995cdd5b1d60a21b6044820152606490fd5b60405162461bcd60e51b815260206004820152600f60248201526e14995c5d595cdd08195e1c1a5c9959608a1b6044820152606490fd5b3461031857602036600319011261031857600435610be461191c565b6103e88111610bf257600855005b60405162461bcd60e51b815260206004820152600c60248201526b08ccaca40e8dede40d0d2ced60a31b6044820152606490fd5b3461031857602036600319011261031857600435610c4261191c565b806000526004602052604060002060ff1981541690557f0ce0cd684ed1c15a1013dab20bed811fa182d3e28342b5be924d2cef7a103bb1600080a2005b3461031857600036600319011261031857610c9861191c565b600080546001600160a01b0319811682556001600160a01b03167f8be0079c531659141344cd1fd0a4f28419497f9722a3daafe3b4186f6b6457e08280a3005b3461031857602036600319011261031857610cf161161e565b610cf961191c565b6001600160a01b03166000908152600660205260409020805460ff19169055005b34610318576000366003190112610318576020600a54604051908152f35b34610318576000366003190112610318576020600954604051908152f35b3461031857602036600319011261031857600435610d72611945565b600081815260026020526040902080546001600160a01b03163303610dfb576006810160ff8154166004811015610302576000806003610dd0958295610db98496156118a6565b805460ff1916831790550154335af16106b7611876565b7f1f29b89ae1587d701cb5136665b2e833ac2fc99ddb4481e1083ade509bcfeac1600080a260018055005b60405162461bcd60e51b815260206004820152600d60248201526c2737ba103932b8bab2b9ba32b960991b6044820152606490fd5b3461031857602036600319011261031857600435610e4c61191c565b8060005260046020526040600020600160ff198254161790557f6d29aa35cc15482f5e65960776a66652041832392a7d89e3f1488b4e40d15284600080a2005b3461031857600036600319011261031857610ea561191c565b60008080806009548160095560018060a01b038254165af1610ec5611876565b5015610ecd57005b60405162461bcd60e51b815260206004820152600f60248201526e15da5d1a191c985dc819985a5b1959608a1b6044820152606490fd5b3461031857600036600319011261031857600b546040516001600160a01b039091168152602090f35b34610318576000366003190112610318576020600854604051908152f35b60603660031901126103185760043560243567ffffffffffffffff811161031857610f7a903690600401611662565b9160443591610f87611945565b341561145b5781600052600460205260ff604060002054168015611447575b1561140d5783156113da5761271084116113a357600a5460001981146108fd5760018101600a5560405160208101913360601b8352846034830152426054830152607482015260748152610ffb6094826116e7565b51902092801561139757611010905b436117fb565b906020946040519161102287846116e7565b60008352601f19870136888501376040519261103d846116ca565b3384528784019286845261105081611808565b9261105e60405194856116e7565b818452368282011161031857816000928b9283870137840101526040840191825260608401943486526080850142815260a0860191825260c08601966000885260e0870193845261010087019460008652610120880196600088528b60005260028d5260406000209860018060a01b039060018060a01b03905116166bffffffffffffffffffffffff60a01b8a5416178955516001890155600288019051805167ffffffffffffffff81116109845761111b816107ef8554611690565b8d80601f831160011461132e5750819061114b936000926113235750508160011b916000199060031b1c19161790565b90555b5160038701555160048601555160058501556006840194519460048610156103025760009560ff8019835416911617905560078401905180519067ffffffffffffffff821161130f576111a5826107ef8554611690565b8990601f83116001146112a75791806111d9926009979695948a9261129c5750508160011b916000199060031b1c19161790565b90555b516008840180546001600160a01b0319166001600160a01b039290921691909117905551910155338152600384526040812080549068010000000000000000821015611288579061123291600182018155611634565b81929154915060031b9084821b91600019901b19161790556040519081523483820152817f73379e0eb0a8c43416b93a5ad73c8f23ed1b510614ad484efdad08b000e357a960403393a360018055604051908152f35b634e487b7160e01b83526041600452602483fd5b015190508c80610816565b8388528a88209190601f198416895b8d8282106112f957505091600193918560099998979694106112e0575b505050811b0190556111dc565b015160001960f88460031b161c191690558b80806112d3565b60018596829396860151815501950193016112b6565b634e487b7160e01b87526041600452602487fd5b015190508f80610816565b9192601f1984168560005283600020936000905b82821061137f575050908460019594939210611366575b505050811b01905561114e565b015160001960f88460031b161c191690558e8080611359565b80600186978294978701518155019601940190611342565b5061101060075461100a565b60405162461bcd60e51b815260206004820152600f60248201526e496e70757420746f6f206c6172676560881b6044820152606490fd5b60405162461bcd60e51b815260206004820152600b60248201526a115b5c1d1e481a5b9c1d5d60aa1b6044820152606490fd5b60405162461bcd60e51b8152602060048201526012602482015271135bd9195b081b9bdd08185c1c1c9bdd995960721b6044820152606490fd5b506000546001600160a01b03163314610fa6565b60405162461bcd60e51b815260206004820152601060248201526f14185e5b595b9d081c995c5d5a5c995960821b6044820152606490fd5b34610318576020366003190112610318576004356114af61191c565b600a811015806114fb575b156114c457600755005b60405162461bcd60e51b815260206004820152600f60248201526e125b9d985b1a59081d1a5b595bdd5d608a1b6044820152606490fd5b506127108111156114ba565b34610318576020366003190112610318576001600160a01b0361152861161e565b166000526006602052602060ff604060002054166040519015158152f35b346103185760403660031901126103185761155f61161e565b6001600160a01b03166000908152600360205260409020805460243591908210156103185760209161159091611634565b90549060031b1c604051908152f35b34610318576000366003190112610318576020600554604051908152f35b34610318576000366003190112610318576020600754604051908152f35b34610318576020366003190112610318576115f461161e565b6115fc61191c565b600b80546001600160a01b0319166001600160a01b0392909216919091179055005b600435906001600160a01b038216820361031857565b805482101561164c5760005260206000200190600090565b634e487b7160e01b600052603260045260246000fd5b9181601f840112156103185782359167ffffffffffffffff8311610318576020838186019501011161031857565b90600182811c921680156116c0575b60208310146116aa57565b634e487b7160e01b600052602260045260246000fd5b91607f169161169f565b610140810190811067ffffffffffffffff82111761098457604052565b90601f8019910116810190811067ffffffffffffffff82111761098457604052565b906040519182600082549261171d84611690565b808452936001811690811561178b5750600114611744575b50611742925003836116e7565b565b90506000929192526020600020906000915b81831061176f5750509060206117429282010138611735565b6020919350806001915483858901015201910190918492611756565b90506020925061174294915060ff191682840152151560051b82010138611735565b919082519283825260005b8481106117d9575050826000602080949584010152601f8019910116010190565b806020809284010151828286010152016117b8565b9060048210156103025752565b919082018092116108fd57565b67ffffffffffffffff811161098457601f01601f191660200190565b601f821161183157505050565b6000526020600020906020601f840160051c8301931061186c575b601f0160051c01905b818110611860575050565b60008155600101611855565b909150819061184c565b3d156118a1573d9061188782611808565b9161189560405193846116e7565b82523d6000602084013e565b606090565b156118ad57565b60405162461bcd60e51b815260206004820152600b60248201526a4e6f742070656e64696e6760a81b6044820152606490fd5b156118e757565b60405162461bcd60e51b815260206004820152600d60248201526c1499599d5b990819985a5b1959609a1b6044820152606490fd5b6000546001600160a01b0316330361193057565b63118cdaa760e01b6000523360045260246000fd5b600260015414611956576002600155565b633ee5aeb560e01b60005260046000fdfea2646970667358221220abcb21bea275fc209021e92f7ce08ee495e41dbbee906117df70be86a2bc807464736f6c634300081c0033",
  "linkReferences": {},
  "deployedLinkReferences": {}
}