{
  "_format": "hh-sol-artifact-1",
  "contractName": "TokenVesting",
  "sourceName": "src/templates/TokenVesting.sol",
  "abi": [
    {
      "inputs": [],
      "stateMutability": "nonpayable",
      "type": "constructor"
    },
    {
      "anonymous": false,
      "inputs": [
        {
          "indexed": true,
          "internalType": "address",
          "name": "sender",
          "type": "address"
        },
        {
          "indexed": false,
          "internalType": "uint256",
          "name": "amount",
          "type": "uint256"
        }
      ],
      "name": "Deposit",
      "type": "event"
    },
    {
      "anonymous": false,
      "inputs": [
        {
          "indexed": true,
          "internalType": "address",
          "name": "owner",
          "type": "address"
        },
        {
          "indexed": false,
          "internalType": "uint256",
          "name": "amount",
          "type": "uint256"
        }
      ],
      "name": "EmergencyWithdraw",
      "type": "event"
    },
    {
      "anonymous": false,
      "inputs": [
        {
          "indexed": true,
          "internalType": "uint256",
          "name": "scheduleId",
          "type": "uint256"
        },
        {
          "indexed": true,
          "internalType": "address",
          "name": "beneficiary",
          "type": "address"
        },
        {
          "indexed": false,
          "internalType": "uint256",
          "name": "amount",
          "type": "uint256"
        }
      ],
      "name": "TokensReleased",
      "type": "event"
    },
    {
      "anonymous": false,
      "inputs": [
        {
          "indexed": true,
          "internalType": "uint256",
          "name": "scheduleId",
          "type": "uint256"
        },
        {
          "indexed": true,
          "internalType": "address",
          "name": "beneficiary",
          "type": "address"
        },
        {
          "indexed": false,
          "internalType": "uint256",
          "name": "amount",
          "type": "uint256"
        },
        {
          "indexed": false,
          "internalType": "uint256",
          "name": "startTime",
          "type": "uint256"
        },
        {
          "indexed": false,
          "internalType": "uint256",
          "name": "cliffDuration",
          "type": "uint256"
        },
        {
          "indexed": false,
          "internalType": "uint256",
          "name": "vestingDuration",
          "type": "uint256"
        }
      ],
      "name": "VestingCreated",
      "type": "event"
    },
    {
      "anonymous": false,
      "inputs": [
        {
          "indexed": true,
          "internalType": "uint256",
          "name": "scheduleId",
          "type": "uint256"
        },
        {
          "indexed": true,
          "internalType": "address",
          "name": "beneficiary",
          "type": "address"
        },
        {
          "indexed": false,
          "internalType": "uint256",
          "name": "unvestedAmount",
          "type": "uint256"
        }
      ],
      "name": "VestingRevoked",
      "type": "event"
    },
    {
      "inputs": [
        {
          "internalType": "address",
          "name": "",
          "type": "address"
        },
        {
          "internalType": "uint256",
          "name": "",
          "type": "uint256"
        }
      ],
      "name": "beneficiarySchedules",
      "outputs": [
        {
          "internalType": "uint256",
          "name": "",
          "type": "uint256"
        }
      ],
      "stateMutability": "view",
      "type": "function"
    },
    {
      "inputs": [
        {
          "internalType": "address",
          "name": "beneficiary",
          "type": "address"
        },
        {
          "internalType": "uint256",
          "name": "amount",
          "type": "uint256"
        },
        {
          "internalType": "uint256",
          "name": "cliffDuration",
          "type": "uint256"
        },
        {
          "internalType": "uint256",
          "name": "vestingDuration",
          "type": "uint256"
        }
      ],
      "name": "createVestingSchedule",
      "outputs": [
        {
          "internalType": "uint256",
          "name": "scheduleId",
          "type": "uint256"
        }
      ],
      "stateMutability": "nonpayable",
      "type": "function"
    },
    {
      "inputs": [],
      "name": "emergencyWithdraw",
      "outputs": [],
      "stateMutability": "nonpayable",
      "type": "function"
    },
    {
      "inputs": [],
      "name": "getContractBalance",
      "outputs": [
        {
          "internalType": "uint256",
          "name": "",
          "type": "uint256"
        }
      ],
      "stateMutability": "view",
      "type": "function"
    },
    {
      "inputs": [
        {
          "internalType": "uint256",
          "name": "scheduleId",
          "type": "uint256"
        }
      ],
      "name": "getScheduleDetails",
      "outputs": [
        {
          "internalType": "address",
          "name": "beneficiary",
          "type": "address"
        },
        {
          "internalType": "uint256",
          "name": "totalAmount",
          "type": "uint256"
        },
        {
          "internalType": "uint256",
          "name": "startTime",
          "type": "uint256"
        },
        {
          "internalType": "uint256",
          "name": "cliffDuration",
          "type": "uint256"
        },
        {
          "internalType": "uint256",
          "name": "vestingDuration",
          "type": "uint256"
        },
        {
          "internalType": "uint256",
          "name": "releasedAmount",
          "type": "uint256"
        },
        {
          "internalType": "uint256",
          "name": "vestedAmountNow",
          "type": "uint256"
        },
        {
          "internalType": "uint256",
          "name": "releasableAmountNow",
          "type": "uint256"
        },
        {
          "internalType": "bool",
          "name": "revoked",
          "type": "bool"
        }
      ],
      "stateMutability": "view",
      "type": "function"
    },
    {
      "inputs": [
        {
          "internalType": "address",
          "name": "beneficiary",
          "type": "address"
        }
      ],
      "name": "getSchedulesByBeneficiary",
      "outputs": [
        {
          "internalType": "uint256[]",
          "name": "",
          "type": "uint256[]"
        }
      ],
      "stateMutability": "view",
      "type": "function"
    },
    {
      "inputs": [],
      "name": "owner",
      "outputs": [
        {
          "internalType": "address",
          "name": "",
          "type": "address"
        }
      ],
      "stateMutability": "view",
      "type": "function"
    },
    {
      "inputs": [
        {
          "internalType": "uint256",
          "name": "scheduleId",
          "type": "uint256"
        }
      ],
      "name": "releasableAmount",
      "outputs": [
        {
          "internalType": "uint256",
          "name": "",
          "type": "uint256"
        }
      ],
      "stateMutability": "view",
      "type": "function"
    },
    {
      "inputs": [
        {
          "internalType": "uint256",
          "name": "scheduleId",
          "type": "uint256"
        }
      ],
      "name": "release",
      "outputs": [],
      "stateMutability": "nonpayable",
      "type": "function"
    },
    {
      "inputs": [
        {
          "internalType": "uint256",
          "name": "scheduleId",
          "type": "uint256"
        }
      ],
      "name": "revoke",
      "outputs": [],
      "stateMutability": "nonpayable",
      "type": "function"
    },
    {
      "inputs": [
        {
          "internalType": "uint256",
          "name": "scheduleId",
          "type": "uint256"
        }
      ],
      "name": "vestedAmount",
      "outputs": [
        {
          "internalType": "uint256",
          "name": "",
          "type": "uint256"
        }
      ],
      "stateMutability": "view",
      "type": "function"
    },
    {
      "inputs": [],
      "name": "vestingIdCounter",
      "outputs": [
        {
          "internalType": "uint256",
          "name": "",
          "type": "uint256"
        }
      ],
      "stateMutability": "view",
      "type": "function"
    },
    {
      "inputs": [
        {
          "internalType": "uint256",
          "name": "",
          "type": "uint256"
        }
      ],
      "name": "vestingSchedules",
      "outputs": [
        {
          "internalType": "address",
          "name": "beneficiary",
          "type": "address"
        },
        {
          "internalType": "uint256",
          "name": "totalAmount",
          "type": "uint256"
        },
        {
          "internalType": "uint256",
          "name": "startTime",
          "type": "uint256"
        },
        {
          "internalType": "uint256",
          "name": "cliffDuration",
          "type": "uint256"
        },
        {
          "internalType": "uint256",
          "name": "vestingDuration",
          "type": "uint256"
        },
        {
          "internalType": "uint256",
          "name": "releasedAmount",
          "type": "uint256"
        },
        {
          "internalType": "bool",
          "name": "revoked",
          "type": "bool"
        },
        {
          "internalType": "bool",
          "name": "initialized",
          "type": "bool"
        }
      ],
      "stateMutability": "view",
      "type": "function"
    },
    {
      "stateMutability": "payable",
      "type": "receive"
    }
  ],
  "bytecode": "0x60808060405234602a57600080546001600160a01b03191633178155600155610efa90816100308239f35b600080fdfe60806040526004361015610047575b361561001957600080fd5b6040513481527fe1fffcc4923d04b559f4d29a8bfc6cda04eb5b0d3c460751c2402c5c5cc9109c60203392a2005b60003560e01c80631bfce85314610bde57806320c5429b14610a9457806337bdc99b146108df5780633f4e8e801461056057806340f1031e1461054257806346ca4241146104e95780635927fca2146104c35780636d3cbe211461043b5780636f9fb98a1461041f5780638da5cb5b146103f65780639466e9e91461033c578063a33b88bf146102645763db2e21bc0361000e573461025f57600036600319011261025f576000546001600160a01b0316610103338214610d66565b478015610223576000906000600154905b8181106101c0575050818111156101845760008080610137610149958295610cb8565b80965af1610143610dde565b50610e1e565b6000546040519182526001600160a01b0316907f5fafa99d0643513820be26656b45130b01e1c03062e1266bf36f88cbd3bd969590602090a2005b60405162461bcd60e51b81526020600482015260146024820152734e6f20756e636f6d6d69747465642066756e647360601b6044820152606490fd5b8060005260026020526040600020600681015460ff8160081c169081610217575b506101f0575b50600101610114565b6001919461020a8260058561021095015491015490610cb8565b90610cab565b93906101e7565b60ff91501615386101e1565b60405162461bcd60e51b81526020600482015260146024820152734e6f2066756e647320746f20776974686472617760601b6044820152606490fd5b600080fd5b3461025f57602036600319011261025f5761012060043580600052600260205261029b60ff60066040600020015460081c16610c5f565b6000818152600260208190526040909120805460018201549282015460038301546004840154600585015460068601546001600160a01b039590951697949093919291906102ee9060081c60ff16610c5f565b60ff60066103046102fe88610cc5565b97610e5c565b9701541696604051988952602089015260408801526060870152608086015260a085015260c084015260e08301521515610100820152f35b3461025f57602036600319011261025f576001600160a01b0361035d610c1b565b16600052600360205260406000206040518060208354918281520190819360005260206000209060005b8181106103e0575050508161039d910382610dbc565b6040519182916020830190602084525180915260408301919060005b8181106103c7575050500390f35b82518452859450602093840193909201916001016103b9565b8254845260209093019260019283019201610387565b3461025f57600036600319011261025f576000546040516001600160a01b039091168152602090f35b3461025f57600036600319011261025f57602047604051908152f35b3461025f57602036600319011261025f576004356000526002602052610100604060002060ff60018060a01b0382541691600181015490600281015460038201546004830154916006600585015494015494604051978852602088015260408701526060860152608085015260a0840152818116151560c084015260081c16151560e0820152f35b3461025f57602036600319011261025f5760206104e1600435610e5c565b604051908152f35b3461025f57604036600319011261025f57610502610c1b565b6001600160a01b031660009081526003602052604090208054602435919082101561025f5760209161053391610c31565b90549060031b1c604051908152f35b3461025f57600036600319011261025f576020600154604051908152f35b3461025f57608036600319011261025f57610579610c1b565b6024356044356064359261059860018060a01b03600054163314610d66565b6001600160a01b031690811561088f57821561084a5783156107f5578381116107a45782471061075f576001549260001984146107495760018401600155604051610100810181811067ffffffffffffffff82111761073357604052838152602081018281526006604083019242845260608101868152608082018a815260a08301916000835260c08401966000885260e0850196600188528c600052600260205260406000209560018060a01b039051166bffffffffffffffffffffffff60a01b875416178655516001860155516002850155516003840155516004830155516005820155019151151560ff8019845416911617825551151561ff0082549160081b169061ff00191617905582600052600360205260406000209081549068010000000000000000821015610733576020968694610700847f03c39b92cd8885afcf2ec5c723da94dba0790a3b1037725b8fa8de326f494732966001608097018155610c31565b81549060031b9088821b91600019901b1916179055604051928352428984015260408301526060820152a3604051908152f35b634e487b7160e01b600052604160045260246000fd5b634e487b7160e01b600052601160045260246000fd5b60405162461bcd60e51b815260206004820152601d60248201527f496e73756666696369656e7420636f6e74726163742062616c616e63650000006044820152606490fd5b60405162461bcd60e51b8152602060048201526024808201527f436c6966662063616e6e6f74206578636565642076657374696e6720647572616044820152633a34b7b760e11b6064820152608490fd5b60405162461bcd60e51b815260206004820152602760248201527f56657374696e67206475726174696f6e206d75737420626520677265617465726044820152660207468616e20360cc1b6064820152608490fd5b60405162461bcd60e51b815260206004820152601d60248201527f416d6f756e74206d7573742062652067726561746572207468616e20300000006044820152606490fd5b60405162461bcd60e51b815260206004820152602260248201527f42656e65666963696172792063616e6e6f74206265207a65726f206164647265604482015261737360f01b6064820152608490fd5b3461025f57602036600319011261025f5760043580600052600260205261091360ff60066040600020015460081c16610c5f565b80600052600260205260406000209060ff600683015416610a455781546001600160a01b031691338390036109f45761094b82610e5c565b9283156109af578161099b60008080808960209760057fa6c812047c4dc10f52f9e7943b1b3dfafae864d5e0d4ded081bbbde69dd6ff0d9a0161098f838254610cab565b90555af1610143610dde565b546040519485526001600160a01b031693a3005b60405162461bcd60e51b815260206004820152601f60248201527f4e6f20746f6b656e7320617661696c61626c6520666f722072656c65617365006044820152606490fd5b60405162461bcd60e51b815260206004820152602360248201527f4f6e6c792062656e65666963696172792063616e2072656c6561736520746f6b604482015262656e7360e81b6064820152608490fd5b60405162461bcd60e51b815260206004820152602160248201527f56657374696e67207363686564756c6520686173206265656e207265766f6b656044820152601960fa1b6064820152608490fd5b3461025f57602036600319011261025f57600435610abd60018060a01b03600054163314610d66565b806000526002602052610add60ff60066040600020015460081c16610c5f565b806000526002602052604060002090600682019182549260ff8416610b9a577f740e00656bffeb4991e0c72cb99c21c504d644c1f90eaff0d75112260f588917916020918460005260028352610b4060ff60066040600020015460081c16610c5f565b6001610b57610b4e87610cc5565b82850154610cb8565b9660ff191617905584610b7857546040519485526001600160a01b031693a3005b610b9560008080808960018060a01b038254165af1610143610dde565b61099b565b606460405162461bcd60e51b815260206004820152602060248201527f56657374696e67207363686564756c6520616c7265616479207265766f6b65646044820152fd5b3461025f57602036600319011261025f5760206104e16004358060005260028352610c1660ff60066040600020015460081c16610c5f565b610cc5565b600435906001600160a01b038216820361025f57565b8054821015610c495760005260206000200190600090565b634e487b7160e01b600052603260045260246000fd5b15610c6657565b60405162461bcd60e51b815260206004820152601f60248201527f56657374696e67207363686564756c6520646f6573206e6f74206578697374006044820152606490fd5b9190820180921161074957565b9190820391821161074957565b6000526002602052604060002060ff600682015416610d5f57600281015490610cf2600382015483610cab565b4210610d5857600481015491610d088382610cab565b421015610d4e57610d1b60019142610cb8565b910154818102918183041490151715610749578115610d38570490565b634e487b7160e01b600052601260045260246000fd5b5060019150015490565b5050600090565b6005015490565b15610d6d57565b60405162461bcd60e51b815260206004820152602160248201527f4f6e6c79206f776e65722063616e2063616c6c20746869732066756e6374696f6044820152603760f91b6064820152608490fd5b90601f8019910116810190811067ffffffffffffffff82111761073357604052565b3d15610e19573d9067ffffffffffffffff82116107335760405191610e0d601f8201601f191660200184610dbc565b82523d6000602084013e565b606090565b15610e2557565b60405162461bcd60e51b815260206004820152600f60248201526e151c985b9cd9995c8819985a5b1959608a1b6044820152606490fd5b610ec190806000526002602052610e8060ff60066040600020015460081c16610c5f565b806000526002602052610ea060ff60066040600020015460081c16610c5f565b610ea981610cc5565b90600052600260205260056040600020015490610cb8565b9056fea2646970667358221220e98d33b8c659f1adce828500161880d9daa67cb29536f81fc3b791683f55a4cc64736f6c634300081c0033",
  "linkReferences": {},
  "deployedLinkReferences": {}
}