{
  "_format": "hh-sol-artifact-1",
  "contractName": "TokenVesting",
  "sourceName": "src/templates/TokenVesting.sol",
  "abi": [
    {
      "inputs": [],
      "stateMutability": "nonpayable",
      "type": "constructor"
    },
    {
      "anonymous": false,
      "inputs": [
        {
          "indexed": true,
          "internalType": "address",
          "name": "sender",
          "type": "address"
        },
        {
          "indexed": false,
          "internalType": "uint256",
          "name": "amount",
          "type": "uint256"
        }
      ],
      "name": "Deposit",
      "type": "event"
    },
    {
      "anonymous": false,
      "inputs": [
        {
          "indexed": true,
          "internalType": "address",
          "name": "owner",
          "type": "address"
        },
        {
          "indexed": false,
          "internalType": "uint256",
          "name": "amount",
          "type": "uint256"
        }
      ],
      "name": "EmergencyWithdraw",
      "type": "event"
    },
    {
      "anonymous": false,
      "inputs": [
        {
          "indexed": true,
          "internalType": "uint256",
          "name": "scheduleId",
          "type": "uint256"
        },
        {
          "indexed": true,
          "internalType": "address",
          "name": "beneficiary",
          "type": "address"
        },
        {
          "indexed": false,
          "internalType": "uint256",
          "name": "amount",
          "type": "uint256"
        }
      ],
      "name": "TokensReleased",
      "type": "event"
    },
    {
      "anonymous": false,
      "inputs": [
        {
          "indexed": true,
          "internalType": "uint256",
          "name": "scheduleId",
          "type": "uint256"
        },
        {
          "indexed": true,
          "internalType": "address",
          "name": "beneficiary",
          "type": "address"
        },
        {
          "indexed": false,
          "internalType": "uint256",
          "name": "amount",
          "type": "uint256"
        },
        {
          "indexed": false,
          "internalType": "uint256",
          "name": "startTime",
          "type": "uint256"
        },
        {
          "indexed": false,
          "internalType": "uint256",
          "name": "cliffDuration",
          "type": "uint256"
        },
        {
          "indexed": false,
          "internalType": "uint256",
          "name": "vestingDuration",
          "type": "uint256"
        }
      ],
      "name": "VestingCreated",
      "type": "event"
    },
    {
      "anonymous": false,
      "inputs": [
        {
          "indexed": true,
          "internalType": "uint256",
          "name": "scheduleId",
          "type": "uint256"
        },
        {
          "indexed": true,
          "internalType": "address",
          "name": "beneficiary",
          "type": "address"
        },
        {
          "indexed": false,
          "internalType": "uint256",
          "name": "unvestedAmount",
          "type": "uint256"
        }
      ],
      "name": "VestingRevoked",
      "type": "event"
    },
    {
      "inputs": [
        {
          "internalType": "address",
          "name": "",
          "type": "address"
        },
        {
          "internalType": "uint256",
          "name": "",
          "type": "uint256"
        }
      ],
      "name": "beneficiarySchedules",
      "outputs": [
        {
          "internalType": "uint256",
          "name": "",
          "type": "uint256"
        }
      ],
      "stateMutability": "view",
      "type": "function"
    },
    {
      "inputs": [
        {
          "internalType": "address",
          "name": "beneficiary",
          "type": "address"
        },
        {
          "internalType": "uint256",
          "name": "amount",
          "type": "uint256"
        },
        {
          "internalType": "uint256",
          "name": "cliffDuration",
          "type": "uint256"
        },
        {
          "internalType": "uint256",
          "name": "vestingDuration",
          "type": "uint256"
        }
      ],
      "name": "createVestingSchedule",
      "outputs": [
        {
          "internalType": "uint256",
          "name": "scheduleId",
          "type": "uint256"
        }
      ],
      "stateMutability": "nonpayable",
      "type": "function"
    },
    {
      "inputs": [],
      "name": "emergencyWithdraw",
      "outputs": [],
      "stateMutability": "nonpayable",
      "type": "function"
    },
    {
      "inputs": [],
      "name": "getContractBalance",
      "outputs": [
        {
          "internalType": "uint256",
          "name": "",
          "type": "uint256"
        }
      ],
      "stateMutability": "view",
      "type": "function"
    },
    {
      "inputs": [
        {
          "internalType": "uint256",
          "name": "scheduleId",
          "type": "uint256"
        }
      ],
      "name": "getScheduleDetails",
      "outputs": [
        {
          "internalType": "address",
          "name": "beneficiary",
          "type": "address"
        },
        {
          "internalType": "uint256",
          "name": "totalAmount",
          "type": "uint256"
        },
        {
          "internalType": "uint256",
          "name": "startTime",
          "type": "uint256"
        },
        {
          "internalType": "uint256",
          "name": "cliffDuration",
          "type": "uint256"
        },
        {
          "internalType": "uint256",
          "name": "vestingDuration",
          "type": "uint256"
        },
        {
          "internalType": "uint256",
          "name": "releasedAmount",
          "type": "uint256"
        },
        {
          "internalType": "uint256",
          "name": "vestedAmountNow",
          "type": "uint256"
        },
        {
          "internalType": "uint256",
          "name": "releasableAmountNow",
          "type": "uint256"
        },
        {
          "internalType": "bool",
          "name": "revoked",
          "type": "bool"
        }
      ],
      "stateMutability": "view",
      "type": "function"
    },
    {
      "inputs": [
        {
          "internalType": "address",
          "name": "beneficiary",
          "type": "address"
        }
      ],
      "name": "getSchedulesByBeneficiary",
      "outputs": [
        {
          "internalType": "uint256[]",
          "name": "",
          "type": "uint256[]"
        }
      ],
      "stateMutability": "view",
      "type": "function"
    },
    {
      "inputs": [],
      "name": "owner",
      "outputs": [
        {
          "internalType": "address",
          "name": "",
          "type": "address"
        }
      ],
      "stateMutability": "view",
      "type": "function"
    },
    {
      "inputs": [
        {
          "internalType": "uint256",
          "name": "scheduleId",
          "type": "uint256"
        }
      ],
      "name": "releasableAmount",
      "outputs": [
        {
          "internalType": "uint256",
          "name": "",
          "type": "uint256"
        }
      ],
      "stateMutability": "view",
      "type": "function"
    },
    {
      "inputs": [
        {
          "internalType": "uint256",
          "name": "scheduleId",
          "type": "uint256"
        }
      ],
      "name": "release",
      "outputs": [],
      "stateMutability": "nonpayable",
      "type": "function"
    },
    {
      "inputs": [
        {
          "internalType": "uint256",
          "name": "scheduleId",
          "type": "uint256"
        }
      ],
      "name": "revoke",
      "outputs": [],
      "stateMutability": "nonpayable",
      "type": "function"
    },
    {
      "inputs": [
        {
          "internalType": "uint256",
          "name": "scheduleId",
          "type": "uint256"
        }
      ],
      "name": "vestedAmount",
      "outputs": [
        {
          "internalType": "uint256",
          "name": "",
          "type": "uint256"
        }
      ],
      "stateMutability": "view",
      "type": "function"
    },
    {
      "inputs": [],
      "name": "vestingIdCounter",
      "outputs": [
        {
          "internalType": "uint256",
          "name": "",
          "type": "uint256"
        }
      ],
      "stateMutability": "view",
      "type": "function"
    },
    {
      "inputs": [
        {
          "internalType": "uint256",
          "name": "",
          "type": "uint256"
        }
      ],
      "name": "vestingSchedules",
      "outputs": [
        {
          "internalType": "address",
          "name": "beneficiary",
          "type": "address"
        },
        {
          "internalType": "uint256",
          "name": "totalAmount",
          "type": "uint256"
        },
        {
          "internalType": "uint256",
          "name": "startTime",
          "type": "uint256"
        },
        {
          "internalType": "uint256",
          "name": "cliffDuration",
          "type": "uint256"
        },
        {
          "internalType": "uint256",
          "name": "vestingDuration",
          "type": "uint256"
        },
        {
          "internalType": "uint256",
          "name": "releasedAmount",
          "type": "uint256"
        },
        {
          "internalType": "bool",
          "name": "revoked",
          "type": "bool"
        },
        {
          "internalType": "bool",
          "name": "initialized",
          "type": "bool"
        }
      ],
      "stateMutability": "view",
      "type": "function"
    },
    {
      "stateMutability": "payable",
      "type": "receive"
    }
  ],
  "bytecode": "0x60808060405234602a57600080546001600160a01b03191633178155600155610e3790816100308239f35b600080fdfe60806040526004361015610047575b361561001957600080fd5b6040513481527fe1fffcc4923d04b559f4d29a8bfc6cda04eb5b0d3c460751c2402c5c5cc9109c60203392a2005b60003560e01c80631bfce85314610b1b57806320c5429b146109d157806337bdc99b1461081c5780633f4e8e801461049d57806340f1031e1461047f57806346ca4241146104265780635927fca2146104005780636d3cbe21146103785780636f9fb98a1461035c5780638da5cb5b146103335780639466e9e914610279578063a33b88bf146101a15763db2e21bc0361000e573461019c57600036600319011261019c576000546001600160a01b0316610103338214610ca3565b4790811561016057600080808085610125955af161011f610d1b565b50610d5b565b6000546040519182526001600160a01b0316907f5fafa99d0643513820be26656b45130b01e1c03062e1266bf36f88cbd3bd969590602090a2005b60405162461bcd60e51b81526020600482015260146024820152734e6f2066756e647320746f20776974686472617760601b6044820152606490fd5b600080fd5b3461019c57602036600319011261019c576101206004358060005260026020526101d860ff60066040600020015460081c16610b9c565b6000818152600260208190526040909120805460018201549282015460038301546004840154600585015460068601546001600160a01b0395909516979490939192919061022b9060081c60ff16610b9c565b60ff600661024161023b88610c02565b97610d99565b9701541696604051988952602089015260408801526060870152608086015260a085015260c084015260e08301521515610100820152f35b3461019c57602036600319011261019c576001600160a01b0361029a610b58565b16600052600360205260406000206040518060208354918281520190819360005260206000209060005b81811061031d57505050816102da910382610cf9565b6040519182916020830190602084525180915260408301919060005b818110610304575050500390f35b82518452859450602093840193909201916001016102f6565b82548452602090930192600192830192016102c4565b3461019c57600036600319011261019c576000546040516001600160a01b039091168152602090f35b3461019c57600036600319011261019c57602047604051908152f35b3461019c57602036600319011261019c576004356000526002602052610100604060002060ff60018060a01b0382541691600181015490600281015460038201546004830154916006600585015494015494604051978852602088015260408701526060860152608085015260a0840152818116151560c084015260081c16151560e0820152f35b3461019c57602036600319011261019c57602061041e600435610d99565b604051908152f35b3461019c57604036600319011261019c5761043f610b58565b6001600160a01b031660009081526003602052604090208054602435919082101561019c5760209161047091610b6e565b90549060031b1c604051908152f35b3461019c57600036600319011261019c576020600154604051908152f35b3461019c57608036600319011261019c576104b6610b58565b602435604435606435926104d560018060a01b03600054163314610ca3565b6001600160a01b03169081156107cc578215610787578315610732578381116106e15782471061069c576001549260001984146106865760018401600155604051610100810181811067ffffffffffffffff82111761067057604052838152602081018281526006604083019242845260608101868152608082018a815260a08301916000835260c08401966000885260e0850196600188528c600052600260205260406000209560018060a01b039051166bffffffffffffffffffffffff60a01b875416178655516001860155516002850155516003840155516004830155516005820155019151151560ff8019845416911617825551151561ff0082549160081b169061ff0019161790558260005260036020526040600020908154906801000000000000000082101561067057602096869461063d847f03c39b92cd8885afcf2ec5c723da94dba0790a3b1037725b8fa8de326f494732966001608097018155610b6e565b81549060031b9088821b91600019901b1916179055604051928352428984015260408301526060820152a3604051908152f35b634e487b7160e01b600052604160045260246000fd5b634e487b7160e01b600052601160045260246000fd5b60405162461bcd60e51b815260206004820152601d60248201527f496e73756666696369656e7420636f6e74726163742062616c616e63650000006044820152606490fd5b60405162461bcd60e51b8152602060048201526024808201527f436c6966662063616e6e6f74206578636565642076657374696e6720647572616044820152633a34b7b760e11b6064820152608490fd5b60405162461bcd60e51b815260206004820152602760248201527f56657374696e67206475726174696f6e206d75737420626520677265617465726044820152660207468616e20360cc1b6064820152608490fd5b60405162461bcd60e51b815260206004820152601d60248201527f416d6f756e74206d7573742062652067726561746572207468616e20300000006044820152606490fd5b60405162461bcd60e51b815260206004820152602260248201527f42656e65666963696172792063616e6e6f74206265207a65726f206164647265604482015261737360f01b6064820152608490fd5b3461019c57602036600319011261019c5760043580600052600260205261085060ff60066040600020015460081c16610b9c565b80600052600260205260406000209060ff6006830154166109825781546001600160a01b031691338390036109315761088882610d99565b9283156108ec57816108d860008080808960209760057fa6c812047c4dc10f52f9e7943b1b3dfafae864d5e0d4ded081bbbde69dd6ff0d9a016108cc838254610be8565b90555af161011f610d1b565b546040519485526001600160a01b031693a3005b60405162461bcd60e51b815260206004820152601f60248201527f4e6f20746f6b656e7320617661696c61626c6520666f722072656c65617365006044820152606490fd5b60405162461bcd60e51b815260206004820152602360248201527f4f6e6c792062656e65666963696172792063616e2072656c6561736520746f6b604482015262656e7360e81b6064820152608490fd5b60405162461bcd60e51b815260206004820152602160248201527f56657374696e67207363686564756c6520686173206265656e207265766f6b656044820152601960fa1b6064820152608490fd5b3461019c57602036600319011261019c576004356109fa60018060a01b03600054163314610ca3565b806000526002602052610a1a60ff60066040600020015460081c16610b9c565b806000526002602052604060002090600682019182549260ff8416610ad7577f740e00656bffeb4991e0c72cb99c21c504d644c1f90eaff0d75112260f588917916020918460005260028352610a7d60ff60066040600020015460081c16610b9c565b6001610a94610a8b87610c02565b82850154610bf5565b9660ff191617905584610ab557546040519485526001600160a01b031693a3005b610ad260008080808960018060a01b038254165af161011f610d1b565b6108d8565b606460405162461bcd60e51b815260206004820152602060248201527f56657374696e67207363686564756c6520616c7265616479207265766f6b65646044820152fd5b3461019c57602036600319011261019c57602061041e6004358060005260028352610b5360ff60066040600020015460081c16610b9c565b610c02565b600435906001600160a01b038216820361019c57565b8054821015610b865760005260206000200190600090565b634e487b7160e01b600052603260045260246000fd5b15610ba357565b60405162461bcd60e51b815260206004820152601f60248201527f56657374696e67207363686564756c6520646f6573206e6f74206578697374006044820152606490fd5b9190820180921161068657565b9190820391821161068657565b6000526002602052604060002060ff600682015416610c9c57600281015490610c2f600382015483610be8565b4210610c9557600481015491610c458382610be8565b421015610c8b57610c5860019142610bf5565b910154818102918183041490151715610686578115610c75570490565b634e487b7160e01b600052601260045260246000fd5b5060019150015490565b5050600090565b6005015490565b15610caa57565b60405162461bcd60e51b815260206004820152602160248201527f4f6e6c79206f776e65722063616e2063616c6c20746869732066756e6374696f6044820152603760f91b6064820152608490fd5b90601f8019910116810190811067ffffffffffffffff82111761067057604052565b3d15610d56573d9067ffffffffffffffff82116106705760405191610d4a601f8201601f191660200184610cf9565b82523d6000602084013e565b606090565b15610d6257565b60405162461bcd60e51b815260206004820152600f60248201526e151c985b9cd9995c8819985a5b1959608a1b6044820152606490fd5b610dfe90806000526002602052610dbd60ff60066040600020015460081c16610b9c565b806000526002602052610ddd60ff60066040600020015460081c16610b9c565b610de681610c02565b90600052600260205260056040600020015490610bf5565b9056fea264697066735822122078c650222fd21a7b383d0e03a6fad065e357c05cfe27c1dad379cbde97cbb48f64736f6c634300081c0033",
  "linkReferences": {},
  "deployedLinkReferences": {}
}