{
  "_format": "hh-sol-artifact-1",
  "contractName": "SubnetRegistry",
  "sourceName": "src/SubnetRegistry.sol",
  "abi": [
    {
      "inputs": [
        {
          "internalType": "address",
          "name": "_token",
          "type": "address"
        },
        {
          "internalType": "uint256",
          "name": "_subnetRegistrationCost",
          "type": "uint256"
        },
        {
          "internalType": "uint256",
          "name": "_emissionPerBlock",
          "type": "uint256"
        }
      ],
      "stateMutability": "nonpayable",
      "type": "constructor"
    },
    {
      "inputs": [
        {
          "internalType": "address",
          "name": "owner",
          "type": "address"
        }
      ],
      "name": "OwnableInvalidOwner",
      "type": "error"
    },
    {
      "inputs": [
        {
          "internalType": "address",
          "name": "account",
          "type": "address"
        }
      ],
      "name": "OwnableUnauthorizedAccount",
      "type": "error"
    },
    {
      "inputs": [],
      "name": "ReentrancyGuardReentrantCall",
      "type": "error"
    },
    {
      "inputs": [
        {
          "internalType": "address",
          "name": "token",
          "type": "address"
        }
      ],
      "name": "SafeERC20FailedOperation",
      "type": "error"
    },
    {
      "anonymous": false,
      "inputs": [
        {
          "indexed": true,
          "internalType": "uint256",
          "name": "netuid",
          "type": "uint256"
        },
        {
          "indexed": false,
          "internalType": "uint16",
          "name": "uid",
          "type": "uint16"
        },
        {
          "indexed": true,
          "internalType": "address",
          "name": "hotkey",
          "type": "address"
        },
        {
          "indexed": false,
          "internalType": "uint256",
          "name": "amount",
          "type": "uint256"
        }
      ],
      "name": "EmissionClaimed",
      "type": "event"
    },
    {
      "anonymous": false,
      "inputs": [
        {
          "indexed": true,
          "internalType": "uint256",
          "name": "netuid",
          "type": "uint256"
        },
        {
          "indexed": false,
          "internalType": "uint256",
          "name": "blockNumber",
          "type": "uint256"
        },
        {
          "indexed": false,
          "internalType": "uint256",
          "name": "totalEmission",
          "type": "uint256"
        }
      ],
      "name": "EpochCompleted",
      "type": "event"
    },
    {
      "anonymous": false,
      "inputs": [
        {
          "indexed": true,
          "internalType": "uint256",
          "name": "netuid",
          "type": "uint256"
        },
        {
          "indexed": false,
          "internalType": "uint16",
          "name": "uid",
          "type": "uint16"
        },
        {
          "indexed": true,
          "internalType": "address",
          "name": "hotkey",
          "type": "address"
        }
      ],
      "name": "NodeDeregistered",
      "type": "event"
    },
    {
      "anonymous": false,
      "inputs": [
        {
          "indexed": true,
          "internalType": "uint256",
          "name": "netuid",
          "type": "uint256"
        },
        {
          "indexed": false,
          "internalType": "uint16",
          "name": "uid",
          "type": "uint16"
        },
        {
          "indexed": true,
          "internalType": "address",
          "name": "hotkey",
          "type": "address"
        },
        {
          "indexed": true,
          "internalType": "address",
          "name": "coldkey",
          "type": "address"
        },
        {
          "indexed": false,
          "internalType": "enum SubnetRegistry.NodeType",
          "name": "nodeType",
          "type": "uint8"
        }
      ],
      "name": "NodeRegistered",
      "type": "event"
    },
    {
      "anonymous": false,
      "inputs": [
        {
          "indexed": true,
          "internalType": "uint256",
          "name": "netuid",
          "type": "uint256"
        },
        {
          "indexed": false,
          "internalType": "uint16",
          "name": "uid",
          "type": "uint16"
        },
        {
          "indexed": false,
          "internalType": "uint256",
          "name": "amount",
          "type": "uint256"
        },
        {
          "indexed": false,
          "internalType": "string",
          "name": "reason",
          "type": "string"
        }
      ],
      "name": "NodeSlashed",
      "type": "event"
    },
    {
      "anonymous": false,
      "inputs": [
        {
          "indexed": true,
          "internalType": "address",
          "name": "previousOwner",
          "type": "address"
        },
        {
          "indexed": true,
          "internalType": "address",
          "name": "newOwner",
          "type": "address"
        }
      ],
      "name": "OwnershipTransferred",
      "type": "event"
    },
    {
      "anonymous": false,
      "inputs": [
        {
          "indexed": true,
          "internalType": "address",
          "name": "delegator",
          "type": "address"
        },
        {
          "indexed": true,
          "internalType": "uint256",
          "name": "netuid",
          "type": "uint256"
        },
        {
          "indexed": false,
          "internalType": "uint16",
          "name": "validatorUid",
          "type": "uint16"
        },
        {
          "indexed": false,
          "internalType": "uint256",
          "name": "amount",
          "type": "uint256"
        }
      ],
      "name": "StakeDelegated",
      "type": "event"
    },
    {
      "anonymous": false,
      "inputs": [
        {
          "indexed": true,
          "internalType": "address",
          "name": "delegator",
          "type": "address"
        },
        {
          "indexed": true,
          "internalType": "uint256",
          "name": "netuid",
          "type": "uint256"
        },
        {
          "indexed": false,
          "internalType": "uint16",
          "name": "validatorUid",
          "type": "uint16"
        },
        {
          "indexed": false,
          "internalType": "uint256",
          "name": "amount",
          "type": "uint256"
        }
      ],
      "name": "StakeUndelegated",
      "type": "event"
    },
    {
      "anonymous": false,
      "inputs": [
        {
          "indexed": true,
          "internalType": "uint256",
          "name": "netuid",
          "type": "uint256"
        },
        {
          "indexed": false,
          "internalType": "string",
          "name": "name",
          "type": "string"
        },
        {
          "indexed": true,
          "internalType": "address",
          "name": "owner",
          "type": "address"
        }
      ],
      "name": "SubnetCreated",
      "type": "event"
    },
    {
      "anonymous": false,
      "inputs": [
        {
          "indexed": true,
          "internalType": "uint256",
          "name": "netuid",
          "type": "uint256"
        },
        {
          "indexed": false,
          "internalType": "string",
          "name": "name",
          "type": "string"
        }
      ],
      "name": "SubnetUpdated",
      "type": "event"
    },
    {
      "anonymous": false,
      "inputs": [
        {
          "indexed": true,
          "internalType": "uint256",
          "name": "netuid",
          "type": "uint256"
        },
        {
          "indexed": false,
          "internalType": "uint16",
          "name": "uid",
          "type": "uint16"
        },
        {
          "indexed": false,
          "internalType": "uint256",
          "name": "newTrust",
          "type": "uint256"
        }
      ],
      "name": "TrustUpdated",
      "type": "event"
    },
    {
      "anonymous": false,
      "inputs": [
        {
          "indexed": true,
          "internalType": "uint256",
          "name": "netuid",
          "type": "uint256"
        },
        {
          "indexed": true,
          "internalType": "uint16",
          "name": "validatorUid",
          "type": "uint16"
        },
        {
          "indexed": false,
          "internalType": "bytes32",
          "name": "commitHash",
          "type": "bytes32"
        }
      ],
      "name": "WeightsCommitted",
      "type": "event"
    },
    {
      "anonymous": false,
      "inputs": [
        {
          "indexed": true,
          "internalType": "uint256",
          "name": "netuid",
          "type": "uint256"
        },
        {
          "indexed": true,
          "internalType": "uint16",
          "name": "validatorUid",
          "type": "uint16"
        },
        {
          "indexed": false,
          "internalType": "uint256",
          "name": "weightCount",
          "type": "uint256"
        }
      ],
      "name": "WeightsRevealed",
      "type": "event"
    },
    {
      "anonymous": false,
      "inputs": [
        {
          "indexed": true,
          "internalType": "uint256",
          "name": "netuid",
          "type": "uint256"
        },
        {
          "indexed": true,
          "internalType": "uint16",
          "name": "validatorUid",
          "type": "uint16"
        },
        {
          "indexed": false,
          "internalType": "uint256",
          "name": "weightCount",
          "type": "uint256"
        }
      ],
      "name": "WeightsSet",
      "type": "event"
    },
    {
      "inputs": [],
      "name": "TRUST_MULTIPLIER_BASE",
      "outputs": [
        {
          "internalType": "uint256",
          "name": "",
          "type": "uint256"
        }
      ],
      "stateMutability": "view",
      "type": "function"
    },
    {
      "inputs": [],
      "name": "TRUST_MULTIPLIER_MAX",
      "outputs": [
        {
          "internalType": "uint256",
          "name": "",
          "type": "uint256"
        }
      ],
      "stateMutability": "view",
      "type": "function"
    },
    {
      "inputs": [
        {
          "internalType": "uint256",
          "name": "netuid",
          "type": "uint256"
        },
        {
          "internalType": "uint16",
          "name": "validatorUid",
          "type": "uint16"
        }
      ],
      "name": "autoSlashInactive",
      "outputs": [],
      "stateMutability": "nonpayable",
      "type": "function"
    },
    {
      "inputs": [
        {
          "internalType": "uint256",
          "name": "netuid",
          "type": "uint256"
        },
        {
          "internalType": "uint16",
          "name": "uid",
          "type": "uint16"
        }
      ],
      "name": "claimEmission",
      "outputs": [],
      "stateMutability": "nonpayable",
      "type": "function"
    },
    {
      "inputs": [
        {
          "internalType": "uint256",
          "name": "",
          "type": "uint256"
        },
        {
          "internalType": "address",
          "name": "",
          "type": "address"
        },
        {
          "internalType": "enum SubnetRegistry.NodeType",
          "name": "",
          "type": "uint8"
        }
      ],
      "name": "coldkeyNodeType",
      "outputs": [
        {
          "internalType": "bool",
          "name": "",
          "type": "bool"
        }
      ],
      "stateMutability": "view",
      "type": "function"
    },
    {
      "inputs": [],
      "name": "commitMinDelay",
      "outputs": [
        {
          "internalType": "uint256",
          "name": "",
          "type": "uint256"
        }
      ],
      "stateMutability": "view",
      "type": "function"
    },
    {
      "inputs": [],
      "name": "commitRevealWindow",
      "outputs": [
        {
          "internalType": "uint256",
          "name": "",
          "type": "uint256"
        }
      ],
      "stateMutability": "view",
      "type": "function"
    },
    {
      "inputs": [
        {
          "internalType": "uint256",
          "name": "netuid",
          "type": "uint256"
        },
        {
          "internalType": "bytes32",
          "name": "commitHash",
          "type": "bytes32"
        }
      ],
      "name": "commitWeights",
      "outputs": [],
      "stateMutability": "nonpayable",
      "type": "function"
    },
    {
      "inputs": [
        {
          "internalType": "string",
          "name": "name",
          "type": "string"
        },
        {
          "internalType": "uint256",
          "name": "maxNodes",
          "type": "uint256"
        },
        {
          "internalType": "uint256",
          "name": "minStake",
          "type": "uint256"
        },
        {
          "internalType": "uint256",
          "name": "tempo",
          "type": "uint256"
        }
      ],
      "name": "createSubnet",
      "outputs": [
        {
          "internalType": "uint256",
          "name": "netuid",
          "type": "uint256"
        }
      ],
      "stateMutability": "nonpayable",
      "type": "function"
    },
    {
      "inputs": [
        {
          "internalType": "uint256",
          "name": "netuid",
          "type": "uint256"
        },
        {
          "internalType": "uint16",
          "name": "validatorUid",
          "type": "uint16"
        },
        {
          "internalType": "uint256",
          "name": "amount",
          "type": "uint256"
        }
      ],
      "name": "delegate",
      "outputs": [],
      "stateMutability": "nonpayable",
      "type": "function"
    },
    {
      "inputs": [
        {
          "internalType": "address",
          "name": "",
          "type": "address"
        },
        {
          "internalType": "bytes32",
          "name": "",
          "type": "bytes32"
        }
      ],
      "name": "delegations",
      "outputs": [
        {
          "internalType": "uint256",
          "name": "",
          "type": "uint256"
        }
      ],
      "stateMutability": "view",
      "type": "function"
    },
    {
      "inputs": [
        {
          "internalType": "uint256",
          "name": "netuid",
          "type": "uint256"
        },
        {
          "internalType": "uint16",
          "name": "uid",
          "type": "uint16"
        }
      ],
      "name": "deregisterNode",
      "outputs": [],
      "stateMutability": "nonpayable",
      "type": "function"
    },
    {
      "inputs": [],
      "name": "emissionPerBlock",
      "outputs": [
        {
          "internalType": "uint256",
          "name": "",
          "type": "uint256"
        }
      ],
      "stateMutability": "view",
      "type": "function"
    },
    {
      "inputs": [
        {
          "internalType": "uint256",
          "name": "amount",
          "type": "uint256"
        }
      ],
      "name": "fundEmissionPool",
      "outputs": [],
      "stateMutability": "nonpayable",
      "type": "function"
    },
    {
      "inputs": [
        {
          "internalType": "address",
          "name": "delegator",
          "type": "address"
        },
        {
          "internalType": "uint256",
          "name": "netuid",
          "type": "uint256"
        },
        {
          "internalType": "uint16",
          "name": "validatorUid",
          "type": "uint16"
        }
      ],
      "name": "getDelegation",
      "outputs": [
        {
          "internalType": "uint256",
          "name": "",
          "type": "uint256"
        }
      ],
      "stateMutability": "view",
      "type": "function"
    },
    {
      "inputs": [
        {
          "internalType": "uint256",
          "name": "netuid",
          "type": "uint256"
        }
      ],
      "name": "getMetagraph",
      "outputs": [
        {
          "internalType": "address[]",
          "name": "hotkeys",
          "type": "address[]"
        },
        {
          "internalType": "address[]",
          "name": "coldkeys",
          "type": "address[]"
        },
        {
          "internalType": "uint256[]",
          "name": "stakes",
          "type": "uint256[]"
        },
        {
          "internalType": "uint256[]",
          "name": "ranks",
          "type": "uint256[]"
        },
        {
          "internalType": "uint256[]",
          "name": "incentives",
          "type": "uint256[]"
        },
        {
          "internalType": "uint256[]",
          "name": "emissions",
          "type": "uint256[]"
        },
        {
          "internalType": "uint8[]",
          "name": "nodeTypes",
          "type": "uint8[]"
        },
        {
          "internalType": "bool[]",
          "name": "activeFlags",
          "type": "bool[]"
        }
      ],
      "stateMutability": "view",
      "type": "function"
    },
    {
      "inputs": [
        {
          "internalType": "uint256",
          "name": "netuid",
          "type": "uint256"
        },
        {
          "internalType": "uint16",
          "name": "uid",
          "type": "uint16"
        }
      ],
      "name": "getNode",
      "outputs": [
        {
          "internalType": "address",
          "name": "hotkey",
          "type": "address"
        },
        {
          "internalType": "address",
          "name": "coldkey",
          "type": "address"
        },
        {
          "internalType": "uint8",
          "name": "nodeType",
          "type": "uint8"
        },
        {
          "internalType": "uint256",
          "name": "stake",
          "type": "uint256"
        },
        {
          "internalType": "uint256",
          "name": "delegatedStake",
          "type": "uint256"
        },
        {
          "internalType": "uint256",
          "name": "rank",
          "type": "uint256"
        },
        {
          "internalType": "uint256",
          "name": "incentive",
          "type": "uint256"
        },
        {
          "internalType": "uint256",
          "name": "emission",
          "type": "uint256"
        },
        {
          "internalType": "uint256",
          "name": "trust",
          "type": "uint256"
        },
        {
          "internalType": "bool",
          "name": "active",
          "type": "bool"
        }
      ],
      "stateMutability": "view",
      "type": "function"
    },
    {
      "inputs": [
        {
          "internalType": "uint256",
          "name": "netuid",
          "type": "uint256"
        }
      ],
      "name": "getSubnet",
      "outputs": [
        {
          "internalType": "string",
          "name": "name",
          "type": "string"
        },
        {
          "internalType": "address",
          "name": "subnetOwner",
          "type": "address"
        },
        {
          "internalType": "uint256",
          "name": "maxNodes",
          "type": "uint256"
        },
        {
          "internalType": "uint256",
          "name": "emissionShare",
          "type": "uint256"
        },
        {
          "internalType": "uint256",
          "name": "tempo",
          "type": "uint256"
        },
        {
          "internalType": "uint256",
          "name": "nodeCount",
          "type": "uint256"
        },
        {
          "internalType": "bool",
          "name": "active",
          "type": "bool"
        }
      ],
      "stateMutability": "view",
      "type": "function"
    },
    {
      "inputs": [],
      "name": "getSubnetCount",
      "outputs": [
        {
          "internalType": "uint256",
          "name": "",
          "type": "uint256"
        }
      ],
      "stateMutability": "view",
      "type": "function"
    },
    {
      "inputs": [
        {
          "internalType": "uint256",
          "name": "netuid",
          "type": "uint256"
        },
        {
          "internalType": "uint16",
          "name": "uid",
          "type": "uint16"
        }
      ],
      "name": "getTrust",
      "outputs": [
        {
          "internalType": "uint256",
          "name": "",
          "type": "uint256"
        }
      ],
      "stateMutability": "view",
      "type": "function"
    },
    {
      "inputs": [
        {
          "internalType": "uint256",
          "name": "netuid",
          "type": "uint256"
        },
        {
          "internalType": "address",
          "name": "hotkey",
          "type": "address"
        }
      ],
      "name": "getUidByHotkey",
      "outputs": [
        {
          "internalType": "uint16",
          "name": "",
          "type": "uint16"
        }
      ],
      "stateMutability": "view",
      "type": "function"
    },
    {
      "inputs": [
        {
          "internalType": "uint256",
          "name": "netuid",
          "type": "uint256"
        },
        {
          "internalType": "uint16",
          "name": "validatorUid",
          "type": "uint16"
        }
      ],
      "name": "getWeights",
      "outputs": [
        {
          "internalType": "uint16[]",
          "name": "uids",
          "type": "uint16[]"
        },
        {
          "internalType": "uint16[]",
          "name": "weights",
          "type": "uint16[]"
        }
      ],
      "stateMutability": "view",
      "type": "function"
    },
    {
      "inputs": [
        {
          "internalType": "uint256",
          "name": "",
          "type": "uint256"
        },
        {
          "internalType": "address",
          "name": "",
          "type": "address"
        }
      ],
      "name": "hotkeyToUid",
      "outputs": [
        {
          "internalType": "uint16",
          "name": "",
          "type": "uint16"
        }
      ],
      "stateMutability": "view",
      "type": "function"
    },
    {
      "inputs": [
        {
          "internalType": "uint256",
          "name": "",
          "type": "uint256"
        },
        {
          "internalType": "address",
          "name": "",
          "type": "address"
        }
      ],
      "name": "isRegistered",
      "outputs": [
        {
          "internalType": "bool",
          "name": "",
          "type": "bool"
        }
      ],
      "stateMutability": "view",
      "type": "function"
    },
    {
      "inputs": [],
      "name": "maxWeightAge",
      "outputs": [
        {
          "internalType": "uint256",
          "name": "",
          "type": "uint256"
        }
      ],
      "stateMutability": "view",
      "type": "function"
    },
    {
      "inputs": [],
      "name": "nextNetuid",
      "outputs": [
        {
          "internalType": "uint256",
          "name": "",
          "type": "uint256"
        }
      ],
      "stateMutability": "view",
      "type": "function"
    },
    {
      "inputs": [
        {
          "internalType": "uint256",
          "name": "",
          "type": "uint256"
        },
        {
          "internalType": "uint16",
          "name": "",
          "type": "uint16"
        }
      ],
      "name": "nodes",
      "outputs": [
        {
          "internalType": "address",
          "name": "hotkey",
          "type": "address"
        },
        {
          "internalType": "address",
          "name": "coldkey",
          "type": "address"
        },
        {
          "internalType": "enum SubnetRegistry.NodeType",
          "name": "nodeType",
          "type": "uint8"
        },
        {
          "internalType": "uint256",
          "name": "stake",
          "type": "uint256"
        },
        {
          "internalType": "uint256",
          "name": "delegatedStake",
          "type": "uint256"
        },
        {
          "internalType": "uint256",
          "name": "lastUpdate",
          "type": "uint256"
        },
        {
          "internalType": "uint16",
          "name": "uid",
          "type": "uint16"
        },
        {
          "internalType": "bool",
          "name": "active",
          "type": "bool"
        },
        {
          "internalType": "uint256",
          "name": "incentive",
          "type": "uint256"
        },
        {
          "internalType": "uint256",
          "name": "trust",
          "type": "uint256"
        },
        {
          "internalType": "uint256",
          "name": "rank",
          "type": "uint256"
        },
        {
          "internalType": "uint256",
          "name": "emission",
          "type": "uint256"
        }
      ],
      "stateMutability": "view",
      "type": "function"
    },
    {
      "inputs": [],
      "name": "owner",
      "outputs": [
        {
          "internalType": "address",
          "name": "",
          "type": "address"
        }
      ],
      "stateMutability": "view",
      "type": "function"
    },
    {
      "inputs": [
        {
          "internalType": "uint256",
          "name": "netuid",
          "type": "uint256"
        },
        {
          "internalType": "address",
          "name": "hotkey",
          "type": "address"
        },
        {
          "internalType": "enum SubnetRegistry.NodeType",
          "name": "nodeType",
          "type": "uint8"
        },
        {
          "internalType": "uint256",
          "name": "stakeAmount",
          "type": "uint256"
        }
      ],
      "name": "registerNode",
      "outputs": [
        {
          "internalType": "uint16",
          "name": "uid",
          "type": "uint16"
        }
      ],
      "stateMutability": "nonpayable",
      "type": "function"
    },
    {
      "inputs": [],
      "name": "renounceOwnership",
      "outputs": [],
      "stateMutability": "nonpayable",
      "type": "function"
    },
    {
      "inputs": [
        {
          "internalType": "uint256",
          "name": "netuid",
          "type": "uint256"
        },
        {
          "internalType": "uint16[]",
          "name": "uids",
          "type": "uint16[]"
        },
        {
          "internalType": "uint16[]",
          "name": "weights",
          "type": "uint16[]"
        },
        {
          "internalType": "bytes32",
          "name": "salt",
          "type": "bytes32"
        }
      ],
      "name": "revealWeights",
      "outputs": [],
      "stateMutability": "nonpayable",
      "type": "function"
    },
    {
      "inputs": [
        {
          "internalType": "uint256",
          "name": "netuid",
          "type": "uint256"
        }
      ],
      "name": "runEpoch",
      "outputs": [],
      "stateMutability": "nonpayable",
      "type": "function"
    },
    {
      "inputs": [
        {
          "internalType": "uint256",
          "name": "_blocks",
          "type": "uint256"
        }
      ],
      "name": "setCommitMinDelay",
      "outputs": [],
      "stateMutability": "nonpayable",
      "type": "function"
    },
    {
      "inputs": [
        {
          "internalType": "uint256",
          "name": "_blocks",
          "type": "uint256"
        }
      ],
      "name": "setCommitRevealWindow",
      "outputs": [],
      "stateMutability": "nonpayable",
      "type": "function"
    },
    {
      "inputs": [
        {
          "internalType": "uint256",
          "name": "amount",
          "type": "uint256"
        }
      ],
      "name": "setEmissionPerBlock",
      "outputs": [],
      "stateMutability": "nonpayable",
      "type": "function"
    },
    {
      "inputs": [
        {
          "internalType": "uint256",
          "name": "_blocks",
          "type": "uint256"
        }
      ],
      "name": "setMaxWeightAge",
      "outputs": [],
      "stateMutability": "nonpayable",
      "type": "function"
    },
    {
      "inputs": [
        {
          "internalType": "uint256",
          "name": "_basisPoints",
          "type": "uint256"
        }
      ],
      "name": "setSlashPercentage",
      "outputs": [],
      "stateMutability": "nonpayable",
      "type": "function"
    },
    {
      "inputs": [
        {
          "internalType": "uint256",
          "name": "cost",
          "type": "uint256"
        }
      ],
      "name": "setSubnetRegistrationCost",
      "outputs": [],
      "stateMutability": "nonpayable",
      "type": "function"
    },
    {
      "inputs": [
        {
          "internalType": "uint256",
          "name": "netuid",
          "type": "uint256"
        },
        {
          "internalType": "uint16[]",
          "name": "uids",
          "type": "uint16[]"
        },
        {
          "internalType": "uint16[]",
          "name": "weights",
          "type": "uint16[]"
        }
      ],
      "name": "setWeights",
      "outputs": [],
      "stateMutability": "nonpayable",
      "type": "function"
    },
    {
      "inputs": [
        {
          "internalType": "address",
          "name": "_verifier",
          "type": "address"
        }
      ],
      "name": "setZkmlVerifier",
      "outputs": [],
      "stateMutability": "nonpayable",
      "type": "function"
    },
    {
      "inputs": [
        {
          "internalType": "uint256",
          "name": "netuid",
          "type": "uint256"
        },
        {
          "internalType": "uint16",
          "name": "uid",
          "type": "uint16"
        },
        {
          "internalType": "uint256",
          "name": "basisPoints",
          "type": "uint256"
        },
        {
          "internalType": "string",
          "name": "reason",
          "type": "string"
        }
      ],
      "name": "slashNode",
      "outputs": [],
      "stateMutability": "nonpayable",
      "type": "function"
    },
    {
      "inputs": [],
      "name": "slashPercentage",
      "outputs": [
        {
          "internalType": "uint256",
          "name": "",
          "type": "uint256"
        }
      ],
      "stateMutability": "view",
      "type": "function"
    },
    {
      "inputs": [],
      "name": "subnetRegistrationCost",
      "outputs": [
        {
          "internalType": "uint256",
          "name": "",
          "type": "uint256"
        }
      ],
      "stateMutability": "view",
      "type": "function"
    },
    {
      "inputs": [
        {
          "internalType": "uint256",
          "name": "",
          "type": "uint256"
        }
      ],
      "name": "subnets",
      "outputs": [
        {
          "internalType": "string",
          "name": "name",
          "type": "string"
        },
        {
          "internalType": "address",
          "name": "owner",
          "type": "address"
        },
        {
          "internalType": "uint256",
          "name": "maxNodes",
          "type": "uint256"
        },
        {
          "internalType": "uint256",
          "name": "emissionShare",
          "type": "uint256"
        },
        {
          "internalType": "uint256",
          "name": "tempo",
          "type": "uint256"
        },
        {
          "internalType": "uint256",
          "name": "lastEpochBlock",
          "type": "uint256"
        },
        {
          "internalType": "uint256",
          "name": "minStake",
          "type": "uint256"
        },
        {
          "internalType": "uint256",
          "name": "immunityPeriod",
          "type": "uint256"
        },
        {
          "internalType": "uint256",
          "name": "nodeCount",
          "type": "uint256"
        },
        {
          "internalType": "bool",
          "name": "active",
          "type": "bool"
        },
        {
          "internalType": "uint256",
          "name": "createdAt",
          "type": "uint256"
        }
      ],
      "stateMutability": "view",
      "type": "function"
    },
    {
      "inputs": [],
      "name": "token",
      "outputs": [
        {
          "internalType": "contract IERC20",
          "name": "",
          "type": "address"
        }
      ],
      "stateMutability": "view",
      "type": "function"
    },
    {
      "inputs": [],
      "name": "totalEmissionShares",
      "outputs": [
        {
          "internalType": "uint256",
          "name": "",
          "type": "uint256"
        }
      ],
      "stateMutability": "view",
      "type": "function"
    },
    {
      "inputs": [
        {
          "internalType": "address",
          "name": "newOwner",
          "type": "address"
        }
      ],
      "name": "transferOwnership",
      "outputs": [],
      "stateMutability": "nonpayable",
      "type": "function"
    },
    {
      "inputs": [
        {
          "internalType": "uint256",
          "name": "netuid",
          "type": "uint256"
        },
        {
          "internalType": "uint16",
          "name": "validatorUid",
          "type": "uint16"
        },
        {
          "internalType": "uint256",
          "name": "amount",
          "type": "uint256"
        }
      ],
      "name": "undelegate",
      "outputs": [],
      "stateMutability": "nonpayable",
      "type": "function"
    },
    {
      "inputs": [
        {
          "internalType": "uint256",
          "name": "netuid",
          "type": "uint256"
        },
        {
          "internalType": "uint256",
          "name": "maxNodes",
          "type": "uint256"
        },
        {
          "internalType": "uint256",
          "name": "minStake",
          "type": "uint256"
        },
        {
          "internalType": "uint256",
          "name": "tempo",
          "type": "uint256"
        },
        {
          "internalType": "uint256",
          "name": "immunityPeriod",
          "type": "uint256"
        }
      ],
      "name": "updateSubnet",
      "outputs": [],
      "stateMutability": "nonpayable",
      "type": "function"
    },
    {
      "inputs": [
        {
          "internalType": "uint256",
          "name": "",
          "type": "uint256"
        },
        {
          "internalType": "uint16",
          "name": "",
          "type": "uint16"
        }
      ],
      "name": "weightCommits",
      "outputs": [
        {
          "internalType": "bytes32",
          "name": "commitHash",
          "type": "bytes32"
        },
        {
          "internalType": "uint256",
          "name": "commitBlock",
          "type": "uint256"
        },
        {
          "internalType": "bool",
          "name": "revealed",
          "type": "bool"
        }
      ],
      "stateMutability": "view",
      "type": "function"
    },
    {
      "inputs": [],
      "name": "zkmlVerifier",
      "outputs": [
        {
          "internalType": "address",
          "name": "",
          "type": "address"
        }
      ],
      "stateMutability": "view",
      "type": "function"
    }
  ],
  "bytecode": "0x60a03461016d57601f61406138819003918201601f19168301916001600160401b038311848410176101725780849260609460405283398101031261016d5780516001600160a01b038116919082900361016d57604060208201519101519133156101575760008054336001600160a01b03198216811783556040519290916001600160a01b0316907f8be0079c531659141344cd1fd0a4f28419497f9722a3daafe3b4186f6b6457e09080a36001805560016002556101f4600f55611c20601055610258601155600a60125581156101255750608052600355600455604051613ed89081610189823960805181818161032f015281816106d001528181610b720152818161141f01528181611ee20152818161296601528181612b010152612c490152f35b62461bcd60e51b815260206004820152600d60248201526c24b73b30b634b2103a37b5b2b760991b6044820152606490fd5b631e4fbdf760e01b600052600060045260246000fd5b600080fd5b634e487b7160e01b600052604160045260246000fdfe6080604052600436101561001257600080fd5b60003560e01c80631347608514612c2657806314511bf71461267057806314d5988814612bc85780631602ab2914612ba75780631aefa1b614612b895780631ba60b7014612a175780631caa9070146128d65780632b4b37531461288a578063393ebbf8146128315780633a05eaa9146126b75780633c8133941461268e5780633d5316dd1461267057806343219f031461260f57806346a655af146125ee578063475726f71461252b5780634a77ac981461250d5780635071b8911461248857806358ca7504146123f6578063617078fb146123195780636b54b30914612116578063710fe5cd146120f5578063715018a61461209c5780637339e8811461202157806375e6ee1714611b5f5780638272f0b814611b4157806383000f4f146118da578063842443dc146114be5780638da5cb5b146114955780639e1611bf146112c45780639e793787146112a6578063a4ce91c614611263578063b53c39b41461121b578063b81f6e18146111ce578063bd58199a146111b0578063bddee43c1461118f578063c0843eeb14611148578063c95986a21461112a578063cc2d54c41461110c578063d19e2ce8146110eb578063d2d9850914611022578063dec74f1814610e9c578063dfbeffff14610d24578063e485c04c14610cfa578063ed23dcba14610cdd578063f2fde38b14610c54578063f39e9f4b14610802578063f46e1e1f14610637578063f6ec03f11461061a578063fa6139581461035e578063fc0c546a146103195763fffc4bbf1461024d57600080fd5b34610314576040366003190112610314576040610268612c6f565b60043560005260086020528160002061ffff60009216825260205220805461028f81613337565b9061029981613337565b9260005b8281106102d2576102c0846102ce87604051938493604085526040850190612f1f565b908382036020850152612f1f565b0390f35b8061ffff6102e260019385613225565b5054166102ef828761337c565b5261ffff6102fd8285613225565b505460101c1661030d828861337c565b520161029d565b600080fd5b34610314576000366003190112610314576040517f00000000000000000000000000000000000000000000000000000000000000006001600160a01b03168152602090f35b346103145760203660031901126103145760043580600052600660205260086040600020015461038d81613337565b9161039782613337565b926103a183613337565b926103ab81613337565b946103b582613337565b6103be83613337565b906103c884613320565b976103d6604051998a612d3e565b8489526103e285613320565b60208a019890601f1901368a376103f886613320565b97610406604051998a612d3e565b86895261041287613320565b60208a0190601f190136823760005b61ffff81169089821015610523576000848152600760209081526040808320858452909152902080546001600160a01b031661045d848e61337c565b52600181015460ff906001600160a01b03811661047a868e61337c565b5261048e6002840154600385015490612fdb565b610498868a61337c565b5260088301546104a8868b61337c565b5260068301546104b8868c61337c565b5260098301546104c8868d61337c565b5260a01c1690600282101561050d578f9360ff8f936104fe936005916104f1856105089a61337c565b52015460101c169261337c565b9015159052613369565b610421565b634e487b7160e01b600052602160045260246000fd5b5050979895999650509089939291604051998a996101008b526101008b0161054a91612eae565b8a810360208c015261055b91612eae565b89810360408b015261056c91612eeb565b88810360608a015261057d91612eeb565b878103608089015261058e91612eeb565b86810360a088015261059f91612eeb565b9085820360c08701525190818152602001929060005b8181106105fe5750505060209084830360e0860152519182815201919060005b8181106105e3575050500390f35b825115158452859450602093840193909201916001016105d5565b825160ff168552879650602094850194909201916001016105b5565b346103145760003660031901126103145760206040516127108152f35b346103145761064536612c80565b61064d613d97565b80156107c85782600052600760205260408060002060009061ffff851682526020522060ff600582015460101c161561078c5760ff600182015460a01c1691600283101561050d576003610783926106c860017f027aaa6a9479088edb91e883282880ac91e93b04a07c8a730242e0ed59c545989614612f9d565b6106f48330337f0000000000000000000000000000000000000000000000000000000000000000613d4e565b604080516020810189815260f089901b6001600160f01b0319169282019290925261072c81604281015b03601f198101835282612d3e565b51902033600052600b6020526040600020906000526020526040600020610754848254612fdb565b905501610762828254612fdb565b90556040519182913395836020909392919361ffff60408201951681520152565b0390a360018055005b60405162461bcd60e51b815260206004820152601460248201527356616c696461746f72206e6f742061637469766560601b6044820152606490fd5b60405162461bcd60e51b81526020600482015260126024820152710416d6f756e74206d757374206265203e20360741b6044820152606490fd5b34610314576080366003190112610314576004356001600160401b03811161031457610832903690600401612e51565b60643590602435610841613d97565b81151580610c49575b15610c155780151580610c09575b15610bd1578215610b9c5760035480610b6a575b506002549261087a846130b9565b6002556040519161016083018381106001600160401b03821117610b54576040526001600160401b038411610b54576040516108c0601f8601601f191660200182612d3e565b84815236858801116103145784876020830137600060208683010152835260208301913383526040840191825260608401906103e882526080850190815260a0850143815260c0860190604435825260e0870192611c20845261010088019460008652610120890196600188526101408a0198428a528c600052600660205260406000209a518051906001600160401b038211610b54576109618d54612ce9565b601f8111610b0c575b506020908d601f8411600114610a9557509180600a9d9c9a98969492610a129c9a989694600092610a8a575b50508160011b916000199060031b1c1916178d555b5160018d0180546001600160a01b039092166001600160a01b03199092169190911790555160028c01555160038b01555160048a01555160058901555160068801555160078701555160088601555160098501805460ff191691151560ff16919091179055565b519101556005546103e88101809111610a74577faa2647b7670da77b5fc5f9e4056c00263527212d34d09e44efabd660c88c347a610a65602095859360055560405191829188835233968984019161301b565b0390a360018055604051908152f35b634e487b7160e01b600052601160045260246000fd5b015190503880610996565b9190601f19841692600052816000209260005b818110610af4575092600192600a9f9e9c9a9896949286610a129f9d9b99979410610adb575b505050811b018d556109ab565b015160001960f88460031b161c19169055388080610ace565b92936020600181928786015181550195019301610aa8565b8d6000526020600020601f840160051c81019160208510610b4a575b601f0160051c01905b818110610b3e575061096a565b60008155600101610b31565b9091508190610b28565b634e487b7160e01b600052604160045260246000fd5b610b969030337f0000000000000000000000000000000000000000000000000000000000000000613d4e565b8461086c565b60405162461bcd60e51b815260206004820152600d60248201526c496e76616c69642074656d706f60981b6044820152606490fd5b60405162461bcd60e51b815260206004820152601060248201526f496e76616c6964206d61784e6f64657360801b6044820152606490fd5b50611000811115610858565b60405162461bcd60e51b815260206004820152600c60248201526b496e76616c6964206e616d6560a01b6044820152606490fd5b50604082111561084a565b3461031457602036600319011261031457610c6d612cbb565b610c75613d25565b6001600160a01b03168015610cc757600080546001600160a01b03198116831782556001600160a01b0316907f8be0079c531659141344cd1fd0a4f28419497f9722a3daafe3b4186f6b6457e09080a3005b631e4fbdf760e01b600052600060045260246000fd5b34610314576000366003190112610314576020604051613a988152f35b3461031457602036600319011261031457610d13613d97565b610d1e600435613390565b60018055005b346103145760403660031901126103145760043560243590806000526009602052604060002060018060a01b033316600052602052610d6a60ff6040600020541661303c565b80600052600a602052604060002060018060a01b03331660005260205261ffff6040600020541691816000526007602052604060002061ffff841660005260205260ff60016040600020015460a01c16600281101561050d576001610dcf9114612f9d565b816000526007602052604060002061ffff8416600052602052610dff60ff60056040600020015460101c16612f64565b60405160608101918183106001600160401b03841117610b5457610e936020927f9d7068cbd38a9652b8b283a496928bcf42dd01fb68865e13f7f279256529175d94604052828152600284820143815260408301906000825288600052600c875260408060002060009061ffff8d1682528952209351845551600184015551151591019060ff801983541691151516179055565b604051908152a3005b346103145760a0366003190112610314576004358060005260066020526040600020610ece60ff600983015416613079565b60018101546001600160a01b03163314801561100e575b610eee906132e3565b60243560028201556044356006820155606435600482015560843560078201556040519060208252600090805490610f2582612ce9565b91826020860152600181169081600014610fcb5750600114610f6b575b847f1f24371ed79af1971a700f92176a2cb13437ef4dbd2c6c6b9f2ad8f5fc3e8f9485850386a2005b600090815260208120939250905b808210610fb057509091508101604001817f1f24371ed79af1971a700f92176a2cb13437ef4dbd2c6c6b9f2ad8f5fc3e8f94610f42565b91926001816020925460408588010152019101909291610f79565b859450604092507f1f24371ed79af1971a700f92176a2cb13437ef4dbd2c6c6b9f2ad8f5fc3e8f949593915060ff191682840152151560051b8201019192610f42565b506000546001600160a01b03163314610ee5565b3461031457604036600319011261031457604061103d612c6f565b60043560005260076020528160002061ffff6000921682526020522060018060a01b03815416600182015460ff8160a01c1692600284101561050d57610140936002820154600383015460088401549060068501549260098601549460ff6005600789015498015460101c1697604051998a5260018060a01b031660208a015260408901526060880152608087015260a086015260c085015260e08401526101008301521515610120820152f35b3461031457602036600319011261031457611104613d25565b600435601155005b34610314576000366003190112610314576020601254604051908152f35b34610314576000366003190112610314576020600454604051908152f35b3461031457604036600319011261031457611161612c6f565b600435600052600760205261ffff604060002091166000526020526020600760406000200154604051908152f35b34610314576020366003190112610314576111a8613d25565b600435601055005b34610314576000366003190112610314576020600f54604051908152f35b34610314576040366003190112610314576111e7612ca5565b600435600052600960205260406000209060018060a01b0316600052602052602060ff604060002054166040519015158152f35b34610314576040366003190112610314576001600160a01b0361123c612cbb565b16600052600b60205260406000206024356000526020526020604060002054604051908152f35b346103145760203660031901126103145761127c612cbb565b611284613d25565b600e80546001600160a01b0319166001600160a01b0392909216919091179055005b34610314576000366003190112610314576020600354604051908152f35b346103145760403660031901126103145760043560406112e2612c6f565b6112ea613d97565b8260005260076020528160002061ffff60009216825260205220600581019182549261131b60ff8560101c16612f64565b600183019360018060a01b0385541633148015611481575b61133c906132e3565b61135c600485015484600052600660205260076040600020015490612fdb565b431061144a5762ff000019169055600081815260096020908152604080832085546001600160a01b039081168552908352818420805460ff19169055848452600d8352818420875491821685529092529091206113bf9160a01c60ff1690612cd1565b60ff1981541690556000526006602052600860406000200180548015610a745760001901905560006002820191816113ff60098554930192835490612fdb565b9355558061140d5760018055005b905461144391906001600160a01b03167f0000000000000000000000000000000000000000000000000000000000000000613db9565b8080610d1e565b60405162461bcd60e51b815260206004820152600f60248201526e125b5b5d5b9a5d1e481c195c9a5bd9608a1b6044820152606490fd5b506000546001600160a01b03163314611333565b34610314576000366003190112610314576000546040516001600160a01b039091168152602090f35b34610314576080366003190112610314576004356024356001600160401b038111610314576114f1903690600401612e7e565b6044929192356001600160401b03811161031457611513903690600401612e7e565b6115218184969396146130c8565b61152c831515613106565b60008481526009602090815260408083203384529091529020546115529060ff1661303c565b83600052600a602052604060002060018060a01b03331660005260205261ffff604060002054169484600052600760205260408060002060009061ffff89168252602052209260ff600185015460a01c16600281101561050d5760016115b89114612f9d565b6115cb60ff600586015460101c16612f64565b85600052600c60205260408060002060009061ffff8a1682526020522080549081156118a357600281019182549160ff831661186b576001015461161160125482612fdb565b43106118305760115461162391612fdb565b43116117f3578760405161165b60208261164b61164483830180978c6132a8565b8c8c6132a8565b6064358152038084520182612d3e565b519020036117be5760ff1916600117905560005b8581106117495750856000526008602052604060002061ffff881660005260205261169d60406000206131f1565b61ffff87169260005b8681106116e35788887ffba62aad89c6c437bf733319e2bb0ee93cb42499851f7a0b45088b25f3a2c49360208a8a600443910155604051908152a3005b60019088600052600860205261174360408060002060009089825260205220611715611710848c89613142565b613168565b9061ffff61172761171086898c613142565b816040519461173586612d23565b16845216602083015261323d565b016116a6565b8061177a61175d6117106001948a87613142565b89600052600660205261ffff600860406000200154911610613177565b8760005260076020526117b860ff600560408a61179f6117108784600020938b613142565b9061ffff60009216825260205220015460101c166131b1565b0161166f565b60405162461bcd60e51b815260206004820152600d60248201526c090c2e6d040dad2e6dac2e8c6d609b1b6044820152606490fd5b60405162461bcd60e51b815260206004820152601560248201527414995d99585b081dda5b991bddc8195e1c1a5c9959605a1b6044820152606490fd5b60405162461bcd60e51b8152602060048201526013602482015272151bdbc819585c9b1e481d1bc81c995d99585b606a1b6044820152606490fd5b60405162461bcd60e51b815260206004820152601060248201526f105b1c9958591e481c995d99585b195960821b6044820152606490fd5b60405162461bcd60e51b815260206004820152600f60248201526e139bc818dbdb5b5a5d08199bdd5b99608a1b6044820152606490fd5b34610314576060366003190112610314576004356024356001600160401b0381116103145761190d903690600401612e7e565b6044929192356001600160401b0381116103145761192f903690600401612e7e565b9093611939613d25565b6119448284146130c8565b61194f831515613106565b60008481526009602090815260408083203384529091529020546119759060ff1661303c565b83600052600a602052604060002060018060a01b03331660005260205261ffff6040600020541694846000526007602052604060002061ffff871660005260205260ff60016040600020015460a01c16600281101561050d5760016119dd9194939414612f9d565b846000526007602052604060002061ffff8716600052602052611a0d60ff60056040600020015460101c16612f64565b60005b848110611ae15750846000526008602052604060002061ffff8716600052602052611a3e60406000206131f1565b61ffff86169260005b858110611a9c5787877f25742c04c8f0360e39abb67701fda4acb202e054e9776c223ff2b53398c7b26060208989846000526007835260406000209060005282526040600020600443910155604051908152a3005b600190876000526008602052611adb60408060002060009089825260205220611ac9611710848b88613142565b9061ffff611727611710868b8b613142565b01611a47565b80611b14611af761171060019489899899613142565b88600052600660205261ffff600860406000200154911610613177565b866000526007602052611b3860ff600560408060002061179f611710878d8c613142565b01929192611a10565b34610314576000366003190112610314576020601054604051908152f35b3461031457608036600319011261031457611b78612ca5565b600260443510156103145760643590611b8f613d97565b6004356000526006602052604060002090611bb060ff600984015416613079565b6004356000526009602052604060002060018060a01b03821660005260205260ff60406000205416611fe757600882015460028301541115611fb45760068201548310611f7a57600091604435611f6f5760ff611c2760015b6004358652600d602090815260408088203389529091528620612cd1565b5416611f0b576004358352600d602090815260408085203386529091528320611c539060443590612cd1565b805460ff1916600117905583611eda575b61ffff6008820154169260405161018081018181106001600160401b03821117611ec65760405260018060a01b0384168152602081013381526040820192506044358352606082019687526000608083015260a0820143815260c083019787895260e08401946001865260006101008601526706f05b59d3b2000061012086015260006101408601526000610160860152600435600052600760205260408060002060009061ffff8c168252602052209360018060a01b0360018060a01b03875116166bffffffffffffffffffffffff60a01b86541617855560018060a01b039060018060a01b03905116166bffffffffffffffffffffffff60a01b6001860154161760018501555193600285101561050d576020996040966009946101609460009860018901549060ff60a01b9060a01b169060ff60a01b19161760018901555160028801556080840151600388015551600487015561ffff80600588019351161661ffff1983541617825551151562ff000082549160101b169062ff0000191617905561010081015160068501556101208101516007850155610140810151600885015501519101556004358152600a865281812060018060a01b0385168252865281812061ffff861661ffff1982541617905560043581526009865281812060018060a01b0385168252865220600160ff198254161790556008611e6d818301546130b9565b910155604051828152611e84848201604435612e44565b33916001600160a01b031690600435907fd6347f2c1cbfc00c2ef5d4dfce146b393cb3305376a2999571521d291def055590604090a460018055604051908152f35b634e487b7160e01b83526041600452602483fd5b611f068430337f0000000000000000000000000000000000000000000000000000000000000000613d4e565b611c64565b60405162461bcd60e51b815260206004820152603660248201527f53656c662d766f74653a20636f6c646b657920616c72656164792072656769736044820152757465726564206173206f70706f73697465207479706560501b6064820152608490fd5b60ff611c2784611c09565b60405162461bcd60e51b8152602060048201526012602482015271496e73756666696369656e74207374616b6560701b6044820152606490fd5b60405162461bcd60e51b815260206004820152600b60248201526a14dd589b995d08199d5b1b60aa1b6044820152606490fd5b60405162461bcd60e51b8152602060048201526012602482015271105b1c9958591e481c9959da5cdd195c995960721b6044820152606490fd5b346103145760403660031901126103145760043561203d612ca5565b90806000526009602052604060002060018060a01b03831660005260205261206c60ff6040600020541661303c565b600052600a60205260406000209060018060a01b0316600052602052602061ffff60406000205416604051908152f35b34610314576000366003190112610314576120b5613d25565b600080546001600160a01b0319811682556001600160a01b03167f8be0079c531659141344cd1fd0a4f28419497f9722a3daafe3b4186f6b6457e08280a3005b346103145760203660031901126103145761210e613d25565b600480359055005b3461031457608036600319011261031457600435612132612c6f565b6044356064356001600160401b03811161031457612154903690600401612e51565b929060018060a01b0360005416331480156122f7575b156122b257821515806122a6575b1561226157846000526007602052604060002061ffff831660005260205260406000209060ff600583015460101c161561222a577fb690d999d54e9332494c15c985df21327bfff85f3125d47be78b06ca862b419b9461ffff94600261221d94016127106121e882549384612fe8565b0491808311612222575b826121fc91612f57565b9055604051958695168552602085015260606040850152606084019161301b565b0390a2005b9150816121f2565b60405162461bcd60e51b815260206004820152600f60248201526e4e6f6465206e6f742061637469766560881b6044820152606490fd5b60405162461bcd60e51b815260206004820152601860248201527f496e76616c696420736c6173682070657263656e7461676500000000000000006044820152606490fd5b50612710831115612178565b60405162461bcd60e51b815260206004820152601760248201527f4e6f7420617574686f72697a656420746f20736c6173680000000000000000006044820152606490fd5b5084600052600660205260018060a01b0360016040600020015416331461216a565b34610314576040366003190112610314576101806040612337612c6f565b60043560005260076020528160002061ffff6000921682526020522060018060a01b03815416906001810154906002810154600382015460ff60048401546005850154906006860154936007870154956123b8600960088a0154990154996040519b8c5260018060a01b03811660208d01528660408d019160a01c16612e44565b60608a0152608089015260a088015261ffff811660c088015260101c16151560e0860152610100850152610120840152610140830152610160820152f35b34610314576020366003190112610314576004356000526006602052612463604060002060018060a01b036001820154166002820154916003810154600482015460088301549161244e60ff60098601541694612d5f565b9560405197889760e0895260e0890190612e03565b95602088015260408701526060860152608085015260a0840152151560c08301520390f35b34610314576060366003190112610314576124a1612cbb565b60443561ffff81168103610314576040516124dd8161071e6020820194602435869091602292825261ffff60f01b9060f01b1660208201520190565b5190209060018060a01b0316600052600b6020526040600020906000526020526020604060002054604051908152f35b34610314576000366003190112610314576020600554604051908152f35b346103145760203660031901126103145760043560005260066020526125b2604060002061255881612d5f565b9060018060a01b0360018201541690600281015490600381015460048201546005830154600684015490600785015492600886015494600a60ff600989015416970154976040519b8c9b6101608d526101608d0190612e03565b9960208c015260408b015260608a0152608089015260a088015260c087015260e086015261010085015215156101208401526101408301520390f35b3461031457602036600319011261031457612607613d25565b600435600355005b3461031457606036600319011261031457612628612ca5565b60443560028110156103145761266460ff91602093600435600052600d855260406000209060018060a01b031660005284526040600020612cd1565b54166040519015158152f35b34610314576000366003190112610314576020600254604051908152f35b3461031457600036600319011261031457600e546040516001600160a01b039091168152602090f35b34610314576040366003190112610314576004356126d3612c6f565b81600052600760205260408060002060009061ffff841682526020522061270360ff600583015460101c16612f64565b60ff600182015460a01c16600281101561050d5760016127239114612f9d565b612734600482015460105490612fdb565b4311156127f657600281018054916064830283810460641484151715610a74576127109004918383116127ee575b61276f8360079495612f57565b90550191825491605083029280840460501490151715610a74577fb690d999d54e9332494c15c985df21327bfff85f3125d47be78b06ca862b419b93606460a09404905561ffff60405192168252602082015260606040820152601260608201527124b730b1ba34bb32903b30b634b230ba37b960711b6080820152a2005b839250612762565b60405162461bcd60e51b815260206004820152601360248201527256616c696461746f722069732061637469766560681b6044820152606490fd5b346103145760203660031901126103145760043561284d613d25565b611388811161285b57600f55005b60405162461bcd60e51b81526020600482015260076024820152664d61782035302560c81b6044820152606490fd5b34610314576040366003190112610314576128a3612ca5565b600435600052600a60205260406000209060018060a01b0316600052602052602061ffff60406000205416604051908152f35b34610314576040366003190112610314576004356128f2612c6f565b906128fb613d97565b600081815260076020908152604080832061ffff86168452909152902060018101546001600160a01b031633036129e657600981019081549081156129b35760007f590fa2fafacb7b76b58059ea8c0b2e9e7fe3f6a044b9e3a27f9d1a1f3aff626d935561298a82337f0000000000000000000000000000000000000000000000000000000000000000613db9565b546040805161ffff909616865260208601929092526001600160a01b0316939081908101610783565b60405162461bcd60e51b815260206004820152600b60248201526a27379032b6b4b9b9b4b7b760a91b6044820152606490fd5b60405162461bcd60e51b81526020600482015260096024820152682737ba1037bbb732b960b91b6044820152606490fd5b3461031457612a2536612c80565b612a2d613d97565b604080516020810185815260f085901b6001600160f01b03191692820192909252612a5b816042810161071e565b51902033600052600b6020526040600020816000526020528160406000205410612b44577fef37dac52e652a2f78cc3df2429066b4d48a100f62255b7343f6396b3c2eef81916107839133600052600b6020526040600020906000526020526040600020612aca828254612f57565b9055846000526007602052604060002061ffff85166000526020526003604060002001612af8828254612f57565b9055612b2581337f0000000000000000000000000000000000000000000000000000000000000000613db9565b6040519182913395836020909392919361ffff60408201951681520152565b60405162461bcd60e51b815260206004820152601760248201527f496e73756666696369656e742064656c65676174696f6e0000000000000000006044820152606490fd5b34610314576000366003190112610314576020601154604051908152f35b3461031457602036600319011261031457612bc0613d25565b600435601255005b346103145760403660031901126103145760606040612be5612c6f565b600435600052600c6020528160002061ffff6000921682526020522080549060ff600260018301549201541690604051928352602083015215156040820152f35b3461031457602036600319011261031457612c3f613d25565b612c6d60043530337f0000000000000000000000000000000000000000000000000000000000000000613d4e565b005b6024359061ffff8216820361031457565b6060906003190112610314576004359060243561ffff81168103610314579060443590565b602435906001600160a01b038216820361031457565b600435906001600160a01b038216820361031457565b90600281101561050d57600052602052604060002090565b90600182811c92168015612d19575b6020831014612d0357565b634e487b7160e01b600052602260045260246000fd5b91607f1691612cf8565b604081019081106001600160401b03821117610b5457604052565b90601f801991011681019081106001600160401b03821117610b5457604052565b9060405191826000825492612d7384612ce9565b8084529360018116908115612de15750600114612d9a575b50612d9892500383612d3e565b565b90506000929192526020600020906000915b818310612dc5575050906020612d989282010138612d8b565b6020919350806001915483858901015201910190918492612dac565b905060209250612d9894915060ff191682840152151560051b82010138612d8b565b919082519283825260005b848110612e2f575050826000602080949584010152601f8019910116010190565b80602080928401015182828601015201612e0e565b90600282101561050d5752565b9181601f84011215610314578235916001600160401b038311610314576020838186019501011161031457565b9181601f84011215610314578235916001600160401b038311610314576020808501948460051b01011161031457565b906020808351928381520192019060005b818110612ecc5750505090565b82516001600160a01b0316845260209384019390920191600101612ebf565b906020808351928381520192019060005b818110612f095750505090565b8251845260209384019390920191600101612efc565b906020808351928381520192019060005b818110612f3d5750505090565b825161ffff16845260209384019390920191600101612f30565b91908203918211610a7457565b15612f6b57565b60405162461bcd60e51b815260206004820152600a6024820152694e6f742061637469766560b01b6044820152606490fd5b15612fa457565b60405162461bcd60e51b815260206004820152600f60248201526e2737ba1030903b30b634b230ba37b960891b6044820152606490fd5b91908201809211610a7457565b81810292918115918404141715610a7457565b8115613005570490565b634e487b7160e01b600052601260045260246000fd5b908060209392818452848401376000828201840152601f01601f1916010190565b1561304357565b60405162461bcd60e51b815260206004820152600e60248201526d139bdd081c9959da5cdd195c995960921b6044820152606490fd5b1561308057565b60405162461bcd60e51b81526020600482015260116024820152705375626e6574206e6f742061637469766560781b6044820152606490fd5b6000198114610a745760010190565b156130cf57565b60405162461bcd60e51b815260206004820152600f60248201526e098cadccee8d040dad2e6dac2e8c6d608b1b6044820152606490fd5b1561310d57565b60405162461bcd60e51b815260206004820152600d60248201526c456d707479207765696768747360981b6044820152606490fd5b91908110156131525760051b0190565b634e487b7160e01b600052603260045260246000fd5b3561ffff811681036103145790565b1561317e57565b60405162461bcd60e51b815260206004820152600b60248201526a125b9d985b1a590815525160aa1b6044820152606490fd5b156131b857565b60405162461bcd60e51b8152602060048201526011602482015270546172676574206e6f742061637469766560781b6044820152606490fd5b8054906000815581613201575050565b6000526020600020908101905b818110613219575050565b6000815560010161320e565b80548210156131525760005260206000200190600090565b805468010000000000000000811015610b545761325f91600182018155613225565b919091613292578051825460209092015163ffffffff1990921661ffff919091161760109190911b63ffff000016179055565b634e487b7160e01b600052600060045260246000fd5b906000905b8082106132ba5750505090565b90919283359061ffff82168203610314576020809161ffff6001941681520194019201906132ad565b156132ea57565b60405162461bcd60e51b815260206004820152600e60248201526d139bdd08185d5d1a1bdc9a5e995960921b6044820152606490fd5b6001600160401b038111610b545760051b60200190565b9061334182613320565b61334e6040519182612d3e565b828152809261335f601f1991613320565b0190602036910137565b61ffff1661ffff8114610a745760010190565b80518210156131525760209160051b010190565b908160005260066020526040600020916133b060ff600985015416613079565b6005830154916133c4600485015484612fdb565b4310613cf4576008840154928315613cc4576005548015613c8a576134056133fa6133f261340a9443612f57565b600454612fe8565b600388015490612fe8565b612ffb565b8015613c7d5761341984613337565b9160009161342686613337565b96835b8761ffff821610156136165786600052600760205260408060002060009061ffff841682526020522060ff600582015460101c161580156135f8575b6135ee5761347c6002820154600383015490612fdb565b80156135e35761348d600791613df4565b9101546113888102908082046113881490151715610a7457670de0b6b3a7640000900461271001908161271011610a7457612710916134cb91612fe8565b0487600052600860205260408060002060009061ffff85168252602052209060009182908054915b8281106135bc575083156135af5792919060009384935b8b83861061353657505050505050906135319161352b61ffff83168c61337c565b52613369565b613429565b61357b61359e8780999e6135a49461359861ffff613572896134058e9f9e8d9e9f61356660019e9f918792613225565b505460101c1690612fe8565b9687958c613225565b5054166135928561358c838661337c565b51612fdb565b9261337c565b52612fdb565b9c612fdb565b95019392919061350a565b5050505061353190613369565b936135dc60019161ffff6135d08886613225565b505460101c1690612fdb565b94016134f3565b505061353190613369565b5061353190613369565b5060ff600182015460a01c16600281101561050d5760011415613465565b5093919650939450612008840284810461200803610a745761271090048215159081613b3c575b50610708850285810461070803610a7457612710900460009060006008870154905b8161ffff821610613a79575050816139a2575b50506136b4575b50507f8b62a28f277757eb2f6f2f71863cbb10e1ce66d8bcfa14b5ebcba332ab867331916040916005439101558151904382526020820152a2565b91939260009591955b600886015461ffff821610156139925784600052600760205260408060002060009061ffff84168252602052209060ff600583015460101c16158015613974575b61396a5785600052600860205260408060002060009061ffff841682526020522080541561390157600080918054925b8381106138e25750600091829383925b81841061381d57506000925050831590506138115750670de0b6b3a7640000810290808204670de0b6b3a76400001490151715610a745760079161378191612ffb565b925b01805492604684029380850460461490151715610a7457601e810290808204601e1490151715610a7457613804889260646137e27f41e0549644e0a71255b7ed60362e6a3b2a3d5b8b00a6a7cb1b205f14e2528d089461380c98612fdb565b0480915560405191829186836020909392919361ffff60408201951681520152565b0390a2613369565b6136bd565b90506007915092613783565b909192949361ffff61382f8784613225565b505460101c16670de0b6b3a7640000810290808204670de0b6b3a76400001490151715610a74578461386091612ffb565b61387961ffff6138708986613225565b5054168d61337c565b519081670de0b6b3a7640000810204670de0b6b3a76400001482151715610a74578f92816138b6600195670de0b6b3a76400006138cd9602612ffb565b8082116138d757506138c791612fdb565b96612fdb565b950192919061373e565b90506138c791612fdb565b9092916138f860019161ffff6135d08588613225565b9293910161372e565b5090600701908154605f810290808204605f1490151715610a74577f41e0549644e0a71255b7ed60362e6a3b2a3d5b8b00a6a7cb1b205f14e2528d0861380461380c9460648a940480915560405191829186836020909392919361ffff60408201951681520152565b61380c9150613369565b5060ff600183015460a01c16600281101561050d57600114156136fe565b5090945091929050816040613679565b9592600098949198979592975b600884015461ffff82161015613a6957899087600052600760205260408060002060009061ffff84168252602052208960ff600583015460101c169384613a41575b613a0294613a07575b505050613369565b6139af565b613a2d600991613405613a3794613a276002880154600389015490612fdb565b90612fe8565b9201918254612fdb565b905538898c6139fa565b5050600181015460a01c60ff169250600283101561050d57898c6001613a02951494506139f1565b5092955092965092943880613672565b89600052600760205260ff600560408060002060009061ffff8616825260205220015460101c1680613b03575b613ab9575b613ab490613369565b61365f565b60008a815260076020908152604080832061ffff85168452909152902060028101546003909101549194613ab492613afb92613af59190612fdb565b90612fdb565b939050613aab565b5089600052600760205260ff600160408060002060009061ffff8616825260205220015460a01c16600281101561050d57600114613aa6565b919460009791979694965b60088801549061ffff811691821015613c6e57613b64828961337c565b51151580613c45575b613b81575b613b7c9150613369565b613b47565b613b9986613405613b92858c61337c565b5188612fe8565b87600052600760205260096040806000206000908682526020522001613bc0828254612fdb565b9055613bcc838a61337c565b51670de0b6b3a7640000810290808204670de0b6b3a76400001490151715610a745760066040613b7c95613c038b613c3e95612ffb565b8c6000526007602052600883806000206000908582526020522001558b60005260076020528160002060009182526020522001918254612fdb565b9055613b72565b5086600052600760205260ff600560408060002060009086825260205220015460101c16613b6d565b5050949150959492943861363d565b5092915050600543910155565b60405162461bcd60e51b81526020600482015260126024820152714e6f20656d697373696f6e2073686172657360701b6044820152606490fd5b60405162461bcd60e51b81526020600482015260086024820152674e6f206e6f64657360c01b6044820152606490fd5b60405162461bcd60e51b8152602060048201526009602482015268546f6f206561726c7960b81b6044820152606490fd5b6000546001600160a01b03163303613d3957565b63118cdaa760e01b6000523360045260246000fd5b6040516323b872dd60e01b60208201526001600160a01b039283166024820152929091166044830152606480830193909352918152612d9891613d92608483612d3e565b613e3b565b600260015414613da8576002600155565b633ee5aeb560e01b60005260046000fd5b60405163a9059cbb60e01b60208201526001600160a01b039092166024830152604480830193909352918152612d9891613d92606483612d3e565b8015613e355760018101808211610a745760011c815b828210613e1657505090565b909150613e2c82613e278184612ffb565b612fdb565b60011c90613e0a565b50600090565b906000602091828151910182855af115613e96576000513d613e8d57506001600160a01b0381163b155b613e6c5750565b635274afe760e01b60009081526001600160a01b0391909116600452602490fd5b60011415613e65565b6040513d6000823e3d90fdfea2646970667358221220ad319577f79760efc37488f08df8d6c580f7c54d8a61e5989d3f740a4712546964736f6c634300081c0033",
  "linkReferences": {},
  "deployedLinkReferences": {}
}