{
  "_format": "hh-sol-artifact-1",
  "contractName": "AnomalyGuard",
  "sourceName": "src/examples/AnomalyGuard.sol",
  "abi": [
    {
      "inputs": [
        {
          "internalType": "uint256",
          "name": "_dimension",
          "type": "uint256"
        },
        {
          "internalType": "uint256",
          "name": "_threshold",
          "type": "uint256"
        }
      ],
      "stateMutability": "nonpayable",
      "type": "constructor"
    },
    {
      "inputs": [
        {
          "internalType": "address",
          "name": "flagged",
          "type": "address"
        },
        {
          "internalType": "uint256",
          "name": "cooldownUntil",
          "type": "uint256"
        }
      ],
      "name": "AddressFlagged",
      "type": "error"
    },
    {
      "inputs": [],
      "name": "EnforcedPause",
      "type": "error"
    },
    {
      "inputs": [],
      "name": "ExpectedPause",
      "type": "error"
    },
    {
      "inputs": [
        {
          "internalType": "uint256",
          "name": "length",
          "type": "uint256"
        },
        {
          "internalType": "uint256",
          "name": "expected",
          "type": "uint256"
        }
      ],
      "name": "InvalidEmbedding",
      "type": "error"
    },
    {
      "inputs": [
        {
          "internalType": "address",
          "name": "owner",
          "type": "address"
        }
      ],
      "name": "OwnableInvalidOwner",
      "type": "error"
    },
    {
      "inputs": [
        {
          "internalType": "address",
          "name": "account",
          "type": "address"
        }
      ],
      "name": "OwnableUnauthorizedAccount",
      "type": "error"
    },
    {
      "inputs": [],
      "name": "ReentrancyGuardReentrantCall",
      "type": "error"
    },
    {
      "inputs": [
        {
          "internalType": "uint256",
          "name": "value",
          "type": "uint256"
        }
      ],
      "name": "ThresholdOutOfRange",
      "type": "error"
    },
    {
      "inputs": [],
      "name": "TooManyReferences",
      "type": "error"
    },
    {
      "inputs": [
        {
          "internalType": "uint256",
          "name": "anomalyScore",
          "type": "uint256"
        }
      ],
      "name": "TransactionBlocked",
      "type": "error"
    },
    {
      "anonymous": false,
      "inputs": [
        {
          "indexed": true,
          "internalType": "address",
          "name": "sender",
          "type": "address"
        },
        {
          "indexed": true,
          "internalType": "bytes32",
          "name": "txHash",
          "type": "bytes32"
        },
        {
          "indexed": false,
          "internalType": "uint256",
          "name": "score",
          "type": "uint256"
        },
        {
          "indexed": false,
          "internalType": "uint256",
          "name": "cooldownUntil",
          "type": "uint256"
        }
      ],
      "name": "AnomalyFlagged",
      "type": "event"
    },
    {
      "anonymous": false,
      "inputs": [
        {
          "indexed": true,
          "internalType": "address",
          "name": "previousOwner",
          "type": "address"
        },
        {
          "indexed": true,
          "internalType": "address",
          "name": "newOwner",
          "type": "address"
        }
      ],
      "name": "OwnershipTransferred",
      "type": "event"
    },
    {
      "anonymous": false,
      "inputs": [
        {
          "indexed": true,
          "internalType": "bytes32",
          "name": "patternHash",
          "type": "bytes32"
        }
      ],
      "name": "PatternRemoved",
      "type": "event"
    },
    {
      "anonymous": false,
      "inputs": [
        {
          "indexed": true,
          "internalType": "bytes32",
          "name": "patternHash",
          "type": "bytes32"
        }
      ],
      "name": "PatternWhitelisted",
      "type": "event"
    },
    {
      "anonymous": false,
      "inputs": [
        {
          "indexed": false,
          "internalType": "address",
          "name": "account",
          "type": "address"
        }
      ],
      "name": "Paused",
      "type": "event"
    },
    {
      "anonymous": false,
      "inputs": [
        {
          "indexed": true,
          "internalType": "uint256",
          "name": "index",
          "type": "uint256"
        },
        {
          "indexed": false,
          "internalType": "uint256",
          "name": "totalReferences",
          "type": "uint256"
        }
      ],
      "name": "ReferenceAdded",
      "type": "event"
    },
    {
      "anonymous": false,
      "inputs": [
        {
          "indexed": false,
          "internalType": "uint256",
          "name": "oldThreshold",
          "type": "uint256"
        },
        {
          "indexed": false,
          "internalType": "uint256",
          "name": "newThreshold",
          "type": "uint256"
        }
      ],
      "name": "ThresholdUpdated",
      "type": "event"
    },
    {
      "anonymous": false,
      "inputs": [
        {
          "indexed": true,
          "internalType": "address",
          "name": "sender",
          "type": "address"
        },
        {
          "indexed": true,
          "internalType": "bytes32",
          "name": "txHash",
          "type": "bytes32"
        },
        {
          "indexed": false,
          "internalType": "uint256",
          "name": "score",
          "type": "uint256"
        },
        {
          "indexed": false,
          "internalType": "bool",
          "name": "passed",
          "type": "bool"
        }
      ],
      "name": "TransactionAnalyzed",
      "type": "event"
    },
    {
      "anonymous": false,
      "inputs": [
        {
          "indexed": false,
          "internalType": "address",
          "name": "account",
          "type": "address"
        }
      ],
      "name": "Unpaused",
      "type": "event"
    },
    {
      "inputs": [],
      "name": "DEFAULT_THRESHOLD",
      "outputs": [
        {
          "internalType": "uint256",
          "name": "",
          "type": "uint256"
        }
      ],
      "stateMutability": "view",
      "type": "function"
    },
    {
      "inputs": [],
      "name": "FLAG_COOLDOWN",
      "outputs": [
        {
          "internalType": "uint256",
          "name": "",
          "type": "uint256"
        }
      ],
      "stateMutability": "view",
      "type": "function"
    },
    {
      "inputs": [],
      "name": "MAX_DIMENSION",
      "outputs": [
        {
          "internalType": "uint256",
          "name": "",
          "type": "uint256"
        }
      ],
      "stateMutability": "view",
      "type": "function"
    },
    {
      "inputs": [],
      "name": "MAX_REFERENCES",
      "outputs": [
        {
          "internalType": "uint256",
          "name": "",
          "type": "uint256"
        }
      ],
      "stateMutability": "view",
      "type": "function"
    },
    {
      "inputs": [
        {
          "internalType": "int256[]",
          "name": "embedding",
          "type": "int256[]"
        }
      ],
      "name": "addReference",
      "outputs": [],
      "stateMutability": "nonpayable",
      "type": "function"
    },
    {
      "inputs": [],
      "name": "anomalyThreshold",
      "outputs": [
        {
          "internalType": "uint256",
          "name": "",
          "type": "uint256"
        }
      ],
      "stateMutability": "view",
      "type": "function"
    },
    {
      "inputs": [
        {
          "internalType": "int256[][]",
          "name": "embeddings",
          "type": "int256[][]"
        },
        {
          "internalType": "bytes32[]",
          "name": "txHashes",
          "type": "bytes32[]"
        }
      ],
      "name": "batchValidate",
      "outputs": [
        {
          "internalType": "bool[]",
          "name": "passed",
          "type": "bool[]"
        },
        {
          "internalType": "uint256[]",
          "name": "scores",
          "type": "uint256[]"
        }
      ],
      "stateMutability": "nonpayable",
      "type": "function"
    },
    {
      "inputs": [],
      "name": "embeddingDimension",
      "outputs": [
        {
          "internalType": "uint256",
          "name": "",
          "type": "uint256"
        }
      ],
      "stateMutability": "view",
      "type": "function"
    },
    {
      "inputs": [
        {
          "internalType": "address",
          "name": "",
          "type": "address"
        }
      ],
      "name": "flaggedUntil",
      "outputs": [
        {
          "internalType": "uint256",
          "name": "",
          "type": "uint256"
        }
      ],
      "stateMutability": "view",
      "type": "function"
    },
    {
      "inputs": [
        {
          "internalType": "address",
          "name": "account",
          "type": "address"
        }
      ],
      "name": "getAverageScore",
      "outputs": [
        {
          "internalType": "uint256",
          "name": "average",
          "type": "uint256"
        }
      ],
      "stateMutability": "view",
      "type": "function"
    },
    {
      "inputs": [],
      "name": "getStats",
      "outputs": [
        {
          "internalType": "uint256",
          "name": "analyzed",
          "type": "uint256"
        },
        {
          "internalType": "uint256",
          "name": "flagged",
          "type": "uint256"
        },
        {
          "internalType": "uint256",
          "name": "rate",
          "type": "uint256"
        }
      ],
      "stateMutability": "view",
      "type": "function"
    },
    {
      "inputs": [
        {
          "internalType": "address",
          "name": "account",
          "type": "address"
        }
      ],
      "name": "isFlagged",
      "outputs": [
        {
          "internalType": "bool",
          "name": "flagged_",
          "type": "bool"
        },
        {
          "internalType": "uint256",
          "name": "cooldownEnds",
          "type": "uint256"
        }
      ],
      "stateMutability": "view",
      "type": "function"
    },
    {
      "inputs": [],
      "name": "owner",
      "outputs": [
        {
          "internalType": "address",
          "name": "",
          "type": "address"
        }
      ],
      "stateMutability": "view",
      "type": "function"
    },
    {
      "inputs": [],
      "name": "pause",
      "outputs": [],
      "stateMutability": "nonpayable",
      "type": "function"
    },
    {
      "inputs": [],
      "name": "paused",
      "outputs": [
        {
          "internalType": "bool",
          "name": "",
          "type": "bool"
        }
      ],
      "stateMutability": "view",
      "type": "function"
    },
    {
      "inputs": [],
      "name": "referenceCount",
      "outputs": [
        {
          "internalType": "uint256",
          "name": "",
          "type": "uint256"
        }
      ],
      "stateMutability": "view",
      "type": "function"
    },
    {
      "inputs": [
        {
          "internalType": "bytes32",
          "name": "patternHash",
          "type": "bytes32"
        }
      ],
      "name": "removePattern",
      "outputs": [],
      "stateMutability": "nonpayable",
      "type": "function"
    },
    {
      "inputs": [],
      "name": "renounceOwnership",
      "outputs": [],
      "stateMutability": "nonpayable",
      "type": "function"
    },
    {
      "inputs": [
        {
          "internalType": "address",
          "name": "",
          "type": "address"
        },
        {
          "internalType": "uint256",
          "name": "",
          "type": "uint256"
        }
      ],
      "name": "scoreHistory",
      "outputs": [
        {
          "internalType": "uint256",
          "name": "",
          "type": "uint256"
        }
      ],
      "stateMutability": "view",
      "type": "function"
    },
    {
      "inputs": [
        {
          "internalType": "uint256",
          "name": "newThreshold",
          "type": "uint256"
        }
      ],
      "name": "setThreshold",
      "outputs": [],
      "stateMutability": "nonpayable",
      "type": "function"
    },
    {
      "inputs": [],
      "name": "totalAnalyzed",
      "outputs": [
        {
          "internalType": "uint256",
          "name": "",
          "type": "uint256"
        }
      ],
      "stateMutability": "view",
      "type": "function"
    },
    {
      "inputs": [],
      "name": "totalAnomalies",
      "outputs": [
        {
          "internalType": "uint256",
          "name": "",
          "type": "uint256"
        }
      ],
      "stateMutability": "view",
      "type": "function"
    },
    {
      "inputs": [
        {
          "internalType": "address",
          "name": "newOwner",
          "type": "address"
        }
      ],
      "name": "transferOwnership",
      "outputs": [],
      "stateMutability": "nonpayable",
      "type": "function"
    },
    {
      "inputs": [
        {
          "internalType": "address",
          "name": "account",
          "type": "address"
        }
      ],
      "name": "unflag",
      "outputs": [],
      "stateMutability": "nonpayable",
      "type": "function"
    },
    {
      "inputs": [],
      "name": "unpause",
      "outputs": [],
      "stateMutability": "nonpayable",
      "type": "function"
    },
    {
      "inputs": [
        {
          "internalType": "int256[]",
          "name": "embedding",
          "type": "int256[]"
        },
        {
          "internalType": "bytes32",
          "name": "txHash",
          "type": "bytes32"
        }
      ],
      "name": "validateTransaction",
      "outputs": [
        {
          "internalType": "bool",
          "name": "passed",
          "type": "bool"
        },
        {
          "internalType": "uint256",
          "name": "score",
          "type": "uint256"
        }
      ],
      "stateMutability": "nonpayable",
      "type": "function"
    },
    {
      "inputs": [
        {
          "internalType": "int256[]",
          "name": "embedding",
          "type": "int256[]"
        }
      ],
      "name": "whitelistPattern",
      "outputs": [],
      "stateMutability": "nonpayable",
      "type": "function"
    },
    {
      "inputs": [
        {
          "internalType": "bytes32",
          "name": "",
          "type": "bytes32"
        }
      ],
      "name": "whitelistedPatterns",
      "outputs": [
        {
          "internalType": "bool",
          "name": "",
          "type": "bool"
        }
      ],
      "stateMutability": "view",
      "type": "function"
    }
  ],
  "bytecode": "0x60803461011557601f61147c38819003918201601f19168301916001600160401b0383118484101761011a57808492604094855283398101031261011557602081519101519033156100ff5760008054336001600160a01b0319821681178355916001600160a01b03909116907f8be0079c531659141344cd1fd0a4f28419497f9722a3daafe3b4186f6b6457e09080a360018055801580156100f4575b6100da57670de0b6b3a764000082116100c55760045560035560405161134b90816101318239f35b50636ec31c6760e11b60005260045260246000fd5b636067a1e560e11b60005260045261020060245260446000fd5b50610200811161009d565b631e4fbdf760e01b600052600060045260246000fd5b600080fd5b634e487b7160e01b600052604160045260246000fdfe608080604052600436101561001357600080fd5b60003560e01c908163286618e014610c6d575080633f4ba83a14610c045780634ee69e2f14610be6578063546734df146108fd578063575b68f6146108e05780635c975abb146108bd5780635f9895fa1461089f578063691845e4146108465780636938dc0e1461080b5780636f83a586146107ed578063715018a61461079457806375e2c56d1461072f5780637c227cb8146107135780637f519b48146106685780638456cb591461060e5780638da5cb5b146105e5578063960bfe041461056d57806398ed5fa4146105335780639b76bd05146105175780639db92368146104be578063aefed3531461048d578063b81cab4b1461046a578063c59d484714610400578063d06509fd146103d5578063dfacbb6c14610241578063f2fde38b146101b8578063fd7288c01461019a5763fef48a991461015357600080fd5b34610195576020366003190112610195576001600160a01b03610174610cb9565b16600090815260056020908152604091829020548251438211815291820152f35b600080fd5b34610195576000366003190112610195576020600454604051908152f35b34610195576020366003190112610195576101d1610cb9565b6101d9611043565b6001600160a01b0316801561022b57600080546001600160a01b03198116831782556001600160a01b0316907f8be0079c531659141344cd1fd0a4f28419497f9722a3daafe3b4186f6b6457e09080a3005b631e4fbdf760e01b600052600060045260246000fd5b346101955760203660031901126101955760043567ffffffffffffffff811161019557610272903690600401610c88565b61027a611043565b6004548082036103bd575060085460328110156103ac57600160401b811015610380578060016102ad9201600855610ccf565b9290926103965767ffffffffffffffff821161038057600160401b8211610380578254828455808310610357575b509160005260206000209160005b8281106103435760085460001981019080821161032d5760207f337244894cf19f0524aa9d7fd89fd9192f481ef2c49735fcf550e010a02a04d291604051908152a2005b634e487b7160e01b600052601160045260246000fd5b6001906020833593019281860155016102e9565b8360005282602060002091820191015b81811061037457506102db565b60008155600101610367565b634e487b7160e01b600052604160045260246000fd5b634e487b7160e01b600052600060045260246000fd5b6306da9f0160e11b60005260046000fd5b90636067a1e560e11b60005260045260245260446000fd5b346101955760203660031901126101955760206103f86103f3610cb9565b610fdf565b604051908152f35b3461019557600036600319011261019557600954600a5490801561045f57670de0b6b3a7640000820291808304670de0b6b3a7640000148115171561032d5761044b82606094610fbf565b905b60405192835260208301526040820152f35b60609160009061044d565b346101955760003660031901126101955760206040516709b6e64a8ec600008152f35b34610195576020366003190112610195576004356000526006602052602060ff604060002054166040519015158152f35b34610195576020366003190112610195576004356104da611043565b806000526006602052604060002060ff1981541690557fd03c7ccbee6ac6cdc8626168da56b4e44bbf25e02997e48e11c4565399fc8888600080a2005b34610195576000366003190112610195576020604051600a8152f35b34610195576020366003190112610195576001600160a01b03610554610cb9565b1660005260056020526020604060002054604051908152f35b3461019557602036600319011261019557600435610589611043565b670de0b6b3a764000081116105d15760407fb06a54caabe58475c86c2bf9df3f2f06dd1213e9e10659c293117fe4893b274b91600354908060035582519182526020820152a1005b636ec31c6760e11b60005260045260246000fd5b34610195576000366003190112610195576000546040516001600160a01b039091168152602090f35b3461019557600036600319011261019557610627611043565b61062f61106c565b600160ff1960025416176002557f62e78cea01bee320cd4e420270b5ea74000d11b0c9f74754ebdbfc544b05a2586020604051338152a1005b346101955760203660031901126101955760043567ffffffffffffffff8111610195576106c261069f6106d0923690600401610c88565b92906106a9611043565b6040519283916020830195602087526040840191610d62565b03601f198101835282610d18565b5190208060005260066020526040600020600160ff198254161790557f7c9f51d794f20dbf88d5bda87745e5fdc7be72f9aa04ba150d42aba4acefb7a8600080a2005b3461019557600036600319011261019557602060405160328152f35b346101955760403660031901126101955760043567ffffffffffffffff81116101955761076361077c913690600401610c88565b61076b61106c565b610773611089565b60243591610dc2565b60018055604080519215158352602083019190915290f35b34610195576000366003190112610195576107ad611043565b600080546001600160a01b0319811682556001600160a01b03167f8be0079c531659141344cd1fd0a4f28419497f9722a3daafe3b4186f6b6457e08280a3005b34610195576000366003190112610195576020600354604051908152f35b3461019557602036600319011261019557610824610cb9565b61082c611043565b6001600160a01b0316600090815260056020526040812055005b346101955760403660031901126101955761085f610cb9565b6001600160a01b03166000908152600760205260409020805460243591908210156101955760209161089091610d00565b90549060031b1c604051908152f35b34610195576000366003190112610195576020600954604051908152f35b3461019557600036600319011261019557602060ff600254166040519015158152f35b346101955760003660031901126101955760206040516102008152f35b346101955760403660031901126101955760043567ffffffffffffffff81116101955761092e903690600401610c88565b9060243567ffffffffffffffff81116101955761094f903690600401610c88565b91909261095a61106c565b610962611089565b828103610baf57600a8111610b78579161097b83610d3a565b936109896040519586610d18565b83855261099584610d3a565b602086019290601f19013684376109ab85610d3a565b926109b96040519485610d18565b8584526109c586610d3a565b6020850190601f190136823736869003601e19019160005b88811015610af3576000908060051b89013585811215610aef57890180359067ffffffffffffffff8211610aeb57602001908060051b36038213610aeb57610a4f91604091610a2d858b8d610d52565b35835194859384936375e2c56d60e01b85528660048601526044850191610d62565b906024830152038186305af1928315610adf5780918194610a90575b5050600192610a7a838b610d92565b52610a85828d610d92565b9015159052016109dd565b91509192506040813d8211610ad7575b81610aad60409383610d18565b81010312610ad3578051918215158303610ad0575060200151919060018d610a6b565b80fd5b5080fd5b3d9150610aa0565b604051903d90823e3d90fd5b8380fd5b8280fd5b868a8484600180556040519384936040850190604086525180915260608501929060005b818110610b5d5750505060209084830382860152519182815201919060005b818110610b44575050500390f35b8251845285945060209384019390920191600101610b36565b82511515855287965060209485019490920191600101610b17565b60405162461bcd60e51b815260206004820152600f60248201526e426174636820746f6f206c6172676560881b6044820152606490fd5b60405162461bcd60e51b815260206004820152600f60248201526e098cadccee8d040dad2e6dac2e8c6d608b1b6044820152606490fd5b34610195576000366003190112610195576020600a54604051908152f35b3461019557600036600319011261019557610c1d611043565b60025460ff811615610c5c5760ff19166002557f5db9ee0a495bf2e6ff9c91a7834c1ba4fdd244a5e8aa4e537bd38aeae4b073aa6020604051338152a1005b638dfc202b60e01b60005260046000fd5b34610195576000366003190112610195576020906008548152f35b9181601f840112156101955782359167ffffffffffffffff8311610195576020808501948460051b01011161019557565b600435906001600160a01b038216820361019557565b600854811015610cea57600860005260206000200190600090565b634e487b7160e01b600052603260045260246000fd5b8054821015610cea5760005260206000200190600090565b90601f8019910116810190811067ffffffffffffffff82111761038057604052565b67ffffffffffffffff81116103805760051b60200190565b9190811015610cea5760051b0190565b9160209082815201919060005b818110610d7c5750505090565b8235845260209384019390920191600101610d6f565b8051821015610cea5760209160051b010190565b600019811461032d5760010190565b9190820180921161032d57565b929192600454808303610fa757503360005260056020526040600020544310610f8057604051602081019060208252610e03816106c2604082018787610d62565b519020600052600660205260ff60406000205416610f335790610e25916110ab565b90610e31600954610da6565b60095533600052600760205260406000208054600160401b81101561038057610e5f91600182018155610d00565b81549060031b9084821b91600019901b19161790556003548210928315610eb4576040518381528460208201527ff55fd7d95b41e3fecf28190794090ea7e3c92c988161f49689e2cdc5f6038d2260403392a3565b9050610ec1600a54610da6565b600a55600a430180431161032d573360005260056020526040600020553360005260056020526040600020546040519083825260208201527fe7ca1f0120f10fca4593e7fe88e72d536d313536bd23d6f89c7efb98274793eb60403392a3630b1a0d7f60e31b60005260045260246000fd5b505090610f41600954610da6565b60095560405160008152600160208201527ff55fd7d95b41e3fecf28190794090ea7e3c92c988161f49689e2cdc5f6038d2260403392a3600190600090565b33600052600560205260406000205463947c8d3760e01b6000523360045260245260446000fd5b82636067a1e560e11b60005260045260245260446000fd5b8115610fc9570490565b634e487b7160e01b600052601260045260246000fd5b60018060a01b031660005260076020526040600020908154801561103c576000805b8281106110175750611014929350610fbf565b90565b906110356001916110288488610d00565b90549060031b1c90610db5565b9101611001565b5060009150565b6000546001600160a01b0316330361105757565b63118cdaa760e01b6000523360045260246000fd5b60ff6002541661107857565b63d93c066560e01b60005260046000fd5b60026001541461109a576002600155565b633ee5aeb560e01b60005260046000fd5b91909160085480156111145760009160005b8281106110e657505050909150670de0b6b3a764000003670de0b6b3a7640000811161032d5790565b6110fa6110f282610ccf565b50878461115b565b84811161110b575b506001016110bd565b93506001611102565b506000925050565b818102929160008212600160ff1b82141661032d57818405149015171561032d57565b9190916000838201938412911290801582169115161761032d57565b90918054830361129357600092839283928392915b82841061120a575050505080158015611202575b6111fa5761119461119a916112cd565b916112cd565b8115908180156111f2575b6111e95760008413156111e957670de0b6b3a7640000840293808504670de0b6b3a7640000149015171561032d5780830292830414171561032d5761101491610fbf565b50505050600090565b5080156111a5565b505050600090565b508115611184565b90919294939561128961126a61124860019361124261122a8b8a89610d52565b356112358c8a610d00565b90549060031b1c9061111c565b9061113f565b986112426112578a8988610d52565b356112638b8a89610d52565b359061111c565b956112426112788987610d00565b90549060031b1c6112358a88610d00565b9501929190611170565b60405162461bcd60e51b8152602060048201526012602482015271088d2dacadce6d2dedc40dad2e6dac2e8c6d60731b6044820152606490fd5b90811561130f57816001810180821161032d5760011c905b8382106112f0575050565b909250611306836113018184610fbf565b610db5565b60011c906112e5565b6000915056fea2646970667358221220e937e0dca560361f5961f7c44f171b8add5ff358ac9c38b7c77c930b15fbe16e64736f6c634300081c0033",
  "linkReferences": {},
  "deployedLinkReferences": {}
}