{
  "_format": "hh-sol-artifact-1",
  "contractName": "TrainingEscrow",
  "sourceName": "src/TrainingEscrow.sol",
  "abi": [
    {
      "inputs": [
        {
          "internalType": "address",
          "name": "_token",
          "type": "address"
        },
        {
          "internalType": "uint256",
          "name": "_slashRate",
          "type": "uint256"
        }
      ],
      "stateMutability": "nonpayable",
      "type": "constructor"
    },
    {
      "inputs": [
        {
          "internalType": "address",
          "name": "owner",
          "type": "address"
        }
      ],
      "name": "OwnableInvalidOwner",
      "type": "error"
    },
    {
      "inputs": [
        {
          "internalType": "address",
          "name": "account",
          "type": "address"
        }
      ],
      "name": "OwnableUnauthorizedAccount",
      "type": "error"
    },
    {
      "inputs": [],
      "name": "ReentrancyGuardReentrantCall",
      "type": "error"
    },
    {
      "inputs": [
        {
          "internalType": "address",
          "name": "token",
          "type": "address"
        }
      ],
      "name": "SafeERC20FailedOperation",
      "type": "error"
    },
    {
      "anonymous": false,
      "inputs": [
        {
          "indexed": true,
          "internalType": "address",
          "name": "previousOwner",
          "type": "address"
        },
        {
          "indexed": true,
          "internalType": "address",
          "name": "newOwner",
          "type": "address"
        }
      ],
      "name": "OwnershipTransferred",
      "type": "event"
    },
    {
      "anonymous": false,
      "inputs": [
        {
          "indexed": true,
          "internalType": "uint256",
          "name": "taskId",
          "type": "uint256"
        },
        {
          "indexed": true,
          "internalType": "address",
          "name": "trainer",
          "type": "address"
        },
        {
          "indexed": false,
          "internalType": "bytes32",
          "name": "resultHash",
          "type": "bytes32"
        }
      ],
      "name": "ResultSubmitted",
      "type": "event"
    },
    {
      "anonymous": false,
      "inputs": [
        {
          "indexed": true,
          "internalType": "uint256",
          "name": "taskId",
          "type": "uint256"
        },
        {
          "indexed": true,
          "internalType": "address",
          "name": "trainer",
          "type": "address"
        },
        {
          "indexed": false,
          "internalType": "uint256",
          "name": "rewardAmount",
          "type": "uint256"
        },
        {
          "indexed": false,
          "internalType": "uint256",
          "name": "stakeReturned",
          "type": "uint256"
        }
      ],
      "name": "RewardDistributed",
      "type": "event"
    },
    {
      "anonymous": false,
      "inputs": [
        {
          "indexed": true,
          "internalType": "uint256",
          "name": "taskId",
          "type": "uint256"
        },
        {
          "indexed": false,
          "internalType": "uint256",
          "name": "refundAmount",
          "type": "uint256"
        }
      ],
      "name": "TaskCancelled",
      "type": "event"
    },
    {
      "anonymous": false,
      "inputs": [
        {
          "indexed": true,
          "internalType": "uint256",
          "name": "taskId",
          "type": "uint256"
        }
      ],
      "name": "TaskCompleted",
      "type": "event"
    },
    {
      "anonymous": false,
      "inputs": [
        {
          "indexed": true,
          "internalType": "uint256",
          "name": "taskId",
          "type": "uint256"
        },
        {
          "indexed": true,
          "internalType": "address",
          "name": "creator",
          "type": "address"
        },
        {
          "indexed": false,
          "internalType": "bytes32",
          "name": "modelHash",
          "type": "bytes32"
        },
        {
          "indexed": false,
          "internalType": "uint256",
          "name": "rewardAmount",
          "type": "uint256"
        },
        {
          "indexed": false,
          "internalType": "uint256",
          "name": "minStake",
          "type": "uint256"
        },
        {
          "indexed": false,
          "internalType": "uint256",
          "name": "deadline",
          "type": "uint256"
        }
      ],
      "name": "TaskCreated",
      "type": "event"
    },
    {
      "anonymous": false,
      "inputs": [
        {
          "indexed": true,
          "internalType": "uint256",
          "name": "taskId",
          "type": "uint256"
        },
        {
          "indexed": true,
          "internalType": "address",
          "name": "trainer",
          "type": "address"
        },
        {
          "indexed": false,
          "internalType": "uint256",
          "name": "stakeAmount",
          "type": "uint256"
        }
      ],
      "name": "TrainerJoined",
      "type": "event"
    },
    {
      "anonymous": false,
      "inputs": [
        {
          "indexed": true,
          "internalType": "uint256",
          "name": "taskId",
          "type": "uint256"
        },
        {
          "indexed": true,
          "internalType": "address",
          "name": "trainer",
          "type": "address"
        },
        {
          "indexed": false,
          "internalType": "uint256",
          "name": "slashAmount",
          "type": "uint256"
        }
      ],
      "name": "TrainerSlashed",
      "type": "event"
    },
    {
      "anonymous": false,
      "inputs": [
        {
          "indexed": true,
          "internalType": "uint256",
          "name": "taskId",
          "type": "uint256"
        },
        {
          "indexed": true,
          "internalType": "address",
          "name": "trainer",
          "type": "address"
        },
        {
          "indexed": false,
          "internalType": "bool",
          "name": "isValid",
          "type": "bool"
        }
      ],
      "name": "TrainerValidated",
      "type": "event"
    },
    {
      "inputs": [
        {
          "internalType": "uint256",
          "name": "taskId",
          "type": "uint256"
        }
      ],
      "name": "cancelTask",
      "outputs": [],
      "stateMutability": "nonpayable",
      "type": "function"
    },
    {
      "inputs": [
        {
          "internalType": "uint256",
          "name": "taskId",
          "type": "uint256"
        }
      ],
      "name": "claimReward",
      "outputs": [],
      "stateMutability": "nonpayable",
      "type": "function"
    },
    {
      "inputs": [
        {
          "internalType": "uint256",
          "name": "taskId",
          "type": "uint256"
        }
      ],
      "name": "completeTask",
      "outputs": [],
      "stateMutability": "nonpayable",
      "type": "function"
    },
    {
      "inputs": [
        {
          "internalType": "bytes32",
          "name": "modelHash",
          "type": "bytes32"
        },
        {
          "internalType": "uint256",
          "name": "rewardAmount",
          "type": "uint256"
        },
        {
          "internalType": "uint256",
          "name": "minStake",
          "type": "uint256"
        },
        {
          "internalType": "uint256",
          "name": "maxTrainers",
          "type": "uint256"
        },
        {
          "internalType": "uint256",
          "name": "durationSeconds",
          "type": "uint256"
        }
      ],
      "name": "createTask",
      "outputs": [
        {
          "internalType": "uint256",
          "name": "taskId",
          "type": "uint256"
        }
      ],
      "stateMutability": "nonpayable",
      "type": "function"
    },
    {
      "inputs": [
        {
          "internalType": "uint256",
          "name": "taskId",
          "type": "uint256"
        }
      ],
      "name": "getTaskDetails",
      "outputs": [
        {
          "internalType": "address",
          "name": "creator",
          "type": "address"
        },
        {
          "internalType": "bytes32",
          "name": "modelHash",
          "type": "bytes32"
        },
        {
          "internalType": "uint256",
          "name": "rewardAmount",
          "type": "uint256"
        },
        {
          "internalType": "uint256",
          "name": "minStake",
          "type": "uint256"
        },
        {
          "internalType": "uint256",
          "name": "maxTrainers",
          "type": "uint256"
        },
        {
          "internalType": "uint256",
          "name": "deadline",
          "type": "uint256"
        },
        {
          "internalType": "enum TrainingEscrow.TaskStatus",
          "name": "status",
          "type": "uint8"
        },
        {
          "internalType": "uint256",
          "name": "trainerCount",
          "type": "uint256"
        }
      ],
      "stateMutability": "view",
      "type": "function"
    },
    {
      "inputs": [
        {
          "internalType": "uint256",
          "name": "taskId",
          "type": "uint256"
        }
      ],
      "name": "getTaskTrainers",
      "outputs": [
        {
          "internalType": "address[]",
          "name": "",
          "type": "address[]"
        }
      ],
      "stateMutability": "view",
      "type": "function"
    },
    {
      "inputs": [
        {
          "internalType": "uint256",
          "name": "taskId",
          "type": "uint256"
        },
        {
          "internalType": "uint256",
          "name": "stakeAmount",
          "type": "uint256"
        }
      ],
      "name": "joinTask",
      "outputs": [],
      "stateMutability": "nonpayable",
      "type": "function"
    },
    {
      "inputs": [],
      "name": "nextTaskId",
      "outputs": [
        {
          "internalType": "uint256",
          "name": "",
          "type": "uint256"
        }
      ],
      "stateMutability": "view",
      "type": "function"
    },
    {
      "inputs": [],
      "name": "owner",
      "outputs": [
        {
          "internalType": "address",
          "name": "",
          "type": "address"
        }
      ],
      "stateMutability": "view",
      "type": "function"
    },
    {
      "inputs": [],
      "name": "renounceOwnership",
      "outputs": [],
      "stateMutability": "nonpayable",
      "type": "function"
    },
    {
      "inputs": [
        {
          "internalType": "uint256",
          "name": "newRate",
          "type": "uint256"
        }
      ],
      "name": "setSlashRate",
      "outputs": [],
      "stateMutability": "nonpayable",
      "type": "function"
    },
    {
      "inputs": [],
      "name": "slashRate",
      "outputs": [
        {
          "internalType": "uint256",
          "name": "",
          "type": "uint256"
        }
      ],
      "stateMutability": "view",
      "type": "function"
    },
    {
      "inputs": [
        {
          "internalType": "uint256",
          "name": "taskId",
          "type": "uint256"
        },
        {
          "internalType": "bytes32",
          "name": "resultHash",
          "type": "bytes32"
        }
      ],
      "name": "submitResult",
      "outputs": [],
      "stateMutability": "nonpayable",
      "type": "function"
    },
    {
      "inputs": [
        {
          "internalType": "uint256",
          "name": "",
          "type": "uint256"
        },
        {
          "internalType": "uint256",
          "name": "",
          "type": "uint256"
        }
      ],
      "name": "taskTrainers",
      "outputs": [
        {
          "internalType": "address",
          "name": "",
          "type": "address"
        }
      ],
      "stateMutability": "view",
      "type": "function"
    },
    {
      "inputs": [
        {
          "internalType": "uint256",
          "name": "",
          "type": "uint256"
        }
      ],
      "name": "tasks",
      "outputs": [
        {
          "internalType": "address",
          "name": "creator",
          "type": "address"
        },
        {
          "internalType": "bytes32",
          "name": "modelHash",
          "type": "bytes32"
        },
        {
          "internalType": "uint256",
          "name": "rewardAmount",
          "type": "uint256"
        },
        {
          "internalType": "uint256",
          "name": "minStake",
          "type": "uint256"
        },
        {
          "internalType": "uint256",
          "name": "maxTrainers",
          "type": "uint256"
        },
        {
          "internalType": "uint256",
          "name": "deadline",
          "type": "uint256"
        },
        {
          "internalType": "enum TrainingEscrow.TaskStatus",
          "name": "status",
          "type": "uint8"
        },
        {
          "internalType": "uint256",
          "name": "createdAt",
          "type": "uint256"
        }
      ],
      "stateMutability": "view",
      "type": "function"
    },
    {
      "inputs": [],
      "name": "token",
      "outputs": [
        {
          "internalType": "contract IERC20",
          "name": "",
          "type": "address"
        }
      ],
      "stateMutability": "view",
      "type": "function"
    },
    {
      "inputs": [],
      "name": "totalSlashed",
      "outputs": [
        {
          "internalType": "uint256",
          "name": "",
          "type": "uint256"
        }
      ],
      "stateMutability": "view",
      "type": "function"
    },
    {
      "inputs": [
        {
          "internalType": "uint256",
          "name": "",
          "type": "uint256"
        },
        {
          "internalType": "address",
          "name": "",
          "type": "address"
        }
      ],
      "name": "trainers",
      "outputs": [
        {
          "internalType": "uint256",
          "name": "stakeAmount",
          "type": "uint256"
        },
        {
          "internalType": "bool",
          "name": "submitted",
          "type": "bool"
        },
        {
          "internalType": "bool",
          "name": "validated",
          "type": "bool"
        },
        {
          "internalType": "bool",
          "name": "slashed",
          "type": "bool"
        },
        {
          "internalType": "bool",
          "name": "rewardClaimed",
          "type": "bool"
        },
        {
          "internalType": "bytes32",
          "name": "resultHash",
          "type": "bytes32"
        },
        {
          "internalType": "uint256",
          "name": "submittedAt",
          "type": "uint256"
        }
      ],
      "stateMutability": "view",
      "type": "function"
    },
    {
      "inputs": [
        {
          "internalType": "address",
          "name": "newOwner",
          "type": "address"
        }
      ],
      "name": "transferOwnership",
      "outputs": [],
      "stateMutability": "nonpayable",
      "type": "function"
    },
    {
      "inputs": [
        {
          "internalType": "uint256",
          "name": "taskId",
          "type": "uint256"
        },
        {
          "internalType": "address",
          "name": "trainer",
          "type": "address"
        },
        {
          "internalType": "bool",
          "name": "isValid",
          "type": "bool"
        }
      ],
      "name": "validateTrainer",
      "outputs": [],
      "stateMutability": "nonpayable",
      "type": "function"
    },
    {
      "inputs": [
        {
          "internalType": "address",
          "name": "to",
          "type": "address"
        }
      ],
      "name": "withdrawSlashed",
      "outputs": [],
      "stateMutability": "nonpayable",
      "type": "function"
    }
  ],
  "bytecode": "0x60a0346101a557601f611a6938819003918201601f19168301916001600160401b038311848410176101aa5780849260409485528339810103126101a55780516001600160a01b03811691908290036101a5576020015190331561018f5760008054336001600160a01b03198216811783556040519290916001600160a01b0316907f8be0079c531659141344cd1fd0a4f28419497f9722a3daafe3b4186f6b6457e09080a360018055811561014d57506127108211610108576080526003556040516118a890816101c1823960805181818161013c0152818161033b0152818161079001528181610b0301528181610f7501528181611016015281816110da01526114a90152f35b60405162461bcd60e51b815260206004820152601760248201527f536c6173682072617465206578636565647320313030250000000000000000006044820152606490fd5b62461bcd60e51b815260206004820152601560248201527f496e76616c696420746f6b656e206164647265737300000000000000000000006044820152606490fd5b631e4fbdf760e01b600052600060045260246000fd5b600080fd5b634e487b7160e01b600052604160045260246000fdfe6080604052600436101561001257600080fd5b60003560e01c80630ee3145e1461145d5780633888b9d5146113ed5780634151766b1461138a578063715018a6146113315780637ba0636b146110975780637eec20a814610e5b578063862509ad14610e115780638d97767214610da95780638da5cb5b14610d805780638e359d2a14610cc2578063a201bbdd14610ca4578063ae169a5014610a3e578063cc91a95f146109aa578063d2ee66cf14610865578063d999850e146105cb578063de35d846146102a1578063e1e2955814610212578063e341181d146101f4578063f2fde38b1461016b578063fc0c546a146101265763fdc3d8d71461010357600080fd5b34610121576000366003190112610121576020600254604051908152f35b600080fd5b34610121576000366003190112610121576040517f00000000000000000000000000000000000000000000000000000000000000006001600160a01b03168152602090f35b3461012157602036600319011261012157610184611542565b61018c61173a565b6001600160a01b031680156101de57600080546001600160a01b03198116831782556001600160a01b0316907f8be0079c531659141344cd1fd0a4f28419497f9722a3daafe3b4186f6b6457e09080a3005b631e4fbdf760e01b600052600060045260246000fd5b34610121576000366003190112610121576020600354604051908152f35b346101215760203660031901126101215760043561022e61173a565b806000526005602052600660406000200160ff815416600481101561028b576001610259911461167c565b805460ff191660021790557fc1fa7142cfb933d0855114a3bffde296944c30b727f297c14d0db4d553d3a5c7600080a2005b634e487b7160e01b600052602160045260246000fd5b34610121576102af366115b5565b908060005260056020526040600020600681019060ff825416600481101561028b5780159081156105c0575b501561057b576102f0600582015442106116bf565b6003810154841061054057600083815260066020908152604080832033845290915290205461050a57826000526007602052600460406000205491015411156104d65761035f8330337f00000000000000000000000000000000000000000000000000000000000000006117c7565b60405160e0810181811067ffffffffffffffff8211176104c057604090815284825260006020808401828152848401838152606086018481526080870185815260a0880186815260c089018781528b885260068752888820338952875288882099518a55945160018a01805495519451935163ff00000090151560181b1662ff000094151560101b9490941661ff0095151560081b9590951691151560ff1663ffffffff199096169590951717929092171790915551600286015551600390940193909355848152600790925290208054680100000000000000008110156104c057610450916001820181556115cb565b81546001600160a01b0360039290921b91821b19163390911b179055805460ff16600481101561028b57156104af575b506040519182527ff37f33c82176e37b489c8c385a0a0f0aea38fca7de1f1190fa51865dea7901da60203393a3005b805460ff1916600117905582610480565b634e487b7160e01b600052604160045260246000fd5b60405162461bcd60e51b815260206004820152600c60248201526b15185cdac81a5cc8199d5b1b60a21b6044820152606490fd5b60405162461bcd60e51b815260206004820152600e60248201526d105b1c9958591e481a9bda5b995960921b6044820152606490fd5b60405162461bcd60e51b81526020600482015260136024820152725374616b652062656c6f77206d696e696d756d60681b6044820152606490fd5b60405162461bcd60e51b815260206004820152601b60248201527f5461736b206e6f7420616363657074696e6720747261696e65727300000000006044820152606490fd5b6001915014856102db565b34610121576060366003190112610121576004356105e7611558565b906044358015158103610121576105fc61173a565b81600052600560205260ff60066040600020015416600481101561028b57806001610630921490811561085c575b50611637565b60008281526006602090815260408083206001600160a01b038716845290915290208054801561066081156116fa565b600183019384549060ff8216156108175760ff8260081c161580610809575b156107d057156106d6575050825461ff001916610100179092555050604051600181526001600160a01b03909216917f5232077f3a606d72feb378ccdcd0d8ab9a38404a236966f871f7661b16f4d70390602090a3005b62ff00001916620100001790935560035491928282029291830490911417156107ba5761271090049061070b82600454611608565b60045554818103908082116107ba576020948492847fb12614c10eb8c9aa875c81ae2e40081eaad172a5252c7860a2601aa34ab4c49d9303610789575b506040519384526001600160a01b0316948593a37f5232077f3a606d72feb378ccdcd0d8ab9a38404a236966f871f7661b16f4d703602060405160008152a3005b6107b490827f0000000000000000000000000000000000000000000000000000000000000000611785565b86610748565b634e487b7160e01b600052601160045260246000fd5b60405162461bcd60e51b8152602060048201526011602482015270105b1c9958591e481c1c9bd8d95cdcd959607a1b6044820152606490fd5b5060ff8260101c161561067f565b60405162461bcd60e51b815260206004820152601960248201527f4e6f207375626d697373696f6e20746f2076616c6964617465000000000000006044820152606490fd5b9050158561062a565b346101215760403660031901126101215760043560243590806000526005602052604060002060ff600682015416600481101561028b576108b8916108ae60016005931461167c565b01544211156116bf565b6000818152600660209081526040808320338452909152902080546108de9015156116fa565b60018101805460ff81166109715784156109365760019060ff19161790558260028201556003429101556040519182527f9bb2295443670abcb0f3088e52668e961eca6816b19f155f2fca528c4b2fe34560203393a3005b60405162461bcd60e51b8152602060048201526013602482015272092dcecc2d8d2c840e4cae6ead8e840d0c2e6d606b1b6044820152606490fd5b60405162461bcd60e51b8152602060048201526011602482015270105b1c9958591e481cdd589b5a5d1d1959607a1b6044820152606490fd5b346101215760403660031901126101215760e060406109c7611558565b60043560005260066020528160002060009160018060a01b031682526020522080549060018101549060ff600360028301549201549260405194855281811615156020860152818160081c1615156040860152818160101c161515606086015260181c161515608084015260a083015260c0820152f35b3461012157602036600319011261012157600435610a5a611763565b80600052600560205260406000209060ff600683015416600481101561028b57600203610c6a576000818152600660209081526040808320338452909152902060018101805493600885901c60ff1615610c355760ff8560181c16610bfe576000848152600760205260408120805490825b828110610b9b575050508015610b5e5760026301000000920154049463ff000000191617905554610b27610b008483611608565b337f0000000000000000000000000000000000000000000000000000000000000000611785565b60405192835260208301527f602ab809fa82d3a742a4f9a33cdd154988d8b0f578ee4dc91de3dc412bf026b960403393a360018055005b60405162461bcd60e51b81526020600482015260156024820152744e6f2076616c69646174656420747261696e65727360581b6044820152606490fd5b87600052600660205260ff6001604080600020610bb885876115cb565b848060a01b0391549060031b1c1690600091848060a01b0316825260205220015460081c16610bea575b600101610acc565b92610bf66001916115f9565b939050610be2565b60405162461bcd60e51b815260206004820152600f60248201526e105b1c9958591e4818db185a5b5959608a1b6044820152606490fd5b60405162461bcd60e51b815260206004820152600d60248201526c139bdd081d985b1a59185d1959609a1b6044820152606490fd5b60405162461bcd60e51b815260206004820152601260248201527115185cdac81b9bdd0818dbdb5c1b195d195960721b6044820152606490fd5b34610121576000366003190112610121576020600454604051908152f35b3461012157602036600319011261012157600435600052600760205260406000206040518060208354918281520190819360005260206000209060005b818110610d615750505081610d15910382611615565b6040519182916020830190602084525180915260408301919060005b818110610d3f575050500390f35b82516001600160a01b0316845285945060209384019390920191600101610d31565b82546001600160a01b0316845260209093019260019283019201610cff565b34610121576000366003190112610121576000546040516001600160a01b039091168152602090f35b34610121576020366003190112610121576004356000526005602052604060002060018060a01b03815416610e0d60018301549260028101549060038101546004820154600583015491600760ff600686015416940154946040519889988961156e565b0390f35b3461012157610e1f366115b5565b9060005260076020526040600020805482101561012157602091610e42916115cb565b905460405160039290921b1c6001600160a01b03168152f35b3461012157602036600319011261012157600435610e77611763565b80600052600560205260406000206006810160ff815416600481101561028b5780610eaa911590811561108c5750611637565b8154600054336001600160a01b0392831681149291909116148061107f575b8115611077575b501561104157600360ff19825416179055816000526007602052604060002060005b8154811015610fc257600190846000526006602052604080600020610f1783866115cb565b858060a01b0391549060031b1c1690600091858060a01b0316825260205220805480151580610fb1575b80610fa0575b610f54575b505001610ef2565b6000610f999255610f6583866115cb565b858060a01b0391549060031b1c167f0000000000000000000000000000000000000000000000000000000000000000611785565b8580610f4c565b5060ff8483015460181c1615610f47565b5060ff8483015460101c1615610f41565b837f58716386e17644e69ff7358e3317a395f4523fcd0fb9cc227ee68d117ebbfbfc6020856002810190815480611004575b505054604051908152a260018055005b905461103a91906001600160a01b03167f0000000000000000000000000000000000000000000000000000000000000000611785565b8480610ff4565b60405162461bcd60e51b815260206004820152600e60248201526d139bdd08185d5d1a1bdc9a5e995960921b6044820152606490fd5b905084610ed0565b5060058301544211610ec9565b60019150148561062a565b346101215760a03660031901126101215760843560643560043560243560443581156112f75780156112ba5783156112755761012c8510611230576110fe8230337f00000000000000000000000000000000000000000000000000000000000000006117c7565b6002549361110b856115f9565b6002556111188642611608565b95604051610100810181811067ffffffffffffffff8211176104c05760405233815260208101978689526040820193868552606083018681526080840191825260a0840192835260c08401956000875260e085019b428d528b600052600560205260406000209560018060a01b039051166bffffffffffffffffffffffff60a01b875416178655516001860155516002850155516003840155516004830155516005820155600681019251600481101561028b576020986111ec9460079260ff801983541691161790555191015542611608565b916040519384528584015260408301526060820152817fe4c84abac159b1ba1d709419b44b97a9f8d4884518b3d20f634515a7b30bc1bb60803393a3604051908152f35b60405162461bcd60e51b815260206004820152601d60248201527f4475726174696f6e206d757374206265203e3d2035206d696e757465730000006044820152606490fd5b60405162461bcd60e51b815260206004820152601860248201527f4d617820747261696e657273206d757374206265203e203000000000000000006044820152606490fd5b60405162461bcd60e51b815260206004820152601560248201527404d696e207374616b65206d757374206265203e203605c1b6044820152606490fd5b60405162461bcd60e51b81526020600482015260126024820152710526577617264206d757374206265203e20360741b6044820152606490fd5b346101215760003660031901126101215761134a61173a565b600080546001600160a01b0319811682556001600160a01b03167f8be0079c531659141344cd1fd0a4f28419497f9722a3daafe3b4186f6b6457e08280a3005b34610121576020366003190112610121576004356113a661173a565b61271081116113b457600355005b60405162461bcd60e51b8152602060048201526011602482015270526174652065786365656473203130302560781b6044820152606490fd5b34610121576020366003190112610121576004358060005260056020526040600020610e0d60018060a01b0382541691600181015493600282015491600381015460048201549060ff6006600585015494015416936000526007602052604060002054946040519889988961156e565b3461012157602036600319011261012157611476611542565b61147e61173a565b611486611763565b6001600160a01b0381161561150b5760045480156114d3576114cd9160006004557f0000000000000000000000000000000000000000000000000000000000000000611785565b60018055005b60405162461bcd60e51b815260206004820152601060248201526f4e6f20736c61736865642066756e647360801b6044820152606490fd5b60405162461bcd60e51b815260206004820152600f60248201526e496e76616c6964206164647265737360881b6044820152606490fd5b600435906001600160a01b038216820361012157565b602435906001600160a01b038216820361012157565b94929098979695939161010086019960018060a01b03168652602086015260408501526060840152608083015260a0820152600482101561028b5760e09160c08201520152565b6040906003190112610121576004359060243590565b80548210156115e35760005260206000200190600090565b634e487b7160e01b600052603260045260246000fd5b60001981146107ba5760010190565b919082018092116107ba57565b90601f8019910116810190811067ffffffffffffffff8211176104c057604052565b1561163e57565b60405162461bcd60e51b815260206004820152601660248201527515185cdac8185b1c9958591e48199a5b985b1a5e995960521b6044820152606490fd5b1561168357565b60405162461bcd60e51b81526020600482015260146024820152735461736b206e6f7420696e2070726f677265737360601b6044820152606490fd5b156116c657565b60405162461bcd60e51b815260206004820152600c60248201526b15185cdac8195e1c1a5c995960a21b6044820152606490fd5b1561170157565b60405162461bcd60e51b8152602060048201526011602482015270139bdd0818481c185c9d1a58da5c185b9d607a1b6044820152606490fd5b6000546001600160a01b0316330361174e57565b63118cdaa760e01b6000523360045260246000fd5b600260015414611774576002600155565b633ee5aeb560e01b60005260046000fd5b60405163a9059cbb60e01b60208201526001600160a01b0390921660248301526044808301939093529181526117c5916117c0606483611615565b61180b565b565b6040516323b872dd60e01b60208201526001600160a01b0392831660248201529290911660448301526064808301939093529181526117c5916117c0608483611615565b906000602091828151910182855af115611866576000513d61185d57506001600160a01b0381163b155b61183c5750565b635274afe760e01b60009081526001600160a01b0391909116600452602490fd5b60011415611835565b6040513d6000823e3d90fdfea2646970667358221220ea541fa23cfdce12f8256b4db4126c1ddb2666351ea9176c3801331f9569a41364736f6c634300081c0033",
  "linkReferences": {},
  "deployedLinkReferences": {}
}