{
  "_format": "hh-sol-artifact-1",
  "contractName": "TrainingEscrow",
  "sourceName": "src/TrainingEscrow.sol",
  "abi": [
    {
      "inputs": [
        {
          "internalType": "address",
          "name": "_token",
          "type": "address"
        },
        {
          "internalType": "uint256",
          "name": "_slashRate",
          "type": "uint256"
        }
      ],
      "stateMutability": "nonpayable",
      "type": "constructor"
    },
    {
      "inputs": [
        {
          "internalType": "address",
          "name": "owner",
          "type": "address"
        }
      ],
      "name": "OwnableInvalidOwner",
      "type": "error"
    },
    {
      "inputs": [
        {
          "internalType": "address",
          "name": "account",
          "type": "address"
        }
      ],
      "name": "OwnableUnauthorizedAccount",
      "type": "error"
    },
    {
      "inputs": [],
      "name": "ReentrancyGuardReentrantCall",
      "type": "error"
    },
    {
      "inputs": [
        {
          "internalType": "address",
          "name": "token",
          "type": "address"
        }
      ],
      "name": "SafeERC20FailedOperation",
      "type": "error"
    },
    {
      "anonymous": false,
      "inputs": [
        {
          "indexed": true,
          "internalType": "address",
          "name": "previousOwner",
          "type": "address"
        },
        {
          "indexed": true,
          "internalType": "address",
          "name": "newOwner",
          "type": "address"
        }
      ],
      "name": "OwnershipTransferred",
      "type": "event"
    },
    {
      "anonymous": false,
      "inputs": [
        {
          "indexed": true,
          "internalType": "uint256",
          "name": "taskId",
          "type": "uint256"
        },
        {
          "indexed": true,
          "internalType": "address",
          "name": "trainer",
          "type": "address"
        },
        {
          "indexed": false,
          "internalType": "bytes32",
          "name": "resultHash",
          "type": "bytes32"
        }
      ],
      "name": "ResultSubmitted",
      "type": "event"
    },
    {
      "anonymous": false,
      "inputs": [
        {
          "indexed": true,
          "internalType": "uint256",
          "name": "taskId",
          "type": "uint256"
        },
        {
          "indexed": true,
          "internalType": "address",
          "name": "trainer",
          "type": "address"
        },
        {
          "indexed": false,
          "internalType": "uint256",
          "name": "rewardAmount",
          "type": "uint256"
        },
        {
          "indexed": false,
          "internalType": "uint256",
          "name": "stakeReturned",
          "type": "uint256"
        }
      ],
      "name": "RewardDistributed",
      "type": "event"
    },
    {
      "anonymous": false,
      "inputs": [
        {
          "indexed": true,
          "internalType": "uint256",
          "name": "taskId",
          "type": "uint256"
        },
        {
          "indexed": false,
          "internalType": "uint256",
          "name": "refundAmount",
          "type": "uint256"
        }
      ],
      "name": "TaskCancelled",
      "type": "event"
    },
    {
      "anonymous": false,
      "inputs": [
        {
          "indexed": true,
          "internalType": "uint256",
          "name": "taskId",
          "type": "uint256"
        }
      ],
      "name": "TaskCompleted",
      "type": "event"
    },
    {
      "anonymous": false,
      "inputs": [
        {
          "indexed": true,
          "internalType": "uint256",
          "name": "taskId",
          "type": "uint256"
        },
        {
          "indexed": true,
          "internalType": "address",
          "name": "creator",
          "type": "address"
        },
        {
          "indexed": false,
          "internalType": "bytes32",
          "name": "modelHash",
          "type": "bytes32"
        },
        {
          "indexed": false,
          "internalType": "uint256",
          "name": "rewardAmount",
          "type": "uint256"
        },
        {
          "indexed": false,
          "internalType": "uint256",
          "name": "minStake",
          "type": "uint256"
        },
        {
          "indexed": false,
          "internalType": "uint256",
          "name": "deadline",
          "type": "uint256"
        }
      ],
      "name": "TaskCreated",
      "type": "event"
    },
    {
      "anonymous": false,
      "inputs": [
        {
          "indexed": true,
          "internalType": "uint256",
          "name": "taskId",
          "type": "uint256"
        },
        {
          "indexed": true,
          "internalType": "address",
          "name": "trainer",
          "type": "address"
        },
        {
          "indexed": false,
          "internalType": "uint256",
          "name": "stakeAmount",
          "type": "uint256"
        }
      ],
      "name": "TrainerJoined",
      "type": "event"
    },
    {
      "anonymous": false,
      "inputs": [
        {
          "indexed": true,
          "internalType": "uint256",
          "name": "taskId",
          "type": "uint256"
        },
        {
          "indexed": true,
          "internalType": "address",
          "name": "trainer",
          "type": "address"
        },
        {
          "indexed": false,
          "internalType": "uint256",
          "name": "slashAmount",
          "type": "uint256"
        }
      ],
      "name": "TrainerSlashed",
      "type": "event"
    },
    {
      "anonymous": false,
      "inputs": [
        {
          "indexed": true,
          "internalType": "uint256",
          "name": "taskId",
          "type": "uint256"
        },
        {
          "indexed": true,
          "internalType": "address",
          "name": "trainer",
          "type": "address"
        },
        {
          "indexed": false,
          "internalType": "bool",
          "name": "isValid",
          "type": "bool"
        }
      ],
      "name": "TrainerValidated",
      "type": "event"
    },
    {
      "inputs": [
        {
          "internalType": "uint256",
          "name": "taskId",
          "type": "uint256"
        }
      ],
      "name": "cancelTask",
      "outputs": [],
      "stateMutability": "nonpayable",
      "type": "function"
    },
    {
      "inputs": [
        {
          "internalType": "uint256",
          "name": "taskId",
          "type": "uint256"
        }
      ],
      "name": "claimReward",
      "outputs": [],
      "stateMutability": "nonpayable",
      "type": "function"
    },
    {
      "inputs": [
        {
          "internalType": "uint256",
          "name": "taskId",
          "type": "uint256"
        }
      ],
      "name": "completeTask",
      "outputs": [],
      "stateMutability": "nonpayable",
      "type": "function"
    },
    {
      "inputs": [
        {
          "internalType": "bytes32",
          "name": "modelHash",
          "type": "bytes32"
        },
        {
          "internalType": "uint256",
          "name": "rewardAmount",
          "type": "uint256"
        },
        {
          "internalType": "uint256",
          "name": "minStake",
          "type": "uint256"
        },
        {
          "internalType": "uint256",
          "name": "maxTrainers",
          "type": "uint256"
        },
        {
          "internalType": "uint256",
          "name": "durationSeconds",
          "type": "uint256"
        }
      ],
      "name": "createTask",
      "outputs": [
        {
          "internalType": "uint256",
          "name": "taskId",
          "type": "uint256"
        }
      ],
      "stateMutability": "nonpayable",
      "type": "function"
    },
    {
      "inputs": [
        {
          "internalType": "uint256",
          "name": "taskId",
          "type": "uint256"
        }
      ],
      "name": "getTaskDetails",
      "outputs": [
        {
          "internalType": "address",
          "name": "creator",
          "type": "address"
        },
        {
          "internalType": "bytes32",
          "name": "modelHash",
          "type": "bytes32"
        },
        {
          "internalType": "uint256",
          "name": "rewardAmount",
          "type": "uint256"
        },
        {
          "internalType": "uint256",
          "name": "minStake",
          "type": "uint256"
        },
        {
          "internalType": "uint256",
          "name": "maxTrainers",
          "type": "uint256"
        },
        {
          "internalType": "uint256",
          "name": "deadline",
          "type": "uint256"
        },
        {
          "internalType": "enum TrainingEscrow.TaskStatus",
          "name": "status",
          "type": "uint8"
        },
        {
          "internalType": "uint256",
          "name": "trainerCount",
          "type": "uint256"
        }
      ],
      "stateMutability": "view",
      "type": "function"
    },
    {
      "inputs": [
        {
          "internalType": "uint256",
          "name": "taskId",
          "type": "uint256"
        }
      ],
      "name": "getTaskTrainers",
      "outputs": [
        {
          "internalType": "address[]",
          "name": "",
          "type": "address[]"
        }
      ],
      "stateMutability": "view",
      "type": "function"
    },
    {
      "inputs": [
        {
          "internalType": "uint256",
          "name": "taskId",
          "type": "uint256"
        },
        {
          "internalType": "uint256",
          "name": "stakeAmount",
          "type": "uint256"
        }
      ],
      "name": "joinTask",
      "outputs": [],
      "stateMutability": "nonpayable",
      "type": "function"
    },
    {
      "inputs": [],
      "name": "nextTaskId",
      "outputs": [
        {
          "internalType": "uint256",
          "name": "",
          "type": "uint256"
        }
      ],
      "stateMutability": "view",
      "type": "function"
    },
    {
      "inputs": [],
      "name": "owner",
      "outputs": [
        {
          "internalType": "address",
          "name": "",
          "type": "address"
        }
      ],
      "stateMutability": "view",
      "type": "function"
    },
    {
      "inputs": [],
      "name": "renounceOwnership",
      "outputs": [],
      "stateMutability": "nonpayable",
      "type": "function"
    },
    {
      "inputs": [
        {
          "internalType": "uint256",
          "name": "newRate",
          "type": "uint256"
        }
      ],
      "name": "setSlashRate",
      "outputs": [],
      "stateMutability": "nonpayable",
      "type": "function"
    },
    {
      "inputs": [],
      "name": "slashRate",
      "outputs": [
        {
          "internalType": "uint256",
          "name": "",
          "type": "uint256"
        }
      ],
      "stateMutability": "view",
      "type": "function"
    },
    {
      "inputs": [
        {
          "internalType": "uint256",
          "name": "taskId",
          "type": "uint256"
        },
        {
          "internalType": "bytes32",
          "name": "resultHash",
          "type": "bytes32"
        }
      ],
      "name": "submitResult",
      "outputs": [],
      "stateMutability": "nonpayable",
      "type": "function"
    },
    {
      "inputs": [
        {
          "internalType": "uint256",
          "name": "",
          "type": "uint256"
        },
        {
          "internalType": "uint256",
          "name": "",
          "type": "uint256"
        }
      ],
      "name": "taskTrainers",
      "outputs": [
        {
          "internalType": "address",
          "name": "",
          "type": "address"
        }
      ],
      "stateMutability": "view",
      "type": "function"
    },
    {
      "inputs": [
        {
          "internalType": "uint256",
          "name": "",
          "type": "uint256"
        }
      ],
      "name": "tasks",
      "outputs": [
        {
          "internalType": "address",
          "name": "creator",
          "type": "address"
        },
        {
          "internalType": "bytes32",
          "name": "modelHash",
          "type": "bytes32"
        },
        {
          "internalType": "uint256",
          "name": "rewardAmount",
          "type": "uint256"
        },
        {
          "internalType": "uint256",
          "name": "minStake",
          "type": "uint256"
        },
        {
          "internalType": "uint256",
          "name": "maxTrainers",
          "type": "uint256"
        },
        {
          "internalType": "uint256",
          "name": "deadline",
          "type": "uint256"
        },
        {
          "internalType": "enum TrainingEscrow.TaskStatus",
          "name": "status",
          "type": "uint8"
        },
        {
          "internalType": "uint256",
          "name": "createdAt",
          "type": "uint256"
        }
      ],
      "stateMutability": "view",
      "type": "function"
    },
    {
      "inputs": [],
      "name": "token",
      "outputs": [
        {
          "internalType": "contract IERC20",
          "name": "",
          "type": "address"
        }
      ],
      "stateMutability": "view",
      "type": "function"
    },
    {
      "inputs": [],
      "name": "totalSlashed",
      "outputs": [
        {
          "internalType": "uint256",
          "name": "",
          "type": "uint256"
        }
      ],
      "stateMutability": "view",
      "type": "function"
    },
    {
      "inputs": [
        {
          "internalType": "uint256",
          "name": "",
          "type": "uint256"
        },
        {
          "internalType": "address",
          "name": "",
          "type": "address"
        }
      ],
      "name": "trainers",
      "outputs": [
        {
          "internalType": "uint256",
          "name": "stakeAmount",
          "type": "uint256"
        },
        {
          "internalType": "bool",
          "name": "submitted",
          "type": "bool"
        },
        {
          "internalType": "bool",
          "name": "validated",
          "type": "bool"
        },
        {
          "internalType": "bool",
          "name": "slashed",
          "type": "bool"
        },
        {
          "internalType": "bool",
          "name": "rewardClaimed",
          "type": "bool"
        },
        {
          "internalType": "bytes32",
          "name": "resultHash",
          "type": "bytes32"
        },
        {
          "internalType": "uint256",
          "name": "submittedAt",
          "type": "uint256"
        }
      ],
      "stateMutability": "view",
      "type": "function"
    },
    {
      "inputs": [
        {
          "internalType": "address",
          "name": "newOwner",
          "type": "address"
        }
      ],
      "name": "transferOwnership",
      "outputs": [],
      "stateMutability": "nonpayable",
      "type": "function"
    },
    {
      "inputs": [
        {
          "internalType": "uint256",
          "name": "taskId",
          "type": "uint256"
        },
        {
          "internalType": "address",
          "name": "trainer",
          "type": "address"
        },
        {
          "internalType": "bool",
          "name": "isValid",
          "type": "bool"
        }
      ],
      "name": "validateTrainer",
      "outputs": [],
      "stateMutability": "nonpayable",
      "type": "function"
    },
    {
      "inputs": [
        {
          "internalType": "address",
          "name": "to",
          "type": "address"
        }
      ],
      "name": "withdrawSlashed",
      "outputs": [],
      "stateMutability": "nonpayable",
      "type": "function"
    }
  ],
  "bytecode": "0x60a0346101a557601f611aa938819003918201601f19168301916001600160401b038311848410176101aa5780849260409485528339810103126101a55780516001600160a01b03811691908290036101a5576020015190331561018f5760008054336001600160a01b03198216811783556040519290916001600160a01b0316907f8be0079c531659141344cd1fd0a4f28419497f9722a3daafe3b4186f6b6457e09080a360018055811561014d57506127108211610108576080526003556040516118e890816101c1823960805181818161013c0152818161033b0152818161078601528181610b3f01528181610fb1015281816110560152818161111a01526114e90152f35b60405162461bcd60e51b815260206004820152601760248201527f536c6173682072617465206578636565647320313030250000000000000000006044820152606490fd5b62461bcd60e51b815260206004820152601560248201527f496e76616c696420746f6b656e206164647265737300000000000000000000006044820152606490fd5b631e4fbdf760e01b600052600060045260246000fd5b600080fd5b634e487b7160e01b600052604160045260246000fdfe6080604052600436101561001257600080fd5b60003560e01c80630ee3145e1461149d5780633888b9d51461142d5780634151766b146113ca578063715018a6146113715780637ba0636b146110d75780637eec20a814610e97578063862509ad14610e4d5780638d97767214610de55780638da5cb5b14610dbc5780638e359d2a14610cfe578063a201bbdd14610ce0578063ae169a5014610a7a578063cc91a95f146109e6578063d2ee66cf146108a1578063d999850e146105cb578063de35d846146102a1578063e1e2955814610212578063e341181d146101f4578063f2fde38b1461016b578063fc0c546a146101265763fdc3d8d71461010357600080fd5b34610121576000366003190112610121576020600254604051908152f35b600080fd5b34610121576000366003190112610121576040517f00000000000000000000000000000000000000000000000000000000000000006001600160a01b03168152602090f35b3461012157602036600319011261012157610184611582565b61018c61177a565b6001600160a01b031680156101de57600080546001600160a01b03198116831782556001600160a01b0316907f8be0079c531659141344cd1fd0a4f28419497f9722a3daafe3b4186f6b6457e09080a3005b631e4fbdf760e01b600052600060045260246000fd5b34610121576000366003190112610121576020600354604051908152f35b346101215760203660031901126101215760043561022e61177a565b806000526005602052600660406000200160ff815416600481101561028b57600161025991146116bc565b805460ff191660021790557fc1fa7142cfb933d0855114a3bffde296944c30b727f297c14d0db4d553d3a5c7600080a2005b634e487b7160e01b600052602160045260246000fd5b34610121576102af366115f5565b908060005260056020526040600020600681019060ff825416600481101561028b5780159081156105c0575b501561057b576102f0600582015442106116ff565b6003810154841061054057600083815260066020908152604080832033845290915290205461050a57826000526007602052600460406000205491015411156104d65761035f8330337f0000000000000000000000000000000000000000000000000000000000000000611807565b60405160e0810181811067ffffffffffffffff8211176104c057604090815284825260006020808401828152848401838152606086018481526080870185815260a0880186815260c089018781528b885260068752888820338952875288882099518a55945160018a01805495519451935163ff00000090151560181b1662ff000094151560101b9490941661ff0095151560081b9590951691151560ff1663ffffffff199096169590951717929092171790915551600286015551600390940193909355848152600790925290208054680100000000000000008110156104c0576104509160018201815561160b565b81546001600160a01b0360039290921b91821b19163390911b179055805460ff16600481101561028b57156104af575b506040519182527ff37f33c82176e37b489c8c385a0a0f0aea38fca7de1f1190fa51865dea7901da60203393a3005b805460ff1916600117905582610480565b634e487b7160e01b600052604160045260246000fd5b60405162461bcd60e51b815260206004820152600c60248201526b15185cdac81a5cc8199d5b1b60a21b6044820152606490fd5b60405162461bcd60e51b815260206004820152600e60248201526d105b1c9958591e481a9bda5b995960921b6044820152606490fd5b60405162461bcd60e51b81526020600482015260136024820152725374616b652062656c6f77206d696e696d756d60681b6044820152606490fd5b60405162461bcd60e51b815260206004820152601b60248201527f5461736b206e6f7420616363657074696e6720747261696e65727300000000006044820152606490fd5b6001915014856102db565b34610121576060366003190112610121576004356105e7611598565b906044358015158103610121576105fc61177a565b816000526005602052604060002060ff600682015416600481101561028b578060016106319214908115610898575b50611677565b546001600160a01b0384811694911684146108535782600052600660205260408060002060009086825260205220908154801561066e811561173a565b600184019485549060ff82161561080e5760ff8260081c161580610800575b156107c757156106d657505050505061010061ff00198254161790557f5232077f3a606d72feb378ccdcd0d8ab9a38404a236966f871f7661b16f4d703602060405160018152a3005b62ff00001916620100001790945560035492939192808202929183041417156107b15761271090049161070b83600454611648565b60045554828103908082116107b1578385937fb12614c10eb8c9aa875c81ae2e40081eaad172a5252c7860a2601aa34ab4c49d93889660209403610780575b5050604051908152a37f5232077f3a606d72feb378ccdcd0d8ab9a38404a236966f871f7661b16f4d703602060405160008152a3005b6107aa917f00000000000000000000000000000000000000000000000000000000000000006117c5565b878061074a565b634e487b7160e01b600052601160045260246000fd5b60405162461bcd60e51b8152602060048201526011602482015270105b1c9958591e481c1c9bd8d95cdcd959607a1b6044820152606490fd5b5060ff8260101c161561068d565b60405162461bcd60e51b815260206004820152601960248201527f4e6f207375626d697373696f6e20746f2076616c6964617465000000000000006044820152606490fd5b60405162461bcd60e51b815260206004820152601c60248201527f43726561746f722063616e6e6f742073656c662d76616c6964617465000000006044820152606490fd5b9050158661062b565b346101215760403660031901126101215760043560243590806000526005602052604060002060ff600682015416600481101561028b576108f4916108ea6001600593146116bc565b01544211156116ff565b60008181526006602090815260408083203384529091529020805461091a90151561173a565b60018101805460ff81166109ad5784156109725760019060ff19161790558260028201556003429101556040519182527f9bb2295443670abcb0f3088e52668e961eca6816b19f155f2fca528c4b2fe34560203393a3005b60405162461bcd60e51b8152602060048201526013602482015272092dcecc2d8d2c840e4cae6ead8e840d0c2e6d606b1b6044820152606490fd5b60405162461bcd60e51b8152602060048201526011602482015270105b1c9958591e481cdd589b5a5d1d1959607a1b6044820152606490fd5b346101215760403660031901126101215760e06040610a03611598565b60043560005260066020528160002060009160018060a01b031682526020522080549060018101549060ff600360028301549201549260405194855281811615156020860152818160081c1615156040860152818160101c161515606086015260181c161515608084015260a083015260c0820152f35b3461012157602036600319011261012157600435610a966117a3565b80600052600560205260406000209060ff600683015416600481101561028b57600203610ca6576000818152600660209081526040808320338452909152902060018101805493600885901c60ff1615610c715760ff8560181c16610c3a576000848152600760205260408120805490825b828110610bd7575050508015610b9a5760026301000000920154049463ff000000191617905554610b63610b3c8483611648565b337f00000000000000000000000000000000000000000000000000000000000000006117c5565b60405192835260208301527f602ab809fa82d3a742a4f9a33cdd154988d8b0f578ee4dc91de3dc412bf026b960403393a360018055005b60405162461bcd60e51b81526020600482015260156024820152744e6f2076616c69646174656420747261696e65727360581b6044820152606490fd5b87600052600660205260ff6001604080600020610bf4858761160b565b848060a01b0391549060031b1c1690600091848060a01b0316825260205220015460081c16610c26575b600101610b08565b92610c32600191611639565b939050610c1e565b60405162461bcd60e51b815260206004820152600f60248201526e105b1c9958591e4818db185a5b5959608a1b6044820152606490fd5b60405162461bcd60e51b815260206004820152600d60248201526c139bdd081d985b1a59185d1959609a1b6044820152606490fd5b60405162461bcd60e51b815260206004820152601260248201527115185cdac81b9bdd0818dbdb5c1b195d195960721b6044820152606490fd5b34610121576000366003190112610121576020600454604051908152f35b3461012157602036600319011261012157600435600052600760205260406000206040518060208354918281520190819360005260206000209060005b818110610d9d5750505081610d51910382611655565b6040519182916020830190602084525180915260408301919060005b818110610d7b575050500390f35b82516001600160a01b0316845285945060209384019390920191600101610d6d565b82546001600160a01b0316845260209093019260019283019201610d3b565b34610121576000366003190112610121576000546040516001600160a01b039091168152602090f35b34610121576020366003190112610121576004356000526005602052604060002060018060a01b03815416610e4960018301549260028101549060038101546004820154600583015491600760ff60068601541694015494604051988998896115ae565b0390f35b3461012157610e5b366115f5565b9060005260076020526040600020805482101561012157602091610e7e9161160b565b905460405160039290921b1c6001600160a01b03168152f35b3461012157602036600319011261012157600435610eb36117a3565b80600052600560205260406000206006810160ff815416600481101561028b5780610ee691159081156110cc5750611677565b8154600054336001600160a01b039283168114929190911614806110bf575b81156110b7575b501561108157600360ff19825416179055816000526007602052604060002060005b8154811015610ffe57600190846000526006602052604080600020610f53838661160b565b858060a01b0391549060031b1c1690600091858060a01b0316825260205220805480151580610fed575b80610fdc575b610f90575b505001610f2e565b6000610fd59255610fa1838661160b565b858060a01b0391549060031b1c167f00000000000000000000000000000000000000000000000000000000000000006117c5565b8580610f88565b5060ff8483015460181c1615610f83565b5060ff8483015460101c1615610f7d565b837f58716386e17644e69ff7358e3317a395f4523fcd0fb9cc227ee68d117ebbfbfc60208560028101906000825492558180611044575b5050604051908152a260018055005b905461107a91906001600160a01b03167f00000000000000000000000000000000000000000000000000000000000000006117c5565b8481611035565b60405162461bcd60e51b815260206004820152600e60248201526d139bdd08185d5d1a1bdc9a5e995960921b6044820152606490fd5b905084610f0c565b5060058301544211610f05565b60019150148561062b565b346101215760a03660031901126101215760843560643560043560243560443581156113375780156112fa5783156112b55761012c85106112705761113e8230337f0000000000000000000000000000000000000000000000000000000000000000611807565b6002549361114b85611639565b6002556111588642611648565b95604051610100810181811067ffffffffffffffff8211176104c05760405233815260208101978689526040820193868552606083018681526080840191825260a0840192835260c08401956000875260e085019b428d528b600052600560205260406000209560018060a01b039051166bffffffffffffffffffffffff60a01b875416178655516001860155516002850155516003840155516004830155516005820155600681019251600481101561028b5760209861122c9460079260ff801983541691161790555191015542611648565b916040519384528584015260408301526060820152817fe4c84abac159b1ba1d709419b44b97a9f8d4884518b3d20f634515a7b30bc1bb60803393a3604051908152f35b60405162461bcd60e51b815260206004820152601d60248201527f4475726174696f6e206d757374206265203e3d2035206d696e757465730000006044820152606490fd5b60405162461bcd60e51b815260206004820152601860248201527f4d617820747261696e657273206d757374206265203e203000000000000000006044820152606490fd5b60405162461bcd60e51b815260206004820152601560248201527404d696e207374616b65206d757374206265203e203605c1b6044820152606490fd5b60405162461bcd60e51b81526020600482015260126024820152710526577617264206d757374206265203e20360741b6044820152606490fd5b346101215760003660031901126101215761138a61177a565b600080546001600160a01b0319811682556001600160a01b03167f8be0079c531659141344cd1fd0a4f28419497f9722a3daafe3b4186f6b6457e08280a3005b34610121576020366003190112610121576004356113e661177a565b61271081116113f457600355005b60405162461bcd60e51b8152602060048201526011602482015270526174652065786365656473203130302560781b6044820152606490fd5b34610121576020366003190112610121576004358060005260056020526040600020610e4960018060a01b0382541691600181015493600282015491600381015460048201549060ff600660058501549401541693600052600760205260406000205494604051988998896115ae565b34610121576020366003190112610121576114b6611582565b6114be61177a565b6114c66117a3565b6001600160a01b0381161561154b5760045480156115135761150d9160006004557f00000000000000000000000000000000000000000000000000000000000000006117c5565b60018055005b60405162461bcd60e51b815260206004820152601060248201526f4e6f20736c61736865642066756e647360801b6044820152606490fd5b60405162461bcd60e51b815260206004820152600f60248201526e496e76616c6964206164647265737360881b6044820152606490fd5b600435906001600160a01b038216820361012157565b602435906001600160a01b038216820361012157565b94929098979695939161010086019960018060a01b03168652602086015260408501526060840152608083015260a0820152600482101561028b5760e09160c08201520152565b6040906003190112610121576004359060243590565b80548210156116235760005260206000200190600090565b634e487b7160e01b600052603260045260246000fd5b60001981146107b15760010190565b919082018092116107b157565b90601f8019910116810190811067ffffffffffffffff8211176104c057604052565b1561167e57565b60405162461bcd60e51b815260206004820152601660248201527515185cdac8185b1c9958591e48199a5b985b1a5e995960521b6044820152606490fd5b156116c357565b60405162461bcd60e51b81526020600482015260146024820152735461736b206e6f7420696e2070726f677265737360601b6044820152606490fd5b1561170657565b60405162461bcd60e51b815260206004820152600c60248201526b15185cdac8195e1c1a5c995960a21b6044820152606490fd5b1561174157565b60405162461bcd60e51b8152602060048201526011602482015270139bdd0818481c185c9d1a58da5c185b9d607a1b6044820152606490fd5b6000546001600160a01b0316330361178e57565b63118cdaa760e01b6000523360045260246000fd5b6002600154146117b4576002600155565b633ee5aeb560e01b60005260046000fd5b60405163a9059cbb60e01b60208201526001600160a01b03909216602483015260448083019390935291815261180591611800606483611655565b61184b565b565b6040516323b872dd60e01b60208201526001600160a01b03928316602482015292909116604483015260648083019390935291815261180591611800608483611655565b906000602091828151910182855af1156118a6576000513d61189d57506001600160a01b0381163b155b61187c5750565b635274afe760e01b60009081526001600160a01b0391909116600452602490fd5b60011415611875565b6040513d6000823e3d90fdfea264697066735822122070da99f6bc7e3e098f4413275c7c53c09b2c104dc1553190437449163b952aa464736f6c634300081c0033",
  "linkReferences": {},
  "deployedLinkReferences": {}
}