{
  "_format": "hh-sol-artifact-1",
  "contractName": "LuxToken",
  "sourceName": "src/templates/LuxToken.sol",
  "abi": [
    {
      "inputs": [
        {
          "internalType": "string",
          "name": "name",
          "type": "string"
        },
        {
          "internalType": "string",
          "name": "symbol",
          "type": "string"
        },
        {
          "internalType": "uint256",
          "name": "initialSupply",
          "type": "uint256"
        },
        {
          "internalType": "uint256",
          "name": "_maxSupply",
          "type": "uint256"
        }
      ],
      "stateMutability": "nonpayable",
      "type": "constructor"
    },
    {
      "inputs": [],
      "name": "ECDSAInvalidSignature",
      "type": "error"
    },
    {
      "inputs": [
        {
          "internalType": "uint256",
          "name": "length",
          "type": "uint256"
        }
      ],
      "name": "ECDSAInvalidSignatureLength",
      "type": "error"
    },
    {
      "inputs": [
        {
          "internalType": "bytes32",
          "name": "s",
          "type": "bytes32"
        }
      ],
      "name": "ECDSAInvalidSignatureS",
      "type": "error"
    },
    {
      "inputs": [
        {
          "internalType": "address",
          "name": "spender",
          "type": "address"
        },
        {
          "internalType": "uint256",
          "name": "allowance",
          "type": "uint256"
        },
        {
          "internalType": "uint256",
          "name": "needed",
          "type": "uint256"
        }
      ],
      "name": "ERC20InsufficientAllowance",
      "type": "error"
    },
    {
      "inputs": [
        {
          "internalType": "address",
          "name": "sender",
          "type": "address"
        },
        {
          "internalType": "uint256",
          "name": "balance",
          "type": "uint256"
        },
        {
          "internalType": "uint256",
          "name": "needed",
          "type": "uint256"
        }
      ],
      "name": "ERC20InsufficientBalance",
      "type": "error"
    },
    {
      "inputs": [
        {
          "internalType": "address",
          "name": "approver",
          "type": "address"
        }
      ],
      "name": "ERC20InvalidApprover",
      "type": "error"
    },
    {
      "inputs": [
        {
          "internalType": "address",
          "name": "receiver",
          "type": "address"
        }
      ],
      "name": "ERC20InvalidReceiver",
      "type": "error"
    },
    {
      "inputs": [
        {
          "internalType": "address",
          "name": "sender",
          "type": "address"
        }
      ],
      "name": "ERC20InvalidSender",
      "type": "error"
    },
    {
      "inputs": [
        {
          "internalType": "address",
          "name": "spender",
          "type": "address"
        }
      ],
      "name": "ERC20InvalidSpender",
      "type": "error"
    },
    {
      "inputs": [
        {
          "internalType": "uint256",
          "name": "deadline",
          "type": "uint256"
        }
      ],
      "name": "ERC2612ExpiredSignature",
      "type": "error"
    },
    {
      "inputs": [
        {
          "internalType": "address",
          "name": "signer",
          "type": "address"
        },
        {
          "internalType": "address",
          "name": "owner",
          "type": "address"
        }
      ],
      "name": "ERC2612InvalidSigner",
      "type": "error"
    },
    {
      "inputs": [
        {
          "internalType": "address",
          "name": "account",
          "type": "address"
        },
        {
          "internalType": "uint256",
          "name": "currentNonce",
          "type": "uint256"
        }
      ],
      "name": "InvalidAccountNonce",
      "type": "error"
    },
    {
      "inputs": [],
      "name": "InvalidShortString",
      "type": "error"
    },
    {
      "inputs": [
        {
          "internalType": "address",
          "name": "owner",
          "type": "address"
        }
      ],
      "name": "OwnableInvalidOwner",
      "type": "error"
    },
    {
      "inputs": [
        {
          "internalType": "address",
          "name": "account",
          "type": "address"
        }
      ],
      "name": "OwnableUnauthorizedAccount",
      "type": "error"
    },
    {
      "inputs": [
        {
          "internalType": "string",
          "name": "str",
          "type": "string"
        }
      ],
      "name": "StringTooLong",
      "type": "error"
    },
    {
      "anonymous": false,
      "inputs": [
        {
          "indexed": true,
          "internalType": "address",
          "name": "owner",
          "type": "address"
        },
        {
          "indexed": true,
          "internalType": "address",
          "name": "spender",
          "type": "address"
        },
        {
          "indexed": false,
          "internalType": "uint256",
          "name": "value",
          "type": "uint256"
        }
      ],
      "name": "Approval",
      "type": "event"
    },
    {
      "anonymous": false,
      "inputs": [],
      "name": "EIP712DomainChanged",
      "type": "event"
    },
    {
      "anonymous": false,
      "inputs": [],
      "name": "MintingDisabled",
      "type": "event"
    },
    {
      "anonymous": false,
      "inputs": [
        {
          "indexed": true,
          "internalType": "address",
          "name": "previousOwner",
          "type": "address"
        },
        {
          "indexed": true,
          "internalType": "address",
          "name": "newOwner",
          "type": "address"
        }
      ],
      "name": "OwnershipTransferred",
      "type": "event"
    },
    {
      "anonymous": false,
      "inputs": [
        {
          "indexed": true,
          "internalType": "address",
          "name": "to",
          "type": "address"
        },
        {
          "indexed": false,
          "internalType": "uint256",
          "name": "amount",
          "type": "uint256"
        }
      ],
      "name": "TokensMinted",
      "type": "event"
    },
    {
      "anonymous": false,
      "inputs": [
        {
          "indexed": true,
          "internalType": "address",
          "name": "from",
          "type": "address"
        },
        {
          "indexed": true,
          "internalType": "address",
          "name": "to",
          "type": "address"
        },
        {
          "indexed": false,
          "internalType": "uint256",
          "name": "value",
          "type": "uint256"
        }
      ],
      "name": "Transfer",
      "type": "event"
    },
    {
      "inputs": [],
      "name": "DOMAIN_SEPARATOR",
      "outputs": [
        {
          "internalType": "bytes32",
          "name": "",
          "type": "bytes32"
        }
      ],
      "stateMutability": "view",
      "type": "function"
    },
    {
      "inputs": [
        {
          "internalType": "address",
          "name": "owner",
          "type": "address"
        },
        {
          "internalType": "address",
          "name": "spender",
          "type": "address"
        }
      ],
      "name": "allowance",
      "outputs": [
        {
          "internalType": "uint256",
          "name": "",
          "type": "uint256"
        }
      ],
      "stateMutability": "view",
      "type": "function"
    },
    {
      "inputs": [
        {
          "internalType": "address",
          "name": "spender",
          "type": "address"
        },
        {
          "internalType": "uint256",
          "name": "value",
          "type": "uint256"
        }
      ],
      "name": "approve",
      "outputs": [
        {
          "internalType": "bool",
          "name": "",
          "type": "bool"
        }
      ],
      "stateMutability": "nonpayable",
      "type": "function"
    },
    {
      "inputs": [
        {
          "internalType": "address",
          "name": "account",
          "type": "address"
        }
      ],
      "name": "balanceOf",
      "outputs": [
        {
          "internalType": "uint256",
          "name": "",
          "type": "uint256"
        }
      ],
      "stateMutability": "view",
      "type": "function"
    },
    {
      "inputs": [
        {
          "internalType": "uint256",
          "name": "value",
          "type": "uint256"
        }
      ],
      "name": "burn",
      "outputs": [],
      "stateMutability": "nonpayable",
      "type": "function"
    },
    {
      "inputs": [
        {
          "internalType": "address",
          "name": "account",
          "type": "address"
        },
        {
          "internalType": "uint256",
          "name": "value",
          "type": "uint256"
        }
      ],
      "name": "burnFrom",
      "outputs": [],
      "stateMutability": "nonpayable",
      "type": "function"
    },
    {
      "inputs": [],
      "name": "decimals",
      "outputs": [
        {
          "internalType": "uint8",
          "name": "",
          "type": "uint8"
        }
      ],
      "stateMutability": "view",
      "type": "function"
    },
    {
      "inputs": [],
      "name": "disableMinting",
      "outputs": [],
      "stateMutability": "nonpayable",
      "type": "function"
    },
    {
      "inputs": [],
      "name": "eip712Domain",
      "outputs": [
        {
          "internalType": "bytes1",
          "name": "fields",
          "type": "bytes1"
        },
        {
          "internalType": "string",
          "name": "name",
          "type": "string"
        },
        {
          "internalType": "string",
          "name": "version",
          "type": "string"
        },
        {
          "internalType": "uint256",
          "name": "chainId",
          "type": "uint256"
        },
        {
          "internalType": "address",
          "name": "verifyingContract",
          "type": "address"
        },
        {
          "internalType": "bytes32",
          "name": "salt",
          "type": "bytes32"
        },
        {
          "internalType": "uint256[]",
          "name": "extensions",
          "type": "uint256[]"
        }
      ],
      "stateMutability": "view",
      "type": "function"
    },
    {
      "inputs": [],
      "name": "maxSupply",
      "outputs": [
        {
          "internalType": "uint256",
          "name": "",
          "type": "uint256"
        }
      ],
      "stateMutability": "view",
      "type": "function"
    },
    {
      "inputs": [
        {
          "internalType": "address",
          "name": "to",
          "type": "address"
        },
        {
          "internalType": "uint256",
          "name": "amount",
          "type": "uint256"
        }
      ],
      "name": "mint",
      "outputs": [],
      "stateMutability": "nonpayable",
      "type": "function"
    },
    {
      "inputs": [],
      "name": "mintingEnabled",
      "outputs": [
        {
          "internalType": "bool",
          "name": "",
          "type": "bool"
        }
      ],
      "stateMutability": "view",
      "type": "function"
    },
    {
      "inputs": [],
      "name": "name",
      "outputs": [
        {
          "internalType": "string",
          "name": "",
          "type": "string"
        }
      ],
      "stateMutability": "view",
      "type": "function"
    },
    {
      "inputs": [
        {
          "internalType": "address",
          "name": "owner",
          "type": "address"
        }
      ],
      "name": "nonces",
      "outputs": [
        {
          "internalType": "uint256",
          "name": "",
          "type": "uint256"
        }
      ],
      "stateMutability": "view",
      "type": "function"
    },
    {
      "inputs": [],
      "name": "owner",
      "outputs": [
        {
          "internalType": "address",
          "name": "",
          "type": "address"
        }
      ],
      "stateMutability": "view",
      "type": "function"
    },
    {
      "inputs": [
        {
          "internalType": "address",
          "name": "owner",
          "type": "address"
        },
        {
          "internalType": "address",
          "name": "spender",
          "type": "address"
        },
        {
          "internalType": "uint256",
          "name": "value",
          "type": "uint256"
        },
        {
          "internalType": "uint256",
          "name": "deadline",
          "type": "uint256"
        },
        {
          "internalType": "uint8",
          "name": "v",
          "type": "uint8"
        },
        {
          "internalType": "bytes32",
          "name": "r",
          "type": "bytes32"
        },
        {
          "internalType": "bytes32",
          "name": "s",
          "type": "bytes32"
        }
      ],
      "name": "permit",
      "outputs": [],
      "stateMutability": "nonpayable",
      "type": "function"
    },
    {
      "inputs": [],
      "name": "renounceOwnership",
      "outputs": [],
      "stateMutability": "nonpayable",
      "type": "function"
    },
    {
      "inputs": [],
      "name": "symbol",
      "outputs": [
        {
          "internalType": "string",
          "name": "",
          "type": "string"
        }
      ],
      "stateMutability": "view",
      "type": "function"
    },
    {
      "inputs": [
        {
          "internalType": "uint256",
          "name": "amount",
          "type": "uint256"
        }
      ],
      "name": "toTokenUnits",
      "outputs": [
        {
          "internalType": "uint256",
          "name": "",
          "type": "uint256"
        }
      ],
      "stateMutability": "view",
      "type": "function"
    },
    {
      "inputs": [],
      "name": "totalSupply",
      "outputs": [
        {
          "internalType": "uint256",
          "name": "",
          "type": "uint256"
        }
      ],
      "stateMutability": "view",
      "type": "function"
    },
    {
      "inputs": [
        {
          "internalType": "address",
          "name": "to",
          "type": "address"
        },
        {
          "internalType": "uint256",
          "name": "value",
          "type": "uint256"
        }
      ],
      "name": "transfer",
      "outputs": [
        {
          "internalType": "bool",
          "name": "",
          "type": "bool"
        }
      ],
      "stateMutability": "nonpayable",
      "type": "function"
    },
    {
      "inputs": [
        {
          "internalType": "address",
          "name": "from",
          "type": "address"
        },
        {
          "internalType": "address",
          "name": "to",
          "type": "address"
        },
        {
          "internalType": "uint256",
          "name": "value",
          "type": "uint256"
        }
      ],
      "name": "transferFrom",
      "outputs": [
        {
          "internalType": "bool",
          "name": "",
          "type": "bool"
        }
      ],
      "stateMutability": "nonpayable",
      "type": "function"
    },
    {
      "inputs": [
        {
          "internalType": "address",
          "name": "newOwner",
          "type": "address"
        }
      ],
      "name": "transferOwnership",
      "outputs": [],
      "stateMutability": "nonpayable",
      "type": "function"
    }
  ],
  "bytecode": "0x610160806040523461059457611a6b803803809161001d8285610599565b83398101906080818303126105945780516001600160401b03811161059457826100489183016105df565b602082015190926001600160401b038211610594576100689183016105df565b9160606040830151920151906040938451916100848684610599565b60018352603160f81b6020840190815281519092906001600160401b03811161049e57600354600181811c9116801561058a575b602082101461047e57601f8111610525575b50806020601f82116001146104bf576000916104b4575b508160011b916000199060031b1c1916176003555b8051906001600160401b03821161049e5760045490600182811c92168015610494575b602083101461047e5781601f84931161040e575b50602090601f83116001146103a65760009261039b575b50508160011b916000199060031b1c1916176004555b33156103855760058054336001600160a01b0319821681179092556001600160a01b03167f8be0079c531659141344cd1fd0a4f28419497f9722a3daafe3b4186f6b6457e0600080a36101ac81610633565b610120526101b9836107c4565b6101405260208151910120918260e05251902080610100524660a05284519060208201927f8b73c3c69bb8fe3d512ecc4cf759cc79239f7b179b0ffacaa9a75d522b39400f84528683015260608201524660808201523060a082015260a0815261022460c082610599565b5190206080523060c0528015801561037b575b1561034757600955600160ff19600a541617600a55801580156102a5575b82516111649081610907823960805181610d7f015260a05181610e3c015260c05181610d49015260e05181610dce01526101005181610df40152610120518161050f015261014051816105380152f35b670de0b6b3a76400008202918204670de0b6b3a764000014171561033157600060025482810180911161031d576002555033600052600060205281600020818154019055815190815260007fddf252ad1be2c89b69c2b068fc378daa952ba7f163c4a11628f55a4df523b3ef60203393a33880610255565b634e487b7160e01b82526011600452602482fd5b634e487b7160e01b600052601160045260246000fd5b825162461bcd60e51b815260206004820152600d60248201526c092dcd2e8d2c2d8407c40dac2f609b1b6044820152606490fd5b5080821115610237565b631e4fbdf760e01b600052600060045260246000fd5b015190503880610144565b600460009081528281209350601f198516905b8181106103f657509084600195949392106103dd575b505050811b0160045561015a565b015160001960f88460031b161c191690553880806103cf565b929360206001819287860151815501950193016103b9565b60046000529091507f8a35acfbc15ff81a39ae7d344fd709f28e8600b4aa8c65c6b64bfe7fe36bd19b601f840160051c81019160208510610474575b90601f859493920160051c01905b818110610465575061012d565b60008155849350600101610458565b909150819061044a565b634e487b7160e01b600052602260045260246000fd5b91607f1691610119565b634e487b7160e01b600052604160045260246000fd5b9050830151386100e1565b600360009081528181209250601f198416905b81811061050d575090836001949392106104f4575b5050811b016003556100f6565b85015160001960f88460031b161c1916905538806104e7565b9192602060018192868a0151815501940192016104d2565b60036000527fc2575a0e9e593c00f959f8c92f12db2869c3395a3b0502d05e2516446f71f85b601f830160051c81019160208410610580575b601f0160051c01905b81811061057457506100ca565b60008155600101610567565b909150819061055e565b90607f16906100b8565b600080fd5b601f909101601f19168101906001600160401b0382119082101761049e57604052565b60005b8381106105cf5750506000910152565b81810151838201526020016105bf565b81601f820112156105945780516001600160401b03811161049e5760405192610612601f8301601f191660200185610599565b818452602082840101116105945761063091602080850191016105bc565b90565b908151602081106000146106ae575090601f81511161066f57602081519101516020821061065f571790565b6000198260200360031b1b161790565b6044604051809263305a27a960e01b8252602060048301526106a081518092816024860152602086860191016105bc565b601f01601f19168101030190fd5b6001600160401b03811161049e57600654600181811c911680156107ba575b602082101461047e57601f8111610784575b50602092601f821160011461071f5792819293600092610714575b50508160011b916000199060031b1c19161760065560ff90565b0151905038806106fa565b601f198216936006600052806000209160005b86811061076c5750836001959610610753575b505050811b0160065560ff90565b015160001960f88460031b161c19169055388080610745565b91926020600181928685015181550194019201610732565b6006600052601f6020600020910160051c810190601f830160051c015b8181106107ae57506106df565b600081556001016107a1565b90607f16906106cd565b908151602081106000146107f0575090601f81511161066f57602081519101516020821061065f571790565b6001600160401b03811161049e57600754600181811c911680156108fc575b602082101461047e57601f81116108c6575b50602092601f82116001146108615792819293600092610856575b50508160011b916000199060031b1c19161760075560ff90565b01519050388061083c565b601f198216936007600052806000209160005b8681106108ae5750836001959610610895575b505050811b0160075560ff90565b015160001960f88460031b161c19169055388080610887565b91926020600181928685015181550194019201610874565b6007600052601f6020600020910160051c810190601f830160051c015b8181106108f05750610821565b600081556001016108e3565b90607f169061080f56fe608080604052600436101561001357600080fd5b60003560e01c90816306fdde031461098357508063095ea7b31461095d57806318160ddd1461093f57806323b872dd14610907578063313ce567146108eb5780633644e515146108d057806340c10f191461075b57806342966c681461073e57806370a0823114610704578063715018a6146106a757806379cc6790146106775780637e5cd5c11461062d5780637ecebe00146105f357806384b0196e146104f65780638da5cb5b146104cd57806395d89b41146103e85780639fd6db12146103c5578063a9059cbb14610394578063c2a755f414610365578063d505accf1461021a578063d5abeb01146101fc578063dd62ed3e146101ab5763f2fde38b1461011c57600080fd5b346101a65760203660031901126101a657610135610a69565b61013d610e62565b6001600160a01b0316801561019057600580546001600160a01b0319811683179091556001600160a01b03167f8be0079c531659141344cd1fd0a4f28419497f9722a3daafe3b4186f6b6457e0600080a3005b631e4fbdf760e01b600052600060045260246000fd5b600080fd5b346101a65760403660031901126101a6576101c4610a69565b6101cc610a7f565b6001600160a01b039182166000908152600160209081526040808320949093168252928352819020549051908152f35b346101a65760003660031901126101a6576020600954604051908152f35b346101a65760e03660031901126101a657610233610a69565b61023b610a7f565b604435906064359260843560ff811681036101a6578442116103505761031161031a9160018060a01b038416968760005260086020526040600020908154916001830190556040519060208201927f6e71edae12b1b97f4d1f60370fef10105fa2faae0126114a169c64845d6126c984528a604084015260018060a01b038916606084015289608084015260a083015260c082015260c081526102df60e082610b52565b5190206102ea610d46565b906040519161190160f01b83526002830152602282015260c43591604260a4359220611011565b909291926110a6565b6001600160a01b031684810361033757506103359350610f0c565b005b84906325c0072360e11b60005260045260245260446000fd5b8463313c898160e11b60005260045260246000fd5b346101a65760203660031901126101a657602061038c670de0b6b3a7640000600435610bad565b604051908152f35b346101a65760403660031901126101a6576103ba6103b0610a69565b6024359033610c97565b602060405160018152f35b346101a65760003660031901126101a657602060ff600a54166040519015158152f35b346101a65760003660031901126101a657604051600060045461040a81610a95565b80845290600181169081156104a9575060011461044a575b6104468361043281850382610b52565b604051918291602083526020830190610a28565b0390f35b600460009081527f8a35acfbc15ff81a39ae7d344fd709f28e8600b4aa8c65c6b64bfe7fe36bd19b939250905b80821061048f57509091508101602001610432610422565b919260018160209254838588010152019101909291610477565b60ff191660208086019190915291151560051b840190910191506104329050610422565b346101a65760003660031901126101a6576005546040516001600160a01b039091168152602090f35b346101a65760003660031901126101a6576105956105337f0000000000000000000000000000000000000000000000000000000000000000610f73565b61055c7f0000000000000000000000000000000000000000000000000000000000000000610fda565b60206105a36040519261056f8385610b52565b600084526000368137604051958695600f60f81b875260e08588015260e0870190610a28565b908582036040870152610a28565b466060850152306080850152600060a085015283810360c085015281808451928381520193019160005b8281106105dc57505050500390f35b8351855286955093810193928101926001016105cd565b346101a65760203660031901126101a6576001600160a01b03610614610a69565b1660005260086020526020604060002054604051908152f35b346101a65760003660031901126101a657610646610e62565b60ff19600a5416600a557faf79b4370f6af9d950564bbe6b81f7f0834c003c455db9248f4e55e6bf865eb7600080a1005b346101a65760403660031901126101a657610335610693610a69565b602435906106a2823383610bc0565b610e8b565b346101a65760003660031901126101a6576106c0610e62565b600580546001600160a01b031981169091556000906001600160a01b03167f8be0079c531659141344cd1fd0a4f28419497f9722a3daafe3b4186f6b6457e08280a3005b346101a65760203660031901126101a6576001600160a01b03610725610a69565b1660005260006020526020604060002054604051908152f35b346101a65760203660031901126101a65761033560043533610e8b565b346101a65760403660031901126101a657610774610a69565b60243590610780610e62565b60ff600a5416156108985760095480610834575b506001600160a01b0316801561081e576107b082600254610b8a565b6002557f3f2c9d57c068687834f0de942a9babb9e5acab57d516d3480a3c16ee165a427360206000938385528482526040852081815401905583857fddf252ad1be2c89b69c2b068fc378daa952ba7f163c4a11628f55a4df523b3ef84604051858152a3604051908152a280f35b63ec442f0560e01b600052600060045260246000fd5b61085361084384600254610b8a565b91670de0b6b3a764000090610bad565b1061085e5782610794565b60405162461bcd60e51b815260206004820152601260248201527145786365656473206d617820737570706c7960701b6044820152606490fd5b60405162461bcd60e51b815260206004820152601060248201526f135a5b9d1a5b99c8191a5cd8589b195960821b6044820152606490fd5b346101a65760003660031901126101a657602061038c610d46565b346101a65760003660031901126101a657602060405160128152f35b346101a65760603660031901126101a6576103ba610923610a69565b61092b610a7f565b6044359161093a833383610bc0565b610c97565b346101a65760003660031901126101a6576020600254604051908152f35b346101a65760403660031901126101a6576103ba610979610a69565b6024359033610f0c565b346101a65760003660031901126101a65760006003546109a281610a95565b80845290600181169081156104a957506001146109c9576104468361043281850382610b52565b600360009081527fc2575a0e9e593c00f959f8c92f12db2869c3395a3b0502d05e2516446f71f85b939250905b808210610a0e57509091508101602001610432610422565b9192600181602092548385880101520191019092916109f6565b919082519283825260005b848110610a54575050826000602080949584010152601f8019910116010190565b80602080928401015182828601015201610a33565b600435906001600160a01b03821682036101a657565b602435906001600160a01b03821682036101a657565b90600182811c92168015610ac5575b6020831014610aaf57565b634e487b7160e01b600052602260045260246000fd5b91607f1691610aa4565b60009291815491610adf83610a95565b8083529260018116908115610b355750600114610afb57505050565b60009081526020812093945091925b838310610b1b575060209250010190565b600181602092949394548385870101520191019190610b0a565b915050602093945060ff929192191683830152151560051b010190565b90601f8019910116810190811067ffffffffffffffff821117610b7457604052565b634e487b7160e01b600052604160045260246000fd5b91908201809211610b9757565b634e487b7160e01b600052601160045260246000fd5b81810292918115918404141715610b9757565b6001600160a01b039081166000818152600160209081526040808320948616835293905291909120549291906000198410610bfc575b50505050565b828410610c72578015610c5c576001600160a01b03821615610c4657600052600160205260406000209060018060a01b031660005260205260406000209103905538808080610bf6565b634a1406b160e11b600052600060045260246000fd5b63e602df0560e01b600052600060045260246000fd5b508290637dc7a0d960e11b60005260018060a01b031660045260245260445260646000fd5b6001600160a01b0316908115610d30576001600160a01b031691821561081e576000828152806020526040812054828110610d165791604082827fddf252ad1be2c89b69c2b068fc378daa952ba7f163c4a11628f55a4df523b3ef958760209652828652038282205586815280845220818154019055604051908152a3565b916064928463391434e360e21b8452600452602452604452fd5b634b637e8f60e11b600052600060045260246000fd5b307f00000000000000000000000000000000000000000000000000000000000000006001600160a01b03161480610e39575b15610da1577f000000000000000000000000000000000000000000000000000000000000000090565b60405160208101907f8b73c3c69bb8fe3d512ecc4cf759cc79239f7b179b0ffacaa9a75d522b39400f82527f000000000000000000000000000000000000000000000000000000000000000060408201527f000000000000000000000000000000000000000000000000000000000000000060608201524660808201523060a082015260a08152610e3360c082610b52565b51902090565b507f00000000000000000000000000000000000000000000000000000000000000004614610d78565b6005546001600160a01b03163303610e7657565b63118cdaa760e01b6000523360045260246000fd5b6001600160a01b03168015610d3057600091818352826020526040832054818110610ef357817fddf252ad1be2c89b69c2b068fc378daa952ba7f163c4a11628f55a4df523b3ef926020928587528684520360408620558060025403600255604051908152a3565b6064939263391434e360e21b8452600452602452604452fd5b6001600160a01b0316908115610c5c576001600160a01b0316918215610c465760207f8c5be1e5ebec7d5bd14f71427d1e84f3dd0314c0f7b2291e5b200ac8c7c3b925918360005260018252604060002085600052825280604060002055604051908152a3565b60ff8114610fbd5760ff811690601f8211610fac576040805192610f978285610b52565b6020808552840191601f190136833783525290565b632cd44ac360e21b60005260046000fd5b50604051610fd781610fd0816006610acf565b0382610b52565b90565b60ff8114610ffe5760ff811690601f8211610fac576040805192610f978285610b52565b50604051610fd781610fd0816007610acf565b91907f7fffffffffffffffffffffffffffffff5d576e7357a4501ddfe92f46681b20a0841161109a579160209360809260ff60009560405194855216868401526040830152606082015282805260015afa1561108e576000516001600160a01b038116156110825790600090600090565b50600090600190600090565b6040513d6000823e3d90fd5b50505060009160039190565b919091600481101561111857806110bc57509050565b6000600182036110d75763f645eedf60e01b60005260046000fd5b50600281036110f5578263fce698f760e01b60005260045260246000fd5b9091600360009214611105575050565b6335e2f38360e21b825260045260249150fd5b634e487b7160e01b600052602160045260246000fdfea2646970667358221220c37d9ce4bca15031810fe90c6345a4ebe190cbe78233a61bb70122fe48ac288f64736f6c634300081c0033",
  "linkReferences": {},
  "deployedLinkReferences": {}
}