{
  "_format": "hh-sol-artifact-1",
  "contractName": "SimpleVesting",
  "sourceName": "src/templates/SimpleVesting.sol",
  "abi": [
    {
      "inputs": [
        {
          "internalType": "address",
          "name": "_beneficiary",
          "type": "address"
        },
        {
          "internalType": "uint256",
          "name": "_lockDuration",
          "type": "uint256"
        }
      ],
      "stateMutability": "payable",
      "type": "constructor"
    },
    {
      "anonymous": false,
      "inputs": [
        {
          "indexed": true,
          "internalType": "address",
          "name": "beneficiary",
          "type": "address"
        },
        {
          "indexed": false,
          "internalType": "uint256",
          "name": "amount",
          "type": "uint256"
        },
        {
          "indexed": false,
          "internalType": "uint256",
          "name": "releaseTime",
          "type": "uint256"
        }
      ],
      "name": "Locked",
      "type": "event"
    },
    {
      "anonymous": false,
      "inputs": [
        {
          "indexed": true,
          "internalType": "address",
          "name": "owner",
          "type": "address"
        },
        {
          "indexed": false,
          "internalType": "uint256",
          "name": "amount",
          "type": "uint256"
        }
      ],
      "name": "Revoked",
      "type": "event"
    },
    {
      "anonymous": false,
      "inputs": [
        {
          "indexed": true,
          "internalType": "address",
          "name": "beneficiary",
          "type": "address"
        },
        {
          "indexed": false,
          "internalType": "uint256",
          "name": "amount",
          "type": "uint256"
        }
      ],
      "name": "Unlocked",
      "type": "event"
    },
    {
      "inputs": [],
      "name": "MAX_LOCK_DURATION",
      "outputs": [
        {
          "internalType": "uint256",
          "name": "",
          "type": "uint256"
        }
      ],
      "stateMutability": "view",
      "type": "function"
    },
    {
      "inputs": [],
      "name": "MIN_LOCK_DURATION",
      "outputs": [
        {
          "internalType": "uint256",
          "name": "",
          "type": "uint256"
        }
      ],
      "stateMutability": "view",
      "type": "function"
    },
    {
      "inputs": [],
      "name": "beneficiary",
      "outputs": [
        {
          "internalType": "address",
          "name": "",
          "type": "address"
        }
      ],
      "stateMutability": "view",
      "type": "function"
    },
    {
      "inputs": [],
      "name": "canUnlock",
      "outputs": [
        {
          "internalType": "bool",
          "name": "",
          "type": "bool"
        }
      ],
      "stateMutability": "view",
      "type": "function"
    },
    {
      "inputs": [],
      "name": "getBalance",
      "outputs": [
        {
          "internalType": "uint256",
          "name": "",
          "type": "uint256"
        }
      ],
      "stateMutability": "view",
      "type": "function"
    },
    {
      "inputs": [],
      "name": "lockedAmount",
      "outputs": [
        {
          "internalType": "uint256",
          "name": "",
          "type": "uint256"
        }
      ],
      "stateMutability": "view",
      "type": "function"
    },
    {
      "inputs": [],
      "name": "owner",
      "outputs": [
        {
          "internalType": "address",
          "name": "",
          "type": "address"
        }
      ],
      "stateMutability": "view",
      "type": "function"
    },
    {
      "inputs": [],
      "name": "releaseTime",
      "outputs": [
        {
          "internalType": "uint256",
          "name": "",
          "type": "uint256"
        }
      ],
      "stateMutability": "view",
      "type": "function"
    },
    {
      "inputs": [],
      "name": "released",
      "outputs": [
        {
          "internalType": "bool",
          "name": "",
          "type": "bool"
        }
      ],
      "stateMutability": "view",
      "type": "function"
    },
    {
      "inputs": [],
      "name": "remainingLockTime",
      "outputs": [
        {
          "internalType": "uint256",
          "name": "",
          "type": "uint256"
        }
      ],
      "stateMutability": "view",
      "type": "function"
    },
    {
      "inputs": [],
      "name": "revoke",
      "outputs": [],
      "stateMutability": "nonpayable",
      "type": "function"
    },
    {
      "inputs": [],
      "name": "revoked",
      "outputs": [
        {
          "internalType": "bool",
          "name": "",
          "type": "bool"
        }
      ],
      "stateMutability": "view",
      "type": "function"
    },
    {
      "inputs": [],
      "name": "unlock",
      "outputs": [],
      "stateMutability": "nonpayable",
      "type": "function"
    }
  ],
  "bytecode": "0x60e0601f6109ba38819003918201601f19168301916001600160401b038311848410176102095780849260409485528339810103126102045780516001600160a01b0381169182820361020457602001519082156101bf57341561017a5760018210158061016c575b15610127573360805260a052346000554201804211610111576040817fd4665e3049283582ba6f9eba07a5b3e12dab49e02da99e8927a47af5d134bea59260c05261ffff196001541660015560016002558151903482526020820152a260405161079a908161022082396080518181816101a101526104d5015260a0518181816102e20152610599015260c05181818160e9015281816101590152818161031401526107140152f35b634e487b7160e01b600052601160045260246000fd5b60405162461bcd60e51b815260206004820152601560248201527f496e76616c6964206c6f636b206475726174696f6e00000000000000000000006044820152606490fd5b506312cc0300821115610068565b60405162461bcd60e51b815260206004820152601560248201527f4d757374206c6f636b20736f6d6520746f6b656e7300000000000000000000006044820152606490fd5b60405162461bcd60e51b815260206004820152601360248201527f496e76616c69642062656e6566696369617279000000000000000000000000006044820152606490fd5b600080fd5b634e487b7160e01b600052604160045260246000fdfe608080604052600436101561001357600080fd5b60003560e01c90816312065fe0146105c85750806338af3eed146105835780634f1bfc9e1461056457806363d256ce1461053e5780636ab28bc81461052057806378b4330f146105045780638da5cb5b146104bf578063961325211461049c578063a69df4b5146102bd578063b6549f751461017c578063b91d400114610141578063c1586ad3146100d65763ec0359f4146100ae57600080fd5b346100d15760003660031901126100d15760206100c9610712565b604051908152f35b600080fd5b346100d15760003660031901126100d1577f000000000000000000000000000000000000000000000000000000000000000042101580610134575b80610124575b6020906040519015158152f35b5060015460081c60ff1615610117565b5060ff6001541615610111565b346100d15760003660031901126100d15760206040517f00000000000000000000000000000000000000000000000000000000000000008152f35b346100d15760003660031901126100d15761019b6002805414156105e1565b600280557f00000000000000000000000000000000000000000000000000000000000000006001600160a01b031633819003610280576001546101e160ff82161561062d565b60ff8160081c16610249576101009061ff001916176001557f713b90881ad62c4fa8ab6bd9197fa86481fc0c11b2edba60026514281b2dbac46020476000805561023b600080808085895af161023561066c565b506106d4565b604051908152a26001600255005b60405162461bcd60e51b815260206004820152600f60248201526e105b1c9958591e481c995d9bdad959608a1b6044820152606490fd5b60405162461bcd60e51b81526020600482015260156024820152744f6e6c79206f776e65722063616e207265766f6b6560581b6044820152606490fd5b346100d15760003660031901126100d1576102dc6002805414156105e1565b600280557f00000000000000000000000000000000000000000000000000000000000000006001600160a01b031633819003610457577f0000000000000000000000000000000000000000000000000000000000000000421061041a5760015461034960ff82161561062d565b60ff8160081c166103e35747906000548092106103a7577f0f0bc5b519ddefdd8e5f9e6423433aa2b869738de2ae34d58ebc796fc749fa0d91600160209260ff1916176001556000805561023b600080808085895af161023561066c565b60405162461bcd60e51b8152602060048201526014602482015273496e73756666696369656e742062616c616e636560601b6044820152606490fd5b60405162461bcd60e51b815260206004820152600f60248201526e15995cdd1a5b99c81c995d9bdad959608a1b6044820152606490fd5b60405162461bcd60e51b8152602060048201526015602482015274131bd8dac81c195c9a5bd9081b9bdd08195b991959605a1b6044820152606490fd5b60405162461bcd60e51b815260206004820152601b60248201527f4f6e6c792062656e65666963696172792063616e20756e6c6f636b00000000006044820152606490fd5b346100d15760003660031901126100d157602060ff600154166040519015158152f35b346100d15760003660031901126100d1576040517f00000000000000000000000000000000000000000000000000000000000000006001600160a01b03168152602090f35b346100d15760003660031901126100d157602060405160018152f35b346100d15760003660031901126100d1576020600054604051908152f35b346100d15760003660031901126100d157602060ff60015460081c166040519015158152f35b346100d15760003660031901126100d15760206040516312cc03008152f35b346100d15760003660031901126100d1576040517f00000000000000000000000000000000000000000000000000000000000000006001600160a01b03168152602090f35b346100d15760003660031901126100d157602090478152f35b156105e857565b60405162461bcd60e51b815260206004820152601f60248201527f5265656e7472616e637947756172643a207265656e7472616e742063616c6c006044820152606490fd5b1561063457565b60405162461bcd60e51b815260206004820152601060248201526f105b1c9958591e481c995b19585cd95960821b6044820152606490fd5b3d156106cf573d9067ffffffffffffffff82116106b95760405191601f8101601f19908116603f0116830167ffffffffffffffff8111848210176106b95760405282523d6000602084013e565b634e487b7160e01b600052604160045260246000fd5b606090565b156106db57565b60405162461bcd60e51b815260206004820152600f60248201526e151c985b9cd9995c8819985a5b1959608a1b6044820152606490fd5b7f00000000000000000000000000000000000000000000000000000000000000008042101561075e574281039081116107485790565b634e487b7160e01b600052601160045260246000fd5b5060009056fea2646970667358221220bda9a7c5867d63273b67caf7eb7ff7e7380454ed37b7912c6197ef3dbb9539e264736f6c634300081c0033",
  "linkReferences": {},
  "deployedLinkReferences": {}
}