{
  "_format": "hh-sol-artifact-1",
  "contractName": "MDTStaking",
  "sourceName": "src/MDTStaking.sol",
  "abi": [
    {
      "inputs": [
        {
          "internalType": "address",
          "name": "_token",
          "type": "address"
        }
      ],
      "stateMutability": "nonpayable",
      "type": "constructor"
    },
    {
      "inputs": [
        {
          "internalType": "address",
          "name": "owner",
          "type": "address"
        }
      ],
      "name": "OwnableInvalidOwner",
      "type": "error"
    },
    {
      "inputs": [
        {
          "internalType": "address",
          "name": "account",
          "type": "address"
        }
      ],
      "name": "OwnableUnauthorizedAccount",
      "type": "error"
    },
    {
      "inputs": [],
      "name": "ReentrancyGuardReentrantCall",
      "type": "error"
    },
    {
      "inputs": [
        {
          "internalType": "address",
          "name": "token",
          "type": "address"
        }
      ],
      "name": "SafeERC20FailedOperation",
      "type": "error"
    },
    {
      "anonymous": false,
      "inputs": [
        {
          "indexed": true,
          "internalType": "address",
          "name": "previousOwner",
          "type": "address"
        },
        {
          "indexed": true,
          "internalType": "address",
          "name": "newOwner",
          "type": "address"
        }
      ],
      "name": "OwnershipTransferred",
      "type": "event"
    },
    {
      "anonymous": false,
      "inputs": [
        {
          "indexed": true,
          "internalType": "address",
          "name": "staker",
          "type": "address"
        },
        {
          "indexed": false,
          "internalType": "uint256",
          "name": "amount",
          "type": "uint256"
        },
        {
          "indexed": false,
          "internalType": "uint256",
          "name": "lockDays",
          "type": "uint256"
        },
        {
          "indexed": false,
          "internalType": "uint256",
          "name": "bonusRate",
          "type": "uint256"
        },
        {
          "indexed": false,
          "internalType": "uint256",
          "name": "unlockTime",
          "type": "uint256"
        }
      ],
      "name": "Staked",
      "type": "event"
    },
    {
      "anonymous": false,
      "inputs": [
        {
          "indexed": true,
          "internalType": "address",
          "name": "staker",
          "type": "address"
        },
        {
          "indexed": false,
          "internalType": "uint256",
          "name": "amount",
          "type": "uint256"
        },
        {
          "indexed": false,
          "internalType": "uint256",
          "name": "bonus",
          "type": "uint256"
        },
        {
          "indexed": false,
          "internalType": "uint256",
          "name": "totalReturned",
          "type": "uint256"
        }
      ],
      "name": "Unstaked",
      "type": "event"
    },
    {
      "inputs": [
        {
          "internalType": "uint256",
          "name": "amount",
          "type": "uint256"
        }
      ],
      "name": "fundBonusPool",
      "outputs": [],
      "stateMutability": "nonpayable",
      "type": "function"
    },
    {
      "inputs": [
        {
          "internalType": "uint256",
          "name": "lockDays",
          "type": "uint256"
        }
      ],
      "name": "getBonusRate",
      "outputs": [
        {
          "internalType": "uint256",
          "name": "",
          "type": "uint256"
        }
      ],
      "stateMutability": "pure",
      "type": "function"
    },
    {
      "inputs": [
        {
          "internalType": "address",
          "name": "staker",
          "type": "address"
        }
      ],
      "name": "getStakeCount",
      "outputs": [
        {
          "internalType": "uint256",
          "name": "",
          "type": "uint256"
        }
      ],
      "stateMutability": "view",
      "type": "function"
    },
    {
      "inputs": [
        {
          "internalType": "address",
          "name": "staker",
          "type": "address"
        }
      ],
      "name": "getStakeInfo",
      "outputs": [
        {
          "internalType": "uint256",
          "name": "activeStakes",
          "type": "uint256"
        },
        {
          "internalType": "uint256",
          "name": "totalLocked",
          "type": "uint256"
        },
        {
          "internalType": "uint256",
          "name": "pendingBonus",
          "type": "uint256"
        }
      ],
      "stateMutability": "view",
      "type": "function"
    },
    {
      "inputs": [
        {
          "internalType": "address",
          "name": "staker",
          "type": "address"
        },
        {
          "internalType": "uint256",
          "name": "index",
          "type": "uint256"
        }
      ],
      "name": "getStakeLock",
      "outputs": [
        {
          "internalType": "uint256",
          "name": "amount",
          "type": "uint256"
        },
        {
          "internalType": "uint256",
          "name": "lockTime",
          "type": "uint256"
        },
        {
          "internalType": "uint256",
          "name": "unlockTime",
          "type": "uint256"
        },
        {
          "internalType": "uint256",
          "name": "bonusRate",
          "type": "uint256"
        },
        {
          "internalType": "bool",
          "name": "withdrawn",
          "type": "bool"
        },
        {
          "internalType": "bool",
          "name": "canUnlock",
          "type": "bool"
        }
      ],
      "stateMutability": "view",
      "type": "function"
    },
    {
      "inputs": [
        {
          "internalType": "uint256",
          "name": "amount",
          "type": "uint256"
        },
        {
          "internalType": "uint256",
          "name": "lockDays",
          "type": "uint256"
        }
      ],
      "name": "lock",
      "outputs": [],
      "stateMutability": "nonpayable",
      "type": "function"
    },
    {
      "inputs": [
        {
          "internalType": "uint256",
          "name": "amount",
          "type": "uint256"
        },
        {
          "internalType": "uint256",
          "name": "lockSeconds_",
          "type": "uint256"
        }
      ],
      "name": "lockSeconds",
      "outputs": [],
      "stateMutability": "nonpayable",
      "type": "function"
    },
    {
      "inputs": [],
      "name": "owner",
      "outputs": [
        {
          "internalType": "address",
          "name": "",
          "type": "address"
        }
      ],
      "stateMutability": "view",
      "type": "function"
    },
    {
      "inputs": [],
      "name": "renounceOwnership",
      "outputs": [],
      "stateMutability": "nonpayable",
      "type": "function"
    },
    {
      "inputs": [
        {
          "internalType": "address",
          "name": "",
          "type": "address"
        },
        {
          "internalType": "uint256",
          "name": "",
          "type": "uint256"
        }
      ],
      "name": "stakeLocks",
      "outputs": [
        {
          "internalType": "uint256",
          "name": "amount",
          "type": "uint256"
        },
        {
          "internalType": "uint256",
          "name": "lockTime",
          "type": "uint256"
        },
        {
          "internalType": "uint256",
          "name": "unlockTime",
          "type": "uint256"
        },
        {
          "internalType": "uint256",
          "name": "bonusRate",
          "type": "uint256"
        },
        {
          "internalType": "bool",
          "name": "withdrawn",
          "type": "bool"
        }
      ],
      "stateMutability": "view",
      "type": "function"
    },
    {
      "inputs": [],
      "name": "token",
      "outputs": [
        {
          "internalType": "contract IERC20",
          "name": "",
          "type": "address"
        }
      ],
      "stateMutability": "view",
      "type": "function"
    },
    {
      "inputs": [],
      "name": "totalBonusPaid",
      "outputs": [
        {
          "internalType": "uint256",
          "name": "",
          "type": "uint256"
        }
      ],
      "stateMutability": "view",
      "type": "function"
    },
    {
      "inputs": [],
      "name": "totalBonusReserved",
      "outputs": [
        {
          "internalType": "uint256",
          "name": "",
          "type": "uint256"
        }
      ],
      "stateMutability": "view",
      "type": "function"
    },
    {
      "inputs": [],
      "name": "totalStaked",
      "outputs": [
        {
          "internalType": "uint256",
          "name": "",
          "type": "uint256"
        }
      ],
      "stateMutability": "view",
      "type": "function"
    },
    {
      "inputs": [
        {
          "internalType": "address",
          "name": "newOwner",
          "type": "address"
        }
      ],
      "name": "transferOwnership",
      "outputs": [],
      "stateMutability": "nonpayable",
      "type": "function"
    },
    {
      "inputs": [
        {
          "internalType": "uint256",
          "name": "index",
          "type": "uint256"
        }
      ],
      "name": "unlock",
      "outputs": [],
      "stateMutability": "nonpayable",
      "type": "function"
    }
  ],
  "bytecode": "0x60a03461012857601f610fee38819003918201601f19168301916001600160401b0383118484101761012d5780849260209460405283398101031261012857516001600160a01b038116908190036101285733156101125760008054336001600160a01b03198216811783556040519290916001600160a01b0316907f8be0079c531659141344cd1fd0a4f28419497f9722a3daafe3b4186f6b6457e09080a36001805581156100e05750608052604051610eaa9081610144823960805181818160e2015281816102310152818161081a0152818161091001526109680152f35b62461bcd60e51b815260206004820152600d60248201526c24b73b30b634b2103a37b5b2b760991b6044820152606490fd5b631e4fbdf760e01b600052600060045260246000fd5b600080fd5b634e487b7160e01b600052604160045260246000fdfe6080604052600436101561001257600080fd5b60003560e01c80631338736f146109365780634b7aeb21146108ed57806354a1dd28146108cf5780636198e3391461070d578063715018a6146106b4578063817b1cd2146106965780638325263c146106785780638da5cb5b1461064f578063971fe937146105ca578063a458bd3e1461051b578063c34531531461043c578063cb44acc6146101ff578063cf57ee69146101c5578063e37cd2021461019f578063f2fde38b146101165763fc0c546a146100cc57600080fd5b34610111576000366003190112610111576040517f00000000000000000000000000000000000000000000000000000000000000006001600160a01b03168152602090f35b600080fd5b346101115760203660031901126101115761012f610b24565b610137610df0565b6001600160a01b0316801561018957600080546001600160a01b03198116831782556001600160a01b0316907f8be0079c531659141344cd1fd0a4f28419497f9722a3daafe3b4186f6b6457e09080a3005b631e4fbdf760e01b600052600060045260246000fd5b346101115760203660031901126101115760206101bd600435610d3f565b604051908152f35b34610111576020366003190112610111576001600160a01b036101e6610b24565b1660005260026020526020604060002054604051908152f35b346101115761020d36610b0e565b90610216610df0565b61021e610d83565b610229811515610b6c565b81156103f7577f00000000000000000000000000000000000000000000000000000000000000009161025d82303386610da5565b62015180810461027661026f82610d3f565b9242610c14565b93602460206127106102888688610bad565b6040516370a0823160e01b8152306004820152919004939092839182906001600160a01b03165afa9081156103eb576000916103b4575b509461032761039d927f9cfd25589d1eb8ad71e342a86a8524e83522e3936c0803048c08f6d9ad974f409697600354908260055492836102ff8183610c14565b8411156103a65761031661031b9261032295610c21565b610c21565b1015610c2e565b610c14565b60055533600052600260205261036960406000206040519061034882610bc0565b88825242602083015283604083015286606083015260006080830152610c8c565b61037586600354610c14565b6003556040519384933397859094939260609260808301968352602083015260408201520152565b0390a260018055005b50506103229150600061031b565b906020823d6020116103e3575b816103ce60209383610bf2565b810103126103e05750516103276102bf565b80fd5b3d91506103c1565b6040513d6000823e3d90fd5b60405162461bcd60e51b815260206004820152601860248201527f4c6f636b207365636f6e6473206d757374206265203e203000000000000000006044820152606490fd5b3461011157602036600319011261011157610455610b24565b6000906001600160a01b03168180805b83600052600260205260406000205481101561050357836000526002602052610492816040600020610b3a565b5060ff600482015416156104aa575b50600101610465565b929490919060001981146104ed576001916127106104df846104e694019860036104d689548093610c14565b98015490610bad565b0490610c14565b91906104a1565b634e487b7160e01b600052601160045260246000fd5b50604080518581526020810193909352820152606090f35b346101115760403660031901126101115760c0610573610539610b24565b6001600160a01b03166000818152600260205260409020546024359190610561908310610d03565b60005260026020526040600020610b3a565b5080549060018101549060028101549060ff6004600383015492015416918042101593846105c1575b60405195865260208601526040850152606084015215156080830152151560a0820152f35b8315945061059c565b34610111576040366003190112610111576105e3610b24565b6001600160a01b03166000908152600260205260409020805460243591908210156101115760a09161061491610b3a565b50805490600181015490600281015460ff60046003840154930154169260405194855260208501526040840152606083015215156080820152f35b34610111576000366003190112610111576000546040516001600160a01b039091168152602090f35b34610111576000366003190112610111576020600454604051908152f35b34610111576000366003190112610111576020600354604051908152f35b34610111576000366003190112610111576106cd610df0565b600080546001600160a01b0319811682556001600160a01b03167f8be0079c531659141344cd1fd0a4f28419497f9722a3daafe3b4186f6b6457e08280a3005b346101115760203660031901126101115761075860043561072c610d83565b3360005260026020526107456040600020548210610d03565b3360005260026020526040600020610b3a565b506004810190815460ff8116610896576002820154421061085e57816107c97f204fccf0d92ed8d48f204adb39b2e81e92bad0dedb93f5716ca9478cfb57de0093546127106107ab600385015483610bad565b049560016107b98884610c14565b9560ff1916179055600354610c21565b6003556107d884600454610c14565b6004556107e784600554610c21565b60055561083e60405163a9059cbb60e01b602082015233602482015283604482015260448152610818606482610bf2565b7f0000000000000000000000000000000000000000000000000000000000000000610e19565b54604080519182526020820194909452928301523391806060810161039d565b60405162461bcd60e51b815260206004820152601060248201526f131bd8dac81b9bdd08195e1c1a5c995960821b6044820152606490fd5b60405162461bcd60e51b815260206004820152601160248201527020b63932b0b23c903bb4ba34323930bbb760791b6044820152606490fd5b34610111576000366003190112610111576020600554604051908152f35b3461011157602036600319011261011157610906610df0565b61093460043530337f0000000000000000000000000000000000000000000000000000000000000000610da5565b005b346101115761094436610b0e565b61094c610d83565b610957821515610b6c565b8015610ad15761016d8111610a95577f000000000000000000000000000000000000000000000000000000000000000061099383303384610da5565b61099c82610d3f565b90602460206127106109ae8588610bad565b6040516370a0823160e01b8152306004820152919004939092839182906001600160a01b03165afa9081156103eb57600091610a61575b50906109ff91600354908260055492836102ff8183610c14565b6005556201518082029180830462015180036104ed5761039d610a437f9cfd25589d1eb8ad71e342a86a8524e83522e3936c0803048c08f6d9ad974f409442610c14565b33600052600260205261036960406000206040519061034882610bc0565b906020823d602011610a8d575b81610a7b60209383610bf2565b810103126103e05750516109ff6109e5565b3d9150610a6e565b60405162461bcd60e51b81526020600482015260146024820152734d6178206c6f636b20697320333635206461797360601b6044820152606490fd5b60405162461bcd60e51b815260206004820152601560248201527404c6f636b2064617973206d757374206265203e203605c1b6044820152606490fd5b6040906003190112610111576004359060243590565b600435906001600160a01b038216820361011157565b8054821015610b56576000526005602060002091020190600090565b634e487b7160e01b600052603260045260246000fd5b15610b7357565b60405162461bcd60e51b81526020600482015260126024820152710416d6f756e74206d757374206265203e20360741b6044820152606490fd5b818102929181159184041417156104ed57565b60a0810190811067ffffffffffffffff821117610bdc57604052565b634e487b7160e01b600052604160045260246000fd5b90601f8019910116810190811067ffffffffffffffff821117610bdc57604052565b919082018092116104ed57565b919082039182116104ed57565b15610c3557565b60405162461bcd60e51b815260206004820152602960248201527f496e73756666696369656e7420626f6e757320706f6f6c3a2066756e64206d6f604482015268726520746f6b656e7360b81b6064820152608490fd5b805468010000000000000000811015610bdc57610cae91600182018155610b3a565b610ced5760046080918351815560208401516001820155604084015160028201556060840151600382015501910151151560ff80198354169116179055565b634e487b7160e01b600052600060045260246000fd5b15610d0a57565b60405162461bcd60e51b815260206004820152600d60248201526c092dcecc2d8d2c840d2dcc8caf609b1b6044820152606490fd5b61016d811015610d7c5760b4811015610d7557605a811015610d6e57601e1115610d6857600090565b6103e890565b506109c490565b5061138890565b5061271090565b600260015414610d94576002600155565b633ee5aeb560e01b60005260046000fd5b6040516323b872dd60e01b60208201526001600160a01b039283166024820152929091166044830152606480830193909352918152610dee91610de9608483610bf2565b610e19565b565b6000546001600160a01b03163303610e0457565b63118cdaa760e01b6000523360045260246000fd5b906000602091828151910182855af1156103eb576000513d610e6b57506001600160a01b0381163b155b610e4a5750565b635274afe760e01b60009081526001600160a01b0391909116600452602490fd5b60011415610e4356fea26469706673582212207b9958f5d37e79556fcee2cce2f0d9d95a7b7fa38b254519e7853747fd991b6a64736f6c634300081c0033",
  "linkReferences": {},
  "deployedLinkReferences": {}
}