{
  "_format": "hh-sol-artifact-1",
  "contractName": "MDTStaking",
  "sourceName": "src/MDTStaking.sol",
  "abi": [
    {
      "inputs": [
        {
          "internalType": "address",
          "name": "_token",
          "type": "address"
        }
      ],
      "stateMutability": "nonpayable",
      "type": "constructor"
    },
    {
      "inputs": [
        {
          "internalType": "address",
          "name": "owner",
          "type": "address"
        }
      ],
      "name": "OwnableInvalidOwner",
      "type": "error"
    },
    {
      "inputs": [
        {
          "internalType": "address",
          "name": "account",
          "type": "address"
        }
      ],
      "name": "OwnableUnauthorizedAccount",
      "type": "error"
    },
    {
      "inputs": [],
      "name": "ReentrancyGuardReentrantCall",
      "type": "error"
    },
    {
      "inputs": [
        {
          "internalType": "address",
          "name": "token",
          "type": "address"
        }
      ],
      "name": "SafeERC20FailedOperation",
      "type": "error"
    },
    {
      "anonymous": false,
      "inputs": [
        {
          "indexed": true,
          "internalType": "address",
          "name": "previousOwner",
          "type": "address"
        },
        {
          "indexed": true,
          "internalType": "address",
          "name": "newOwner",
          "type": "address"
        }
      ],
      "name": "OwnershipTransferred",
      "type": "event"
    },
    {
      "anonymous": false,
      "inputs": [
        {
          "indexed": true,
          "internalType": "address",
          "name": "staker",
          "type": "address"
        },
        {
          "indexed": false,
          "internalType": "uint256",
          "name": "amount",
          "type": "uint256"
        },
        {
          "indexed": false,
          "internalType": "uint256",
          "name": "lockDays",
          "type": "uint256"
        },
        {
          "indexed": false,
          "internalType": "uint256",
          "name": "bonusRate",
          "type": "uint256"
        },
        {
          "indexed": false,
          "internalType": "uint256",
          "name": "unlockTime",
          "type": "uint256"
        }
      ],
      "name": "Staked",
      "type": "event"
    },
    {
      "anonymous": false,
      "inputs": [
        {
          "indexed": true,
          "internalType": "address",
          "name": "staker",
          "type": "address"
        },
        {
          "indexed": false,
          "internalType": "uint256",
          "name": "amount",
          "type": "uint256"
        },
        {
          "indexed": false,
          "internalType": "uint256",
          "name": "bonus",
          "type": "uint256"
        },
        {
          "indexed": false,
          "internalType": "uint256",
          "name": "totalReturned",
          "type": "uint256"
        }
      ],
      "name": "Unstaked",
      "type": "event"
    },
    {
      "inputs": [
        {
          "internalType": "uint256",
          "name": "amount",
          "type": "uint256"
        }
      ],
      "name": "fundBonusPool",
      "outputs": [],
      "stateMutability": "nonpayable",
      "type": "function"
    },
    {
      "inputs": [
        {
          "internalType": "uint256",
          "name": "lockDays",
          "type": "uint256"
        }
      ],
      "name": "getBonusRate",
      "outputs": [
        {
          "internalType": "uint256",
          "name": "",
          "type": "uint256"
        }
      ],
      "stateMutability": "pure",
      "type": "function"
    },
    {
      "inputs": [
        {
          "internalType": "address",
          "name": "staker",
          "type": "address"
        }
      ],
      "name": "getStakeCount",
      "outputs": [
        {
          "internalType": "uint256",
          "name": "",
          "type": "uint256"
        }
      ],
      "stateMutability": "view",
      "type": "function"
    },
    {
      "inputs": [
        {
          "internalType": "address",
          "name": "staker",
          "type": "address"
        }
      ],
      "name": "getStakeInfo",
      "outputs": [
        {
          "internalType": "uint256",
          "name": "activeStakes",
          "type": "uint256"
        },
        {
          "internalType": "uint256",
          "name": "totalLocked",
          "type": "uint256"
        },
        {
          "internalType": "uint256",
          "name": "pendingBonus",
          "type": "uint256"
        }
      ],
      "stateMutability": "view",
      "type": "function"
    },
    {
      "inputs": [
        {
          "internalType": "address",
          "name": "staker",
          "type": "address"
        },
        {
          "internalType": "uint256",
          "name": "index",
          "type": "uint256"
        }
      ],
      "name": "getStakeLock",
      "outputs": [
        {
          "internalType": "uint256",
          "name": "amount",
          "type": "uint256"
        },
        {
          "internalType": "uint256",
          "name": "lockTime",
          "type": "uint256"
        },
        {
          "internalType": "uint256",
          "name": "unlockTime",
          "type": "uint256"
        },
        {
          "internalType": "uint256",
          "name": "bonusRate",
          "type": "uint256"
        },
        {
          "internalType": "bool",
          "name": "withdrawn",
          "type": "bool"
        },
        {
          "internalType": "bool",
          "name": "canUnlock",
          "type": "bool"
        }
      ],
      "stateMutability": "view",
      "type": "function"
    },
    {
      "inputs": [
        {
          "internalType": "uint256",
          "name": "amount",
          "type": "uint256"
        },
        {
          "internalType": "uint256",
          "name": "lockDays",
          "type": "uint256"
        }
      ],
      "name": "lock",
      "outputs": [],
      "stateMutability": "nonpayable",
      "type": "function"
    },
    {
      "inputs": [
        {
          "internalType": "uint256",
          "name": "amount",
          "type": "uint256"
        },
        {
          "internalType": "uint256",
          "name": "lockSeconds_",
          "type": "uint256"
        }
      ],
      "name": "lockSeconds",
      "outputs": [],
      "stateMutability": "nonpayable",
      "type": "function"
    },
    {
      "inputs": [],
      "name": "owner",
      "outputs": [
        {
          "internalType": "address",
          "name": "",
          "type": "address"
        }
      ],
      "stateMutability": "view",
      "type": "function"
    },
    {
      "inputs": [],
      "name": "renounceOwnership",
      "outputs": [],
      "stateMutability": "nonpayable",
      "type": "function"
    },
    {
      "inputs": [
        {
          "internalType": "address",
          "name": "",
          "type": "address"
        },
        {
          "internalType": "uint256",
          "name": "",
          "type": "uint256"
        }
      ],
      "name": "stakeLocks",
      "outputs": [
        {
          "internalType": "uint256",
          "name": "amount",
          "type": "uint256"
        },
        {
          "internalType": "uint256",
          "name": "lockTime",
          "type": "uint256"
        },
        {
          "internalType": "uint256",
          "name": "unlockTime",
          "type": "uint256"
        },
        {
          "internalType": "uint256",
          "name": "bonusRate",
          "type": "uint256"
        },
        {
          "internalType": "bool",
          "name": "withdrawn",
          "type": "bool"
        }
      ],
      "stateMutability": "view",
      "type": "function"
    },
    {
      "inputs": [],
      "name": "token",
      "outputs": [
        {
          "internalType": "contract IERC20",
          "name": "",
          "type": "address"
        }
      ],
      "stateMutability": "view",
      "type": "function"
    },
    {
      "inputs": [],
      "name": "totalBonusPaid",
      "outputs": [
        {
          "internalType": "uint256",
          "name": "",
          "type": "uint256"
        }
      ],
      "stateMutability": "view",
      "type": "function"
    },
    {
      "inputs": [],
      "name": "totalStaked",
      "outputs": [
        {
          "internalType": "uint256",
          "name": "",
          "type": "uint256"
        }
      ],
      "stateMutability": "view",
      "type": "function"
    },
    {
      "inputs": [
        {
          "internalType": "address",
          "name": "newOwner",
          "type": "address"
        }
      ],
      "name": "transferOwnership",
      "outputs": [],
      "stateMutability": "nonpayable",
      "type": "function"
    },
    {
      "inputs": [
        {
          "internalType": "uint256",
          "name": "index",
          "type": "uint256"
        }
      ],
      "name": "unlock",
      "outputs": [],
      "stateMutability": "nonpayable",
      "type": "function"
    }
  ],
  "bytecode": "0x60a03461012857601f610e8638819003918201601f19168301916001600160401b0383118484101761012d5780849260209460405283398101031261012857516001600160a01b038116908190036101285733156101125760008054336001600160a01b03198216811783556040519290916001600160a01b0316907f8be0079c531659141344cd1fd0a4f28419497f9722a3daafe3b4186f6b6457e09080a36001805581156100e05750608052604051610d429081610144823960805181818160d70152818161024d015281816106ba015281816108d1015261092f0152f35b62461bcd60e51b815260206004820152600d60248201526c24b73b30b634b2103a37b5b2b760991b6044820152606490fd5b631e4fbdf760e01b600052600060045260246000fd5b600080fd5b634e487b7160e01b600052604160045260246000fdfe6080604052600436101561001257600080fd5b60003560e01c80631338736f146108f75780634b7aeb21146108ae5780636198e3391461061f578063715018a6146105c6578063817b1cd2146105a85780638325263c1461058a5780638da5cb5b14610561578063971fe937146104dc578063a458bd3e1461042d578063c34531531461034e578063cb44acc6146101f4578063cf57ee69146101ba578063e37cd20214610194578063f2fde38b1461010b5763fc0c546a146100c157600080fd5b34610106576000366003190112610106576040517f00000000000000000000000000000000000000000000000000000000000000006001600160a01b03168152602090f35b600080fd5b3461010657602036600319011261010657610124610a2c565b61012c610c88565b6001600160a01b0316801561017e57600080546001600160a01b03198116831782556001600160a01b0316907f8be0079c531659141344cd1fd0a4f28419497f9722a3daafe3b4186f6b6457e09080a3005b631e4fbdf760e01b600052600060045260246000fd5b346101065760203660031901126101065760206101b2600435610bdc565b604051908152f35b34610106576020366003190112610106576001600160a01b036101db610a2c565b1660005260026020526020604060002054604051908152f35b346101065761020236610a16565b61020a610c88565b610212610c20565b61021d821515610a74565b8015610309577f9cfd25589d1eb8ad71e342a86a8524e83522e3936c0803048c08f6d9ad974f40906102718330337f0000000000000000000000000000000000000000000000000000000000000000610c42565b62015180810461030061028d61028683610bdc565b9342610ac8565b3360005260026020526102cc6040600020604051906102ab82610ad5565b88825242602083015283604083015286606083015260006080830152610b29565b6102d886600354610ac8565b6003556040519384933397859094939260609260808301968352602083015260408201520152565b0390a260018055005b60405162461bcd60e51b815260206004820152601860248201527f4c6f636b207365636f6e6473206d757374206265203e203000000000000000006044820152606490fd5b3461010657602036600319011261010657610367610a2c565b6000906001600160a01b03168180805b836000526002602052604060002054811015610415578360005260026020526103a4816040600020610a42565b5060ff600482015416156103bc575b50600101610377565b929490919060001981146103ff576001916127106103f1846103f894019860036103e889548093610ac8565b98015490610ab5565b0490610ac8565b91906103b3565b634e487b7160e01b600052601160045260246000fd5b50604080518581526020810193909352820152606090f35b346101065760403660031901126101065760c061048561044b610a2c565b6001600160a01b03166000818152600260205260409020546024359190610473908310610ba0565b60005260026020526040600020610a42565b5080549060018101549060028101549060ff6004600383015492015416918042101593846104d3575b60405195865260208601526040850152606084015215156080830152151560a0820152f35b831594506104ae565b34610106576040366003190112610106576104f5610a2c565b6001600160a01b03166000908152600260205260409020805460243591908210156101065760a09161052691610a42565b50805490600181015490600281015460ff60046003840154930154169260405194855260208501526040840152606083015215156080820152f35b34610106576000366003190112610106576000546040516001600160a01b039091168152602090f35b34610106576000366003190112610106576020600454604051908152f35b34610106576000366003190112610106576020600354604051908152f35b34610106576000366003190112610106576105df610c88565b600080546001600160a01b0319811682556001600160a01b03167f8be0079c531659141344cd1fd0a4f28419497f9722a3daafe3b4186f6b6457e08280a3005b346101065760203660031901126101065761066a60043561063e610c20565b3360005260026020526106576040600020548210610ba0565b3360005260026020526040600020610a42565b506004810180549060ff8216610875576002830154421061083d57825492612710610699600383015486610ab5565b04936106a58582610ac8565b6040516370a0823160e01b81523060048201527f000000000000000000000000000000000000000000000000000000000000000095919491906020816024816001600160a01b038b165afa80156108315786916000916107fc575b50106107a55760ff191660011790556003549081039081116103ff577f204fccf0d92ed8d48f204adb39b2e81e92bad0dedb93f5716ca9478cfb57de00936107859160035561075186600454610ac8565b60045560405163a9059cbb60e01b60208201523360248201526044808201869052815290610780606483610b07565b610cb1565b546040805191825260208201949094529283015233918060608101610300565b60405162461bcd60e51b815260206004820152602960248201527f496e73756666696369656e7420626f6e757320706f6f6c3a2066756e64206d6f604482015268726520746f6b656e7360b81b6064820152608490fd5b9150506020813d602011610829575b8161081860209383610b07565b810103126101065785905189610700565b3d915061080b565b6040513d6000823e3d90fd5b60405162461bcd60e51b815260206004820152601060248201526f131bd8dac81b9bdd08195e1c1a5c995960821b6044820152606490fd5b60405162461bcd60e51b815260206004820152601160248201527020b63932b0b23c903bb4ba34323930bbb760791b6044820152606490fd5b34610106576020366003190112610106576108c7610c88565b6108f560043530337f0000000000000000000000000000000000000000000000000000000000000000610c42565b005b346101065761090536610a16565b61090d610c20565b610918821515610a74565b80156109d95761016d811161099d576109538230337f0000000000000000000000000000000000000000000000000000000000000000610c42565b61095c81610bdc565b6201518082029180830462015180036103ff5761030061028d7f9cfd25589d1eb8ad71e342a86a8524e83522e3936c0803048c08f6d9ad974f409442610ac8565b60405162461bcd60e51b81526020600482015260146024820152734d6178206c6f636b20697320333635206461797360601b6044820152606490fd5b60405162461bcd60e51b815260206004820152601560248201527404c6f636b2064617973206d757374206265203e203605c1b6044820152606490fd5b6040906003190112610106576004359060243590565b600435906001600160a01b038216820361010657565b8054821015610a5e576000526005602060002091020190600090565b634e487b7160e01b600052603260045260246000fd5b15610a7b57565b60405162461bcd60e51b81526020600482015260126024820152710416d6f756e74206d757374206265203e20360741b6044820152606490fd5b818102929181159184041417156103ff57565b919082018092116103ff57565b60a0810190811067ffffffffffffffff821117610af157604052565b634e487b7160e01b600052604160045260246000fd5b90601f8019910116810190811067ffffffffffffffff821117610af157604052565b805468010000000000000000811015610af157610b4b91600182018155610a42565b610b8a5760046080918351815560208401516001820155604084015160028201556060840151600382015501910151151560ff80198354169116179055565b634e487b7160e01b600052600060045260246000fd5b15610ba757565b60405162461bcd60e51b815260206004820152600d60248201526c092dcecc2d8d2c840d2dcc8caf609b1b6044820152606490fd5b61016d811015610c195760b4811015610c1257605a811015610c0b57601e1115610c0557600090565b6103e890565b506109c490565b5061138890565b5061271090565b600260015414610c31576002600155565b633ee5aeb560e01b60005260046000fd5b6040516323b872dd60e01b60208201526001600160a01b039283166024820152929091166044830152606480830193909352918152610c8691610780608483610b07565b565b6000546001600160a01b03163303610c9c57565b63118cdaa760e01b6000523360045260246000fd5b906000602091828151910182855af115610831576000513d610d0357506001600160a01b0381163b155b610ce25750565b635274afe760e01b60009081526001600160a01b0391909116600452602490fd5b60011415610cdb56fea2646970667358221220d598bbe399f9c43c0382815afab38d85320a74a2b477940e482d122c22d9913064736f6c634300081c0033",
  "linkReferences": {},
  "deployedLinkReferences": {}
}