{
  "_format": "hh-sol-artifact-1",
  "contractName": "GradientAggregator",
  "sourceName": "src/GradientAggregator.sol",
  "abi": [
    {
      "inputs": [
        {
          "internalType": "address",
          "name": "_token",
          "type": "address"
        }
      ],
      "stateMutability": "nonpayable",
      "type": "constructor"
    },
    {
      "inputs": [
        {
          "internalType": "address",
          "name": "owner",
          "type": "address"
        }
      ],
      "name": "OwnableInvalidOwner",
      "type": "error"
    },
    {
      "inputs": [
        {
          "internalType": "address",
          "name": "account",
          "type": "address"
        }
      ],
      "name": "OwnableUnauthorizedAccount",
      "type": "error"
    },
    {
      "inputs": [],
      "name": "ReentrancyGuardReentrantCall",
      "type": "error"
    },
    {
      "inputs": [
        {
          "internalType": "address",
          "name": "token",
          "type": "address"
        }
      ],
      "name": "SafeERC20FailedOperation",
      "type": "error"
    },
    {
      "anonymous": false,
      "inputs": [
        {
          "indexed": true,
          "internalType": "uint256",
          "name": "jobId",
          "type": "uint256"
        },
        {
          "indexed": true,
          "internalType": "uint256",
          "name": "round",
          "type": "uint256"
        },
        {
          "indexed": true,
          "internalType": "address",
          "name": "participant",
          "type": "address"
        },
        {
          "indexed": false,
          "internalType": "bytes32",
          "name": "gradientHash",
          "type": "bytes32"
        },
        {
          "indexed": false,
          "internalType": "uint256",
          "name": "dataSize",
          "type": "uint256"
        }
      ],
      "name": "GradientSubmitted",
      "type": "event"
    },
    {
      "anonymous": false,
      "inputs": [
        {
          "indexed": true,
          "internalType": "uint256",
          "name": "jobId",
          "type": "uint256"
        },
        {
          "indexed": false,
          "internalType": "uint256",
          "name": "refundAmount",
          "type": "uint256"
        }
      ],
      "name": "JobCancelled",
      "type": "event"
    },
    {
      "anonymous": false,
      "inputs": [
        {
          "indexed": true,
          "internalType": "uint256",
          "name": "jobId",
          "type": "uint256"
        },
        {
          "indexed": false,
          "internalType": "uint256",
          "name": "totalRounds",
          "type": "uint256"
        }
      ],
      "name": "JobCompleted",
      "type": "event"
    },
    {
      "anonymous": false,
      "inputs": [
        {
          "indexed": true,
          "internalType": "uint256",
          "name": "jobId",
          "type": "uint256"
        },
        {
          "indexed": false,
          "internalType": "bytes32",
          "name": "modelHash",
          "type": "bytes32"
        },
        {
          "indexed": false,
          "internalType": "uint256",
          "name": "totalRounds",
          "type": "uint256"
        },
        {
          "indexed": false,
          "internalType": "uint256",
          "name": "rewardPool",
          "type": "uint256"
        },
        {
          "indexed": false,
          "internalType": "uint256",
          "name": "maxParticipants",
          "type": "uint256"
        }
      ],
      "name": "JobCreated",
      "type": "event"
    },
    {
      "anonymous": false,
      "inputs": [
        {
          "indexed": true,
          "internalType": "address",
          "name": "previousOwner",
          "type": "address"
        },
        {
          "indexed": true,
          "internalType": "address",
          "name": "newOwner",
          "type": "address"
        }
      ],
      "name": "OwnershipTransferred",
      "type": "event"
    },
    {
      "anonymous": false,
      "inputs": [
        {
          "indexed": true,
          "internalType": "uint256",
          "name": "jobId",
          "type": "uint256"
        },
        {
          "indexed": true,
          "internalType": "address",
          "name": "participant",
          "type": "address"
        },
        {
          "indexed": false,
          "internalType": "uint256",
          "name": "amount",
          "type": "uint256"
        }
      ],
      "name": "RewardClaimed",
      "type": "event"
    },
    {
      "anonymous": false,
      "inputs": [
        {
          "indexed": true,
          "internalType": "uint256",
          "name": "jobId",
          "type": "uint256"
        },
        {
          "indexed": true,
          "internalType": "uint256",
          "name": "round",
          "type": "uint256"
        },
        {
          "indexed": false,
          "internalType": "bytes32",
          "name": "aggregatedHash",
          "type": "bytes32"
        },
        {
          "indexed": false,
          "internalType": "uint256",
          "name": "participantCount",
          "type": "uint256"
        },
        {
          "indexed": false,
          "internalType": "uint256",
          "name": "totalDataSize",
          "type": "uint256"
        }
      ],
      "name": "RoundFinalized",
      "type": "event"
    },
    {
      "inputs": [
        {
          "internalType": "uint256",
          "name": "jobId",
          "type": "uint256"
        }
      ],
      "name": "cancelJob",
      "outputs": [],
      "stateMutability": "nonpayable",
      "type": "function"
    },
    {
      "inputs": [
        {
          "internalType": "uint256",
          "name": "jobId",
          "type": "uint256"
        }
      ],
      "name": "claimReward",
      "outputs": [],
      "stateMutability": "nonpayable",
      "type": "function"
    },
    {
      "inputs": [
        {
          "internalType": "bytes32",
          "name": "modelHash",
          "type": "bytes32"
        },
        {
          "internalType": "uint256",
          "name": "totalRounds",
          "type": "uint256"
        },
        {
          "internalType": "uint256",
          "name": "rewardAmount",
          "type": "uint256"
        },
        {
          "internalType": "uint256",
          "name": "maxParticipants",
          "type": "uint256"
        },
        {
          "internalType": "uint256",
          "name": "roundDeadline",
          "type": "uint256"
        }
      ],
      "name": "createJob",
      "outputs": [
        {
          "internalType": "uint256",
          "name": "jobId",
          "type": "uint256"
        }
      ],
      "stateMutability": "nonpayable",
      "type": "function"
    },
    {
      "inputs": [
        {
          "internalType": "uint256",
          "name": "jobId",
          "type": "uint256"
        },
        {
          "internalType": "bytes32",
          "name": "aggregatedHash",
          "type": "bytes32"
        },
        {
          "internalType": "address[]",
          "name": "validParticipants",
          "type": "address[]"
        }
      ],
      "name": "finalizeRound",
      "outputs": [],
      "stateMutability": "nonpayable",
      "type": "function"
    },
    {
      "inputs": [
        {
          "internalType": "uint256",
          "name": "jobId",
          "type": "uint256"
        }
      ],
      "name": "getJobDetails",
      "outputs": [
        {
          "internalType": "bytes32",
          "name": "modelHash",
          "type": "bytes32"
        },
        {
          "internalType": "uint256",
          "name": "totalRounds",
          "type": "uint256"
        },
        {
          "internalType": "uint256",
          "name": "currentRound",
          "type": "uint256"
        },
        {
          "internalType": "uint256",
          "name": "rewardPool",
          "type": "uint256"
        },
        {
          "internalType": "uint256",
          "name": "maxParticipants",
          "type": "uint256"
        },
        {
          "internalType": "enum GradientAggregator.JobStatus",
          "name": "status",
          "type": "uint8"
        },
        {
          "internalType": "address",
          "name": "creator",
          "type": "address"
        }
      ],
      "stateMutability": "view",
      "type": "function"
    },
    {
      "inputs": [
        {
          "internalType": "uint256",
          "name": "jobId",
          "type": "uint256"
        },
        {
          "internalType": "uint256",
          "name": "round",
          "type": "uint256"
        }
      ],
      "name": "getRoundParticipants",
      "outputs": [
        {
          "internalType": "address[]",
          "name": "",
          "type": "address[]"
        }
      ],
      "stateMutability": "view",
      "type": "function"
    },
    {
      "inputs": [
        {
          "internalType": "uint256",
          "name": "jobId",
          "type": "uint256"
        },
        {
          "internalType": "uint256",
          "name": "round",
          "type": "uint256"
        },
        {
          "internalType": "address",
          "name": "participant",
          "type": "address"
        }
      ],
      "name": "getSubmission",
      "outputs": [
        {
          "internalType": "bytes32",
          "name": "gradientHash",
          "type": "bytes32"
        },
        {
          "internalType": "uint256",
          "name": "dataSize",
          "type": "uint256"
        },
        {
          "internalType": "uint256",
          "name": "timestamp",
          "type": "uint256"
        },
        {
          "internalType": "bool",
          "name": "validated",
          "type": "bool"
        }
      ],
      "stateMutability": "view",
      "type": "function"
    },
    {
      "inputs": [
        {
          "internalType": "uint256",
          "name": "",
          "type": "uint256"
        }
      ],
      "name": "jobs",
      "outputs": [
        {
          "internalType": "bytes32",
          "name": "modelHash",
          "type": "bytes32"
        },
        {
          "internalType": "uint256",
          "name": "totalRounds",
          "type": "uint256"
        },
        {
          "internalType": "uint256",
          "name": "currentRound",
          "type": "uint256"
        },
        {
          "internalType": "uint256",
          "name": "rewardPool",
          "type": "uint256"
        },
        {
          "internalType": "uint256",
          "name": "maxParticipants",
          "type": "uint256"
        },
        {
          "internalType": "uint256",
          "name": "roundDeadline",
          "type": "uint256"
        },
        {
          "internalType": "enum GradientAggregator.JobStatus",
          "name": "status",
          "type": "uint8"
        },
        {
          "internalType": "address",
          "name": "creator",
          "type": "address"
        },
        {
          "internalType": "uint256",
          "name": "createdAt",
          "type": "uint256"
        }
      ],
      "stateMutability": "view",
      "type": "function"
    },
    {
      "inputs": [],
      "name": "nextJobId",
      "outputs": [
        {
          "internalType": "uint256",
          "name": "",
          "type": "uint256"
        }
      ],
      "stateMutability": "view",
      "type": "function"
    },
    {
      "inputs": [],
      "name": "owner",
      "outputs": [
        {
          "internalType": "address",
          "name": "",
          "type": "address"
        }
      ],
      "stateMutability": "view",
      "type": "function"
    },
    {
      "inputs": [
        {
          "internalType": "uint256",
          "name": "",
          "type": "uint256"
        },
        {
          "internalType": "address",
          "name": "",
          "type": "address"
        }
      ],
      "name": "participantRounds",
      "outputs": [
        {
          "internalType": "uint256",
          "name": "",
          "type": "uint256"
        }
      ],
      "stateMutability": "view",
      "type": "function"
    },
    {
      "inputs": [],
      "name": "renounceOwnership",
      "outputs": [],
      "stateMutability": "nonpayable",
      "type": "function"
    },
    {
      "inputs": [
        {
          "internalType": "uint256",
          "name": "",
          "type": "uint256"
        },
        {
          "internalType": "address",
          "name": "",
          "type": "address"
        }
      ],
      "name": "rewardClaimed",
      "outputs": [
        {
          "internalType": "bool",
          "name": "",
          "type": "bool"
        }
      ],
      "stateMutability": "view",
      "type": "function"
    },
    {
      "inputs": [
        {
          "internalType": "uint256",
          "name": "",
          "type": "uint256"
        },
        {
          "internalType": "uint256",
          "name": "",
          "type": "uint256"
        },
        {
          "internalType": "uint256",
          "name": "",
          "type": "uint256"
        }
      ],
      "name": "roundParticipants",
      "outputs": [
        {
          "internalType": "address",
          "name": "",
          "type": "address"
        }
      ],
      "stateMutability": "view",
      "type": "function"
    },
    {
      "inputs": [
        {
          "internalType": "uint256",
          "name": "",
          "type": "uint256"
        },
        {
          "internalType": "uint256",
          "name": "",
          "type": "uint256"
        }
      ],
      "name": "roundResults",
      "outputs": [
        {
          "internalType": "bytes32",
          "name": "aggregatedHash",
          "type": "bytes32"
        },
        {
          "internalType": "uint256",
          "name": "participantCount",
          "type": "uint256"
        },
        {
          "internalType": "uint256",
          "name": "totalDataSize",
          "type": "uint256"
        },
        {
          "internalType": "uint256",
          "name": "finalizedAt",
          "type": "uint256"
        }
      ],
      "stateMutability": "view",
      "type": "function"
    },
    {
      "inputs": [
        {
          "internalType": "uint256",
          "name": "",
          "type": "uint256"
        },
        {
          "internalType": "uint256",
          "name": "",
          "type": "uint256"
        },
        {
          "internalType": "address",
          "name": "",
          "type": "address"
        }
      ],
      "name": "submissions",
      "outputs": [
        {
          "internalType": "bytes32",
          "name": "gradientHash",
          "type": "bytes32"
        },
        {
          "internalType": "uint256",
          "name": "dataSize",
          "type": "uint256"
        },
        {
          "internalType": "uint256",
          "name": "timestamp",
          "type": "uint256"
        },
        {
          "internalType": "bool",
          "name": "validated",
          "type": "bool"
        }
      ],
      "stateMutability": "view",
      "type": "function"
    },
    {
      "inputs": [
        {
          "internalType": "uint256",
          "name": "jobId",
          "type": "uint256"
        },
        {
          "internalType": "bytes32",
          "name": "gradientHash",
          "type": "bytes32"
        },
        {
          "internalType": "uint256",
          "name": "dataSize",
          "type": "uint256"
        }
      ],
      "name": "submitGradient",
      "outputs": [],
      "stateMutability": "nonpayable",
      "type": "function"
    },
    {
      "inputs": [],
      "name": "token",
      "outputs": [
        {
          "internalType": "contract IERC20",
          "name": "",
          "type": "address"
        }
      ],
      "stateMutability": "view",
      "type": "function"
    },
    {
      "inputs": [
        {
          "internalType": "address",
          "name": "newOwner",
          "type": "address"
        }
      ],
      "name": "transferOwnership",
      "outputs": [],
      "stateMutability": "nonpayable",
      "type": "function"
    }
  ],
  "bytecode": "0x60a03461013257601f6116a838819003918201601f19168301916001600160401b038311848410176101375780849260209460405283398101031261013257516001600160a01b0381169081900361013257331561011c5760008054336001600160a01b03198216811783556040519290916001600160a01b0316907f8be0079c531659141344cd1fd0a4f28419497f9722a3daafe3b4186f6b6457e09080a36001805581156100da575060805260405161155a908161014e82396080518181816101030152818161034701528181610e8c01526110020152f35b62461bcd60e51b815260206004820152601560248201527f496e76616c696420746f6b656e206164647265737300000000000000000000006044820152606490fd5b631e4fbdf760e01b600052600060045260246000fd5b600080fd5b634e487b7160e01b600052604160045260246000fdfe6080604052600436101561001257600080fd5b60003560e01c8063088a52e1146112c05780630ba70c3814611260578063176a6efc14610f92578063180aedf314610efc5780631dffa3dc14610dd25780633b6689bb14610d715780634c9f17f314610cac5780634cac35c614610c2d57806353fb6c5c14610be057806360814b56146101c4578063715018a614610b8757806375d788f71461080d578063799b6e68146105505780638da5cb5b14610527578063ae169a501461025f578063b0c2aa5e14610241578063b253eff1146101c4578063f2fde38b146101375763fc0c546a146100ed57600080fd5b34610132576000366003190112610132576040517f00000000000000000000000000000000000000000000000000000000000000006001600160a01b03168152602090f35b600080fd5b34610132576020366003190112610132576004356001600160a01b0381169081900361013257610165611494565b80156101ae57600080546001600160a01b03198116831782556001600160a01b0316907f8be0079c531659141344cd1fd0a4f28419497f9722a3daafe3b4186f6b6457e09080a3005b631e4fbdf760e01b600052600060045260246000fd5b346101325760406101d43661136f565b91600052600460205282600020906000526020528160002060009160018060a01b0316825260205220805461023d60018301549260ff60036002830154920154169060405194859485926060929594919560808501968552602085015260408401521515910152565b0390f35b34610132576000366003190112610132576020600254604051908152f35b346101325760203660031901126101325760043561027b611430565b80600052600360205260406000209060ff6006830154166003811015610511576001036104d857600081815260086020908152604080832033845290915290205460ff166104a157600081815260076020908152604080832033845290915290205491821561045c576000906001808201545b8082111561042357505081156103ec57600301548381029381850414901517156103d6576000920490811561039e578083526008602090815260408085203380875292528420805460ff1916600117905561036b9083907f0000000000000000000000000000000000000000000000000000000000000000611452565b6040519182527f24b5efa61dd1cfc659205a97fb8ed868f3cb8c81922bab2b96423e5de1de2cb760203393a36001805580f35b60405162461bcd60e51b815260206004820152601060248201526f14995dd85c99081d1bdbc81cdb585b1b60821b6044820152606490fd5b634e487b7160e01b600052601160045260246000fd5b60405162461bcd60e51b815260206004820152600f60248201526e4e6f207061727469636970616e747360881b6044820152606490fd5b90926104506104569186600052600660205260406000208660005260205260016040600020015490611423565b93611399565b906102ee565b60405162461bcd60e51b815260206004820152601a60248201527f4e6f2076616c69646174656420636f6e747269627574696f6e730000000000006044820152606490fd5b60405162461bcd60e51b815260206004820152600f60248201526e105b1c9958591e4818db185a5b5959608a1b6044820152606490fd5b60405162461bcd60e51b8152602060048201526011602482015270129bd8881b9bdd0818dbdb5c1b195d1959607a1b6044820152606490fd5b634e487b7160e01b600052602160045260246000fd5b34610132576000366003190112610132576000546040516001600160a01b039091168152602090f35b3461013257606036600319011261013257600435602435906044359080600052600360205260406000209160ff60068401541660038110156105115761059690156113e6565b80156107d057831561079357600283015492826000526004602052604060002084600052602052604060002060018060a01b03331660005260205260026040600020015461074e578260005260056020526040600020846000526020526004604060002054910154111561071957604051610610816113a8565b848152600360208201918383526040810142815260608201936000855286600052600460205260406000208860005260205260408060002060009060018060a01b03331682526020522092518355516001830155516002820155019051151560ff801983541691161790558160005260056020526040600020836000526020526040600020805468010000000000000000811015610703576106b79160018201815561131e565b81549060031b9033821b9160018060a01b03901b191617905560405193845260208401527f0d67debe3c9486e776b444efdc630a3a8e19dc89e51c2a269e69e4732b95db8860403394a4005b634e487b7160e01b600052604160045260246000fd5b60405162461bcd60e51b815260206004820152600d60248201526c149bdd5b99081a5cc8199d5b1b609a1b6044820152606490fd5b60405162461bcd60e51b815260206004820152601c60248201527f416c7265616479207375626d6974746564207468697320726f756e64000000006044820152606490fd5b60405162461bcd60e51b8152602060048201526015602482015274092dcecc2d8d2c840cee4c2c8d2cadce840d0c2e6d605b1b6044820152606490fd5b60405162461bcd60e51b81526020600482015260156024820152740446174612073697a65206d757374206265203e203605c1b6044820152606490fd5b346101325760603660031901126101325760043560443560243567ffffffffffffffff821161013257366023830112156101325781600401359167ffffffffffffffff8311610132573660248460051b8301011161013257836000526003602052604060002060068101805460ff811660038110156105115761089090156113e6565b60081c6001600160a01b03163303610b42578315610afd57600282019081549287600052600560205260406000208460005260205260406000205415610ab857600080965b89898910156109cc5750600588901b87016024013597600092906001600160a01b038a168a036109c8578b84526004602052604084208885526020526040842060018060a01b038b1685526020526040842091600283015415610983578c9461095460409260018660038298018260ff19825416179055015490611423565b9b868252600760205282822090858060a01b03168252602052206109788154611399565b9055019791506108d5565b60405162461bcd60e51b815260206004820152601a60248201527f5061727469636970616e7420646964206e6f74207375626d69740000000000006044820152606490fd5b8380fd5b95867f5a0300376aa79ca113cfaed535ec87c3d78bbb362b38a46287a668d64d70c30b60608396946001968e604051610a04816113a8565b83815260036020820183815260408301858152878401914283528a600052600660205260406000208c600052602052604060002094518555518d8501555160028401555191015560405192835260208301526040820152a30180549093908210610aa4575050805460ff19166001179055546040519081527f152d31e943f2d79d470375c901f5a6cfb7d465ee4969db651885948d3b6015b890602090a2005b925080935060019150018092116103d65755005b60405162461bcd60e51b815260206004820152601960248201527f4e6f207375626d697373696f6e73207468697320726f756e64000000000000006044820152606490fd5b60405162461bcd60e51b815260206004820152601760248201527f496e76616c6964206167677265676174656420686173680000000000000000006044820152606490fd5b60405162461bcd60e51b815260206004820152601960248201527f4f6e6c792063726561746f722063616e2066696e616c697a65000000000000006044820152606490fd5b3461013257600036600319011261013257610ba0611494565b600080546001600160a01b0319811682556001600160a01b03167f8be0079c531659141344cd1fd0a4f28419497f9722a3daafe3b4186f6b6457e08280a3005b3461013257604036600319011261013257610bf9611308565b600435600052600860205260406000209060018060a01b0316600052602052602060ff604060002054166040519015158152f35b3461013257602036600319011261013257600435600052600360205260e06040600020805490600181015490600281015460038201549060066004840154930154936040519586526020860152604085015260608401526080830152610c9960a0830160ff831661134c565b60081c6001600160a01b031660c0820152f35b3461013257610cba36611359565b90600052600560205260406000209060005260205260406000206040518060208354918281520190819360005260206000209060005b818110610d525750505081610d069103826113c4565b6040519182916020830190602084525180915260408301919060005b818110610d30575050500390f35b82516001600160a01b0316845285945060209384019390920191600101610d22565b82546001600160a01b0316845260209093019260019283019201610cf0565b3461013257610d7f36611359565b9060005260066020526040600020906000526020526040600020805461023d6001830154926003600282015491015490604051948594859094939260609260808301968352602083015260408201520152565b3461013257602036600319011261013257600435610dee611430565b80600052600360205260406000206006810190815460ff8116600381101561051157610e1a90156113e6565b60081c6001600160a01b03163303610eb757815460ff19166002178255600301547f7e3805011acb8d49832d7ef085841e251e66267c06e54e0ac20cb09f3c696d3b91602091908180610e77575b5050604051908152a260018055005b9054610eb0919060081c6001600160a01b03167f0000000000000000000000000000000000000000000000000000000000000000611452565b8481610e68565b60405162461bcd60e51b815260206004820152601760248201527f4f6e6c792063726561746f722063616e2063616e63656c0000000000000000006044820152606490fd5b346101325760203660031901126101325760043560005260036020526101206040600020805490600181015490600281015460038201546004830154906005840154926007600686015495015495604051978852602088015260408701526060860152608085015260a0840152610f7960c0840160ff831661134c565b60081c6001600160a01b031660e0830152610100820152f35b346101325760a03660031901126101325760643560043560443560843560243580156112265782156111ec5784156111a757603c8210611162576110266040516323b872dd60e01b6020820152336024820152306044820152846064820152606481526110006084826113c4565b7f00000000000000000000000000000000000000000000000000000000000000006114bd565b6002549361103385611399565b60025560405193610120850185811067ffffffffffffffff82111761070357604052818552602085019683885260408601916001835260608701958187526080880183815260a0890191825260c08901976000895260e08a01953387526101008b019a428c528c6000526003602052600160406000209e8f92518355519101555160028d01555160038c01555160048b01555160058a01556006890195519860038a10156105115786549351610100600160a81b0360089190911b1660ff9a909a166001600160a81b03199094169390931798909817909455935160079094019390935560408051938452602080850192909252830194909452606082015281907fa233c5b2d7bc3180bd9ee3b9afcc404be7fb7f5af81ea094b5f72e37f0ea7aaf90608090a2604051908152f35b60405162461bcd60e51b815260206004820152601760248201527f446561646c696e65206d757374206265203e3d203630730000000000000000006044820152606490fd5b60405162461bcd60e51b815260206004820152601c60248201527f4d6178207061727469636970616e7473206d757374206265203e2030000000006044820152606490fd5b60405162461bcd60e51b81526020600482015260126024820152710526577617264206d757374206265203e20360741b6044820152606490fd5b60405162461bcd60e51b81526020600482015260126024820152710526f756e6473206d757374206265203e20360741b6044820152606490fd5b34610132576060366003190112610132576044356004356000526005602052604060002060243560005260205260406000208054821015610132576020916112a79161131e565b905460405160039290921b1c6001600160a01b03168152f35b34610132576040366003190112610132576112d9611308565b600435600052600760205260406000209060018060a01b03166000526020526020604060002054604051908152f35b602435906001600160a01b038216820361013257565b80548210156113365760005260206000200190600090565b634e487b7160e01b600052603260045260246000fd5b9060038210156105115752565b6040906003190112610132576004359060243590565b60609060031901126101325760043590602435906044356001600160a01b03811681036101325790565b60001981146103d65760010190565b6080810190811067ffffffffffffffff82111761070357604052565b90601f8019910116810190811067ffffffffffffffff82111761070357604052565b156113ed57565b60405162461bcd60e51b815260206004820152600e60248201526d4a6f62206e6f742061637469766560901b6044820152606490fd5b919082018092116103d657565b600260015414611441576002600155565b633ee5aeb560e01b60005260046000fd5b60405163a9059cbb60e01b60208201526001600160a01b0390921660248301526044808301939093529181526114929161148d6064836113c4565b6114bd565b565b6000546001600160a01b031633036114a857565b63118cdaa760e01b6000523360045260246000fd5b906000602091828151910182855af115611518576000513d61150f57506001600160a01b0381163b155b6114ee5750565b635274afe760e01b60009081526001600160a01b0391909116600452602490fd5b600114156114e7565b6040513d6000823e3d90fdfea26469706673582212204b74f67d41794c2e5e3e9492217f49fa344a23a48fa6586d59d50ecedbb32c6064736f6c634300081c0033",
  "linkReferences": {},
  "deployedLinkReferences": {}
}