{
  "_format": "hh-sol-artifact-1",
  "contractName": "SemanticMatchmaker",
  "sourceName": "src/examples/SemanticMatchmaker.sol",
  "abi": [
    {
      "inputs": [],
      "stateMutability": "nonpayable",
      "type": "constructor"
    },
    {
      "inputs": [
        {
          "internalType": "address",
          "name": "player",
          "type": "address"
        }
      ],
      "name": "AlreadyInQueue",
      "type": "error"
    },
    {
      "inputs": [
        {
          "internalType": "uint256",
          "name": "matchId",
          "type": "uint256"
        },
        {
          "internalType": "enum SemanticMatchmaker.MatchStatus",
          "name": "expected",
          "type": "uint8"
        }
      ],
      "name": "InvalidMatchStatus",
      "type": "error"
    },
    {
      "inputs": [
        {
          "internalType": "uint256",
          "name": "min",
          "type": "uint256"
        },
        {
          "internalType": "uint256",
          "name": "max",
          "type": "uint256"
        }
      ],
      "name": "InvalidPlayerCount",
      "type": "error"
    },
    {
      "inputs": [
        {
          "internalType": "uint256",
          "name": "matchId",
          "type": "uint256"
        }
      ],
      "name": "MatchNotFound",
      "type": "error"
    },
    {
      "inputs": [
        {
          "internalType": "address",
          "name": "player",
          "type": "address"
        },
        {
          "internalType": "uint256",
          "name": "matchId",
          "type": "uint256"
        }
      ],
      "name": "NotMatchParticipant",
      "type": "error"
    },
    {
      "inputs": [
        {
          "internalType": "address",
          "name": "owner",
          "type": "address"
        }
      ],
      "name": "OwnableInvalidOwner",
      "type": "error"
    },
    {
      "inputs": [
        {
          "internalType": "address",
          "name": "account",
          "type": "address"
        }
      ],
      "name": "OwnableUnauthorizedAccount",
      "type": "error"
    },
    {
      "inputs": [
        {
          "internalType": "uint256",
          "name": "unlocksAt",
          "type": "uint256"
        }
      ],
      "name": "ProfileCooldown",
      "type": "error"
    },
    {
      "inputs": [
        {
          "internalType": "address",
          "name": "player",
          "type": "address"
        }
      ],
      "name": "ProfileExists",
      "type": "error"
    },
    {
      "inputs": [
        {
          "internalType": "address",
          "name": "player",
          "type": "address"
        }
      ],
      "name": "ProfileNotFound",
      "type": "error"
    },
    {
      "inputs": [],
      "name": "ReentrancyGuardReentrantCall",
      "type": "error"
    },
    {
      "anonymous": false,
      "inputs": [
        {
          "indexed": true,
          "internalType": "uint256",
          "name": "matchId",
          "type": "uint256"
        },
        {
          "indexed": false,
          "internalType": "address",
          "name": "winner",
          "type": "address"
        },
        {
          "indexed": false,
          "internalType": "uint256",
          "name": "newWinnerRating",
          "type": "uint256"
        },
        {
          "indexed": false,
          "internalType": "uint256",
          "name": "newLoserRating",
          "type": "uint256"
        }
      ],
      "name": "MatchCompleted",
      "type": "event"
    },
    {
      "anonymous": false,
      "inputs": [
        {
          "indexed": true,
          "internalType": "uint256",
          "name": "matchId",
          "type": "uint256"
        },
        {
          "indexed": false,
          "internalType": "address[]",
          "name": "players",
          "type": "address[]"
        },
        {
          "indexed": false,
          "internalType": "uint256",
          "name": "averageRating",
          "type": "uint256"
        }
      ],
      "name": "MatchCreated",
      "type": "event"
    },
    {
      "anonymous": false,
      "inputs": [
        {
          "indexed": true,
          "internalType": "address",
          "name": "player",
          "type": "address"
        },
        {
          "indexed": false,
          "internalType": "uint256",
          "name": "queuePosition",
          "type": "uint256"
        }
      ],
      "name": "MatchRequested",
      "type": "event"
    },
    {
      "anonymous": false,
      "inputs": [
        {
          "indexed": true,
          "internalType": "address",
          "name": "previousOwner",
          "type": "address"
        },
        {
          "indexed": true,
          "internalType": "address",
          "name": "newOwner",
          "type": "address"
        }
      ],
      "name": "OwnershipTransferred",
      "type": "event"
    },
    {
      "anonymous": false,
      "inputs": [
        {
          "indexed": true,
          "internalType": "address",
          "name": "player",
          "type": "address"
        },
        {
          "indexed": false,
          "internalType": "uint256",
          "name": "initialRating",
          "type": "uint256"
        }
      ],
      "name": "ProfileRegistered",
      "type": "event"
    },
    {
      "anonymous": false,
      "inputs": [
        {
          "indexed": true,
          "internalType": "address",
          "name": "player",
          "type": "address"
        },
        {
          "indexed": false,
          "internalType": "uint256",
          "name": "newRating",
          "type": "uint256"
        }
      ],
      "name": "ProfileUpdated",
      "type": "event"
    },
    {
      "inputs": [],
      "name": "DEFAULT_RATING",
      "outputs": [
        {
          "internalType": "uint256",
          "name": "",
          "type": "uint256"
        }
      ],
      "stateMutability": "view",
      "type": "function"
    },
    {
      "inputs": [],
      "name": "ELO_K",
      "outputs": [
        {
          "internalType": "uint256",
          "name": "",
          "type": "uint256"
        }
      ],
      "stateMutability": "view",
      "type": "function"
    },
    {
      "inputs": [],
      "name": "MAX_PLAYERS_PER_MATCH",
      "outputs": [
        {
          "internalType": "uint256",
          "name": "",
          "type": "uint256"
        }
      ],
      "stateMutability": "view",
      "type": "function"
    },
    {
      "inputs": [],
      "name": "MAX_RATING_DIFF",
      "outputs": [
        {
          "internalType": "uint256",
          "name": "",
          "type": "uint256"
        }
      ],
      "stateMutability": "view",
      "type": "function"
    },
    {
      "inputs": [],
      "name": "PROFILE_COOLDOWN",
      "outputs": [
        {
          "internalType": "uint256",
          "name": "",
          "type": "uint256"
        }
      ],
      "stateMutability": "view",
      "type": "function"
    },
    {
      "inputs": [
        {
          "internalType": "uint256",
          "name": "matchId",
          "type": "uint256"
        }
      ],
      "name": "getMatch",
      "outputs": [
        {
          "components": [
            {
              "internalType": "uint256",
              "name": "matchId",
              "type": "uint256"
            },
            {
              "internalType": "address[]",
              "name": "players",
              "type": "address[]"
            },
            {
              "internalType": "uint256",
              "name": "averageRating",
              "type": "uint256"
            },
            {
              "internalType": "uint256",
              "name": "createdAt",
              "type": "uint256"
            },
            {
              "internalType": "enum SemanticMatchmaker.MatchStatus",
              "name": "status",
              "type": "uint8"
            }
          ],
          "internalType": "struct SemanticMatchmaker.Match",
          "name": "",
          "type": "tuple"
        }
      ],
      "stateMutability": "view",
      "type": "function"
    },
    {
      "inputs": [
        {
          "internalType": "address",
          "name": "player",
          "type": "address"
        }
      ],
      "name": "getProfile",
      "outputs": [
        {
          "components": [
            {
              "internalType": "uint256",
              "name": "skillRating",
              "type": "uint256"
            },
            {
              "internalType": "uint256",
              "name": "matchesPlayed",
              "type": "uint256"
            },
            {
              "internalType": "uint256",
              "name": "wins",
              "type": "uint256"
            },
            {
              "internalType": "uint256",
              "name": "lastUpdated",
              "type": "uint256"
            },
            {
              "internalType": "bool",
              "name": "isActive",
              "type": "bool"
            }
          ],
          "internalType": "struct SemanticMatchmaker.PlayerProfile",
          "name": "",
          "type": "tuple"
        }
      ],
      "stateMutability": "view",
      "type": "function"
    },
    {
      "inputs": [],
      "name": "getQueueLength",
      "outputs": [
        {
          "internalType": "uint256",
          "name": "",
          "type": "uint256"
        }
      ],
      "stateMutability": "view",
      "type": "function"
    },
    {
      "inputs": [
        {
          "internalType": "address",
          "name": "player",
          "type": "address"
        }
      ],
      "name": "getWinRate",
      "outputs": [
        {
          "internalType": "uint256",
          "name": "winRate",
          "type": "uint256"
        }
      ],
      "stateMutability": "view",
      "type": "function"
    },
    {
      "inputs": [
        {
          "internalType": "uint256",
          "name": "",
          "type": "uint256"
        }
      ],
      "name": "matchQueue",
      "outputs": [
        {
          "internalType": "address",
          "name": "player",
          "type": "address"
        },
        {
          "internalType": "uint256",
          "name": "rating",
          "type": "uint256"
        },
        {
          "internalType": "uint256",
          "name": "requestedAt",
          "type": "uint256"
        },
        {
          "internalType": "uint256",
          "name": "minPlayers",
          "type": "uint256"
        },
        {
          "internalType": "uint256",
          "name": "maxPlayers",
          "type": "uint256"
        }
      ],
      "stateMutability": "view",
      "type": "function"
    },
    {
      "inputs": [
        {
          "internalType": "uint256",
          "name": "",
          "type": "uint256"
        }
      ],
      "name": "matches",
      "outputs": [
        {
          "internalType": "uint256",
          "name": "matchId",
          "type": "uint256"
        },
        {
          "internalType": "uint256",
          "name": "averageRating",
          "type": "uint256"
        },
        {
          "internalType": "uint256",
          "name": "createdAt",
          "type": "uint256"
        },
        {
          "internalType": "enum SemanticMatchmaker.MatchStatus",
          "name": "status",
          "type": "uint8"
        }
      ],
      "stateMutability": "view",
      "type": "function"
    },
    {
      "inputs": [],
      "name": "nextMatchId",
      "outputs": [
        {
          "internalType": "uint256",
          "name": "",
          "type": "uint256"
        }
      ],
      "stateMutability": "view",
      "type": "function"
    },
    {
      "inputs": [],
      "name": "owner",
      "outputs": [
        {
          "internalType": "address",
          "name": "",
          "type": "address"
        }
      ],
      "stateMutability": "view",
      "type": "function"
    },
    {
      "inputs": [
        {
          "internalType": "address",
          "name": "",
          "type": "address"
        }
      ],
      "name": "profiles",
      "outputs": [
        {
          "internalType": "uint256",
          "name": "skillRating",
          "type": "uint256"
        },
        {
          "internalType": "uint256",
          "name": "matchesPlayed",
          "type": "uint256"
        },
        {
          "internalType": "uint256",
          "name": "wins",
          "type": "uint256"
        },
        {
          "internalType": "uint256",
          "name": "lastUpdated",
          "type": "uint256"
        },
        {
          "internalType": "bool",
          "name": "isActive",
          "type": "bool"
        }
      ],
      "stateMutability": "view",
      "type": "function"
    },
    {
      "inputs": [],
      "name": "registerProfile",
      "outputs": [
        {
          "internalType": "uint256",
          "name": "rating",
          "type": "uint256"
        }
      ],
      "stateMutability": "nonpayable",
      "type": "function"
    },
    {
      "inputs": [],
      "name": "renounceOwnership",
      "outputs": [],
      "stateMutability": "nonpayable",
      "type": "function"
    },
    {
      "inputs": [
        {
          "internalType": "uint256",
          "name": "matchId",
          "type": "uint256"
        },
        {
          "internalType": "address",
          "name": "winner",
          "type": "address"
        }
      ],
      "name": "reportResult",
      "outputs": [],
      "stateMutability": "nonpayable",
      "type": "function"
    },
    {
      "inputs": [
        {
          "internalType": "uint256",
          "name": "minPlayers",
          "type": "uint256"
        },
        {
          "internalType": "uint256",
          "name": "maxPlayers",
          "type": "uint256"
        }
      ],
      "name": "requestMatch",
      "outputs": [
        {
          "internalType": "uint256",
          "name": "queuePosition",
          "type": "uint256"
        }
      ],
      "stateMutability": "nonpayable",
      "type": "function"
    },
    {
      "inputs": [],
      "name": "totalPlayers",
      "outputs": [
        {
          "internalType": "uint256",
          "name": "",
          "type": "uint256"
        }
      ],
      "stateMutability": "view",
      "type": "function"
    },
    {
      "inputs": [
        {
          "internalType": "address",
          "name": "newOwner",
          "type": "address"
        }
      ],
      "name": "transferOwnership",
      "outputs": [],
      "stateMutability": "nonpayable",
      "type": "function"
    }
  ],
  "bytecode": "0x60808060405234607e57331560685760008054336001600160a01b0319821681178355916001600160a01b03909116907f8be0079c531659141344cd1fd0a4f28419497f9722a3daafe3b4186f6b6457e09080a360018055600160055561146490816100848239f35b631e4fbdf760e01b600052600060045260246000fd5b600080fdfe608080604052600436101561001357600080fd5b60003560e01c9081630f53a47014610b9c57508063205a6d871461011e5780633935bb3f14610b7f5780633c5bd53214610b625780633d092b3d14610a005780634768d4ef146109a75780634efe3e411461098c5780636a4f29c214610926578063715018a6146108cd5780638da5cb5b146108a4578063914a1e7614610879578063a958f15514610524578063b0f9c41014610350578063b8f7700514610332578063bbe15627146102c7578063c5adf7c9146102a9578063ec4a8a38146101ac578063f2fde38b14610123578063f3226aa41461011e5763f60cdcf6146100fb57600080fd5b34610119576000366003190112610119576020600654604051908152f35b600080fd5b610c71565b346101195760203660031901126101195761013c610c5b565b610144610dca565b6001600160a01b0316801561019657600080546001600160a01b03198116831782556001600160a01b0316907f8be0079c531659141344cd1fd0a4f28419497f9722a3daafe3b4186f6b6457e09080a3005b631e4fbdf760e01b600052600060045260246000fd5b34610119576000366003190112610119576101c5610df3565b33600052600260205260ff60046040600020015416610294576040516101ea81610ccf565b6103e88152600460208201916000835260408101600081526060820190438252608083019460018652336000526002602052604060002093518455516001840155516002830155516003820155019051151560ff80198354169116179055610253600654610da1565b6006556040516103e881527f3a76058ac0717442bbab0617192195798d246ef0b6b2b7d84e256290a3715f7e60203392a26001805560206040516103e88152f35b633cac038560e01b6000523360045260246000fd5b34610119576000366003190112610119576020600554604051908152f35b34610119576020366003190112610119576001600160a01b036102e8610c5b565b16600052600260205260a06040600020805490600181015490600281015460ff60046003840154930154169260405194855260208501526040840152606083015215156080820152f35b34610119576000366003190112610119576020600454604051908152f35b346101195760403660031901126101195760043560243561036f610df3565b33600052600260205260406000209060ff6004830154161561050f57600283108015610505575b80156104fc575b6104e4576004549160005b8381106104ad57505492604051926103bf84610ccf565b3384526020840194855260408401904282526060850192835260808501938452600160401b811015610497578060016103fb9201600455610c9a565b95909561048157935185546001600160a01b0319166001600160a01b039190911617855592516001850155915160028401559051600383015551600491820155546040518181526020919033907f49baa19ed9cd5bcae46a58df453f160f8137c1a83be313b6e6a09230cff90944908490a2610475610ec5565b60018055604051908152f35b634e487b7160e01b600052600060045260246000fd5b634e487b7160e01b600052604160045260246000fd5b6104b681610c9a565b50546001600160a01b031633146104cf576001016103a8565b639d53ec3d60e01b6000523360045260246000fd5b82632f6ff7c960e11b60005260045260245260446000fd5b5080831161039d565b5060648111610396565b63c23cb52560e01b6000523360045260246000fd5b34610119576040366003190112610119576004356024356001600160a01b0381169081900361011957610555610dca565b61055d610df3565b81600052600360205260406000209182541561086557600483019160ff835416600481101561084f576108355760009160009260018601938454905b8181106107ff575b5050156107e75781600052600260205260026040600020016105c38154610da1565b905560005b8354811015610789576105db8185610d89565b60018060a01b0391549060031b1c166000526002602052604060002090600182016106068154610da1565b9055836106138287610d89565b905460039190911b1c6001600160a01b0316036106e357815460028801549092908381106106855761064784600a92610db0565b046020018060201161066f576001936106609190610dbd565b81555b600343910155016105c8565b634e487b7160e01b600052601160045260246000fd5b6106929084929394610db0565b60009061014081106106b05750509061066060019392845b90610dbd565b600a900460200390602082116106cf57506001939291610660916106aa565b634e487b7160e01b81526011600452602490fd5b815460028801549192916000908281811061074d57600a9161070491610db0565b0460200180602011610739576001949392915b50808211156107305761072991610db0565b8155610663565b50506064610729565b634e487b7160e01b82526011600452602482fd5b61075691610db0565b610140811061076e5750906001939291845b90610717565b600a9004602003602081116107395790600194939291610768565b507fd87807c41517dc00ed5553199a04676c5ef960776ddbf91d8cffec4a769a45826060838787600260ff1982541617905581600052600260205260026040600020549101549060405192835260208301526040820152a260018055005b9063863db3d360e01b60005260045260245260446000fd5b8461080a8288610d89565b905460039190911b1c6001600160a01b03161461082957600101610599565b505050600186806105a1565b50636d8da78360e11b600052600452600060245260446000fd5b634e487b7160e01b600052602160045260246000fd5b632200058160e21b60005260045260246000fd5b3461011957602036600319011261011957602061089c610897610c5b565b610d2d565b604051908152f35b34610119576000366003190112610119576000546040516001600160a01b039091168152602090f35b34610119576000366003190112610119576108e6610dca565b600080546001600160a01b0319811682556001600160a01b03167f8be0079c531659141344cd1fd0a4f28419497f9722a3daafe3b4186f6b6457e08280a3005b34610119576020366003190112610119576004356004548110156101195761094f60a091610c9a565b50600180831b0381541690600181015490600281015460046003830154920154926040519485526020850152604084015260608301526080820152f35b34610119576000366003190112610119576020604051818152f35b34610119576020366003190112610119576004356000526003602052608060406000206109fe81549160028101549060ff600460038301549201541691604051948552602085015260408401526060830190610c8d565bf35b346101195760203660031901126101195760006080604051610a2181610ccf565b82815260606020820152826040820152826060820152015260043560005260036020526040600020604051610a5581610ccf565b8154815260018201906040518083602082955493848152019060005260206000209260005b818110610b40575050610a8f92500383610ceb565b602081019182526002830154926040820193845260ff600460038301549260608501938452015416936080830194600481101561084f578552604051936020855260c0850193516020860152519260a060408601528351809152602060e0860194019060005b818110610b215750505093610b1d9184955160608601525160808501525160a0840190610c8d565b0390f35b82516001600160a01b0316865260209586019590920191600101610af5565b84546001600160a01b0316835260019485019487945060209093019201610a7a565b3461011957600036600319011261011957602060405161012c8152f35b346101195760003660031901126101195760206040516103e88152f35b346101195760203660031901126101195760006080610bb9610c5b565b92610bc381610ccf565b828152826020820152826040820152826060820152015260018060a01b0316600052600260205260a06040600020604051610bfd81610ccf565b81549182825260018101546020830190815260028201549060408401918252608060ff600460038601549560608801968752015416940193151584526040519485525160208501525160408401525160608301525115156080820152f35b600435906001600160a01b038216820361011957565b3461011957600036600319011261011957602060405160648152f35b90600482101561084f5752565b600454811015610cb95760046000526005602060002091020190600090565b634e487b7160e01b600052603260045260246000fd5b60a0810190811067ffffffffffffffff82111761049757604052565b90601f8019910116810190811067ffffffffffffffff82111761049757604052565b8115610d17570490565b634e487b7160e01b600052601260045260246000fd5b6001600160a01b031660009081526002602052604090206001810154908115610d82576002015490670de0b6b3a7640000820291808304670de0b6b3a7640000149015171561066f57610d7f91610d0d565b90565b5050600090565b8054821015610cb95760005260206000200190600090565b600019811461066f5760010190565b9190820391821161066f57565b9190820180921161066f57565b6000546001600160a01b03163303610dde57565b63118cdaa760e01b6000523360045260246000fd5b600260015414610e04576002600155565b633ee5aeb560e01b60005260046000fd5b90604051610e2281610ccf565b82546001600160a01b031681526001830154602082015260028301546040820152600383015460608201526004909201546080830152565b67ffffffffffffffff81116104975760051b60200190565b90610e7c82610e5a565b610e896040519182610ceb565b8281528092610e9a601f1991610e5a565b0190602036910137565b805115610cb95760200190565b8051821015610cb95760209160051b010190565b600454906002821061142a57600060045415611416576004905260009190610f0c7f8a35acfbc15ff81a39ae7d344fd709f28e8600b4aa8c65c6b64bfe7fe36bd19b610e15565b926080840193610f1c8551610e72565b815190956001916001600160a01b0316610f3588610ea4565b52610f3f86610e5a565b93610f4d6040519586610ceb565b868552601f19610f5c88610e5a565b01366020870137829581610f6f87610ea4565b526020850194845b8981108061140c575b1561103b578a610f98610f9283610c9a565b50610e15565b61012c89516020830190815180821160001461102c5750508a519051610fbd91610db0565b11158061101d575b610fda575b5050610fd590610da1565b610f77565b96610ffe91610ff882610fd5959a60018060a01b0390511692610eb1565b52610da1565b958061101361100c8c610da1565b9b8b610eb1565b5290508a38610fca565b50606081015187511015610fc5565b6110369250610db0565b610fbd565b50919598939450965060609150015182101561105a575b505050509050565b61106382610e72565b95839184905b8482106113b85750506005549461107f86610da1565b60055561108c8484610d0d565b60405161109881610ccf565b87815260208101918a835260408201908152606082019042825260808301938985528a8a52600360205260408a20935184556001840190519081519167ffffffffffffffff83116113a457600160401b83116113a4578154838355838d82821061137d575b505050602001908b5260208b208b5b83811061136057505050509060049291516002830155516003820155019051600481101561134c5760ff80198354169116179055805b6111ce5750509061115291610d0d565b60405191604083016040845286518091526020606085019701915b8181106111af575050507fed8df6391a376fae78c8518bb7f495881599d1990b44fba5e78b192cb9df32ea929394829160208301520390a28038808080611052565b82516001600160a01b031688526020978801979092019160010161116d565b6000198101818111611338576111e49083610eb1565b51600454808210156113035760001981019081116112ef5761120861120f91610c9a565b5091610c9a565b91909161127c578082036112a4575b50506004548015611290576000190161123681610c9a565b61127c576004818880935582600182015582600282015582600382015501556004558015611268576000190180611142565b634e487b7160e01b85526011600452602485fd5b634e487b7160e01b87526004879052602487fd5b634e487b7160e01b86526031600452602486fd5b805482546001600160a01b0319166001600160a01b0391909116178255600180820154908301556002808201549083015560038082015490830155600490810154910155388061121e565b634e487b7160e01b87526011600452602487fd5b60405162461bcd60e51b815260206004820152600d60248201526c092dcecc2d8d2c840d2dcc8caf609b1b6044820152606490fd5b634e487b7160e01b86526011600452602486fd5b634e487b7160e01b87526021600452602487fd5b82516001600160a01b03168183015560209092019160010161110c565b8085602092522091820191015b8d82821061139a578591506110fd565b815560010161138a565b634e487b7160e01b8c52604160045260248cfd5b9092600190611404906001600160a01b036113d38786610eb1565b51166113df878d610eb1565b52828060a01b036113f08786610eb1565b511688526002602052604088205490610dbd565b930190611069565b5084518610610f80565b634e487b7160e01b81526032600452602490fd5b905056fea2646970667358221220d0c8198c627cd704508d88973f5d2a1b199e69c2322d25ec232f765479959d3864736f6c634300081c0033",
  "linkReferences": {},
  "deployedLinkReferences": {}
}