{
  "_format": "hh-sol-artifact-1",
  "contractName": "TrustGraph",
  "sourceName": "src/examples/TrustGraph.sol",
  "abi": [
    {
      "inputs": [
        {
          "internalType": "uint256",
          "name": "minConfidence_",
          "type": "uint256"
        }
      ],
      "stateMutability": "nonpayable",
      "type": "constructor"
    },
    {
      "inputs": [
        {
          "internalType": "address",
          "name": "user",
          "type": "address"
        }
      ],
      "name": "AlreadyVerified",
      "type": "error"
    },
    {
      "inputs": [
        {
          "internalType": "address",
          "name": "user",
          "type": "address"
        }
      ],
      "name": "InsufficientData",
      "type": "error"
    },
    {
      "inputs": [
        {
          "internalType": "address",
          "name": "user",
          "type": "address"
        }
      ],
      "name": "MaxAttestationsReached",
      "type": "error"
    },
    {
      "inputs": [
        {
          "internalType": "address",
          "name": "owner",
          "type": "address"
        }
      ],
      "name": "OwnableInvalidOwner",
      "type": "error"
    },
    {
      "inputs": [
        {
          "internalType": "address",
          "name": "account",
          "type": "address"
        }
      ],
      "name": "OwnableUnauthorizedAccount",
      "type": "error"
    },
    {
      "inputs": [
        {
          "internalType": "address",
          "name": "user",
          "type": "address"
        }
      ],
      "name": "ProfileExists",
      "type": "error"
    },
    {
      "inputs": [
        {
          "internalType": "address",
          "name": "user",
          "type": "address"
        }
      ],
      "name": "ProfileNotFound",
      "type": "error"
    },
    {
      "inputs": [],
      "name": "ReentrancyGuardReentrantCall",
      "type": "error"
    },
    {
      "inputs": [
        {
          "internalType": "address",
          "name": "attester",
          "type": "address"
        }
      ],
      "name": "UnauthorizedAttester",
      "type": "error"
    },
    {
      "anonymous": false,
      "inputs": [
        {
          "indexed": true,
          "internalType": "address",
          "name": "user",
          "type": "address"
        },
        {
          "indexed": true,
          "internalType": "address",
          "name": "attester",
          "type": "address"
        },
        {
          "indexed": false,
          "internalType": "enum TrustGraph.TrustLevel",
          "name": "level",
          "type": "uint8"
        }
      ],
      "name": "AttestationReceived",
      "type": "event"
    },
    {
      "anonymous": false,
      "inputs": [
        {
          "indexed": true,
          "internalType": "address",
          "name": "previousOwner",
          "type": "address"
        },
        {
          "indexed": true,
          "internalType": "address",
          "name": "newOwner",
          "type": "address"
        }
      ],
      "name": "OwnershipTransferred",
      "type": "event"
    },
    {
      "anonymous": false,
      "inputs": [
        {
          "indexed": true,
          "internalType": "address",
          "name": "user",
          "type": "address"
        }
      ],
      "name": "ProfileCreated",
      "type": "event"
    },
    {
      "anonymous": false,
      "inputs": [
        {
          "indexed": true,
          "internalType": "address",
          "name": "user",
          "type": "address"
        },
        {
          "indexed": false,
          "internalType": "enum TrustGraph.TrustLevel",
          "name": "level",
          "type": "uint8"
        },
        {
          "indexed": false,
          "internalType": "uint256",
          "name": "confidence",
          "type": "uint256"
        }
      ],
      "name": "TrustClassified",
      "type": "event"
    },
    {
      "anonymous": false,
      "inputs": [
        {
          "indexed": true,
          "internalType": "address",
          "name": "user",
          "type": "address"
        },
        {
          "indexed": false,
          "internalType": "enum TrustGraph.TrustLevel",
          "name": "from",
          "type": "uint8"
        },
        {
          "indexed": false,
          "internalType": "enum TrustGraph.TrustLevel",
          "name": "to",
          "type": "uint8"
        }
      ],
      "name": "TrustLevelDowngraded",
      "type": "event"
    },
    {
      "anonymous": false,
      "inputs": [
        {
          "indexed": true,
          "internalType": "address",
          "name": "user",
          "type": "address"
        },
        {
          "indexed": false,
          "internalType": "enum TrustGraph.TrustLevel",
          "name": "from",
          "type": "uint8"
        },
        {
          "indexed": false,
          "internalType": "enum TrustGraph.TrustLevel",
          "name": "to",
          "type": "uint8"
        }
      ],
      "name": "TrustLevelUpgraded",
      "type": "event"
    },
    {
      "inputs": [],
      "name": "MAX_ATTESTATIONS",
      "outputs": [
        {
          "internalType": "uint256",
          "name": "",
          "type": "uint256"
        }
      ],
      "stateMutability": "view",
      "type": "function"
    },
    {
      "inputs": [],
      "name": "NEUTRAL_THRESHOLD",
      "outputs": [
        {
          "internalType": "uint256",
          "name": "",
          "type": "uint256"
        }
      ],
      "stateMutability": "view",
      "type": "function"
    },
    {
      "inputs": [],
      "name": "RISKY_THRESHOLD",
      "outputs": [
        {
          "internalType": "uint256",
          "name": "",
          "type": "uint256"
        }
      ],
      "stateMutability": "view",
      "type": "function"
    },
    {
      "inputs": [],
      "name": "TRUSTED_THRESHOLD",
      "outputs": [
        {
          "internalType": "uint256",
          "name": "",
          "type": "uint256"
        }
      ],
      "stateMutability": "view",
      "type": "function"
    },
    {
      "inputs": [],
      "name": "VERIFIED_THRESHOLD",
      "outputs": [
        {
          "internalType": "uint256",
          "name": "",
          "type": "uint256"
        }
      ],
      "stateMutability": "view",
      "type": "function"
    },
    {
      "inputs": [],
      "name": "WEIGHT_THRESHOLD",
      "outputs": [
        {
          "internalType": "uint256",
          "name": "",
          "type": "uint256"
        }
      ],
      "stateMutability": "view",
      "type": "function"
    },
    {
      "inputs": [
        {
          "internalType": "address",
          "name": "attester",
          "type": "address"
        }
      ],
      "name": "approveAttester",
      "outputs": [],
      "stateMutability": "nonpayable",
      "type": "function"
    },
    {
      "inputs": [
        {
          "internalType": "address",
          "name": "",
          "type": "address"
        }
      ],
      "name": "approvedAttesters",
      "outputs": [
        {
          "internalType": "bool",
          "name": "",
          "type": "bool"
        }
      ],
      "stateMutability": "view",
      "type": "function"
    },
    {
      "inputs": [
        {
          "internalType": "address",
          "name": "user",
          "type": "address"
        },
        {
          "internalType": "enum TrustGraph.TrustLevel",
          "name": "level",
          "type": "uint8"
        },
        {
          "internalType": "uint256",
          "name": "weight",
          "type": "uint256"
        },
        {
          "internalType": "string",
          "name": "reason",
          "type": "string"
        }
      ],
      "name": "attest",
      "outputs": [],
      "stateMutability": "nonpayable",
      "type": "function"
    },
    {
      "inputs": [
        {
          "internalType": "address",
          "name": "",
          "type": "address"
        },
        {
          "internalType": "uint256",
          "name": "",
          "type": "uint256"
        }
      ],
      "name": "attestations",
      "outputs": [
        {
          "internalType": "address",
          "name": "attester",
          "type": "address"
        },
        {
          "internalType": "enum TrustGraph.TrustLevel",
          "name": "attestedLevel",
          "type": "uint8"
        },
        {
          "internalType": "uint256",
          "name": "weight",
          "type": "uint256"
        },
        {
          "internalType": "uint256",
          "name": "timestamp",
          "type": "uint256"
        },
        {
          "internalType": "string",
          "name": "reason",
          "type": "string"
        }
      ],
      "stateMutability": "view",
      "type": "function"
    },
    {
      "inputs": [
        {
          "internalType": "address",
          "name": "user",
          "type": "address"
        }
      ],
      "name": "classifyTrust",
      "outputs": [
        {
          "internalType": "enum TrustGraph.TrustLevel",
          "name": "level",
          "type": "uint8"
        },
        {
          "internalType": "uint256",
          "name": "confidence",
          "type": "uint256"
        }
      ],
      "stateMutability": "nonpayable",
      "type": "function"
    },
    {
      "inputs": [
        {
          "internalType": "address",
          "name": "user",
          "type": "address"
        }
      ],
      "name": "getAttestationScore",
      "outputs": [
        {
          "internalType": "uint256",
          "name": "totalWeight",
          "type": "uint256"
        },
        {
          "internalType": "uint256",
          "name": "avgLevel",
          "type": "uint256"
        }
      ],
      "stateMutability": "view",
      "type": "function"
    },
    {
      "inputs": [
        {
          "internalType": "address",
          "name": "user",
          "type": "address"
        }
      ],
      "name": "getAttestations",
      "outputs": [
        {
          "components": [
            {
              "internalType": "address",
              "name": "attester",
              "type": "address"
            },
            {
              "internalType": "enum TrustGraph.TrustLevel",
              "name": "attestedLevel",
              "type": "uint8"
            },
            {
              "internalType": "uint256",
              "name": "weight",
              "type": "uint256"
            },
            {
              "internalType": "uint256",
              "name": "timestamp",
              "type": "uint256"
            },
            {
              "internalType": "string",
              "name": "reason",
              "type": "string"
            }
          ],
          "internalType": "struct TrustGraph.Attestation[]",
          "name": "",
          "type": "tuple[]"
        }
      ],
      "stateMutability": "view",
      "type": "function"
    },
    {
      "inputs": [
        {
          "internalType": "address",
          "name": "user",
          "type": "address"
        }
      ],
      "name": "getProfile",
      "outputs": [
        {
          "components": [
            {
              "internalType": "enum TrustGraph.TrustLevel",
              "name": "level",
              "type": "uint8"
            },
            {
              "internalType": "uint256",
              "name": "confidence",
              "type": "uint256"
            },
            {
              "internalType": "uint256",
              "name": "positiveActions",
              "type": "uint256"
            },
            {
              "internalType": "uint256",
              "name": "negativeActions",
              "type": "uint256"
            },
            {
              "internalType": "uint256",
              "name": "lastUpdated",
              "type": "uint256"
            },
            {
              "internalType": "bool",
              "name": "isVerified",
              "type": "bool"
            },
            {
              "internalType": "bool",
              "name": "exists",
              "type": "bool"
            }
          ],
          "internalType": "struct TrustGraph.TrustProfile",
          "name": "",
          "type": "tuple"
        }
      ],
      "stateMutability": "view",
      "type": "function"
    },
    {
      "inputs": [
        {
          "internalType": "address",
          "name": "user",
          "type": "address"
        }
      ],
      "name": "getTrustLevel",
      "outputs": [
        {
          "internalType": "enum TrustGraph.TrustLevel",
          "name": "level",
          "type": "uint8"
        },
        {
          "internalType": "uint256",
          "name": "confidence",
          "type": "uint256"
        },
        {
          "internalType": "bool",
          "name": "isStale",
          "type": "bool"
        }
      ],
      "stateMutability": "view",
      "type": "function"
    },
    {
      "inputs": [
        {
          "internalType": "address",
          "name": "attester",
          "type": "address"
        }
      ],
      "name": "isApprovedAttester",
      "outputs": [
        {
          "internalType": "bool",
          "name": "",
          "type": "bool"
        }
      ],
      "stateMutability": "view",
      "type": "function"
    },
    {
      "inputs": [
        {
          "internalType": "address",
          "name": "user",
          "type": "address"
        },
        {
          "internalType": "enum TrustGraph.TrustLevel",
          "name": "minLevel",
          "type": "uint8"
        }
      ],
      "name": "meetsTrustRequirement",
      "outputs": [
        {
          "internalType": "bool",
          "name": "meets",
          "type": "bool"
        },
        {
          "internalType": "enum TrustGraph.TrustLevel",
          "name": "actual",
          "type": "uint8"
        }
      ],
      "stateMutability": "view",
      "type": "function"
    },
    {
      "inputs": [],
      "name": "minConfidence",
      "outputs": [
        {
          "internalType": "uint256",
          "name": "",
          "type": "uint256"
        }
      ],
      "stateMutability": "view",
      "type": "function"
    },
    {
      "inputs": [],
      "name": "owner",
      "outputs": [
        {
          "internalType": "address",
          "name": "",
          "type": "address"
        }
      ],
      "stateMutability": "view",
      "type": "function"
    },
    {
      "inputs": [
        {
          "internalType": "address",
          "name": "",
          "type": "address"
        }
      ],
      "name": "profiles",
      "outputs": [
        {
          "internalType": "enum TrustGraph.TrustLevel",
          "name": "level",
          "type": "uint8"
        },
        {
          "internalType": "uint256",
          "name": "confidence",
          "type": "uint256"
        },
        {
          "internalType": "uint256",
          "name": "positiveActions",
          "type": "uint256"
        },
        {
          "internalType": "uint256",
          "name": "negativeActions",
          "type": "uint256"
        },
        {
          "internalType": "uint256",
          "name": "lastUpdated",
          "type": "uint256"
        },
        {
          "internalType": "bool",
          "name": "isVerified",
          "type": "bool"
        },
        {
          "internalType": "bool",
          "name": "exists",
          "type": "bool"
        }
      ],
      "stateMutability": "view",
      "type": "function"
    },
    {
      "inputs": [
        {
          "internalType": "address",
          "name": "user",
          "type": "address"
        }
      ],
      "name": "registerProfile",
      "outputs": [],
      "stateMutability": "nonpayable",
      "type": "function"
    },
    {
      "inputs": [],
      "name": "renounceOwnership",
      "outputs": [],
      "stateMutability": "nonpayable",
      "type": "function"
    },
    {
      "inputs": [
        {
          "internalType": "address",
          "name": "attester",
          "type": "address"
        }
      ],
      "name": "revokeAttester",
      "outputs": [],
      "stateMutability": "nonpayable",
      "type": "function"
    },
    {
      "inputs": [
        {
          "internalType": "uint256",
          "name": "newMinConfidence",
          "type": "uint256"
        }
      ],
      "name": "setMinConfidence",
      "outputs": [],
      "stateMutability": "nonpayable",
      "type": "function"
    },
    {
      "inputs": [
        {
          "internalType": "address",
          "name": "newOwner",
          "type": "address"
        }
      ],
      "name": "transferOwnership",
      "outputs": [],
      "stateMutability": "nonpayable",
      "type": "function"
    },
    {
      "inputs": [
        {
          "internalType": "address",
          "name": "user",
          "type": "address"
        }
      ],
      "name": "verifyUser",
      "outputs": [],
      "stateMutability": "nonpayable",
      "type": "function"
    }
  ],
  "bytecode": "0x60803460b357601f61178438819003918201601f19168301916001600160401b0383118484101760b85780849260209460405283398101031260b357513315609d5760008054336001600160a01b0319821681178355604051939290916001600160a01b0316907f8be0079c531659141344cd1fd0a4f28419497f9722a3daafe3b4186f6b6457e09080a3600180556005556116b590816100cf8239f35b631e4fbdf760e01b600052600060045260246000fd5b600080fd5b634e487b7160e01b600052604160045260246000fdfe6080604052600436101561001257600080fd5b60003560e01c80630178a09714610ec25780630cf4961814610e9f5780630f53a47014610d965780630fcd510a14610d7357806311b0c89e14610d44578063206df50914610d025780632471f45a14610cdf5780633b0f5b7a14610cbc5780634d81312014610be15780635764390c14610b775780635e7cf5ab14610b3257806365ca645c14610a055780636a4b783d146109c6578063715018a61461096d5780637a6cfe4c146102dd578063883c27f1146109515780638da5cb5b146109285780639447fc8014610552578063a37e7e9c14610535578063aba6466c146103a8578063bbe156271461031c578063bcb3e5c2146102dd578063c657c6a514610230578063d292b610146101e6578063d52b7a14146101c85763f2fde38b1461013a57600080fd5b346101c35760203660031901126101c35761015361127d565b61015b611656565b6001600160a01b031680156101ad57600080546001600160a01b03198116831782556001600160a01b0316907f8be0079c531659141344cd1fd0a4f28419497f9722a3daafe3b4186f6b6457e09080a3005b631e4fbdf760e01b600052600060045260246000fd5b600080fd5b346101c35760003660031901126101c3576020600554604051908152f35b346101c35760403660031901126101c3576101ff61127d565b60243560058110156101c35761021a61022e916040936115dc565b839291925192151583526020830190611293565bf35b346101c35760403660031901126101c35761024961127d565b6001600160a01b03166000908152600360205260409020805460243591908210156101c3576102be9161027b916112e1565b506102d98154916001810154906102996003600283015492016113a7565b6040516001600160a01b0386168152958695919391602087019060a01c60ff16611293565b6040850152606084015260a0608084015260a08301906112a0565b0390f35b346101c35760203660031901126101c3576001600160a01b036102fe61127d565b166000526004602052602060ff604060002054166040519015158152f35b346101c35760203660031901126101c3576001600160a01b0361033d61127d565b16600052600260205260e0604060002060ff80825416916001810154906002810154600382015490600560048401549301549361037d6040518098611293565b6020870152604086015260608501526080840152818116151560a084015260081c16151560c0820152f35b346101c35760203660031901126101c3576001600160a01b036103c961127d565b166000526003602052604060002080549067ffffffffffffffff821161051f57604051916103fd60208260051b0184611385565b80835260208301809260005260206000206000915b8383106104bd57848660405191829160208301906020845251809152604083019060408160051b85010192916000905b82821061045157505050500390f35b919360019193955060206104ad8192603f198a820301865260a060808a518780841b0381511684526104898682015187860190611293565b604081015160408501526060810151606085015201519181608082015201906112a0565b9601920192018594939192610442565b600460206001926040516104d08161134d565b6104ed60ff8754878060a01b038116845260a01c1684830161144b565b8486015460408201526002860154606082015261050c600387016113a7565b6080820152815201920192019190610412565b634e487b7160e01b600052604160045260246000fd5b346101c35760003660031901126101c35760206040516103e88152f35b346101c35760203660031901126101c35761056b61127d565b610573611634565b6001600160a01b03166000818152600260205260408120600581015490929060081c60ff1615610915578082526003602052604082209182549060028210610901578093819082905b848210610852575050846105cf9161148d565b6730927f74c9de000081106108035750506004925b600091600a81106107c45750670de0b6b3a7640000915b6103e8821061077f57505061061990670de0b6b3a764000090611457565b60011c90670de0b6b3a7640000821161076f575b600554821015610652575b60018055604080518361064b8287611293565b6020820152f35b60ff84541693610662848261156f565b826001820155600442910155807fa39921d83bfe9a4d65a5f7b2cec562272a07adc77d548d61778393b77f462f416040805161069e8188611293565b856020820152a26005841015610759576005831015610759576040938084111561070657847f114d7c5d0b4becadc8a15a2e15ba583cf837f45c56074a00d9654db70d22af6e916106f182518092611293565b6106fe6020820187611293565ba25b83610638565b808410610715575b5050610700565b847f4c400b95222c423e9a56d24277ad5f9e543875db4c7a1a709bea2bedb580096e9161074482518092611293565b6107516020820187611293565ba2838061070e565b634e487b7160e01b600052602160045260246000fd5b670de0b6b3a7640000915061062d565b670de0b6b3a7640000820291808304670de0b6b3a764000014901517156107b05750906103e8610619920490611457565b634e487b7160e01b81526011600452602490fd5b670de0b6b3a7640000810290808204670de0b6b3a764000014901517156107ef57600a9004916105fb565b634e487b7160e01b83526011600452602483fd5b6722b1c8c1227a0000811061081c5750506003926105e4565b6714d1120d7b16000081106108355750506002926105e4565b6706f05b59d3b200001161084c57506001926105e4565b926105e4565b90919561086e90600161086585856112e1565b50015490611457565b9560ff61087b84846112e1565b505460a01c1660058110156108ed576108a390600161089a86866112e1565b5001549061147a565b90670de0b6b3a7640000820291808304670de0b6b3a764000014901517156108d9576001916108d191611457565b9201906105bc565b634e487b7160e01b85526011600452602485fd5b634e487b7160e01b85526021600452602485fd5b636d50816b60e01b81526004839052602490fd5b63c23cb52560e01b825260045260249150fd5b346101c35760003660031901126101c3576000546040516001600160a01b039091168152602090f35b346101c35760003660031901126101c357602060405160648152f35b346101c35760003660031901126101c357610986611656565b600080546001600160a01b0319811682556001600160a01b03167f8be0079c531659141344cd1fd0a4f28419497f9722a3daafe3b4186f6b6457e08280a3005b346101c35760203660031901126101c35760606109e96109e461127d565b611587565b906109f76040518094611293565b602083015215156040820152f35b346101c35760203660031901126101c357610a1e61127d565b610a26611634565b6001600160a01b031660008181526002602052604090206005015460081c60ff16610b1e57604051610a5781611369565b6000815260208101600081526040820190600082526060830192600084526080810142815260a08201946000865260c0830194600186528760005260026020526040600020935194600586101561075957610ab46005968661156f565b516001850155516002840155516003830155516004820155019151151560ff8019845416911617825551151561ff0082549160081b169061ff0019161790557ff10ec97e920cde75887622583772c637595a40b1f7777c18e51ea36cd127475c600080a260018055005b633cac038560e01b60005260045260246000fd5b346101c35760203660031901126101c357610b4b61127d565b610b53611656565b6001600160a01b03166000908152600460205260409020805460ff19166001179055005b346101c35760203660031901126101c357600435610b93611656565b670de0b6b3a76400008111610ba757600555005b60405162461bcd60e51b8152602060048201526012602482015271496e76616c696420636f6e666964656e636560701b6044820152606490fd5b346101c35760203660031901126101c357610bfa61127d565b610c02611656565b6001600160a01b031660008181526002602052604090206005810180549091600882901c60ff1615610ca75760ff8216610c9257670de0b6b3a7640000926001809360ff1916179055600460ff1982541617815501557fa39921d83bfe9a4d65a5f7b2cec562272a07adc77d548d61778393b77f462f416040805160048152670de0b6b3a76400006020820152a2005b836341b77a2960e11b60005260045260246000fd5b8363c23cb52560e01b60005260045260246000fd5b346101c35760003660031901126101c35760206040516706f05b59d3b200008152f35b346101c35760003660031901126101c35760206040516722b1c8c1227a00008152f35b346101c35760203660031901126101c357610d1b61127d565b610d23611656565b6001600160a01b03166000908152600460205260409020805460ff19169055005b346101c35760203660031901126101c3576040610d67610d6261127d565b6114ad565b82519182526020820152f35b346101c35760003660031901126101c35760206040516730927f74c9de00008152f35b346101c35760203660031901126101c357610daf61127d565b600060c0604051610dbf81611369565b8281528260208201528260408201528260608201528260808201528260a0820152015260018060a01b0316600052600260205260e0604060002060405190610e0682611369565b610e1460ff8254168361144b565b6001810154602083019081526002820154916040840192835260038101546060850190815260056004830154926080870193845201549360a086019360ff86161515855260ff60c088019660081c1615158652610e75604051809851611293565b51602087015251604086015251606085015251608084015251151560a083015251151560c0820152f35b346101c35760003660031901126101c35760206040516714d1120d7b1600008152f35b346101c35760803660031901126101c357610edb61127d565b60243560058110156101c35760643560443567ffffffffffffffff82116101c357366023830112156101c35781600401359367ffffffffffffffff85116101c35736602486850101116101c357610f30611634565b33600052600460205260ff6040600020541615611268576001600160a01b0316600081815260026020526040902060058101549193909160081c60ff1615610ca7578360005260036020526064604060002054101561125357602095846000526003875260406000209060405191610fa78361134d565b338352888301610fb7898261144b565b6040840191878352606085019342855260009b818d9260246040519a610fe685601f19601f860116018d611385565b828c5201838b013788010152608085019586528054906801000000000000000082101561123f579061101d916001820181556112e1565b94909461122b575184546001600160a01b0319166001600160a01b039190911617845551600581101561121757835460ff60a01b191660a09190911b60ff60a01b1617835551600183015551600282015590518051600392909201919067ffffffffffffffff82116112035781906110958454611313565b601f81116111b3575b50602090601f8311600114611150578992611145575b50508160011b916000199060031b1c19161790555b6003841061111d5760026110e09101918254611457565b90555b6110f06040518093611293565b7f27748f6f2821deda758d99e06b4fb87ea481ca59635389b92420b29f0f58982e60203393a36001805580f35b6001841461112d575b50506110e3565b600361113c9101918254611457565b90558380611126565b0151905088806110b4565b848a52818a209250601f1984168a5b81811061119b5750908460019594939210611182575b505050811b0190556110c9565b015160001960f88460031b161c19169055888080611175565b9293602060018192878601518155019501930161115f565b90915083895260208920601f840160051c810191602085106111f9575b90601f859493920160051c01905b8181106111eb575061109e565b8a81558493506001016111de565b90915081906111d0565b634e487b7160e01b88526041600452602488fd5b634e487b7160e01b8a52602160045260248afd5b634e487b7160e01b8b5260048b905260248bfd5b634e487b7160e01b8c52604160045260248cfd5b83630c806faf60e31b60005260045260246000fd5b6349b49dbd60e11b6000523360045260246000fd5b600435906001600160a01b03821682036101c357565b9060058210156107595752565b919082519283825260005b8481106112cc575050826000602080949584010152601f8019910116010190565b806020809284010151828286010152016112ab565b80548210156112fd5760005260206000209060021b0190600090565b634e487b7160e01b600052603260045260246000fd5b90600182811c92168015611343575b602083101461132d57565b634e487b7160e01b600052602260045260246000fd5b91607f1691611322565b60a0810190811067ffffffffffffffff82111761051f57604052565b60e0810190811067ffffffffffffffff82111761051f57604052565b90601f8019910116810190811067ffffffffffffffff82111761051f57604052565b90604051918260008254926113bb84611313565b808452936001811690811561142957506001146113e2575b506113e092500383611385565b565b90506000929192526020600020906000915b81831061140d5750509060206113e092820101386113d3565b60209193508060019154838589010152019101909184926113f4565b9050602092506113e094915060ff191682840152151560051b820101386113d3565b60058210156107595752565b9190820180921161146457565b634e487b7160e01b600052601160045260246000fd5b8181029291811591840414171561146457565b8115611497570490565b634e487b7160e01b600052601260045260246000fd5b6001600160a01b031660009081526003602052604081208054919291908115611563579060009182915b80831061150f57505050670de0b6b3a7640000810290808204670de0b6b3a76400001490151715611464578261150c9161148d565b90565b9091929461152390600161086586866112e1565b9460ff61153085856112e1565b505460a01c1660058110156107595760019161155461155a928461089a89896112e1565b90611457565b930191906114d7565b50509050600090600090565b9060058110156107595760ff80198354169116179055565b6001600160a01b03166000908152600260205260409020600581015460081c60ff16156115d05760ff815416916004600183015492015462093a80810180911161146457421190565b50600090600090600190565b6001600160a01b03166000908152600260205260409020600581015460081c60ff1615611623575460ff169060058210156107595760058110156107595760ff1681101591565b506005811015610759571590600090565b600260015414611645576002600155565b633ee5aeb560e01b60005260046000fd5b6000546001600160a01b0316330361166a57565b63118cdaa760e01b6000523360045260246000fdfea2646970667358221220dd26aac719ebebd300ab7c0e0714f93d2c899366aee909cbbf7c3476cd2f806464736f6c634300081c0033",
  "linkReferences": {},
  "deployedLinkReferences": {}
}