{
  "_format": "hh-sol-artifact-1",
  "contractName": "MDTToken",
  "sourceName": "src/MDTToken.sol",
  "abi": [
    {
      "inputs": [],
      "stateMutability": "nonpayable",
      "type": "constructor"
    },
    {
      "inputs": [],
      "name": "ECDSAInvalidSignature",
      "type": "error"
    },
    {
      "inputs": [
        {
          "internalType": "uint256",
          "name": "length",
          "type": "uint256"
        }
      ],
      "name": "ECDSAInvalidSignatureLength",
      "type": "error"
    },
    {
      "inputs": [
        {
          "internalType": "bytes32",
          "name": "s",
          "type": "bytes32"
        }
      ],
      "name": "ECDSAInvalidSignatureS",
      "type": "error"
    },
    {
      "inputs": [
        {
          "internalType": "address",
          "name": "spender",
          "type": "address"
        },
        {
          "internalType": "uint256",
          "name": "allowance",
          "type": "uint256"
        },
        {
          "internalType": "uint256",
          "name": "needed",
          "type": "uint256"
        }
      ],
      "name": "ERC20InsufficientAllowance",
      "type": "error"
    },
    {
      "inputs": [
        {
          "internalType": "address",
          "name": "sender",
          "type": "address"
        },
        {
          "internalType": "uint256",
          "name": "balance",
          "type": "uint256"
        },
        {
          "internalType": "uint256",
          "name": "needed",
          "type": "uint256"
        }
      ],
      "name": "ERC20InsufficientBalance",
      "type": "error"
    },
    {
      "inputs": [
        {
          "internalType": "address",
          "name": "approver",
          "type": "address"
        }
      ],
      "name": "ERC20InvalidApprover",
      "type": "error"
    },
    {
      "inputs": [
        {
          "internalType": "address",
          "name": "receiver",
          "type": "address"
        }
      ],
      "name": "ERC20InvalidReceiver",
      "type": "error"
    },
    {
      "inputs": [
        {
          "internalType": "address",
          "name": "sender",
          "type": "address"
        }
      ],
      "name": "ERC20InvalidSender",
      "type": "error"
    },
    {
      "inputs": [
        {
          "internalType": "address",
          "name": "spender",
          "type": "address"
        }
      ],
      "name": "ERC20InvalidSpender",
      "type": "error"
    },
    {
      "inputs": [
        {
          "internalType": "uint256",
          "name": "deadline",
          "type": "uint256"
        }
      ],
      "name": "ERC2612ExpiredSignature",
      "type": "error"
    },
    {
      "inputs": [
        {
          "internalType": "address",
          "name": "signer",
          "type": "address"
        },
        {
          "internalType": "address",
          "name": "owner",
          "type": "address"
        }
      ],
      "name": "ERC2612InvalidSigner",
      "type": "error"
    },
    {
      "inputs": [
        {
          "internalType": "address",
          "name": "account",
          "type": "address"
        },
        {
          "internalType": "uint256",
          "name": "currentNonce",
          "type": "uint256"
        }
      ],
      "name": "InvalidAccountNonce",
      "type": "error"
    },
    {
      "inputs": [],
      "name": "InvalidShortString",
      "type": "error"
    },
    {
      "inputs": [
        {
          "internalType": "address",
          "name": "owner",
          "type": "address"
        }
      ],
      "name": "OwnableInvalidOwner",
      "type": "error"
    },
    {
      "inputs": [
        {
          "internalType": "address",
          "name": "account",
          "type": "address"
        }
      ],
      "name": "OwnableUnauthorizedAccount",
      "type": "error"
    },
    {
      "inputs": [
        {
          "internalType": "string",
          "name": "str",
          "type": "string"
        }
      ],
      "name": "StringTooLong",
      "type": "error"
    },
    {
      "anonymous": false,
      "inputs": [
        {
          "indexed": true,
          "internalType": "address",
          "name": "owner",
          "type": "address"
        },
        {
          "indexed": true,
          "internalType": "address",
          "name": "spender",
          "type": "address"
        },
        {
          "indexed": false,
          "internalType": "uint256",
          "name": "value",
          "type": "uint256"
        }
      ],
      "name": "Approval",
      "type": "event"
    },
    {
      "anonymous": false,
      "inputs": [
        {
          "indexed": true,
          "internalType": "enum MDTToken.Category",
          "name": "category",
          "type": "uint8"
        },
        {
          "indexed": true,
          "internalType": "address",
          "name": "to",
          "type": "address"
        },
        {
          "indexed": false,
          "internalType": "uint256",
          "name": "amount",
          "type": "uint256"
        }
      ],
      "name": "CategoryMinted",
      "type": "event"
    },
    {
      "anonymous": false,
      "inputs": [],
      "name": "EIP712DomainChanged",
      "type": "event"
    },
    {
      "anonymous": false,
      "inputs": [
        {
          "indexed": false,
          "internalType": "uint256",
          "name": "timestamp",
          "type": "uint256"
        }
      ],
      "name": "MintingFinished",
      "type": "event"
    },
    {
      "anonymous": false,
      "inputs": [
        {
          "indexed": true,
          "internalType": "address",
          "name": "previousOwner",
          "type": "address"
        },
        {
          "indexed": true,
          "internalType": "address",
          "name": "newOwner",
          "type": "address"
        }
      ],
      "name": "OwnershipTransferred",
      "type": "event"
    },
    {
      "anonymous": false,
      "inputs": [
        {
          "indexed": false,
          "internalType": "uint256",
          "name": "timestamp",
          "type": "uint256"
        },
        {
          "indexed": false,
          "internalType": "uint256",
          "name": "totalMinted",
          "type": "uint256"
        }
      ],
      "name": "TGEExecuted",
      "type": "event"
    },
    {
      "anonymous": false,
      "inputs": [
        {
          "indexed": true,
          "internalType": "address",
          "name": "from",
          "type": "address"
        },
        {
          "indexed": true,
          "internalType": "address",
          "name": "to",
          "type": "address"
        },
        {
          "indexed": false,
          "internalType": "uint256",
          "name": "value",
          "type": "uint256"
        }
      ],
      "name": "Transfer",
      "type": "event"
    },
    {
      "inputs": [],
      "name": "DOMAIN_SEPARATOR",
      "outputs": [
        {
          "internalType": "bytes32",
          "name": "",
          "type": "bytes32"
        }
      ],
      "stateMutability": "view",
      "type": "function"
    },
    {
      "inputs": [],
      "name": "MAX_SUPPLY",
      "outputs": [
        {
          "internalType": "uint256",
          "name": "",
          "type": "uint256"
        }
      ],
      "stateMutability": "view",
      "type": "function"
    },
    {
      "inputs": [],
      "name": "allCategoriesMinted",
      "outputs": [
        {
          "internalType": "bool",
          "name": "",
          "type": "bool"
        }
      ],
      "stateMutability": "view",
      "type": "function"
    },
    {
      "inputs": [
        {
          "internalType": "address",
          "name": "owner",
          "type": "address"
        },
        {
          "internalType": "address",
          "name": "spender",
          "type": "address"
        }
      ],
      "name": "allowance",
      "outputs": [
        {
          "internalType": "uint256",
          "name": "",
          "type": "uint256"
        }
      ],
      "stateMutability": "view",
      "type": "function"
    },
    {
      "inputs": [
        {
          "internalType": "address",
          "name": "spender",
          "type": "address"
        },
        {
          "internalType": "uint256",
          "name": "value",
          "type": "uint256"
        }
      ],
      "name": "approve",
      "outputs": [
        {
          "internalType": "bool",
          "name": "",
          "type": "bool"
        }
      ],
      "stateMutability": "nonpayable",
      "type": "function"
    },
    {
      "inputs": [
        {
          "internalType": "address",
          "name": "account",
          "type": "address"
        }
      ],
      "name": "balanceOf",
      "outputs": [
        {
          "internalType": "uint256",
          "name": "",
          "type": "uint256"
        }
      ],
      "stateMutability": "view",
      "type": "function"
    },
    {
      "inputs": [
        {
          "internalType": "uint256",
          "name": "value",
          "type": "uint256"
        }
      ],
      "name": "burn",
      "outputs": [],
      "stateMutability": "nonpayable",
      "type": "function"
    },
    {
      "inputs": [
        {
          "internalType": "address",
          "name": "account",
          "type": "address"
        },
        {
          "internalType": "uint256",
          "name": "value",
          "type": "uint256"
        }
      ],
      "name": "burnFrom",
      "outputs": [],
      "stateMutability": "nonpayable",
      "type": "function"
    },
    {
      "inputs": [
        {
          "internalType": "enum MDTToken.Category",
          "name": "",
          "type": "uint8"
        }
      ],
      "name": "categoryAllocation",
      "outputs": [
        {
          "internalType": "uint256",
          "name": "",
          "type": "uint256"
        }
      ],
      "stateMutability": "view",
      "type": "function"
    },
    {
      "inputs": [
        {
          "internalType": "enum MDTToken.Category",
          "name": "",
          "type": "uint8"
        }
      ],
      "name": "categoryMinted",
      "outputs": [
        {
          "internalType": "uint256",
          "name": "",
          "type": "uint256"
        }
      ],
      "stateMutability": "view",
      "type": "function"
    },
    {
      "inputs": [],
      "name": "decimals",
      "outputs": [
        {
          "internalType": "uint8",
          "name": "",
          "type": "uint8"
        }
      ],
      "stateMutability": "view",
      "type": "function"
    },
    {
      "inputs": [],
      "name": "eip712Domain",
      "outputs": [
        {
          "internalType": "bytes1",
          "name": "fields",
          "type": "bytes1"
        },
        {
          "internalType": "string",
          "name": "name",
          "type": "string"
        },
        {
          "internalType": "string",
          "name": "version",
          "type": "string"
        },
        {
          "internalType": "uint256",
          "name": "chainId",
          "type": "uint256"
        },
        {
          "internalType": "address",
          "name": "verifyingContract",
          "type": "address"
        },
        {
          "internalType": "bytes32",
          "name": "salt",
          "type": "bytes32"
        },
        {
          "internalType": "uint256[]",
          "name": "extensions",
          "type": "uint256[]"
        }
      ],
      "stateMutability": "view",
      "type": "function"
    },
    {
      "inputs": [
        {
          "internalType": "enum MDTToken.Category",
          "name": "category",
          "type": "uint8"
        },
        {
          "internalType": "address",
          "name": "to",
          "type": "address"
        }
      ],
      "name": "executeTGE",
      "outputs": [],
      "stateMutability": "nonpayable",
      "type": "function"
    },
    {
      "inputs": [],
      "name": "finishMinting",
      "outputs": [],
      "stateMutability": "nonpayable",
      "type": "function"
    },
    {
      "inputs": [],
      "name": "getAllocations",
      "outputs": [
        {
          "internalType": "uint256",
          "name": "emissionRewards",
          "type": "uint256"
        },
        {
          "internalType": "uint256",
          "name": "ecosystemGrants",
          "type": "uint256"
        },
        {
          "internalType": "uint256",
          "name": "teamCoreDev",
          "type": "uint256"
        },
        {
          "internalType": "uint256",
          "name": "privateSale",
          "type": "uint256"
        },
        {
          "internalType": "uint256",
          "name": "ido",
          "type": "uint256"
        },
        {
          "internalType": "uint256",
          "name": "daoTreasury",
          "type": "uint256"
        },
        {
          "internalType": "uint256",
          "name": "initialLiquidity",
          "type": "uint256"
        },
        {
          "internalType": "uint256",
          "name": "foundationReserve",
          "type": "uint256"
        }
      ],
      "stateMutability": "view",
      "type": "function"
    },
    {
      "inputs": [
        {
          "internalType": "enum MDTToken.Category",
          "name": "category",
          "type": "uint8"
        },
        {
          "internalType": "address",
          "name": "to",
          "type": "address"
        },
        {
          "internalType": "uint256",
          "name": "amount",
          "type": "uint256"
        }
      ],
      "name": "mintCategory",
      "outputs": [],
      "stateMutability": "nonpayable",
      "type": "function"
    },
    {
      "inputs": [],
      "name": "mintingFinished",
      "outputs": [
        {
          "internalType": "bool",
          "name": "",
          "type": "bool"
        }
      ],
      "stateMutability": "view",
      "type": "function"
    },
    {
      "inputs": [],
      "name": "name",
      "outputs": [
        {
          "internalType": "string",
          "name": "",
          "type": "string"
        }
      ],
      "stateMutability": "view",
      "type": "function"
    },
    {
      "inputs": [
        {
          "internalType": "address",
          "name": "owner",
          "type": "address"
        }
      ],
      "name": "nonces",
      "outputs": [
        {
          "internalType": "uint256",
          "name": "",
          "type": "uint256"
        }
      ],
      "stateMutability": "view",
      "type": "function"
    },
    {
      "inputs": [],
      "name": "owner",
      "outputs": [
        {
          "internalType": "address",
          "name": "",
          "type": "address"
        }
      ],
      "stateMutability": "view",
      "type": "function"
    },
    {
      "inputs": [
        {
          "internalType": "address",
          "name": "owner",
          "type": "address"
        },
        {
          "internalType": "address",
          "name": "spender",
          "type": "address"
        },
        {
          "internalType": "uint256",
          "name": "value",
          "type": "uint256"
        },
        {
          "internalType": "uint256",
          "name": "deadline",
          "type": "uint256"
        },
        {
          "internalType": "uint8",
          "name": "v",
          "type": "uint8"
        },
        {
          "internalType": "bytes32",
          "name": "r",
          "type": "bytes32"
        },
        {
          "internalType": "bytes32",
          "name": "s",
          "type": "bytes32"
        }
      ],
      "name": "permit",
      "outputs": [],
      "stateMutability": "nonpayable",
      "type": "function"
    },
    {
      "inputs": [
        {
          "internalType": "enum MDTToken.Category",
          "name": "category",
          "type": "uint8"
        }
      ],
      "name": "remainingAllocation",
      "outputs": [
        {
          "internalType": "uint256",
          "name": "",
          "type": "uint256"
        }
      ],
      "stateMutability": "view",
      "type": "function"
    },
    {
      "inputs": [],
      "name": "renounceOwnership",
      "outputs": [],
      "stateMutability": "nonpayable",
      "type": "function"
    },
    {
      "inputs": [],
      "name": "symbol",
      "outputs": [
        {
          "internalType": "string",
          "name": "",
          "type": "string"
        }
      ],
      "stateMutability": "view",
      "type": "function"
    },
    {
      "inputs": [],
      "name": "tgeTimestamp",
      "outputs": [
        {
          "internalType": "uint256",
          "name": "",
          "type": "uint256"
        }
      ],
      "stateMutability": "view",
      "type": "function"
    },
    {
      "inputs": [],
      "name": "totalSupply",
      "outputs": [
        {
          "internalType": "uint256",
          "name": "",
          "type": "uint256"
        }
      ],
      "stateMutability": "view",
      "type": "function"
    },
    {
      "inputs": [
        {
          "internalType": "address",
          "name": "to",
          "type": "address"
        },
        {
          "internalType": "uint256",
          "name": "value",
          "type": "uint256"
        }
      ],
      "name": "transfer",
      "outputs": [
        {
          "internalType": "bool",
          "name": "",
          "type": "bool"
        }
      ],
      "stateMutability": "nonpayable",
      "type": "function"
    },
    {
      "inputs": [
        {
          "internalType": "address",
          "name": "from",
          "type": "address"
        },
        {
          "internalType": "address",
          "name": "to",
          "type": "address"
        },
        {
          "internalType": "uint256",
          "name": "value",
          "type": "uint256"
        }
      ],
      "name": "transferFrom",
      "outputs": [
        {
          "internalType": "bool",
          "name": "",
          "type": "bool"
        }
      ],
      "stateMutability": "nonpayable",
      "type": "function"
    },
    {
      "inputs": [
        {
          "internalType": "address",
          "name": "newOwner",
          "type": "address"
        }
      ],
      "name": "transferOwnership",
      "outputs": [],
      "stateMutability": "nonpayable",
      "type": "function"
    }
  ],
  "bytecode": "0x6101606040523461060457604051610018604082610609565b600c8152602081016b26b7b232b9372a32b739b7b960a11b815260405190610041604083610609565b600c82526b26b7b232b9372a32b739b7b960a11b602083015260405192610069604085610609565b600384526213511560ea1b602085015260405193610088604086610609565b60018552603160f81b60208601908152845190946001600160401b0382116105015760035490600182811c921680156105fa575b60208310146104e15781601f84931161058a575b50602090601f831160011461052257600092610517575b50508160011b916000199060031b1c1916176003555b8051906001600160401b0382116105015760045490600182811c921680156104f7575b60208310146104e15781601f849311610471575b50602090601f8311600114610409576000926103fe575b50508160011b916000199060031b1c1916176004555b61016a8161062c565b61012052610177846107da565b61014052519020918260e05251902080610100524660a0526040519060208201927f8b73c3c69bb8fe3d512ecc4cf759cc79239f7b179b0ffacaa9a75d522b39400f8452604083015260608201524660808201523060a082015260a081526101e060c082610609565b5190206080523060c05233156103e857600854336001600160a01b0382167f8be0079c531659141344cd1fd0a4f28419497f9722a3daafe3b4186f6b6457e0600080a36001600160a81b0319163360ff60a01b191617600855600b6020526a07d11d86c8aa2bfe4000007fdf7de25b7f1fd6d0b5205f0e18f1f35bd7b8d84cce336588d184533ce43a6f76556a0215a1794693c7770000007f72c6bfb7988af3a1efa6568f02a999bc52252641c659d85961ca3d372b57d5cf556a01bcb13a657b26388000007fa50eece07c7db1631545c0069bd8f5f54d5935e215d59097edf258a44ba916348190556a0163c0fb846284fa0000007f64c15cc42be7899b001f818cf4433057002112c418d1d3a67cd5cb453051d33e5569de589d32bd931c4000007f12d0c11577e2f0950f57c455c117796550b79f444811db8ba2f69c57b646c7848190557febae6141bae5521e99e0a8d610356b0f501fea54980b59c84841db43ba7204f4919091557f0387e9d1203691d8e3362a7e4c6723de358a4010d7f31ecbec3fbfc61d1c75fc81905560076000527ff5559028dc9ba50d75343c779b2f75e13a84a14662932fc67a486f263ca31a9655604051611a0c9081610979823960805181611622015260a051816116df015260c051816115ec015260e05181611671015261010051816116970152610120518161057f015261014051816105a80152f35b631e4fbdf760e01b600052600060045260246000fd5b01519050388061014b565b600460009081528281209350601f198516905b8181106104595750908460019594939210610440575b505050811b01600455610161565b015160001960f88460031b161c19169055388080610432565b9293602060018192878601518155019501930161041c565b60046000529091507f8a35acfbc15ff81a39ae7d344fd709f28e8600b4aa8c65c6b64bfe7fe36bd19b601f840160051c810191602085106104d7575b90601f859493920160051c01905b8181106104c85750610134565b600081558493506001016104bb565b90915081906104ad565b634e487b7160e01b600052602260045260246000fd5b91607f1691610120565b634e487b7160e01b600052604160045260246000fd5b0151905038806100e7565b600360009081528281209350601f198516905b8181106105725750908460019594939210610559575b505050811b016003556100fd565b015160001960f88460031b161c1916905538808061054b565b92936020600181928786015181550195019301610535565b60036000529091507fc2575a0e9e593c00f959f8c92f12db2869c3395a3b0502d05e2516446f71f85b601f840160051c810191602085106105f0575b90601f859493920160051c01905b8181106105e157506100d0565b600081558493506001016105d4565b90915081906105c6565b91607f16916100bc565b600080fd5b601f909101601f19168101906001600160401b0382119082101761050157604052565b908151602081106000146106c4575090601f815111610668576020815191015160208210610658571790565b6000198260200360031b1b161790565b6040519063305a27a960e01b8252602060048301528181519182602483015260005b8381106106ac5750508160006044809484010152601f80199101168101030190fd5b6020828201810151604487840101528593500161068a565b6001600160401b03811161050157600554600181811c911680156107d0575b60208210146104e157601f811161079a575b50602092601f8211600114610735579281929360009261072a575b50508160011b916000199060031b1c19161760055560ff90565b015190503880610710565b601f198216936005600052806000209160005b8681106107825750836001959610610769575b505050811b0160055560ff90565b015160001960f88460031b161c1916905538808061075b565b91926020600181928685015181550194019201610748565b6005600052601f6020600020910160051c810190601f830160051c015b8181106107c457506106f5565b600081556001016107b7565b90607f16906106e3565b90815160208110600014610862575090601f815111610806576020815191015160208210610658571790565b6040519063305a27a960e01b8252602060048301528181519182602483015260005b83811061084a5750508160006044809484010152601f80199101168101030190fd5b60208282018101516044878401015285935001610828565b6001600160401b03811161050157600654600181811c9116801561096e575b60208210146104e157601f8111610938575b50602092601f82116001146108d357928192936000926108c8575b50508160011b916000199060031b1c19161760065560ff90565b0151905038806108ae565b601f198216936006600052806000209160005b8681106109205750836001959610610907575b505050811b0160065560ff90565b015160001960f88460031b161c191690553880806108f9565b919260206001819286850151815501940192016108e6565b6006600052601f6020600020910160051c810190601f830160051c015b8181106109625750610893565b60008155600101610955565b90607f169061088156fe608080604052600436101561001357600080fd5b60003560e01c90816305d2035b14610e7a5750806306fdde0314610dd2578063095ea7b314610dac5780630c08603914610d8457806318160ddd14610d665780632335ba1714610c5657806323b872dd14610c1e57806323ecb4f114610aa1578063313ce56714610a8557806332cb6b0c14610a5f5780633644e51514610a3c57806342966c6814610a1f578063503bf615146109ee57806365ed6e231461088457806370a082311461084a578063715018a61461083157806379cc6790146108015780637d64bcb41461069d5780637ecebe001461066357806384b0196e146105665780638da5cb5b1461053d57806395d89b4114610458578063a4317ef41461043a578063a9059cbb14610409578063c0f3cb75146103ae578063d505accf14610263578063da6ea4d71461023e578063dd62ed3e146101ed5763f2fde38b1461015e57600080fd5b346101e85760203660031901126101e857610177610ede565b61017f6113c6565b6001600160a01b031680156101d257600880546001600160a01b0319811683179091556001600160a01b03167f8be0079c531659141344cd1fd0a4f28419497f9722a3daafe3b4186f6b6457e0600080a3005b631e4fbdf760e01b600052600060045260246000fd5b600080fd5b346101e85760403660031901126101e857610206610ede565b61020e610ef4565b6001600160a01b039182166000908152600160209081526040808320949093168252928352819020549051908152f35b346101e85760003660031901126101e85760206102596110fb565b6040519015158152f35b346101e85760e03660031901126101e85761027c610ede565b610284610ef4565b604435906064359260843560ff811681036101e8578442116103995761035a6103639160018060a01b038416968760005260076020526040600020908154916001830190556040519060208201927f6e71edae12b1b97f4d1f60370fef10105fa2faae0126114a169c64845d6126c984528a604084015260018060a01b038916606084015289608084015260a083015260c082015260c0815261032860e08261100f565b5190206103336115e9565b906040519161190160f01b83526002830152602282015260c43591604260a43592206118cf565b90929192611964565b6001600160a01b0316848103610380575061037e93506117ca565b005b84906325c0072360e11b60005260045260245260446000fd5b8463313c898160e11b60005260045260246000fd5b346101e85760203660031901126101e85760043560088110156101e8576103de6103d782610f39565b5491610f0a565b5481039081116103f357602090604051908152f35b634e487b7160e01b600052601160045260246000fd5b346101e85760403660031901126101e85761042f610425610ede565b602435903361153a565b602060405160018152f35b346101e85760003660031901126101e8576020600954604051908152f35b346101e85760003660031901126101e857604051600060045461047a81610f52565b808452906001811690811561051957506001146104ba575b6104b6836104a28185038261100f565b604051918291602083526020830190610e9d565b0390f35b600460009081527f8a35acfbc15ff81a39ae7d344fd709f28e8600b4aa8c65c6b64bfe7fe36bd19b939250905b8082106104ff575090915081016020016104a2610492565b9192600181602092548385880101520191019092916104e7565b60ff191660208086019190915291151560051b840190910191506104a29050610492565b346101e85760003660031901126101e8576008546040516001600160a01b039091168152602090f35b346101e85760003660031901126101e8576106056105a37f0000000000000000000000000000000000000000000000000000000000000000611831565b6105cc7f0000000000000000000000000000000000000000000000000000000000000000611898565b6020610613604051926105df838561100f565b600084526000368137604051958695600f60f81b875260e08588015260e0870190610e9d565b908582036040870152610e9d565b466060850152306080850152600060a085015283810360c085015281808451928381520193019160005b82811061064c57505050500390f35b83518552869550938101939281019260010161063d565b346101e85760203660031901126101e8576001600160a01b03610684610ede565b1660005260076020526020604060002054604051908152f35b346101e85760003660031901126101e8576106b66113c6565b6008546106c960ff8260a01c1615611047565b6106d16110fb565b156107b057600254906a115eec47f6cf7e35000000820361076b5760ff60a01b1916600160a01b17600855604080514281527f7a1be65236fa43f4bd450d67219d65a9f1f3d51aae0d62d70758463c9a316a7692907ff6af8e1d23f8a5997a11116c1e59bd11c947226b74890b8e0fde60d95a7c076a90602090a16009549082519182526020820152a16107636113c6565b61037e611786565b60405162461bcd60e51b815260206004820152601960248201527f4d4454546f6b656e3a20737570706c79206d69736d61746368000000000000006044820152606490fd5b60405162461bcd60e51b815260206004820152602360248201527f4d4454546f6b656e3a206e6f7420616c6c2063617465676f72696573206d696e6044820152621d195960ea1b6064820152608490fd5b346101e85760403660031901126101e85761037e61081d610ede565b6024359061082c823383611463565b611705565b346101e85760003660031901126101e8576107636113c6565b346101e85760203660031901126101e8576001600160a01b0361086b610ede565b1660005260006020526020604060002054604051908152f35b346101e85760003660031901126101e857600b60209081527fdf7de25b7f1fd6d0b5205f0e18f1f35bd7b8d84cce336588d184533ce43a6f76547f72c6bfb7988af3a1efa6568f02a999bc52252641c659d85961ca3d372b57d5cf547fa50eece07c7db1631545c0069bd8f5f54d5935e215d59097edf258a44ba91634547f64c15cc42be7899b001f818cf4433057002112c418d1d3a67cd5cb453051d33e547f12d0c11577e2f0950f57c455c117796550b79f444811db8ba2f69c57b646c784547febae6141bae5521e99e0a8d610356b0f501fea54980b59c84841db43ba7204f4547f0387e9d1203691d8e3362a7e4c6723de358a4010d7f31ecbec3fbfc61d1c75fc5460076000527ff5559028dc9ba50d75343c779b2f75e13a84a14662932fc67a486f263ca31a96546040805198895298880196909652968601939093526060850191909152608084015260a083015260c082019290925260e081019190915261010090f35b346101e85760203660031901126101e85760043560088110156101e857610a16602091610f39565b54604051908152f35b346101e85760203660031901126101e85761037e60043533611705565b346101e85760003660031901126101e8576020610a576115e9565b604051908152f35b346101e85760003660031901126101e85760206040516a115eec47f6cf7e350000008152f35b346101e85760003660031901126101e857602060405160128152f35b346101e85760603660031901126101e85760043560088110156101e857610ac6610ef4565b90604435610ad26113c6565b610ae460ff60085460a01c1615611047565b6001600160a01b03831692610afa8415156110a2565b610b0d82610b0785610f0a565b546110ee565b610b1684610f39565b5410610bcb576a115eec47f6cf7e35000000610b34836002546110ee565b11610b865781610b7d7fd18d0b722b1799afc328cfd48dbc75998dc5e1f5c85d21be72ae6f90de992f0493602093610b6b87610f0a565b610b768382546110ee565b90556113ef565b604051908152a3005b60405162461bcd60e51b815260206004820152601c60248201527f4d4454546f6b656e3a2065786365656473206d617820737570706c79000000006044820152606490fd5b60405162461bcd60e51b815260206004820152602560248201527f4d4454546f6b656e3a20657863656564732063617465676f727920616c6c6f6360448201526430ba34b7b760d91b6064820152608490fd5b346101e85760603660031901126101e85761042f610c3a610ede565b610c42610ef4565b60443591610c51833383611463565b61153a565b346101e85760403660031901126101e85760043560088110156101e857610c7b610ef4565b90610c846113c6565b610c9660ff60085460a01c1615611047565b6001600160a01b03821691610cac8315156110a2565b610cb582610f0a565b54610d175760207fd18d0b722b1799afc328cfd48dbc75998dc5e1f5c85d21be72ae6f90de992f0491610cfd610cea85610f39565b54809281610cf788610f0a565b556113ef565b60095415610d0e57604051908152a3005b42600955610b7d565b60405162461bcd60e51b815260206004820152602160248201527f4d4454546f6b656e3a2063617465676f727920616c7265616479206d696e74656044820152601960fa1b6064820152608490fd5b346101e85760003660031901126101e8576020600254604051908152f35b346101e85760203660031901126101e85760043560088110156101e857610a16602091610f0a565b346101e85760403660031901126101e85761042f610dc8610ede565b60243590336117ca565b346101e85760003660031901126101e8576040516000600354610df481610f52565b80845290600181169081156105195750600114610e1b576104b6836104a28185038261100f565b600360009081527fc2575a0e9e593c00f959f8c92f12db2869c3395a3b0502d05e2516446f71f85b939250905b808210610e60575090915081016020016104a2610492565b919260018160209254838588010152019101909291610e48565b346101e85760003660031901126101e85760209060ff60085460a01c1615158152f35b919082519283825260005b848110610ec9575050826000602080949584010152601f8019910116010190565b80602080928401015182828601015201610ea8565b600435906001600160a01b03821682036101e857565b602435906001600160a01b03821682036101e857565b6008811015610f2357600052600a602052604060002090565b634e487b7160e01b600052602160045260246000fd5b6008811015610f2357600052600b602052604060002090565b90600182811c92168015610f82575b6020831014610f6c57565b634e487b7160e01b600052602260045260246000fd5b91607f1691610f61565b60009291815491610f9c83610f52565b8083529260018116908115610ff25750600114610fb857505050565b60009081526020812093945091925b838310610fd8575060209250010190565b600181602092949394548385870101520191019190610fc7565b915050602093945060ff929192191683830152151560051b010190565b90601f8019910116810190811067ffffffffffffffff82111761103157604052565b634e487b7160e01b600052604160045260246000fd5b1561104e57565b60405162461bcd60e51b815260206004820152602660248201527f4d4454546f6b656e3a204d696e74696e67207065726d616e656e746c792066696044820152651b9a5cda195960d21b6064820152608490fd5b156110a957565b60405162461bcd60e51b815260206004820152601e60248201527f4d4454546f6b656e3a206d696e7420746f207a65726f206164647265737300006044820152606490fd5b919082018092116103f357565b600080527f13da86008ba1c6922daee3e07db95305ef49ebced9f5467a0b8613fcc6b343e354600b6020527fdf7de25b7f1fd6d0b5205f0e18f1f35bd7b8d84cce336588d184533ce43a6f76541480611371575b8061131c575b806112c7575b80611272575b8061121d575b806111c8575b806111755790565b5060076000527f22e39f61d1e4986b4f116cea9067f62cc77d74dff1780ae9c8b5166d1dd2882954600b6020527ff5559028dc9ba50d75343c779b2f75e13a84a14662932fc67a486f263ca31a96541490565b5060066000527f10d9dd018e4cae503383c9f804c1c1603ada5856ee7894375d9b97cd8c8b27db54600b6020527f0387e9d1203691d8e3362a7e4c6723de358a4010d7f31ecbec3fbfc61d1c75fc541461116d565b5060056000527ff35035bc2b01d44bd35a1dcdc552315cffb73da35cfd60570b7b777f98036f9f54600b6020527febae6141bae5521e99e0a8d610356b0f501fea54980b59c84841db43ba7204f45414611167565b5060046000527fe1eb2b2161a492c07c5a334e48012567cba93ec021043f53c1955516a3c5a84154600b6020527f12d0c11577e2f0950f57c455c117796550b79f444811db8ba2f69c57b646c7845414611161565b5060036000527fa856840544dc26124927add067d799967eac11be13e14d82cc281ea46fa3975954600b6020527f64c15cc42be7899b001f818cf4433057002112c418d1d3a67cd5cb453051d33e541461115b565b5060026000527fbff4442b8ed600beeb8e26b1279a0f0d14c6edfaec26d968ee13c86f7d4c2ba854600b6020527fa50eece07c7db1631545c0069bd8f5f54d5935e215d59097edf258a44ba916345414611155565b5060016000527fbbc70db1b6c7afd11e79c0fb0051300458f1a3acb8ee9789d9b6b26c61ad9bc754600b6020527f72c6bfb7988af3a1efa6568f02a999bc52252641c659d85961ca3d372b57d5cf541461114f565b6008546001600160a01b031633036113da57565b63118cdaa760e01b6000523360045260246000fd5b6001600160a01b031690811561144d5761140b816002546110ee565b6002557fddf252ad1be2c89b69c2b068fc378daa952ba7f163c4a11628f55a4df523b3ef602060009284845283825260408420818154019055604051908152a3565b63ec442f0560e01b600052600060045260246000fd5b6001600160a01b03908116600081815260016020908152604080832094861683529390529190912054929190600019841061149f575b50505050565b8284106115155780156114ff576001600160a01b038216156114e957600052600160205260406000209060018060a01b031660005260205260406000209103905538808080611499565b634a1406b160e11b600052600060045260246000fd5b63e602df0560e01b600052600060045260246000fd5b508290637dc7a0d960e11b60005260018060a01b031660045260245260445260646000fd5b6001600160a01b03169081156115d3576001600160a01b031691821561144d5760008281528060205260408120548281106115b95791604082827fddf252ad1be2c89b69c2b068fc378daa952ba7f163c4a11628f55a4df523b3ef958760209652828652038282205586815280845220818154019055604051908152a3565b916064928463391434e360e21b8452600452602452604452fd5b634b637e8f60e11b600052600060045260246000fd5b307f00000000000000000000000000000000000000000000000000000000000000006001600160a01b031614806116dc575b15611644577f000000000000000000000000000000000000000000000000000000000000000090565b60405160208101907f8b73c3c69bb8fe3d512ecc4cf759cc79239f7b179b0ffacaa9a75d522b39400f82527f000000000000000000000000000000000000000000000000000000000000000060408201527f000000000000000000000000000000000000000000000000000000000000000060608201524660808201523060a082015260a081526116d660c08261100f565b51902090565b507f0000000000000000000000000000000000000000000000000000000000000000461461161b565b6001600160a01b031680156115d35760009181835282602052604083205481811061176d57817fddf252ad1be2c89b69c2b068fc378daa952ba7f163c4a11628f55a4df523b3ef926020928587528684520360408620558060025403600255604051908152a3565b6064939263391434e360e21b8452600452602452604452fd5b600880546001600160a01b031981169091556000906001600160a01b03167f8be0079c531659141344cd1fd0a4f28419497f9722a3daafe3b4186f6b6457e08280a3565b6001600160a01b03169081156114ff576001600160a01b03169182156114e95760207f8c5be1e5ebec7d5bd14f71427d1e84f3dd0314c0f7b2291e5b200ac8c7c3b925918360005260018252604060002085600052825280604060002055604051908152a3565b60ff811461187b5760ff811690601f821161186a576040805192611855828561100f565b6020808552840191601f190136833783525290565b632cd44ac360e21b60005260046000fd5b506040516118958161188e816005610f8c565b038261100f565b90565b60ff81146118bc5760ff811690601f821161186a576040805192611855828561100f565b506040516118958161188e816006610f8c565b91907f7fffffffffffffffffffffffffffffff5d576e7357a4501ddfe92f46681b20a08411611958579160209360809260ff60009560405194855216868401526040830152606082015282805260015afa1561194c576000516001600160a01b038116156119405790600090600090565b50600090600190600090565b6040513d6000823e3d90fd5b50505060009160039190565b9190916004811015610f23578061197a57509050565b6000600182036119955763f645eedf60e01b60005260046000fd5b50600281036119b3578263fce698f760e01b60005260045260246000fd5b90916003600092146119c3575050565b6335e2f38360e21b825260045260249150fdfea2646970667358221220cdbb77baad85ec0bad9db2a94b04041c25bafde1590b294aadc5fcb199bcd46164736f6c634300081c0033",
  "linkReferences": {},
  "deployedLinkReferences": {}
}