{
  "_format": "hh-sol-artifact-1",
  "contractName": "ContentAuthenticator",
  "sourceName": "src/examples/ContentAuthenticator.sol",
  "abi": [
    {
      "inputs": [
        {
          "internalType": "string",
          "name": "name_",
          "type": "string"
        },
        {
          "internalType": "string",
          "name": "symbol_",
          "type": "string"
        },
        {
          "internalType": "uint256",
          "name": "dimension_",
          "type": "uint256"
        }
      ],
      "stateMutability": "nonpayable",
      "type": "constructor"
    },
    {
      "inputs": [
        {
          "internalType": "bytes32",
          "name": "contentHash",
          "type": "bytes32"
        },
        {
          "internalType": "uint256",
          "name": "existingTokenId",
          "type": "uint256"
        }
      ],
      "name": "ContentAlreadyMinted",
      "type": "error"
    },
    {
      "inputs": [
        {
          "internalType": "address",
          "name": "sender",
          "type": "address"
        },
        {
          "internalType": "uint256",
          "name": "tokenId",
          "type": "uint256"
        },
        {
          "internalType": "address",
          "name": "owner",
          "type": "address"
        }
      ],
      "name": "ERC721IncorrectOwner",
      "type": "error"
    },
    {
      "inputs": [
        {
          "internalType": "address",
          "name": "operator",
          "type": "address"
        },
        {
          "internalType": "uint256",
          "name": "tokenId",
          "type": "uint256"
        }
      ],
      "name": "ERC721InsufficientApproval",
      "type": "error"
    },
    {
      "inputs": [
        {
          "internalType": "address",
          "name": "approver",
          "type": "address"
        }
      ],
      "name": "ERC721InvalidApprover",
      "type": "error"
    },
    {
      "inputs": [
        {
          "internalType": "address",
          "name": "operator",
          "type": "address"
        }
      ],
      "name": "ERC721InvalidOperator",
      "type": "error"
    },
    {
      "inputs": [
        {
          "internalType": "address",
          "name": "owner",
          "type": "address"
        }
      ],
      "name": "ERC721InvalidOwner",
      "type": "error"
    },
    {
      "inputs": [
        {
          "internalType": "address",
          "name": "receiver",
          "type": "address"
        }
      ],
      "name": "ERC721InvalidReceiver",
      "type": "error"
    },
    {
      "inputs": [
        {
          "internalType": "address",
          "name": "sender",
          "type": "address"
        }
      ],
      "name": "ERC721InvalidSender",
      "type": "error"
    },
    {
      "inputs": [
        {
          "internalType": "uint256",
          "name": "tokenId",
          "type": "uint256"
        }
      ],
      "name": "ERC721NonexistentToken",
      "type": "error"
    },
    {
      "inputs": [
        {
          "internalType": "bytes32",
          "name": "embeddingHash",
          "type": "bytes32"
        },
        {
          "internalType": "uint256",
          "name": "existingTokenId",
          "type": "uint256"
        }
      ],
      "name": "EmbeddingAlreadyRegistered",
      "type": "error"
    },
    {
      "inputs": [
        {
          "internalType": "uint256",
          "name": "got",
          "type": "uint256"
        },
        {
          "internalType": "uint256",
          "name": "expected",
          "type": "uint256"
        }
      ],
      "name": "InvalidEmbedding",
      "type": "error"
    },
    {
      "inputs": [
        {
          "internalType": "address",
          "name": "owner",
          "type": "address"
        }
      ],
      "name": "OwnableInvalidOwner",
      "type": "error"
    },
    {
      "inputs": [
        {
          "internalType": "address",
          "name": "account",
          "type": "address"
        }
      ],
      "name": "OwnableUnauthorizedAccount",
      "type": "error"
    },
    {
      "inputs": [],
      "name": "ReentrancyGuardReentrantCall",
      "type": "error"
    },
    {
      "inputs": [
        {
          "internalType": "uint256",
          "name": "tokenId",
          "type": "uint256"
        }
      ],
      "name": "TokenNotFound",
      "type": "error"
    },
    {
      "anonymous": false,
      "inputs": [
        {
          "indexed": true,
          "internalType": "address",
          "name": "owner",
          "type": "address"
        },
        {
          "indexed": true,
          "internalType": "address",
          "name": "approved",
          "type": "address"
        },
        {
          "indexed": true,
          "internalType": "uint256",
          "name": "tokenId",
          "type": "uint256"
        }
      ],
      "name": "Approval",
      "type": "event"
    },
    {
      "anonymous": false,
      "inputs": [
        {
          "indexed": true,
          "internalType": "address",
          "name": "owner",
          "type": "address"
        },
        {
          "indexed": true,
          "internalType": "address",
          "name": "operator",
          "type": "address"
        },
        {
          "indexed": false,
          "internalType": "bool",
          "name": "approved",
          "type": "bool"
        }
      ],
      "name": "ApprovalForAll",
      "type": "event"
    },
    {
      "anonymous": false,
      "inputs": [
        {
          "indexed": true,
          "internalType": "uint256",
          "name": "tokenId",
          "type": "uint256"
        },
        {
          "indexed": true,
          "internalType": "bytes32",
          "name": "contentHash",
          "type": "bytes32"
        },
        {
          "indexed": false,
          "internalType": "bytes32",
          "name": "embeddingHash",
          "type": "bytes32"
        },
        {
          "indexed": false,
          "internalType": "address",
          "name": "creator",
          "type": "address"
        }
      ],
      "name": "ContentVerified",
      "type": "event"
    },
    {
      "anonymous": false,
      "inputs": [
        {
          "indexed": true,
          "internalType": "bytes32",
          "name": "contentHash",
          "type": "bytes32"
        },
        {
          "indexed": false,
          "internalType": "uint256",
          "name": "existingTokenId",
          "type": "uint256"
        }
      ],
      "name": "DuplicateDetected",
      "type": "event"
    },
    {
      "anonymous": false,
      "inputs": [
        {
          "indexed": true,
          "internalType": "address",
          "name": "previousOwner",
          "type": "address"
        },
        {
          "indexed": true,
          "internalType": "address",
          "name": "newOwner",
          "type": "address"
        }
      ],
      "name": "OwnershipTransferred",
      "type": "event"
    },
    {
      "anonymous": false,
      "inputs": [
        {
          "indexed": true,
          "internalType": "address",
          "name": "from",
          "type": "address"
        },
        {
          "indexed": true,
          "internalType": "address",
          "name": "to",
          "type": "address"
        },
        {
          "indexed": true,
          "internalType": "uint256",
          "name": "tokenId",
          "type": "uint256"
        }
      ],
      "name": "Transfer",
      "type": "event"
    },
    {
      "inputs": [],
      "name": "MAX_DIMENSION",
      "outputs": [
        {
          "internalType": "uint256",
          "name": "",
          "type": "uint256"
        }
      ],
      "stateMutability": "view",
      "type": "function"
    },
    {
      "inputs": [
        {
          "internalType": "address",
          "name": "to",
          "type": "address"
        },
        {
          "internalType": "uint256",
          "name": "tokenId",
          "type": "uint256"
        }
      ],
      "name": "approve",
      "outputs": [],
      "stateMutability": "nonpayable",
      "type": "function"
    },
    {
      "inputs": [
        {
          "internalType": "address",
          "name": "owner",
          "type": "address"
        }
      ],
      "name": "balanceOf",
      "outputs": [
        {
          "internalType": "uint256",
          "name": "",
          "type": "uint256"
        }
      ],
      "stateMutability": "view",
      "type": "function"
    },
    {
      "inputs": [
        {
          "internalType": "bytes32",
          "name": "contentHash",
          "type": "bytes32"
        },
        {
          "internalType": "int256[]",
          "name": "embedding",
          "type": "int256[]"
        }
      ],
      "name": "checkOriginality",
      "outputs": [
        {
          "internalType": "bool",
          "name": "isOriginal",
          "type": "bool"
        },
        {
          "internalType": "uint256",
          "name": "existingTokenId",
          "type": "uint256"
        }
      ],
      "stateMutability": "view",
      "type": "function"
    },
    {
      "inputs": [
        {
          "internalType": "bytes32",
          "name": "",
          "type": "bytes32"
        }
      ],
      "name": "contentToToken",
      "outputs": [
        {
          "internalType": "uint256",
          "name": "",
          "type": "uint256"
        }
      ],
      "stateMutability": "view",
      "type": "function"
    },
    {
      "inputs": [],
      "name": "embeddingDimension",
      "outputs": [
        {
          "internalType": "uint256",
          "name": "",
          "type": "uint256"
        }
      ],
      "stateMutability": "view",
      "type": "function"
    },
    {
      "inputs": [
        {
          "internalType": "bytes32",
          "name": "",
          "type": "bytes32"
        }
      ],
      "name": "fingerprintToToken",
      "outputs": [
        {
          "internalType": "uint256",
          "name": "",
          "type": "uint256"
        }
      ],
      "stateMutability": "view",
      "type": "function"
    },
    {
      "inputs": [
        {
          "internalType": "uint256",
          "name": "tokenId",
          "type": "uint256"
        }
      ],
      "name": "getApproved",
      "outputs": [
        {
          "internalType": "address",
          "name": "",
          "type": "address"
        }
      ],
      "stateMutability": "view",
      "type": "function"
    },
    {
      "inputs": [
        {
          "internalType": "uint256",
          "name": "tokenId",
          "type": "uint256"
        }
      ],
      "name": "getContentMetadata",
      "outputs": [
        {
          "components": [
            {
              "internalType": "bytes32",
              "name": "contentHash",
              "type": "bytes32"
            },
            {
              "internalType": "bytes32",
              "name": "embeddingHash",
              "type": "bytes32"
            },
            {
              "internalType": "uint256",
              "name": "createdAt",
              "type": "uint256"
            },
            {
              "internalType": "address",
              "name": "originalCreator",
              "type": "address"
            }
          ],
          "internalType": "struct ContentAuthenticator.ContentMetadata",
          "name": "",
          "type": "tuple"
        }
      ],
      "stateMutability": "view",
      "type": "function"
    },
    {
      "inputs": [
        {
          "internalType": "bytes32",
          "name": "contentHash",
          "type": "bytes32"
        }
      ],
      "name": "getTokenByContent",
      "outputs": [
        {
          "internalType": "uint256",
          "name": "",
          "type": "uint256"
        }
      ],
      "stateMutability": "view",
      "type": "function"
    },
    {
      "inputs": [
        {
          "internalType": "address",
          "name": "owner",
          "type": "address"
        },
        {
          "internalType": "address",
          "name": "operator",
          "type": "address"
        }
      ],
      "name": "isApprovedForAll",
      "outputs": [
        {
          "internalType": "bool",
          "name": "",
          "type": "bool"
        }
      ],
      "stateMutability": "view",
      "type": "function"
    },
    {
      "inputs": [
        {
          "internalType": "uint256",
          "name": "",
          "type": "uint256"
        }
      ],
      "name": "metadata",
      "outputs": [
        {
          "internalType": "bytes32",
          "name": "contentHash",
          "type": "bytes32"
        },
        {
          "internalType": "bytes32",
          "name": "embeddingHash",
          "type": "bytes32"
        },
        {
          "internalType": "uint256",
          "name": "createdAt",
          "type": "uint256"
        },
        {
          "internalType": "address",
          "name": "originalCreator",
          "type": "address"
        }
      ],
      "stateMutability": "view",
      "type": "function"
    },
    {
      "inputs": [
        {
          "internalType": "bytes32",
          "name": "contentHash",
          "type": "bytes32"
        },
        {
          "internalType": "int256[]",
          "name": "embedding",
          "type": "int256[]"
        }
      ],
      "name": "mintVerified",
      "outputs": [
        {
          "internalType": "uint256",
          "name": "tokenId",
          "type": "uint256"
        }
      ],
      "stateMutability": "nonpayable",
      "type": "function"
    },
    {
      "inputs": [],
      "name": "name",
      "outputs": [
        {
          "internalType": "string",
          "name": "",
          "type": "string"
        }
      ],
      "stateMutability": "view",
      "type": "function"
    },
    {
      "inputs": [],
      "name": "owner",
      "outputs": [
        {
          "internalType": "address",
          "name": "",
          "type": "address"
        }
      ],
      "stateMutability": "view",
      "type": "function"
    },
    {
      "inputs": [
        {
          "internalType": "uint256",
          "name": "tokenId",
          "type": "uint256"
        }
      ],
      "name": "ownerOf",
      "outputs": [
        {
          "internalType": "address",
          "name": "",
          "type": "address"
        }
      ],
      "stateMutability": "view",
      "type": "function"
    },
    {
      "inputs": [],
      "name": "renounceOwnership",
      "outputs": [],
      "stateMutability": "nonpayable",
      "type": "function"
    },
    {
      "inputs": [
        {
          "internalType": "address",
          "name": "from",
          "type": "address"
        },
        {
          "internalType": "address",
          "name": "to",
          "type": "address"
        },
        {
          "internalType": "uint256",
          "name": "tokenId",
          "type": "uint256"
        }
      ],
      "name": "safeTransferFrom",
      "outputs": [],
      "stateMutability": "nonpayable",
      "type": "function"
    },
    {
      "inputs": [
        {
          "internalType": "address",
          "name": "from",
          "type": "address"
        },
        {
          "internalType": "address",
          "name": "to",
          "type": "address"
        },
        {
          "internalType": "uint256",
          "name": "tokenId",
          "type": "uint256"
        },
        {
          "internalType": "bytes",
          "name": "data",
          "type": "bytes"
        }
      ],
      "name": "safeTransferFrom",
      "outputs": [],
      "stateMutability": "nonpayable",
      "type": "function"
    },
    {
      "inputs": [
        {
          "internalType": "address",
          "name": "operator",
          "type": "address"
        },
        {
          "internalType": "bool",
          "name": "approved",
          "type": "bool"
        }
      ],
      "name": "setApprovalForAll",
      "outputs": [],
      "stateMutability": "nonpayable",
      "type": "function"
    },
    {
      "inputs": [
        {
          "internalType": "bytes4",
          "name": "interfaceId",
          "type": "bytes4"
        }
      ],
      "name": "supportsInterface",
      "outputs": [
        {
          "internalType": "bool",
          "name": "",
          "type": "bool"
        }
      ],
      "stateMutability": "view",
      "type": "function"
    },
    {
      "inputs": [],
      "name": "symbol",
      "outputs": [
        {
          "internalType": "string",
          "name": "",
          "type": "string"
        }
      ],
      "stateMutability": "view",
      "type": "function"
    },
    {
      "inputs": [
        {
          "internalType": "uint256",
          "name": "tokenId",
          "type": "uint256"
        }
      ],
      "name": "tokenURI",
      "outputs": [
        {
          "internalType": "string",
          "name": "",
          "type": "string"
        }
      ],
      "stateMutability": "view",
      "type": "function"
    },
    {
      "inputs": [],
      "name": "totalSupply",
      "outputs": [
        {
          "internalType": "uint256",
          "name": "",
          "type": "uint256"
        }
      ],
      "stateMutability": "view",
      "type": "function"
    },
    {
      "inputs": [
        {
          "internalType": "address",
          "name": "from",
          "type": "address"
        },
        {
          "internalType": "address",
          "name": "to",
          "type": "address"
        },
        {
          "internalType": "uint256",
          "name": "tokenId",
          "type": "uint256"
        }
      ],
      "name": "transferFrom",
      "outputs": [],
      "stateMutability": "nonpayable",
      "type": "function"
    },
    {
      "inputs": [
        {
          "internalType": "address",
          "name": "newOwner",
          "type": "address"
        }
      ],
      "name": "transferOwnership",
      "outputs": [],
      "stateMutability": "nonpayable",
      "type": "function"
    }
  ],
  "bytecode": "0x6080604052346103ca576118cb80380380610019816103cf565b9283398101906060818303126103ca5780516001600160401b0381116103ca57826100459183016103f4565b60208201519092906001600160401b0381116103ca576040916100699184016103f4565b91015182516001600160401b0381116102d557600054600181811c911680156103c0575b60208210146102b557601f811161035c575b506020601f82116001146102f657819293946000926102eb575b50508160011b916000199060031b1c1916176000555b81516001600160401b0381116102d557600154600181811c911680156102cb575b60208210146102b557601f8111610250575b50602092601f82116001146101eb57928192936000926101e0575b50508160011b916000199060031b1c1916176001555b33156101ca5760068054336001600160a01b0319821681179092556001600160a01b03167f8be0079c531659141344cd1fd0a4f28419497f9722a3daafe3b4186f6b6457e0600080a36001600755801580156101bf575b6101a557600855600160095560405161146b90816104608239f35b636067a1e560e11b60005260045261040060245260446000fd5b50610400811161018a565b631e4fbdf760e01b600052600060045260246000fd5b01519050388061011d565b601f198216936001600052806000209160005b868110610238575083600195961061021f575b505050811b01600155610133565b015160001960f88460031b161c19169055388080610211565b919260206001819286850151815501940192016101fe565b60016000527fb10e2d527612073b26eecdfd717e6a320cf44b4afac2b0732d9fcbe2b7fa0cf6601f830160051c810191602084106102ab575b601f0160051c01905b81811061029f5750610102565b60008155600101610292565b9091508190610289565b634e487b7160e01b600052602260045260246000fd5b90607f16906100f0565b634e487b7160e01b600052604160045260246000fd5b0151905038806100b9565b601f1982169060008052806000209160005b8181106103445750958360019596971061032b575b505050811b016000556100cf565b015160001960f88460031b161c1916905538808061031d565b9192602060018192868b015181550194019201610308565b600080527f290decd9548b62a8d60345a988386fc84ba6bc95484008f6362f93160ef3e563601f830160051c810191602084106103b6575b601f0160051c01905b8181106103aa575061009f565b6000815560010161039d565b9091508190610394565b90607f169061008d565b600080fd5b6040519190601f01601f191682016001600160401b038111838210176102d557604052565b81601f820112156103ca578051906001600160401b0382116102d557610423601f8301601f19166020016103cf565b92828452602083830101116103ca5760005b82811061044a57505060206000918301015290565b8060208092840101518282870101520161043556fe608080604052600436101561001357600080fd5b600090813560e01c90816301ffc9a714610e585750806306fdde0314610d9d578063081812fc14610d60578063095ea7b314610c7857806318160ddd14610c3857806323b872dd14610c2057806342842e0e14610bf0578063575b68f614610bd35780636352211e14610ba25780636423cfbf14610b785780636d635dd31461073f57806370a08231146106ec578063715018a61461068f57806375475a8d14610594578063784c603d146105be5780638d5b235b146105945780638da5cb5b1461056b57806395d89b411461045e578063a22cb465146103bc578063b88d4fde1461031d578063c859306d146102f5578063c87b56dd14610299578063e3684e3914610243578063e985e9c5146101e9578063f2fde38b1461015f5763fd7288c01461013f57600080fd5b3461015c578060031936011261015c576020600854604051908152f35b80fd5b503461015c57602036600319011261015c57610179610f06565b6101816112cf565b6001600160a01b031680156101d557600680546001600160a01b0319811683179091556001600160a01b03167f8be0079c531659141344cd1fd0a4f28419497f9722a3daafe3b4186f6b6457e0600080a380f35b631e4fbdf760e01b82526004829052602482fd5b503461015c57604036600319011261015c576040610205610f06565b9161020e610f21565b9260018060a01b031681526005602052209060018060a01b0316600052602052602060ff604060002054166040519015158152f35b503461015c57602036600319011261015c576004358152600c6020908152604091829020805460018201546002830154600390930154855192835293820152928301526001600160a01b03166060820152608090f35b503461015c57602036600319011261015c576102b6600435611298565b50806040516102c6602082610ffa565b52506102f16040516102d9602082610ffa565b60008152604051918291602083526020830190610ec5565b0390f35b503461015c57604061030f61030936610f71565b91611218565b825191151582526020820152f35b503461015c57608036600319011261015c57610337610f06565b61033f610f21565b6044356064359167ffffffffffffffff83116103b857366023840112156103b857826004013593856103708661101c565b9461037e6040519687610ffa565b86865236602488830101116103b457866103b19760246020930183890137860101526103ab838383611038565b336112f8565b80f35b5080fd5b8480fd5b503461015c57604036600319011261015c576103d6610f06565b6024359081151580920361045a576001600160a01b0316908115610446573383526005602052604083208284526020526040832060ff1981541660ff83161790556040519081527f17307eab39ab6107e8899845ad3d59bd9653f200f220920489ca2b5937696c3160203392a380f35b630b61174360e31b83526004829052602483fd5b8280fd5b503461015c578060031936011261015c576040519080600154908160011c91600181168015610561575b60208410811461054d5783865290811561052657506001146104c9575b6102f1846104b581860382610ffa565b604051918291602083526020830190610ec5565b600181527fb10e2d527612073b26eecdfd717e6a320cf44b4afac2b0732d9fcbe2b7fa0cf6939250905b80821061050c575090915081016020016104b5826104a5565b9192600181602092548385880101520191019092916104f3565b60ff191660208087019190915292151560051b850190920192506104b591508390506104a5565b634e487b7160e01b83526022600452602483fd5b92607f1692610488565b503461015c578060031936011261015c576006546040516001600160a01b039091168152602090f35b503461015c57602036600319011261015c5760406020916004358152600a83522054604051908152f35b503461015c57602036600319011261015c57600435908060606040516105e381610fc8565b828152826020820152826040820152015281151580610684575b15610672578060809260409252600c6020522060405161061c81610fc8565b815491828252600181015460208301908152606060028301549260408501938452600360018060a01b0391015416930192835260405193845251602084015251604083015260018060a01b039051166060820152f35b6024916306caeb1360e41b8252600452fd5b5060095482106105fd565b503461015c578060031936011261015c576106a86112cf565b600680546001600160a01b0319811690915581906001600160a01b03167f8be0079c531659141344cd1fd0a4f28419497f9722a3daafe3b4186f6b6457e08280a380f35b503461015c57602036600319011261015c576001600160a01b0361070e610f06565b16801561072b578160409160209352600383522054604051908152f35b6322718ad960e21b82526004829052602482fd5b503461015c5761074e36610f71565b600260079493945414610b69576002600755600854808203610b515750838352600a6020526040832054610af5576107a2610794916040519283916020830195866111e4565b03601f198101835282610ffa565b51902091828252600b6020526040822054610ad157600954906000198214610abd57600182016009556020936040516107db8682610ffa565b8481523315610aa9578385526002865260408520546001600160a01b03168015159081610a75575b338088526003895260408089208054600101905587895260028a52882080546001600160a01b031916821790558690827fddf252ad1be2c89b69c2b068fc378daa952ba7f163c4a11628f55a4df523b3ef8a80a450610a61578590333b610924575b50936040849282857f12cc4ee74cc2f839ecdbc895c6a9f0ade6a839e8d11379bf660e433b55f6b5aa9452600a88528483822055818152600b885284838220556003888451926108b484610fc8565b8884528184018581524287860190815233606087018181528b8552600c90955292889020955186559051600186015551600285015590519190920180546001600160a01b0319166001600160a01b0392909216919091179055825191825287820152a36001600755604051908152f35b9061095d9160405180938192630a85bd0160e11b8352336004840152896024840152886044840152608060648401526084830190610ec5565b038188335af1859181610a1d575b506109c25785853d156109ba573d916109838361101c565b926109916040519485610ffa565b83523d828285013e5b825192836109b557633250574960e11b835233600452602483fd5b019050fd5b60609161099a565b929391929091906001600160e01b03191663757a42ff60e11b01610a0a57929190847f12cc4ee74cc2f839ecdbc895c6a9f0ade6a839e8d11379bf660e433b55f6b5aa610865565b633250574960e11b815233600452602490fd5b9091508681813d8311610a5a575b610a358183610ffa565b81010312610a5657516001600160e01b031981168103610a5657903861096b565b8580fd5b503d610a2b565b6339e3563760e11b85526004859052602485fd5b600086815260046020526040902080546001600160a01b031916905580875260038852604087208054600019019055610803565b633250574960e11b85526004859052602485fd5b634e487b7160e01b83526011600452602483fd5b50816044928252600b60205260408220549063441e24ed60e01b8352600452602452fd5b60448385808252600a602052807f44b529c1307b5588d2cfe83a4637f2155aaa5e04d883e9035800b39d8bcfee9160206040852054604051908152a2808252600a60205260408220549063040f7c6760e51b8352600452602452fd5b636067a1e560e11b8452600491909152602452604482fd5b633ee5aeb560e01b8352600483fd5b503461015c57602036600319011261015c5760406020916004358152600b83522054604051908152f35b503461015c57602036600319011261015c576020610bc1600435611298565b6040516001600160a01b039091168152f35b503461015c578060031936011261015c5760206040516104008152f35b503461015c576103b1610c0236610f37565b9060405192610c12602085610ffa565b8584526103ab838383611038565b503461015c576103b1610c3236610f37565b91611038565b503461015c578060031936011261015c57600954600019810191908211610c6457602082604051908152f35b634e487b7160e01b81526011600452602490fd5b503461015c57604036600319011261015c57610c92610f06565b602435610c9e81611298565b33151580610d4d575b80610d22575b610d0f5781906001600160a01b0384811691167f8c5be1e5ebec7d5bd14f71427d1e84f3dd0314c0f7b2291e5b200ac8c7c3b9258680a4825260046020526040822080546001600160a01b0319166001600160a01b0390921691909117905580f35b63a9fbf51f60e01b845233600452602484fd5b506001600160a01b038116845260056020908152604080862033875290915284205460ff1615610cad565b506001600160a01b038116331415610ca7565b503461015c57602036600319011261015c57602090600435610d8181611298565b50815260048252604060018060a01b0391205416604051908152f35b503461015c578060031936011261015c5760405190808054908160011c91600181168015610e4e575b60208410811461054d578386529081156105265750600114610df2576102f1846104b581860382610ffa565b8080527f290decd9548b62a8d60345a988386fc84ba6bc95484008f6362f93160ef3e563939250905b808210610e34575090915081016020016104b5826104a5565b919260018160209254838588010152019101909291610e1b565b92607f1692610dc6565b9050346103b45760203660031901126103b45760043563ffffffff60e01b811680910361045a57602092506380ac58cd60e01b8114908115610eb4575b8115610ea3575b5015158152f35b6301ffc9a760e01b14905038610e9c565b635b5e139f60e01b81149150610e95565b919082519283825260005b848110610ef1575050826000602080949584010152601f8019910116010190565b80602080928401015182828601015201610ed0565b600435906001600160a01b0382168203610f1c57565b600080fd5b602435906001600160a01b0382168203610f1c57565b6060906003190112610f1c576004356001600160a01b0381168103610f1c57906024356001600160a01b0381168103610f1c579060443590565b6040600319820112610f1c576004359160243567ffffffffffffffff8111610f1c5782602382011215610f1c5780600401359267ffffffffffffffff8411610f1c5760248460051b83010111610f1c576024019190565b6080810190811067ffffffffffffffff821117610fe457604052565b634e487b7160e01b600052604160045260246000fd5b90601f8019910116810190811067ffffffffffffffff821117610fe457604052565b67ffffffffffffffff8111610fe457601f01601f191660200190565b6001600160a01b03909116919082156111ce576000828152600260205260408120546001600160a01b0316938391859033151580611136575b507fddf252ad1be2c89b69c2b068fc378daa952ba7f163c4a11628f55a4df523b3ef9082611101575b83815260036020526040812060018154019055848152600260205260408120846bffffffffffffffffffffffff60a01b82541617905580a46001600160a01b03168083036110e757505050565b6364283d7b60e01b60005260045260245260445260646000fd5b600085815260046020526040902080546001600160a01b0319169055828152600360205260408120805460001901905561109a565b91509192508061117f575b15611150579084849238611071565b83908561116957602491637e27328960e01b8252600452fd5b60449163177e802f60e01b825233600452602452fd5b5033851480156111ad575b806111415750838152600460205260408120546001600160a01b03163314611141565b5084815260056020908152604080832033845290915281205460ff1661118a565b633250574960e11b600052600060045260246000fd5b602080825281018390526040019160005b8181106112025750505090565b82358452602093840193909201916001016111f5565b9190916008548083036112805750600052600a602052604060002054806112765750611252610794916040519283916020830195866111e4565b519020600052600b602052604060002054806112715750600190600090565b600091565b9291505060009190565b82636067a1e560e11b60005260045260245260446000fd5b6000818152600260205260409020546001600160a01b03169081156112bb575090565b637e27328960e01b60005260045260246000fd5b6006546001600160a01b031633036112e357565b63118cdaa760e01b6000523360045260246000fd5b823b611306575b5050505050565b604051630a85bd0160e11b81526001600160a01b039182166004820152918116602483015260448201939093526080606482015291169160209082908190611352906084830190610ec5565b03816000865af180916000916113f2575b50906113bc57503d156113b5573d61137a8161101c565b906113886040519283610ffa565b81523d6000602083013e5b805190816113b05782633250574960e11b60005260045260246000fd5b602001fd5b6060611393565b6001600160e01b03191663757a42ff60e11b016113de575038808080806112ff565b633250574960e11b60005260045260246000fd5b6020813d60201161142d575b8161140b60209383610ffa565b810103126103b45751906001600160e01b03198216820361015c575038611363565b3d91506113fe56fea26469706673582212200065d348b8db405736ef13975aa0c1de3e5f80830283bffd222910b60e81607864736f6c634300081c0033",
  "linkReferences": {},
  "deployedLinkReferences": {}
}