{
  "_format": "hh-sol-artifact-1",
  "contractName": "PaymentEscrow",
  "sourceName": "src/templates/PaymentEscrow.sol",
  "abi": [
    {
      "inputs": [
        {
          "internalType": "address",
          "name": "_mdtToken",
          "type": "address"
        }
      ],
      "stateMutability": "nonpayable",
      "type": "constructor"
    },
    {
      "inputs": [],
      "name": "AlreadyRefunded",
      "type": "error"
    },
    {
      "inputs": [],
      "name": "AlreadyReleased",
      "type": "error"
    },
    {
      "inputs": [],
      "name": "InvalidAmount",
      "type": "error"
    },
    {
      "inputs": [],
      "name": "NotDepositor",
      "type": "error"
    },
    {
      "inputs": [],
      "name": "NotOracle",
      "type": "error"
    },
    {
      "inputs": [],
      "name": "NotTimedOut",
      "type": "error"
    },
    {
      "inputs": [
        {
          "internalType": "address",
          "name": "owner",
          "type": "address"
        }
      ],
      "name": "OwnableInvalidOwner",
      "type": "error"
    },
    {
      "inputs": [
        {
          "internalType": "address",
          "name": "account",
          "type": "address"
        }
      ],
      "name": "OwnableUnauthorizedAccount",
      "type": "error"
    },
    {
      "inputs": [],
      "name": "ReentrancyGuardReentrantCall",
      "type": "error"
    },
    {
      "inputs": [],
      "name": "RequestExists",
      "type": "error"
    },
    {
      "inputs": [],
      "name": "RequestNotFound",
      "type": "error"
    },
    {
      "inputs": [
        {
          "internalType": "address",
          "name": "token",
          "type": "address"
        }
      ],
      "name": "SafeERC20FailedOperation",
      "type": "error"
    },
    {
      "anonymous": false,
      "inputs": [
        {
          "indexed": true,
          "internalType": "bytes32",
          "name": "requestId",
          "type": "bytes32"
        },
        {
          "indexed": true,
          "internalType": "address",
          "name": "depositor",
          "type": "address"
        },
        {
          "indexed": false,
          "internalType": "uint256",
          "name": "amount",
          "type": "uint256"
        },
        {
          "indexed": false,
          "internalType": "uint256",
          "name": "timeout",
          "type": "uint256"
        }
      ],
      "name": "Deposited",
      "type": "event"
    },
    {
      "anonymous": false,
      "inputs": [
        {
          "indexed": true,
          "internalType": "address",
          "name": "oldOracle",
          "type": "address"
        },
        {
          "indexed": true,
          "internalType": "address",
          "name": "newOracle",
          "type": "address"
        }
      ],
      "name": "OracleUpdated",
      "type": "event"
    },
    {
      "anonymous": false,
      "inputs": [
        {
          "indexed": true,
          "internalType": "address",
          "name": "previousOwner",
          "type": "address"
        },
        {
          "indexed": true,
          "internalType": "address",
          "name": "newOwner",
          "type": "address"
        }
      ],
      "name": "OwnershipTransferred",
      "type": "event"
    },
    {
      "anonymous": false,
      "inputs": [
        {
          "indexed": true,
          "internalType": "bytes32",
          "name": "requestId",
          "type": "bytes32"
        },
        {
          "indexed": true,
          "internalType": "address",
          "name": "depositor",
          "type": "address"
        },
        {
          "indexed": false,
          "internalType": "uint256",
          "name": "amount",
          "type": "uint256"
        }
      ],
      "name": "Refunded",
      "type": "event"
    },
    {
      "anonymous": false,
      "inputs": [
        {
          "indexed": true,
          "internalType": "bytes32",
          "name": "requestId",
          "type": "bytes32"
        },
        {
          "indexed": true,
          "internalType": "address",
          "name": "miner",
          "type": "address"
        },
        {
          "indexed": false,
          "internalType": "uint256",
          "name": "minerAmount",
          "type": "uint256"
        },
        {
          "indexed": false,
          "internalType": "uint256",
          "name": "protocolFee",
          "type": "uint256"
        }
      ],
      "name": "Released",
      "type": "event"
    },
    {
      "inputs": [],
      "name": "accumulatedFees",
      "outputs": [
        {
          "internalType": "uint256",
          "name": "",
          "type": "uint256"
        }
      ],
      "stateMutability": "view",
      "type": "function"
    },
    {
      "inputs": [],
      "name": "aiOracle",
      "outputs": [
        {
          "internalType": "address",
          "name": "",
          "type": "address"
        }
      ],
      "stateMutability": "view",
      "type": "function"
    },
    {
      "inputs": [
        {
          "internalType": "bytes32",
          "name": "requestId",
          "type": "bytes32"
        }
      ],
      "name": "canRefund",
      "outputs": [
        {
          "internalType": "bool",
          "name": "",
          "type": "bool"
        }
      ],
      "stateMutability": "view",
      "type": "function"
    },
    {
      "inputs": [
        {
          "internalType": "bytes32",
          "name": "requestId",
          "type": "bytes32"
        },
        {
          "internalType": "uint256",
          "name": "amount",
          "type": "uint256"
        },
        {
          "internalType": "uint256",
          "name": "timeout",
          "type": "uint256"
        }
      ],
      "name": "deposit",
      "outputs": [],
      "stateMutability": "nonpayable",
      "type": "function"
    },
    {
      "inputs": [
        {
          "internalType": "bytes32",
          "name": "",
          "type": "bytes32"
        }
      ],
      "name": "escrows",
      "outputs": [
        {
          "internalType": "address",
          "name": "depositor",
          "type": "address"
        },
        {
          "internalType": "uint256",
          "name": "amount",
          "type": "uint256"
        },
        {
          "internalType": "uint256",
          "name": "depositedAt",
          "type": "uint256"
        },
        {
          "internalType": "uint256",
          "name": "timeout",
          "type": "uint256"
        },
        {
          "internalType": "bool",
          "name": "released",
          "type": "bool"
        },
        {
          "internalType": "bool",
          "name": "refunded",
          "type": "bool"
        }
      ],
      "stateMutability": "view",
      "type": "function"
    },
    {
      "inputs": [
        {
          "internalType": "bytes32",
          "name": "requestId",
          "type": "bytes32"
        }
      ],
      "name": "getEscrow",
      "outputs": [
        {
          "components": [
            {
              "internalType": "address",
              "name": "depositor",
              "type": "address"
            },
            {
              "internalType": "uint256",
              "name": "amount",
              "type": "uint256"
            },
            {
              "internalType": "uint256",
              "name": "depositedAt",
              "type": "uint256"
            },
            {
              "internalType": "uint256",
              "name": "timeout",
              "type": "uint256"
            },
            {
              "internalType": "bool",
              "name": "released",
              "type": "bool"
            },
            {
              "internalType": "bool",
              "name": "refunded",
              "type": "bool"
            }
          ],
          "internalType": "struct PaymentEscrow.EscrowEntry",
          "name": "",
          "type": "tuple"
        }
      ],
      "stateMutability": "view",
      "type": "function"
    },
    {
      "inputs": [],
      "name": "mdtToken",
      "outputs": [
        {
          "internalType": "contract IERC20",
          "name": "",
          "type": "address"
        }
      ],
      "stateMutability": "view",
      "type": "function"
    },
    {
      "inputs": [],
      "name": "minTimeout",
      "outputs": [
        {
          "internalType": "uint256",
          "name": "",
          "type": "uint256"
        }
      ],
      "stateMutability": "view",
      "type": "function"
    },
    {
      "inputs": [],
      "name": "owner",
      "outputs": [
        {
          "internalType": "address",
          "name": "",
          "type": "address"
        }
      ],
      "stateMutability": "view",
      "type": "function"
    },
    {
      "inputs": [],
      "name": "protocolFeeBps",
      "outputs": [
        {
          "internalType": "uint256",
          "name": "",
          "type": "uint256"
        }
      ],
      "stateMutability": "view",
      "type": "function"
    },
    {
      "inputs": [
        {
          "internalType": "bytes32",
          "name": "requestId",
          "type": "bytes32"
        }
      ],
      "name": "refund",
      "outputs": [],
      "stateMutability": "nonpayable",
      "type": "function"
    },
    {
      "inputs": [
        {
          "internalType": "bytes32",
          "name": "requestId",
          "type": "bytes32"
        },
        {
          "internalType": "address",
          "name": "miner",
          "type": "address"
        }
      ],
      "name": "release",
      "outputs": [],
      "stateMutability": "nonpayable",
      "type": "function"
    },
    {
      "inputs": [],
      "name": "renounceOwnership",
      "outputs": [],
      "stateMutability": "nonpayable",
      "type": "function"
    },
    {
      "inputs": [
        {
          "internalType": "address",
          "name": "_aiOracle",
          "type": "address"
        }
      ],
      "name": "setAIOracle",
      "outputs": [],
      "stateMutability": "nonpayable",
      "type": "function"
    },
    {
      "inputs": [
        {
          "internalType": "uint256",
          "name": "_feeBps",
          "type": "uint256"
        }
      ],
      "name": "setProtocolFee",
      "outputs": [],
      "stateMutability": "nonpayable",
      "type": "function"
    },
    {
      "inputs": [
        {
          "internalType": "address",
          "name": "newOwner",
          "type": "address"
        }
      ],
      "name": "transferOwnership",
      "outputs": [],
      "stateMutability": "nonpayable",
      "type": "function"
    },
    {
      "inputs": [
        {
          "internalType": "address",
          "name": "recipient",
          "type": "address"
        }
      ],
      "name": "withdrawFees",
      "outputs": [],
      "stateMutability": "nonpayable",
      "type": "function"
    }
  ],
  "bytecode": "0x60a0346100f757601f610c9438819003918201601f19168301916001600160401b038311848410176100fc578084926020946040528339810103126100f757516001600160a01b038116908190036100f75733156100e15760008054336001600160a01b0319821681178355604051939290916001600160a01b0316907f8be0079c531659141344cd1fd0a4f28419497f9722a3daafe3b4186f6b6457e09080a36001805560646004556032600555608052610b819081610113823960805181818160ed0152818161044e015281816106b8015281816108c601526109ba0152f35b631e4fbdf760e01b600052600060045260246000fd5b600080fd5b634e487b7160e01b600052604160045260246000fdfe6080604052600436101561001257600080fd5b60003560e01c8063164e68de1461098b5780631aa632b3146109225780631bbdcfd3146107de578063278f2ab8146106315780632d83549c146105bf57806331b221cd1461059657806335659fb8146105785780634cf71be41461055a578063587f5ed71461053c578063715018a6146104e35780637249fbb614610399578063787dce3d1461033b5780638c8c2003146102ad5780638da5cb5b14610284578063f023b811146101aa578063f2fde38b146101215763f70b5c06146100d757600080fd5b3461011c57600036600319011261011c576040517f00000000000000000000000000000000000000000000000000000000000000006001600160a01b03168152602090f35b600080fd5b3461011c57602036600319011261011c5761013a6109e0565b610142610a57565b6001600160a01b0316801561019457600080546001600160a01b03198116831782556001600160a01b0316907f8be0079c531659141344cd1fd0a4f28419497f9722a3daafe3b4186f6b6457e09080a3005b631e4fbdf760e01b600052600060045260246000fd5b3461011c57602036600319011261011c57600060a06040516101cb81610a03565b8281528260208201528260408201528260608201528260808201520152600435600052600360205260c060406000206040519061020782610a03565b60018060a01b03815416918281526001820154916020820192835260028101546040830190815260046003830154926060850193845201549360ff60a0608086019582881615158752019560081c1615158552604051958652516020860152516040850152516060840152511515608083015251151560a0820152f35b3461011c57600036600319011261011c576000546040516001600160a01b039091168152602090f35b3461011c57602036600319011261011c5760043560005260036020526020604060002060018060a01b038154161515908161032b575b81610318575b816102fa575b506040519015158152f35b61030f915060036002820154910154906109f6565b431015826102ef565b600481015460081c60ff161591506102e9565b600481015460ff161591506102e3565b3461011c57602036600319011261011c57600435610357610a57565b6101f4811161036557600555005b60405162461bcd60e51b815260206004820152600c60248201526b08ccaca40e8dede40d0d2ced60a31b6044820152606490fd5b3461011c57602036600319011261011c576004356103b5610ac2565b600081815260036020526040902080546001600160a01b0316919082156104d257600481019081549060ff82166104c15760ff8260081c166104b05784330361049f5761040b60028201546003830154906109f6565b431061048e577ff552ca82e113ac3c539c3d617f29fcd19c172a0c75dad017555c9e109f7fe1839261010060209361ff00191617905561047260018201958654907f0000000000000000000000000000000000000000000000000000000000000000610a80565b5493546040519081526001600160a01b0390941693a360018055005b63828630fb60e01b60005260046000fd5b633cc50b4560e01b60005260046000fd5b63542f378d60e11b60005260046000fd5b6331da482760e11b60005260046000fd5b632589d98f60e11b60005260046000fd5b3461011c57600036600319011261011c576104fc610a57565b600080546001600160a01b0319811682556001600160a01b03167f8be0079c531659141344cd1fd0a4f28419497f9722a3daafe3b4186f6b6457e08280a3005b3461011c57600036600319011261011c576020600654604051908152f35b3461011c57600036600319011261011c576020600454604051908152f35b3461011c57600036600319011261011c576020600554604051908152f35b3461011c57600036600319011261011c576002546040516001600160a01b039091168152602090f35b3461011c57602036600319011261011c57600435600052600360205260c0604060002060ff60018060a01b0382541691600181015490600281015460046003830154920154926040519586526020860152604085015260608401528181161515608084015260081c16151560a0820152f35b3461011c57606036600319011261011c57602435600435604435610653610ac2565b8083156107cd576000838152600360205260409020546001600160a01b03166107bc576004548091106107b4575b506106dc6040516323b872dd60e01b6020820152336024820152306044820152846064820152606481526106b6608482610a35565b7f0000000000000000000000000000000000000000000000000000000000000000610ae4565b6040516106e881610a03565b33815260208101848152600460408301924384526060810185815260808201946000865260a08301946000865288600052600360205260406000209360018060a01b039051166bffffffffffffffffffffffff60a01b855416178455516001840155516002830155516003820155019151151560ff8019845416911617825551151561ff0082549160081b169061ff00191617905560405192835260208301527f2dcdaad87b561ba5a69835009b4c53ef9d3c41ca6cc9574049187659d6c6a71560403393a360018055005b905083610681565b63756f5c2d60e11b60005260046000fd5b63162908e360e11b60005260046000fd5b3461011c57604036600319011261011c576024356001600160a01b038116906004359082810361011c576002546001600160a01b0316330361091157610822610ac2565b600082815260036020526040902080546001600160a01b0316156104d257600481019081549160ff83166104c15760ff8360081c166104b0576001809360ff19161790550154906005548083029083820414831517156108fb576127109004918281039081116108fb57826108ea826040946108c17fbaa21fb6000fbb6d014fac9cd1b0726799e6f352a967157a59f4b2da8ef32211976006546109f6565b6006557f0000000000000000000000000000000000000000000000000000000000000000610a80565b82519182526020820152a360018055005b634e487b7160e01b600052601160045260246000fd5b631bc2178f60e01b60005260046000fd5b3461011c57602036600319011261011c5761093b6109e0565b610943610a57565b6002546001600160a01b0391821691829082167f078c3b417dadf69374a59793b829c52001247130433427049317bde56607b1b7600080a36001600160a01b03191617600255005b3461011c57602036600319011261011c576109de6109a76109e0565b6109af610a57565b6006549060006006557f0000000000000000000000000000000000000000000000000000000000000000610a80565b005b600435906001600160a01b038216820361011c57565b919082018092116108fb57565b60c0810190811067ffffffffffffffff821117610a1f57604052565b634e487b7160e01b600052604160045260246000fd5b90601f8019910116810190811067ffffffffffffffff821117610a1f57604052565b6000546001600160a01b03163303610a6b57565b63118cdaa760e01b6000523360045260246000fd5b60405163a9059cbb60e01b60208201526001600160a01b039092166024830152604480830193909352918152610ac091610abb606483610a35565b610ae4565b565b600260015414610ad3576002600155565b633ee5aeb560e01b60005260046000fd5b906000602091828151910182855af115610b3f576000513d610b3657506001600160a01b0381163b155b610b155750565b635274afe760e01b60009081526001600160a01b0391909116600452602490fd5b60011415610b0e565b6040513d6000823e3d90fdfea2646970667358221220d26a9d75c33e7cf8247a2ac948c8c5212fe2f5bda7fe6afb9317081af243034a64736f6c634300081c0033",
  "linkReferences": {},
  "deployedLinkReferences": {}
}